{
	"Bloc.sol": {
		"Bloc": {
			"abi": [
				{
					"inputs": [],
					"name": "AccessControlBadConfirmation",
					"type": "error"
				},
				{
					"inputs": [
						{
							"internalType": "address",
							"name": "account",
							"type": "address"
						},
						{
							"internalType": "bytes32",
							"name": "neededRole",
							"type": "bytes32"
						}
					],
					"name": "AccessControlUnauthorizedAccount",
					"type": "error"
				},
				{
					"inputs": [],
					"name": "InvalidInitialization",
					"type": "error"
				},
				{
					"inputs": [],
					"name": "NotInitializing",
					"type": "error"
				},
				{
					"inputs": [
						{
							"internalType": "address",
							"name": "owner",
							"type": "address"
						}
					],
					"name": "OwnableInvalidOwner",
					"type": "error"
				},
				{
					"inputs": [
						{
							"internalType": "address",
							"name": "account",
							"type": "address"
						}
					],
					"name": "OwnableUnauthorizedAccount",
					"type": "error"
				},
				{
					"anonymous": false,
					"inputs": [
						{
							"indexed": false,
							"internalType": "uint64",
							"name": "version",
							"type": "uint64"
						}
					],
					"name": "Initialized",
					"type": "event"
				},
				{
					"anonymous": false,
					"inputs": [
						{
							"indexed": true,
							"internalType": "address",
							"name": "previousOwner",
							"type": "address"
						},
						{
							"indexed": true,
							"internalType": "address",
							"name": "newOwner",
							"type": "address"
						}
					],
					"name": "OwnershipTransferred",
					"type": "event"
				},
				{
					"anonymous": false,
					"inputs": [
						{
							"indexed": true,
							"internalType": "bytes32",
							"name": "role",
							"type": "bytes32"
						},
						{
							"indexed": true,
							"internalType": "bytes32",
							"name": "previousAdminRole",
							"type": "bytes32"
						},
						{
							"indexed": true,
							"internalType": "bytes32",
							"name": "newAdminRole",
							"type": "bytes32"
						}
					],
					"name": "RoleAdminChanged",
					"type": "event"
				},
				{
					"anonymous": false,
					"inputs": [
						{
							"indexed": true,
							"internalType": "bytes32",
							"name": "role",
							"type": "bytes32"
						},
						{
							"indexed": true,
							"internalType": "address",
							"name": "account",
							"type": "address"
						},
						{
							"indexed": true,
							"internalType": "address",
							"name": "sender",
							"type": "address"
						}
					],
					"name": "RoleGranted",
					"type": "event"
				},
				{
					"anonymous": false,
					"inputs": [
						{
							"indexed": true,
							"internalType": "bytes32",
							"name": "role",
							"type": "bytes32"
						},
						{
							"indexed": true,
							"internalType": "address",
							"name": "account",
							"type": "address"
						},
						{
							"indexed": true,
							"internalType": "address",
							"name": "sender",
							"type": "address"
						}
					],
					"name": "RoleRevoked",
					"type": "event"
				},
				{
					"inputs": [],
					"name": "DEFAULT_ADMIN_ROLE",
					"outputs": [
						{
							"internalType": "bytes32",
							"name": "",
							"type": "bytes32"
						}
					],
					"stateMutability": "view",
					"type": "function"
				},
				{
					"inputs": [],
					"name": "cid",
					"outputs": [
						{
							"internalType": "string",
							"name": "",
							"type": "string"
						}
					],
					"stateMutability": "view",
					"type": "function"
				},
				{
					"inputs": [
						{
							"internalType": "uint256",
							"name": "_seedBoxId",
							"type": "uint256"
						},
						{
							"internalType": "bytes32",
							"name": "_seedId",
							"type": "bytes32"
						},
						{
							"internalType": "string",
							"name": "_seed",
							"type": "string"
						},
						{
							"internalType": "address",
							"name": "sender",
							"type": "address"
						}
					],
					"name": "completeSeed",
					"outputs": [],
					"stateMutability": "nonpayable",
					"type": "function"
				},
				{
					"inputs": [
						{
							"internalType": "string",
							"name": "_cid",
							"type": "string"
						},
						{
							"internalType": "address[]",
							"name": "_contributors",
							"type": "address[]"
						},
						{
							"internalType": "address",
							"name": "creator",
							"type": "address"
						}
					],
					"name": "createSeedBox",
					"outputs": [
						{
							"internalType": "uint256",
							"name": "",
							"type": "uint256"
						}
					],
					"stateMutability": "nonpayable",
					"type": "function"
				},
				{
					"inputs": [],
					"name": "currentRound",
					"outputs": [
						{
							"internalType": "uint256",
							"name": "",
							"type": "uint256"
						}
					],
					"stateMutability": "view",
					"type": "function"
				},
				{
					"inputs": [],
					"name": "getAllSeedBoxes",
					"outputs": [
						{
							"components": [
								{
									"internalType": "uint256",
									"name": "id",
									"type": "uint256"
								},
								{
									"internalType": "string",
									"name": "cid",
									"type": "string"
								},
								{
									"internalType": "address[]",
									"name": "contributors",
									"type": "address[]"
								},
								{
									"internalType": "uint256[]",
									"name": "participatedRounds",
									"type": "uint256[]"
								},
								{
									"internalType": "address",
									"name": "creator",
									"type": "address"
								}
							],
							"internalType": "struct Bloc.SeedBoxInfo[]",
							"name": "",
							"type": "tuple[]"
						}
					],
					"stateMutability": "view",
					"type": "function"
				},
				{
					"inputs": [],
					"name": "getBlocMetadata",
					"outputs": [
						{
							"internalType": "string",
							"name": "",
							"type": "string"
						},
						{
							"internalType": "bool",
							"name": "",
							"type": "bool"
						},
						{
							"internalType": "uint256",
							"name": "",
							"type": "uint256"
						}
					],
					"stateMutability": "view",
					"type": "function"
				},
				{
					"inputs": [
						{
							"internalType": "bytes32",
							"name": "_seedId",
							"type": "bytes32"
						}
					],
					"name": "getBoxIdBySeedId",
					"outputs": [
						{
							"internalType": "uint256",
							"name": "",
							"type": "uint256"
						}
					],
					"stateMutability": "view",
					"type": "function"
				},
				{
					"inputs": [
						{
							"internalType": "bytes32",
							"name": "role",
							"type": "bytes32"
						}
					],
					"name": "getRoleAdmin",
					"outputs": [
						{
							"internalType": "bytes32",
							"name": "",
							"type": "bytes32"
						}
					],
					"stateMutability": "view",
					"type": "function"
				},
				{
					"inputs": [
						{
							"internalType": "uint256",
							"name": "round",
							"type": "uint256"
						}
					],
					"name": "getSeedsByRound",
					"outputs": [
						{
							"components": [
								{
									"internalType": "bytes32",
									"name": "id",
									"type": "bytes32"
								},
								{
									"internalType": "string",
									"name": "seed",
									"type": "string"
								},
								{
									"internalType": "bool",
									"name": "merged",
									"type": "bool"
								},
								{
									"internalType": "enum MusicBloc.State",
									"name": "state",
									"type": "uint8"
								},
								{
									"internalType": "uint256",
									"name": "boxID",
									"type": "uint256"
								}
							],
							"internalType": "struct MusicBloc.Seed[]",
							"name": "",
							"type": "tuple[]"
						}
					],
					"stateMutability": "view",
					"type": "function"
				},
				{
					"inputs": [
						{
							"internalType": "bytes32",
							"name": "role",
							"type": "bytes32"
						},
						{
							"internalType": "address",
							"name": "account",
							"type": "address"
						}
					],
					"name": "grantRole",
					"outputs": [],
					"stateMutability": "nonpayable",
					"type": "function"
				},
				{
					"inputs": [
						{
							"internalType": "bytes32",
							"name": "role",
							"type": "bytes32"
						},
						{
							"internalType": "address",
							"name": "account",
							"type": "address"
						}
					],
					"name": "hasRole",
					"outputs": [
						{
							"internalType": "bool",
							"name": "",
							"type": "bool"
						}
					],
					"stateMutability": "view",
					"type": "function"
				},
				{
					"inputs": [
						{
							"internalType": "address",
							"name": "admin",
							"type": "address"
						},
						{
							"internalType": "string",
							"name": "_cid",
							"type": "string"
						},
						{
							"internalType": "address",
							"name": "soundSphereAddress",
							"type": "address"
						},
						{
							"internalType": "string",
							"name": "seed",
							"type": "string"
						}
					],
					"name": "initialize",
					"outputs": [],
					"stateMutability": "nonpayable",
					"type": "function"
				},
				{
					"inputs": [
						{
							"internalType": "bytes32",
							"name": "_seedId",
							"type": "bytes32"
						},
						{
							"internalType": "bool",
							"name": "_release",
							"type": "bool"
						},
						{
							"internalType": "address",
							"name": "sender",
							"type": "address"
						}
					],
					"name": "mergeSeed",
					"outputs": [],
					"stateMutability": "nonpayable",
					"type": "function"
				},
				{
					"inputs": [],
					"name": "owner",
					"outputs": [
						{
							"internalType": "address",
							"name": "",
							"type": "address"
						}
					],
					"stateMutability": "view",
					"type": "function"
				},
				{
					"inputs": [
						{
							"internalType": "uint256",
							"name": "_seedBoxId",
							"type": "uint256"
						},
						{
							"internalType": "address",
							"name": "sender",
							"type": "address"
						}
					],
					"name": "plantSeed",
					"outputs": [
						{
							"internalType": "bytes32",
							"name": "",
							"type": "bytes32"
						},
						{
							"internalType": "uint256",
							"name": "",
							"type": "uint256"
						}
					],
					"stateMutability": "nonpayable",
					"type": "function"
				},
				{
					"inputs": [
						{
							"internalType": "uint256",
							"name": "_seedBoxId",
							"type": "uint256"
						},
						{
							"internalType": "string",
							"name": "_message",
							"type": "string"
						},
						{
							"internalType": "address",
							"name": "sender",
							"type": "address"
						}
					],
					"name": "postStatus",
					"outputs": [],
					"stateMutability": "nonpayable",
					"type": "function"
				},
				{
					"inputs": [],
					"name": "released",
					"outputs": [
						{
							"internalType": "bool",
							"name": "",
							"type": "bool"
						}
					],
					"stateMutability": "view",
					"type": "function"
				},
				{
					"inputs": [],
					"name": "renounceOwnership",
					"outputs": [],
					"stateMutability": "nonpayable",
					"type": "function"
				},
				{
					"inputs": [
						{
							"internalType": "bytes32",
							"name": "role",
							"type": "bytes32"
						},
						{
							"internalType": "address",
							"name": "callerConfirmation",
							"type": "address"
						}
					],
					"name": "renounceRole",
					"outputs": [],
					"stateMutability": "nonpayable",
					"type": "function"
				},
				{
					"inputs": [
						{
							"internalType": "bytes32",
							"name": "role",
							"type": "bytes32"
						},
						{
							"internalType": "address",
							"name": "account",
							"type": "address"
						}
					],
					"name": "revokeRole",
					"outputs": [],
					"stateMutability": "nonpayable",
					"type": "function"
				},
				{
					"inputs": [
						{
							"internalType": "uint256",
							"name": "",
							"type": "uint256"
						},
						{
							"internalType": "bytes32",
							"name": "",
							"type": "bytes32"
						}
					],
					"name": "roundSeeds",
					"outputs": [
						{
							"internalType": "bytes32",
							"name": "id",
							"type": "bytes32"
						},
						{
							"internalType": "string",
							"name": "seed",
							"type": "string"
						},
						{
							"internalType": "bool",
							"name": "merged",
							"type": "bool"
						},
						{
							"internalType": "enum MusicBloc.State",
							"name": "state",
							"type": "uint8"
						},
						{
							"internalType": "uint256",
							"name": "boxID",
							"type": "uint256"
						}
					],
					"stateMutability": "view",
					"type": "function"
				},
				{
					"inputs": [
						{
							"internalType": "uint256",
							"name": "",
							"type": "uint256"
						}
					],
					"name": "seedBoxes",
					"outputs": [
						{
							"internalType": "uint256",
							"name": "id",
							"type": "uint256"
						},
						{
							"internalType": "string",
							"name": "cid",
							"type": "string"
						},
						{
							"internalType": "address",
							"name": "creator",
							"type": "address"
						}
					],
					"stateMutability": "view",
					"type": "function"
				},
				{
					"inputs": [
						{
							"internalType": "uint256",
							"name": "",
							"type": "uint256"
						}
					],
					"name": "statuses",
					"outputs": [
						{
							"internalType": "uint256",
							"name": "boxID",
							"type": "uint256"
						},
						{
							"internalType": "uint256",
							"name": "id",
							"type": "uint256"
						},
						{
							"internalType": "string",
							"name": "message",
							"type": "string"
						},
						{
							"internalType": "address",
							"name": "author",
							"type": "address"
						}
					],
					"stateMutability": "view",
					"type": "function"
				},
				{
					"inputs": [
						{
							"internalType": "bytes4",
							"name": "interfaceId",
							"type": "bytes4"
						}
					],
					"name": "supportsInterface",
					"outputs": [
						{
							"internalType": "bool",
							"name": "",
							"type": "bool"
						}
					],
					"stateMutability": "view",
					"type": "function"
				},
				{
					"inputs": [
						{
							"internalType": "address",
							"name": "newOwner",
							"type": "address"
						}
					],
					"name": "transferOwnership",
					"outputs": [],
					"stateMutability": "nonpayable",
					"type": "function"
				}
			],
			"devdoc": {
				"errors": {
					"AccessControlBadConfirmation()": [
						{
							"details": "The caller of a function is not the expected one. NOTE: Don't confuse with {AccessControlUnauthorizedAccount}."
						}
					],
					"AccessControlUnauthorizedAccount(address,bytes32)": [
						{
							"details": "The `account` is missing a role."
						}
					],
					"InvalidInitialization()": [
						{
							"details": "The contract is already initialized."
						}
					],
					"NotInitializing()": [
						{
							"details": "The contract is not initializing."
						}
					],
					"OwnableInvalidOwner(address)": [
						{
							"details": "The owner is not a valid owner account. (eg. `address(0)`)"
						}
					],
					"OwnableUnauthorizedAccount(address)": [
						{
							"details": "The caller account is not authorized to perform an operation."
						}
					]
				},
				"events": {
					"Initialized(uint64)": {
						"details": "Triggered when the contract has been initialized or reinitialized."
					},
					"RoleAdminChanged(bytes32,bytes32,bytes32)": {
						"details": "Emitted when `newAdminRole` is set as ``role``'s admin role, replacing `previousAdminRole` `DEFAULT_ADMIN_ROLE` is the starting admin for all roles, despite {RoleAdminChanged} not being emitted signaling this."
					},
					"RoleGranted(bytes32,address,address)": {
						"details": "Emitted when `account` is granted `role`. `sender` is the account that originated the contract call, an admin role bearer except when using {AccessControl-_setupRole}."
					},
					"RoleRevoked(bytes32,address,address)": {
						"details": "Emitted when `account` is revoked `role`. `sender` is the account that originated the contract call:   - if using `revokeRole`, it is the admin role bearer   - if using `renounceRole`, it is the role bearer (i.e. `account`)"
					}
				},
				"kind": "dev",
				"methods": {
					"getRoleAdmin(bytes32)": {
						"details": "Returns the admin role that controls `role`. See {grantRole} and {revokeRole}. To change a role's admin, use {_setRoleAdmin}."
					},
					"grantRole(bytes32,address)": {
						"details": "Grants `role` to `account`. If `account` had not been already granted `role`, emits a {RoleGranted} event. Requirements: - the caller must have ``role``'s admin role. May emit a {RoleGranted} event."
					},
					"hasRole(bytes32,address)": {
						"details": "Returns `true` if `account` has been granted `role`."
					},
					"owner()": {
						"details": "Returns the address of the current owner."
					},
					"renounceOwnership()": {
						"details": "Leaves the contract without owner. It will not be possible to call `onlyOwner` functions. Can only be called by the current owner. NOTE: Renouncing ownership will leave the contract without an owner, thereby disabling any functionality that is only available to the owner."
					},
					"renounceRole(bytes32,address)": {
						"details": "Revokes `role` from the calling account. Roles are often managed via {grantRole} and {revokeRole}: this function's purpose is to provide a mechanism for accounts to lose their privileges if they are compromised (such as when a trusted device is misplaced). If the calling account had been revoked `role`, emits a {RoleRevoked} event. Requirements: - the caller must be `callerConfirmation`. May emit a {RoleRevoked} event."
					},
					"revokeRole(bytes32,address)": {
						"details": "Revokes `role` from `account`. If `account` had been granted `role`, emits a {RoleRevoked} event. Requirements: - the caller must have ``role``'s admin role. May emit a {RoleRevoked} event."
					},
					"supportsInterface(bytes4)": {
						"details": "See {IERC165-supportsInterface}."
					},
					"transferOwnership(address)": {
						"details": "Transfers ownership of the contract to a new account (`newOwner`). Can only be called by the current owner."
					}
				},
				"version": 1
			},
			"evm": {
				"assembly": "    /* \"Bloc.sol\":286:8846  contract Bloc is Ownable(msg.sender), Initializable, AccessControl {... */\n  mstore(0x40, 0x80)\n  callvalue\n  dup1\n  iszero\n  tag_1\n  jumpi\n  0x00\n  dup1\n  revert\ntag_1:\n  pop\n    /* \"Bloc.sol\":311:321  msg.sender */\n  caller\n  dup1\n    /* \"@openzeppelin/contracts/access/Ownable.sol\":1269:1364  if (initialOwner == address(0)) {... */\n  tag_4\n  jumpi\n    /* \"@openzeppelin/contracts/access/Ownable.sol\":1322:1353  OwnableInvalidOwner(address(0)) */\n  mload(0x40)\n  shl(0xe0, 0x1e4fbdf7)\n  dup2\n  mstore\n    /* \"@openzeppelin/contracts/access/Ownable.sol\":1350:1351  0 */\n  0x00\n    /* \"@openzeppelin/contracts/access/Ownable.sol\":1322:1353  OwnableInvalidOwner(address(0)) */\n  0x04\n  dup3\n  add\n    /* \"#utility.yul\":160:211   */\n  mstore\n    /* \"#utility.yul\":133:151   */\n  0x24\n  add\n    /* \"@openzeppelin/contracts/access/Ownable.sol\":1322:1353  OwnableInvalidOwner(address(0)) */\n  mload(0x40)\n  dup1\n  swap2\n  sub\n  swap1\n  revert\n    /* \"@openzeppelin/contracts/access/Ownable.sol\":1269:1364  if (initialOwner == address(0)) {... */\ntag_4:\n    /* \"@openzeppelin/contracts/access/Ownable.sol\":1373:1405  _transferOwnership(initialOwner) */\n  tag_7\n    /* \"@openzeppelin/contracts/access/Ownable.sol\":1392:1404  initialOwner */\n  dup2\n    /* \"@openzeppelin/contracts/access/Ownable.sol\":1373:1391  _transferOwnership */\n  tag_8\n    /* \"@openzeppelin/contracts/access/Ownable.sol\":1373:1405  _transferOwnership(initialOwner) */\n  jump\t// in\ntag_7:\n    /* \"@openzeppelin/contracts/access/Ownable.sol\":1225:1412  constructor(address initialOwner) {... */\n  pop\n    /* \"Bloc.sol\":286:8846  contract Bloc is Ownable(msg.sender), Initializable, AccessControl {... */\n  jump(tag_11)\n    /* \"@openzeppelin/contracts/access/Ownable.sol\":2912:3099  function _transferOwnership(address newOwner) internal virtual {... */\ntag_8:\n    /* \"@openzeppelin/contracts/access/Ownable.sol\":2985:3001  address oldOwner */\n  0x00\n    /* \"@openzeppelin/contracts/access/Ownable.sol\":3004:3010  _owner */\n  dup1\n  sload\n  sub(shl(0xa0, 0x01), 0x01)\n    /* \"@openzeppelin/contracts/access/Ownable.sol\":3020:3037  _owner = newOwner */\n  dup4\n  dup2\n  and\n  not(sub(shl(0xa0, 0x01), 0x01))\n  dup4\n  and\n  dup2\n  or\n  dup5\n  sstore\n    /* \"@openzeppelin/contracts/access/Ownable.sol\":3052:3092  OwnershipTransferred(oldOwner, newOwner) */\n  mload(0x40)\n    /* \"@openzeppelin/contracts/access/Ownable.sol\":3004:3010  _owner */\n  swap2\n  swap1\n  swap3\n  and\n  swap3\n  dup4\n  swap2\n    /* \"@openzeppelin/contracts/access/Ownable.sol\":3052:3092  OwnershipTransferred(oldOwner, newOwner) */\n  0x8be0079c531659141344cd1fd0a4f28419497f9722a3daafe3b4186f6b6457e0\n  swap2\n    /* \"@openzeppelin/contracts/access/Ownable.sol\":2985:3001  address oldOwner */\n  swap1\n    /* \"@openzeppelin/contracts/access/Ownable.sol\":3052:3092  OwnershipTransferred(oldOwner, newOwner) */\n  log3\n    /* \"@openzeppelin/contracts/access/Ownable.sol\":2975:3099  {... */\n  pop\n    /* \"@openzeppelin/contracts/access/Ownable.sol\":2912:3099  function _transferOwnership(address newOwner) internal virtual {... */\n  pop\n  jump\t// out\n    /* \"#utility.yul\":14:217   */\ntag_11:\n    /* \"Bloc.sol\":286:8846  contract Bloc is Ownable(msg.sender), Initializable, AccessControl {... */\n  dataSize(sub_0)\n  dup1\n  dataOffset(sub_0)\n  0x00\n  codecopy\n  0x00\n  return\nstop\n\nsub_0: assembly {\n        /* \"Bloc.sol\":286:8846  contract Bloc is Ownable(msg.sender), Initializable, AccessControl {... */\n      mstore(0x40, 0x80)\n      callvalue\n      dup1\n      iszero\n      tag_1\n      jumpi\n      0x00\n      dup1\n      revert\n    tag_1:\n      pop\n      jumpi(tag_2, lt(calldatasize, 0x04))\n      shr(0xe0, calldataload(0x00))\n      dup1\n      0x91d14854\n      gt\n      tag_29\n      jumpi\n      dup1\n      0xb733e78a\n      gt\n      tag_30\n      jumpi\n      dup1\n      0xd2fad2ec\n      gt\n      tag_31\n      jumpi\n      dup1\n      0xd2fad2ec\n      eq\n      tag_25\n      jumpi\n      dup1\n      0xd547741f\n      eq\n      tag_26\n      jumpi\n      dup1\n      0xe67b932c\n      eq\n      tag_27\n      jumpi\n      dup1\n      0xf2fde38b\n      eq\n      tag_28\n      jumpi\n      0x00\n      dup1\n      revert\n    tag_31:\n      dup1\n      0xb733e78a\n      eq\n      tag_22\n      jumpi\n      dup1\n      0xbdfcf4e8\n      eq\n      tag_23\n      jumpi\n      dup1\n      0xd2154a14\n      eq\n      tag_24\n      jumpi\n      0x00\n      dup1\n      revert\n    tag_30:\n      dup1\n      0x91d14854\n      eq\n      tag_16\n      jumpi\n      dup1\n      0x96132521\n      eq\n      tag_17\n      jumpi\n      dup1\n      0xa0557f70\n      eq\n      tag_18\n      jumpi\n      dup1\n      0xa217fddf\n      eq\n      tag_19\n      jumpi\n      dup1\n      0xaa3ec0a9\n      eq\n      tag_20\n      jumpi\n      dup1\n      0xb4118db0\n      eq\n      tag_21\n      jumpi\n      0x00\n      dup1\n      revert\n    tag_29:\n      dup1\n      0x2d82b1fa\n      gt\n      tag_32\n      jumpi\n      dup1\n      0x715018a6\n      gt\n      tag_33\n      jumpi\n      dup1\n      0x715018a6\n      eq\n      tag_12\n      jumpi\n      dup1\n      0x7d836512\n      eq\n      tag_13\n      jumpi\n      dup1\n      0x8a19c8bc\n      eq\n      tag_14\n      jumpi\n      dup1\n      0x8da5cb5b\n      eq\n      tag_15\n      jumpi\n      0x00\n      dup1\n      revert\n    tag_33:\n      dup1\n      0x2d82b1fa\n      eq\n      tag_9\n      jumpi\n      dup1\n      0x2f2ff15d\n      eq\n      tag_10\n      jumpi\n      dup1\n      0x36568abe\n      eq\n      tag_11\n      jumpi\n      0x00\n      dup1\n      revert\n    tag_32:\n      dup1\n      0x01ffc9a7\n      eq\n      tag_3\n      jumpi\n      dup1\n      0x063ff530\n      eq\n      tag_4\n      jumpi\n      dup1\n      0x09e60fc9\n      eq\n      tag_5\n      jumpi\n      dup1\n      0x1a1eb303\n      eq\n      tag_6\n      jumpi\n      dup1\n      0x1dba015c\n      eq\n      tag_7\n      jumpi\n      dup1\n      0x248a9ca3\n      eq\n      tag_8\n      jumpi\n    tag_2:\n      0x00\n      dup1\n      revert\n        /* \"@openzeppelin/contracts/access/AccessControl.sol\":2565:2767  function supportsInterface(bytes4 interfaceId) public view virtual override returns (bool) {... */\n    tag_3:\n      tag_34\n      tag_35\n      calldatasize\n      0x04\n      tag_36\n      jump\t// in\n    tag_35:\n      tag_37\n      jump\t// in\n    tag_34:\n      mload(0x40)\n        /* \"#utility.yul\":470:484   */\n      swap1\n      iszero\n        /* \"#utility.yul\":463:485   */\n      iszero\n        /* \"#utility.yul\":445:486   */\n      dup2\n      mstore\n        /* \"#utility.yul\":433:435   */\n      0x20\n        /* \"#utility.yul\":418:436   */\n      add\n        /* \"@openzeppelin/contracts/access/AccessControl.sol\":2565:2767  function supportsInterface(bytes4 interfaceId) public view virtual override returns (bool) {... */\n    tag_38:\n      mload(0x40)\n      dup1\n      swap2\n      sub\n      swap1\n      return\n        /* \"Bloc.sol\":5661:5822  function getBlocMetadata()... */\n    tag_4:\n      tag_40\n      tag_41\n      jump\t// in\n    tag_40:\n      mload(0x40)\n      tag_38\n      swap4\n      swap3\n      swap2\n      swap1\n      tag_43\n      jump\t// in\n        /* \"Bloc.sol\":5828:6371  function getAllSeedBoxes() external view returns (SeedBoxInfo[] memory) {... */\n    tag_5:\n      tag_44\n      tag_45\n      jump\t// in\n    tag_44:\n      mload(0x40)\n      tag_38\n      swap2\n      swap1\n      tag_47\n      jump\t// in\n        /* \"Bloc.sol\":6377:6941  function getSeedsByRound(... */\n    tag_6:\n      tag_48\n      tag_49\n      calldatasize\n      0x04\n      tag_50\n      jump\t// in\n    tag_49:\n      tag_51\n      jump\t// in\n    tag_48:\n      mload(0x40)\n      tag_38\n      swap2\n      swap1\n      tag_53\n      jump\t// in\n        /* \"Bloc.sol\":4435:4894  function mergeSeed(... */\n    tag_7:\n      tag_54\n      tag_55\n      calldatasize\n      0x04\n      tag_56\n      jump\t// in\n    tag_55:\n      tag_57\n      jump\t// in\n    tag_54:\n      stop\n        /* \"@openzeppelin/contracts/access/AccessControl.sol\":3810:3930  function getRoleAdmin(bytes32 role) public view virtual returns (bytes32) {... */\n    tag_8:\n      tag_58\n      tag_59\n      calldatasize\n      0x04\n      tag_50\n      jump\t// in\n    tag_59:\n        /* \"@openzeppelin/contracts/access/AccessControl.sol\":3875:3882  bytes32 */\n      0x00\n        /* \"@openzeppelin/contracts/access/AccessControl.sol\":3901:3913  _roles[role] */\n      swap1\n      dup2\n      mstore\n        /* \"@openzeppelin/contracts/access/AccessControl.sol\":3901:3907  _roles */\n      0x01\n        /* \"@openzeppelin/contracts/access/AccessControl.sol\":3901:3913  _roles[role] */\n      0x20\n      dup2\n      swap1\n      mstore\n      0x40\n      swap1\n      swap2\n      keccak256\n        /* \"@openzeppelin/contracts/access/AccessControl.sol\":3901:3923  _roles[role].adminRole */\n      add\n      sload\n      swap1\n        /* \"@openzeppelin/contracts/access/AccessControl.sol\":3810:3930  function getRoleAdmin(bytes32 role) public view virtual returns (bytes32) {... */\n      jump\n    tag_58:\n      mload(0x40)\n        /* \"#utility.yul\":6774:6799   */\n      swap1\n      dup2\n      mstore\n        /* \"#utility.yul\":6762:6764   */\n      0x20\n        /* \"#utility.yul\":6747:6765   */\n      add\n        /* \"@openzeppelin/contracts/access/AccessControl.sol\":3810:3930  function getRoleAdmin(bytes32 role) public view virtual returns (bytes32) {... */\n      tag_38\n        /* \"#utility.yul\":6628:6805   */\n      jump\n        /* \"Bloc.sol\":6947:7085  function getBoxIdBySeedId(bytes32 _seedId) external view returns (uint256) {... */\n    tag_9:\n      tag_58\n      tag_65\n      calldatasize\n      0x04\n      tag_50\n      jump\t// in\n    tag_65:\n        /* \"Bloc.sol\":7050:7062  currentRound */\n      sload(0x04)\n        /* \"Bloc.sol\":7013:7020  uint256 */\n      0x00\n        /* \"Bloc.sol\":7039:7063  roundSeeds[currentRound] */\n      swap1\n      dup2\n      mstore\n        /* \"Bloc.sol\":7039:7049  roundSeeds */\n      0x08\n        /* \"Bloc.sol\":7039:7063  roundSeeds[currentRound] */\n      0x20\n      swap1\n      dup2\n      mstore\n      0x40\n      dup1\n      dup4\n      keccak256\n        /* \"Bloc.sol\":7039:7072  roundSeeds[currentRound][_seedId] */\n      swap4\n      dup4\n      mstore\n      swap3\n      swap1\n      mstore\n      keccak256\n        /* \"Bloc.sol\":7039:7078  roundSeeds[currentRound][_seedId].boxID */\n      0x03\n      add\n      sload\n      swap1\n        /* \"Bloc.sol\":6947:7085  function getBoxIdBySeedId(bytes32 _seedId) external view returns (uint256) {... */\n      jump\n        /* \"@openzeppelin/contracts/access/AccessControl.sol\":4226:4362  function grantRole(bytes32 role, address account) public virtual onlyRole(getRoleAdmin(role)) {... */\n    tag_10:\n      tag_54\n      tag_70\n      calldatasize\n      0x04\n      tag_71\n      jump\t// in\n    tag_70:\n      tag_72\n      jump\t// in\n        /* \"@openzeppelin/contracts/access/AccessControl.sol\":5328:5573  function renounceRole(bytes32 role, address callerConfirmation) public virtual {... */\n    tag_11:\n      tag_54\n      tag_74\n      calldatasize\n      0x04\n      tag_71\n      jump\t// in\n    tag_74:\n      tag_75\n      jump\t// in\n        /* \"@openzeppelin/contracts/access/Ownable.sol\":2293:2394  function renounceOwnership() public virtual onlyOwner {... */\n    tag_12:\n      tag_54\n      tag_77\n      jump\t// in\n        /* \"Bloc.sol\":1865:2117  function initialize(... */\n    tag_13:\n      tag_54\n      tag_79\n      calldatasize\n      0x04\n      tag_80\n      jump\t// in\n    tag_79:\n      tag_81\n      jump\t// in\n        /* \"Bloc.sol\":429:456  uint256 public currentRound */\n    tag_14:\n      tag_58\n      sload(0x04)\n      dup2\n      jump\n        /* \"@openzeppelin/contracts/access/Ownable.sol\":1638:1723  function owner() public view virtual returns (address) {... */\n    tag_15:\n        /* \"@openzeppelin/contracts/access/Ownable.sol\":1684:1691  address */\n      0x00\n        /* \"@openzeppelin/contracts/access/Ownable.sol\":1710:1716  _owner */\n      sload\n        /* \"@openzeppelin/contracts/access/Ownable.sol\":1638:1723  function owner() public view virtual returns (address) {... */\n      mload(0x40)\n      sub(shl(0xa0, 0x01), 0x01)\n        /* \"@openzeppelin/contracts/access/Ownable.sol\":1710:1716  _owner */\n      swap1\n      swap2\n      and\n        /* \"#utility.yul\":9042:9093   */\n      dup2\n      mstore\n        /* \"#utility.yul\":9030:9032   */\n      0x20\n        /* \"#utility.yul\":9015:9033   */\n      add\n        /* \"@openzeppelin/contracts/access/Ownable.sol\":1638:1723  function owner() public view virtual returns (address) {... */\n      tag_38\n        /* \"#utility.yul\":8896:9099   */\n      jump\n        /* \"@openzeppelin/contracts/access/AccessControl.sol\":2854:2990  function hasRole(bytes32 role, address account) public view virtual returns (bool) {... */\n    tag_16:\n      tag_34\n      tag_90\n      calldatasize\n      0x04\n      tag_71\n      jump\t// in\n    tag_90:\n      tag_91\n      jump\t// in\n        /* \"Bloc.sol\":485:505  bool public released */\n    tag_17:\n      sload(0x06)\n      tag_34\n      swap1\n      0xff\n      and\n      dup2\n      jump\n        /* \"Bloc.sol\":1297:1369  mapping(uint256 => mapping(bytes32 => MusicBloc.Seed)) public roundSeeds */\n    tag_18:\n      tag_96\n      tag_97\n      calldatasize\n      0x04\n      tag_98\n      jump\t// in\n    tag_97:\n      tag_99\n      jump\t// in\n    tag_96:\n      mload(0x40)\n      tag_38\n      swap6\n      swap5\n      swap4\n      swap3\n      swap2\n      swap1\n      tag_101\n      jump\t// in\n        /* \"@openzeppelin/contracts/access/AccessControl.sol\":2187:2236  bytes32 public constant DEFAULT_ADMIN_ROLE = 0x00 */\n    tag_19:\n      tag_58\n        /* \"@openzeppelin/contracts/access/AccessControl.sol\":2232:2236  0x00 */\n      0x00\n        /* \"@openzeppelin/contracts/access/AccessControl.sol\":2187:2236  bytes32 public constant DEFAULT_ADMIN_ROLE = 0x00 */\n      dup2\n      jump\n        /* \"Bloc.sol\":462:479  string public cid */\n    tag_20:\n      tag_105\n      tag_106\n      jump\t// in\n    tag_105:\n      mload(0x40)\n      tag_38\n      swap2\n      swap1\n      tag_108\n      jump\t// in\n        /* \"Bloc.sol\":4900:5655  function postStatus(... */\n    tag_21:\n      tag_54\n      tag_110\n      calldatasize\n      0x04\n      tag_111\n      jump\t// in\n    tag_110:\n      tag_112\n      jump\t// in\n        /* \"Bloc.sol\":3701:4391  function completeSeed(... */\n    tag_22:\n      tag_54\n      tag_114\n      calldatasize\n      0x04\n      tag_115\n      jump\t// in\n    tag_114:\n      tag_116\n      jump\t// in\n        /* \"Bloc.sol\":2123:2572  function createSeedBox(... */\n    tag_23:\n      tag_58\n      tag_118\n      calldatasize\n      0x04\n      tag_119\n      jump\t// in\n    tag_118:\n      tag_120\n      jump\t// in\n        /* \"Bloc.sol\":2578:3695  function plantSeed(... */\n    tag_24:\n      tag_122\n      tag_123\n      calldatasize\n      0x04\n      tag_71\n      jump\t// in\n    tag_123:\n      tag_125\n      jump\t// in\n    tag_122:\n      0x40\n      dup1\n      mload\n        /* \"#utility.yul\":12798:12823   */\n      swap3\n      dup4\n      mstore\n        /* \"#utility.yul\":12854:12856   */\n      0x20\n        /* \"#utility.yul\":12839:12857   */\n      dup4\n      add\n        /* \"#utility.yul\":12832:12866   */\n      swap2\n      swap1\n      swap2\n      mstore\n        /* \"#utility.yul\":12771:12789   */\n      add\n        /* \"Bloc.sol\":2578:3695  function plantSeed(... */\n      tag_38\n        /* \"#utility.yul\":12624:12872   */\n      jump\n        /* \"Bloc.sol\":1247:1291  mapping(uint256 => SeedBox) public seedBoxes */\n    tag_25:\n      tag_128\n      tag_129\n      calldatasize\n      0x04\n      tag_50\n      jump\t// in\n    tag_129:\n      tag_130\n      jump\t// in\n    tag_128:\n      mload(0x40)\n      tag_38\n      swap4\n      swap3\n      swap2\n      swap1\n      tag_132\n      jump\t// in\n        /* \"@openzeppelin/contracts/access/AccessControl.sol\":4642:4780  function revokeRole(bytes32 role, address account) public virtual onlyRole(getRoleAdmin(role)) {... */\n    tag_26:\n      tag_54\n      tag_134\n      calldatasize\n      0x04\n      tag_71\n      jump\t// in\n    tag_134:\n      tag_135\n      jump\t// in\n        /* \"Bloc.sol\":1375:1417  mapping(uint256 => Status) public statuses */\n    tag_27:\n      tag_136\n      tag_137\n      calldatasize\n      0x04\n      tag_50\n      jump\t// in\n    tag_137:\n      tag_138\n      jump\t// in\n    tag_136:\n      mload(0x40)\n      tag_38\n      swap5\n      swap4\n      swap3\n      swap2\n      swap1\n      tag_140\n      jump\t// in\n        /* \"@openzeppelin/contracts/access/Ownable.sol\":2543:2758  function transferOwnership(address newOwner) public virtual onlyOwner {... */\n    tag_28:\n      tag_54\n      tag_142\n      calldatasize\n      0x04\n      tag_143\n      jump\t// in\n    tag_142:\n      tag_144\n      jump\t// in\n        /* \"@openzeppelin/contracts/access/AccessControl.sol\":2565:2767  function supportsInterface(bytes4 interfaceId) public view virtual override returns (bool) {... */\n    tag_37:\n        /* \"@openzeppelin/contracts/access/AccessControl.sol\":2650:2654  bool */\n      0x00\n      not(sub(shl(0xe0, 0x01), 0x01))\n        /* \"@openzeppelin/contracts/access/AccessControl.sol\":2673:2720  interfaceId == type(IAccessControl).interfaceId */\n      dup3\n      and\n      shl(0xe0, 0x7965db0b)\n      eq\n      dup1\n        /* \"@openzeppelin/contracts/access/AccessControl.sol\":2673:2760  interfaceId == type(IAccessControl).interfaceId || super.supportsInterface(interfaceId) */\n      tag_147\n      jumpi\n      pop\n      shl(0xe0, 0x01ffc9a7)\n      not(sub(shl(0xe0, 0x01), 0x01))\n        /* \"@openzeppelin/contracts/utils/introspection/ERC165.sol\":861:901  interfaceId == type(IERC165).interfaceId */\n      dup4\n      and\n      eq\n        /* \"@openzeppelin/contracts/access/AccessControl.sol\":2724:2760  super.supportsInterface(interfaceId) */\n    tag_147:\n        /* \"@openzeppelin/contracts/access/AccessControl.sol\":2666:2760  return interfaceId == type(IAccessControl).interfaceId || super.supportsInterface(interfaceId) */\n      swap3\n        /* \"@openzeppelin/contracts/access/AccessControl.sol\":2565:2767  function supportsInterface(bytes4 interfaceId) public view virtual override returns (bool) {... */\n      swap2\n      pop\n      pop\n      jump\t// out\n        /* \"Bloc.sol\":5661:5822  function getBlocMetadata()... */\n    tag_41:\n        /* \"Bloc.sol\":5735:5748  string memory */\n      0x60\n        /* \"Bloc.sol\":5750:5754  bool */\n      0x00\n        /* \"Bloc.sol\":5756:5763  uint256 */\n      dup1\n        /* \"Bloc.sol\":5787:5790  cid */\n      0x05\n        /* \"Bloc.sol\":5792:5800  released */\n      0x06\n      0x00\n      swap1\n      sload\n      swap1\n      0x0100\n      exp\n      swap1\n      div\n      0xff\n      and\n        /* \"Bloc.sol\":5802:5814  currentRound */\n      sload(0x04)\n        /* \"Bloc.sol\":5779:5815  return (cid, released, currentRound) */\n      dup3\n      dup1\n      sload\n      tag_150\n      swap1\n      tag_151\n      jump\t// in\n    tag_150:\n      dup1\n      0x1f\n      add\n      0x20\n      dup1\n      swap2\n      div\n      mul\n      0x20\n      add\n      mload(0x40)\n      swap1\n      dup2\n      add\n      0x40\n      mstore\n      dup1\n      swap3\n      swap2\n      swap1\n      dup2\n      dup2\n      mstore\n      0x20\n      add\n      dup3\n      dup1\n      sload\n      tag_152\n      swap1\n      tag_151\n      jump\t// in\n    tag_152:\n      dup1\n      iszero\n      tag_153\n      jumpi\n      dup1\n      0x1f\n      lt\n      tag_154\n      jumpi\n      0x0100\n      dup1\n      dup4\n      sload\n      div\n      mul\n      dup4\n      mstore\n      swap2\n      0x20\n      add\n      swap2\n      jump(tag_153)\n    tag_154:\n      dup3\n      add\n      swap2\n      swap1\n      0x00\n      mstore\n      keccak256(0x00, 0x20)\n      swap1\n    tag_155:\n      dup2\n      sload\n      dup2\n      mstore\n      swap1\n      0x01\n      add\n      swap1\n      0x20\n      add\n      dup1\n      dup4\n      gt\n      tag_155\n      jumpi\n      dup3\n      swap1\n      sub\n      0x1f\n      and\n      dup3\n      add\n      swap2\n    tag_153:\n      pop\n      pop\n      pop\n      pop\n      pop\n      swap3\n      pop\n      swap3\n      pop\n      swap3\n      pop\n      swap3\n      pop\n        /* \"Bloc.sol\":5661:5822  function getBlocMetadata()... */\n      swap1\n      swap2\n      swap3\n      jump\t// out\n        /* \"Bloc.sol\":5828:6371  function getAllSeedBoxes() external view returns (SeedBoxInfo[] memory) {... */\n    tag_45:\n        /* \"Bloc.sol\":5878:5898  SeedBoxInfo[] memory */\n      0x60\n        /* \"Bloc.sol\":5910:5944  SeedBoxInfo[] memory seedBoxesList */\n      0x00\n        /* \"Bloc.sol\":5965:5978  lastSeedBoxId */\n      sload(0x02)\n        /* \"Bloc.sol\":5947:5979  new SeedBoxInfo[](lastSeedBoxId) */\n      0xffffffffffffffff\n      dup2\n      gt\n      iszero\n      tag_158\n      jumpi\n      tag_158\n      tag_159\n      jump\t// in\n    tag_158:\n      mload(0x40)\n      swap1\n      dup1\n      dup3\n      mstore\n      dup1\n      0x20\n      mul\n      0x20\n      add\n      dup3\n      add\n      0x40\n      mstore\n      dup1\n      iszero\n      tag_160\n      jumpi\n      dup2\n      0x20\n      add\n    tag_161:\n      tag_162\n      mload(0x40)\n      dup1\n      0xa0\n      add\n      0x40\n      mstore\n      dup1\n      0x00\n      dup2\n      mstore\n      0x20\n      add\n      0x60\n      dup2\n      mstore\n      0x20\n      add\n      0x60\n      dup2\n      mstore\n      0x20\n      add\n      0x60\n      dup2\n      mstore\n      0x20\n      add\n      and(sub(shl(0xa0, 0x01), 0x01), 0x00)\n      dup2\n      mstore\n      pop\n      swap1\n      jump\n    tag_162:\n      dup2\n      mstore\n      0x20\n      add\n      swap1\n      0x01\n      swap1\n      sub\n      swap1\n      dup2\n      tag_161\n      jumpi\n      swap1\n      pop\n    tag_160:\n      pop\n        /* \"Bloc.sol\":5910:5979  SeedBoxInfo[] memory seedBoxesList = new SeedBoxInfo[](lastSeedBoxId) */\n      swap1\n      pop\n        /* \"Bloc.sol\":5994:6003  uint256 i */\n      0x00\n        /* \"Bloc.sol\":5989:6334  for (uint256 i = 0; i < lastSeedBoxId; i++) {... */\n    tag_164:\n        /* \"Bloc.sol\":6013:6026  lastSeedBoxId */\n      sload(0x02)\n        /* \"Bloc.sol\":6009:6010  i */\n      dup2\n        /* \"Bloc.sol\":6009:6026  i < lastSeedBoxId */\n      lt\n        /* \"Bloc.sol\":5989:6334  for (uint256 i = 0; i < lastSeedBoxId; i++) {... */\n      iszero\n      tag_165\n      jumpi\n        /* \"Bloc.sol\":6047:6070  SeedBox storage seedBox */\n      0x00\n        /* \"Bloc.sol\":6073:6085  seedBoxes[i] */\n      dup2\n      dup2\n      mstore\n        /* \"Bloc.sol\":6073:6082  seedBoxes */\n      0x07\n        /* \"Bloc.sol\":6073:6085  seedBoxes[i] */\n      0x20\n      mstore\n      0x40\n      swap1\n      keccak256\n        /* \"Bloc.sol\":6121:6131  seedBox.id */\n      dup1\n      sload\n        /* \"Bloc.sol\":6099:6115  seedBoxesList[i] */\n      dup4\n      mload\n        /* \"Bloc.sol\":6099:6112  seedBoxesList */\n      dup5\n      swap1\n        /* \"Bloc.sol\":6083:6084  i */\n      dup5\n      swap1\n        /* \"Bloc.sol\":6099:6115  seedBoxesList[i] */\n      dup2\n      lt\n      tag_168\n      jumpi\n      tag_168\n      tag_169\n      jump\t// in\n    tag_168:\n      0x20\n      swap1\n      dup2\n      mul\n      swap2\n      swap1\n      swap2\n      add\n      add\n      mload\n        /* \"Bloc.sol\":6099:6131  seedBoxesList[i].id = seedBox.id */\n      mstore\n        /* \"Bloc.sol\":6168:6179  seedBox.cid */\n      0x01\n      dup2\n      add\n        /* \"Bloc.sol\":6145:6179  seedBoxesList[i].cid = seedBox.cid */\n      dup1\n      sload\n      tag_170\n      swap1\n      tag_151\n      jump\t// in\n    tag_170:\n      dup1\n      0x1f\n      add\n      0x20\n      dup1\n      swap2\n      div\n      mul\n      0x20\n      add\n      mload(0x40)\n      swap1\n      dup2\n      add\n      0x40\n      mstore\n      dup1\n      swap3\n      swap2\n      swap1\n      dup2\n      dup2\n      mstore\n      0x20\n      add\n      dup3\n      dup1\n      sload\n      tag_171\n      swap1\n      tag_151\n      jump\t// in\n    tag_171:\n      dup1\n      iszero\n      tag_172\n      jumpi\n      dup1\n      0x1f\n      lt\n      tag_173\n      jumpi\n      0x0100\n      dup1\n      dup4\n      sload\n      div\n      mul\n      dup4\n      mstore\n      swap2\n      0x20\n      add\n      swap2\n      jump(tag_172)\n    tag_173:\n      dup3\n      add\n      swap2\n      swap1\n      0x00\n      mstore\n      keccak256(0x00, 0x20)\n      swap1\n    tag_174:\n      dup2\n      sload\n      dup2\n      mstore\n      swap1\n      0x01\n      add\n      swap1\n      0x20\n      add\n      dup1\n      dup4\n      gt\n      tag_174\n      jumpi\n      dup3\n      swap1\n      sub\n      0x1f\n      and\n      dup3\n      add\n      swap2\n    tag_172:\n      pop\n      pop\n      pop\n      pop\n      pop\n        /* \"Bloc.sol\":6145:6158  seedBoxesList */\n      dup4\n        /* \"Bloc.sol\":6159:6160  i */\n      dup4\n        /* \"Bloc.sol\":6145:6161  seedBoxesList[i] */\n      dup2\n      mload\n      dup2\n      lt\n      tag_176\n      jumpi\n      tag_176\n      tag_169\n      jump\t// in\n    tag_176:\n      0x20\n      mul\n      0x20\n      add\n      add\n      mload\n        /* \"Bloc.sol\":6145:6165  seedBoxesList[i].cid */\n      0x20\n      add\n        /* \"Bloc.sol\":6145:6179  seedBoxesList[i].cid = seedBox.cid */\n      dup2\n      swap1\n      mstore\n      pop\n        /* \"Bloc.sol\":6225:6232  seedBox */\n      dup1\n        /* \"Bloc.sol\":6225:6245  seedBox.contributors */\n      0x03\n      add\n        /* \"Bloc.sol\":6193:6245  seedBoxesList[i].contributors = seedBox.contributors */\n      dup1\n      sload\n      dup1\n      0x20\n      mul\n      0x20\n      add\n      mload(0x40)\n      swap1\n      dup2\n      add\n      0x40\n      mstore\n      dup1\n      swap3\n      swap2\n      swap1\n      dup2\n      dup2\n      mstore\n      0x20\n      add\n      dup3\n      dup1\n      sload\n      dup1\n      iszero\n      tag_177\n      jumpi\n      0x20\n      mul\n      dup3\n      add\n      swap2\n      swap1\n      0x00\n      mstore\n      keccak256(0x00, 0x20)\n      swap1\n    tag_178:\n      dup2\n      sload\n      sub(shl(0xa0, 0x01), 0x01)\n      and\n      dup2\n      mstore\n      0x01\n      swap1\n      swap2\n      add\n      swap1\n      0x20\n      add\n      dup1\n      dup4\n      gt\n      tag_178\n      jumpi\n    tag_177:\n      pop\n      pop\n      pop\n      pop\n      pop\n        /* \"Bloc.sol\":6193:6206  seedBoxesList */\n      dup4\n        /* \"Bloc.sol\":6207:6208  i */\n      dup4\n        /* \"Bloc.sol\":6193:6209  seedBoxesList[i] */\n      dup2\n      mload\n      dup2\n      lt\n      tag_180\n      jumpi\n      tag_180\n      tag_169\n      jump\t// in\n    tag_180:\n      0x20\n      mul\n      0x20\n      add\n      add\n      mload\n        /* \"Bloc.sol\":6193:6222  seedBoxesList[i].contributors */\n      0x40\n      add\n        /* \"Bloc.sol\":6193:6245  seedBoxesList[i].contributors = seedBox.contributors */\n      dup2\n      swap1\n      mstore\n      pop\n        /* \"Bloc.sol\":6297:6304  seedBox */\n      dup1\n        /* \"Bloc.sol\":6297:6323  seedBox.participatedRounds */\n      0x02\n      add\n        /* \"Bloc.sol\":6259:6323  seedBoxesList[i].participatedRounds = seedBox.participatedRounds */\n      dup1\n      sload\n      dup1\n      0x20\n      mul\n      0x20\n      add\n      mload(0x40)\n      swap1\n      dup2\n      add\n      0x40\n      mstore\n      dup1\n      swap3\n      swap2\n      swap1\n      dup2\n      dup2\n      mstore\n      0x20\n      add\n      dup3\n      dup1\n      sload\n      dup1\n      iszero\n      tag_181\n      jumpi\n      0x20\n      mul\n      dup3\n      add\n      swap2\n      swap1\n      0x00\n      mstore\n      keccak256(0x00, 0x20)\n      swap1\n    tag_182:\n      dup2\n      sload\n      dup2\n      mstore\n      0x20\n      add\n      swap1\n      0x01\n      add\n      swap1\n      dup1\n      dup4\n      gt\n      tag_182\n      jumpi\n    tag_181:\n      pop\n      pop\n      pop\n      pop\n      pop\n        /* \"Bloc.sol\":6259:6272  seedBoxesList */\n      dup4\n        /* \"Bloc.sol\":6273:6274  i */\n      dup4\n        /* \"Bloc.sol\":6259:6275  seedBoxesList[i] */\n      dup2\n      mload\n      dup2\n      lt\n      tag_184\n      jumpi\n      tag_184\n      tag_169\n      jump\t// in\n    tag_184:\n      0x20\n      swap1\n      dup2\n      mul\n      swap2\n      swap1\n      swap2\n      add\n      add\n      mload\n        /* \"Bloc.sol\":6259:6294  seedBoxesList[i].participatedRounds */\n      0x60\n      add\n        /* \"Bloc.sol\":6259:6323  seedBoxesList[i].participatedRounds = seedBox.participatedRounds */\n      mstore\n      pop\n        /* \"Bloc.sol\":6028:6031  i++ */\n      0x01\n      add\n        /* \"Bloc.sol\":5989:6334  for (uint256 i = 0; i < lastSeedBoxId; i++) {... */\n      jump(tag_164)\n    tag_165:\n      pop\n        /* \"Bloc.sol\":6351:6364  seedBoxesList */\n      swap2\n        /* \"Bloc.sol\":5828:6371  function getAllSeedBoxes() external view returns (SeedBoxInfo[] memory) {... */\n      swap1\n      pop\n      jump\t// out\n        /* \"Bloc.sol\":6377:6941  function getSeedsByRound(... */\n    tag_51:\n        /* \"Bloc.sol\":6512:6525  lastSeedBoxId */\n      sload(0x02)\n        /* \"Bloc.sol\":6454:6477  MusicBloc.Seed[] memory */\n      0x60\n      swap1\n      dup2\n        /* \"Bloc.sol\":6592:6593  1 */\n      0x01\n        /* \"Bloc.sol\":6575:6912  for (uint256 i = 1; i <= seedBoxCount; i++) {... */\n    tag_186:\n        /* \"Bloc.sol\":6600:6612  seedBoxCount */\n      dup3\n        /* \"Bloc.sol\":6595:6596  i */\n      dup2\n        /* \"Bloc.sol\":6595:6612  i <= seedBoxCount */\n      gt\n        /* \"Bloc.sol\":6575:6912  for (uint256 i = 1; i <= seedBoxCount; i++) {... */\n      tag_187\n      jumpi\n        /* \"Bloc.sol\":6633:6657  bytes32[] memory seedIds */\n      0x00\n        /* \"Bloc.sol\":6660:6672  seedBoxes[i] */\n      dup2\n      dup2\n      mstore\n        /* \"Bloc.sol\":6660:6669  seedBoxes */\n      0x07\n        /* \"Bloc.sol\":6660:6672  seedBoxes[i] */\n      0x20\n      swap1\n      dup2\n      mstore\n      0x40\n      dup1\n      dup4\n      keccak256\n        /* \"Bloc.sol\":6660:6692  seedBoxes[i].seedsByRound[round] */\n      dup9\n      dup5\n      mstore\n        /* \"Bloc.sol\":6660:6685  seedBoxes[i].seedsByRound */\n      0x05\n      add\n        /* \"Bloc.sol\":6660:6692  seedBoxes[i].seedsByRound[round] */\n      dup3\n      mstore\n      dup1\n      dup4\n      keccak256\n        /* \"Bloc.sol\":6633:6692  bytes32[] memory seedIds = seedBoxes[i].seedsByRound[round] */\n      dup1\n      sload\n      dup3\n      mload\n      dup2\n      dup6\n      mul\n      dup2\n      add\n      dup6\n      add\n      swap1\n      swap4\n      mstore\n      dup1\n      dup4\n      mstore\n      swap2\n      swap3\n        /* \"Bloc.sol\":6660:6692  seedBoxes[i].seedsByRound[round] */\n      swap1\n      swap2\n        /* \"Bloc.sol\":6633:6692  bytes32[] memory seedIds = seedBoxes[i].seedsByRound[round] */\n      swap1\n      dup4\n      add\n        /* \"Bloc.sol\":6660:6692  seedBoxes[i].seedsByRound[round] */\n      dup3\n        /* \"Bloc.sol\":6633:6692  bytes32[] memory seedIds = seedBoxes[i].seedsByRound[round] */\n      dup3\n      dup1\n      iszero\n      tag_189\n      jumpi\n      0x20\n      mul\n      dup3\n      add\n      swap2\n      swap1\n      0x00\n      mstore\n      keccak256(0x00, 0x20)\n      swap1\n    tag_190:\n      dup2\n      sload\n      dup2\n      mstore\n      0x20\n      add\n      swap1\n      0x01\n      add\n      swap1\n      dup1\n      dup4\n      gt\n      tag_190\n      jumpi\n    tag_189:\n      pop\n      pop\n      pop\n      pop\n      pop\n      swap1\n      pop\n        /* \"Bloc.sol\":6712:6721  uint256 j */\n      0x00\n        /* \"Bloc.sol\":6707:6902  for (uint256 j = 0; j < seedIds.length; j++) {... */\n    tag_191:\n        /* \"Bloc.sol\":6731:6738  seedIds */\n      dup2\n        /* \"Bloc.sol\":6731:6745  seedIds.length */\n      mload\n        /* \"Bloc.sol\":6727:6728  j */\n      dup2\n        /* \"Bloc.sol\":6727:6745  j < seedIds.length */\n      lt\n        /* \"Bloc.sol\":6707:6902  for (uint256 j = 0; j < seedIds.length; j++) {... */\n      iszero\n      tag_192\n      jumpi\n        /* \"Bloc.sol\":6770:6796  MusicBloc.Seed memory seed */\n      0x00\n        /* \"Bloc.sol\":6799:6816  roundSeeds[round] */\n      dup8\n      dup2\n      mstore\n        /* \"Bloc.sol\":6799:6809  roundSeeds */\n      0x08\n        /* \"Bloc.sol\":6799:6816  roundSeeds[round] */\n      0x20\n      mstore\n      0x40\n      dup2\n      keccak256\n        /* \"Bloc.sol\":6817:6827  seedIds[j] */\n      dup4\n      mload\n        /* \"Bloc.sol\":6770:6796  MusicBloc.Seed memory seed */\n      dup3\n      swap1\n        /* \"Bloc.sol\":6817:6824  seedIds */\n      dup6\n      swap1\n        /* \"Bloc.sol\":6825:6826  j */\n      dup6\n      swap1\n        /* \"Bloc.sol\":6817:6827  seedIds[j] */\n      dup2\n      lt\n      tag_195\n      jumpi\n      tag_195\n      tag_169\n      jump\t// in\n    tag_195:\n      0x20\n      mul\n      0x20\n      add\n      add\n      mload\n        /* \"Bloc.sol\":6799:6828  roundSeeds[round][seedIds[j]] */\n      dup2\n      mstore\n      0x20\n      add\n      swap1\n      dup2\n      mstore\n      0x20\n      add\n      0x00\n      keccak256\n        /* \"Bloc.sol\":6770:6828  MusicBloc.Seed memory seed = roundSeeds[round][seedIds[j]] */\n      mload(0x40)\n      dup1\n      0xa0\n      add\n      0x40\n      mstore\n      swap1\n      dup2\n      0x00\n      dup3\n      add\n      sload\n      dup2\n      mstore\n      0x20\n      add\n      0x01\n      dup3\n      add\n      dup1\n      sload\n      tag_196\n      swap1\n      tag_151\n      jump\t// in\n    tag_196:\n      dup1\n      0x1f\n      add\n      0x20\n      dup1\n      swap2\n      div\n      mul\n      0x20\n      add\n      mload(0x40)\n      swap1\n      dup2\n      add\n      0x40\n      mstore\n      dup1\n      swap3\n      swap2\n      swap1\n      dup2\n      dup2\n      mstore\n      0x20\n      add\n      dup3\n      dup1\n      sload\n      tag_197\n      swap1\n      tag_151\n      jump\t// in\n    tag_197:\n      dup1\n      iszero\n      tag_198\n      jumpi\n      dup1\n      0x1f\n      lt\n      tag_199\n      jumpi\n      0x0100\n      dup1\n      dup4\n      sload\n      div\n      mul\n      dup4\n      mstore\n      swap2\n      0x20\n      add\n      swap2\n      jump(tag_198)\n    tag_199:\n      dup3\n      add\n      swap2\n      swap1\n      0x00\n      mstore\n      keccak256(0x00, 0x20)\n      swap1\n    tag_200:\n      dup2\n      sload\n      dup2\n      mstore\n      swap1\n      0x01\n      add\n      swap1\n      0x20\n      add\n      dup1\n      dup4\n      gt\n      tag_200\n      jumpi\n      dup3\n      swap1\n      sub\n      0x1f\n      and\n      dup3\n      add\n      swap2\n    tag_198:\n      pop\n      pop\n      pop\n      swap2\n      dup4\n      mstore\n      pop\n      pop\n      0x02\n      dup3\n      dup2\n      add\n      sload\n      0xff\n      dup1\n      dup3\n      and\n      iszero\n      iszero\n      0x20\n      dup6\n      add\n      mstore\n      0x40\n      swap1\n      swap4\n      add\n      swap3\n      0x0100\n      swap1\n      swap2\n      div\n      and\n      swap1\n      dup2\n      gt\n      iszero\n      tag_202\n      jumpi\n      tag_202\n      tag_203\n      jump\t// in\n    tag_202:\n      0x02\n      dup2\n      gt\n      iszero\n      tag_205\n      jumpi\n      tag_205\n      tag_203\n      jump\t// in\n    tag_205:\n      dup2\n      mstore\n      0x20\n      add\n      0x03\n      dup3\n      add\n      sload\n      dup2\n      mstore\n      pop\n      pop\n      swap1\n      pop\n        /* \"Bloc.sol\":6854:6887  MusicBloc.appendSeed(seeds, seed) */\n      tag_206\n        /* \"Bloc.sol\":6875:6880  seeds */\n      dup6\n        /* \"Bloc.sol\":6882:6886  seed */\n      dup3\n        /* \"Bloc.sol\":6854:6874  MusicBloc.appendSeed */\n      tag_207\n        /* \"Bloc.sol\":6854:6887  MusicBloc.appendSeed(seeds, seed) */\n      jump\t// in\n    tag_206:\n        /* \"Bloc.sol\":6846:6887  seeds = MusicBloc.appendSeed(seeds, seed) */\n      swap5\n      pop\n      pop\n        /* \"Bloc.sol\":6747:6750  j++ */\n      0x01\n      add\n        /* \"Bloc.sol\":6707:6902  for (uint256 j = 0; j < seedIds.length; j++) {... */\n      jump(tag_191)\n    tag_192:\n      pop\n        /* \"Bloc.sol\":6619:6912  {... */\n      pop\n        /* \"Bloc.sol\":6614:6617  i++ */\n      dup1\n      dup1\n      tag_208\n      swap1\n      tag_209\n      jump\t// in\n    tag_208:\n      swap2\n      pop\n      pop\n        /* \"Bloc.sol\":6575:6912  for (uint256 i = 1; i <= seedBoxCount; i++) {... */\n      jump(tag_186)\n    tag_187:\n      pop\n        /* \"Bloc.sol\":6929:6934  seeds */\n      swap4\n        /* \"Bloc.sol\":6377:6941  function getSeedsByRound(... */\n      swap3\n      pop\n      pop\n      pop\n      jump\t// out\n        /* \"Bloc.sol\":4435:4894  function mergeSeed(... */\n    tag_57:\n        /* \"@openzeppelin/contracts/access/Ownable.sol\":1531:1544  _checkOwner() */\n      tag_211\n        /* \"@openzeppelin/contracts/access/Ownable.sol\":1531:1542  _checkOwner */\n      tag_212\n        /* \"@openzeppelin/contracts/access/Ownable.sol\":1531:1544  _checkOwner() */\n      jump\t// in\n    tag_211:\n        /* \"Bloc.sol\":4565:4571  sender */\n      dup1\n        /* \"Bloc.sol\":1473:1500  _checkOnlyBlocAdmin(sender) */\n      tag_214\n        /* \"Bloc.sol\":1493:1499  sender */\n      dup2\n        /* \"Bloc.sol\":1473:1492  _checkOnlyBlocAdmin */\n      tag_215\n        /* \"Bloc.sol\":1473:1500  _checkOnlyBlocAdmin(sender) */\n      jump\t// in\n    tag_214:\n        /* \"Bloc.sol\":4591:4599  released */\n      and(0xff, sload(0x06))\n        /* \"Bloc.sol\":4591:4608  released == false */\n      iszero\n        /* \"Bloc.sol\":4583:4629  require(released == false, \"Bloc is finished\") */\n      tag_217\n      jumpi\n      mload(0x40)\n      shl(0xe5, 0x461bcd)\n      dup2\n      mstore\n      0x04\n      add\n      tag_218\n      swap1\n      tag_219\n      jump\t// in\n    tag_218:\n      mload(0x40)\n      dup1\n      swap2\n      sub\n      swap1\n      revert\n    tag_217:\n        /* \"Bloc.sol\":4680:4692  currentRound */\n      sload(0x04)\n        /* \"Bloc.sol\":4639:4666  MusicBloc.Seed storage seed */\n      0x00\n        /* \"Bloc.sol\":4669:4693  roundSeeds[currentRound] */\n      swap1\n      dup2\n      mstore\n        /* \"Bloc.sol\":4669:4679  roundSeeds */\n      0x08\n        /* \"Bloc.sol\":4669:4693  roundSeeds[currentRound] */\n      0x20\n      swap1\n      dup2\n      mstore\n      0x40\n      dup1\n      dup4\n      keccak256\n        /* \"Bloc.sol\":4669:4702  roundSeeds[currentRound][_seedId] */\n      dup8\n      dup5\n      mstore\n      swap1\n      swap2\n      mstore\n      dup2\n      keccak256\n        /* \"Bloc.sol\":4720:4727  seed.id */\n      dup1\n      sload\n        /* \"Bloc.sol\":4669:4702  roundSeeds[currentRound][_seedId] */\n      swap1\n      swap2\n        /* \"Bloc.sol\":4720:4732  seed.id != 0 */\n      sub\n        /* \"Bloc.sol\":4712:4751  require(seed.id != 0, \"Seed not found\") */\n      tag_220\n      jumpi\n      mload(0x40)\n      shl(0xe5, 0x461bcd)\n      dup2\n      mstore\n        /* \"#utility.yul\":15263:15265   */\n      0x20\n        /* \"Bloc.sol\":4712:4751  require(seed.id != 0, \"Seed not found\") */\n      0x04\n      dup3\n      add\n        /* \"#utility.yul\":15245:15266   */\n      mstore\n        /* \"#utility.yul\":15302:15304   */\n      0x0e\n        /* \"#utility.yul\":15282:15300   */\n      0x24\n      dup3\n      add\n        /* \"#utility.yul\":15275:15305   */\n      mstore\n      shl(0x92, 0x14d95959081b9bdd08199bdd5b99)\n        /* \"#utility.yul\":15321:15339   */\n      0x44\n      dup3\n      add\n        /* \"#utility.yul\":15314:15358   */\n      mstore\n        /* \"#utility.yul\":15375:15393   */\n      0x64\n      add\n        /* \"Bloc.sol\":4712:4751  require(seed.id != 0, \"Seed not found\") */\n      tag_218\n        /* \"#utility.yul\":15061:15399   */\n      jump\n        /* \"Bloc.sol\":4712:4751  require(seed.id != 0, \"Seed not found\") */\n    tag_220:\n        /* \"Bloc.sol\":4761:4772  seed.merged */\n      0x02\n      dup2\n      add\n        /* \"Bloc.sol\":4761:4779  seed.merged = true */\n      dup1\n      sload\n      not(0xff)\n      and\n        /* \"Bloc.sol\":4775:4779  true */\n      0x01\n        /* \"Bloc.sol\":4761:4779  seed.merged = true */\n      or\n      swap1\n      sstore\n        /* \"Bloc.sol\":4789:4888  if (_release) {... */\n      dup4\n      iszero\n      tag_223\n      jumpi\n        /* \"Bloc.sol\":4817:4825  released */\n      0x06\n        /* \"Bloc.sol\":4817:4832  released = true */\n      dup1\n      sload\n      not(0xff)\n      and\n        /* \"Bloc.sol\":4828:4832  true */\n      0x01\n        /* \"Bloc.sol\":4817:4832  released = true */\n      or\n      swap1\n      sstore\n        /* \"Bloc.sol\":4789:4888  if (_release) {... */\n      jump(tag_224)\n    tag_223:\n        /* \"Bloc.sol\":4863:4875  currentRound */\n      0x04\n        /* \"Bloc.sol\":4863:4877  currentRound++ */\n      dup1\n      sload\n      swap1\n        /* \"Bloc.sol\":4863:4875  currentRound */\n      0x00\n        /* \"Bloc.sol\":4863:4877  currentRound++ */\n      tag_225\n      dup4\n      tag_209\n      jump\t// in\n    tag_225:\n      swap2\n      swap1\n      pop\n      sstore\n      pop\n        /* \"Bloc.sol\":4789:4888  if (_release) {... */\n    tag_224:\n        /* \"Bloc.sol\":4573:4894  {... */\n      pop\n        /* \"@openzeppelin/contracts/access/Ownable.sol\":1554:1555  _ */\n      pop\n        /* \"Bloc.sol\":4435:4894  function mergeSeed(... */\n      pop\n      pop\n      pop\n      jump\t// out\n        /* \"@openzeppelin/contracts/access/AccessControl.sol\":4226:4362  function grantRole(bytes32 role, address account) public virtual onlyRole(getRoleAdmin(role)) {... */\n    tag_72:\n        /* \"@openzeppelin/contracts/access/AccessControl.sol\":3875:3882  bytes32 */\n      0x00\n        /* \"@openzeppelin/contracts/access/AccessControl.sol\":3901:3913  _roles[role] */\n      dup3\n      dup2\n      mstore\n        /* \"@openzeppelin/contracts/access/AccessControl.sol\":3901:3907  _roles */\n      0x01\n        /* \"@openzeppelin/contracts/access/AccessControl.sol\":3901:3913  _roles[role] */\n      0x20\n      dup2\n      swap1\n      mstore\n      0x40\n      swap1\n      swap2\n      keccak256\n        /* \"@openzeppelin/contracts/access/AccessControl.sol\":3901:3923  _roles[role].adminRole */\n      add\n      sload\n        /* \"@openzeppelin/contracts/access/AccessControl.sol\":2464:2480  _checkRole(role) */\n      tag_230\n        /* \"@openzeppelin/contracts/access/AccessControl.sol\":2475:2479  role */\n      dup2\n        /* \"@openzeppelin/contracts/access/AccessControl.sol\":2464:2474  _checkRole */\n      tag_231\n        /* \"@openzeppelin/contracts/access/AccessControl.sol\":2464:2480  _checkRole(role) */\n      jump\t// in\n    tag_230:\n        /* \"@openzeppelin/contracts/access/AccessControl.sol\":4330:4355  _grantRole(role, account) */\n      tag_233\n        /* \"@openzeppelin/contracts/access/AccessControl.sol\":4341:4345  role */\n      dup4\n        /* \"@openzeppelin/contracts/access/AccessControl.sol\":4347:4354  account */\n      dup4\n        /* \"@openzeppelin/contracts/access/AccessControl.sol\":4330:4340  _grantRole */\n      tag_234\n        /* \"@openzeppelin/contracts/access/AccessControl.sol\":4330:4355  _grantRole(role, account) */\n      jump\t// in\n    tag_233:\n      pop\n        /* \"@openzeppelin/contracts/access/AccessControl.sol\":4226:4362  function grantRole(bytes32 role, address account) public virtual onlyRole(getRoleAdmin(role)) {... */\n      pop\n      pop\n      pop\n      jump\t// out\n        /* \"@openzeppelin/contracts/access/AccessControl.sol\":5328:5573  function renounceRole(bytes32 role, address callerConfirmation) public virtual {... */\n    tag_75:\n      sub(shl(0xa0, 0x01), 0x01)\n        /* \"@openzeppelin/contracts/access/AccessControl.sol\":5421:5455  callerConfirmation != _msgSender() */\n      dup2\n      and\n        /* \"@openzeppelin/contracts/utils/Context.sol\":735:745  msg.sender */\n      caller\n        /* \"@openzeppelin/contracts/access/AccessControl.sol\":5421:5455  callerConfirmation != _msgSender() */\n      eq\n        /* \"@openzeppelin/contracts/access/AccessControl.sol\":5417:5519  if (callerConfirmation != _msgSender()) {... */\n      tag_238\n      jumpi\n        /* \"@openzeppelin/contracts/access/AccessControl.sol\":5478:5508  AccessControlBadConfirmation() */\n      mload(0x40)\n      shl(0xe1, 0x334bd919)\n      dup2\n      mstore\n      0x04\n      add\n      mload(0x40)\n      dup1\n      swap2\n      sub\n      swap1\n      revert\n        /* \"@openzeppelin/contracts/access/AccessControl.sol\":5417:5519  if (callerConfirmation != _msgSender()) {... */\n    tag_238:\n        /* \"@openzeppelin/contracts/access/AccessControl.sol\":5529:5566  _revokeRole(role, callerConfirmation) */\n      tag_239\n        /* \"@openzeppelin/contracts/access/AccessControl.sol\":5541:5545  role */\n      dup3\n        /* \"@openzeppelin/contracts/access/AccessControl.sol\":5547:5565  callerConfirmation */\n      dup3\n        /* \"@openzeppelin/contracts/access/AccessControl.sol\":5529:5540  _revokeRole */\n      tag_240\n        /* \"@openzeppelin/contracts/access/AccessControl.sol\":5529:5566  _revokeRole(role, callerConfirmation) */\n      jump\t// in\n    tag_239:\n      pop\n        /* \"@openzeppelin/contracts/access/AccessControl.sol\":5328:5573  function renounceRole(bytes32 role, address callerConfirmation) public virtual {... */\n      pop\n      pop\n      jump\t// out\n        /* \"@openzeppelin/contracts/access/Ownable.sol\":2293:2394  function renounceOwnership() public virtual onlyOwner {... */\n    tag_77:\n        /* \"@openzeppelin/contracts/access/Ownable.sol\":1531:1544  _checkOwner() */\n      tag_242\n        /* \"@openzeppelin/contracts/access/Ownable.sol\":1531:1542  _checkOwner */\n      tag_212\n        /* \"@openzeppelin/contracts/access/Ownable.sol\":1531:1544  _checkOwner() */\n      jump\t// in\n    tag_242:\n        /* \"@openzeppelin/contracts/access/Ownable.sol\":2357:2387  _transferOwnership(address(0)) */\n      tag_244\n        /* \"@openzeppelin/contracts/access/Ownable.sol\":2384:2385  0 */\n      0x00\n        /* \"@openzeppelin/contracts/access/Ownable.sol\":2357:2375  _transferOwnership */\n      tag_245\n        /* \"@openzeppelin/contracts/access/Ownable.sol\":2357:2387  _transferOwnership(address(0)) */\n      jump\t// in\n    tag_244:\n        /* \"@openzeppelin/contracts/access/Ownable.sol\":2293:2394  function renounceOwnership() public virtual onlyOwner {... */\n      jump\t// out\n        /* \"Bloc.sol\":1865:2117  function initialize(... */\n    tag_81:\n        /* \"@openzeppelin/contracts/proxy/utils/Initializable.sol\":8870:8891  INITIALIZABLE_STORAGE */\n      0xf0c57e16840df040f15088dc2f81fe391c3923bec73e23a9662efc9c229c6a00\n        /* \"@openzeppelin/contracts/proxy/utils/Initializable.sol\":4302:4317  $._initializing */\n      dup1\n      sload\n      shl(0x40, 0x01)\n      dup2\n      div\n      0xff\n      and\n        /* \"@openzeppelin/contracts/proxy/utils/Initializable.sol\":4301:4317  !$._initializing */\n      iszero\n      swap1\n        /* \"@openzeppelin/contracts/proxy/utils/Initializable.sol\":4348:4362  $._initialized */\n      0xffffffffffffffff\n      and\n        /* \"@openzeppelin/contracts/proxy/utils/Initializable.sol\":4158:4188  InitializableStorage storage $ */\n      0x00\n        /* \"@openzeppelin/contracts/proxy/utils/Initializable.sol\":4726:4742  initialized == 0 */\n      dup2\n      iszero\n        /* \"@openzeppelin/contracts/proxy/utils/Initializable.sol\":4726:4760  initialized == 0 && isTopLevelCall */\n      dup1\n      iszero\n      tag_249\n      jumpi\n      pop\n        /* \"@openzeppelin/contracts/proxy/utils/Initializable.sol\":4746:4760  isTopLevelCall */\n      dup3\n        /* \"@openzeppelin/contracts/proxy/utils/Initializable.sol\":4726:4760  initialized == 0 && isTopLevelCall */\n    tag_249:\n        /* \"@openzeppelin/contracts/proxy/utils/Initializable.sol\":4706:4760  bool initialSetup = initialized == 0 && isTopLevelCall */\n      swap1\n      pop\n        /* \"@openzeppelin/contracts/proxy/utils/Initializable.sol\":4770:4787  bool construction */\n      0x00\n        /* \"@openzeppelin/contracts/proxy/utils/Initializable.sol\":4790:4801  initialized */\n      dup3\n        /* \"@openzeppelin/contracts/proxy/utils/Initializable.sol\":4790:4806  initialized == 1 */\n      0xffffffffffffffff\n      and\n        /* \"@openzeppelin/contracts/proxy/utils/Initializable.sol\":4805:4806  1 */\n      0x01\n        /* \"@openzeppelin/contracts/proxy/utils/Initializable.sol\":4790:4806  initialized == 1 */\n      eq\n        /* \"@openzeppelin/contracts/proxy/utils/Initializable.sol\":4790:4840  initialized == 1 && address(this).code.length == 0 */\n      dup1\n      iszero\n      tag_250\n      jumpi\n      pop\n        /* \"@openzeppelin/contracts/proxy/utils/Initializable.sol\":4818:4822  this */\n      address\n        /* \"@openzeppelin/contracts/proxy/utils/Initializable.sol\":4810:4835  address(this).code.length */\n      extcodesize\n        /* \"@openzeppelin/contracts/proxy/utils/Initializable.sol\":4810:4840  address(this).code.length == 0 */\n      iszero\n        /* \"@openzeppelin/contracts/proxy/utils/Initializable.sol\":4790:4840  initialized == 1 && address(this).code.length == 0 */\n    tag_250:\n        /* \"@openzeppelin/contracts/proxy/utils/Initializable.sol\":4770:4840  bool construction = initialized == 1 && address(this).code.length == 0 */\n      swap1\n      pop\n        /* \"@openzeppelin/contracts/proxy/utils/Initializable.sol\":4856:4868  initialSetup */\n      dup2\n        /* \"@openzeppelin/contracts/proxy/utils/Initializable.sol\":4855:4868  !initialSetup */\n      iszero\n        /* \"@openzeppelin/contracts/proxy/utils/Initializable.sol\":4855:4885  !initialSetup && !construction */\n      dup1\n      iszero\n      tag_251\n      jumpi\n      pop\n        /* \"@openzeppelin/contracts/proxy/utils/Initializable.sol\":4873:4885  construction */\n      dup1\n        /* \"@openzeppelin/contracts/proxy/utils/Initializable.sol\":4872:4885  !construction */\n      iszero\n        /* \"@openzeppelin/contracts/proxy/utils/Initializable.sol\":4855:4885  !initialSetup && !construction */\n    tag_251:\n        /* \"@openzeppelin/contracts/proxy/utils/Initializable.sol\":4851:4942  if (!initialSetup && !construction) {... */\n      iszero\n      tag_252\n      jumpi\n        /* \"@openzeppelin/contracts/proxy/utils/Initializable.sol\":4908:4931  InvalidInitialization() */\n      mload(0x40)\n      shl(0xe0, 0xf92ee8a9)\n      dup2\n      mstore\n      0x04\n      add\n      mload(0x40)\n      dup1\n      swap2\n      sub\n      swap1\n      revert\n        /* \"@openzeppelin/contracts/proxy/utils/Initializable.sol\":4851:4942  if (!initialSetup && !construction) {... */\n    tag_252:\n        /* \"@openzeppelin/contracts/proxy/utils/Initializable.sol\":4951:4969  $._initialized = 1 */\n      dup5\n      sload\n      not(0xffffffffffffffff)\n      and\n        /* \"@openzeppelin/contracts/proxy/utils/Initializable.sol\":4968:4969  1 */\n      0x01\n        /* \"@openzeppelin/contracts/proxy/utils/Initializable.sol\":4951:4969  $._initialized = 1 */\n      or\n      dup6\n      sstore\n        /* \"@openzeppelin/contracts/proxy/utils/Initializable.sol\":4979:5046  if (isTopLevelCall) {... */\n      dup4\n      iszero\n      tag_253\n      jumpi\n        /* \"@openzeppelin/contracts/proxy/utils/Initializable.sol\":5013:5035  $._initializing = true */\n      dup5\n      sload\n      not(shl(0x40, 0xff))\n      and\n      shl(0x40, 0x01)\n      or\n      dup6\n      sstore\n        /* \"@openzeppelin/contracts/proxy/utils/Initializable.sol\":4979:5046  if (isTopLevelCall) {... */\n    tag_253:\n        /* \"Bloc.sol\":2035:2063  _initBloc(admin, _cid, seed) */\n      tag_255\n        /* \"Bloc.sol\":2045:2050  admin */\n      dup10\n        /* \"Bloc.sol\":2052:2056  _cid */\n      dup10\n        /* \"Bloc.sol\":2058:2062  seed */\n      dup9\n        /* \"Bloc.sol\":2035:2044  _initBloc */\n      tag_256\n        /* \"Bloc.sol\":2035:2063  _initBloc(admin, _cid, seed) */\n      jump\t// in\n    tag_255:\n        /* \"Bloc.sol\":2073:2110  transferOwnership(soundSphereAddress) */\n      tag_257\n        /* \"Bloc.sol\":2091:2109  soundSphereAddress */\n      dup8\n        /* \"Bloc.sol\":2073:2090  transferOwnership */\n      tag_144\n        /* \"Bloc.sol\":2073:2110  transferOwnership(soundSphereAddress) */\n      jump\t// in\n    tag_257:\n        /* \"@openzeppelin/contracts/proxy/utils/Initializable.sol\":5070:5084  isTopLevelCall */\n      dup4\n        /* \"@openzeppelin/contracts/proxy/utils/Initializable.sol\":5066:5167  if (isTopLevelCall) {... */\n      iszero\n      tag_258\n      jumpi\n        /* \"@openzeppelin/contracts/proxy/utils/Initializable.sol\":5100:5123  $._initializing = false */\n      dup5\n      sload\n      not(shl(0x40, 0xff))\n      and\n      dup6\n      sstore\n        /* \"@openzeppelin/contracts/proxy/utils/Initializable.sol\":5142:5156  Initialized(1) */\n      mload(0x40)\n      0x01\n        /* \"#utility.yul\":15557:15607   */\n      dup2\n      mstore\n        /* \"@openzeppelin/contracts/proxy/utils/Initializable.sol\":5142:5156  Initialized(1) */\n      0xc7f505b2f371ae2175ee4913f4499e1f2633a7b5936321eed1cdaeb6115181d2\n      swap1\n        /* \"#utility.yul\":15545:15547   */\n      0x20\n        /* \"#utility.yul\":15530:15548   */\n      add\n        /* \"@openzeppelin/contracts/proxy/utils/Initializable.sol\":5142:5156  Initialized(1) */\n      mload(0x40)\n      dup1\n      swap2\n      sub\n      swap1\n      log1\n        /* \"@openzeppelin/contracts/proxy/utils/Initializable.sol\":5066:5167  if (isTopLevelCall) {... */\n    tag_258:\n        /* \"@openzeppelin/contracts/proxy/utils/Initializable.sol\":4092:5173  {... */\n      pop\n      pop\n      pop\n      pop\n      pop\n        /* \"Bloc.sol\":1865:2117  function initialize(... */\n      pop\n      pop\n      pop\n      pop\n      jump\t// out\n        /* \"@openzeppelin/contracts/access/AccessControl.sol\":2854:2990  function hasRole(bytes32 role, address account) public view virtual returns (bool) {... */\n    tag_91:\n        /* \"@openzeppelin/contracts/access/AccessControl.sol\":2931:2935  bool */\n      0x00\n        /* \"@openzeppelin/contracts/access/AccessControl.sol\":2954:2966  _roles[role] */\n      swap2\n      dup3\n      mstore\n        /* \"@openzeppelin/contracts/access/AccessControl.sol\":2954:2960  _roles */\n      0x01\n        /* \"@openzeppelin/contracts/access/AccessControl.sol\":2954:2966  _roles[role] */\n      0x20\n      swap1\n      dup2\n      mstore\n      0x40\n      dup1\n      dup5\n      keccak256\n      sub(shl(0xa0, 0x01), 0x01)\n        /* \"@openzeppelin/contracts/access/AccessControl.sol\":2954:2983  _roles[role].hasRole[account] */\n      swap4\n      swap1\n      swap4\n      and\n      dup5\n      mstore\n      swap2\n      swap1\n      mstore\n      swap1\n      keccak256\n      sload\n      0xff\n      and\n      swap1\n        /* \"@openzeppelin/contracts/access/AccessControl.sol\":2854:2990  function hasRole(bytes32 role, address account) public view virtual returns (bool) {... */\n      jump\t// out\n        /* \"Bloc.sol\":1297:1369  mapping(uint256 => mapping(bytes32 => MusicBloc.Seed)) public roundSeeds */\n    tag_99:\n      0x08\n      0x20\n      swap1\n      dup2\n      mstore\n      0x00\n      swap3\n      dup4\n      mstore\n      0x40\n      dup1\n      dup5\n      keccak256\n      swap1\n      swap2\n      mstore\n      swap1\n      dup3\n      mstore\n      swap1\n      keccak256\n      dup1\n      sload\n      0x01\n      dup3\n      add\n      dup1\n      sload\n      swap2\n      swap3\n      swap2\n      tag_263\n      swap1\n      tag_151\n      jump\t// in\n    tag_263:\n      dup1\n      0x1f\n      add\n      0x20\n      dup1\n      swap2\n      div\n      mul\n      0x20\n      add\n      mload(0x40)\n      swap1\n      dup2\n      add\n      0x40\n      mstore\n      dup1\n      swap3\n      swap2\n      swap1\n      dup2\n      dup2\n      mstore\n      0x20\n      add\n      dup3\n      dup1\n      sload\n      tag_264\n      swap1\n      tag_151\n      jump\t// in\n    tag_264:\n      dup1\n      iszero\n      tag_265\n      jumpi\n      dup1\n      0x1f\n      lt\n      tag_266\n      jumpi\n      0x0100\n      dup1\n      dup4\n      sload\n      div\n      mul\n      dup4\n      mstore\n      swap2\n      0x20\n      add\n      swap2\n      jump(tag_265)\n    tag_266:\n      dup3\n      add\n      swap2\n      swap1\n      0x00\n      mstore\n      keccak256(0x00, 0x20)\n      swap1\n    tag_267:\n      dup2\n      sload\n      dup2\n      mstore\n      swap1\n      0x01\n      add\n      swap1\n      0x20\n      add\n      dup1\n      dup4\n      gt\n      tag_267\n      jumpi\n      dup3\n      swap1\n      sub\n      0x1f\n      and\n      dup3\n      add\n      swap2\n    tag_265:\n      pop\n      pop\n      pop\n      pop\n      0x02\n      dup4\n      add\n      sload\n      0x03\n      swap1\n      swap4\n      add\n      sload\n      swap2\n      swap3\n      0xff\n      dup1\n      dup3\n      and\n      swap4\n      0x0100\n      swap1\n      swap3\n      div\n      and\n      swap2\n      pop\n      dup6\n      jump\t// out\n        /* \"Bloc.sol\":462:479  string public cid */\n    tag_106:\n      0x05\n      dup1\n      sload\n      tag_268\n      swap1\n      tag_151\n      jump\t// in\n    tag_268:\n      dup1\n      0x1f\n      add\n      0x20\n      dup1\n      swap2\n      div\n      mul\n      0x20\n      add\n      mload(0x40)\n      swap1\n      dup2\n      add\n      0x40\n      mstore\n      dup1\n      swap3\n      swap2\n      swap1\n      dup2\n      dup2\n      mstore\n      0x20\n      add\n      dup3\n      dup1\n      sload\n      tag_269\n      swap1\n      tag_151\n      jump\t// in\n    tag_269:\n      dup1\n      iszero\n      tag_270\n      jumpi\n      dup1\n      0x1f\n      lt\n      tag_271\n      jumpi\n      0x0100\n      dup1\n      dup4\n      sload\n      div\n      mul\n      dup4\n      mstore\n      swap2\n      0x20\n      add\n      swap2\n      jump(tag_270)\n    tag_271:\n      dup3\n      add\n      swap2\n      swap1\n      0x00\n      mstore\n      keccak256(0x00, 0x20)\n      swap1\n    tag_272:\n      dup2\n      sload\n      dup2\n      mstore\n      swap1\n      0x01\n      add\n      swap1\n      0x20\n      add\n      dup1\n      dup4\n      gt\n      tag_272\n      jumpi\n      dup3\n      swap1\n      sub\n      0x1f\n      and\n      dup3\n      add\n      swap2\n    tag_270:\n      pop\n      pop\n      pop\n      pop\n      pop\n      dup2\n      jump\t// out\n        /* \"Bloc.sol\":4900:5655  function postStatus(... */\n    tag_112:\n        /* \"@openzeppelin/contracts/access/Ownable.sol\":1531:1544  _checkOwner() */\n      tag_274\n        /* \"@openzeppelin/contracts/access/Ownable.sol\":1531:1542  _checkOwner */\n      tag_212\n        /* \"@openzeppelin/contracts/access/Ownable.sol\":1531:1544  _checkOwner() */\n      jump\t// in\n    tag_274:\n        /* \"Bloc.sol\":1605:1628  SeedBox storage seedBox */\n      0x00\n        /* \"Bloc.sol\":1631:1652  seedBoxes[_seedBoxId] */\n      dup4\n      dup2\n      mstore\n        /* \"Bloc.sol\":1631:1640  seedBoxes */\n      0x07\n        /* \"Bloc.sol\":1631:1652  seedBoxes[_seedBoxId] */\n      0x20\n      swap1\n      dup2\n      mstore\n      0x40\n      swap2\n      dup3\n      swap1\n      keccak256\n        /* \"Bloc.sol\":1707:1727  seedBox.contributors */\n      0x03\n      dup2\n      add\n        /* \"Bloc.sol\":1683:1737  MusicBloc.isContributor(seedBox.contributors, _sender) */\n      dup1\n      sload\n      dup5\n      mload\n      dup2\n      dup6\n      mul\n      dup2\n      add\n      dup6\n      add\n      swap1\n      swap6\n      mstore\n      dup1\n      dup6\n      mstore\n        /* \"Bloc.sol\":5054:5060  sender */\n      dup6\n      swap5\n        /* \"Bloc.sol\":5062:5072  _seedBoxId */\n      dup9\n      swap5\n        /* \"Bloc.sol\":1683:1737  MusicBloc.isContributor(seedBox.contributors, _sender) */\n      tag_276\n      swap4\n      swap2\n      swap3\n      swap1\n      dup4\n      add\n        /* \"Bloc.sol\":1707:1727  seedBox.contributors */\n      dup3\n        /* \"Bloc.sol\":1683:1737  MusicBloc.isContributor(seedBox.contributors, _sender) */\n      dup3\n      dup1\n      iszero\n      tag_277\n      jumpi\n      0x20\n      mul\n      dup3\n      add\n      swap2\n      swap1\n      0x00\n      mstore\n      keccak256(0x00, 0x20)\n      swap1\n    tag_278:\n      dup2\n      sload\n      sub(shl(0xa0, 0x01), 0x01)\n      and\n      dup2\n      mstore\n      0x01\n      swap1\n      swap2\n      add\n      swap1\n      0x20\n      add\n      dup1\n      dup4\n      gt\n      tag_278\n      jumpi\n    tag_277:\n      pop\n      pop\n      pop\n      pop\n      pop\n        /* \"Bloc.sol\":1729:1736  _sender */\n      dup5\n        /* \"Bloc.sol\":1683:1706  MusicBloc.isContributor */\n      tag_279\n        /* \"Bloc.sol\":1683:1737  MusicBloc.isContributor(seedBox.contributors, _sender) */\n      jump\t// in\n    tag_276:\n        /* \"Bloc.sol\":1683:1783  MusicBloc.isContributor(seedBox.contributors, _sender) ||... */\n      dup1\n      tag_280\n      jumpi\n      pop\n        /* \"Bloc.sol\":1768:1783  seedBox.creator */\n      0x04\n      dup2\n      add\n      sload\n      sub(shl(0xa0, 0x01), 0x01)\n        /* \"Bloc.sol\":1757:1783  _sender == seedBox.creator */\n      dup5\n      dup2\n      and\n        /* \"Bloc.sol\":1768:1783  seedBox.creator */\n      swap2\n      and\n        /* \"Bloc.sol\":1757:1783  _sender == seedBox.creator */\n      eq\n        /* \"Bloc.sol\":1683:1783  MusicBloc.isContributor(seedBox.contributors, _sender) ||... */\n    tag_280:\n        /* \"Bloc.sol\":1662:1838  require(... */\n      tag_281\n      jumpi\n      mload(0x40)\n      shl(0xe5, 0x461bcd)\n      dup2\n      mstore\n      0x04\n      add\n      tag_218\n      swap1\n      tag_283\n      jump\t// in\n    tag_281:\n        /* \"Bloc.sol\":5084:5107  SeedBox storage seedBox */\n      0x00\n        /* \"Bloc.sol\":5110:5131  seedBoxes[_seedBoxId] */\n      dup7\n      dup2\n      mstore\n        /* \"Bloc.sol\":5110:5119  seedBoxes */\n      0x07\n        /* \"Bloc.sol\":5110:5131  seedBoxes[_seedBoxId] */\n      0x20\n      mstore\n      0x40\n      dup2\n      keccak256\n        /* \"Bloc.sol\":5149:5159  seedBox.id */\n      dup1\n      sload\n        /* \"Bloc.sol\":5110:5131  seedBoxes[_seedBoxId] */\n      swap1\n      swap2\n        /* \"Bloc.sol\":5149:5164  seedBox.id != 0 */\n      sub\n        /* \"Bloc.sol\":5141:5187  require(seedBox.id != 0, \"Seed box not found\") */\n      tag_285\n      jumpi\n      mload(0x40)\n      shl(0xe5, 0x461bcd)\n      dup2\n      mstore\n      0x04\n      add\n      tag_218\n      swap1\n      tag_287\n      jump\t// in\n    tag_285:\n        /* \"Bloc.sol\":5218:5271  MusicBloc.isContributor(seedBox.contributors, sender) */\n      tag_288\n        /* \"Bloc.sol\":5242:5249  seedBox */\n      dup2\n        /* \"Bloc.sol\":5242:5262  seedBox.contributors */\n      0x03\n      add\n        /* \"Bloc.sol\":5218:5271  MusicBloc.isContributor(seedBox.contributors, sender) */\n      dup1\n      sload\n      dup1\n      0x20\n      mul\n      0x20\n      add\n      mload(0x40)\n      swap1\n      dup2\n      add\n      0x40\n      mstore\n      dup1\n      swap3\n      swap2\n      swap1\n      dup2\n      dup2\n      mstore\n      0x20\n      add\n      dup3\n      dup1\n      sload\n      dup1\n      iszero\n      tag_289\n      jumpi\n      0x20\n      mul\n      dup3\n      add\n      swap2\n      swap1\n      0x00\n      mstore\n      keccak256(0x00, 0x20)\n      swap1\n    tag_290:\n      dup2\n      sload\n      sub(shl(0xa0, 0x01), 0x01)\n      and\n      dup2\n      mstore\n      0x01\n      swap1\n      swap2\n      add\n      swap1\n      0x20\n      add\n      dup1\n      dup4\n      gt\n      tag_290\n      jumpi\n    tag_289:\n      pop\n      pop\n      pop\n      pop\n      pop\n        /* \"Bloc.sol\":5264:5270  sender */\n      dup7\n        /* \"Bloc.sol\":5218:5241  MusicBloc.isContributor */\n      tag_279\n        /* \"Bloc.sol\":5218:5271  MusicBloc.isContributor(seedBox.contributors, sender) */\n      jump\t// in\n    tag_288:\n        /* \"Bloc.sol\":5197:5314  require(... */\n      tag_291\n      jumpi\n      mload(0x40)\n      shl(0xe5, 0x461bcd)\n      dup2\n      mstore\n        /* \"#utility.yul\":16525:16527   */\n      0x20\n        /* \"Bloc.sol\":5197:5314  require(... */\n      0x04\n      dup3\n      add\n        /* \"#utility.yul\":16507:16528   */\n      mstore\n        /* \"#utility.yul\":16564:16566   */\n      0x11\n        /* \"#utility.yul\":16544:16562   */\n      0x24\n      dup3\n      add\n        /* \"#utility.yul\":16537:16567   */\n      mstore\n      shl(0x79, 0x2737ba10309031b7b73a3934b13aba37b9)\n        /* \"#utility.yul\":16583:16601   */\n      0x44\n      dup3\n      add\n        /* \"#utility.yul\":16576:16623   */\n      mstore\n        /* \"#utility.yul\":16640:16658   */\n      0x64\n      add\n        /* \"Bloc.sol\":5197:5314  require(... */\n      tag_218\n        /* \"#utility.yul\":16323:16664   */\n      jump\n        /* \"Bloc.sol\":5197:5314  require(... */\n    tag_291:\n        /* \"Bloc.sol\":5384:5403  uint256 newStatusId */\n      0x00\n        /* \"Bloc.sol\":5408:5421  statusCounter */\n      0x03\n      0x00\n        /* \"Bloc.sol\":5406:5421  ++statusCounter */\n      dup2\n      sload\n      tag_294\n      swap1\n      tag_209\n      jump\t// in\n    tag_294:\n      swap2\n      dup3\n      swap1\n      sstore\n      pop\n        /* \"Bloc.sol\":5432:5456  Status storage newStatus */\n      0x00\n        /* \"Bloc.sol\":5459:5480  statuses[newStatusId] */\n      dup2\n      dup2\n      mstore\n        /* \"Bloc.sol\":5459:5467  statuses */\n      0x09\n        /* \"Bloc.sol\":5459:5480  statuses[newStatusId] */\n      0x20\n      mstore\n      0x40\n      swap1\n      keccak256\n        /* \"Bloc.sol\":5490:5518  newStatus.boxID = _seedBoxId */\n      dup10\n      dup2\n      sstore\n        /* \"Bloc.sol\":5528:5540  newStatus.id */\n      0x01\n      dup2\n      add\n        /* \"Bloc.sol\":5528:5554  newStatus.id = newStatusId */\n      dup3\n      swap1\n      sstore\n        /* \"Bloc.sol\":5406:5421  ++statusCounter */\n      swap1\n      swap2\n      pop\n        /* \"Bloc.sol\":5564:5581  newStatus.message */\n      0x02\n      dup2\n      add\n        /* \"Bloc.sol\":5564:5592  newStatus.message = _message */\n      tag_295\n        /* \"Bloc.sol\":5584:5592  _message */\n      dup10\n        /* \"Bloc.sol\":5564:5581  newStatus.message */\n      dup3\n        /* \"Bloc.sol\":5564:5592  newStatus.message = _message */\n      tag_296\n      jump\t// in\n    tag_295:\n      pop\n        /* \"Bloc.sol\":5623:5639  newStatus.author */\n      0x03\n      add\n        /* \"Bloc.sol\":5623:5648  newStatus.author = sender */\n      dup1\n      sload\n      not(sub(shl(0xa0, 0x01), 0x01))\n      and\n      sub(shl(0xa0, 0x01), 0x01)\n      swap8\n      swap1\n      swap8\n      and\n      swap7\n      swap1\n      swap7\n      or\n      swap1\n      swap6\n      sstore\n      pop\n      pop\n      pop\n      pop\n      pop\n      pop\n      pop\n        /* \"Bloc.sol\":4900:5655  function postStatus(... */\n      jump\t// out\n        /* \"Bloc.sol\":3701:4391  function completeSeed(... */\n    tag_116:\n        /* \"@openzeppelin/contracts/access/Ownable.sol\":1531:1544  _checkOwner() */\n      tag_298\n        /* \"@openzeppelin/contracts/access/Ownable.sol\":1531:1542  _checkOwner */\n      tag_212\n        /* \"@openzeppelin/contracts/access/Ownable.sol\":1531:1544  _checkOwner() */\n      jump\t// in\n    tag_298:\n        /* \"Bloc.sol\":1605:1628  SeedBox storage seedBox */\n      0x00\n        /* \"Bloc.sol\":1631:1652  seedBoxes[_seedBoxId] */\n      dup5\n      dup2\n      mstore\n        /* \"Bloc.sol\":1631:1640  seedBoxes */\n      0x07\n        /* \"Bloc.sol\":1631:1652  seedBoxes[_seedBoxId] */\n      0x20\n      swap1\n      dup2\n      mstore\n      0x40\n      swap2\n      dup3\n      swap1\n      keccak256\n        /* \"Bloc.sol\":1707:1727  seedBox.contributors */\n      0x03\n      dup2\n      add\n        /* \"Bloc.sol\":1683:1737  MusicBloc.isContributor(seedBox.contributors, _sender) */\n      dup1\n      sload\n      dup5\n      mload\n      dup2\n      dup6\n      mul\n      dup2\n      add\n      dup6\n      add\n      swap1\n      swap6\n      mstore\n      dup1\n      dup6\n      mstore\n        /* \"Bloc.sol\":3879:3885  sender */\n      dup6\n      swap5\n        /* \"Bloc.sol\":3887:3897  _seedBoxId */\n      dup10\n      swap5\n        /* \"Bloc.sol\":1683:1737  MusicBloc.isContributor(seedBox.contributors, _sender) */\n      tag_300\n      swap4\n      swap2\n      swap3\n      swap1\n      dup4\n      add\n        /* \"Bloc.sol\":1707:1727  seedBox.contributors */\n      dup3\n        /* \"Bloc.sol\":1683:1737  MusicBloc.isContributor(seedBox.contributors, _sender) */\n      dup3\n      dup1\n      iszero\n      tag_277\n      jumpi\n      0x20\n      mul\n      dup3\n      add\n      swap2\n      swap1\n      0x00\n      mstore\n      keccak256(0x00, 0x20)\n      swap1\n      dup2\n      sload\n      sub(shl(0xa0, 0x01), 0x01)\n      and\n      dup2\n      mstore\n      0x01\n      swap1\n      swap2\n      add\n      swap1\n      0x20\n      add\n      dup1\n      dup4\n      gt\n      tag_278\n      jumpi\n      pop\n      pop\n      pop\n      pop\n      pop\n        /* \"Bloc.sol\":1729:1736  _sender */\n      dup5\n        /* \"Bloc.sol\":1683:1706  MusicBloc.isContributor */\n      tag_279\n        /* \"Bloc.sol\":1683:1737  MusicBloc.isContributor(seedBox.contributors, _sender) */\n      jump\t// in\n    tag_300:\n        /* \"Bloc.sol\":1683:1783  MusicBloc.isContributor(seedBox.contributors, _sender) ||... */\n      dup1\n      tag_303\n      jumpi\n      pop\n        /* \"Bloc.sol\":1768:1783  seedBox.creator */\n      0x04\n      dup2\n      add\n      sload\n      sub(shl(0xa0, 0x01), 0x01)\n        /* \"Bloc.sol\":1757:1783  _sender == seedBox.creator */\n      dup5\n      dup2\n      and\n        /* \"Bloc.sol\":1768:1783  seedBox.creator */\n      swap2\n      and\n        /* \"Bloc.sol\":1757:1783  _sender == seedBox.creator */\n      eq\n        /* \"Bloc.sol\":1683:1783  MusicBloc.isContributor(seedBox.contributors, _sender) ||... */\n    tag_303:\n        /* \"Bloc.sol\":1662:1838  require(... */\n      tag_304\n      jumpi\n      mload(0x40)\n      shl(0xe5, 0x461bcd)\n      dup2\n      mstore\n      0x04\n      add\n      tag_218\n      swap1\n      tag_283\n      jump\t// in\n    tag_304:\n        /* \"Bloc.sol\":3917:3925  released */\n      and(0xff, sload(0x06))\n        /* \"Bloc.sol\":3917:3934  released == false */\n      iszero\n        /* \"Bloc.sol\":3909:3955  require(released == false, \"Bloc is finished\") */\n      tag_307\n      jumpi\n      mload(0x40)\n      shl(0xe5, 0x461bcd)\n      dup2\n      mstore\n      0x04\n      add\n      tag_218\n      swap1\n      tag_219\n      jump\t// in\n    tag_307:\n        /* \"Bloc.sol\":3965:3988  SeedBox storage seedBox */\n      0x00\n        /* \"Bloc.sol\":3991:4012  seedBoxes[_seedBoxId] */\n      dup8\n      dup2\n      mstore\n        /* \"Bloc.sol\":3991:4000  seedBoxes */\n      0x07\n        /* \"Bloc.sol\":3991:4012  seedBoxes[_seedBoxId] */\n      0x20\n      mstore\n      0x40\n      dup2\n      keccak256\n        /* \"Bloc.sol\":4030:4040  seedBox.id */\n      dup1\n      sload\n        /* \"Bloc.sol\":3991:4012  seedBoxes[_seedBoxId] */\n      swap1\n      swap2\n        /* \"Bloc.sol\":4030:4045  seedBox.id != 0 */\n      sub\n        /* \"Bloc.sol\":4022:4068  require(seedBox.id != 0, \"Seed box not found\") */\n      tag_309\n      jumpi\n      mload(0x40)\n      shl(0xe5, 0x461bcd)\n      dup2\n      mstore\n      0x04\n      add\n      tag_218\n      swap1\n      tag_287\n      jump\t// in\n    tag_309:\n        /* \"Bloc.sol\":4120:4132  currentRound */\n      sload(0x04)\n        /* \"Bloc.sol\":4079:4106  MusicBloc.Seed storage seed */\n      0x00\n        /* \"Bloc.sol\":4109:4133  roundSeeds[currentRound] */\n      swap1\n      dup2\n      mstore\n        /* \"Bloc.sol\":4109:4119  roundSeeds */\n      0x08\n        /* \"Bloc.sol\":4109:4133  roundSeeds[currentRound] */\n      0x20\n      swap1\n      dup2\n      mstore\n      0x40\n      dup1\n      dup4\n      keccak256\n        /* \"Bloc.sol\":4109:4142  roundSeeds[currentRound][_seedId] */\n      dup11\n      dup5\n      mstore\n      swap1\n      swap2\n      mstore\n      dup2\n      keccak256\n        /* \"Bloc.sol\":4161:4168  seed.id */\n      dup1\n      sload\n        /* \"Bloc.sol\":4109:4142  roundSeeds[currentRound][_seedId] */\n      swap1\n      swap2\n        /* \"Bloc.sol\":4161:4173  seed.id != 0 */\n      sub\n        /* \"Bloc.sol\":4153:4192  require(seed.id != 0, \"Seed not found\") */\n      tag_311\n      jumpi\n      mload(0x40)\n      shl(0xe5, 0x461bcd)\n      dup2\n      mstore\n        /* \"#utility.yul\":15263:15265   */\n      0x20\n        /* \"Bloc.sol\":4153:4192  require(seed.id != 0, \"Seed not found\") */\n      0x04\n      dup3\n      add\n        /* \"#utility.yul\":15245:15266   */\n      mstore\n        /* \"#utility.yul\":15302:15304   */\n      0x0e\n        /* \"#utility.yul\":15282:15300   */\n      0x24\n      dup3\n      add\n        /* \"#utility.yul\":15275:15305   */\n      mstore\n      shl(0x92, 0x14d95959081b9bdd08199bdd5b99)\n        /* \"#utility.yul\":15321:15339   */\n      0x44\n      dup3\n      add\n        /* \"#utility.yul\":15314:15358   */\n      mstore\n        /* \"#utility.yul\":15375:15393   */\n      0x64\n      add\n        /* \"Bloc.sol\":4153:4192  require(seed.id != 0, \"Seed not found\") */\n      tag_218\n        /* \"#utility.yul\":15061:15399   */\n      jump\n        /* \"Bloc.sol\":4153:4192  require(seed.id != 0, \"Seed not found\") */\n    tag_311:\n        /* \"Bloc.sol\":4225:4235  seed.boxID */\n      0x03\n      dup2\n      add\n      sload\n        /* \"Bloc.sol\":4211:4221  seedBox.id */\n      dup3\n      sload\n        /* \"Bloc.sol\":4211:4235  seedBox.id == seed.boxID */\n      eq\n        /* \"Bloc.sol\":4203:4256  require(seedBox.id == seed.boxID, \"Invalid seed box\") */\n      tag_313\n      jumpi\n      mload(0x40)\n      shl(0xe5, 0x461bcd)\n      dup2\n      mstore\n        /* \"#utility.yul\":19041:19043   */\n      0x20\n        /* \"Bloc.sol\":4203:4256  require(seedBox.id == seed.boxID, \"Invalid seed box\") */\n      0x04\n      dup3\n      add\n        /* \"#utility.yul\":19023:19044   */\n      mstore\n        /* \"#utility.yul\":19080:19082   */\n      0x10\n        /* \"#utility.yul\":19060:19078   */\n      0x24\n      dup3\n      add\n        /* \"#utility.yul\":19053:19083   */\n      mstore\n      shl(0x83, 0x092dcecc2d8d2c840e6cacac840c4def)\n        /* \"#utility.yul\":19099:19117   */\n      0x44\n      dup3\n      add\n        /* \"#utility.yul\":19092:19138   */\n      mstore\n        /* \"#utility.yul\":19155:19173   */\n      0x64\n      add\n        /* \"Bloc.sol\":4203:4256  require(seedBox.id == seed.boxID, \"Invalid seed box\") */\n      tag_218\n        /* \"#utility.yul\":18839:19179   */\n      jump\n        /* \"Bloc.sol\":4203:4256  require(seedBox.id == seed.boxID, \"Invalid seed box\") */\n    tag_313:\n        /* \"Bloc.sol\":4320:4329  seed.seed */\n      0x01\n      dup2\n      add\n        /* \"Bloc.sol\":4320:4337  seed.seed = _seed */\n      tag_316\n        /* \"Bloc.sol\":4332:4337  _seed */\n      dup9\n        /* \"Bloc.sol\":4320:4329  seed.seed */\n      dup3\n        /* \"Bloc.sol\":4320:4337  seed.seed = _seed */\n      tag_296\n      jump\t// in\n    tag_316:\n      pop\n        /* \"Bloc.sol\":4347:4357  seed.state */\n      0x02\n      add\n        /* \"Bloc.sol\":4347:4384  seed.state = MusicBloc.State.Complete */\n      dup1\n      sload\n      not(0xff00)\n      and\n      0x0100\n      or\n      swap1\n      sstore\n      pop\n      pop\n      pop\n      pop\n      pop\n      pop\n      pop\n      pop\n        /* \"Bloc.sol\":3701:4391  function completeSeed(... */\n      jump\t// out\n        /* \"Bloc.sol\":2123:2572  function createSeedBox(... */\n    tag_120:\n        /* \"Bloc.sol\":2273:2280  uint256 */\n      0x00\n        /* \"@openzeppelin/contracts/access/Ownable.sol\":1531:1544  _checkOwner() */\n      tag_320\n        /* \"@openzeppelin/contracts/access/Ownable.sol\":1531:1542  _checkOwner */\n      tag_212\n        /* \"@openzeppelin/contracts/access/Ownable.sol\":1531:1544  _checkOwner() */\n      jump\t// in\n    tag_320:\n        /* \"Bloc.sol\":2292:2309  uint256 seedBoxId */\n      0x00\n        /* \"Bloc.sol\":2314:2327  lastSeedBoxId */\n      0x02\n      0x00\n        /* \"Bloc.sol\":2312:2327  ++lastSeedBoxId */\n      dup2\n      sload\n      tag_322\n      swap1\n      tag_209\n      jump\t// in\n    tag_322:\n      swap2\n      dup3\n      swap1\n      sstore\n      pop\n        /* \"Bloc.sol\":2337:2363  SeedBox storage newSeedBox */\n      0x00\n        /* \"Bloc.sol\":2366:2386  seedBoxes[seedBoxId] */\n      dup2\n      dup2\n      mstore\n        /* \"Bloc.sol\":2366:2375  seedBoxes */\n      0x07\n        /* \"Bloc.sol\":2366:2386  seedBoxes[seedBoxId] */\n      0x20\n      mstore\n      0x40\n      swap1\n      keccak256\n        /* \"Bloc.sol\":2396:2421  newSeedBox.id = seedBoxId */\n      dup2\n      dup2\n      sstore\n        /* \"Bloc.sol\":2312:2327  ++lastSeedBoxId */\n      swap1\n      swap2\n      pop\n        /* \"Bloc.sol\":2431:2445  newSeedBox.cid */\n      0x01\n      dup2\n      add\n        /* \"Bloc.sol\":2431:2452  newSeedBox.cid = _cid */\n      tag_323\n        /* \"Bloc.sol\":2448:2452  _cid */\n      dup8\n        /* \"Bloc.sol\":2431:2445  newSeedBox.cid */\n      dup3\n        /* \"Bloc.sol\":2431:2452  newSeedBox.cid = _cid */\n      tag_296\n      jump\t// in\n    tag_323:\n      pop\n        /* \"Bloc.sol\":2462:2501  newSeedBox.contributors = _contributors */\n      dup5\n      mload\n      tag_324\n      swap1\n        /* \"Bloc.sol\":2462:2485  newSeedBox.contributors */\n      0x03\n      dup4\n      add\n      swap1\n        /* \"Bloc.sol\":2462:2501  newSeedBox.contributors = _contributors */\n      0x20\n      dup9\n      add\n      swap1\n      tag_325\n      jump\t// in\n    tag_324:\n      pop\n        /* \"Bloc.sol\":2511:2529  newSeedBox.creator */\n      0x04\n      add\n        /* \"Bloc.sol\":2511:2539  newSeedBox.creator = creator */\n      dup1\n      sload\n      sub(shl(0xa0, 0x01), 0x01)\n      dup6\n      and\n      not(sub(shl(0xa0, 0x01), 0x01))\n      swap1\n      swap2\n      and\n      or\n      swap1\n      sstore\n        /* \"Bloc.sol\":2556:2565  seedBoxId */\n      swap1\n      pop\n        /* \"Bloc.sol\":2123:2572  function createSeedBox(... */\n      swap4\n      swap3\n      pop\n      pop\n      pop\n      jump\t// out\n        /* \"Bloc.sol\":2578:3695  function plantSeed(... */\n    tag_125:\n        /* \"Bloc.sol\":2760:2767  bytes32 */\n      0x00\n        /* \"Bloc.sol\":2769:2776  uint256 */\n      dup1\n        /* \"@openzeppelin/contracts/access/Ownable.sol\":1531:1544  _checkOwner() */\n      tag_327\n        /* \"@openzeppelin/contracts/access/Ownable.sol\":1531:1542  _checkOwner */\n      tag_212\n        /* \"@openzeppelin/contracts/access/Ownable.sol\":1531:1544  _checkOwner() */\n      jump\t// in\n    tag_327:\n        /* \"Bloc.sol\":1605:1628  SeedBox storage seedBox */\n      0x00\n        /* \"Bloc.sol\":1631:1652  seedBoxes[_seedBoxId] */\n      dup5\n      dup2\n      mstore\n        /* \"Bloc.sol\":1631:1640  seedBoxes */\n      0x07\n        /* \"Bloc.sol\":1631:1652  seedBoxes[_seedBoxId] */\n      0x20\n      swap1\n      dup2\n      mstore\n      0x40\n      swap2\n      dup3\n      swap1\n      keccak256\n        /* \"Bloc.sol\":1707:1727  seedBox.contributors */\n      0x03\n      dup2\n      add\n        /* \"Bloc.sol\":1683:1737  MusicBloc.isContributor(seedBox.contributors, _sender) */\n      dup1\n      sload\n      dup5\n      mload\n      dup2\n      dup6\n      mul\n      dup2\n      add\n      dup6\n      add\n      swap1\n      swap6\n      mstore\n      dup1\n      dup6\n      mstore\n        /* \"Bloc.sol\":2723:2729  sender */\n      dup8\n      swap5\n        /* \"Bloc.sol\":2731:2741  _seedBoxId */\n      dup10\n      swap5\n        /* \"Bloc.sol\":1683:1737  MusicBloc.isContributor(seedBox.contributors, _sender) */\n      tag_329\n      swap4\n      swap2\n      swap3\n      swap1\n      dup4\n      add\n        /* \"Bloc.sol\":1707:1727  seedBox.contributors */\n      dup3\n        /* \"Bloc.sol\":1683:1737  MusicBloc.isContributor(seedBox.contributors, _sender) */\n      dup3\n      dup1\n      iszero\n      tag_277\n      jumpi\n      0x20\n      mul\n      dup3\n      add\n      swap2\n      swap1\n      0x00\n      mstore\n      keccak256(0x00, 0x20)\n      swap1\n      dup2\n      sload\n      sub(shl(0xa0, 0x01), 0x01)\n      and\n      dup2\n      mstore\n      0x01\n      swap1\n      swap2\n      add\n      swap1\n      0x20\n      add\n      dup1\n      dup4\n      gt\n      tag_278\n      jumpi\n      pop\n      pop\n      pop\n      pop\n      pop\n        /* \"Bloc.sol\":1729:1736  _sender */\n      dup5\n        /* \"Bloc.sol\":1683:1706  MusicBloc.isContributor */\n      tag_279\n        /* \"Bloc.sol\":1683:1737  MusicBloc.isContributor(seedBox.contributors, _sender) */\n      jump\t// in\n    tag_329:\n        /* \"Bloc.sol\":1683:1783  MusicBloc.isContributor(seedBox.contributors, _sender) ||... */\n      dup1\n      tag_332\n      jumpi\n      pop\n        /* \"Bloc.sol\":1768:1783  seedBox.creator */\n      0x04\n      dup2\n      add\n      sload\n      sub(shl(0xa0, 0x01), 0x01)\n        /* \"Bloc.sol\":1757:1783  _sender == seedBox.creator */\n      dup5\n      dup2\n      and\n        /* \"Bloc.sol\":1768:1783  seedBox.creator */\n      swap2\n      and\n        /* \"Bloc.sol\":1757:1783  _sender == seedBox.creator */\n      eq\n        /* \"Bloc.sol\":1683:1783  MusicBloc.isContributor(seedBox.contributors, _sender) ||... */\n    tag_332:\n        /* \"Bloc.sol\":1662:1838  require(... */\n      tag_333\n      jumpi\n      mload(0x40)\n      shl(0xe5, 0x461bcd)\n      dup2\n      mstore\n      0x04\n      add\n      tag_218\n      swap1\n      tag_283\n      jump\t// in\n    tag_333:\n        /* \"Bloc.sol\":2800:2808  released */\n      and(0xff, sload(0x06))\n        /* \"Bloc.sol\":2800:2817  released == false */\n      iszero\n        /* \"Bloc.sol\":2792:2838  require(released == false, \"Bloc is finished\") */\n      tag_336\n      jumpi\n      mload(0x40)\n      shl(0xe5, 0x461bcd)\n      dup2\n      mstore\n      0x04\n      add\n      tag_218\n      swap1\n      tag_219\n      jump\t// in\n    tag_336:\n        /* \"Bloc.sol\":2848:2871  SeedBox storage seedBox */\n      0x00\n        /* \"Bloc.sol\":2874:2895  seedBoxes[_seedBoxId] */\n      dup8\n      dup2\n      mstore\n        /* \"Bloc.sol\":2874:2883  seedBoxes */\n      0x07\n        /* \"Bloc.sol\":2874:2895  seedBoxes[_seedBoxId] */\n      0x20\n      mstore\n      0x40\n      dup2\n      keccak256\n        /* \"Bloc.sol\":2913:2923  seedBox.id */\n      dup1\n      sload\n        /* \"Bloc.sol\":2874:2895  seedBoxes[_seedBoxId] */\n      swap1\n      swap2\n        /* \"Bloc.sol\":2913:2928  seedBox.id != 0 */\n      sub\n        /* \"Bloc.sol\":2905:2951  require(seedBox.id != 0, \"Seed box not found\") */\n      tag_338\n      jumpi\n      mload(0x40)\n      shl(0xe5, 0x461bcd)\n      dup2\n      mstore\n      0x04\n      add\n      tag_218\n      swap1\n      tag_287\n      jump\t// in\n    tag_338:\n        /* \"Bloc.sol\":2961:2975  bytes32 seedId */\n      0x00\n        /* \"Bloc.sol\":3005:3017  currentRound */\n      sload(0x04)\n        /* \"Bloc.sol\":3019:3029  _seedBoxId */\n      dup10\n        /* \"Bloc.sol\":2988:3030  abi.encodePacked(currentRound, _seedBoxId) */\n      add(0x20, mload(0x40))\n      tag_340\n      swap3\n      swap2\n      swap1\n        /* \"#utility.yul\":19341:19360   */\n      swap2\n      dup3\n      mstore\n        /* \"#utility.yul\":19385:19387   */\n      0x20\n        /* \"#utility.yul\":19376:19388   */\n      dup3\n      add\n        /* \"#utility.yul\":19369:19397   */\n      mstore\n        /* \"#utility.yul\":19422:19424   */\n      0x40\n        /* \"#utility.yul\":19413:19425   */\n      add\n      swap1\n        /* \"#utility.yul\":19184:19431   */\n      jump\n        /* \"Bloc.sol\":2988:3030  abi.encodePacked(currentRound, _seedBoxId) */\n    tag_340:\n      0x40\n      dup1\n      mload\n      not(0x1f)\n      dup2\n      dup5\n      sub\n      add\n      dup2\n      mstore\n      swap2\n      dup2\n      mstore\n        /* \"Bloc.sol\":2978:3031  keccak256(abi.encodePacked(currentRound, _seedBoxId)) */\n      dup2\n      mload\n        /* \"Bloc.sol\":2988:3030  abi.encodePacked(currentRound, _seedBoxId) */\n      0x20\n        /* \"Bloc.sol\":2978:3031  keccak256(abi.encodePacked(currentRound, _seedBoxId)) */\n      swap3\n      dup4\n      add\n      keccak256\n        /* \"Bloc.sol\":3074:3086  currentRound */\n      sload(0x04)\n        /* \"Bloc.sol\":3063:3087  roundSeeds[currentRound] */\n      0x00\n      swap1\n      dup2\n      mstore\n        /* \"Bloc.sol\":3063:3073  roundSeeds */\n      0x08\n        /* \"Bloc.sol\":3063:3087  roundSeeds[currentRound] */\n      dup5\n      mstore\n      dup3\n      dup2\n      keccak256\n        /* \"Bloc.sol\":3063:3095  roundSeeds[currentRound][seedId] */\n      dup3\n      dup3\n      mstore\n      swap1\n      swap4\n      mstore\n      swap2\n      keccak256\n        /* \"Bloc.sol\":3063:3098  roundSeeds[currentRound][seedId].id */\n      sload\n        /* \"Bloc.sol\":2978:3031  keccak256(abi.encodePacked(currentRound, _seedBoxId)) */\n      swap1\n      swap2\n      pop\n        /* \"Bloc.sol\":3063:3103  roundSeeds[currentRound][seedId].id == 0 */\n      iszero\n        /* \"Bloc.sol\":3063:3124  roundSeeds[currentRound][seedId].id == 0 && seedId.length > 0 */\n      dup1\n      iszero\n      tag_342\n      jumpi\n      pop\n        /* \"Bloc.sol\":3107:3124  seedId.length > 0 */\n      0x01\n        /* \"Bloc.sol\":3063:3124  roundSeeds[currentRound][seedId].id == 0 && seedId.length > 0 */\n    tag_342:\n        /* \"Bloc.sol\":3042:3196  require(... */\n      tag_343\n      jumpi\n      mload(0x40)\n      shl(0xe5, 0x461bcd)\n      dup2\n      mstore\n        /* \"#utility.yul\":19638:19640   */\n      0x20\n        /* \"Bloc.sol\":3042:3196  require(... */\n      0x04\n      dup3\n      add\n        /* \"#utility.yul\":19620:19641   */\n      mstore\n        /* \"#utility.yul\":19677:19679   */\n      0x2e\n        /* \"#utility.yul\":19657:19675   */\n      0x24\n      dup3\n      add\n        /* \"#utility.yul\":19650:19680   */\n      mstore\n        /* \"#utility.yul\":19716:19750   */\n      0x5365656420696e76616c6964206f7220616c726561647920706c616e74656420\n        /* \"#utility.yul\":19696:19714   */\n      0x44\n      dup3\n      add\n        /* \"#utility.yul\":19689:19751   */\n      mstore\n      shl(0x92, 0x199bdc881d1a1a5cc81c9bdd5b99)\n        /* \"#utility.yul\":19767:19785   */\n      0x64\n      dup3\n      add\n        /* \"#utility.yul\":19760:19804   */\n      mstore\n        /* \"#utility.yul\":19821:19840   */\n      0x84\n      add\n        /* \"Bloc.sol\":3042:3196  require(... */\n      tag_218\n        /* \"#utility.yul\":19436:19846   */\n      jump\n        /* \"Bloc.sol\":3042:3196  require(... */\n    tag_343:\n        /* \"Bloc.sol\":3251:3263  currentRound */\n      sload(0x04)\n        /* \"Bloc.sol\":3207:3237  MusicBloc.Seed storage newSeed */\n      0x00\n        /* \"Bloc.sol\":3240:3264  roundSeeds[currentRound] */\n      swap1\n      dup2\n      mstore\n        /* \"Bloc.sol\":3240:3250  roundSeeds */\n      0x08\n        /* \"Bloc.sol\":3240:3264  roundSeeds[currentRound] */\n      0x20\n      swap1\n      dup2\n      mstore\n      0x40\n      dup1\n      dup4\n      keccak256\n        /* \"Bloc.sol\":3240:3272  roundSeeds[currentRound][seedId] */\n      dup5\n      dup5\n      mstore\n      dup3\n      mstore\n      dup1\n      dup4\n      keccak256\n        /* \"Bloc.sol\":3282:3301  newSeed.id = seedId */\n      dup5\n      dup2\n      sstore\n        /* \"Bloc.sol\":3311:3324  newSeed.state */\n      0x02\n      dup2\n      add\n        /* \"Bloc.sol\":3311:3349  newSeed.state = MusicBloc.State.Active */\n      dup1\n      sload\n      not(0xff00)\n      and\n      swap1\n      sstore\n        /* \"Bloc.sol\":3360:3373  newSeed.boxID */\n      0x03\n      dup2\n      add\n        /* \"Bloc.sol\":3360:3386  newSeed.boxID = _seedBoxId */\n      dup14\n      swap1\n      sstore\n        /* \"Bloc.sol\":3396:3413  newSeed.seed = \"\" */\n      dup2\n      mload\n      swap3\n      dup4\n      add\n      swap1\n      swap2\n      mstore\n      swap2\n      dup2\n      mstore\n      0x01\n        /* \"Bloc.sol\":3396:3408  newSeed.seed */\n      dup3\n      add\n      swap1\n        /* \"Bloc.sol\":3396:3413  newSeed.seed = \"\" */\n      tag_348\n      swap1\n        /* \"Bloc.sol\":3396:3408  newSeed.seed */\n      dup3\n        /* \"Bloc.sol\":3396:3413  newSeed.seed = \"\" */\n      tag_296\n      jump\t// in\n    tag_348:\n      pop\n        /* \"Bloc.sol\":3423:3437  newSeed.merged */\n      0x02\n      dup1\n      dup3\n      add\n        /* \"Bloc.sol\":3423:3445  newSeed.merged = false */\n      dup1\n      sload\n      not(0xff)\n      and\n      swap1\n      sstore\n        /* \"Bloc.sol\":3477:3489  currentRound */\n      sload(0x04)\n        /* \"Bloc.sol\":3440:3445  false */\n      0x00\n        /* \"Bloc.sol\":3456:3490  seedBox.seedsByRound[currentRound] */\n      swap1\n      dup2\n      mstore\n        /* \"Bloc.sol\":3456:3476  seedBox.seedsByRound */\n      0x05\n      dup6\n      add\n        /* \"Bloc.sol\":3456:3490  seedBox.seedsByRound[currentRound] */\n      0x20\n      swap1\n      dup2\n      mstore\n      0x40\n      dup1\n      dup4\n      keccak256\n        /* \"Bloc.sol\":3456:3503  seedBox.seedsByRound[currentRound].push(seedId) */\n      dup1\n      sload\n        /* \"Bloc.sol\":3423:3445  newSeed.merged = false */\n      0x01\n        /* \"Bloc.sol\":3456:3503  seedBox.seedsByRound[currentRound].push(seedId) */\n      dup2\n      add\n      dup3\n      sstore\n      swap1\n      dup5\n      mstore\n      swap3\n      dup3\n      swap1\n      keccak256\n      swap1\n      swap3\n      add\n      dup6\n      swap1\n      sstore\n        /* \"Bloc.sol\":3537:3563  seedBox.participatedRounds */\n      swap2\n      dup6\n      add\n        /* \"Bloc.sol\":3518:3578  MusicBloc.contains(seedBox.participatedRounds, currentRound) */\n      dup1\n      sload\n      dup3\n      mload\n      dup2\n      dup6\n      mul\n      dup2\n      add\n      dup6\n      add\n      swap1\n      swap4\n      mstore\n      dup1\n      dup4\n      mstore\n      tag_350\n      swap4\n      dup4\n      add\n        /* \"Bloc.sol\":3537:3563  seedBox.participatedRounds */\n      dup3\n        /* \"Bloc.sol\":3518:3578  MusicBloc.contains(seedBox.participatedRounds, currentRound) */\n      dup3\n      dup1\n      iszero\n      tag_351\n      jumpi\n      0x20\n      mul\n      dup3\n      add\n      swap2\n      swap1\n      0x00\n      mstore\n      keccak256(0x00, 0x20)\n      swap1\n    tag_352:\n      dup2\n      sload\n      dup2\n      mstore\n      0x20\n      add\n      swap1\n      0x01\n      add\n      swap1\n      dup1\n      dup4\n      gt\n      tag_352\n      jumpi\n    tag_351:\n      pop\n      pop\n      pop\n      pop\n      pop\n        /* \"Bloc.sol\":3565:3577  currentRound */\n      sload(0x04)\n        /* \"Bloc.sol\":3518:3536  MusicBloc.contains */\n      tag_353\n        /* \"Bloc.sol\":3518:3578  MusicBloc.contains(seedBox.participatedRounds, currentRound) */\n      jump\t// in\n    tag_350:\n        /* \"Bloc.sol\":3513:3650  if (!MusicBloc.contains(seedBox.participatedRounds, currentRound)) {... */\n      tag_354\n      jumpi\n        /* \"Bloc.sol\":3626:3638  currentRound */\n      sload(0x04)\n        /* \"Bloc.sol\":3594:3620  seedBox.participatedRounds */\n      0x02\n      dup5\n      add\n        /* \"Bloc.sol\":3594:3639  seedBox.participatedRounds.push(currentRound) */\n      dup1\n      sload\n      0x01\n      dup2\n      add\n      dup3\n      sstore\n      0x00\n      swap2\n      dup3\n      mstore\n      0x20\n      swap1\n      swap2\n      keccak256\n      add\n      sstore\n        /* \"Bloc.sol\":3513:3650  if (!MusicBloc.contains(seedBox.participatedRounds, currentRound)) {... */\n    tag_354:\n      pop\n        /* \"Bloc.sol\":3675:3687  currentRound */\n      sload(0x04)\n        /* \"Bloc.sol\":3667:3673  seedId */\n      swap1\n      swap10\n        /* \"Bloc.sol\":3675:3687  currentRound */\n      swap1\n      swap9\n      pop\n        /* \"Bloc.sol\":2578:3695  function plantSeed(... */\n      swap7\n      pop\n      pop\n      pop\n      pop\n      pop\n      pop\n      pop\n      jump\t// out\n        /* \"Bloc.sol\":1247:1291  mapping(uint256 => SeedBox) public seedBoxes */\n    tag_130:\n      mstore(0x20, 0x07)\n      0x00\n      swap1\n      dup2\n      mstore\n      0x40\n      swap1\n      keccak256\n      dup1\n      sload\n      0x01\n      dup3\n      add\n      dup1\n      sload\n      swap2\n      swap3\n      swap2\n      tag_356\n      swap1\n      tag_151\n      jump\t// in\n    tag_356:\n      dup1\n      0x1f\n      add\n      0x20\n      dup1\n      swap2\n      div\n      mul\n      0x20\n      add\n      mload(0x40)\n      swap1\n      dup2\n      add\n      0x40\n      mstore\n      dup1\n      swap3\n      swap2\n      swap1\n      dup2\n      dup2\n      mstore\n      0x20\n      add\n      dup3\n      dup1\n      sload\n      tag_357\n      swap1\n      tag_151\n      jump\t// in\n    tag_357:\n      dup1\n      iszero\n      tag_358\n      jumpi\n      dup1\n      0x1f\n      lt\n      tag_359\n      jumpi\n      0x0100\n      dup1\n      dup4\n      sload\n      div\n      mul\n      dup4\n      mstore\n      swap2\n      0x20\n      add\n      swap2\n      jump(tag_358)\n    tag_359:\n      dup3\n      add\n      swap2\n      swap1\n      0x00\n      mstore\n      keccak256(0x00, 0x20)\n      swap1\n    tag_360:\n      dup2\n      sload\n      dup2\n      mstore\n      swap1\n      0x01\n      add\n      swap1\n      0x20\n      add\n      dup1\n      dup4\n      gt\n      tag_360\n      jumpi\n      dup3\n      swap1\n      sub\n      0x1f\n      and\n      dup3\n      add\n      swap2\n    tag_358:\n      pop\n      pop\n      pop\n      0x04\n      swap1\n      swap4\n      add\n      sload\n      swap2\n      swap3\n      pop\n      pop\n      sub(shl(0xa0, 0x01), 0x01)\n      and\n      dup4\n      jump\t// out\n        /* \"@openzeppelin/contracts/access/AccessControl.sol\":4642:4780  function revokeRole(bytes32 role, address account) public virtual onlyRole(getRoleAdmin(role)) {... */\n    tag_135:\n        /* \"@openzeppelin/contracts/access/AccessControl.sol\":3875:3882  bytes32 */\n      0x00\n        /* \"@openzeppelin/contracts/access/AccessControl.sol\":3901:3913  _roles[role] */\n      dup3\n      dup2\n      mstore\n        /* \"@openzeppelin/contracts/access/AccessControl.sol\":3901:3907  _roles */\n      0x01\n        /* \"@openzeppelin/contracts/access/AccessControl.sol\":3901:3913  _roles[role] */\n      0x20\n      dup2\n      swap1\n      mstore\n      0x40\n      swap1\n      swap2\n      keccak256\n        /* \"@openzeppelin/contracts/access/AccessControl.sol\":3901:3923  _roles[role].adminRole */\n      add\n      sload\n        /* \"@openzeppelin/contracts/access/AccessControl.sol\":2464:2480  _checkRole(role) */\n      tag_363\n        /* \"@openzeppelin/contracts/access/AccessControl.sol\":2475:2479  role */\n      dup2\n        /* \"@openzeppelin/contracts/access/AccessControl.sol\":2464:2474  _checkRole */\n      tag_231\n        /* \"@openzeppelin/contracts/access/AccessControl.sol\":2464:2480  _checkRole(role) */\n      jump\t// in\n    tag_363:\n        /* \"@openzeppelin/contracts/access/AccessControl.sol\":4747:4773  _revokeRole(role, account) */\n      tag_233\n        /* \"@openzeppelin/contracts/access/AccessControl.sol\":4759:4763  role */\n      dup4\n        /* \"@openzeppelin/contracts/access/AccessControl.sol\":4765:4772  account */\n      dup4\n        /* \"@openzeppelin/contracts/access/AccessControl.sol\":4747:4758  _revokeRole */\n      tag_240\n        /* \"@openzeppelin/contracts/access/AccessControl.sol\":4747:4773  _revokeRole(role, account) */\n      jump\t// in\n        /* \"Bloc.sol\":1375:1417  mapping(uint256 => Status) public statuses */\n    tag_138:\n      mstore(0x20, 0x09)\n      0x00\n      swap1\n      dup2\n      mstore\n      0x40\n      swap1\n      keccak256\n      dup1\n      sload\n      0x01\n      dup3\n      add\n      sload\n      0x02\n      dup4\n      add\n      dup1\n      sload\n      swap3\n      swap4\n      swap2\n      swap3\n      tag_366\n      swap1\n      tag_151\n      jump\t// in\n    tag_366:\n      dup1\n      0x1f\n      add\n      0x20\n      dup1\n      swap2\n      div\n      mul\n      0x20\n      add\n      mload(0x40)\n      swap1\n      dup2\n      add\n      0x40\n      mstore\n      dup1\n      swap3\n      swap2\n      swap1\n      dup2\n      dup2\n      mstore\n      0x20\n      add\n      dup3\n      dup1\n      sload\n      tag_367\n      swap1\n      tag_151\n      jump\t// in\n    tag_367:\n      dup1\n      iszero\n      tag_368\n      jumpi\n      dup1\n      0x1f\n      lt\n      tag_369\n      jumpi\n      0x0100\n      dup1\n      dup4\n      sload\n      div\n      mul\n      dup4\n      mstore\n      swap2\n      0x20\n      add\n      swap2\n      jump(tag_368)\n    tag_369:\n      dup3\n      add\n      swap2\n      swap1\n      0x00\n      mstore\n      keccak256(0x00, 0x20)\n      swap1\n    tag_370:\n      dup2\n      sload\n      dup2\n      mstore\n      swap1\n      0x01\n      add\n      swap1\n      0x20\n      add\n      dup1\n      dup4\n      gt\n      tag_370\n      jumpi\n      dup3\n      swap1\n      sub\n      0x1f\n      and\n      dup3\n      add\n      swap2\n    tag_368:\n      pop\n      pop\n      pop\n      0x03\n      swap1\n      swap4\n      add\n      sload\n      swap2\n      swap3\n      pop\n      pop\n      sub(shl(0xa0, 0x01), 0x01)\n      and\n      dup5\n      jump\t// out\n        /* \"@openzeppelin/contracts/access/Ownable.sol\":2543:2758  function transferOwnership(address newOwner) public virtual onlyOwner {... */\n    tag_144:\n        /* \"@openzeppelin/contracts/access/Ownable.sol\":1531:1544  _checkOwner() */\n      tag_372\n        /* \"@openzeppelin/contracts/access/Ownable.sol\":1531:1542  _checkOwner */\n      tag_212\n        /* \"@openzeppelin/contracts/access/Ownable.sol\":1531:1544  _checkOwner() */\n      jump\t// in\n    tag_372:\n      sub(shl(0xa0, 0x01), 0x01)\n        /* \"@openzeppelin/contracts/access/Ownable.sol\":2627:2649  newOwner == address(0) */\n      dup2\n      and\n        /* \"@openzeppelin/contracts/access/Ownable.sol\":2623:2714  if (newOwner == address(0)) {... */\n      tag_374\n      jumpi\n        /* \"@openzeppelin/contracts/access/Ownable.sol\":2672:2703  OwnableInvalidOwner(address(0)) */\n      mload(0x40)\n      shl(0xe0, 0x1e4fbdf7)\n      dup2\n      mstore\n        /* \"@openzeppelin/contracts/access/Ownable.sol\":2700:2701  0 */\n      0x00\n        /* \"@openzeppelin/contracts/access/Ownable.sol\":2672:2703  OwnableInvalidOwner(address(0)) */\n      0x04\n      dup3\n      add\n        /* \"#utility.yul\":9042:9093   */\n      mstore\n        /* \"#utility.yul\":9015:9033   */\n      0x24\n      add\n        /* \"@openzeppelin/contracts/access/Ownable.sol\":2672:2703  OwnableInvalidOwner(address(0)) */\n      tag_218\n        /* \"#utility.yul\":8896:9099   */\n      jump\n        /* \"@openzeppelin/contracts/access/Ownable.sol\":2623:2714  if (newOwner == address(0)) {... */\n    tag_374:\n        /* \"@openzeppelin/contracts/access/Ownable.sol\":2723:2751  _transferOwnership(newOwner) */\n      tag_376\n        /* \"@openzeppelin/contracts/access/Ownable.sol\":2742:2750  newOwner */\n      dup2\n        /* \"@openzeppelin/contracts/access/Ownable.sol\":2723:2741  _transferOwnership */\n      tag_245\n        /* \"@openzeppelin/contracts/access/Ownable.sol\":2723:2751  _transferOwnership(newOwner) */\n      jump\t// in\n    tag_376:\n        /* \"@openzeppelin/contracts/access/Ownable.sol\":2543:2758  function transferOwnership(address newOwner) public virtual onlyOwner {... */\n      pop\n      jump\t// out\n        /* \"library/MusicBloc.sol\":890:1251  function appendSeed(... */\n    tag_207:\n        /* \"library/MusicBloc.sol\":997:1010  Seed[] memory */\n      0x60\n        /* \"library/MusicBloc.sol\":1022:1044  Seed[] memory newSeeds */\n      0x00\n        /* \"library/MusicBloc.sol\":1058:1063  seeds */\n      dup4\n        /* \"library/MusicBloc.sol\":1058:1070  seeds.length */\n      mload\n        /* \"library/MusicBloc.sol\":1073:1074  1 */\n      0x01\n        /* \"library/MusicBloc.sol\":1058:1074  seeds.length + 1 */\n      tag_379\n      swap2\n      swap1\n      tag_380\n      jump\t// in\n    tag_379:\n        /* \"library/MusicBloc.sol\":1047:1075  new Seed[](seeds.length + 1) */\n      0xffffffffffffffff\n      dup2\n      gt\n      iszero\n      tag_382\n      jumpi\n      tag_382\n      tag_159\n      jump\t// in\n    tag_382:\n      mload(0x40)\n      swap1\n      dup1\n      dup3\n      mstore\n      dup1\n      0x20\n      mul\n      0x20\n      add\n      dup3\n      add\n      0x40\n      mstore\n      dup1\n      iszero\n      tag_383\n      jumpi\n      dup2\n      0x20\n      add\n    tag_384:\n      0x40\n      dup1\n      mload\n      0xa0\n      dup2\n      add\n      dup3\n      mstore\n      0x00\n      dup1\n      dup3\n      mstore\n      0x60\n      0x20\n      dup1\n      dup5\n      add\n      dup3\n      swap1\n      mstore\n      swap4\n      dup4\n      add\n      dup3\n      swap1\n      mstore\n      dup3\n      add\n      dup2\n      swap1\n      mstore\n      0x80\n      dup3\n      add\n      mstore\n      dup3\n      mstore\n      not(0x00)\n      swap1\n      swap3\n      add\n      swap2\n      add\n      dup2\n      tag_384\n      jumpi\n      swap1\n      pop\n    tag_383:\n      pop\n        /* \"library/MusicBloc.sol\":1022:1075  Seed[] memory newSeeds = new Seed[](seeds.length + 1) */\n      swap1\n      pop\n        /* \"library/MusicBloc.sol\":1091:1100  uint256 i */\n      0x00\n        /* \"library/MusicBloc.sol\":1086:1176  for (uint256 i = 0; i < seeds.length; i++) {... */\n    tag_387:\n        /* \"library/MusicBloc.sol\":1110:1115  seeds */\n      dup5\n        /* \"library/MusicBloc.sol\":1110:1122  seeds.length */\n      mload\n        /* \"library/MusicBloc.sol\":1106:1107  i */\n      dup2\n        /* \"library/MusicBloc.sol\":1106:1122  i < seeds.length */\n      lt\n        /* \"library/MusicBloc.sol\":1086:1176  for (uint256 i = 0; i < seeds.length; i++) {... */\n      iszero\n      tag_388\n      jumpi\n        /* \"library/MusicBloc.sol\":1157:1162  seeds */\n      dup5\n        /* \"library/MusicBloc.sol\":1163:1164  i */\n      dup2\n        /* \"library/MusicBloc.sol\":1157:1165  seeds[i] */\n      dup2\n      mload\n      dup2\n      lt\n      tag_391\n      jumpi\n      tag_391\n      tag_169\n      jump\t// in\n    tag_391:\n      0x20\n      mul\n      0x20\n      add\n      add\n      mload\n        /* \"library/MusicBloc.sol\":1143:1151  newSeeds */\n      dup3\n        /* \"library/MusicBloc.sol\":1152:1153  i */\n      dup3\n        /* \"library/MusicBloc.sol\":1143:1154  newSeeds[i] */\n      dup2\n      mload\n      dup2\n      lt\n      tag_393\n      jumpi\n      tag_393\n      tag_169\n      jump\t// in\n    tag_393:\n      0x20\n      swap1\n      dup2\n      mul\n      swap2\n      swap1\n      swap2\n      add\n      add\n        /* \"library/MusicBloc.sol\":1143:1165  newSeeds[i] = seeds[i] */\n      mstore\n        /* \"library/MusicBloc.sol\":1124:1127  i++ */\n      0x01\n      add\n        /* \"library/MusicBloc.sol\":1086:1176  for (uint256 i = 0; i < seeds.length; i++) {... */\n      jump(tag_387)\n    tag_388:\n      pop\n        /* \"library/MusicBloc.sol\":1211:1218  newSeed */\n      dup3\n        /* \"library/MusicBloc.sol\":1186:1194  newSeeds */\n      dup2\n        /* \"library/MusicBloc.sol\":1195:1200  seeds */\n      dup6\n        /* \"library/MusicBloc.sol\":1195:1207  seeds.length */\n      mload\n        /* \"library/MusicBloc.sol\":1186:1208  newSeeds[seeds.length] */\n      dup2\n      mload\n      dup2\n      lt\n      tag_395\n      jumpi\n      tag_395\n      tag_169\n      jump\t// in\n    tag_395:\n      0x20\n      swap1\n      dup2\n      mul\n      swap2\n      swap1\n      swap2\n      add\n      add\n        /* \"library/MusicBloc.sol\":1186:1218  newSeeds[seeds.length] = newSeed */\n      mstore\n        /* \"library/MusicBloc.sol\":1236:1244  newSeeds */\n      swap4\n        /* \"library/MusicBloc.sol\":890:1251  function appendSeed(... */\n      swap3\n      pop\n      pop\n      pop\n      jump\t// out\n        /* \"@openzeppelin/contracts/access/Ownable.sol\":1796:1958  function _checkOwner() internal view virtual {... */\n    tag_212:\n        /* \"@openzeppelin/contracts/access/Ownable.sol\":1684:1691  address */\n      0x00\n        /* \"@openzeppelin/contracts/access/Ownable.sol\":1710:1716  _owner */\n      sload\n      sub(shl(0xa0, 0x01), 0x01)\n      and\n        /* \"@openzeppelin/contracts/utils/Context.sol\":735:745  msg.sender */\n      caller\n        /* \"@openzeppelin/contracts/access/Ownable.sol\":1855:1878  owner() != _msgSender() */\n      eq\n        /* \"@openzeppelin/contracts/access/Ownable.sol\":1851:1952  if (owner() != _msgSender()) {... */\n      tag_244\n      jumpi\n        /* \"@openzeppelin/contracts/access/Ownable.sol\":1901:1941  OwnableUnauthorizedAccount(_msgSender()) */\n      mload(0x40)\n      shl(0xe0, 0x118cdaa7)\n      dup2\n      mstore\n        /* \"@openzeppelin/contracts/utils/Context.sol\":735:745  msg.sender */\n      caller\n        /* \"@openzeppelin/contracts/access/Ownable.sol\":1901:1941  OwnableUnauthorizedAccount(_msgSender()) */\n      0x04\n      dup3\n      add\n        /* \"#utility.yul\":9042:9093   */\n      mstore\n        /* \"#utility.yul\":9015:9033   */\n      0x24\n      add\n        /* \"@openzeppelin/contracts/access/Ownable.sol\":1901:1941  OwnableUnauthorizedAccount(_msgSender()) */\n      tag_218\n        /* \"#utility.yul\":8896:9099   */\n      jump\n        /* \"Bloc.sol\":8487:8612  function _checkOnlyBlocAdmin(address sender) internal view {... */\n    tag_215:\n        /* \"Bloc.sol\":8561:8581  _isBlocAdmin(sender) */\n      tag_403\n        /* \"Bloc.sol\":8574:8580  sender */\n      dup2\n        /* \"Bloc.sol\":8561:8573  _isBlocAdmin */\n      tag_404\n        /* \"Bloc.sol\":8561:8581  _isBlocAdmin(sender) */\n      jump\t// in\n    tag_403:\n        /* \"Bloc.sol\":8556:8605  if (!_isBlocAdmin(sender)) revert(\"UNAUTHORIZED\") */\n      tag_376\n      jumpi\n        /* \"Bloc.sol\":8583:8605  revert(\"UNAUTHORIZED\") */\n      mload(0x40)\n      shl(0xe5, 0x461bcd)\n      dup2\n      mstore\n        /* \"#utility.yul\":20183:20185   */\n      0x20\n        /* \"Bloc.sol\":8583:8605  revert(\"UNAUTHORIZED\") */\n      0x04\n      dup3\n      add\n        /* \"#utility.yul\":20165:20186   */\n      mstore\n        /* \"#utility.yul\":20222:20224   */\n      0x0c\n        /* \"#utility.yul\":20202:20220   */\n      0x24\n      dup3\n      add\n        /* \"#utility.yul\":20195:20225   */\n      mstore\n      shl(0xa2, 0x15539055551213d492569151)\n        /* \"#utility.yul\":20241:20259   */\n      0x44\n      dup3\n      add\n        /* \"#utility.yul\":20234:20276   */\n      mstore\n        /* \"#utility.yul\":20293:20311   */\n      0x64\n      add\n        /* \"Bloc.sol\":8583:8605  revert(\"UNAUTHORIZED\") */\n      tag_218\n        /* \"#utility.yul\":19981:20317   */\n      jump\n        /* \"@openzeppelin/contracts/access/AccessControl.sol\":3199:3302  function _checkRole(bytes32 role) internal view virtual {... */\n    tag_231:\n        /* \"@openzeppelin/contracts/access/AccessControl.sol\":3265:3295  _checkRole(role, _msgSender()) */\n      tag_376\n        /* \"@openzeppelin/contracts/access/AccessControl.sol\":3276:3280  role */\n      dup2\n        /* \"@openzeppelin/contracts/utils/Context.sol\":735:745  msg.sender */\n      caller\n        /* \"@openzeppelin/contracts/access/AccessControl.sol\":3265:3275  _checkRole */\n      tag_411\n        /* \"@openzeppelin/contracts/access/AccessControl.sol\":3265:3295  _checkRole(role, _msgSender()) */\n      jump\t// in\n        /* \"@openzeppelin/contracts/access/AccessControl.sol\":6179:6495  function _grantRole(bytes32 role, address account) internal virtual returns (bool) {... */\n    tag_234:\n        /* \"@openzeppelin/contracts/access/AccessControl.sol\":6256:6260  bool */\n      0x00\n        /* \"@openzeppelin/contracts/access/AccessControl.sol\":6277:6299  hasRole(role, account) */\n      tag_413\n        /* \"@openzeppelin/contracts/access/AccessControl.sol\":6285:6289  role */\n      dup4\n        /* \"@openzeppelin/contracts/access/AccessControl.sol\":6291:6298  account */\n      dup4\n        /* \"@openzeppelin/contracts/access/AccessControl.sol\":6277:6284  hasRole */\n      tag_91\n        /* \"@openzeppelin/contracts/access/AccessControl.sol\":6277:6299  hasRole(role, account) */\n      jump\t// in\n    tag_413:\n        /* \"@openzeppelin/contracts/access/AccessControl.sol\":6272:6489  if (!hasRole(role, account)) {... */\n      tag_414\n      jumpi\n        /* \"@openzeppelin/contracts/access/AccessControl.sol\":6315:6327  _roles[role] */\n      0x00\n      dup4\n      dup2\n      mstore\n        /* \"@openzeppelin/contracts/access/AccessControl.sol\":6347:6351  true */\n      0x01\n        /* \"@openzeppelin/contracts/access/AccessControl.sol\":6315:6327  _roles[role] */\n      0x20\n      dup2\n      dup2\n      mstore\n      0x40\n      dup1\n      dup5\n      keccak256\n      sub(shl(0xa0, 0x01), 0x01)\n        /* \"@openzeppelin/contracts/access/AccessControl.sol\":6315:6344  _roles[role].hasRole[account] */\n      dup8\n      and\n      dup1\n      dup7\n      mstore\n      swap3\n      mstore\n      dup1\n      dup5\n      keccak256\n        /* \"@openzeppelin/contracts/access/AccessControl.sol\":6315:6351  _roles[role].hasRole[account] = true */\n      dup1\n      sload\n      not(0xff)\n      and\n      swap1\n      swap4\n      or\n      swap1\n      swap3\n      sstore\n        /* \"@openzeppelin/contracts/access/AccessControl.sol\":6370:6410  RoleGranted(role, account, _msgSender()) */\n      swap1\n      mload\n        /* \"@openzeppelin/contracts/utils/Context.sol\":735:745  msg.sender */\n      caller\n      swap3\n        /* \"@openzeppelin/contracts/access/AccessControl.sol\":6315:6327  _roles[role] */\n      dup7\n      swap2\n        /* \"@openzeppelin/contracts/access/AccessControl.sol\":6370:6410  RoleGranted(role, account, _msgSender()) */\n      0x2f8788117e7eff1d82e926ec794901d17c78024a50270940304540a733656f0d\n      swap2\n        /* \"@openzeppelin/contracts/access/AccessControl.sol\":6315:6327  _roles[role] */\n      swap1\n        /* \"@openzeppelin/contracts/access/AccessControl.sol\":6370:6410  RoleGranted(role, account, _msgSender()) */\n      log4\n      pop\n        /* \"@openzeppelin/contracts/access/AccessControl.sol\":6431:6435  true */\n      0x01\n        /* \"@openzeppelin/contracts/access/AccessControl.sol\":6424:6435  return true */\n      jump(tag_147)\n        /* \"@openzeppelin/contracts/access/AccessControl.sol\":6272:6489  if (!hasRole(role, account)) {... */\n    tag_414:\n      pop\n        /* \"@openzeppelin/contracts/access/AccessControl.sol\":6473:6478  false */\n      0x00\n        /* \"@openzeppelin/contracts/access/AccessControl.sol\":6466:6478  return false */\n      jump(tag_147)\n        /* \"@openzeppelin/contracts/access/AccessControl.sol\":6730:7047  function _revokeRole(bytes32 role, address account) internal virtual returns (bool) {... */\n    tag_240:\n        /* \"@openzeppelin/contracts/access/AccessControl.sol\":6808:6812  bool */\n      0x00\n        /* \"@openzeppelin/contracts/access/AccessControl.sol\":6828:6850  hasRole(role, account) */\n      tag_419\n        /* \"@openzeppelin/contracts/access/AccessControl.sol\":6836:6840  role */\n      dup4\n        /* \"@openzeppelin/contracts/access/AccessControl.sol\":6842:6849  account */\n      dup4\n        /* \"@openzeppelin/contracts/access/AccessControl.sol\":6828:6835  hasRole */\n      tag_91\n        /* \"@openzeppelin/contracts/access/AccessControl.sol\":6828:6850  hasRole(role, account) */\n      jump\t// in\n    tag_419:\n        /* \"@openzeppelin/contracts/access/AccessControl.sol\":6824:7041  if (hasRole(role, account)) {... */\n      iszero\n      tag_414\n      jumpi\n        /* \"@openzeppelin/contracts/access/AccessControl.sol\":6898:6903  false */\n      0x00\n        /* \"@openzeppelin/contracts/access/AccessControl.sol\":6866:6878  _roles[role] */\n      dup4\n      dup2\n      mstore\n        /* \"@openzeppelin/contracts/access/AccessControl.sol\":6866:6872  _roles */\n      0x01\n        /* \"@openzeppelin/contracts/access/AccessControl.sol\":6866:6878  _roles[role] */\n      0x20\n      swap1\n      dup2\n      mstore\n      0x40\n      dup1\n      dup4\n      keccak256\n      sub(shl(0xa0, 0x01), 0x01)\n        /* \"@openzeppelin/contracts/access/AccessControl.sol\":6866:6895  _roles[role].hasRole[account] */\n      dup7\n      and\n      dup1\n      dup6\n      mstore\n      swap3\n      mstore\n      dup1\n      dup4\n      keccak256\n        /* \"@openzeppelin/contracts/access/AccessControl.sol\":6866:6903  _roles[role].hasRole[account] = false */\n      dup1\n      sload\n      not(0xff)\n      and\n      swap1\n      sstore\n        /* \"@openzeppelin/contracts/access/AccessControl.sol\":6922:6962  RoleRevoked(role, account, _msgSender()) */\n      mload\n        /* \"@openzeppelin/contracts/utils/Context.sol\":735:745  msg.sender */\n      caller\n      swap3\n        /* \"@openzeppelin/contracts/access/AccessControl.sol\":6866:6878  _roles[role] */\n      dup7\n      swap2\n        /* \"@openzeppelin/contracts/access/AccessControl.sol\":6922:6962  RoleRevoked(role, account, _msgSender()) */\n      0xf6391f5c32d9c69d2a47ea670b442974b53935d1edc7fd64eb21e047a839171b\n      swap2\n        /* \"@openzeppelin/contracts/access/AccessControl.sol\":6898:6903  false */\n      swap1\n        /* \"@openzeppelin/contracts/access/AccessControl.sol\":6922:6962  RoleRevoked(role, account, _msgSender()) */\n      log4\n      pop\n        /* \"@openzeppelin/contracts/access/AccessControl.sol\":6983:6987  true */\n      0x01\n        /* \"@openzeppelin/contracts/access/AccessControl.sol\":6976:6987  return true */\n      jump(tag_147)\n        /* \"@openzeppelin/contracts/access/Ownable.sol\":2912:3099  function _transferOwnership(address newOwner) internal virtual {... */\n    tag_245:\n        /* \"@openzeppelin/contracts/access/Ownable.sol\":2985:3001  address oldOwner */\n      0x00\n        /* \"@openzeppelin/contracts/access/Ownable.sol\":3004:3010  _owner */\n      dup1\n      sload\n      sub(shl(0xa0, 0x01), 0x01)\n        /* \"@openzeppelin/contracts/access/Ownable.sol\":3020:3037  _owner = newOwner */\n      dup4\n      dup2\n      and\n      not(sub(shl(0xa0, 0x01), 0x01))\n      dup4\n      and\n      dup2\n      or\n      dup5\n      sstore\n        /* \"@openzeppelin/contracts/access/Ownable.sol\":3052:3092  OwnershipTransferred(oldOwner, newOwner) */\n      mload(0x40)\n        /* \"@openzeppelin/contracts/access/Ownable.sol\":3004:3010  _owner */\n      swap2\n      swap1\n      swap3\n      and\n      swap3\n      dup4\n      swap2\n        /* \"@openzeppelin/contracts/access/Ownable.sol\":3052:3092  OwnershipTransferred(oldOwner, newOwner) */\n      0x8be0079c531659141344cd1fd0a4f28419497f9722a3daafe3b4186f6b6457e0\n      swap2\n        /* \"@openzeppelin/contracts/access/Ownable.sol\":2985:3001  address oldOwner */\n      swap1\n        /* \"@openzeppelin/contracts/access/Ownable.sol\":3052:3092  OwnershipTransferred(oldOwner, newOwner) */\n      log3\n        /* \"@openzeppelin/contracts/access/Ownable.sol\":2975:3099  {... */\n      pop\n        /* \"@openzeppelin/contracts/access/Ownable.sol\":2912:3099  function _transferOwnership(address newOwner) internal virtual {... */\n      pop\n      jump\t// out\n        /* \"Bloc.sol\":7091:8481  function _initBloc(... */\n    tag_256:\n        /* \"Bloc.sol\":7216:7233  uint256 seedBoxId */\n      0x00\n        /* \"Bloc.sol\":7238:7251  lastSeedBoxId */\n      0x02\n      0x00\n        /* \"Bloc.sol\":7236:7251  ++lastSeedBoxId */\n      dup2\n      sload\n      tag_426\n      swap1\n      tag_209\n      jump\t// in\n    tag_426:\n      swap2\n      dup3\n      swap1\n      sstore\n      pop\n        /* \"Bloc.sol\":7277:7289  currentRound */\n      sload(0x04)\n        /* \"Bloc.sol\":7261:7274  uint256 round */\n      0x00\n        /* \"Bloc.sol\":7354:7374  seedBoxes[seedBoxId] */\n      dup3\n      dup2\n      mstore\n        /* \"Bloc.sol\":7354:7363  seedBoxes */\n      0x07\n        /* \"Bloc.sol\":7354:7374  seedBoxes[seedBoxId] */\n      0x20\n      mstore\n      0x40\n      swap1\n      keccak256\n        /* \"Bloc.sol\":7384:7406  seedBox.id = seedBoxId */\n      dup3\n      dup2\n      sstore\n        /* \"Bloc.sol\":7236:7251  ++lastSeedBoxId */\n      swap2\n      swap3\n      pop\n        /* \"Bloc.sol\":7277:7289  currentRound */\n      swap1\n        /* \"Bloc.sol\":7416:7427  seedBox.cid */\n      0x01\n      dup2\n      add\n        /* \"Bloc.sol\":7416:7434  seedBox.cid = _cid */\n      tag_427\n        /* \"Bloc.sol\":7430:7434  _cid */\n      dup7\n        /* \"Bloc.sol\":7416:7427  seedBox.cid */\n      dup3\n        /* \"Bloc.sol\":7416:7434  seedBox.cid = _cid */\n      tag_296\n      jump\t// in\n    tag_427:\n      pop\n        /* \"Bloc.sol\":7467:7483  new address[](0) */\n      0x40\n      dup1\n      mload\n        /* \"Bloc.sol\":7481:7482  0 */\n      0x00\n        /* \"Bloc.sol\":7467:7483  new address[](0) */\n      dup2\n      mstore\n      0x20\n      dup2\n      add\n      swap2\n      dup3\n      swap1\n      mstore\n        /* \"Bloc.sol\":7444:7483  seedBox.contributors = new address[](0) */\n      mload\n      tag_431\n      swap2\n        /* \"Bloc.sol\":7444:7464  seedBox.contributors */\n      0x03\n      dup5\n      add\n      swap2\n        /* \"Bloc.sol\":7444:7483  seedBox.contributors = new address[](0) */\n      tag_325\n      jump\t// in\n    tag_431:\n      pop\n        /* \"Bloc.sol\":7493:7513  seedBox.contributors */\n      0x03\n      dup2\n      add\n        /* \"Bloc.sol\":7493:7526  seedBox.contributors.push(_admin) */\n      dup1\n      sload\n      0x01\n      dup2\n      add\n      dup3\n      sstore\n      0x00\n      swap2\n      dup3\n      mstore\n      0x20\n      dup1\n      dup4\n      keccak256\n      swap1\n      swap2\n      add\n      dup1\n      sload\n      sub(shl(0xa0, 0x01), 0x01)\n      dup11\n      and\n      not(sub(shl(0xa0, 0x01), 0x01))\n      swap2\n      dup3\n      and\n      dup2\n      or\n      swap1\n      swap3\n      sstore\n        /* \"Bloc.sol\":7536:7551  seedBox.creator */\n      0x04\n      dup6\n      add\n        /* \"Bloc.sol\":7536:7560  seedBox.creator = _admin */\n      dup1\n      sload\n      swap1\n      swap2\n      and\n      swap1\n      swap2\n      or\n      swap1\n      sstore\n        /* \"Bloc.sol\":7604:7635  abi.encodePacked(address(this)) */\n      mload(0x40)\n        /* \"Bloc.sol\":7629:7633  this */\n      address\n        /* \"#utility.yul\":20471:20473   */\n      0x60\n        /* \"#utility.yul\":20467:20482   */\n      shl\n      not(0xffffffffffffffffffffffff)\n        /* \"#utility.yul\":20463:20516   */\n      and\n        /* \"Bloc.sol\":7604:7635  abi.encodePacked(address(this)) */\n      swap2\n      dup2\n      add\n        /* \"#utility.yul\":20451:20517   */\n      swap2\n      swap1\n      swap2\n      mstore\n        /* \"#utility.yul\":20533:20545   */\n      0x34\n      add\n        /* \"Bloc.sol\":7604:7635  abi.encodePacked(address(this)) */\n      mload(0x40)\n      0x20\n      dup2\n      dup4\n      sub\n      sub\n      dup2\n      mstore\n      swap1\n      0x40\n      mstore\n        /* \"Bloc.sol\":7594:7636  keccak256(abi.encodePacked(address(this))) */\n      dup1\n      mload\n      swap1\n      0x20\n      add\n      keccak256\n        /* \"Bloc.sol\":7571:7636  bytes32 MANAGER_ROLE = keccak256(abi.encodePacked(address(this))) */\n      swap1\n      pop\n        /* \"Bloc.sol\":7646:7664  bytes32 ADMIN_ROLE */\n      0x00\n        /* \"Bloc.sol\":7715:7719  this */\n      address\n        /* \"Bloc.sol\":7690:7730  abi.encodePacked(address(this), \"admin\") */\n      add(0x20, mload(0x40))\n      tag_435\n      swap2\n      swap1\n      tag_436\n      jump\t// in\n    tag_435:\n      mload(0x40)\n      0x20\n      dup2\n      dup4\n      sub\n      sub\n      dup2\n      mstore\n      swap1\n      0x40\n      mstore\n        /* \"Bloc.sol\":7667:7740  keccak256(... */\n      dup1\n      mload\n      swap1\n      0x20\n      add\n      keccak256\n        /* \"Bloc.sol\":7646:7740  bytes32 ADMIN_ROLE = keccak256(... */\n      swap1\n      pop\n        /* \"Bloc.sol\":7805:7835  _grantRole(ADMIN_ROLE, _admin) */\n      tag_437\n        /* \"Bloc.sol\":7816:7826  ADMIN_ROLE */\n      dup2\n        /* \"Bloc.sol\":7828:7834  _admin */\n      dup10\n        /* \"Bloc.sol\":7805:7815  _grantRole */\n      tag_234\n        /* \"Bloc.sol\":7805:7835  _grantRole(ADMIN_ROLE, _admin) */\n      jump\t// in\n    tag_437:\n      pop\n        /* \"Bloc.sol\":7889:7928  _setRoleAdmin(MANAGER_ROLE, ADMIN_ROLE) */\n      tag_438\n        /* \"Bloc.sol\":7903:7915  MANAGER_ROLE */\n      dup3\n        /* \"Bloc.sol\":7917:7927  ADMIN_ROLE */\n      dup3\n        /* \"Bloc.sol\":7889:7902  _setRoleAdmin */\n      tag_439\n        /* \"Bloc.sol\":7889:7928  _setRoleAdmin(MANAGER_ROLE, ADMIN_ROLE) */\n      jump\t// in\n    tag_438:\n        /* \"Bloc.sol\":7991:8005  bytes32 seedId */\n      0x00\n        /* \"Bloc.sol\":8035:8047  currentRound */\n      sload(0x04)\n        /* \"Bloc.sol\":8049:8058  seedBoxId */\n      dup7\n        /* \"Bloc.sol\":8018:8059  abi.encodePacked(currentRound, seedBoxId) */\n      add(0x20, mload(0x40))\n      tag_440\n      swap3\n      swap2\n      swap1\n        /* \"#utility.yul\":19341:19360   */\n      swap2\n      dup3\n      mstore\n        /* \"#utility.yul\":19385:19387   */\n      0x20\n        /* \"#utility.yul\":19376:19388   */\n      dup3\n      add\n        /* \"#utility.yul\":19369:19397   */\n      mstore\n        /* \"#utility.yul\":19422:19424   */\n      0x40\n        /* \"#utility.yul\":19413:19425   */\n      add\n      swap1\n        /* \"#utility.yul\":19184:19431   */\n      jump\n        /* \"Bloc.sol\":8018:8059  abi.encodePacked(currentRound, seedBoxId) */\n    tag_440:\n      0x40\n      dup1\n      mload\n      not(0x1f)\n      dup2\n      dup5\n      sub\n      add\n      dup2\n      mstore\n      swap2\n      dup2\n      mstore\n        /* \"Bloc.sol\":8008:8060  keccak256(abi.encodePacked(currentRound, seedBoxId)) */\n      dup2\n      mload\n        /* \"Bloc.sol\":8018:8059  abi.encodePacked(currentRound, seedBoxId) */\n      0x20\n        /* \"Bloc.sol\":8008:8060  keccak256(abi.encodePacked(currentRound, seedBoxId)) */\n      swap3\n      dup4\n      add\n      keccak256\n        /* \"Bloc.sol\":8071:8101  MusicBloc.Seed storage newSeed */\n      0x00\n        /* \"Bloc.sol\":8104:8121  roundSeeds[round] */\n      dup9\n      dup2\n      mstore\n        /* \"Bloc.sol\":8104:8114  roundSeeds */\n      0x08\n        /* \"Bloc.sol\":8104:8121  roundSeeds[round] */\n      dup5\n      mstore\n      dup3\n      dup2\n      keccak256\n        /* \"Bloc.sol\":8104:8129  roundSeeds[round][seedId] */\n      dup3\n      dup3\n      mstore\n      swap1\n      swap4\n      mstore\n      swap2\n      keccak256\n        /* \"Bloc.sol\":8140:8159  newSeed.id = seedId */\n      dup2\n      dup2\n      sstore\n        /* \"Bloc.sol\":8169:8182  newSeed.state */\n      0x02\n      dup2\n      add\n        /* \"Bloc.sol\":8169:8209  newSeed.state = MusicBloc.State.Complete */\n      dup1\n      sload\n      not(0xff00)\n      and\n      0x0100\n      or\n      swap1\n      sstore\n        /* \"Bloc.sol\":8219:8232  newSeed.boxID */\n      0x03\n      dup2\n      add\n        /* \"Bloc.sol\":8219:8244  newSeed.boxID = seedBoxId */\n      dup9\n      swap1\n      sstore\n        /* \"Bloc.sol\":8008:8060  keccak256(abi.encodePacked(currentRound, seedBoxId)) */\n      swap1\n      swap2\n      pop\n      0x01\n        /* \"Bloc.sol\":8254:8266  newSeed.seed */\n      dup2\n      add\n        /* \"Bloc.sol\":8254:8274  newSeed.seed = _seed */\n      tag_443\n        /* \"Bloc.sol\":8269:8274  _seed */\n      dup10\n        /* \"Bloc.sol\":8254:8266  newSeed.seed */\n      dup3\n        /* \"Bloc.sol\":8254:8274  newSeed.seed = _seed */\n      tag_296\n      jump\t// in\n    tag_443:\n      pop\n        /* \"Bloc.sol\":8284:8298  newSeed.merged */\n      0x02\n      dup1\n      dup3\n      add\n        /* \"Bloc.sol\":8284:8305  newSeed.merged = true */\n      dup1\n      sload\n      not(0xff)\n      and\n        /* \"Bloc.sol\":8301:8305  true */\n      0x01\n        /* \"Bloc.sol\":8284:8305  newSeed.merged = true */\n      swap1\n      dup2\n      or\n      swap1\n      swap2\n      sstore\n        /* \"Bloc.sol\":8284:8298  newSeed.merged */\n      0x00\n        /* \"Bloc.sol\":8316:8343  seedBox.seedsByRound[round] */\n      dup9\n      dup2\n      mstore\n        /* \"Bloc.sol\":8316:8336  seedBox.seedsByRound */\n      0x05\n      dup1\n      dup10\n      add\n        /* \"Bloc.sol\":8316:8343  seedBox.seedsByRound[round] */\n      0x20\n      swap1\n      dup2\n      mstore\n      0x40\n      dup4\n      keccak256\n        /* \"Bloc.sol\":8316:8356  seedBox.seedsByRound[round].push(seedId) */\n      dup1\n      sload\n      dup1\n      dup7\n      add\n      dup3\n      sstore\n      swap1\n      dup5\n      mstore\n      dup2\n      dup5\n      keccak256\n      add\n      dup8\n      swap1\n      sstore\n        /* \"Bloc.sol\":8366:8392  seedBox.participatedRounds */\n      swap4\n      dup10\n      add\n        /* \"Bloc.sol\":8366:8404  seedBox.participatedRounds.push(round) */\n      dup1\n      sload\n      swap4\n      dup5\n      add\n      dup2\n      sstore\n      dup3\n      mstore\n      swap3\n      swap1\n      keccak256\n      add\n      dup8\n      swap1\n      sstore\n        /* \"Bloc.sol\":8414:8424  cid = _cid */\n      tag_446\n        /* \"Bloc.sol\":8420:8424  _cid */\n      dup11\n        /* \"Bloc.sol\":8316:8336  seedBox.seedsByRound */\n      dup3\n        /* \"Bloc.sol\":8414:8424  cid = _cid */\n      tag_296\n      jump\t// in\n    tag_446:\n      pop\n        /* \"Bloc.sol\":8434:8442  released */\n      0x06\n        /* \"Bloc.sol\":8434:8450  released = false */\n      dup1\n      sload\n      not(0xff)\n      and\n      swap1\n      sstore\n        /* \"Bloc.sol\":8460:8472  currentRound */\n      0x04\n        /* \"Bloc.sol\":8460:8474  currentRound++ */\n      dup1\n      sload\n      swap1\n        /* \"Bloc.sol\":8445:8450  false */\n      0x00\n        /* \"Bloc.sol\":8460:8474  currentRound++ */\n      tag_447\n      dup4\n      tag_209\n      jump\t// in\n    tag_447:\n      swap2\n      swap1\n      pop\n      sstore\n      pop\n        /* \"Bloc.sol\":7206:8481  {... */\n      pop\n      pop\n      pop\n      pop\n      pop\n      pop\n      pop\n        /* \"Bloc.sol\":7091:8481  function _initBloc(... */\n      pop\n      pop\n      pop\n      jump\t// out\n        /* \"library/MusicBloc.sol\":576:884  function isContributor(... */\n    tag_279:\n        /* \"library/MusicBloc.sol\":691:695  bool */\n      0x00\n      dup1\n        /* \"library/MusicBloc.sol\":707:856  for (uint256 i = 0; i < contributors.length; i++) {... */\n    tag_449:\n        /* \"library/MusicBloc.sol\":731:743  contributors */\n      dup4\n        /* \"library/MusicBloc.sol\":731:750  contributors.length */\n      mload\n        /* \"library/MusicBloc.sol\":727:728  i */\n      dup2\n        /* \"library/MusicBloc.sol\":727:750  i < contributors.length */\n      lt\n        /* \"library/MusicBloc.sol\":707:856  for (uint256 i = 0; i < contributors.length; i++) {... */\n      iszero\n      tag_450\n      jumpi\n        /* \"library/MusicBloc.sol\":794:800  sender */\n      dup3\n      sub(shl(0xa0, 0x01), 0x01)\n        /* \"library/MusicBloc.sol\":775:800  contributors[i] == sender */\n      and\n        /* \"library/MusicBloc.sol\":775:787  contributors */\n      dup5\n        /* \"library/MusicBloc.sol\":788:789  i */\n      dup3\n        /* \"library/MusicBloc.sol\":775:790  contributors[i] */\n      dup2\n      mload\n      dup2\n      lt\n      tag_453\n      jumpi\n      tag_453\n      tag_169\n      jump\t// in\n    tag_453:\n      0x20\n      mul\n      0x20\n      add\n      add\n      mload\n      sub(shl(0xa0, 0x01), 0x01)\n        /* \"library/MusicBloc.sol\":775:800  contributors[i] == sender */\n      and\n      sub\n        /* \"library/MusicBloc.sol\":771:846  if (contributors[i] == sender) {... */\n      tag_454\n      jumpi\n        /* \"library/MusicBloc.sol\":827:831  true */\n      0x01\n        /* \"library/MusicBloc.sol\":820:831  return true */\n      swap2\n      pop\n      pop\n      jump(tag_147)\n        /* \"library/MusicBloc.sol\":771:846  if (contributors[i] == sender) {... */\n    tag_454:\n        /* \"library/MusicBloc.sol\":752:755  i++ */\n      0x01\n      add\n        /* \"library/MusicBloc.sol\":707:856  for (uint256 i = 0; i < contributors.length; i++) {... */\n      jump(tag_449)\n    tag_450:\n      pop\n        /* \"library/MusicBloc.sol\":872:877  false */\n      0x00\n      swap4\n        /* \"library/MusicBloc.sol\":576:884  function isContributor(... */\n      swap3\n      pop\n      pop\n      pop\n      jump\t// out\n        /* \"library/MusicBloc.sol\":286:570  function contains(... */\n    tag_353:\n        /* \"library/MusicBloc.sol\":390:394  bool */\n      0x00\n      dup1\n        /* \"library/MusicBloc.sol\":406:542  for (uint256 i = 0; i < array.length; i++) {... */\n    tag_456:\n        /* \"library/MusicBloc.sol\":430:435  array */\n      dup4\n        /* \"library/MusicBloc.sol\":430:442  array.length */\n      mload\n        /* \"library/MusicBloc.sol\":426:427  i */\n      dup2\n        /* \"library/MusicBloc.sol\":426:442  i < array.length */\n      lt\n        /* \"library/MusicBloc.sol\":406:542  for (uint256 i = 0; i < array.length; i++) {... */\n      iszero\n      tag_450\n      jumpi\n        /* \"library/MusicBloc.sol\":479:486  element */\n      dup3\n        /* \"library/MusicBloc.sol\":467:472  array */\n      dup5\n        /* \"library/MusicBloc.sol\":473:474  i */\n      dup3\n        /* \"library/MusicBloc.sol\":467:475  array[i] */\n      dup2\n      mload\n      dup2\n      lt\n      tag_460\n      jumpi\n      tag_460\n      tag_169\n      jump\t// in\n    tag_460:\n      0x20\n      mul\n      0x20\n      add\n      add\n      mload\n        /* \"library/MusicBloc.sol\":467:486  array[i] == element */\n      sub\n        /* \"library/MusicBloc.sol\":463:532  if (array[i] == element) {... */\n      tag_461\n      jumpi\n        /* \"library/MusicBloc.sol\":513:517  true */\n      0x01\n        /* \"library/MusicBloc.sol\":506:517  return true */\n      swap2\n      pop\n      pop\n      jump(tag_147)\n        /* \"library/MusicBloc.sol\":463:532  if (array[i] == element) {... */\n    tag_461:\n        /* \"library/MusicBloc.sol\":444:447  i++ */\n      0x01\n      add\n        /* \"library/MusicBloc.sol\":406:542  for (uint256 i = 0; i < array.length; i++) {... */\n      jump(tag_456)\n        /* \"Bloc.sol\":8618:8844  function _isBlocAdmin(address _address) internal view returns (bool) {... */\n    tag_404:\n        /* \"Bloc.sol\":8681:8685  bool */\n      0x00\n        /* \"Bloc.sol\":8697:8715  bytes32 ADMIN_ROLE */\n      dup1\n        /* \"Bloc.sol\":8766:8770  this */\n      address\n        /* \"Bloc.sol\":8741:8781  abi.encodePacked(address(this), \"admin\") */\n      add(0x20, mload(0x40))\n      tag_463\n      swap2\n      swap1\n      tag_436\n      jump\t// in\n    tag_463:\n      mload(0x40)\n      0x20\n      dup2\n      dup4\n      sub\n      sub\n      dup2\n      mstore\n      swap1\n      0x40\n      mstore\n        /* \"Bloc.sol\":8718:8791  keccak256(... */\n      dup1\n      mload\n      swap1\n      0x20\n      add\n      keccak256\n        /* \"Bloc.sol\":8697:8791  bytes32 ADMIN_ROLE = keccak256(... */\n      swap1\n      pop\n        /* \"Bloc.sol\":8808:8837  hasRole(ADMIN_ROLE, _address) */\n      tag_464\n        /* \"Bloc.sol\":8816:8826  ADMIN_ROLE */\n      dup2\n        /* \"Bloc.sol\":8828:8836  _address */\n      dup5\n        /* \"Bloc.sol\":8808:8815  hasRole */\n      tag_91\n        /* \"Bloc.sol\":8808:8837  hasRole(ADMIN_ROLE, _address) */\n      jump\t// in\n    tag_464:\n        /* \"Bloc.sol\":8801:8837  return hasRole(ADMIN_ROLE, _address) */\n      swap4\n        /* \"Bloc.sol\":8618:8844  function _isBlocAdmin(address _address) internal view returns (bool) {... */\n      swap3\n      pop\n      pop\n      pop\n      jump\t// out\n        /* \"@openzeppelin/contracts/access/AccessControl.sol\":3432:3629  function _checkRole(bytes32 role, address account) internal view virtual {... */\n    tag_411:\n        /* \"@openzeppelin/contracts/access/AccessControl.sol\":3520:3542  hasRole(role, account) */\n      tag_466\n        /* \"@openzeppelin/contracts/access/AccessControl.sol\":3528:3532  role */\n      dup3\n        /* \"@openzeppelin/contracts/access/AccessControl.sol\":3534:3541  account */\n      dup3\n        /* \"@openzeppelin/contracts/access/AccessControl.sol\":3520:3527  hasRole */\n      tag_91\n        /* \"@openzeppelin/contracts/access/AccessControl.sol\":3520:3542  hasRole(role, account) */\n      jump\t// in\n    tag_466:\n        /* \"@openzeppelin/contracts/access/AccessControl.sol\":3515:3623  if (!hasRole(role, account)) {... */\n      tag_467\n      jumpi\n        /* \"@openzeppelin/contracts/access/AccessControl.sol\":3565:3612  AccessControlUnauthorizedAccount(account, role) */\n      mload(0x40)\n      shl(0xe0, 0xe2517d3f)\n      dup2\n      mstore\n      sub(shl(0xa0, 0x01), 0x01)\n        /* \"#utility.yul\":21121:21153   */\n      dup3\n      and\n        /* \"@openzeppelin/contracts/access/AccessControl.sol\":3565:3612  AccessControlUnauthorizedAccount(account, role) */\n      0x04\n      dup3\n      add\n        /* \"#utility.yul\":21103:21154   */\n      mstore\n        /* \"#utility.yul\":21170:21188   */\n      0x24\n      dup2\n      add\n        /* \"#utility.yul\":21163:21197   */\n      dup4\n      swap1\n      mstore\n        /* \"#utility.yul\":21076:21094   */\n      0x44\n      add\n        /* \"@openzeppelin/contracts/access/AccessControl.sol\":3565:3612  AccessControlUnauthorizedAccount(account, role) */\n      tag_218\n        /* \"#utility.yul\":20929:21203   */\n      jump\n        /* \"@openzeppelin/contracts/access/AccessControl.sol\":3515:3623  if (!hasRole(role, account)) {... */\n    tag_467:\n        /* \"@openzeppelin/contracts/access/AccessControl.sol\":3432:3629  function _checkRole(bytes32 role, address account) internal view virtual {... */\n      pop\n      pop\n      jump\t// out\n        /* \"@openzeppelin/contracts/access/AccessControl.sol\":5698:5945  function _setRoleAdmin(bytes32 role, bytes32 adminRole) internal virtual {... */\n    tag_439:\n        /* \"@openzeppelin/contracts/access/AccessControl.sol\":5781:5806  bytes32 previousAdminRole */\n      0x00\n        /* \"@openzeppelin/contracts/access/AccessControl.sol\":3901:3913  _roles[role] */\n      dup3\n      dup2\n      mstore\n        /* \"@openzeppelin/contracts/access/AccessControl.sol\":3901:3907  _roles */\n      0x01\n        /* \"@openzeppelin/contracts/access/AccessControl.sol\":3901:3913  _roles[role] */\n      0x20\n      dup2\n      swap1\n      mstore\n      0x40\n      dup1\n      dup4\n      keccak256\n        /* \"@openzeppelin/contracts/access/AccessControl.sol\":3901:3923  _roles[role].adminRole */\n      swap1\n      swap2\n      add\n      dup1\n      sload\n        /* \"@openzeppelin/contracts/access/AccessControl.sol\":5837:5871  _roles[role].adminRole = adminRole */\n      swap1\n      dup5\n      swap1\n      sstore\n        /* \"@openzeppelin/contracts/access/AccessControl.sol\":5886:5938  RoleAdminChanged(role, previousAdminRole, adminRole) */\n      swap1\n      mload\n        /* \"@openzeppelin/contracts/access/AccessControl.sol\":3901:3923  _roles[role].adminRole */\n      swap1\n      swap2\n        /* \"@openzeppelin/contracts/access/AccessControl.sol\":5837:5871  _roles[role].adminRole = adminRole */\n      dup4\n      swap2\n        /* \"@openzeppelin/contracts/access/AccessControl.sol\":3901:3923  _roles[role].adminRole */\n      dup4\n      swap2\n        /* \"@openzeppelin/contracts/access/AccessControl.sol\":3901:3913  _roles[role] */\n      dup7\n      swap2\n        /* \"@openzeppelin/contracts/access/AccessControl.sol\":5886:5938  RoleAdminChanged(role, previousAdminRole, adminRole) */\n      0xbd79b86ffe0ab8e8776151514217cd7cacd52c909f66475c3af44e129f0b00ff\n      swap2\n        /* \"@openzeppelin/contracts/access/AccessControl.sol\":5781:5806  bytes32 previousAdminRole */\n      swap1\n        /* \"@openzeppelin/contracts/access/AccessControl.sol\":5886:5938  RoleAdminChanged(role, previousAdminRole, adminRole) */\n      log4\n        /* \"@openzeppelin/contracts/access/AccessControl.sol\":5771:5945  {... */\n      pop\n        /* \"@openzeppelin/contracts/access/AccessControl.sol\":5698:5945  function _setRoleAdmin(bytes32 role, bytes32 adminRole) internal virtual {... */\n      pop\n      pop\n      jump\t// out\n    tag_325:\n      dup3\n      dup1\n      sload\n      dup3\n      dup3\n      sstore\n      swap1\n      0x00\n      mstore\n      keccak256(0x00, 0x20)\n      swap1\n      dup2\n      add\n      swap3\n      dup3\n      iszero\n      tag_474\n      jumpi\n      swap2\n      0x20\n      mul\n      dup3\n      add\n    tag_473:\n      dup3\n      dup2\n      gt\n      iszero\n      tag_474\n      jumpi\n      dup3\n      mload\n      dup3\n      sload\n      not(sub(shl(0xa0, 0x01), 0x01))\n      and\n      sub(shl(0xa0, 0x01), 0x01)\n      swap1\n      swap2\n      and\n      or\n      dup3\n      sstore\n      0x20\n      swap1\n      swap3\n      add\n      swap2\n      0x01\n      swap1\n      swap2\n      add\n      swap1\n      jump(tag_473)\n    tag_474:\n      pop\n      tag_475\n      swap3\n      swap2\n      pop\n      tag_476\n      jump\t// in\n    tag_475:\n      pop\n      swap1\n      jump\t// out\n    tag_476:\n    tag_479:\n      dup1\n      dup3\n      gt\n      iszero\n      tag_475\n      jumpi\n      0x00\n      dup2\n      sstore\n      0x01\n      add\n      jump(tag_479)\n        /* \"#utility.yul\":14:300   */\n    tag_36:\n        /* \"#utility.yul\":72:78   */\n      0x00\n        /* \"#utility.yul\":125:127   */\n      0x20\n        /* \"#utility.yul\":113:122   */\n      dup3\n        /* \"#utility.yul\":104:111   */\n      dup5\n        /* \"#utility.yul\":100:123   */\n      sub\n        /* \"#utility.yul\":96:128   */\n      slt\n        /* \"#utility.yul\":93:145   */\n      iszero\n      tag_494\n      jumpi\n        /* \"#utility.yul\":141:142   */\n      0x00\n        /* \"#utility.yul\":138:139   */\n      dup1\n        /* \"#utility.yul\":131:143   */\n      revert\n        /* \"#utility.yul\":93:145   */\n    tag_494:\n        /* \"#utility.yul\":167:190   */\n      dup2\n      calldataload\n      not(sub(shl(0xe0, 0x01), 0x01))\n        /* \"#utility.yul\":219:251   */\n      dup2\n      and\n        /* \"#utility.yul\":209:252   */\n      dup2\n      eq\n        /* \"#utility.yul\":199:270   */\n      tag_464\n      jumpi\n        /* \"#utility.yul\":266:267   */\n      0x00\n        /* \"#utility.yul\":263:264   */\n      dup1\n        /* \"#utility.yul\":256:268   */\n      revert\n        /* \"#utility.yul\":497:920   */\n    tag_481:\n        /* \"#utility.yul\":539:542   */\n      0x00\n        /* \"#utility.yul\":577:582   */\n      dup2\n        /* \"#utility.yul\":571:583   */\n      mload\n        /* \"#utility.yul\":604:610   */\n      dup1\n        /* \"#utility.yul\":599:602   */\n      dup5\n        /* \"#utility.yul\":592:611   */\n      mstore\n        /* \"#utility.yul\":629:630   */\n      0x00\n        /* \"#utility.yul\":639:801   */\n    tag_498:\n        /* \"#utility.yul\":653:659   */\n      dup2\n        /* \"#utility.yul\":650:651   */\n      dup2\n        /* \"#utility.yul\":647:660   */\n      lt\n        /* \"#utility.yul\":639:801   */\n      iszero\n      tag_500\n      jumpi\n        /* \"#utility.yul\":715:719   */\n      0x20\n        /* \"#utility.yul\":771:784   */\n      dup2\n      dup6\n      add\n        /* \"#utility.yul\":767:789   */\n      dup2\n      add\n        /* \"#utility.yul\":761:790   */\n      mload\n        /* \"#utility.yul\":743:754   */\n      dup7\n      dup4\n      add\n        /* \"#utility.yul\":739:759   */\n      dup3\n      add\n        /* \"#utility.yul\":732:791   */\n      mstore\n        /* \"#utility.yul\":668:680   */\n      add\n        /* \"#utility.yul\":639:801   */\n      jump(tag_498)\n    tag_500:\n        /* \"#utility.yul\":643:646   */\n      pop\n        /* \"#utility.yul\":846:847   */\n      0x00\n        /* \"#utility.yul\":839:843   */\n      0x20\n        /* \"#utility.yul\":830:836   */\n      dup3\n        /* \"#utility.yul\":825:828   */\n      dup7\n        /* \"#utility.yul\":821:837   */\n      add\n        /* \"#utility.yul\":817:844   */\n      add\n        /* \"#utility.yul\":810:848   */\n      mstore\n        /* \"#utility.yul\":909:913   */\n      0x20\n        /* \"#utility.yul\":902:904   */\n      0x1f\n        /* \"#utility.yul\":898:905   */\n      not\n        /* \"#utility.yul\":893:895   */\n      0x1f\n        /* \"#utility.yul\":885:891   */\n      dup4\n        /* \"#utility.yul\":881:896   */\n      add\n        /* \"#utility.yul\":877:906   */\n      and\n        /* \"#utility.yul\":872:875   */\n      dup6\n        /* \"#utility.yul\":868:907   */\n      add\n        /* \"#utility.yul\":864:914   */\n      add\n        /* \"#utility.yul\":857:914   */\n      swap2\n      pop\n      pop\n        /* \"#utility.yul\":497:920   */\n      swap3\n      swap2\n      pop\n      pop\n      jump\t// out\n        /* \"#utility.yul\":925:1297   */\n    tag_43:\n        /* \"#utility.yul\":1124:1126   */\n      0x60\n        /* \"#utility.yul\":1113:1122   */\n      dup2\n        /* \"#utility.yul\":1106:1127   */\n      mstore\n        /* \"#utility.yul\":1087:1091   */\n      0x00\n        /* \"#utility.yul\":1144:1189   */\n      tag_502\n        /* \"#utility.yul\":1185:1187   */\n      0x60\n        /* \"#utility.yul\":1174:1183   */\n      dup4\n        /* \"#utility.yul\":1170:1188   */\n      add\n        /* \"#utility.yul\":1162:1168   */\n      dup7\n        /* \"#utility.yul\":1144:1189   */\n      tag_481\n      jump\t// in\n    tag_502:\n        /* \"#utility.yul\":1232:1246   */\n      swap4\n      iszero\n        /* \"#utility.yul\":1225:1247   */\n      iszero\n        /* \"#utility.yul\":1220:1222   */\n      0x20\n        /* \"#utility.yul\":1205:1223   */\n      dup4\n      add\n        /* \"#utility.yul\":1198:1248   */\n      mstore\n      pop\n        /* \"#utility.yul\":1279:1281   */\n      0x40\n        /* \"#utility.yul\":1264:1282   */\n      add\n        /* \"#utility.yul\":1257:1291   */\n      mstore\n        /* \"#utility.yul\":1136:1189   */\n      swap2\n        /* \"#utility.yul\":925:1297   */\n      swap1\n      pop\n      jump\t// out\n        /* \"#utility.yul\":1411:1850   */\n    tag_483:\n        /* \"#utility.yul\":1464:1467   */\n      0x00\n        /* \"#utility.yul\":1502:1507   */\n      dup2\n        /* \"#utility.yul\":1496:1508   */\n      mload\n        /* \"#utility.yul\":1529:1535   */\n      dup1\n        /* \"#utility.yul\":1524:1527   */\n      dup5\n        /* \"#utility.yul\":1517:1536   */\n      mstore\n        /* \"#utility.yul\":1555:1559   */\n      0x20\n        /* \"#utility.yul\":1584:1588   */\n      dup1\n        /* \"#utility.yul\":1579:1582   */\n      dup6\n        /* \"#utility.yul\":1575:1589   */\n      add\n        /* \"#utility.yul\":1568:1589   */\n      swap5\n      pop\n        /* \"#utility.yul\":1623:1627   */\n      0x20\n        /* \"#utility.yul\":1616:1621   */\n      dup5\n        /* \"#utility.yul\":1612:1628   */\n      add\n        /* \"#utility.yul\":1646:1647   */\n      0x00\n        /* \"#utility.yul\":1656:1825   */\n    tag_505:\n        /* \"#utility.yul\":1670:1676   */\n      dup4\n        /* \"#utility.yul\":1667:1668   */\n      dup2\n        /* \"#utility.yul\":1664:1677   */\n      lt\n        /* \"#utility.yul\":1656:1825   */\n      iszero\n      tag_507\n      jumpi\n        /* \"#utility.yul\":1731:1744   */\n      dup2\n      mload\n        /* \"#utility.yul\":1719:1745   */\n      dup8\n      mstore\n        /* \"#utility.yul\":1765:1777   */\n      swap6\n      dup3\n      add\n      swap6\n        /* \"#utility.yul\":1800:1815   */\n      swap1\n      dup3\n      add\n      swap1\n        /* \"#utility.yul\":1692:1693   */\n      0x01\n        /* \"#utility.yul\":1685:1694   */\n      add\n        /* \"#utility.yul\":1656:1825   */\n      jump(tag_505)\n    tag_507:\n      pop\n        /* \"#utility.yul\":1841:1844   */\n      swap5\n      swap6\n        /* \"#utility.yul\":1411:1850   */\n      swap5\n      pop\n      pop\n      pop\n      pop\n      pop\n      jump\t// out\n        /* \"#utility.yul\":1855:3897   */\n    tag_47:\n        /* \"#utility.yul\":2053:2057   */\n      0x00\n        /* \"#utility.yul\":2082:2084   */\n      0x20\n        /* \"#utility.yul\":2122:2124   */\n      dup1\n        /* \"#utility.yul\":2111:2120   */\n      dup4\n        /* \"#utility.yul\":2107:2125   */\n      add\n        /* \"#utility.yul\":2152:2154   */\n      dup2\n        /* \"#utility.yul\":2141:2150   */\n      dup5\n        /* \"#utility.yul\":2134:2155   */\n      mstore\n        /* \"#utility.yul\":2175:2181   */\n      dup1\n        /* \"#utility.yul\":2210:2216   */\n      dup6\n        /* \"#utility.yul\":2204:2217   */\n      mload\n        /* \"#utility.yul\":2241:2247   */\n      dup1\n        /* \"#utility.yul\":2233:2239   */\n      dup4\n        /* \"#utility.yul\":2226:2248   */\n      mstore\n        /* \"#utility.yul\":2267:2269   */\n      0x40\n        /* \"#utility.yul\":2257:2269   */\n      swap3\n      pop\n        /* \"#utility.yul\":2300:2302   */\n      0x40\n        /* \"#utility.yul\":2289:2298   */\n      dup7\n        /* \"#utility.yul\":2285:2303   */\n      add\n        /* \"#utility.yul\":2278:2303   */\n      swap2\n      pop\n        /* \"#utility.yul\":2362:2364   */\n      0x40\n        /* \"#utility.yul\":2352:2358   */\n      dup2\n        /* \"#utility.yul\":2349:2350   */\n      0x05\n        /* \"#utility.yul\":2345:2359   */\n      shl\n        /* \"#utility.yul\":2334:2343   */\n      dup8\n        /* \"#utility.yul\":2330:2360   */\n      add\n        /* \"#utility.yul\":2326:2365   */\n      add\n        /* \"#utility.yul\":2400:2402   */\n      dup5\n        /* \"#utility.yul\":2392:2398   */\n      dup9\n        /* \"#utility.yul\":2388:2403   */\n      add\n        /* \"#utility.yul\":2421:2422   */\n      0x00\n        /* \"#utility.yul\":2431:3868   */\n    tag_509:\n        /* \"#utility.yul\":2445:2451   */\n      dup4\n        /* \"#utility.yul\":2442:2443   */\n      dup2\n        /* \"#utility.yul\":2439:2452   */\n      lt\n        /* \"#utility.yul\":2431:3868   */\n      iszero\n      tag_511\n      jumpi\n        /* \"#utility.yul\":2538:2540   */\n      0x3f\n        /* \"#utility.yul\":2534:2541   */\n      not\n        /* \"#utility.yul\":2522:2531   */\n      dup10\n        /* \"#utility.yul\":2514:2520   */\n      dup5\n        /* \"#utility.yul\":2510:2532   */\n      sub\n        /* \"#utility.yul\":2506:2542   */\n      add\n        /* \"#utility.yul\":2501:2504   */\n      dup6\n        /* \"#utility.yul\":2494:2543   */\n      mstore\n        /* \"#utility.yul\":2572:2578   */\n      dup2\n        /* \"#utility.yul\":2566:2579   */\n      mload\n        /* \"#utility.yul\":2602:2606   */\n      0xa0\n        /* \"#utility.yul\":2640:2642   */\n      dup2\n        /* \"#utility.yul\":2634:2643   */\n      mload\n        /* \"#utility.yul\":2626:2632   */\n      dup6\n        /* \"#utility.yul\":2619:2644   */\n      mstore\n        /* \"#utility.yul\":2691:2693   */\n      dup9\n        /* \"#utility.yul\":2687:2689   */\n      dup3\n        /* \"#utility.yul\":2683:2694   */\n      add\n        /* \"#utility.yul\":2677:2695   */\n      mload\n        /* \"#utility.yul\":2732:2734   */\n      dup2\n        /* \"#utility.yul\":2727:2729   */\n      dup11\n        /* \"#utility.yul\":2719:2725   */\n      dup8\n        /* \"#utility.yul\":2715:2730   */\n      add\n        /* \"#utility.yul\":2708:2735   */\n      mstore\n        /* \"#utility.yul\":2762:2810   */\n      tag_512\n        /* \"#utility.yul\":2806:2808   */\n      dup3\n        /* \"#utility.yul\":2798:2804   */\n      dup8\n        /* \"#utility.yul\":2794:2809   */\n      add\n        /* \"#utility.yul\":2780:2792   */\n      dup3\n        /* \"#utility.yul\":2762:2810   */\n      tag_481\n      jump\t// in\n    tag_512:\n        /* \"#utility.yul\":2851:2862   */\n      dup4\n      dup11\n      add\n        /* \"#utility.yul\":2845:2863   */\n      mload\n        /* \"#utility.yul\":2900:2919   */\n      dup8\n      dup3\n      sub\n        /* \"#utility.yul\":2883:2898   */\n      dup9\n      dup13\n      add\n        /* \"#utility.yul\":2876:2920   */\n      mstore\n        /* \"#utility.yul\":2981:3002   */\n      dup1\n      mload\n        /* \"#utility.yul\":3015:3039   */\n      dup1\n      dup4\n      mstore\n        /* \"#utility.yul\":3105:3128   */\n      swap1\n      dup13\n      add\n      swap4\n      pop\n        /* \"#utility.yul\":3152:3153   */\n      0x00\n      swap3\n      pop\n        /* \"#utility.yul\":3061:3076   */\n      swap1\n      dup12\n      add\n      swap1\n        /* \"#utility.yul\":3166:3401   */\n    tag_513:\n        /* \"#utility.yul\":3182:3190   */\n      dup1\n        /* \"#utility.yul\":3177:3180   */\n      dup4\n        /* \"#utility.yul\":3174:3191   */\n      lt\n        /* \"#utility.yul\":3166:3401   */\n      iszero\n      tag_515\n      jumpi\n        /* \"#utility.yul\":3263:3278   */\n      dup4\n      mload\n      sub(shl(0xa0, 0x01), 0x01)\n        /* \"#utility.yul\":3259:3300   */\n      and\n        /* \"#utility.yul\":3245:3301   */\n      dup3\n      mstore\n        /* \"#utility.yul\":3370:3387   */\n      swap3\n      dup12\n      add\n      swap3\n        /* \"#utility.yul\":3297:3298   */\n      0x01\n        /* \"#utility.yul\":3201:3212   */\n      swap3\n      swap1\n      swap3\n      add\n      swap2\n        /* \"#utility.yul\":3327:3341   */\n      swap1\n      dup12\n      add\n      swap1\n        /* \"#utility.yul\":3166:3401   */\n      jump(tag_513)\n    tag_515:\n        /* \"#utility.yul\":3170:3173   */\n      pop\n        /* \"#utility.yul\":3424:3428   */\n      0x60\n        /* \"#utility.yul\":3414:3428   */\n      swap3\n      pop\n        /* \"#utility.yul\":3477:3479   */\n      dup3\n        /* \"#utility.yul\":3473:3475   */\n      dup5\n        /* \"#utility.yul\":3469:3480   */\n      add\n        /* \"#utility.yul\":3463:3481   */\n      mload\n        /* \"#utility.yul\":3441:3481   */\n      swap2\n      pop\n        /* \"#utility.yul\":3529:3535   */\n      dup7\n        /* \"#utility.yul\":3522:3527   */\n      dup2\n        /* \"#utility.yul\":3518:3536   */\n      sub\n        /* \"#utility.yul\":3513:3515   */\n      dup4\n        /* \"#utility.yul\":3505:3511   */\n      dup9\n        /* \"#utility.yul\":3501:3516   */\n      add\n        /* \"#utility.yul\":3494:3537   */\n      mstore\n        /* \"#utility.yul\":3564:3615   */\n      tag_516\n        /* \"#utility.yul\":3609:3614   */\n      dup2\n        /* \"#utility.yul\":3593:3607   */\n      dup4\n        /* \"#utility.yul\":3564:3615   */\n      tag_483\n      jump\t// in\n    tag_516:\n        /* \"#utility.yul\":3550:3615   */\n      swap3\n      pop\n      pop\n      pop\n        /* \"#utility.yul\":3638:3642   */\n      0x80\n        /* \"#utility.yul\":3691:3693   */\n      dup1\n        /* \"#utility.yul\":3687:3689   */\n      dup4\n        /* \"#utility.yul\":3683:3694   */\n      add\n        /* \"#utility.yul\":3677:3695   */\n      mload\n        /* \"#utility.yul\":3655:3695   */\n      swap3\n      pop\n        /* \"#utility.yul\":3708:3759   */\n      tag_517\n        /* \"#utility.yul\":3755:3757   */\n      dup2\n        /* \"#utility.yul\":3747:3753   */\n      dup8\n        /* \"#utility.yul\":3743:3758   */\n      add\n        /* \"#utility.yul\":3727:3741   */\n      dup5\n      sub(shl(0xa0, 0x01), 0x01)\n        /* \"#utility.yul\":1368:1399   */\n      and\n        /* \"#utility.yul\":1356:1400   */\n      swap1\n      mstore\n        /* \"#utility.yul\":1302:1406   */\n      jump\n        /* \"#utility.yul\":3708:3759   */\n    tag_517:\n      pop\n        /* \"#utility.yul\":3846:3858   */\n      swap6\n      dup9\n      add\n      swap6\n        /* \"#utility.yul\":3782:3788   */\n      swap4\n      pop\n      pop\n        /* \"#utility.yul\":3811:3826   */\n      swap1\n      dup7\n      add\n      swap1\n        /* \"#utility.yul\":2467:2468   */\n      0x01\n        /* \"#utility.yul\":2460:2469   */\n      add\n        /* \"#utility.yul\":2431:3868   */\n      jump(tag_509)\n    tag_511:\n      pop\n        /* \"#utility.yul\":3885:3891   */\n      swap1\n      swap9\n        /* \"#utility.yul\":1855:3897   */\n      swap8\n      pop\n      pop\n      pop\n      pop\n      pop\n      pop\n      pop\n      pop\n      jump\t// out\n        /* \"#utility.yul\":3902:4082   */\n    tag_50:\n        /* \"#utility.yul\":3961:3967   */\n      0x00\n        /* \"#utility.yul\":4014:4016   */\n      0x20\n        /* \"#utility.yul\":4002:4011   */\n      dup3\n        /* \"#utility.yul\":3993:4000   */\n      dup5\n        /* \"#utility.yul\":3989:4012   */\n      sub\n        /* \"#utility.yul\":3985:4017   */\n      slt\n        /* \"#utility.yul\":3982:4034   */\n      iszero\n      tag_519\n      jumpi\n        /* \"#utility.yul\":4030:4031   */\n      0x00\n        /* \"#utility.yul\":4027:4028   */\n      dup1\n        /* \"#utility.yul\":4020:4032   */\n      revert\n        /* \"#utility.yul\":3982:4034   */\n    tag_519:\n      pop\n        /* \"#utility.yul\":4053:4076   */\n      calldataload\n      swap2\n        /* \"#utility.yul\":3902:4082   */\n      swap1\n      pop\n      jump\t// out\n        /* \"#utility.yul\":4087:4214   */\n    tag_203:\n        /* \"#utility.yul\":4148:4158   */\n      0x4e487b71\n        /* \"#utility.yul\":4143:4146   */\n      0xe0\n        /* \"#utility.yul\":4139:4159   */\n      shl\n        /* \"#utility.yul\":4136:4137   */\n      0x00\n        /* \"#utility.yul\":4129:4160   */\n      mstore\n        /* \"#utility.yul\":4179:4183   */\n      0x21\n        /* \"#utility.yul\":4176:4177   */\n      0x04\n        /* \"#utility.yul\":4169:4184   */\n      mstore\n        /* \"#utility.yul\":4203:4207   */\n      0x24\n        /* \"#utility.yul\":4200:4201   */\n      0x00\n        /* \"#utility.yul\":4193:4208   */\n      revert\n        /* \"#utility.yul\":4219:4452   */\n    tag_484:\n        /* \"#utility.yul\":4296:4297   */\n      0x03\n        /* \"#utility.yul\":4289:4294   */\n      dup2\n        /* \"#utility.yul\":4286:4298   */\n      lt\n        /* \"#utility.yul\":4276:4419   */\n      tag_522\n      jumpi\n        /* \"#utility.yul\":4341:4351   */\n      0x4e487b71\n        /* \"#utility.yul\":4336:4339   */\n      0xe0\n        /* \"#utility.yul\":4332:4352   */\n      shl\n        /* \"#utility.yul\":4329:4330   */\n      0x00\n        /* \"#utility.yul\":4322:4353   */\n      mstore\n        /* \"#utility.yul\":4376:4380   */\n      0x21\n        /* \"#utility.yul\":4373:4374   */\n      0x04\n        /* \"#utility.yul\":4366:4381   */\n      mstore\n        /* \"#utility.yul\":4404:4408   */\n      0x24\n        /* \"#utility.yul\":4401:4402   */\n      0x00\n        /* \"#utility.yul\":4394:4409   */\n      revert\n        /* \"#utility.yul\":4276:4419   */\n    tag_522:\n        /* \"#utility.yul\":4428:4446   */\n      swap1\n      mstore\n        /* \"#utility.yul\":4219:4452   */\n      jump\t// out\n        /* \"#utility.yul\":4457:5840   */\n    tag_53:\n        /* \"#utility.yul\":4643:4647   */\n      0x00\n        /* \"#utility.yul\":4672:4674   */\n      0x20\n        /* \"#utility.yul\":4712:4714   */\n      dup1\n        /* \"#utility.yul\":4701:4710   */\n      dup4\n        /* \"#utility.yul\":4697:4715   */\n      add\n        /* \"#utility.yul\":4742:4744   */\n      dup2\n        /* \"#utility.yul\":4731:4740   */\n      dup5\n        /* \"#utility.yul\":4724:4745   */\n      mstore\n        /* \"#utility.yul\":4765:4771   */\n      dup1\n        /* \"#utility.yul\":4800:4806   */\n      dup6\n        /* \"#utility.yul\":4794:4807   */\n      mload\n        /* \"#utility.yul\":4831:4837   */\n      dup1\n        /* \"#utility.yul\":4823:4829   */\n      dup4\n        /* \"#utility.yul\":4816:4838   */\n      mstore\n        /* \"#utility.yul\":4857:4859   */\n      0x40\n        /* \"#utility.yul\":4847:4859   */\n      swap3\n      pop\n        /* \"#utility.yul\":4890:4892   */\n      0x40\n        /* \"#utility.yul\":4879:4888   */\n      dup7\n        /* \"#utility.yul\":4875:4893   */\n      add\n        /* \"#utility.yul\":4868:4893   */\n      swap2\n      pop\n        /* \"#utility.yul\":4952:4954   */\n      0x40\n        /* \"#utility.yul\":4942:4948   */\n      dup2\n        /* \"#utility.yul\":4939:4940   */\n      0x05\n        /* \"#utility.yul\":4935:4949   */\n      shl\n        /* \"#utility.yul\":4924:4933   */\n      dup8\n        /* \"#utility.yul\":4920:4950   */\n      add\n        /* \"#utility.yul\":4916:4955   */\n      add\n        /* \"#utility.yul\":4990:4992   */\n      dup5\n        /* \"#utility.yul\":4982:4988   */\n      dup9\n        /* \"#utility.yul\":4978:4993   */\n      add\n        /* \"#utility.yul\":5011:5012   */\n      0x00\n        /* \"#utility.yul\":5021:5811   */\n    tag_524:\n        /* \"#utility.yul\":5035:5041   */\n      dup4\n        /* \"#utility.yul\":5032:5033   */\n      dup2\n        /* \"#utility.yul\":5029:5042   */\n      lt\n        /* \"#utility.yul\":5021:5811   */\n      iszero\n      tag_511\n      jumpi\n        /* \"#utility.yul\":5128:5130   */\n      0x3f\n        /* \"#utility.yul\":5124:5131   */\n      not\n        /* \"#utility.yul\":5112:5121   */\n      dup10\n        /* \"#utility.yul\":5104:5110   */\n      dup5\n        /* \"#utility.yul\":5100:5122   */\n      sub\n        /* \"#utility.yul\":5096:5132   */\n      add\n        /* \"#utility.yul\":5091:5094   */\n      dup6\n        /* \"#utility.yul\":5084:5133   */\n      mstore\n        /* \"#utility.yul\":5162:5168   */\n      dup2\n        /* \"#utility.yul\":5156:5169   */\n      mload\n        /* \"#utility.yul\":5192:5196   */\n      0xa0\n        /* \"#utility.yul\":5230:5232   */\n      dup2\n        /* \"#utility.yul\":5224:5233   */\n      mload\n        /* \"#utility.yul\":5216:5222   */\n      dup6\n        /* \"#utility.yul\":5209:5234   */\n      mstore\n        /* \"#utility.yul\":5281:5283   */\n      dup9\n        /* \"#utility.yul\":5277:5279   */\n      dup3\n        /* \"#utility.yul\":5273:5284   */\n      add\n        /* \"#utility.yul\":5267:5285   */\n      mload\n        /* \"#utility.yul\":5322:5324   */\n      dup2\n        /* \"#utility.yul\":5317:5319   */\n      dup11\n        /* \"#utility.yul\":5309:5315   */\n      dup8\n        /* \"#utility.yul\":5305:5320   */\n      add\n        /* \"#utility.yul\":5298:5325   */\n      mstore\n        /* \"#utility.yul\":5352:5400   */\n      tag_527\n        /* \"#utility.yul\":5396:5398   */\n      dup3\n        /* \"#utility.yul\":5388:5394   */\n      dup8\n        /* \"#utility.yul\":5384:5399   */\n      add\n        /* \"#utility.yul\":5370:5382   */\n      dup3\n        /* \"#utility.yul\":5352:5400   */\n      tag_481\n      jump\t// in\n    tag_527:\n        /* \"#utility.yul\":5338:5400   */\n      swap2\n      pop\n      pop\n        /* \"#utility.yul\":5465:5467   */\n      dup8\n        /* \"#utility.yul\":5461:5463   */\n      dup3\n        /* \"#utility.yul\":5457:5468   */\n      add\n        /* \"#utility.yul\":5451:5469   */\n      mload\n        /* \"#utility.yul\":5444:5470   */\n      iszero\n        /* \"#utility.yul\":5437:5471   */\n      iszero\n        /* \"#utility.yul\":5432:5434   */\n      dup9\n        /* \"#utility.yul\":5424:5430   */\n      dup7\n        /* \"#utility.yul\":5420:5435   */\n      add\n        /* \"#utility.yul\":5413:5472   */\n      mstore\n        /* \"#utility.yul\":5495:5499   */\n      0x60\n        /* \"#utility.yul\":5548:5550   */\n      dup1\n        /* \"#utility.yul\":5544:5546   */\n      dup4\n        /* \"#utility.yul\":5540:5551   */\n      add\n        /* \"#utility.yul\":5534:5552   */\n      mload\n        /* \"#utility.yul\":5565:5619   */\n      tag_528\n        /* \"#utility.yul\":5615:5617   */\n      dup3\n        /* \"#utility.yul\":5607:5613   */\n      dup9\n        /* \"#utility.yul\":5603:5618   */\n      add\n        /* \"#utility.yul\":5587:5601   */\n      dup3\n        /* \"#utility.yul\":5565:5619   */\n      tag_484\n      jump\t// in\n    tag_528:\n      pop\n      pop\n        /* \"#utility.yul\":5642:5646   */\n      0x80\n        /* \"#utility.yul\":5689:5700   */\n      swap2\n      dup3\n      add\n        /* \"#utility.yul\":5683:5701   */\n      mload\n        /* \"#utility.yul\":5666:5681   */\n      swap5\n      swap1\n      swap2\n      add\n        /* \"#utility.yul\":5659:5702   */\n      swap4\n      swap1\n      swap4\n      mstore\n        /* \"#utility.yul\":5789:5801   */\n      swap4\n      dup7\n      add\n      swap4\n        /* \"#utility.yul\":5754:5769   */\n      swap1\n      dup7\n      add\n      swap1\n        /* \"#utility.yul\":5057:5058   */\n      0x01\n        /* \"#utility.yul\":5050:5059   */\n      add\n        /* \"#utility.yul\":5021:5811   */\n      jump(tag_524)\n        /* \"#utility.yul\":5845:6018   */\n    tag_485:\n        /* \"#utility.yul\":5913:5933   */\n      dup1\n      calldataload\n      sub(shl(0xa0, 0x01), 0x01)\n        /* \"#utility.yul\":5962:5993   */\n      dup2\n      and\n        /* \"#utility.yul\":5952:5994   */\n      dup2\n      eq\n        /* \"#utility.yul\":5942:6012   */\n      tag_530\n      jumpi\n        /* \"#utility.yul\":6008:6009   */\n      0x00\n        /* \"#utility.yul\":6005:6006   */\n      dup1\n        /* \"#utility.yul\":5998:6010   */\n      revert\n        /* \"#utility.yul\":5942:6012   */\n    tag_530:\n        /* \"#utility.yul\":5845:6018   */\n      swap2\n      swap1\n      pop\n      jump\t// out\n        /* \"#utility.yul\":6023:6438   */\n    tag_56:\n        /* \"#utility.yul\":6097:6103   */\n      0x00\n        /* \"#utility.yul\":6105:6111   */\n      dup1\n        /* \"#utility.yul\":6113:6119   */\n      0x00\n        /* \"#utility.yul\":6166:6168   */\n      0x60\n        /* \"#utility.yul\":6154:6163   */\n      dup5\n        /* \"#utility.yul\":6145:6152   */\n      dup7\n        /* \"#utility.yul\":6141:6164   */\n      sub\n        /* \"#utility.yul\":6137:6169   */\n      slt\n        /* \"#utility.yul\":6134:6186   */\n      iszero\n      tag_532\n      jumpi\n        /* \"#utility.yul\":6182:6183   */\n      0x00\n        /* \"#utility.yul\":6179:6180   */\n      dup1\n        /* \"#utility.yul\":6172:6184   */\n      revert\n        /* \"#utility.yul\":6134:6186   */\n    tag_532:\n        /* \"#utility.yul\":6218:6227   */\n      dup4\n        /* \"#utility.yul\":6205:6228   */\n      calldataload\n        /* \"#utility.yul\":6195:6228   */\n      swap3\n      pop\n        /* \"#utility.yul\":6278:6280   */\n      0x20\n        /* \"#utility.yul\":6267:6276   */\n      dup5\n        /* \"#utility.yul\":6263:6281   */\n      add\n        /* \"#utility.yul\":6250:6282   */\n      calldataload\n        /* \"#utility.yul\":6325:6330   */\n      dup1\n        /* \"#utility.yul\":6318:6331   */\n      iszero\n        /* \"#utility.yul\":6311:6332   */\n      iszero\n        /* \"#utility.yul\":6304:6309   */\n      dup2\n        /* \"#utility.yul\":6301:6333   */\n      eq\n        /* \"#utility.yul\":6291:6351   */\n      tag_533\n      jumpi\n        /* \"#utility.yul\":6347:6348   */\n      0x00\n        /* \"#utility.yul\":6344:6345   */\n      dup1\n        /* \"#utility.yul\":6337:6349   */\n      revert\n        /* \"#utility.yul\":6291:6351   */\n    tag_533:\n        /* \"#utility.yul\":6370:6375   */\n      swap2\n      pop\n        /* \"#utility.yul\":6394:6432   */\n      tag_534\n        /* \"#utility.yul\":6428:6430   */\n      0x40\n        /* \"#utility.yul\":6413:6431   */\n      dup6\n      add\n        /* \"#utility.yul\":6394:6432   */\n      tag_485\n      jump\t// in\n    tag_534:\n        /* \"#utility.yul\":6384:6432   */\n      swap1\n      pop\n        /* \"#utility.yul\":6023:6438   */\n      swap3\n      pop\n      swap3\n      pop\n      swap3\n      jump\t// out\n        /* \"#utility.yul\":6992:7246   */\n    tag_71:\n        /* \"#utility.yul\":7060:7066   */\n      0x00\n        /* \"#utility.yul\":7068:7074   */\n      dup1\n        /* \"#utility.yul\":7121:7123   */\n      0x40\n        /* \"#utility.yul\":7109:7118   */\n      dup4\n        /* \"#utility.yul\":7100:7107   */\n      dup6\n        /* \"#utility.yul\":7096:7119   */\n      sub\n        /* \"#utility.yul\":7092:7124   */\n      slt\n        /* \"#utility.yul\":7089:7141   */\n      iszero\n      tag_540\n      jumpi\n        /* \"#utility.yul\":7137:7138   */\n      0x00\n        /* \"#utility.yul\":7134:7135   */\n      dup1\n        /* \"#utility.yul\":7127:7139   */\n      revert\n        /* \"#utility.yul\":7089:7141   */\n    tag_540:\n        /* \"#utility.yul\":7173:7182   */\n      dup3\n        /* \"#utility.yul\":7160:7183   */\n      calldataload\n        /* \"#utility.yul\":7150:7183   */\n      swap2\n      pop\n        /* \"#utility.yul\":7202:7240   */\n      tag_541\n        /* \"#utility.yul\":7236:7238   */\n      0x20\n        /* \"#utility.yul\":7225:7234   */\n      dup5\n        /* \"#utility.yul\":7221:7239   */\n      add\n        /* \"#utility.yul\":7202:7240   */\n      tag_485\n      jump\t// in\n    tag_541:\n        /* \"#utility.yul\":7192:7240   */\n      swap1\n      pop\n        /* \"#utility.yul\":6992:7246   */\n      swap3\n      pop\n      swap3\n      swap1\n      pop\n      jump\t// out\n        /* \"#utility.yul\":7251:7378   */\n    tag_159:\n        /* \"#utility.yul\":7312:7322   */\n      0x4e487b71\n        /* \"#utility.yul\":7307:7310   */\n      0xe0\n        /* \"#utility.yul\":7303:7323   */\n      shl\n        /* \"#utility.yul\":7300:7301   */\n      0x00\n        /* \"#utility.yul\":7293:7324   */\n      mstore\n        /* \"#utility.yul\":7343:7347   */\n      0x41\n        /* \"#utility.yul\":7340:7341   */\n      0x04\n        /* \"#utility.yul\":7333:7348   */\n      mstore\n        /* \"#utility.yul\":7367:7371   */\n      0x24\n        /* \"#utility.yul\":7364:7365   */\n      0x00\n        /* \"#utility.yul\":7357:7372   */\n      revert\n        /* \"#utility.yul\":7383:7658   */\n    tag_486:\n        /* \"#utility.yul\":7454:7456   */\n      0x40\n        /* \"#utility.yul\":7448:7457   */\n      mload\n        /* \"#utility.yul\":7519:7521   */\n      0x1f\n        /* \"#utility.yul\":7500:7513   */\n      dup3\n      add\n      not(0x1f)\n        /* \"#utility.yul\":7496:7523   */\n      and\n        /* \"#utility.yul\":7484:7524   */\n      dup2\n      add\n        /* \"#utility.yul\":7554:7572   */\n      0xffffffffffffffff\n        /* \"#utility.yul\":7539:7573   */\n      dup2\n      gt\n        /* \"#utility.yul\":7575:7597   */\n      dup3\n      dup3\n      lt\n        /* \"#utility.yul\":7536:7598   */\n      or\n        /* \"#utility.yul\":7533:7621   */\n      iszero\n      tag_545\n      jumpi\n        /* \"#utility.yul\":7601:7619   */\n      tag_545\n      tag_159\n      jump\t// in\n    tag_545:\n        /* \"#utility.yul\":7637:7639   */\n      0x40\n        /* \"#utility.yul\":7630:7652   */\n      mstore\n        /* \"#utility.yul\":7383:7658   */\n      swap2\n      swap1\n      pop\n      jump\t// out\n        /* \"#utility.yul\":7663:8194   */\n    tag_487:\n        /* \"#utility.yul\":7706:7711   */\n      0x00\n        /* \"#utility.yul\":7759:7762   */\n      dup3\n        /* \"#utility.yul\":7752:7756   */\n      0x1f\n        /* \"#utility.yul\":7744:7750   */\n      dup4\n        /* \"#utility.yul\":7740:7757   */\n      add\n        /* \"#utility.yul\":7736:7763   */\n      slt\n        /* \"#utility.yul\":7726:7781   */\n      tag_547\n      jumpi\n        /* \"#utility.yul\":7777:7778   */\n      0x00\n        /* \"#utility.yul\":7774:7775   */\n      dup1\n        /* \"#utility.yul\":7767:7779   */\n      revert\n        /* \"#utility.yul\":7726:7781   */\n    tag_547:\n        /* \"#utility.yul\":7813:7819   */\n      dup2\n        /* \"#utility.yul\":7800:7820   */\n      calldataload\n        /* \"#utility.yul\":7839:7857   */\n      0xffffffffffffffff\n        /* \"#utility.yul\":7835:7837   */\n      dup2\n        /* \"#utility.yul\":7832:7858   */\n      gt\n        /* \"#utility.yul\":7829:7881   */\n      iszero\n      tag_549\n      jumpi\n        /* \"#utility.yul\":7861:7879   */\n      tag_549\n      tag_159\n      jump\t// in\n    tag_549:\n        /* \"#utility.yul\":7905:7960   */\n      tag_550\n        /* \"#utility.yul\":7948:7950   */\n      0x1f\n        /* \"#utility.yul\":7929:7942   */\n      dup3\n      add\n      not(0x1f)\n        /* \"#utility.yul\":7925:7952   */\n      and\n        /* \"#utility.yul\":7954:7958   */\n      0x20\n        /* \"#utility.yul\":7921:7959   */\n      add\n        /* \"#utility.yul\":7905:7960   */\n      tag_486\n      jump\t// in\n    tag_550:\n        /* \"#utility.yul\":7985:7987   */\n      dup2\n        /* \"#utility.yul\":7976:7983   */\n      dup2\n        /* \"#utility.yul\":7969:7988   */\n      mstore\n        /* \"#utility.yul\":8031:8034   */\n      dup5\n        /* \"#utility.yul\":8024:8028   */\n      0x20\n        /* \"#utility.yul\":8019:8021   */\n      dup4\n        /* \"#utility.yul\":8011:8017   */\n      dup7\n        /* \"#utility.yul\":8007:8022   */\n      add\n        /* \"#utility.yul\":8003:8029   */\n      add\n        /* \"#utility.yul\":8000:8035   */\n      gt\n        /* \"#utility.yul\":7997:8052   */\n      iszero\n      tag_551\n      jumpi\n        /* \"#utility.yul\":8048:8049   */\n      0x00\n        /* \"#utility.yul\":8045:8046   */\n      dup1\n        /* \"#utility.yul\":8038:8050   */\n      revert\n        /* \"#utility.yul\":7997:8052   */\n    tag_551:\n        /* \"#utility.yul\":8113:8115   */\n      dup2\n        /* \"#utility.yul\":8106:8110   */\n      0x20\n        /* \"#utility.yul\":8098:8104   */\n      dup6\n        /* \"#utility.yul\":8094:8111   */\n      add\n        /* \"#utility.yul\":8087:8091   */\n      0x20\n        /* \"#utility.yul\":8078:8085   */\n      dup4\n        /* \"#utility.yul\":8074:8092   */\n      add\n        /* \"#utility.yul\":8061:8116   */\n      calldatacopy\n        /* \"#utility.yul\":8161:8162   */\n      0x00\n        /* \"#utility.yul\":8136:8152   */\n      swap2\n      dup2\n      add\n        /* \"#utility.yul\":8154:8158   */\n      0x20\n        /* \"#utility.yul\":8132:8159   */\n      add\n        /* \"#utility.yul\":8125:8163   */\n      swap2\n      swap1\n      swap2\n      mstore\n        /* \"#utility.yul\":8140:8147   */\n      swap4\n        /* \"#utility.yul\":7663:8194   */\n      swap3\n      pop\n      pop\n      pop\n      jump\t// out\n        /* \"#utility.yul\":8199:8891   */\n    tag_80:\n        /* \"#utility.yul\":8305:8311   */\n      0x00\n        /* \"#utility.yul\":8313:8319   */\n      dup1\n        /* \"#utility.yul\":8321:8327   */\n      0x00\n        /* \"#utility.yul\":8329:8335   */\n      dup1\n        /* \"#utility.yul\":8382:8385   */\n      0x80\n        /* \"#utility.yul\":8370:8379   */\n      dup6\n        /* \"#utility.yul\":8361:8368   */\n      dup8\n        /* \"#utility.yul\":8357:8380   */\n      sub\n        /* \"#utility.yul\":8353:8386   */\n      slt\n        /* \"#utility.yul\":8350:8403   */\n      iszero\n      tag_553\n      jumpi\n        /* \"#utility.yul\":8399:8400   */\n      0x00\n        /* \"#utility.yul\":8396:8397   */\n      dup1\n        /* \"#utility.yul\":8389:8401   */\n      revert\n        /* \"#utility.yul\":8350:8403   */\n    tag_553:\n        /* \"#utility.yul\":8422:8451   */\n      tag_554\n        /* \"#utility.yul\":8441:8450   */\n      dup6\n        /* \"#utility.yul\":8422:8451   */\n      tag_485\n      jump\t// in\n    tag_554:\n        /* \"#utility.yul\":8412:8451   */\n      swap4\n      pop\n        /* \"#utility.yul\":8502:8504   */\n      0x20\n        /* \"#utility.yul\":8491:8500   */\n      dup6\n        /* \"#utility.yul\":8487:8505   */\n      add\n        /* \"#utility.yul\":8474:8506   */\n      calldataload\n        /* \"#utility.yul\":8525:8543   */\n      0xffffffffffffffff\n        /* \"#utility.yul\":8566:8568   */\n      dup1\n        /* \"#utility.yul\":8558:8564   */\n      dup3\n        /* \"#utility.yul\":8555:8569   */\n      gt\n        /* \"#utility.yul\":8552:8586   */\n      iszero\n      tag_555\n      jumpi\n        /* \"#utility.yul\":8582:8583   */\n      0x00\n        /* \"#utility.yul\":8579:8580   */\n      dup1\n        /* \"#utility.yul\":8572:8584   */\n      revert\n        /* \"#utility.yul\":8552:8586   */\n    tag_555:\n        /* \"#utility.yul\":8605:8655   */\n      tag_556\n        /* \"#utility.yul\":8647:8654   */\n      dup9\n        /* \"#utility.yul\":8638:8644   */\n      dup4\n        /* \"#utility.yul\":8627:8636   */\n      dup10\n        /* \"#utility.yul\":8623:8645   */\n      add\n        /* \"#utility.yul\":8605:8655   */\n      tag_487\n      jump\t// in\n    tag_556:\n        /* \"#utility.yul\":8595:8655   */\n      swap5\n      pop\n        /* \"#utility.yul\":8674:8712   */\n      tag_557\n        /* \"#utility.yul\":8708:8710   */\n      0x40\n        /* \"#utility.yul\":8697:8706   */\n      dup9\n        /* \"#utility.yul\":8693:8711   */\n      add\n        /* \"#utility.yul\":8674:8712   */\n      tag_485\n      jump\t// in\n    tag_557:\n        /* \"#utility.yul\":8664:8712   */\n      swap4\n      pop\n        /* \"#utility.yul\":8765:8767   */\n      0x60\n        /* \"#utility.yul\":8754:8763   */\n      dup8\n        /* \"#utility.yul\":8750:8768   */\n      add\n        /* \"#utility.yul\":8737:8769   */\n      calldataload\n        /* \"#utility.yul\":8721:8769   */\n      swap2\n      pop\n        /* \"#utility.yul\":8794:8796   */\n      dup1\n        /* \"#utility.yul\":8784:8792   */\n      dup3\n        /* \"#utility.yul\":8781:8797   */\n      gt\n        /* \"#utility.yul\":8778:8814   */\n      iszero\n      tag_558\n      jumpi\n        /* \"#utility.yul\":8810:8811   */\n      0x00\n        /* \"#utility.yul\":8807:8808   */\n      dup1\n        /* \"#utility.yul\":8800:8812   */\n      revert\n        /* \"#utility.yul\":8778:8814   */\n    tag_558:\n      pop\n        /* \"#utility.yul\":8833:8885   */\n      tag_559\n        /* \"#utility.yul\":8877:8884   */\n      dup8\n        /* \"#utility.yul\":8866:8874   */\n      dup3\n        /* \"#utility.yul\":8855:8864   */\n      dup9\n        /* \"#utility.yul\":8851:8875   */\n      add\n        /* \"#utility.yul\":8833:8885   */\n      tag_487\n      jump\t// in\n    tag_559:\n        /* \"#utility.yul\":8823:8885   */\n      swap2\n      pop\n      pop\n        /* \"#utility.yul\":8199:8891   */\n      swap3\n      swap6\n      swap2\n      swap5\n      pop\n      swap3\n      pop\n      jump\t// out\n        /* \"#utility.yul\":9104:9352   */\n    tag_98:\n        /* \"#utility.yul\":9172:9178   */\n      0x00\n        /* \"#utility.yul\":9180:9186   */\n      dup1\n        /* \"#utility.yul\":9233:9235   */\n      0x40\n        /* \"#utility.yul\":9221:9230   */\n      dup4\n        /* \"#utility.yul\":9212:9219   */\n      dup6\n        /* \"#utility.yul\":9208:9231   */\n      sub\n        /* \"#utility.yul\":9204:9236   */\n      slt\n        /* \"#utility.yul\":9201:9253   */\n      iszero\n      tag_562\n      jumpi\n        /* \"#utility.yul\":9249:9250   */\n      0x00\n        /* \"#utility.yul\":9246:9247   */\n      dup1\n        /* \"#utility.yul\":9239:9251   */\n      revert\n        /* \"#utility.yul\":9201:9253   */\n    tag_562:\n      pop\n      pop\n        /* \"#utility.yul\":9272:9295   */\n      dup1\n      calldataload\n      swap3\n        /* \"#utility.yul\":9342:9344   */\n      0x20\n        /* \"#utility.yul\":9327:9345   */\n      swap1\n      swap2\n      add\n        /* \"#utility.yul\":9314:9346   */\n      calldataload\n      swap2\n      pop\n        /* \"#utility.yul\":9104:9352   */\n      jump\t// out\n        /* \"#utility.yul\":9357:9897   */\n    tag_101:\n        /* \"#utility.yul\":9620:9626   */\n      dup6\n        /* \"#utility.yul\":9609:9618   */\n      dup2\n        /* \"#utility.yul\":9602:9627   */\n      mstore\n        /* \"#utility.yul\":9663:9666   */\n      0xa0\n        /* \"#utility.yul\":9658:9660   */\n      0x20\n        /* \"#utility.yul\":9647:9656   */\n      dup3\n        /* \"#utility.yul\":9643:9661   */\n      add\n        /* \"#utility.yul\":9636:9667   */\n      mstore\n        /* \"#utility.yul\":9583:9587   */\n      0x00\n        /* \"#utility.yul\":9684:9730   */\n      tag_564\n        /* \"#utility.yul\":9725:9728   */\n      0xa0\n        /* \"#utility.yul\":9714:9723   */\n      dup4\n        /* \"#utility.yul\":9710:9729   */\n      add\n        /* \"#utility.yul\":9702:9708   */\n      dup8\n        /* \"#utility.yul\":9684:9730   */\n      tag_481\n      jump\t// in\n    tag_564:\n        /* \"#utility.yul\":9676:9730   */\n      swap1\n      pop\n        /* \"#utility.yul\":9780:9786   */\n      dup5\n        /* \"#utility.yul\":9773:9787   */\n      iszero\n        /* \"#utility.yul\":9766:9788   */\n      iszero\n        /* \"#utility.yul\":9761:9763   */\n      0x40\n        /* \"#utility.yul\":9750:9759   */\n      dup4\n        /* \"#utility.yul\":9746:9764   */\n      add\n        /* \"#utility.yul\":9739:9789   */\n      mstore\n        /* \"#utility.yul\":9798:9847   */\n      tag_565\n        /* \"#utility.yul\":9843:9845   */\n      0x60\n        /* \"#utility.yul\":9832:9841   */\n      dup4\n        /* \"#utility.yul\":9828:9846   */\n      add\n        /* \"#utility.yul\":9820:9826   */\n      dup6\n        /* \"#utility.yul\":9798:9847   */\n      tag_484\n      jump\t// in\n    tag_565:\n        /* \"#utility.yul\":9884:9890   */\n      dup3\n        /* \"#utility.yul\":9878:9881   */\n      0x80\n        /* \"#utility.yul\":9867:9876   */\n      dup4\n        /* \"#utility.yul\":9863:9882   */\n      add\n        /* \"#utility.yul\":9856:9891   */\n      mstore\n        /* \"#utility.yul\":9357:9897   */\n      swap7\n      swap6\n      pop\n      pop\n      pop\n      pop\n      pop\n      pop\n      jump\t// out\n        /* \"#utility.yul\":9902:10122   */\n    tag_108:\n        /* \"#utility.yul\":10051:10053   */\n      0x20\n        /* \"#utility.yul\":10040:10049   */\n      dup2\n        /* \"#utility.yul\":10033:10054   */\n      mstore\n        /* \"#utility.yul\":10014:10018   */\n      0x00\n        /* \"#utility.yul\":10071:10116   */\n      tag_464\n        /* \"#utility.yul\":10112:10114   */\n      0x20\n        /* \"#utility.yul\":10101:10110   */\n      dup4\n        /* \"#utility.yul\":10097:10115   */\n      add\n        /* \"#utility.yul\":10089:10095   */\n      dup5\n        /* \"#utility.yul\":10071:10116   */\n      tag_481\n      jump\t// in\n        /* \"#utility.yul\":10127:10591   */\n    tag_111:\n        /* \"#utility.yul\":10214:10220   */\n      0x00\n        /* \"#utility.yul\":10222:10228   */\n      dup1\n        /* \"#utility.yul\":10230:10236   */\n      0x00\n        /* \"#utility.yul\":10283:10285   */\n      0x60\n        /* \"#utility.yul\":10271:10280   */\n      dup5\n        /* \"#utility.yul\":10262:10269   */\n      dup7\n        /* \"#utility.yul\":10258:10281   */\n      sub\n        /* \"#utility.yul\":10254:10286   */\n      slt\n        /* \"#utility.yul\":10251:10303   */\n      iszero\n      tag_569\n      jumpi\n        /* \"#utility.yul\":10299:10300   */\n      0x00\n        /* \"#utility.yul\":10296:10297   */\n      dup1\n        /* \"#utility.yul\":10289:10301   */\n      revert\n        /* \"#utility.yul\":10251:10303   */\n    tag_569:\n        /* \"#utility.yul\":10335:10344   */\n      dup4\n        /* \"#utility.yul\":10322:10345   */\n      calldataload\n        /* \"#utility.yul\":10312:10345   */\n      swap3\n      pop\n        /* \"#utility.yul\":10396:10398   */\n      0x20\n        /* \"#utility.yul\":10385:10394   */\n      dup5\n        /* \"#utility.yul\":10381:10399   */\n      add\n        /* \"#utility.yul\":10368:10400   */\n      calldataload\n        /* \"#utility.yul\":10423:10441   */\n      0xffffffffffffffff\n        /* \"#utility.yul\":10415:10421   */\n      dup2\n        /* \"#utility.yul\":10412:10442   */\n      gt\n        /* \"#utility.yul\":10409:10459   */\n      iszero\n      tag_570\n      jumpi\n        /* \"#utility.yul\":10455:10456   */\n      0x00\n        /* \"#utility.yul\":10452:10453   */\n      dup1\n        /* \"#utility.yul\":10445:10457   */\n      revert\n        /* \"#utility.yul\":10409:10459   */\n    tag_570:\n        /* \"#utility.yul\":10478:10528   */\n      tag_571\n        /* \"#utility.yul\":10520:10527   */\n      dup7\n        /* \"#utility.yul\":10511:10517   */\n      dup3\n        /* \"#utility.yul\":10500:10509   */\n      dup8\n        /* \"#utility.yul\":10496:10518   */\n      add\n        /* \"#utility.yul\":10478:10528   */\n      tag_487\n      jump\t// in\n    tag_571:\n        /* \"#utility.yul\":10468:10528   */\n      swap3\n      pop\n      pop\n        /* \"#utility.yul\":10547:10585   */\n      tag_534\n        /* \"#utility.yul\":10581:10583   */\n      0x40\n        /* \"#utility.yul\":10570:10579   */\n      dup6\n        /* \"#utility.yul\":10566:10584   */\n      add\n        /* \"#utility.yul\":10547:10585   */\n      tag_485\n      jump\t// in\n        /* \"#utility.yul\":10596:11129   */\n    tag_115:\n        /* \"#utility.yul\":10692:10698   */\n      0x00\n        /* \"#utility.yul\":10700:10706   */\n      dup1\n        /* \"#utility.yul\":10708:10714   */\n      0x00\n        /* \"#utility.yul\":10716:10722   */\n      dup1\n        /* \"#utility.yul\":10769:10772   */\n      0x80\n        /* \"#utility.yul\":10757:10766   */\n      dup6\n        /* \"#utility.yul\":10748:10755   */\n      dup8\n        /* \"#utility.yul\":10744:10767   */\n      sub\n        /* \"#utility.yul\":10740:10773   */\n      slt\n        /* \"#utility.yul\":10737:10790   */\n      iszero\n      tag_574\n      jumpi\n        /* \"#utility.yul\":10786:10787   */\n      0x00\n        /* \"#utility.yul\":10783:10784   */\n      dup1\n        /* \"#utility.yul\":10776:10788   */\n      revert\n        /* \"#utility.yul\":10737:10790   */\n    tag_574:\n        /* \"#utility.yul\":10822:10831   */\n      dup5\n        /* \"#utility.yul\":10809:10832   */\n      calldataload\n        /* \"#utility.yul\":10799:10832   */\n      swap4\n      pop\n        /* \"#utility.yul\":10879:10881   */\n      0x20\n        /* \"#utility.yul\":10868:10877   */\n      dup6\n        /* \"#utility.yul\":10864:10882   */\n      add\n        /* \"#utility.yul\":10851:10883   */\n      calldataload\n        /* \"#utility.yul\":10841:10883   */\n      swap3\n      pop\n        /* \"#utility.yul\":10934:10936   */\n      0x40\n        /* \"#utility.yul\":10923:10932   */\n      dup6\n        /* \"#utility.yul\":10919:10937   */\n      add\n        /* \"#utility.yul\":10906:10938   */\n      calldataload\n        /* \"#utility.yul\":10961:10979   */\n      0xffffffffffffffff\n        /* \"#utility.yul\":10953:10959   */\n      dup2\n        /* \"#utility.yul\":10950:10980   */\n      gt\n        /* \"#utility.yul\":10947:10997   */\n      iszero\n      tag_575\n      jumpi\n        /* \"#utility.yul\":10993:10994   */\n      0x00\n        /* \"#utility.yul\":10990:10991   */\n      dup1\n        /* \"#utility.yul\":10983:10995   */\n      revert\n        /* \"#utility.yul\":10947:10997   */\n    tag_575:\n        /* \"#utility.yul\":11016:11066   */\n      tag_576\n        /* \"#utility.yul\":11058:11065   */\n      dup8\n        /* \"#utility.yul\":11049:11055   */\n      dup3\n        /* \"#utility.yul\":11038:11047   */\n      dup9\n        /* \"#utility.yul\":11034:11056   */\n      add\n        /* \"#utility.yul\":11016:11066   */\n      tag_487\n      jump\t// in\n    tag_576:\n        /* \"#utility.yul\":11006:11066   */\n      swap3\n      pop\n      pop\n        /* \"#utility.yul\":11085:11123   */\n      tag_577\n        /* \"#utility.yul\":11119:11121   */\n      0x60\n        /* \"#utility.yul\":11108:11117   */\n      dup7\n        /* \"#utility.yul\":11104:11122   */\n      add\n        /* \"#utility.yul\":11085:11123   */\n      tag_485\n      jump\t// in\n    tag_577:\n        /* \"#utility.yul\":11075:11123   */\n      swap1\n      pop\n        /* \"#utility.yul\":10596:11129   */\n      swap3\n      swap6\n      swap2\n      swap5\n      pop\n      swap3\n      pop\n      jump\t// out\n        /* \"#utility.yul\":11134:12360   */\n    tag_119:\n        /* \"#utility.yul\":11246:11252   */\n      0x00\n        /* \"#utility.yul\":11254:11260   */\n      dup1\n        /* \"#utility.yul\":11262:11268   */\n      0x00\n        /* \"#utility.yul\":11315:11317   */\n      0x60\n        /* \"#utility.yul\":11303:11312   */\n      dup5\n        /* \"#utility.yul\":11294:11301   */\n      dup7\n        /* \"#utility.yul\":11290:11313   */\n      sub\n        /* \"#utility.yul\":11286:11318   */\n      slt\n        /* \"#utility.yul\":11283:11335   */\n      iszero\n      tag_579\n      jumpi\n        /* \"#utility.yul\":11331:11332   */\n      0x00\n        /* \"#utility.yul\":11328:11329   */\n      dup1\n        /* \"#utility.yul\":11321:11333   */\n      revert\n        /* \"#utility.yul\":11283:11335   */\n    tag_579:\n        /* \"#utility.yul\":11371:11380   */\n      dup4\n        /* \"#utility.yul\":11358:11381   */\n      calldataload\n        /* \"#utility.yul\":11400:11418   */\n      0xffffffffffffffff\n        /* \"#utility.yul\":11441:11443   */\n      dup1\n        /* \"#utility.yul\":11433:11439   */\n      dup3\n        /* \"#utility.yul\":11430:11444   */\n      gt\n        /* \"#utility.yul\":11427:11461   */\n      iszero\n      tag_580\n      jumpi\n        /* \"#utility.yul\":11457:11458   */\n      0x00\n        /* \"#utility.yul\":11454:11455   */\n      dup1\n        /* \"#utility.yul\":11447:11459   */\n      revert\n        /* \"#utility.yul\":11427:11461   */\n    tag_580:\n        /* \"#utility.yul\":11480:11530   */\n      tag_581\n        /* \"#utility.yul\":11522:11529   */\n      dup8\n        /* \"#utility.yul\":11513:11519   */\n      dup4\n        /* \"#utility.yul\":11502:11511   */\n      dup9\n        /* \"#utility.yul\":11498:11520   */\n      add\n        /* \"#utility.yul\":11480:11530   */\n      tag_487\n      jump\t// in\n    tag_581:\n        /* \"#utility.yul\":11470:11530   */\n      swap5\n      pop\n        /* \"#utility.yul\":11549:11551   */\n      0x20\n        /* \"#utility.yul\":11539:11551   */\n      swap2\n      pop\n        /* \"#utility.yul\":11604:11606   */\n      dup2\n        /* \"#utility.yul\":11593:11602   */\n      dup7\n        /* \"#utility.yul\":11589:11607   */\n      add\n        /* \"#utility.yul\":11576:11608   */\n      calldataload\n        /* \"#utility.yul\":11633:11635   */\n      dup2\n        /* \"#utility.yul\":11623:11631   */\n      dup2\n        /* \"#utility.yul\":11620:11636   */\n      gt\n        /* \"#utility.yul\":11617:11653   */\n      iszero\n      tag_582\n      jumpi\n        /* \"#utility.yul\":11649:11650   */\n      0x00\n        /* \"#utility.yul\":11646:11647   */\n      dup1\n        /* \"#utility.yul\":11639:11651   */\n      revert\n        /* \"#utility.yul\":11617:11653   */\n    tag_582:\n        /* \"#utility.yul\":11672:11696   */\n      dup7\n      add\n        /* \"#utility.yul\":11727:11731   */\n      0x1f\n        /* \"#utility.yul\":11719:11732   */\n      dup2\n      add\n        /* \"#utility.yul\":11715:11742   */\n      dup9\n      sgt\n        /* \"#utility.yul\":11705:11760   */\n      tag_583\n      jumpi\n        /* \"#utility.yul\":11756:11757   */\n      0x00\n        /* \"#utility.yul\":11753:11754   */\n      dup1\n        /* \"#utility.yul\":11746:11758   */\n      revert\n        /* \"#utility.yul\":11705:11760   */\n    tag_583:\n        /* \"#utility.yul\":11792:11794   */\n      dup1\n        /* \"#utility.yul\":11779:11795   */\n      calldataload\n        /* \"#utility.yul\":11814:11816   */\n      dup3\n        /* \"#utility.yul\":11810:11812   */\n      dup2\n        /* \"#utility.yul\":11807:11817   */\n      gt\n        /* \"#utility.yul\":11804:11840   */\n      iszero\n      tag_585\n      jumpi\n        /* \"#utility.yul\":11820:11838   */\n      tag_585\n      tag_159\n      jump\t// in\n    tag_585:\n        /* \"#utility.yul\":11866:11868   */\n      dup1\n        /* \"#utility.yul\":11863:11864   */\n      0x05\n        /* \"#utility.yul\":11859:11869   */\n      shl\n        /* \"#utility.yul\":11849:11869   */\n      swap3\n      pop\n        /* \"#utility.yul\":11889:11917   */\n      tag_586\n        /* \"#utility.yul\":11913:11915   */\n      dup5\n        /* \"#utility.yul\":11909:11911   */\n      dup5\n        /* \"#utility.yul\":11905:11916   */\n      add\n        /* \"#utility.yul\":11889:11917   */\n      tag_486\n      jump\t// in\n    tag_586:\n        /* \"#utility.yul\":11951:11966   */\n      dup2\n      dup2\n      mstore\n        /* \"#utility.yul\":12021:12032   */\n      swap3\n      dup3\n      add\n        /* \"#utility.yul\":12017:12037   */\n      dup5\n      add\n      swap3\n        /* \"#utility.yul\":11982:11994   */\n      dup5\n      dup2\n      add\n      swap1\n        /* \"#utility.yul\":12049:12068   */\n      dup11\n      dup6\n      gt\n        /* \"#utility.yul\":12046:12085   */\n      iszero\n      tag_587\n      jumpi\n        /* \"#utility.yul\":12081:12082   */\n      0x00\n        /* \"#utility.yul\":12078:12079   */\n      dup1\n        /* \"#utility.yul\":12071:12083   */\n      revert\n        /* \"#utility.yul\":12046:12085   */\n    tag_587:\n        /* \"#utility.yul\":12105:12116   */\n      swap3\n      dup6\n      add\n      swap3\n        /* \"#utility.yul\":12125:12273   */\n    tag_588:\n        /* \"#utility.yul\":12141:12147   */\n      dup5\n        /* \"#utility.yul\":12136:12139   */\n      dup5\n        /* \"#utility.yul\":12133:12148   */\n      lt\n        /* \"#utility.yul\":12125:12273   */\n      iszero\n      tag_590\n      jumpi\n        /* \"#utility.yul\":12207:12230   */\n      tag_591\n        /* \"#utility.yul\":12226:12229   */\n      dup5\n        /* \"#utility.yul\":12207:12230   */\n      tag_485\n      jump\t// in\n    tag_591:\n        /* \"#utility.yul\":12195:12231   */\n      dup3\n      mstore\n        /* \"#utility.yul\":12158:12170   */\n      swap3\n      dup6\n      add\n      swap3\n        /* \"#utility.yul\":12251:12263   */\n      swap1\n      dup6\n      add\n      swap1\n        /* \"#utility.yul\":12125:12273   */\n      jump(tag_588)\n    tag_590:\n        /* \"#utility.yul\":12292:12297   */\n      dup1\n        /* \"#utility.yul\":12282:12297   */\n      swap8\n      pop\n      pop\n      pop\n      pop\n      pop\n      pop\n      pop\n        /* \"#utility.yul\":12316:12354   */\n      tag_534\n        /* \"#utility.yul\":12350:12352   */\n      0x40\n        /* \"#utility.yul\":12339:12348   */\n      dup6\n        /* \"#utility.yul\":12335:12353   */\n      add\n        /* \"#utility.yul\":12316:12354   */\n      tag_485\n      jump\t// in\n        /* \"#utility.yul\":12877:13265   */\n    tag_132:\n        /* \"#utility.yul\":13082:13088   */\n      dup4\n        /* \"#utility.yul\":13071:13080   */\n      dup2\n        /* \"#utility.yul\":13064:13089   */\n      mstore\n        /* \"#utility.yul\":13125:13127   */\n      0x60\n        /* \"#utility.yul\":13120:13122   */\n      0x20\n        /* \"#utility.yul\":13109:13118   */\n      dup3\n        /* \"#utility.yul\":13105:13123   */\n      add\n        /* \"#utility.yul\":13098:13128   */\n      mstore\n        /* \"#utility.yul\":13045:13049   */\n      0x00\n        /* \"#utility.yul\":13145:13190   */\n      tag_598\n        /* \"#utility.yul\":13186:13188   */\n      0x60\n        /* \"#utility.yul\":13175:13184   */\n      dup4\n        /* \"#utility.yul\":13171:13189   */\n      add\n        /* \"#utility.yul\":13163:13169   */\n      dup6\n        /* \"#utility.yul\":13145:13190   */\n      tag_481\n      jump\t// in\n    tag_598:\n        /* \"#utility.yul\":13137:13190   */\n      swap1\n      pop\n        /* \"#utility.yul\":13255:13256   */\n      0x01\n        /* \"#utility.yul\":13251:13252   */\n      dup1\n        /* \"#utility.yul\":13246:13249   */\n      0xa0\n        /* \"#utility.yul\":13242:13253   */\n      shl\n        /* \"#utility.yul\":13238:13257   */\n      sub\n        /* \"#utility.yul\":13230:13236   */\n      dup4\n        /* \"#utility.yul\":13226:13258   */\n      and\n        /* \"#utility.yul\":13221:13223   */\n      0x40\n        /* \"#utility.yul\":13210:13219   */\n      dup4\n        /* \"#utility.yul\":13206:13224   */\n      add\n        /* \"#utility.yul\":13199:13259   */\n      mstore\n        /* \"#utility.yul\":12877:13265   */\n      swap5\n      swap4\n      pop\n      pop\n      pop\n      pop\n      jump\t// out\n        /* \"#utility.yul\":13270:13731   */\n    tag_140:\n        /* \"#utility.yul\":13503:13509   */\n      dup5\n        /* \"#utility.yul\":13492:13501   */\n      dup2\n        /* \"#utility.yul\":13485:13510   */\n      mstore\n        /* \"#utility.yul\":13546:13552   */\n      dup4\n        /* \"#utility.yul\":13541:13543   */\n      0x20\n        /* \"#utility.yul\":13530:13539   */\n      dup3\n        /* \"#utility.yul\":13526:13544   */\n      add\n        /* \"#utility.yul\":13519:13553   */\n      mstore\n        /* \"#utility.yul\":13589:13592   */\n      0x80\n        /* \"#utility.yul\":13584:13586   */\n      0x40\n        /* \"#utility.yul\":13573:13582   */\n      dup3\n        /* \"#utility.yul\":13569:13587   */\n      add\n        /* \"#utility.yul\":13562:13593   */\n      mstore\n        /* \"#utility.yul\":13466:13470   */\n      0x00\n        /* \"#utility.yul\":13610:13656   */\n      tag_600\n        /* \"#utility.yul\":13651:13654   */\n      0x80\n        /* \"#utility.yul\":13640:13649   */\n      dup4\n        /* \"#utility.yul\":13636:13655   */\n      add\n        /* \"#utility.yul\":13628:13634   */\n      dup6\n        /* \"#utility.yul\":13610:13656   */\n      tag_481\n      jump\t// in\n    tag_600:\n        /* \"#utility.yul\":13602:13656   */\n      swap1\n      pop\n        /* \"#utility.yul\":13721:13722   */\n      0x01\n        /* \"#utility.yul\":13717:13718   */\n      dup1\n        /* \"#utility.yul\":13712:13715   */\n      0xa0\n        /* \"#utility.yul\":13708:13719   */\n      shl\n        /* \"#utility.yul\":13704:13723   */\n      sub\n        /* \"#utility.yul\":13696:13702   */\n      dup4\n        /* \"#utility.yul\":13692:13724   */\n      and\n        /* \"#utility.yul\":13687:13689   */\n      0x60\n        /* \"#utility.yul\":13676:13685   */\n      dup4\n        /* \"#utility.yul\":13672:13690   */\n      add\n        /* \"#utility.yul\":13665:13725   */\n      mstore\n        /* \"#utility.yul\":13270:13731   */\n      swap6\n      swap5\n      pop\n      pop\n      pop\n      pop\n      pop\n      jump\t// out\n        /* \"#utility.yul\":13736:13922   */\n    tag_143:\n        /* \"#utility.yul\":13795:13801   */\n      0x00\n        /* \"#utility.yul\":13848:13850   */\n      0x20\n        /* \"#utility.yul\":13836:13845   */\n      dup3\n        /* \"#utility.yul\":13827:13834   */\n      dup5\n        /* \"#utility.yul\":13823:13846   */\n      sub\n        /* \"#utility.yul\":13819:13851   */\n      slt\n        /* \"#utility.yul\":13816:13868   */\n      iszero\n      tag_602\n      jumpi\n        /* \"#utility.yul\":13864:13865   */\n      0x00\n        /* \"#utility.yul\":13861:13862   */\n      dup1\n        /* \"#utility.yul\":13854:13866   */\n      revert\n        /* \"#utility.yul\":13816:13868   */\n    tag_602:\n        /* \"#utility.yul\":13887:13916   */\n      tag_464\n        /* \"#utility.yul\":13906:13915   */\n      dup3\n        /* \"#utility.yul\":13887:13916   */\n      tag_485\n      jump\t// in\n        /* \"#utility.yul\":13927:14307   */\n    tag_151:\n        /* \"#utility.yul\":14006:14007   */\n      0x01\n        /* \"#utility.yul\":14002:14014   */\n      dup2\n      dup2\n      shr\n      swap1\n        /* \"#utility.yul\":14049:14061   */\n      dup3\n      and\n      dup1\n        /* \"#utility.yul\":14070:14131   */\n      tag_605\n      jumpi\n        /* \"#utility.yul\":14124:14128   */\n      0x7f\n        /* \"#utility.yul\":14116:14122   */\n      dup3\n        /* \"#utility.yul\":14112:14129   */\n      and\n        /* \"#utility.yul\":14102:14129   */\n      swap2\n      pop\n        /* \"#utility.yul\":14070:14131   */\n    tag_605:\n        /* \"#utility.yul\":14177:14179   */\n      0x20\n        /* \"#utility.yul\":14169:14175   */\n      dup3\n        /* \"#utility.yul\":14166:14180   */\n      lt\n        /* \"#utility.yul\":14146:14164   */\n      dup2\n        /* \"#utility.yul\":14143:14181   */\n      sub\n        /* \"#utility.yul\":14140:14301   */\n      tag_165\n      jumpi\n        /* \"#utility.yul\":14223:14233   */\n      0x4e487b71\n        /* \"#utility.yul\":14218:14221   */\n      0xe0\n        /* \"#utility.yul\":14214:14234   */\n      shl\n        /* \"#utility.yul\":14211:14212   */\n      0x00\n        /* \"#utility.yul\":14204:14235   */\n      mstore\n        /* \"#utility.yul\":14258:14262   */\n      0x22\n        /* \"#utility.yul\":14255:14256   */\n      0x04\n        /* \"#utility.yul\":14248:14263   */\n      mstore\n        /* \"#utility.yul\":14286:14290   */\n      0x24\n        /* \"#utility.yul\":14283:14284   */\n      0x00\n        /* \"#utility.yul\":14276:14291   */\n      revert\n        /* \"#utility.yul\":14312:14439   */\n    tag_169:\n        /* \"#utility.yul\":14373:14383   */\n      0x4e487b71\n        /* \"#utility.yul\":14368:14371   */\n      0xe0\n        /* \"#utility.yul\":14364:14384   */\n      shl\n        /* \"#utility.yul\":14361:14362   */\n      0x00\n        /* \"#utility.yul\":14354:14385   */\n      mstore\n        /* \"#utility.yul\":14404:14408   */\n      0x32\n        /* \"#utility.yul\":14401:14402   */\n      0x04\n        /* \"#utility.yul\":14394:14409   */\n      mstore\n        /* \"#utility.yul\":14428:14432   */\n      0x24\n        /* \"#utility.yul\":14425:14426   */\n      0x00\n        /* \"#utility.yul\":14418:14433   */\n      revert\n        /* \"#utility.yul\":14444:14571   */\n    tag_488:\n        /* \"#utility.yul\":14505:14515   */\n      0x4e487b71\n        /* \"#utility.yul\":14500:14503   */\n      0xe0\n        /* \"#utility.yul\":14496:14516   */\n      shl\n        /* \"#utility.yul\":14493:14494   */\n      0x00\n        /* \"#utility.yul\":14486:14517   */\n      mstore\n        /* \"#utility.yul\":14536:14540   */\n      0x11\n        /* \"#utility.yul\":14533:14534   */\n      0x04\n        /* \"#utility.yul\":14526:14541   */\n      mstore\n        /* \"#utility.yul\":14560:14564   */\n      0x24\n        /* \"#utility.yul\":14557:14558   */\n      0x00\n        /* \"#utility.yul\":14550:14565   */\n      revert\n        /* \"#utility.yul\":14576:14711   */\n    tag_209:\n        /* \"#utility.yul\":14615:14618   */\n      0x00\n        /* \"#utility.yul\":14636:14653   */\n      0x01\n      dup3\n      add\n        /* \"#utility.yul\":14633:14676   */\n      tag_611\n      jumpi\n        /* \"#utility.yul\":14656:14674   */\n      tag_611\n      tag_488\n      jump\t// in\n    tag_611:\n      pop\n        /* \"#utility.yul\":14703:14704   */\n      0x01\n        /* \"#utility.yul\":14692:14705   */\n      add\n      swap1\n        /* \"#utility.yul\":14576:14711   */\n      jump\t// out\n        /* \"#utility.yul\":14716:15056   */\n    tag_219:\n        /* \"#utility.yul\":14918:14920   */\n      0x20\n        /* \"#utility.yul\":14900:14921   */\n      dup1\n      dup3\n      mstore\n        /* \"#utility.yul\":14957:14959   */\n      0x10\n        /* \"#utility.yul\":14937:14955   */\n      swap1\n      dup3\n      add\n        /* \"#utility.yul\":14930:14960   */\n      mstore\n      shl(0x82, 0x109b1bd8c81a5cc8199a5b9a5cda1959)\n        /* \"#utility.yul\":14991:14993   */\n      0x40\n        /* \"#utility.yul\":14976:14994   */\n      dup3\n      add\n        /* \"#utility.yul\":14969:15015   */\n      mstore\n        /* \"#utility.yul\":15047:15049   */\n      0x60\n        /* \"#utility.yul\":15032:15050   */\n      add\n      swap1\n        /* \"#utility.yul\":14716:15056   */\n      jump\t// out\n        /* \"#utility.yul\":15618:15971   */\n    tag_283:\n        /* \"#utility.yul\":15820:15822   */\n      0x20\n        /* \"#utility.yul\":15802:15823   */\n      dup1\n      dup3\n      mstore\n        /* \"#utility.yul\":15859:15861   */\n      0x1d\n        /* \"#utility.yul\":15839:15857   */\n      swap1\n      dup3\n      add\n        /* \"#utility.yul\":15832:15862   */\n      mstore\n        /* \"#utility.yul\":15898:15929   */\n      0x4e6f7420612063726561746f72206f6620746869732073656564626f78000000\n        /* \"#utility.yul\":15893:15895   */\n      0x40\n        /* \"#utility.yul\":15878:15896   */\n      dup3\n      add\n        /* \"#utility.yul\":15871:15930   */\n      mstore\n        /* \"#utility.yul\":15962:15964   */\n      0x60\n        /* \"#utility.yul\":15947:15965   */\n      add\n      swap1\n        /* \"#utility.yul\":15618:15971   */\n      jump\t// out\n        /* \"#utility.yul\":15976:16318   */\n    tag_287:\n        /* \"#utility.yul\":16178:16180   */\n      0x20\n        /* \"#utility.yul\":16160:16181   */\n      dup1\n      dup3\n      mstore\n        /* \"#utility.yul\":16217:16219   */\n      0x12\n        /* \"#utility.yul\":16197:16215   */\n      swap1\n      dup3\n      add\n        /* \"#utility.yul\":16190:16220   */\n      mstore\n      shl(0x72, 0x14d9595908189bde081b9bdd08199bdd5b99)\n        /* \"#utility.yul\":16251:16253   */\n      0x40\n        /* \"#utility.yul\":16236:16254   */\n      dup3\n      add\n        /* \"#utility.yul\":16229:16277   */\n      mstore\n        /* \"#utility.yul\":16309:16311   */\n      0x60\n        /* \"#utility.yul\":16294:16312   */\n      add\n      swap1\n        /* \"#utility.yul\":15976:16318   */\n      jump\t// out\n        /* \"#utility.yul\":16795:17313   */\n    tag_490:\n        /* \"#utility.yul\":16897:16899   */\n      0x1f\n        /* \"#utility.yul\":16892:16895   */\n      dup3\n        /* \"#utility.yul\":16889:16900   */\n      gt\n        /* \"#utility.yul\":16886:17307   */\n      iszero\n      tag_239\n      jumpi\n        /* \"#utility.yul\":16933:16938   */\n      dup1\n        /* \"#utility.yul\":16930:16931   */\n      0x00\n        /* \"#utility.yul\":16923:16939   */\n      mstore\n        /* \"#utility.yul\":16977:16981   */\n      0x20\n        /* \"#utility.yul\":16974:16975   */\n      0x00\n        /* \"#utility.yul\":16964:16982   */\n      keccak256\n        /* \"#utility.yul\":17047:17049   */\n      0x1f\n        /* \"#utility.yul\":17035:17045   */\n      dup5\n        /* \"#utility.yul\":17031:17050   */\n      add\n        /* \"#utility.yul\":17028:17029   */\n      0x05\n        /* \"#utility.yul\":17024:17051   */\n      shr\n        /* \"#utility.yul\":17018:17022   */\n      dup2\n        /* \"#utility.yul\":17014:17052   */\n      add\n        /* \"#utility.yul\":17083:17087   */\n      0x20\n        /* \"#utility.yul\":17071:17081   */\n      dup6\n        /* \"#utility.yul\":17068:17088   */\n      lt\n        /* \"#utility.yul\":17065:17112   */\n      iszero\n      tag_621\n      jumpi\n      pop\n        /* \"#utility.yul\":17106:17110   */\n      dup1\n        /* \"#utility.yul\":17065:17112   */\n    tag_621:\n        /* \"#utility.yul\":17161:17163   */\n      0x1f\n        /* \"#utility.yul\":17156:17159   */\n      dup5\n        /* \"#utility.yul\":17152:17164   */\n      add\n        /* \"#utility.yul\":17149:17150   */\n      0x05\n        /* \"#utility.yul\":17145:17165   */\n      shr\n        /* \"#utility.yul\":17139:17143   */\n      dup3\n        /* \"#utility.yul\":17135:17166   */\n      add\n        /* \"#utility.yul\":17125:17166   */\n      swap2\n      pop\n        /* \"#utility.yul\":17216:17297   */\n    tag_622:\n        /* \"#utility.yul\":17234:17236   */\n      dup2\n        /* \"#utility.yul\":17227:17232   */\n      dup2\n        /* \"#utility.yul\":17224:17237   */\n      lt\n        /* \"#utility.yul\":17216:17297   */\n      iszero\n      tag_224\n      jumpi\n        /* \"#utility.yul\":17293:17294   */\n      0x00\n        /* \"#utility.yul\":17279:17295   */\n      dup2\n      sstore\n        /* \"#utility.yul\":17260:17261   */\n      0x01\n        /* \"#utility.yul\":17249:17262   */\n      add\n        /* \"#utility.yul\":17216:17297   */\n      jump(tag_622)\n        /* \"#utility.yul\":17489:18834   */\n    tag_296:\n        /* \"#utility.yul\":17615:17618   */\n      dup2\n        /* \"#utility.yul\":17609:17619   */\n      mload\n        /* \"#utility.yul\":17642:17660   */\n      0xffffffffffffffff\n        /* \"#utility.yul\":17634:17640   */\n      dup2\n        /* \"#utility.yul\":17631:17661   */\n      gt\n        /* \"#utility.yul\":17628:17684   */\n      iszero\n      tag_628\n      jumpi\n        /* \"#utility.yul\":17664:17682   */\n      tag_628\n      tag_159\n      jump\t// in\n    tag_628:\n        /* \"#utility.yul\":17693:17790   */\n      tag_629\n        /* \"#utility.yul\":17783:17789   */\n      dup2\n        /* \"#utility.yul\":17743:17781   */\n      tag_630\n        /* \"#utility.yul\":17775:17779   */\n      dup5\n        /* \"#utility.yul\":17769:17780   */\n      sload\n        /* \"#utility.yul\":17743:17781   */\n      tag_151\n      jump\t// in\n    tag_630:\n        /* \"#utility.yul\":17737:17741   */\n      dup5\n        /* \"#utility.yul\":17693:17790   */\n      tag_490\n      jump\t// in\n    tag_629:\n        /* \"#utility.yul\":17845:17849   */\n      0x20\n      dup1\n        /* \"#utility.yul\":17902:17904   */\n      0x1f\n        /* \"#utility.yul\":17891:17905   */\n      dup4\n      gt\n        /* \"#utility.yul\":17919:17920   */\n      0x01\n        /* \"#utility.yul\":17914:18577   */\n      dup2\n      eq\n      tag_632\n      jumpi\n        /* \"#utility.yul\":18621:18622   */\n      0x00\n        /* \"#utility.yul\":18638:18644   */\n      dup5\n        /* \"#utility.yul\":18635:18724   */\n      iszero\n      tag_633\n      jumpi\n      pop\n        /* \"#utility.yul\":18690:18709   */\n      dup6\n      dup4\n      add\n        /* \"#utility.yul\":18684:18710   */\n      mload\n        /* \"#utility.yul\":18635:18724   */\n    tag_633:\n      not(0x00)\n        /* \"#utility.yul\":17446:17447   */\n      0x03\n        /* \"#utility.yul\":17442:17453   */\n      dup7\n      swap1\n      shl\n        /* \"#utility.yul\":17438:17462   */\n      shr\n        /* \"#utility.yul\":17434:17463   */\n      not\n        /* \"#utility.yul\":17424:17464   */\n      and\n        /* \"#utility.yul\":17470:17471   */\n      0x01\n        /* \"#utility.yul\":17466:17477   */\n      dup6\n      swap1\n      shl\n        /* \"#utility.yul\":17421:17478   */\n      or\n        /* \"#utility.yul\":18737:18818   */\n      dup6\n      sstore\n        /* \"#utility.yul\":17884:18828   */\n      jump(tag_631)\n        /* \"#utility.yul\":17914:18577   */\n    tag_632:\n        /* \"#utility.yul\":16742:16743   */\n      0x00\n        /* \"#utility.yul\":16735:16749   */\n      dup6\n      dup2\n      mstore\n        /* \"#utility.yul\":16779:16783   */\n      0x20\n        /* \"#utility.yul\":16766:16784   */\n      dup2\n      keccak256\n      not(0x1f)\n        /* \"#utility.yul\":17950:17970   */\n      dup7\n      and\n      swap2\n        /* \"#utility.yul\":18068:18304   */\n    tag_636:\n        /* \"#utility.yul\":18082:18089   */\n      dup3\n        /* \"#utility.yul\":18079:18080   */\n      dup2\n        /* \"#utility.yul\":18076:18090   */\n      lt\n        /* \"#utility.yul\":18068:18304   */\n      iszero\n      tag_638\n      jumpi\n        /* \"#utility.yul\":18171:18190   */\n      dup9\n      dup7\n      add\n        /* \"#utility.yul\":18165:18191   */\n      mload\n        /* \"#utility.yul\":18150:18192   */\n      dup3\n      sstore\n        /* \"#utility.yul\":18263:18290   */\n      swap5\n      dup5\n      add\n      swap5\n        /* \"#utility.yul\":18231:18232   */\n      0x01\n        /* \"#utility.yul\":18219:18233   */\n      swap1\n      swap2\n      add\n      swap1\n        /* \"#utility.yul\":18098:18117   */\n      dup5\n      add\n        /* \"#utility.yul\":18068:18304   */\n      jump(tag_636)\n    tag_638:\n        /* \"#utility.yul\":18072:18075   */\n      pop\n        /* \"#utility.yul\":18332:18338   */\n      dup6\n        /* \"#utility.yul\":18323:18330   */\n      dup3\n        /* \"#utility.yul\":18320:18339   */\n      lt\n        /* \"#utility.yul\":18317:18518   */\n      iszero\n      tag_639\n      jumpi\n        /* \"#utility.yul\":18393:18412   */\n      dup8\n      dup6\n      add\n        /* \"#utility.yul\":18387:18413   */\n      mload\n      not(0x00)\n        /* \"#utility.yul\":18476:18477   */\n      0x03\n        /* \"#utility.yul\":18472:18486   */\n      dup9\n      swap1\n      shl\n        /* \"#utility.yul\":18488:18491   */\n      0xf8\n        /* \"#utility.yul\":18468:18492   */\n      and\n        /* \"#utility.yul\":18464:18501   */\n      shr\n        /* \"#utility.yul\":18460:18502   */\n      not\n        /* \"#utility.yul\":18445:18503   */\n      and\n        /* \"#utility.yul\":18430:18504   */\n      dup2\n      sstore\n        /* \"#utility.yul\":18317:18518   */\n    tag_639:\n      pop\n      pop\n        /* \"#utility.yul\":18564:18565   */\n      0x01\n        /* \"#utility.yul\":18555:18561   */\n      dup5\n        /* \"#utility.yul\":18552:18553   */\n      0x01\n        /* \"#utility.yul\":18548:18562   */\n      shl\n        /* \"#utility.yul\":18544:18566   */\n      add\n        /* \"#utility.yul\":18538:18542   */\n      dup6\n        /* \"#utility.yul\":18531:18567   */\n      sstore\n        /* \"#utility.yul\":17884:18828   */\n    tag_631:\n      pop\n      pop\n      pop\n      pop\n        /* \"#utility.yul\":17489:18834   */\n      pop\n      pop\n      jump\t// out\n        /* \"#utility.yul\":19851:19976   */\n    tag_380:\n        /* \"#utility.yul\":19916:19925   */\n      dup1\n      dup3\n      add\n        /* \"#utility.yul\":19937:19947   */\n      dup1\n      dup3\n      gt\n        /* \"#utility.yul\":19934:19970   */\n      iszero\n      tag_147\n      jumpi\n        /* \"#utility.yul\":19950:19968   */\n      tag_147\n      tag_488\n      jump\t// in\n        /* \"#utility.yul\":20556:20924   */\n    tag_436:\n        /* \"#utility.yul\":20806:20808   */\n      0x60\n        /* \"#utility.yul\":20802:20817   */\n      swap2\n      swap1\n      swap2\n      shl\n      not(0xffffffffffffffffffffffff)\n        /* \"#utility.yul\":20798:20851   */\n      and\n        /* \"#utility.yul\":20786:20852   */\n      dup2\n      mstore\n      shl(0xd9, 0x30b236b4b7)\n        /* \"#utility.yul\":20877:20879   */\n      0x14\n        /* \"#utility.yul\":20868:20880   */\n      dup3\n      add\n        /* \"#utility.yul\":20861:20890   */\n      mstore\n        /* \"#utility.yul\":20915:20917   */\n      0x19\n        /* \"#utility.yul\":20906:20918   */\n      add\n      swap1\n        /* \"#utility.yul\":20556:20924   */\n      jump\t// out\n\n    auxdata: 0xa26469706673582212203661a66ed5ad05d3568388d4dc19fcf45d31d2dbfeafdcf8ae78dd61fdc6930a64736f6c63430008160033\n}\n",
				"bytecode": {
					"linkReferences": {},
					"object": "608060405234801561000f575f80fd5b50338061003557604051631e4fbdf760e01b81525f600482015260240160405180910390fd5b61003e81610044565b50610093565b5f80546001600160a01b038381166001600160a01b0319831681178455604051919092169283917f8be0079c531659141344cd1fd0a4f28419497f9722a3daafe3b4186f6b6457e09190a35050565b61259580620000a15f395ff3fe608060405234801561000f575f80fd5b5060043610610187575f3560e01c806391d14854116100d9578063b733e78a11610093578063d2fad2ec1161006e578063d2fad2ec14610399578063d547741f146103bb578063e67b932c146103ce578063f2fde38b146103f1575f80fd5b8063b733e78a1461034b578063bdfcf4e81461035e578063d2154a1414610371575f80fd5b806391d14854146102d857806396132521146102eb578063a0557f70146102f8578063a217fddf1461031c578063aa3ec0a914610323578063b4118db014610338575f80fd5b80632d82b1fa11610144578063715018a61161011f578063715018a61461029a5780637d836512146102a25780638a19c8bc146102b55780638da5cb5b146102be575f80fd5b80632d82b1fa146102455780632f2ff15d1461027457806336568abe14610287575f80fd5b806301ffc9a71461018b578063063ff530146101b357806309e60fc9146101ca5780631a1eb303146101df5780631dba015c146101ff578063248a9ca314610214575b5f80fd5b61019e610199366004611c60565b610404565b60405190151581526020015b60405180910390f35b6101bb61043a565b6040516101aa93929190611cca565b6101d26104e7565b6040516101aa9190611d28565b6101f26101ed366004611e21565b610756565b6040516101aa9190611e6c565b61021261020d366004611f1b565b610934565b005b610237610222366004611e21565b5f908152600160208190526040909120015490565b6040519081526020016101aa565b610237610253366004611e21565b6004545f908152600860209081526040808320938352929052206003015490565b610212610282366004611f5a565b610a12565b610212610295366004611f5a565b610a3d565b610212610a75565b6102126102b0366004612035565b610a88565b61023760045481565b5f546040516001600160a01b0390911681526020016101aa565b61019e6102e6366004611f5a565b610ba4565b60065461019e9060ff1681565b61030b6103063660046120b5565b610bce565b6040516101aa9594939291906120d5565b6102375f81565b61032b610c94565b6040516101aa9190612114565b610212610346366004612126565b610d20565b610212610359366004612170565b610f0b565b61023761036c3660046121cd565b6110d8565b61038461037f366004611f5a565b611154565b604080519283526020830191909152016101aa565b6103ac6103a7366004611e21565b61141d565b6040516101aa9392919061229e565b6102126103c9366004611f5a565b6114ce565b6103e16103dc366004611e21565b6114f3565b6040516101aa94939291906122ce565b6102126103ff366004612305565b6115aa565b5f6001600160e01b03198216637965db0b60e01b148061043457506301ffc9a760e01b6001600160e01b03198316145b92915050565b60605f80600560065f9054906101000a900460ff1660045482805461045e9061231e565b80601f016020809104026020016040519081016040528092919081815260200182805461048a9061231e565b80156104d55780601f106104ac576101008083540402835291602001916104d5565b820191905f5260205f20905b8154815290600101906020018083116104b857829003601f168201915b50505050509250925092509250909192565b60605f60025467ffffffffffffffff81111561050557610505611f84565b60405190808252806020026020018201604052801561056f57816020015b61055c6040518060a001604052805f81526020016060815260200160608152602001606081526020015f6001600160a01b031681525090565b8152602001906001900390816105235790505b5090505f5b600254811015610750575f818152600760205260409020805483518490849081106105a1576105a1612350565b6020908102919091010151526001810180546105bc9061231e565b80601f01602080910402602001604051908101604052809291908181526020018280546105e89061231e565b80156106335780601f1061060a57610100808354040283529160200191610633565b820191905f5260205f20905b81548152906001019060200180831161061657829003601f168201915b505050505083838151811061064a5761064a612350565b602002602001015160200181905250806003018054806020026020016040519081016040528092919081815260200182805480156106af57602002820191905f5260205f20905b81546001600160a01b03168152600190910190602001808311610691575b50505050508383815181106106c6576106c6612350565b6020026020010151604001819052508060020180548060200260200160405190810160405280929190818152602001828054801561072157602002820191905f5260205f20905b81548152602001906001019080831161070d575b505050505083838151811061073857610738612350565b60209081029190910101516060015250600101610574565b50919050565b6002546060908160015b82811161092c575f8181526007602090815260408083208884526005018252808320805482518185028101850190935280835291929091908301828280156107c557602002820191905f5260205f20905b8154815260200190600101908083116107b1575b505050505090505f5b8151811015610917575f878152600860205260408120835182908590859081106107fa576107fa612350565b602002602001015181526020019081526020015f206040518060a00160405290815f82015481526020016001820180546108339061231e565b80601f016020809104026020016040519081016040528092919081815260200182805461085f9061231e565b80156108aa5780601f10610881576101008083540402835291602001916108aa565b820191905f5260205f20905b81548152906001019060200180831161088d57829003601f168201915b505050918352505060028281015460ff8082161515602085015260409093019261010090910416908111156108e1576108e1611e38565b60028111156108f2576108f2611e38565b8152602001600382015481525050905061090c85826115e7565b9450506001016107ce565b5050808061092490612378565b915050610760565b509392505050565b61093c6116db565b8061094681611707565b60065460ff16156109725760405162461bcd60e51b815260040161096990612390565b60405180910390fd5b6004545f908152600860209081526040808320878452909152812080549091036109cf5760405162461bcd60e51b815260206004820152600e60248201526d14d95959081b9bdd08199bdd5b9960921b6044820152606401610969565b60028101805460ff1916600117905583156109f6576006805460ff19166001179055610a0b565b60048054905f610a0583612378565b91905055505b5050505050565b5f8281526001602081905260409091200154610a2d8161174b565b610a378383611755565b50505050565b6001600160a01b0381163314610a665760405163334bd91960e11b815260040160405180910390fd5b610a7082826117cb565b505050565b610a7d6116db565b610a865f611836565b565b7ff0c57e16840df040f15088dc2f81fe391c3923bec73e23a9662efc9c229c6a008054600160401b810460ff16159067ffffffffffffffff165f81158015610acd5750825b90505f8267ffffffffffffffff166001148015610ae95750303b155b905081158015610af7575080155b15610b155760405163f92ee8a960e01b815260040160405180910390fd5b845467ffffffffffffffff191660011785558315610b3f57845460ff60401b1916600160401b1785555b610b4a898988611885565b610b53876115aa565b8315610b9957845460ff60401b19168555604051600181527fc7f505b2f371ae2175ee4913f4499e1f2633a7b5936321eed1cdaeb6115181d29060200160405180910390a15b505050505050505050565b5f9182526001602090815260408084206001600160a01b0393909316845291905290205460ff1690565b600860209081525f928352604080842090915290825290208054600182018054919291610bfa9061231e565b80601f0160208091040260200160405190810160405280929190818152602001828054610c269061231e565b8015610c715780601f10610c4857610100808354040283529160200191610c71565b820191905f5260205f20905b815481529060010190602001808311610c5457829003601f168201915b505050506002830154600390930154919260ff8082169361010090920416915085565b60058054610ca19061231e565b80601f0160208091040260200160405190810160405280929190818152602001828054610ccd9061231e565b8015610d185780601f10610cef57610100808354040283529160200191610d18565b820191905f5260205f20905b815481529060010190602001808311610cfb57829003601f168201915b505050505081565b610d286116db565b5f8381526007602090815260409182902060038101805484518185028101850190955280855285948894610d9b93919290830182828015610d9057602002820191905f5260205f20905b81546001600160a01b03168152600190910190602001808311610d72575b505050505084611a8d565b80610db5575060048101546001600160a01b038481169116145b610dd15760405162461bcd60e51b8152600401610969906123ba565b5f8681526007602052604081208054909103610dff5760405162461bcd60e51b8152600401610969906123f1565b610e6381600301805480602002602001604051908101604052809291908181526020018280548015610e5857602002820191905f5260205f20905b81546001600160a01b03168152600190910190602001808311610e3a575b505050505086611a8d565b610ea35760405162461bcd60e51b81526020600482015260116024820152702737ba10309031b7b73a3934b13aba37b960791b6044820152606401610969565b5f60035f8154610eb290612378565b91829055505f8181526009602052604090208981556001810182905590915060028101610edf8982612461565b5060030180546001600160a01b0319166001600160a01b03979097169690961790955550505050505050565b610f136116db565b5f8481526007602090815260409182902060038101805484518185028101850190955280855285948994610f8493919290830182828015610d9057602002820191905f5260205f209081546001600160a01b03168152600190910190602001808311610d7257505050505084611a8d565b80610f9e575060048101546001600160a01b038481169116145b610fba5760405162461bcd60e51b8152600401610969906123ba565b60065460ff1615610fdd5760405162461bcd60e51b815260040161096990612390565b5f878152600760205260408120805490910361100b5760405162461bcd60e51b8152600401610969906123f1565b6004545f9081526008602090815260408083208a8452909152812080549091036110685760405162461bcd60e51b815260206004820152600e60248201526d14d95959081b9bdd08199bdd5b9960921b6044820152606401610969565b60038101548254146110af5760405162461bcd60e51b815260206004820152601060248201526f092dcecc2d8d2c840e6cacac840c4def60831b6044820152606401610969565b600181016110bd8882612461565b50600201805461ff0019166101001790555050505050505050565b5f6110e16116db565b5f60025f81546110f090612378565b91829055505f818152600760205260409020818155909150600181016111168782612461565b50845161112c9060038301906020880190611be9565b5060040180546001600160a01b0385166001600160a01b031990911617905590509392505050565b5f8061115e6116db565b5f84815260076020908152604091829020600381018054845181850281018501909552808552879489946111cf93919290830182828015610d9057602002820191905f5260205f209081546001600160a01b03168152600190910190602001808311610d7257505050505084611a8d565b806111e9575060048101546001600160a01b038481169116145b6112055760405162461bcd60e51b8152600401610969906123ba565b60065460ff16156112285760405162461bcd60e51b815260040161096990612390565b5f87815260076020526040812080549091036112565760405162461bcd60e51b8152600401610969906123f1565b5f60045489604051602001611275929190918252602082015260400190565b60408051601f1981840301815291815281516020928301206004545f908152600884528281208282529093529120549091501580156112b2575060015b6113155760405162461bcd60e51b815260206004820152602e60248201527f5365656420696e76616c6964206f7220616c726561647920706c616e7465642060448201526d199bdc881d1a1a5cc81c9bdd5b9960921b6064820152608401610969565b6004545f908152600860209081526040808320848452825280832084815560028101805461ff0019169055600381018d9055815192830190915291815260018201906113619082612461565b506002808201805460ff191690556004545f908152600585016020908152604080832080546001810182559084529282902090920185905591850180548251818502810185019093528083526113eb938301828280156113de57602002820191905f5260205f20905b8154815260200190600101908083116113ca575b5050505050600454611ae6565b61140a576004546002840180546001810182555f918252602090912001555b5060045490999098509650505050505050565b60076020525f90815260409020805460018201805491929161143e9061231e565b80601f016020809104026020016040519081016040528092919081815260200182805461146a9061231e565b80156114b55780601f1061148c576101008083540402835291602001916114b5565b820191905f5260205f20905b81548152906001019060200180831161149857829003601f168201915b505050600490930154919250506001600160a01b031683565b5f82815260016020819052604090912001546114e98161174b565b610a3783836117cb565b60096020525f90815260409020805460018201546002830180549293919261151a9061231e565b80601f01602080910402602001604051908101604052809291908181526020018280546115469061231e565b80156115915780601f1061156857610100808354040283529160200191611591565b820191905f5260205f20905b81548152906001019060200180831161157457829003601f168201915b505050600390930154919250506001600160a01b031684565b6115b26116db565b6001600160a01b0381166115db57604051631e4fbdf760e01b81525f6004820152602401610969565b6115e481611836565b50565b60605f835160016115f89190612521565b67ffffffffffffffff81111561161057611610611f84565b60405190808252806020026020018201604052801561166757816020015b6040805160a0810182525f808252606060208084018290529383018290528201819052608082015282525f1990920191018161162e5790505b5090505f5b84518110156116b45784818151811061168757611687612350565b60200260200101518282815181106116a1576116a1612350565b602090810291909101015260010161166c565b5082818551815181106116c9576116c9612350565b60209081029190910101529392505050565b5f546001600160a01b03163314610a865760405163118cdaa760e01b8152336004820152602401610969565b61171081611b24565b6115e45760405162461bcd60e51b815260206004820152600c60248201526b15539055551213d49256915160a21b6044820152606401610969565b6115e48133611b60565b5f6117608383610ba4565b6117c4575f8381526001602081815260408084206001600160a01b0387168086529252808420805460ff19169093179092559051339286917f2f8788117e7eff1d82e926ec794901d17c78024a50270940304540a733656f0d9190a4506001610434565b505f610434565b5f6117d68383610ba4565b156117c4575f8381526001602090815260408083206001600160a01b0386168085529252808320805460ff1916905551339286917ff6391f5c32d9c69d2a47ea670b442974b53935d1edc7fd64eb21e047a839171b9190a4506001610434565b5f80546001600160a01b038381166001600160a01b0319831681178455604051919092169283917f8be0079c531659141344cd1fd0a4f28419497f9722a3daafe3b4186f6b6457e09190a35050565b5f60025f815461189490612378565b91829055506004545f82815260076020526040902082815591925090600181016118be8682612461565b50604080515f81526020810191829052516118dd916003840191611be9565b506003810180546001810182555f918252602080832090910180546001600160a01b038a166001600160a01b0319918216811790925560048501805490911690911790556040513060601b6bffffffffffffffffffffffff1916918101919091526034016040516020818303038152906040528051906020012090505f3060405160200161196b9190612534565b60405160208183030381529060405280519060200120905061198d8189611755565b506119988282611b9d565b5f600454866040516020016119b7929190918252602082015260400190565b60408051601f1981840301815291815281516020928301205f88815260088452828120828252909352912081815560028101805461ff0019166101001790556003810188905590915060018101611a0e8982612461565b506002808201805460ff191660019081179091555f8881526005808901602090815260408320805480860182559084528184200187905593890180549384018155825292902001879055611a628a82612461565b506006805460ff1916905560048054905f611a7c83612378565b919050555050505050505050505050565b5f805b8351811015611add57826001600160a01b0316848281518110611ab557611ab5612350565b60200260200101516001600160a01b031603611ad5576001915050610434565b600101611a90565b505f9392505050565b5f805b8351811015611add5782848281518110611b0557611b05612350565b602002602001015103611b1c576001915050610434565b600101611ae9565b5f8030604051602001611b379190612534565b604051602081830303815290604052805190602001209050611b598184610ba4565b9392505050565b611b6a8282610ba4565b611b995760405163e2517d3f60e01b81526001600160a01b038216600482015260248101839052604401610969565b5050565b5f828152600160208190526040808320909101805490849055905190918391839186917fbd79b86ffe0ab8e8776151514217cd7cacd52c909f66475c3af44e129f0b00ff9190a4505050565b828054828255905f5260205f20908101928215611c3c579160200282015b82811115611c3c57825182546001600160a01b0319166001600160a01b03909116178255602090920191600190910190611c07565b50611c48929150611c4c565b5090565b5b80821115611c48575f8155600101611c4d565b5f60208284031215611c70575f80fd5b81356001600160e01b031981168114611b59575f80fd5b5f81518084525f5b81811015611cab57602081850181015186830182015201611c8f565b505f602082860101526020601f19601f83011685010191505092915050565b606081525f611cdc6060830186611c87565b93151560208301525060400152919050565b5f815180845260208085019450602084015f5b83811015611d1d57815187529582019590820190600101611d01565b509495945050505050565b5f60208083018184528085518083526040925060408601915060408160051b8701018488015f5b83811015611e1357603f19898403018552815160a08151855288820151818a870152611d7d82870182611c87565b838a0151878203888c01528051808352908c0193505f9250908b01905b80831015611dc35783516001600160a01b03168252928b019260019290920191908b0190611d9a565b506060925082840151915086810383880152611ddf8183611cee565b925050506080808301519250611dff818701846001600160a01b03169052565b509588019593505090860190600101611d4f565b509098975050505050505050565b5f60208284031215611e31575f80fd5b5035919050565b634e487b7160e01b5f52602160045260245ffd5b60038110611e6857634e487b7160e01b5f52602160045260245ffd5b9052565b5f60208083018184528085518083526040925060408601915060408160051b8701018488015f5b83811015611e1357603f19898403018552815160a08151855288820151818a870152611ec182870182611c87565b91505087820151151588860152606080830151611ee082880182611e4c565b505060809182015194909101939093529386019390860190600101611e93565b80356001600160a01b0381168114611f16575f80fd5b919050565b5f805f60608486031215611f2d575f80fd5b8335925060208401358015158114611f43575f80fd5b9150611f5160408501611f00565b90509250925092565b5f8060408385031215611f6b575f80fd5b82359150611f7b60208401611f00565b90509250929050565b634e487b7160e01b5f52604160045260245ffd5b604051601f8201601f1916810167ffffffffffffffff81118282101715611fc157611fc1611f84565b604052919050565b5f82601f830112611fd8575f80fd5b813567ffffffffffffffff811115611ff257611ff2611f84565b612005601f8201601f1916602001611f98565b818152846020838601011115612019575f80fd5b816020850160208301375f918101602001919091529392505050565b5f805f8060808587031215612048575f80fd5b61205185611f00565b9350602085013567ffffffffffffffff8082111561206d575f80fd5b61207988838901611fc9565b945061208760408801611f00565b9350606087013591508082111561209c575f80fd5b506120a987828801611fc9565b91505092959194509250565b5f80604083850312156120c6575f80fd5b50508035926020909101359150565b85815260a060208201525f6120ed60a0830187611c87565b905084151560408301526121046060830185611e4c565b8260808301529695505050505050565b602081525f611b596020830184611c87565b5f805f60608486031215612138575f80fd5b83359250602084013567ffffffffffffffff811115612155575f80fd5b61216186828701611fc9565b925050611f5160408501611f00565b5f805f8060808587031215612183575f80fd5b8435935060208501359250604085013567ffffffffffffffff8111156121a7575f80fd5b6121b387828801611fc9565b9250506121c260608601611f00565b905092959194509250565b5f805f606084860312156121df575f80fd5b833567ffffffffffffffff808211156121f6575f80fd5b61220287838801611fc9565b9450602091508186013581811115612218575f80fd5b8601601f81018813612228575f80fd5b80358281111561223a5761223a611f84565b8060051b925061224b848401611f98565b818152928201840192848101908a851115612264575f80fd5b928501925b848410156122895761227a84611f00565b82529285019290850190612269565b809750505050505050611f5160408501611f00565b838152606060208201525f6122b66060830185611c87565b905060018060a01b0383166040830152949350505050565b848152836020820152608060408201525f6122ec6080830185611c87565b905060018060a01b038316606083015295945050505050565b5f60208284031215612315575f80fd5b611b5982611f00565b600181811c9082168061233257607f821691505b60208210810361075057634e487b7160e01b5f52602260045260245ffd5b634e487b7160e01b5f52603260045260245ffd5b634e487b7160e01b5f52601160045260245ffd5b5f6001820161238957612389612364565b5060010190565b60208082526010908201526f109b1bd8c81a5cc8199a5b9a5cda195960821b604082015260600190565b6020808252601d908201527f4e6f7420612063726561746f72206f6620746869732073656564626f78000000604082015260600190565b60208082526012908201527114d9595908189bde081b9bdd08199bdd5b9960721b604082015260600190565b601f821115610a7057805f5260205f20601f840160051c810160208510156124425750805b601f840160051c820191505b81811015610a0b575f815560010161244e565b815167ffffffffffffffff81111561247b5761247b611f84565b61248f81612489845461231e565b8461241d565b602080601f8311600181146124c2575f84156124ab5750858301515b5f19600386901b1c1916600185901b178555612519565b5f85815260208120601f198616915b828110156124f0578886015182559484019460019091019084016124d1565b508582101561250d57878501515f19600388901b60f8161c191681555b505060018460011b0185555b505050505050565b8082018082111561043457610434612364565b60609190911b6bffffffffffffffffffffffff191681526430b236b4b760d91b60148201526019019056fea26469706673582212203661a66ed5ad05d3568388d4dc19fcf45d31d2dbfeafdcf8ae78dd61fdc6930a64736f6c63430008160033",
					"opcodes": "PUSH1 0x80 PUSH1 0x40 MSTORE CALLVALUE DUP1 ISZERO PUSH2 0xF JUMPI PUSH0 DUP1 REVERT JUMPDEST POP CALLER DUP1 PUSH2 0x35 JUMPI PUSH1 0x40 MLOAD PUSH4 0x1E4FBDF7 PUSH1 0xE0 SHL DUP2 MSTORE PUSH0 PUSH1 0x4 DUP3 ADD MSTORE PUSH1 0x24 ADD PUSH1 0x40 MLOAD DUP1 SWAP2 SUB SWAP1 REVERT JUMPDEST PUSH2 0x3E DUP2 PUSH2 0x44 JUMP JUMPDEST POP PUSH2 0x93 JUMP JUMPDEST PUSH0 DUP1 SLOAD PUSH1 0x1 PUSH1 0x1 PUSH1 0xA0 SHL SUB DUP4 DUP2 AND PUSH1 0x1 PUSH1 0x1 PUSH1 0xA0 SHL SUB NOT DUP4 AND DUP2 OR DUP5 SSTORE PUSH1 0x40 MLOAD SWAP2 SWAP1 SWAP3 AND SWAP3 DUP4 SWAP2 PUSH32 0x8BE0079C531659141344CD1FD0A4F28419497F9722A3DAAFE3B4186F6B6457E0 SWAP2 SWAP1 LOG3 POP POP JUMP JUMPDEST PUSH2 0x2595 DUP1 PUSH3 0xA1 PUSH0 CODECOPY PUSH0 RETURN INVALID PUSH1 0x80 PUSH1 0x40 MSTORE CALLVALUE DUP1 ISZERO PUSH2 0xF JUMPI PUSH0 DUP1 REVERT JUMPDEST POP PUSH1 0x4 CALLDATASIZE LT PUSH2 0x187 JUMPI PUSH0 CALLDATALOAD PUSH1 0xE0 SHR DUP1 PUSH4 0x91D14854 GT PUSH2 0xD9 JUMPI DUP1 PUSH4 0xB733E78A GT PUSH2 0x93 JUMPI DUP1 PUSH4 0xD2FAD2EC GT PUSH2 0x6E JUMPI DUP1 PUSH4 0xD2FAD2EC EQ PUSH2 0x399 JUMPI DUP1 PUSH4 0xD547741F EQ PUSH2 0x3BB JUMPI DUP1 PUSH4 0xE67B932C EQ PUSH2 0x3CE JUMPI DUP1 PUSH4 0xF2FDE38B EQ PUSH2 0x3F1 JUMPI PUSH0 DUP1 REVERT JUMPDEST DUP1 PUSH4 0xB733E78A EQ PUSH2 0x34B JUMPI DUP1 PUSH4 0xBDFCF4E8 EQ PUSH2 0x35E JUMPI DUP1 PUSH4 0xD2154A14 EQ PUSH2 0x371 JUMPI PUSH0 DUP1 REVERT JUMPDEST DUP1 PUSH4 0x91D14854 EQ PUSH2 0x2D8 JUMPI DUP1 PUSH4 0x96132521 EQ PUSH2 0x2EB JUMPI DUP1 PUSH4 0xA0557F70 EQ PUSH2 0x2F8 JUMPI DUP1 PUSH4 0xA217FDDF EQ PUSH2 0x31C JUMPI DUP1 PUSH4 0xAA3EC0A9 EQ PUSH2 0x323 JUMPI DUP1 PUSH4 0xB4118DB0 EQ PUSH2 0x338 JUMPI PUSH0 DUP1 REVERT JUMPDEST DUP1 PUSH4 0x2D82B1FA GT PUSH2 0x144 JUMPI DUP1 PUSH4 0x715018A6 GT PUSH2 0x11F JUMPI DUP1 PUSH4 0x715018A6 EQ PUSH2 0x29A JUMPI DUP1 PUSH4 0x7D836512 EQ PUSH2 0x2A2 JUMPI DUP1 PUSH4 0x8A19C8BC EQ PUSH2 0x2B5 JUMPI DUP1 PUSH4 0x8DA5CB5B EQ PUSH2 0x2BE JUMPI PUSH0 DUP1 REVERT JUMPDEST DUP1 PUSH4 0x2D82B1FA EQ PUSH2 0x245 JUMPI DUP1 PUSH4 0x2F2FF15D EQ PUSH2 0x274 JUMPI DUP1 PUSH4 0x36568ABE EQ PUSH2 0x287 JUMPI PUSH0 DUP1 REVERT JUMPDEST DUP1 PUSH4 0x1FFC9A7 EQ PUSH2 0x18B JUMPI DUP1 PUSH4 0x63FF530 EQ PUSH2 0x1B3 JUMPI DUP1 PUSH4 0x9E60FC9 EQ PUSH2 0x1CA JUMPI DUP1 PUSH4 0x1A1EB303 EQ PUSH2 0x1DF JUMPI DUP1 PUSH4 0x1DBA015C EQ PUSH2 0x1FF JUMPI DUP1 PUSH4 0x248A9CA3 EQ PUSH2 0x214 JUMPI JUMPDEST PUSH0 DUP1 REVERT JUMPDEST PUSH2 0x19E PUSH2 0x199 CALLDATASIZE PUSH1 0x4 PUSH2 0x1C60 JUMP JUMPDEST PUSH2 0x404 JUMP JUMPDEST PUSH1 0x40 MLOAD SWAP1 ISZERO ISZERO DUP2 MSTORE PUSH1 0x20 ADD JUMPDEST PUSH1 0x40 MLOAD DUP1 SWAP2 SUB SWAP1 RETURN JUMPDEST PUSH2 0x1BB PUSH2 0x43A JUMP JUMPDEST PUSH1 0x40 MLOAD PUSH2 0x1AA SWAP4 SWAP3 SWAP2 SWAP1 PUSH2 0x1CCA JUMP JUMPDEST PUSH2 0x1D2 PUSH2 0x4E7 JUMP JUMPDEST PUSH1 0x40 MLOAD PUSH2 0x1AA SWAP2 SWAP1 PUSH2 0x1D28 JUMP JUMPDEST PUSH2 0x1F2 PUSH2 0x1ED CALLDATASIZE PUSH1 0x4 PUSH2 0x1E21 JUMP JUMPDEST PUSH2 0x756 JUMP JUMPDEST PUSH1 0x40 MLOAD PUSH2 0x1AA SWAP2 SWAP1 PUSH2 0x1E6C JUMP JUMPDEST PUSH2 0x212 PUSH2 0x20D CALLDATASIZE PUSH1 0x4 PUSH2 0x1F1B JUMP JUMPDEST PUSH2 0x934 JUMP JUMPDEST STOP JUMPDEST PUSH2 0x237 PUSH2 0x222 CALLDATASIZE PUSH1 0x4 PUSH2 0x1E21 JUMP JUMPDEST PUSH0 SWAP1 DUP2 MSTORE PUSH1 0x1 PUSH1 0x20 DUP2 SWAP1 MSTORE PUSH1 0x40 SWAP1 SWAP2 KECCAK256 ADD SLOAD SWAP1 JUMP JUMPDEST PUSH1 0x40 MLOAD SWAP1 DUP2 MSTORE PUSH1 0x20 ADD PUSH2 0x1AA JUMP JUMPDEST PUSH2 0x237 PUSH2 0x253 CALLDATASIZE PUSH1 0x4 PUSH2 0x1E21 JUMP JUMPDEST PUSH1 0x4 SLOAD PUSH0 SWAP1 DUP2 MSTORE PUSH1 0x8 PUSH1 0x20 SWAP1 DUP2 MSTORE PUSH1 0x40 DUP1 DUP4 KECCAK256 SWAP4 DUP4 MSTORE SWAP3 SWAP1 MSTORE KECCAK256 PUSH1 0x3 ADD SLOAD SWAP1 JUMP JUMPDEST PUSH2 0x212 PUSH2 0x282 CALLDATASIZE PUSH1 0x4 PUSH2 0x1F5A JUMP JUMPDEST PUSH2 0xA12 JUMP JUMPDEST PUSH2 0x212 PUSH2 0x295 CALLDATASIZE PUSH1 0x4 PUSH2 0x1F5A JUMP JUMPDEST PUSH2 0xA3D JUMP JUMPDEST PUSH2 0x212 PUSH2 0xA75 JUMP JUMPDEST PUSH2 0x212 PUSH2 0x2B0 CALLDATASIZE PUSH1 0x4 PUSH2 0x2035 JUMP JUMPDEST PUSH2 0xA88 JUMP JUMPDEST PUSH2 0x237 PUSH1 0x4 SLOAD DUP2 JUMP JUMPDEST PUSH0 SLOAD PUSH1 0x40 MLOAD PUSH1 0x1 PUSH1 0x1 PUSH1 0xA0 SHL SUB SWAP1 SWAP2 AND DUP2 MSTORE PUSH1 0x20 ADD PUSH2 0x1AA JUMP JUMPDEST PUSH2 0x19E PUSH2 0x2E6 CALLDATASIZE PUSH1 0x4 PUSH2 0x1F5A JUMP JUMPDEST PUSH2 0xBA4 JUMP JUMPDEST PUSH1 0x6 SLOAD PUSH2 0x19E SWAP1 PUSH1 0xFF AND DUP2 JUMP JUMPDEST PUSH2 0x30B PUSH2 0x306 CALLDATASIZE PUSH1 0x4 PUSH2 0x20B5 JUMP JUMPDEST PUSH2 0xBCE JUMP JUMPDEST PUSH1 0x40 MLOAD PUSH2 0x1AA SWAP6 SWAP5 SWAP4 SWAP3 SWAP2 SWAP1 PUSH2 0x20D5 JUMP JUMPDEST PUSH2 0x237 PUSH0 DUP2 JUMP JUMPDEST PUSH2 0x32B PUSH2 0xC94 JUMP JUMPDEST PUSH1 0x40 MLOAD PUSH2 0x1AA SWAP2 SWAP1 PUSH2 0x2114 JUMP JUMPDEST PUSH2 0x212 PUSH2 0x346 CALLDATASIZE PUSH1 0x4 PUSH2 0x2126 JUMP JUMPDEST PUSH2 0xD20 JUMP JUMPDEST PUSH2 0x212 PUSH2 0x359 CALLDATASIZE PUSH1 0x4 PUSH2 0x2170 JUMP JUMPDEST PUSH2 0xF0B JUMP JUMPDEST PUSH2 0x237 PUSH2 0x36C CALLDATASIZE PUSH1 0x4 PUSH2 0x21CD JUMP JUMPDEST PUSH2 0x10D8 JUMP JUMPDEST PUSH2 0x384 PUSH2 0x37F CALLDATASIZE PUSH1 0x4 PUSH2 0x1F5A JUMP JUMPDEST PUSH2 0x1154 JUMP JUMPDEST PUSH1 0x40 DUP1 MLOAD SWAP3 DUP4 MSTORE PUSH1 0x20 DUP4 ADD SWAP2 SWAP1 SWAP2 MSTORE ADD PUSH2 0x1AA JUMP JUMPDEST PUSH2 0x3AC PUSH2 0x3A7 CALLDATASIZE PUSH1 0x4 PUSH2 0x1E21 JUMP JUMPDEST PUSH2 0x141D JUMP JUMPDEST PUSH1 0x40 MLOAD PUSH2 0x1AA SWAP4 SWAP3 SWAP2 SWAP1 PUSH2 0x229E JUMP JUMPDEST PUSH2 0x212 PUSH2 0x3C9 CALLDATASIZE PUSH1 0x4 PUSH2 0x1F5A JUMP JUMPDEST PUSH2 0x14CE JUMP JUMPDEST PUSH2 0x3E1 PUSH2 0x3DC CALLDATASIZE PUSH1 0x4 PUSH2 0x1E21 JUMP JUMPDEST PUSH2 0x14F3 JUMP JUMPDEST PUSH1 0x40 MLOAD PUSH2 0x1AA SWAP5 SWAP4 SWAP3 SWAP2 SWAP1 PUSH2 0x22CE JUMP JUMPDEST PUSH2 0x212 PUSH2 0x3FF CALLDATASIZE PUSH1 0x4 PUSH2 0x2305 JUMP JUMPDEST PUSH2 0x15AA JUMP JUMPDEST PUSH0 PUSH1 0x1 PUSH1 0x1 PUSH1 0xE0 SHL SUB NOT DUP3 AND PUSH4 0x7965DB0B PUSH1 0xE0 SHL EQ DUP1 PUSH2 0x434 JUMPI POP PUSH4 0x1FFC9A7 PUSH1 0xE0 SHL PUSH1 0x1 PUSH1 0x1 PUSH1 0xE0 SHL SUB NOT DUP4 AND EQ JUMPDEST SWAP3 SWAP2 POP POP JUMP JUMPDEST PUSH1 0x60 PUSH0 DUP1 PUSH1 0x5 PUSH1 0x6 PUSH0 SWAP1 SLOAD SWAP1 PUSH2 0x100 EXP SWAP1 DIV PUSH1 0xFF AND PUSH1 0x4 SLOAD DUP3 DUP1 SLOAD PUSH2 0x45E SWAP1 PUSH2 0x231E JUMP JUMPDEST DUP1 PUSH1 0x1F ADD PUSH1 0x20 DUP1 SWAP2 DIV MUL PUSH1 0x20 ADD PUSH1 0x40 MLOAD SWAP1 DUP2 ADD PUSH1 0x40 MSTORE DUP1 SWAP3 SWAP2 SWAP1 DUP2 DUP2 MSTORE PUSH1 0x20 ADD DUP3 DUP1 SLOAD PUSH2 0x48A SWAP1 PUSH2 0x231E JUMP JUMPDEST DUP1 ISZERO PUSH2 0x4D5 JUMPI DUP1 PUSH1 0x1F LT PUSH2 0x4AC JUMPI PUSH2 0x100 DUP1 DUP4 SLOAD DIV MUL DUP4 MSTORE SWAP2 PUSH1 0x20 ADD SWAP2 PUSH2 0x4D5 JUMP JUMPDEST DUP3 ADD SWAP2 SWAP1 PUSH0 MSTORE PUSH1 0x20 PUSH0 KECCAK256 SWAP1 JUMPDEST DUP2 SLOAD DUP2 MSTORE SWAP1 PUSH1 0x1 ADD SWAP1 PUSH1 0x20 ADD DUP1 DUP4 GT PUSH2 0x4B8 JUMPI DUP3 SWAP1 SUB PUSH1 0x1F AND DUP3 ADD SWAP2 JUMPDEST POP POP POP POP POP SWAP3 POP SWAP3 POP SWAP3 POP SWAP3 POP SWAP1 SWAP2 SWAP3 JUMP JUMPDEST PUSH1 0x60 PUSH0 PUSH1 0x2 SLOAD PUSH8 0xFFFFFFFFFFFFFFFF DUP2 GT ISZERO PUSH2 0x505 JUMPI PUSH2 0x505 PUSH2 0x1F84 JUMP JUMPDEST PUSH1 0x40 MLOAD SWAP1 DUP1 DUP3 MSTORE DUP1 PUSH1 0x20 MUL PUSH1 0x20 ADD DUP3 ADD PUSH1 0x40 MSTORE DUP1 ISZERO PUSH2 0x56F JUMPI DUP2 PUSH1 0x20 ADD JUMPDEST PUSH2 0x55C PUSH1 0x40 MLOAD DUP1 PUSH1 0xA0 ADD PUSH1 0x40 MSTORE DUP1 PUSH0 DUP2 MSTORE PUSH1 0x20 ADD PUSH1 0x60 DUP2 MSTORE PUSH1 0x20 ADD PUSH1 0x60 DUP2 MSTORE PUSH1 0x20 ADD PUSH1 0x60 DUP2 MSTORE PUSH1 0x20 ADD PUSH0 PUSH1 0x1 PUSH1 0x1 PUSH1 0xA0 SHL SUB AND DUP2 MSTORE POP SWAP1 JUMP JUMPDEST DUP2 MSTORE PUSH1 0x20 ADD SWAP1 PUSH1 0x1 SWAP1 SUB SWAP1 DUP2 PUSH2 0x523 JUMPI SWAP1 POP JUMPDEST POP SWAP1 POP PUSH0 JUMPDEST PUSH1 0x2 SLOAD DUP2 LT ISZERO PUSH2 0x750 JUMPI PUSH0 DUP2 DUP2 MSTORE PUSH1 0x7 PUSH1 0x20 MSTORE PUSH1 0x40 SWAP1 KECCAK256 DUP1 SLOAD DUP4 MLOAD DUP5 SWAP1 DUP5 SWAP1 DUP2 LT PUSH2 0x5A1 JUMPI PUSH2 0x5A1 PUSH2 0x2350 JUMP JUMPDEST PUSH1 0x20 SWAP1 DUP2 MUL SWAP2 SWAP1 SWAP2 ADD ADD MLOAD MSTORE PUSH1 0x1 DUP2 ADD DUP1 SLOAD PUSH2 0x5BC SWAP1 PUSH2 0x231E JUMP JUMPDEST DUP1 PUSH1 0x1F ADD PUSH1 0x20 DUP1 SWAP2 DIV MUL PUSH1 0x20 ADD PUSH1 0x40 MLOAD SWAP1 DUP2 ADD PUSH1 0x40 MSTORE DUP1 SWAP3 SWAP2 SWAP1 DUP2 DUP2 MSTORE PUSH1 0x20 ADD DUP3 DUP1 SLOAD PUSH2 0x5E8 SWAP1 PUSH2 0x231E JUMP JUMPDEST DUP1 ISZERO PUSH2 0x633 JUMPI DUP1 PUSH1 0x1F LT PUSH2 0x60A JUMPI PUSH2 0x100 DUP1 DUP4 SLOAD DIV MUL DUP4 MSTORE SWAP2 PUSH1 0x20 ADD SWAP2 PUSH2 0x633 JUMP JUMPDEST DUP3 ADD SWAP2 SWAP1 PUSH0 MSTORE PUSH1 0x20 PUSH0 KECCAK256 SWAP1 JUMPDEST DUP2 SLOAD DUP2 MSTORE SWAP1 PUSH1 0x1 ADD SWAP1 PUSH1 0x20 ADD DUP1 DUP4 GT PUSH2 0x616 JUMPI DUP3 SWAP1 SUB PUSH1 0x1F AND DUP3 ADD SWAP2 JUMPDEST POP POP POP POP POP DUP4 DUP4 DUP2 MLOAD DUP2 LT PUSH2 0x64A JUMPI PUSH2 0x64A PUSH2 0x2350 JUMP JUMPDEST PUSH1 0x20 MUL PUSH1 0x20 ADD ADD MLOAD PUSH1 0x20 ADD DUP2 SWAP1 MSTORE POP DUP1 PUSH1 0x3 ADD DUP1 SLOAD DUP1 PUSH1 0x20 MUL PUSH1 0x20 ADD PUSH1 0x40 MLOAD SWAP1 DUP2 ADD PUSH1 0x40 MSTORE DUP1 SWAP3 SWAP2 SWAP1 DUP2 DUP2 MSTORE PUSH1 0x20 ADD DUP3 DUP1 SLOAD DUP1 ISZERO PUSH2 0x6AF JUMPI PUSH1 0x20 MUL DUP3 ADD SWAP2 SWAP1 PUSH0 MSTORE PUSH1 0x20 PUSH0 KECCAK256 SWAP1 JUMPDEST DUP2 SLOAD PUSH1 0x1 PUSH1 0x1 PUSH1 0xA0 SHL SUB AND DUP2 MSTORE PUSH1 0x1 SWAP1 SWAP2 ADD SWAP1 PUSH1 0x20 ADD DUP1 DUP4 GT PUSH2 0x691 JUMPI JUMPDEST POP POP POP POP POP DUP4 DUP4 DUP2 MLOAD DUP2 LT PUSH2 0x6C6 JUMPI PUSH2 0x6C6 PUSH2 0x2350 JUMP JUMPDEST PUSH1 0x20 MUL PUSH1 0x20 ADD ADD MLOAD PUSH1 0x40 ADD DUP2 SWAP1 MSTORE POP DUP1 PUSH1 0x2 ADD DUP1 SLOAD DUP1 PUSH1 0x20 MUL PUSH1 0x20 ADD PUSH1 0x40 MLOAD SWAP1 DUP2 ADD PUSH1 0x40 MSTORE DUP1 SWAP3 SWAP2 SWAP1 DUP2 DUP2 MSTORE PUSH1 0x20 ADD DUP3 DUP1 SLOAD DUP1 ISZERO PUSH2 0x721 JUMPI PUSH1 0x20 MUL DUP3 ADD SWAP2 SWAP1 PUSH0 MSTORE PUSH1 0x20 PUSH0 KECCAK256 SWAP1 JUMPDEST DUP2 SLOAD DUP2 MSTORE PUSH1 0x20 ADD SWAP1 PUSH1 0x1 ADD SWAP1 DUP1 DUP4 GT PUSH2 0x70D JUMPI JUMPDEST POP POP POP POP POP DUP4 DUP4 DUP2 MLOAD DUP2 LT PUSH2 0x738 JUMPI PUSH2 0x738 PUSH2 0x2350 JUMP JUMPDEST PUSH1 0x20 SWAP1 DUP2 MUL SWAP2 SWAP1 SWAP2 ADD ADD MLOAD PUSH1 0x60 ADD MSTORE POP PUSH1 0x1 ADD PUSH2 0x574 JUMP JUMPDEST POP SWAP2 SWAP1 POP JUMP JUMPDEST PUSH1 0x2 SLOAD PUSH1 0x60 SWAP1 DUP2 PUSH1 0x1 JUMPDEST DUP3 DUP2 GT PUSH2 0x92C JUMPI PUSH0 DUP2 DUP2 MSTORE PUSH1 0x7 PUSH1 0x20 SWAP1 DUP2 MSTORE PUSH1 0x40 DUP1 DUP4 KECCAK256 DUP9 DUP5 MSTORE PUSH1 0x5 ADD DUP3 MSTORE DUP1 DUP4 KECCAK256 DUP1 SLOAD DUP3 MLOAD DUP2 DUP6 MUL DUP2 ADD DUP6 ADD SWAP1 SWAP4 MSTORE DUP1 DUP4 MSTORE SWAP2 SWAP3 SWAP1 SWAP2 SWAP1 DUP4 ADD DUP3 DUP3 DUP1 ISZERO PUSH2 0x7C5 JUMPI PUSH1 0x20 MUL DUP3 ADD SWAP2 SWAP1 PUSH0 MSTORE PUSH1 0x20 PUSH0 KECCAK256 SWAP1 JUMPDEST DUP2 SLOAD DUP2 MSTORE PUSH1 0x20 ADD SWAP1 PUSH1 0x1 ADD SWAP1 DUP1 DUP4 GT PUSH2 0x7B1 JUMPI JUMPDEST POP POP POP POP POP SWAP1 POP PUSH0 JUMPDEST DUP2 MLOAD DUP2 LT ISZERO PUSH2 0x917 JUMPI PUSH0 DUP8 DUP2 MSTORE PUSH1 0x8 PUSH1 0x20 MSTORE PUSH1 0x40 DUP2 KECCAK256 DUP4 MLOAD DUP3 SWAP1 DUP6 SWAP1 DUP6 SWAP1 DUP2 LT PUSH2 0x7FA JUMPI PUSH2 0x7FA PUSH2 0x2350 JUMP JUMPDEST PUSH1 0x20 MUL PUSH1 0x20 ADD ADD MLOAD DUP2 MSTORE PUSH1 0x20 ADD SWAP1 DUP2 MSTORE PUSH1 0x20 ADD PUSH0 KECCAK256 PUSH1 0x40 MLOAD DUP1 PUSH1 0xA0 ADD PUSH1 0x40 MSTORE SWAP1 DUP2 PUSH0 DUP3 ADD SLOAD DUP2 MSTORE PUSH1 0x20 ADD PUSH1 0x1 DUP3 ADD DUP1 SLOAD PUSH2 0x833 SWAP1 PUSH2 0x231E JUMP JUMPDEST DUP1 PUSH1 0x1F ADD PUSH1 0x20 DUP1 SWAP2 DIV MUL PUSH1 0x20 ADD PUSH1 0x40 MLOAD SWAP1 DUP2 ADD PUSH1 0x40 MSTORE DUP1 SWAP3 SWAP2 SWAP1 DUP2 DUP2 MSTORE PUSH1 0x20 ADD DUP3 DUP1 SLOAD PUSH2 0x85F SWAP1 PUSH2 0x231E JUMP JUMPDEST DUP1 ISZERO PUSH2 0x8AA JUMPI DUP1 PUSH1 0x1F LT PUSH2 0x881 JUMPI PUSH2 0x100 DUP1 DUP4 SLOAD DIV MUL DUP4 MSTORE SWAP2 PUSH1 0x20 ADD SWAP2 PUSH2 0x8AA JUMP JUMPDEST DUP3 ADD SWAP2 SWAP1 PUSH0 MSTORE PUSH1 0x20 PUSH0 KECCAK256 SWAP1 JUMPDEST DUP2 SLOAD DUP2 MSTORE SWAP1 PUSH1 0x1 ADD SWAP1 PUSH1 0x20 ADD DUP1 DUP4 GT PUSH2 0x88D JUMPI DUP3 SWAP1 SUB PUSH1 0x1F AND DUP3 ADD SWAP2 JUMPDEST POP POP POP SWAP2 DUP4 MSTORE POP POP PUSH1 0x2 DUP3 DUP2 ADD SLOAD PUSH1 0xFF DUP1 DUP3 AND ISZERO ISZERO PUSH1 0x20 DUP6 ADD MSTORE PUSH1 0x40 SWAP1 SWAP4 ADD SWAP3 PUSH2 0x100 SWAP1 SWAP2 DIV AND SWAP1 DUP2 GT ISZERO PUSH2 0x8E1 JUMPI PUSH2 0x8E1 PUSH2 0x1E38 JUMP JUMPDEST PUSH1 0x2 DUP2 GT ISZERO PUSH2 0x8F2 JUMPI PUSH2 0x8F2 PUSH2 0x1E38 JUMP JUMPDEST DUP2 MSTORE PUSH1 0x20 ADD PUSH1 0x3 DUP3 ADD SLOAD DUP2 MSTORE POP POP SWAP1 POP PUSH2 0x90C DUP6 DUP3 PUSH2 0x15E7 JUMP JUMPDEST SWAP5 POP POP PUSH1 0x1 ADD PUSH2 0x7CE JUMP JUMPDEST POP POP DUP1 DUP1 PUSH2 0x924 SWAP1 PUSH2 0x2378 JUMP JUMPDEST SWAP2 POP POP PUSH2 0x760 JUMP JUMPDEST POP SWAP4 SWAP3 POP POP POP JUMP JUMPDEST PUSH2 0x93C PUSH2 0x16DB JUMP JUMPDEST DUP1 PUSH2 0x946 DUP2 PUSH2 0x1707 JUMP JUMPDEST PUSH1 0x6 SLOAD PUSH1 0xFF AND ISZERO PUSH2 0x972 JUMPI PUSH1 0x40 MLOAD PUSH3 0x461BCD PUSH1 0xE5 SHL DUP2 MSTORE PUSH1 0x4 ADD PUSH2 0x969 SWAP1 PUSH2 0x2390 JUMP JUMPDEST PUSH1 0x40 MLOAD DUP1 SWAP2 SUB SWAP1 REVERT JUMPDEST PUSH1 0x4 SLOAD PUSH0 SWAP1 DUP2 MSTORE PUSH1 0x8 PUSH1 0x20 SWAP1 DUP2 MSTORE PUSH1 0x40 DUP1 DUP4 KECCAK256 DUP8 DUP5 MSTORE SWAP1 SWAP2 MSTORE DUP2 KECCAK256 DUP1 SLOAD SWAP1 SWAP2 SUB PUSH2 0x9CF JUMPI PUSH1 0x40 MLOAD PUSH3 0x461BCD PUSH1 0xE5 SHL DUP2 MSTORE PUSH1 0x20 PUSH1 0x4 DUP3 ADD MSTORE PUSH1 0xE PUSH1 0x24 DUP3 ADD MSTORE PUSH14 0x14D95959081B9BDD08199BDD5B99 PUSH1 0x92 SHL PUSH1 0x44 DUP3 ADD MSTORE PUSH1 0x64 ADD PUSH2 0x969 JUMP JUMPDEST PUSH1 0x2 DUP2 ADD DUP1 SLOAD PUSH1 0xFF NOT AND PUSH1 0x1 OR SWAP1 SSTORE DUP4 ISZERO PUSH2 0x9F6 JUMPI PUSH1 0x6 DUP1 SLOAD PUSH1 0xFF NOT AND PUSH1 0x1 OR SWAP1 SSTORE PUSH2 0xA0B JUMP JUMPDEST PUSH1 0x4 DUP1 SLOAD SWAP1 PUSH0 PUSH2 0xA05 DUP4 PUSH2 0x2378 JUMP JUMPDEST SWAP2 SWAP1 POP SSTORE POP JUMPDEST POP POP POP POP POP JUMP JUMPDEST PUSH0 DUP3 DUP2 MSTORE PUSH1 0x1 PUSH1 0x20 DUP2 SWAP1 MSTORE PUSH1 0x40 SWAP1 SWAP2 KECCAK256 ADD SLOAD PUSH2 0xA2D DUP2 PUSH2 0x174B JUMP JUMPDEST PUSH2 0xA37 DUP4 DUP4 PUSH2 0x1755 JUMP JUMPDEST POP POP POP POP JUMP JUMPDEST PUSH1 0x1 PUSH1 0x1 PUSH1 0xA0 SHL SUB DUP2 AND CALLER EQ PUSH2 0xA66 JUMPI PUSH1 0x40 MLOAD PUSH4 0x334BD919 PUSH1 0xE1 SHL DUP2 MSTORE PUSH1 0x4 ADD PUSH1 0x40 MLOAD DUP1 SWAP2 SUB SWAP1 REVERT JUMPDEST PUSH2 0xA70 DUP3 DUP3 PUSH2 0x17CB JUMP JUMPDEST POP POP POP JUMP JUMPDEST PUSH2 0xA7D PUSH2 0x16DB JUMP JUMPDEST PUSH2 0xA86 PUSH0 PUSH2 0x1836 JUMP JUMPDEST JUMP JUMPDEST PUSH32 0xF0C57E16840DF040F15088DC2F81FE391C3923BEC73E23A9662EFC9C229C6A00 DUP1 SLOAD PUSH1 0x1 PUSH1 0x40 SHL DUP2 DIV PUSH1 0xFF AND ISZERO SWAP1 PUSH8 0xFFFFFFFFFFFFFFFF AND PUSH0 DUP2 ISZERO DUP1 ISZERO PUSH2 0xACD JUMPI POP DUP3 JUMPDEST SWAP1 POP PUSH0 DUP3 PUSH8 0xFFFFFFFFFFFFFFFF AND PUSH1 0x1 EQ DUP1 ISZERO PUSH2 0xAE9 JUMPI POP ADDRESS EXTCODESIZE ISZERO JUMPDEST SWAP1 POP DUP2 ISZERO DUP1 ISZERO PUSH2 0xAF7 JUMPI POP DUP1 ISZERO JUMPDEST ISZERO PUSH2 0xB15 JUMPI PUSH1 0x40 MLOAD PUSH4 0xF92EE8A9 PUSH1 0xE0 SHL DUP2 MSTORE PUSH1 0x4 ADD PUSH1 0x40 MLOAD DUP1 SWAP2 SUB SWAP1 REVERT JUMPDEST DUP5 SLOAD PUSH8 0xFFFFFFFFFFFFFFFF NOT AND PUSH1 0x1 OR DUP6 SSTORE DUP4 ISZERO PUSH2 0xB3F JUMPI DUP5 SLOAD PUSH1 0xFF PUSH1 0x40 SHL NOT AND PUSH1 0x1 PUSH1 0x40 SHL OR DUP6 SSTORE JUMPDEST PUSH2 0xB4A DUP10 DUP10 DUP9 PUSH2 0x1885 JUMP JUMPDEST PUSH2 0xB53 DUP8 PUSH2 0x15AA JUMP JUMPDEST DUP4 ISZERO PUSH2 0xB99 JUMPI DUP5 SLOAD PUSH1 0xFF PUSH1 0x40 SHL NOT AND DUP6 SSTORE PUSH1 0x40 MLOAD PUSH1 0x1 DUP2 MSTORE PUSH32 0xC7F505B2F371AE2175EE4913F4499E1F2633A7B5936321EED1CDAEB6115181D2 SWAP1 PUSH1 0x20 ADD PUSH1 0x40 MLOAD DUP1 SWAP2 SUB SWAP1 LOG1 JUMPDEST POP POP POP POP POP POP POP POP POP JUMP JUMPDEST PUSH0 SWAP2 DUP3 MSTORE PUSH1 0x1 PUSH1 0x20 SWAP1 DUP2 MSTORE PUSH1 0x40 DUP1 DUP5 KECCAK256 PUSH1 0x1 PUSH1 0x1 PUSH1 0xA0 SHL SUB SWAP4 SWAP1 SWAP4 AND DUP5 MSTORE SWAP2 SWAP1 MSTORE SWAP1 KECCAK256 SLOAD PUSH1 0xFF AND SWAP1 JUMP JUMPDEST PUSH1 0x8 PUSH1 0x20 SWAP1 DUP2 MSTORE PUSH0 SWAP3 DUP4 MSTORE PUSH1 0x40 DUP1 DUP5 KECCAK256 SWAP1 SWAP2 MSTORE SWAP1 DUP3 MSTORE SWAP1 KECCAK256 DUP1 SLOAD PUSH1 0x1 DUP3 ADD DUP1 SLOAD SWAP2 SWAP3 SWAP2 PUSH2 0xBFA SWAP1 PUSH2 0x231E JUMP JUMPDEST DUP1 PUSH1 0x1F ADD PUSH1 0x20 DUP1 SWAP2 DIV MUL PUSH1 0x20 ADD PUSH1 0x40 MLOAD SWAP1 DUP2 ADD PUSH1 0x40 MSTORE DUP1 SWAP3 SWAP2 SWAP1 DUP2 DUP2 MSTORE PUSH1 0x20 ADD DUP3 DUP1 SLOAD PUSH2 0xC26 SWAP1 PUSH2 0x231E JUMP JUMPDEST DUP1 ISZERO PUSH2 0xC71 JUMPI DUP1 PUSH1 0x1F LT PUSH2 0xC48 JUMPI PUSH2 0x100 DUP1 DUP4 SLOAD DIV MUL DUP4 MSTORE SWAP2 PUSH1 0x20 ADD SWAP2 PUSH2 0xC71 JUMP JUMPDEST DUP3 ADD SWAP2 SWAP1 PUSH0 MSTORE PUSH1 0x20 PUSH0 KECCAK256 SWAP1 JUMPDEST DUP2 SLOAD DUP2 MSTORE SWAP1 PUSH1 0x1 ADD SWAP1 PUSH1 0x20 ADD DUP1 DUP4 GT PUSH2 0xC54 JUMPI DUP3 SWAP1 SUB PUSH1 0x1F AND DUP3 ADD SWAP2 JUMPDEST POP POP POP POP PUSH1 0x2 DUP4 ADD SLOAD PUSH1 0x3 SWAP1 SWAP4 ADD SLOAD SWAP2 SWAP3 PUSH1 0xFF DUP1 DUP3 AND SWAP4 PUSH2 0x100 SWAP1 SWAP3 DIV AND SWAP2 POP DUP6 JUMP JUMPDEST PUSH1 0x5 DUP1 SLOAD PUSH2 0xCA1 SWAP1 PUSH2 0x231E JUMP JUMPDEST DUP1 PUSH1 0x1F ADD PUSH1 0x20 DUP1 SWAP2 DIV MUL PUSH1 0x20 ADD PUSH1 0x40 MLOAD SWAP1 DUP2 ADD PUSH1 0x40 MSTORE DUP1 SWAP3 SWAP2 SWAP1 DUP2 DUP2 MSTORE PUSH1 0x20 ADD DUP3 DUP1 SLOAD PUSH2 0xCCD SWAP1 PUSH2 0x231E JUMP JUMPDEST DUP1 ISZERO PUSH2 0xD18 JUMPI DUP1 PUSH1 0x1F LT PUSH2 0xCEF JUMPI PUSH2 0x100 DUP1 DUP4 SLOAD DIV MUL DUP4 MSTORE SWAP2 PUSH1 0x20 ADD SWAP2 PUSH2 0xD18 JUMP JUMPDEST DUP3 ADD SWAP2 SWAP1 PUSH0 MSTORE PUSH1 0x20 PUSH0 KECCAK256 SWAP1 JUMPDEST DUP2 SLOAD DUP2 MSTORE SWAP1 PUSH1 0x1 ADD SWAP1 PUSH1 0x20 ADD DUP1 DUP4 GT PUSH2 0xCFB JUMPI DUP3 SWAP1 SUB PUSH1 0x1F AND DUP3 ADD SWAP2 JUMPDEST POP POP POP POP POP DUP2 JUMP JUMPDEST PUSH2 0xD28 PUSH2 0x16DB JUMP JUMPDEST PUSH0 DUP4 DUP2 MSTORE PUSH1 0x7 PUSH1 0x20 SWAP1 DUP2 MSTORE PUSH1 0x40 SWAP2 DUP3 SWAP1 KECCAK256 PUSH1 0x3 DUP2 ADD DUP1 SLOAD DUP5 MLOAD DUP2 DUP6 MUL DUP2 ADD DUP6 ADD SWAP1 SWAP6 MSTORE DUP1 DUP6 MSTORE DUP6 SWAP5 DUP9 SWAP5 PUSH2 0xD9B SWAP4 SWAP2 SWAP3 SWAP1 DUP4 ADD DUP3 DUP3 DUP1 ISZERO PUSH2 0xD90 JUMPI PUSH1 0x20 MUL DUP3 ADD SWAP2 SWAP1 PUSH0 MSTORE PUSH1 0x20 PUSH0 KECCAK256 SWAP1 JUMPDEST DUP2 SLOAD PUSH1 0x1 PUSH1 0x1 PUSH1 0xA0 SHL SUB AND DUP2 MSTORE PUSH1 0x1 SWAP1 SWAP2 ADD SWAP1 PUSH1 0x20 ADD DUP1 DUP4 GT PUSH2 0xD72 JUMPI JUMPDEST POP POP POP POP POP DUP5 PUSH2 0x1A8D JUMP JUMPDEST DUP1 PUSH2 0xDB5 JUMPI POP PUSH1 0x4 DUP2 ADD SLOAD PUSH1 0x1 PUSH1 0x1 PUSH1 0xA0 SHL SUB DUP5 DUP2 AND SWAP2 AND EQ JUMPDEST PUSH2 0xDD1 JUMPI PUSH1 0x40 MLOAD PUSH3 0x461BCD PUSH1 0xE5 SHL DUP2 MSTORE PUSH1 0x4 ADD PUSH2 0x969 SWAP1 PUSH2 0x23BA JUMP JUMPDEST PUSH0 DUP7 DUP2 MSTORE PUSH1 0x7 PUSH1 0x20 MSTORE PUSH1 0x40 DUP2 KECCAK256 DUP1 SLOAD SWAP1 SWAP2 SUB PUSH2 0xDFF JUMPI PUSH1 0x40 MLOAD PUSH3 0x461BCD PUSH1 0xE5 SHL DUP2 MSTORE PUSH1 0x4 ADD PUSH2 0x969 SWAP1 PUSH2 0x23F1 JUMP JUMPDEST PUSH2 0xE63 DUP2 PUSH1 0x3 ADD DUP1 SLOAD DUP1 PUSH1 0x20 MUL PUSH1 0x20 ADD PUSH1 0x40 MLOAD SWAP1 DUP2 ADD PUSH1 0x40 MSTORE DUP1 SWAP3 SWAP2 SWAP1 DUP2 DUP2 MSTORE PUSH1 0x20 ADD DUP3 DUP1 SLOAD DUP1 ISZERO PUSH2 0xE58 JUMPI PUSH1 0x20 MUL DUP3 ADD SWAP2 SWAP1 PUSH0 MSTORE PUSH1 0x20 PUSH0 KECCAK256 SWAP1 JUMPDEST DUP2 SLOAD PUSH1 0x1 PUSH1 0x1 PUSH1 0xA0 SHL SUB AND DUP2 MSTORE PUSH1 0x1 SWAP1 SWAP2 ADD SWAP1 PUSH1 0x20 ADD DUP1 DUP4 GT PUSH2 0xE3A JUMPI JUMPDEST POP POP POP POP POP DUP7 PUSH2 0x1A8D JUMP JUMPDEST PUSH2 0xEA3 JUMPI PUSH1 0x40 MLOAD PUSH3 0x461BCD PUSH1 0xE5 SHL DUP2 MSTORE PUSH1 0x20 PUSH1 0x4 DUP3 ADD MSTORE PUSH1 0x11 PUSH1 0x24 DUP3 ADD MSTORE PUSH17 0x2737BA10309031B7B73A3934B13ABA37B9 PUSH1 0x79 SHL PUSH1 0x44 DUP3 ADD MSTORE PUSH1 0x64 ADD PUSH2 0x969 JUMP JUMPDEST PUSH0 PUSH1 0x3 PUSH0 DUP2 SLOAD PUSH2 0xEB2 SWAP1 PUSH2 0x2378 JUMP JUMPDEST SWAP2 DUP3 SWAP1 SSTORE POP PUSH0 DUP2 DUP2 MSTORE PUSH1 0x9 PUSH1 0x20 MSTORE PUSH1 0x40 SWAP1 KECCAK256 DUP10 DUP2 SSTORE PUSH1 0x1 DUP2 ADD DUP3 SWAP1 SSTORE SWAP1 SWAP2 POP PUSH1 0x2 DUP2 ADD PUSH2 0xEDF DUP10 DUP3 PUSH2 0x2461 JUMP JUMPDEST POP PUSH1 0x3 ADD DUP1 SLOAD PUSH1 0x1 PUSH1 0x1 PUSH1 0xA0 SHL SUB NOT AND PUSH1 0x1 PUSH1 0x1 PUSH1 0xA0 SHL SUB SWAP8 SWAP1 SWAP8 AND SWAP7 SWAP1 SWAP7 OR SWAP1 SWAP6 SSTORE POP POP POP POP POP POP POP JUMP JUMPDEST PUSH2 0xF13 PUSH2 0x16DB JUMP JUMPDEST PUSH0 DUP5 DUP2 MSTORE PUSH1 0x7 PUSH1 0x20 SWAP1 DUP2 MSTORE PUSH1 0x40 SWAP2 DUP3 SWAP1 KECCAK256 PUSH1 0x3 DUP2 ADD DUP1 SLOAD DUP5 MLOAD DUP2 DUP6 MUL DUP2 ADD DUP6 ADD SWAP1 SWAP6 MSTORE DUP1 DUP6 MSTORE DUP6 SWAP5 DUP10 SWAP5 PUSH2 0xF84 SWAP4 SWAP2 SWAP3 SWAP1 DUP4 ADD DUP3 DUP3 DUP1 ISZERO PUSH2 0xD90 JUMPI PUSH1 0x20 MUL DUP3 ADD SWAP2 SWAP1 PUSH0 MSTORE PUSH1 0x20 PUSH0 KECCAK256 SWAP1 DUP2 SLOAD PUSH1 0x1 PUSH1 0x1 PUSH1 0xA0 SHL SUB AND DUP2 MSTORE PUSH1 0x1 SWAP1 SWAP2 ADD SWAP1 PUSH1 0x20 ADD DUP1 DUP4 GT PUSH2 0xD72 JUMPI POP POP POP POP POP DUP5 PUSH2 0x1A8D JUMP JUMPDEST DUP1 PUSH2 0xF9E JUMPI POP PUSH1 0x4 DUP2 ADD SLOAD PUSH1 0x1 PUSH1 0x1 PUSH1 0xA0 SHL SUB DUP5 DUP2 AND SWAP2 AND EQ JUMPDEST PUSH2 0xFBA JUMPI PUSH1 0x40 MLOAD PUSH3 0x461BCD PUSH1 0xE5 SHL DUP2 MSTORE PUSH1 0x4 ADD PUSH2 0x969 SWAP1 PUSH2 0x23BA JUMP JUMPDEST PUSH1 0x6 SLOAD PUSH1 0xFF AND ISZERO PUSH2 0xFDD JUMPI PUSH1 0x40 MLOAD PUSH3 0x461BCD PUSH1 0xE5 SHL DUP2 MSTORE PUSH1 0x4 ADD PUSH2 0x969 SWAP1 PUSH2 0x2390 JUMP JUMPDEST PUSH0 DUP8 DUP2 MSTORE PUSH1 0x7 PUSH1 0x20 MSTORE PUSH1 0x40 DUP2 KECCAK256 DUP1 SLOAD SWAP1 SWAP2 SUB PUSH2 0x100B JUMPI PUSH1 0x40 MLOAD PUSH3 0x461BCD PUSH1 0xE5 SHL DUP2 MSTORE PUSH1 0x4 ADD PUSH2 0x969 SWAP1 PUSH2 0x23F1 JUMP JUMPDEST PUSH1 0x4 SLOAD PUSH0 SWAP1 DUP2 MSTORE PUSH1 0x8 PUSH1 0x20 SWAP1 DUP2 MSTORE PUSH1 0x40 DUP1 DUP4 KECCAK256 DUP11 DUP5 MSTORE SWAP1 SWAP2 MSTORE DUP2 KECCAK256 DUP1 SLOAD SWAP1 SWAP2 SUB PUSH2 0x1068 JUMPI PUSH1 0x40 MLOAD PUSH3 0x461BCD PUSH1 0xE5 SHL DUP2 MSTORE PUSH1 0x20 PUSH1 0x4 DUP3 ADD MSTORE PUSH1 0xE PUSH1 0x24 DUP3 ADD MSTORE PUSH14 0x14D95959081B9BDD08199BDD5B99 PUSH1 0x92 SHL PUSH1 0x44 DUP3 ADD MSTORE PUSH1 0x64 ADD PUSH2 0x969 JUMP JUMPDEST PUSH1 0x3 DUP2 ADD SLOAD DUP3 SLOAD EQ PUSH2 0x10AF JUMPI PUSH1 0x40 MLOAD PUSH3 0x461BCD PUSH1 0xE5 SHL DUP2 MSTORE PUSH1 0x20 PUSH1 0x4 DUP3 ADD MSTORE PUSH1 0x10 PUSH1 0x24 DUP3 ADD MSTORE PUSH16 0x92DCECC2D8D2C840E6CACAC840C4DEF PUSH1 0x83 SHL PUSH1 0x44 DUP3 ADD MSTORE PUSH1 0x64 ADD PUSH2 0x969 JUMP JUMPDEST PUSH1 0x1 DUP2 ADD PUSH2 0x10BD DUP9 DUP3 PUSH2 0x2461 JUMP JUMPDEST POP PUSH1 0x2 ADD DUP1 SLOAD PUSH2 0xFF00 NOT AND PUSH2 0x100 OR SWAP1 SSTORE POP POP POP POP POP POP POP POP JUMP JUMPDEST PUSH0 PUSH2 0x10E1 PUSH2 0x16DB JUMP JUMPDEST PUSH0 PUSH1 0x2 PUSH0 DUP2 SLOAD PUSH2 0x10F0 SWAP1 PUSH2 0x2378 JUMP JUMPDEST SWAP2 DUP3 SWAP1 SSTORE POP PUSH0 DUP2 DUP2 MSTORE PUSH1 0x7 PUSH1 0x20 MSTORE PUSH1 0x40 SWAP1 KECCAK256 DUP2 DUP2 SSTORE SWAP1 SWAP2 POP PUSH1 0x1 DUP2 ADD PUSH2 0x1116 DUP8 DUP3 PUSH2 0x2461 JUMP JUMPDEST POP DUP5 MLOAD PUSH2 0x112C SWAP1 PUSH1 0x3 DUP4 ADD SWAP1 PUSH1 0x20 DUP9 ADD SWAP1 PUSH2 0x1BE9 JUMP JUMPDEST POP PUSH1 0x4 ADD DUP1 SLOAD PUSH1 0x1 PUSH1 0x1 PUSH1 0xA0 SHL SUB DUP6 AND PUSH1 0x1 PUSH1 0x1 PUSH1 0xA0 SHL SUB NOT SWAP1 SWAP2 AND OR SWAP1 SSTORE SWAP1 POP SWAP4 SWAP3 POP POP POP JUMP JUMPDEST PUSH0 DUP1 PUSH2 0x115E PUSH2 0x16DB JUMP JUMPDEST PUSH0 DUP5 DUP2 MSTORE PUSH1 0x7 PUSH1 0x20 SWAP1 DUP2 MSTORE PUSH1 0x40 SWAP2 DUP3 SWAP1 KECCAK256 PUSH1 0x3 DUP2 ADD DUP1 SLOAD DUP5 MLOAD DUP2 DUP6 MUL DUP2 ADD DUP6 ADD SWAP1 SWAP6 MSTORE DUP1 DUP6 MSTORE DUP8 SWAP5 DUP10 SWAP5 PUSH2 0x11CF SWAP4 SWAP2 SWAP3 SWAP1 DUP4 ADD DUP3 DUP3 DUP1 ISZERO PUSH2 0xD90 JUMPI PUSH1 0x20 MUL DUP3 ADD SWAP2 SWAP1 PUSH0 MSTORE PUSH1 0x20 PUSH0 KECCAK256 SWAP1 DUP2 SLOAD PUSH1 0x1 PUSH1 0x1 PUSH1 0xA0 SHL SUB AND DUP2 MSTORE PUSH1 0x1 SWAP1 SWAP2 ADD SWAP1 PUSH1 0x20 ADD DUP1 DUP4 GT PUSH2 0xD72 JUMPI POP POP POP POP POP DUP5 PUSH2 0x1A8D JUMP JUMPDEST DUP1 PUSH2 0x11E9 JUMPI POP PUSH1 0x4 DUP2 ADD SLOAD PUSH1 0x1 PUSH1 0x1 PUSH1 0xA0 SHL SUB DUP5 DUP2 AND SWAP2 AND EQ JUMPDEST PUSH2 0x1205 JUMPI PUSH1 0x40 MLOAD PUSH3 0x461BCD PUSH1 0xE5 SHL DUP2 MSTORE PUSH1 0x4 ADD PUSH2 0x969 SWAP1 PUSH2 0x23BA JUMP JUMPDEST PUSH1 0x6 SLOAD PUSH1 0xFF AND ISZERO PUSH2 0x1228 JUMPI PUSH1 0x40 MLOAD PUSH3 0x461BCD PUSH1 0xE5 SHL DUP2 MSTORE PUSH1 0x4 ADD PUSH2 0x969 SWAP1 PUSH2 0x2390 JUMP JUMPDEST PUSH0 DUP8 DUP2 MSTORE PUSH1 0x7 PUSH1 0x20 MSTORE PUSH1 0x40 DUP2 KECCAK256 DUP1 SLOAD SWAP1 SWAP2 SUB PUSH2 0x1256 JUMPI PUSH1 0x40 MLOAD PUSH3 0x461BCD PUSH1 0xE5 SHL DUP2 MSTORE PUSH1 0x4 ADD PUSH2 0x969 SWAP1 PUSH2 0x23F1 JUMP JUMPDEST PUSH0 PUSH1 0x4 SLOAD DUP10 PUSH1 0x40 MLOAD PUSH1 0x20 ADD PUSH2 0x1275 SWAP3 SWAP2 SWAP1 SWAP2 DUP3 MSTORE PUSH1 0x20 DUP3 ADD MSTORE PUSH1 0x40 ADD SWAP1 JUMP JUMPDEST PUSH1 0x40 DUP1 MLOAD PUSH1 0x1F NOT DUP2 DUP5 SUB ADD DUP2 MSTORE SWAP2 DUP2 MSTORE DUP2 MLOAD PUSH1 0x20 SWAP3 DUP4 ADD KECCAK256 PUSH1 0x4 SLOAD PUSH0 SWAP1 DUP2 MSTORE PUSH1 0x8 DUP5 MSTORE DUP3 DUP2 KECCAK256 DUP3 DUP3 MSTORE SWAP1 SWAP4 MSTORE SWAP2 KECCAK256 SLOAD SWAP1 SWAP2 POP ISZERO DUP1 ISZERO PUSH2 0x12B2 JUMPI POP PUSH1 0x1 JUMPDEST PUSH2 0x1315 JUMPI PUSH1 0x40 MLOAD PUSH3 0x461BCD PUSH1 0xE5 SHL DUP2 MSTORE PUSH1 0x20 PUSH1 0x4 DUP3 ADD MSTORE PUSH1 0x2E PUSH1 0x24 DUP3 ADD MSTORE PUSH32 0x5365656420696E76616C6964206F7220616C726561647920706C616E74656420 PUSH1 0x44 DUP3 ADD MSTORE PUSH14 0x199BDC881D1A1A5CC81C9BDD5B99 PUSH1 0x92 SHL PUSH1 0x64 DUP3 ADD MSTORE PUSH1 0x84 ADD PUSH2 0x969 JUMP JUMPDEST PUSH1 0x4 SLOAD PUSH0 SWAP1 DUP2 MSTORE PUSH1 0x8 PUSH1 0x20 SWAP1 DUP2 MSTORE PUSH1 0x40 DUP1 DUP4 KECCAK256 DUP5 DUP5 MSTORE DUP3 MSTORE DUP1 DUP4 KECCAK256 DUP5 DUP2 SSTORE PUSH1 0x2 DUP2 ADD DUP1 SLOAD PUSH2 0xFF00 NOT AND SWAP1 SSTORE PUSH1 0x3 DUP2 ADD DUP14 SWAP1 SSTORE DUP2 MLOAD SWAP3 DUP4 ADD SWAP1 SWAP2 MSTORE SWAP2 DUP2 MSTORE PUSH1 0x1 DUP3 ADD SWAP1 PUSH2 0x1361 SWAP1 DUP3 PUSH2 0x2461 JUMP JUMPDEST POP PUSH1 0x2 DUP1 DUP3 ADD DUP1 SLOAD PUSH1 0xFF NOT AND SWAP1 SSTORE PUSH1 0x4 SLOAD PUSH0 SWAP1 DUP2 MSTORE PUSH1 0x5 DUP6 ADD PUSH1 0x20 SWAP1 DUP2 MSTORE PUSH1 0x40 DUP1 DUP4 KECCAK256 DUP1 SLOAD PUSH1 0x1 DUP2 ADD DUP3 SSTORE SWAP1 DUP5 MSTORE SWAP3 DUP3 SWAP1 KECCAK256 SWAP1 SWAP3 ADD DUP6 SWAP1 SSTORE SWAP2 DUP6 ADD DUP1 SLOAD DUP3 MLOAD DUP2 DUP6 MUL DUP2 ADD DUP6 ADD SWAP1 SWAP4 MSTORE DUP1 DUP4 MSTORE PUSH2 0x13EB SWAP4 DUP4 ADD DUP3 DUP3 DUP1 ISZERO PUSH2 0x13DE JUMPI PUSH1 0x20 MUL DUP3 ADD SWAP2 SWAP1 PUSH0 MSTORE PUSH1 0x20 PUSH0 KECCAK256 SWAP1 JUMPDEST DUP2 SLOAD DUP2 MSTORE PUSH1 0x20 ADD SWAP1 PUSH1 0x1 ADD SWAP1 DUP1 DUP4 GT PUSH2 0x13CA JUMPI JUMPDEST POP POP POP POP POP PUSH1 0x4 SLOAD PUSH2 0x1AE6 JUMP JUMPDEST PUSH2 0x140A JUMPI PUSH1 0x4 SLOAD PUSH1 0x2 DUP5 ADD DUP1 SLOAD PUSH1 0x1 DUP2 ADD DUP3 SSTORE PUSH0 SWAP2 DUP3 MSTORE PUSH1 0x20 SWAP1 SWAP2 KECCAK256 ADD SSTORE JUMPDEST POP PUSH1 0x4 SLOAD SWAP1 SWAP10 SWAP1 SWAP9 POP SWAP7 POP POP POP POP POP POP POP JUMP JUMPDEST PUSH1 0x7 PUSH1 0x20 MSTORE PUSH0 SWAP1 DUP2 MSTORE PUSH1 0x40 SWAP1 KECCAK256 DUP1 SLOAD PUSH1 0x1 DUP3 ADD DUP1 SLOAD SWAP2 SWAP3 SWAP2 PUSH2 0x143E SWAP1 PUSH2 0x231E JUMP JUMPDEST DUP1 PUSH1 0x1F ADD PUSH1 0x20 DUP1 SWAP2 DIV MUL PUSH1 0x20 ADD PUSH1 0x40 MLOAD SWAP1 DUP2 ADD PUSH1 0x40 MSTORE DUP1 SWAP3 SWAP2 SWAP1 DUP2 DUP2 MSTORE PUSH1 0x20 ADD DUP3 DUP1 SLOAD PUSH2 0x146A SWAP1 PUSH2 0x231E JUMP JUMPDEST DUP1 ISZERO PUSH2 0x14B5 JUMPI DUP1 PUSH1 0x1F LT PUSH2 0x148C JUMPI PUSH2 0x100 DUP1 DUP4 SLOAD DIV MUL DUP4 MSTORE SWAP2 PUSH1 0x20 ADD SWAP2 PUSH2 0x14B5 JUMP JUMPDEST DUP3 ADD SWAP2 SWAP1 PUSH0 MSTORE PUSH1 0x20 PUSH0 KECCAK256 SWAP1 JUMPDEST DUP2 SLOAD DUP2 MSTORE SWAP1 PUSH1 0x1 ADD SWAP1 PUSH1 0x20 ADD DUP1 DUP4 GT PUSH2 0x1498 JUMPI DUP3 SWAP1 SUB PUSH1 0x1F AND DUP3 ADD SWAP2 JUMPDEST POP POP POP PUSH1 0x4 SWAP1 SWAP4 ADD SLOAD SWAP2 SWAP3 POP POP PUSH1 0x1 PUSH1 0x1 PUSH1 0xA0 SHL SUB AND DUP4 JUMP JUMPDEST PUSH0 DUP3 DUP2 MSTORE PUSH1 0x1 PUSH1 0x20 DUP2 SWAP1 MSTORE PUSH1 0x40 SWAP1 SWAP2 KECCAK256 ADD SLOAD PUSH2 0x14E9 DUP2 PUSH2 0x174B JUMP JUMPDEST PUSH2 0xA37 DUP4 DUP4 PUSH2 0x17CB JUMP JUMPDEST PUSH1 0x9 PUSH1 0x20 MSTORE PUSH0 SWAP1 DUP2 MSTORE PUSH1 0x40 SWAP1 KECCAK256 DUP1 SLOAD PUSH1 0x1 DUP3 ADD SLOAD PUSH1 0x2 DUP4 ADD DUP1 SLOAD SWAP3 SWAP4 SWAP2 SWAP3 PUSH2 0x151A SWAP1 PUSH2 0x231E JUMP JUMPDEST DUP1 PUSH1 0x1F ADD PUSH1 0x20 DUP1 SWAP2 DIV MUL PUSH1 0x20 ADD PUSH1 0x40 MLOAD SWAP1 DUP2 ADD PUSH1 0x40 MSTORE DUP1 SWAP3 SWAP2 SWAP1 DUP2 DUP2 MSTORE PUSH1 0x20 ADD DUP3 DUP1 SLOAD PUSH2 0x1546 SWAP1 PUSH2 0x231E JUMP JUMPDEST DUP1 ISZERO PUSH2 0x1591 JUMPI DUP1 PUSH1 0x1F LT PUSH2 0x1568 JUMPI PUSH2 0x100 DUP1 DUP4 SLOAD DIV MUL DUP4 MSTORE SWAP2 PUSH1 0x20 ADD SWAP2 PUSH2 0x1591 JUMP JUMPDEST DUP3 ADD SWAP2 SWAP1 PUSH0 MSTORE PUSH1 0x20 PUSH0 KECCAK256 SWAP1 JUMPDEST DUP2 SLOAD DUP2 MSTORE SWAP1 PUSH1 0x1 ADD SWAP1 PUSH1 0x20 ADD DUP1 DUP4 GT PUSH2 0x1574 JUMPI DUP3 SWAP1 SUB PUSH1 0x1F AND DUP3 ADD SWAP2 JUMPDEST POP POP POP PUSH1 0x3 SWAP1 SWAP4 ADD SLOAD SWAP2 SWAP3 POP POP PUSH1 0x1 PUSH1 0x1 PUSH1 0xA0 SHL SUB AND DUP5 JUMP JUMPDEST PUSH2 0x15B2 PUSH2 0x16DB JUMP JUMPDEST PUSH1 0x1 PUSH1 0x1 PUSH1 0xA0 SHL SUB DUP2 AND PUSH2 0x15DB JUMPI PUSH1 0x40 MLOAD PUSH4 0x1E4FBDF7 PUSH1 0xE0 SHL DUP2 MSTORE PUSH0 PUSH1 0x4 DUP3 ADD MSTORE PUSH1 0x24 ADD PUSH2 0x969 JUMP JUMPDEST PUSH2 0x15E4 DUP2 PUSH2 0x1836 JUMP JUMPDEST POP JUMP JUMPDEST PUSH1 0x60 PUSH0 DUP4 MLOAD PUSH1 0x1 PUSH2 0x15F8 SWAP2 SWAP1 PUSH2 0x2521 JUMP JUMPDEST PUSH8 0xFFFFFFFFFFFFFFFF DUP2 GT ISZERO PUSH2 0x1610 JUMPI PUSH2 0x1610 PUSH2 0x1F84 JUMP JUMPDEST PUSH1 0x40 MLOAD SWAP1 DUP1 DUP3 MSTORE DUP1 PUSH1 0x20 MUL PUSH1 0x20 ADD DUP3 ADD PUSH1 0x40 MSTORE DUP1 ISZERO PUSH2 0x1667 JUMPI DUP2 PUSH1 0x20 ADD JUMPDEST PUSH1 0x40 DUP1 MLOAD PUSH1 0xA0 DUP2 ADD DUP3 MSTORE PUSH0 DUP1 DUP3 MSTORE PUSH1 0x60 PUSH1 0x20 DUP1 DUP5 ADD DUP3 SWAP1 MSTORE SWAP4 DUP4 ADD DUP3 SWAP1 MSTORE DUP3 ADD DUP2 SWAP1 MSTORE PUSH1 0x80 DUP3 ADD MSTORE DUP3 MSTORE PUSH0 NOT SWAP1 SWAP3 ADD SWAP2 ADD DUP2 PUSH2 0x162E JUMPI SWAP1 POP JUMPDEST POP SWAP1 POP PUSH0 JUMPDEST DUP5 MLOAD DUP2 LT ISZERO PUSH2 0x16B4 JUMPI DUP5 DUP2 DUP2 MLOAD DUP2 LT PUSH2 0x1687 JUMPI PUSH2 0x1687 PUSH2 0x2350 JUMP JUMPDEST PUSH1 0x20 MUL PUSH1 0x20 ADD ADD MLOAD DUP3 DUP3 DUP2 MLOAD DUP2 LT PUSH2 0x16A1 JUMPI PUSH2 0x16A1 PUSH2 0x2350 JUMP JUMPDEST PUSH1 0x20 SWAP1 DUP2 MUL SWAP2 SWAP1 SWAP2 ADD ADD MSTORE PUSH1 0x1 ADD PUSH2 0x166C JUMP JUMPDEST POP DUP3 DUP2 DUP6 MLOAD DUP2 MLOAD DUP2 LT PUSH2 0x16C9 JUMPI PUSH2 0x16C9 PUSH2 0x2350 JUMP JUMPDEST PUSH1 0x20 SWAP1 DUP2 MUL SWAP2 SWAP1 SWAP2 ADD ADD MSTORE SWAP4 SWAP3 POP POP POP JUMP JUMPDEST PUSH0 SLOAD PUSH1 0x1 PUSH1 0x1 PUSH1 0xA0 SHL SUB AND CALLER EQ PUSH2 0xA86 JUMPI PUSH1 0x40 MLOAD PUSH4 0x118CDAA7 PUSH1 0xE0 SHL DUP2 MSTORE CALLER PUSH1 0x4 DUP3 ADD MSTORE PUSH1 0x24 ADD PUSH2 0x969 JUMP JUMPDEST PUSH2 0x1710 DUP2 PUSH2 0x1B24 JUMP JUMPDEST PUSH2 0x15E4 JUMPI PUSH1 0x40 MLOAD PUSH3 0x461BCD PUSH1 0xE5 SHL DUP2 MSTORE PUSH1 0x20 PUSH1 0x4 DUP3 ADD MSTORE PUSH1 0xC PUSH1 0x24 DUP3 ADD MSTORE PUSH12 0x15539055551213D492569151 PUSH1 0xA2 SHL PUSH1 0x44 DUP3 ADD MSTORE PUSH1 0x64 ADD PUSH2 0x969 JUMP JUMPDEST PUSH2 0x15E4 DUP2 CALLER PUSH2 0x1B60 JUMP JUMPDEST PUSH0 PUSH2 0x1760 DUP4 DUP4 PUSH2 0xBA4 JUMP JUMPDEST PUSH2 0x17C4 JUMPI PUSH0 DUP4 DUP2 MSTORE PUSH1 0x1 PUSH1 0x20 DUP2 DUP2 MSTORE PUSH1 0x40 DUP1 DUP5 KECCAK256 PUSH1 0x1 PUSH1 0x1 PUSH1 0xA0 SHL SUB DUP8 AND DUP1 DUP7 MSTORE SWAP3 MSTORE DUP1 DUP5 KECCAK256 DUP1 SLOAD PUSH1 0xFF NOT AND SWAP1 SWAP4 OR SWAP1 SWAP3 SSTORE SWAP1 MLOAD CALLER SWAP3 DUP7 SWAP2 PUSH32 0x2F8788117E7EFF1D82E926EC794901D17C78024A50270940304540A733656F0D SWAP2 SWAP1 LOG4 POP PUSH1 0x1 PUSH2 0x434 JUMP JUMPDEST POP PUSH0 PUSH2 0x434 JUMP JUMPDEST PUSH0 PUSH2 0x17D6 DUP4 DUP4 PUSH2 0xBA4 JUMP JUMPDEST ISZERO PUSH2 0x17C4 JUMPI PUSH0 DUP4 DUP2 MSTORE PUSH1 0x1 PUSH1 0x20 SWAP1 DUP2 MSTORE PUSH1 0x40 DUP1 DUP4 KECCAK256 PUSH1 0x1 PUSH1 0x1 PUSH1 0xA0 SHL SUB DUP7 AND DUP1 DUP6 MSTORE SWAP3 MSTORE DUP1 DUP4 KECCAK256 DUP1 SLOAD PUSH1 0xFF NOT AND SWAP1 SSTORE MLOAD CALLER SWAP3 DUP7 SWAP2 PUSH32 0xF6391F5C32D9C69D2A47EA670B442974B53935D1EDC7FD64EB21E047A839171B SWAP2 SWAP1 LOG4 POP PUSH1 0x1 PUSH2 0x434 JUMP JUMPDEST PUSH0 DUP1 SLOAD PUSH1 0x1 PUSH1 0x1 PUSH1 0xA0 SHL SUB DUP4 DUP2 AND PUSH1 0x1 PUSH1 0x1 PUSH1 0xA0 SHL SUB NOT DUP4 AND DUP2 OR DUP5 SSTORE PUSH1 0x40 MLOAD SWAP2 SWAP1 SWAP3 AND SWAP3 DUP4 SWAP2 PUSH32 0x8BE0079C531659141344CD1FD0A4F28419497F9722A3DAAFE3B4186F6B6457E0 SWAP2 SWAP1 LOG3 POP POP JUMP JUMPDEST PUSH0 PUSH1 0x2 PUSH0 DUP2 SLOAD PUSH2 0x1894 SWAP1 PUSH2 0x2378 JUMP JUMPDEST SWAP2 DUP3 SWAP1 SSTORE POP PUSH1 0x4 SLOAD PUSH0 DUP3 DUP2 MSTORE PUSH1 0x7 PUSH1 0x20 MSTORE PUSH1 0x40 SWAP1 KECCAK256 DUP3 DUP2 SSTORE SWAP2 SWAP3 POP SWAP1 PUSH1 0x1 DUP2 ADD PUSH2 0x18BE DUP7 DUP3 PUSH2 0x2461 JUMP JUMPDEST POP PUSH1 0x40 DUP1 MLOAD PUSH0 DUP2 MSTORE PUSH1 0x20 DUP2 ADD SWAP2 DUP3 SWAP1 MSTORE MLOAD PUSH2 0x18DD SWAP2 PUSH1 0x3 DUP5 ADD SWAP2 PUSH2 0x1BE9 JUMP JUMPDEST POP PUSH1 0x3 DUP2 ADD DUP1 SLOAD PUSH1 0x1 DUP2 ADD DUP3 SSTORE PUSH0 SWAP2 DUP3 MSTORE PUSH1 0x20 DUP1 DUP4 KECCAK256 SWAP1 SWAP2 ADD DUP1 SLOAD PUSH1 0x1 PUSH1 0x1 PUSH1 0xA0 SHL SUB DUP11 AND PUSH1 0x1 PUSH1 0x1 PUSH1 0xA0 SHL SUB NOT SWAP2 DUP3 AND DUP2 OR SWAP1 SWAP3 SSTORE PUSH1 0x4 DUP6 ADD DUP1 SLOAD SWAP1 SWAP2 AND SWAP1 SWAP2 OR SWAP1 SSTORE PUSH1 0x40 MLOAD ADDRESS PUSH1 0x60 SHL PUSH12 0xFFFFFFFFFFFFFFFFFFFFFFFF NOT AND SWAP2 DUP2 ADD SWAP2 SWAP1 SWAP2 MSTORE PUSH1 0x34 ADD PUSH1 0x40 MLOAD PUSH1 0x20 DUP2 DUP4 SUB SUB DUP2 MSTORE SWAP1 PUSH1 0x40 MSTORE DUP1 MLOAD SWAP1 PUSH1 0x20 ADD KECCAK256 SWAP1 POP PUSH0 ADDRESS PUSH1 0x40 MLOAD PUSH1 0x20 ADD PUSH2 0x196B SWAP2 SWAP1 PUSH2 0x2534 JUMP JUMPDEST PUSH1 0x40 MLOAD PUSH1 0x20 DUP2 DUP4 SUB SUB DUP2 MSTORE SWAP1 PUSH1 0x40 MSTORE DUP1 MLOAD SWAP1 PUSH1 0x20 ADD KECCAK256 SWAP1 POP PUSH2 0x198D DUP2 DUP10 PUSH2 0x1755 JUMP JUMPDEST POP PUSH2 0x1998 DUP3 DUP3 PUSH2 0x1B9D JUMP JUMPDEST PUSH0 PUSH1 0x4 SLOAD DUP7 PUSH1 0x40 MLOAD PUSH1 0x20 ADD PUSH2 0x19B7 SWAP3 SWAP2 SWAP1 SWAP2 DUP3 MSTORE PUSH1 0x20 DUP3 ADD MSTORE PUSH1 0x40 ADD SWAP1 JUMP JUMPDEST PUSH1 0x40 DUP1 MLOAD PUSH1 0x1F NOT DUP2 DUP5 SUB ADD DUP2 MSTORE SWAP2 DUP2 MSTORE DUP2 MLOAD PUSH1 0x20 SWAP3 DUP4 ADD KECCAK256 PUSH0 DUP9 DUP2 MSTORE PUSH1 0x8 DUP5 MSTORE DUP3 DUP2 KECCAK256 DUP3 DUP3 MSTORE SWAP1 SWAP4 MSTORE SWAP2 KECCAK256 DUP2 DUP2 SSTORE PUSH1 0x2 DUP2 ADD DUP1 SLOAD PUSH2 0xFF00 NOT AND PUSH2 0x100 OR SWAP1 SSTORE PUSH1 0x3 DUP2 ADD DUP9 SWAP1 SSTORE SWAP1 SWAP2 POP PUSH1 0x1 DUP2 ADD PUSH2 0x1A0E DUP10 DUP3 PUSH2 0x2461 JUMP JUMPDEST POP PUSH1 0x2 DUP1 DUP3 ADD DUP1 SLOAD PUSH1 0xFF NOT AND PUSH1 0x1 SWAP1 DUP2 OR SWAP1 SWAP2 SSTORE PUSH0 DUP9 DUP2 MSTORE PUSH1 0x5 DUP1 DUP10 ADD PUSH1 0x20 SWAP1 DUP2 MSTORE PUSH1 0x40 DUP4 KECCAK256 DUP1 SLOAD DUP1 DUP7 ADD DUP3 SSTORE SWAP1 DUP5 MSTORE DUP2 DUP5 KECCAK256 ADD DUP8 SWAP1 SSTORE SWAP4 DUP10 ADD DUP1 SLOAD SWAP4 DUP5 ADD DUP2 SSTORE DUP3 MSTORE SWAP3 SWAP1 KECCAK256 ADD DUP8 SWAP1 SSTORE PUSH2 0x1A62 DUP11 DUP3 PUSH2 0x2461 JUMP JUMPDEST POP PUSH1 0x6 DUP1 SLOAD PUSH1 0xFF NOT AND SWAP1 SSTORE PUSH1 0x4 DUP1 SLOAD SWAP1 PUSH0 PUSH2 0x1A7C DUP4 PUSH2 0x2378 JUMP JUMPDEST SWAP2 SWAP1 POP SSTORE POP POP POP POP POP POP POP POP POP POP POP JUMP JUMPDEST PUSH0 DUP1 JUMPDEST DUP4 MLOAD DUP2 LT ISZERO PUSH2 0x1ADD JUMPI DUP3 PUSH1 0x1 PUSH1 0x1 PUSH1 0xA0 SHL SUB AND DUP5 DUP3 DUP2 MLOAD DUP2 LT PUSH2 0x1AB5 JUMPI PUSH2 0x1AB5 PUSH2 0x2350 JUMP JUMPDEST PUSH1 0x20 MUL PUSH1 0x20 ADD ADD MLOAD PUSH1 0x1 PUSH1 0x1 PUSH1 0xA0 SHL SUB AND SUB PUSH2 0x1AD5 JUMPI PUSH1 0x1 SWAP2 POP POP PUSH2 0x434 JUMP JUMPDEST PUSH1 0x1 ADD PUSH2 0x1A90 JUMP JUMPDEST POP PUSH0 SWAP4 SWAP3 POP POP POP JUMP JUMPDEST PUSH0 DUP1 JUMPDEST DUP4 MLOAD DUP2 LT ISZERO PUSH2 0x1ADD JUMPI DUP3 DUP5 DUP3 DUP2 MLOAD DUP2 LT PUSH2 0x1B05 JUMPI PUSH2 0x1B05 PUSH2 0x2350 JUMP JUMPDEST PUSH1 0x20 MUL PUSH1 0x20 ADD ADD MLOAD SUB PUSH2 0x1B1C JUMPI PUSH1 0x1 SWAP2 POP POP PUSH2 0x434 JUMP JUMPDEST PUSH1 0x1 ADD PUSH2 0x1AE9 JUMP JUMPDEST PUSH0 DUP1 ADDRESS PUSH1 0x40 MLOAD PUSH1 0x20 ADD PUSH2 0x1B37 SWAP2 SWAP1 PUSH2 0x2534 JUMP JUMPDEST PUSH1 0x40 MLOAD PUSH1 0x20 DUP2 DUP4 SUB SUB DUP2 MSTORE SWAP1 PUSH1 0x40 MSTORE DUP1 MLOAD SWAP1 PUSH1 0x20 ADD KECCAK256 SWAP1 POP PUSH2 0x1B59 DUP2 DUP5 PUSH2 0xBA4 JUMP JUMPDEST SWAP4 SWAP3 POP POP POP JUMP JUMPDEST PUSH2 0x1B6A DUP3 DUP3 PUSH2 0xBA4 JUMP JUMPDEST PUSH2 0x1B99 JUMPI PUSH1 0x40 MLOAD PUSH4 0xE2517D3F PUSH1 0xE0 SHL DUP2 MSTORE PUSH1 0x1 PUSH1 0x1 PUSH1 0xA0 SHL SUB DUP3 AND PUSH1 0x4 DUP3 ADD MSTORE PUSH1 0x24 DUP2 ADD DUP4 SWAP1 MSTORE PUSH1 0x44 ADD PUSH2 0x969 JUMP JUMPDEST POP POP JUMP JUMPDEST PUSH0 DUP3 DUP2 MSTORE PUSH1 0x1 PUSH1 0x20 DUP2 SWAP1 MSTORE PUSH1 0x40 DUP1 DUP4 KECCAK256 SWAP1 SWAP2 ADD DUP1 SLOAD SWAP1 DUP5 SWAP1 SSTORE SWAP1 MLOAD SWAP1 SWAP2 DUP4 SWAP2 DUP4 SWAP2 DUP7 SWAP2 PUSH32 0xBD79B86FFE0AB8E8776151514217CD7CACD52C909F66475C3AF44E129F0B00FF SWAP2 SWAP1 LOG4 POP POP POP JUMP JUMPDEST DUP3 DUP1 SLOAD DUP3 DUP3 SSTORE SWAP1 PUSH0 MSTORE PUSH1 0x20 PUSH0 KECCAK256 SWAP1 DUP2 ADD SWAP3 DUP3 ISZERO PUSH2 0x1C3C JUMPI SWAP2 PUSH1 0x20 MUL DUP3 ADD JUMPDEST DUP3 DUP2 GT ISZERO PUSH2 0x1C3C JUMPI DUP3 MLOAD DUP3 SLOAD PUSH1 0x1 PUSH1 0x1 PUSH1 0xA0 SHL SUB NOT AND PUSH1 0x1 PUSH1 0x1 PUSH1 0xA0 SHL SUB SWAP1 SWAP2 AND OR DUP3 SSTORE PUSH1 0x20 SWAP1 SWAP3 ADD SWAP2 PUSH1 0x1 SWAP1 SWAP2 ADD SWAP1 PUSH2 0x1C07 JUMP JUMPDEST POP PUSH2 0x1C48 SWAP3 SWAP2 POP PUSH2 0x1C4C JUMP JUMPDEST POP SWAP1 JUMP JUMPDEST JUMPDEST DUP1 DUP3 GT ISZERO PUSH2 0x1C48 JUMPI PUSH0 DUP2 SSTORE PUSH1 0x1 ADD PUSH2 0x1C4D JUMP JUMPDEST PUSH0 PUSH1 0x20 DUP3 DUP5 SUB SLT ISZERO PUSH2 0x1C70 JUMPI PUSH0 DUP1 REVERT JUMPDEST DUP2 CALLDATALOAD PUSH1 0x1 PUSH1 0x1 PUSH1 0xE0 SHL SUB NOT DUP2 AND DUP2 EQ PUSH2 0x1B59 JUMPI PUSH0 DUP1 REVERT JUMPDEST PUSH0 DUP2 MLOAD DUP1 DUP5 MSTORE PUSH0 JUMPDEST DUP2 DUP2 LT ISZERO PUSH2 0x1CAB JUMPI PUSH1 0x20 DUP2 DUP6 ADD DUP2 ADD MLOAD DUP7 DUP4 ADD DUP3 ADD MSTORE ADD PUSH2 0x1C8F JUMP JUMPDEST POP PUSH0 PUSH1 0x20 DUP3 DUP7 ADD ADD MSTORE PUSH1 0x20 PUSH1 0x1F NOT PUSH1 0x1F DUP4 ADD AND DUP6 ADD ADD SWAP2 POP POP SWAP3 SWAP2 POP POP JUMP JUMPDEST PUSH1 0x60 DUP2 MSTORE PUSH0 PUSH2 0x1CDC PUSH1 0x60 DUP4 ADD DUP7 PUSH2 0x1C87 JUMP JUMPDEST SWAP4 ISZERO ISZERO PUSH1 0x20 DUP4 ADD MSTORE POP PUSH1 0x40 ADD MSTORE SWAP2 SWAP1 POP JUMP JUMPDEST PUSH0 DUP2 MLOAD DUP1 DUP5 MSTORE PUSH1 0x20 DUP1 DUP6 ADD SWAP5 POP PUSH1 0x20 DUP5 ADD PUSH0 JUMPDEST DUP4 DUP2 LT ISZERO PUSH2 0x1D1D JUMPI DUP2 MLOAD DUP8 MSTORE SWAP6 DUP3 ADD SWAP6 SWAP1 DUP3 ADD SWAP1 PUSH1 0x1 ADD PUSH2 0x1D01 JUMP JUMPDEST POP SWAP5 SWAP6 SWAP5 POP POP POP POP POP JUMP JUMPDEST PUSH0 PUSH1 0x20 DUP1 DUP4 ADD DUP2 DUP5 MSTORE DUP1 DUP6 MLOAD DUP1 DUP4 MSTORE PUSH1 0x40 SWAP3 POP PUSH1 0x40 DUP7 ADD SWAP2 POP PUSH1 0x40 DUP2 PUSH1 0x5 SHL DUP8 ADD ADD DUP5 DUP9 ADD PUSH0 JUMPDEST DUP4 DUP2 LT ISZERO PUSH2 0x1E13 JUMPI PUSH1 0x3F NOT DUP10 DUP5 SUB ADD DUP6 MSTORE DUP2 MLOAD PUSH1 0xA0 DUP2 MLOAD DUP6 MSTORE DUP9 DUP3 ADD MLOAD DUP2 DUP11 DUP8 ADD MSTORE PUSH2 0x1D7D DUP3 DUP8 ADD DUP3 PUSH2 0x1C87 JUMP JUMPDEST DUP4 DUP11 ADD MLOAD DUP8 DUP3 SUB DUP9 DUP13 ADD MSTORE DUP1 MLOAD DUP1 DUP4 MSTORE SWAP1 DUP13 ADD SWAP4 POP PUSH0 SWAP3 POP SWAP1 DUP12 ADD SWAP1 JUMPDEST DUP1 DUP4 LT ISZERO PUSH2 0x1DC3 JUMPI DUP4 MLOAD PUSH1 0x1 PUSH1 0x1 PUSH1 0xA0 SHL SUB AND DUP3 MSTORE SWAP3 DUP12 ADD SWAP3 PUSH1 0x1 SWAP3 SWAP1 SWAP3 ADD SWAP2 SWAP1 DUP12 ADD SWAP1 PUSH2 0x1D9A JUMP JUMPDEST POP PUSH1 0x60 SWAP3 POP DUP3 DUP5 ADD MLOAD SWAP2 POP DUP7 DUP2 SUB DUP4 DUP9 ADD MSTORE PUSH2 0x1DDF DUP2 DUP4 PUSH2 0x1CEE JUMP JUMPDEST SWAP3 POP POP POP PUSH1 0x80 DUP1 DUP4 ADD MLOAD SWAP3 POP PUSH2 0x1DFF DUP2 DUP8 ADD DUP5 PUSH1 0x1 PUSH1 0x1 PUSH1 0xA0 SHL SUB AND SWAP1 MSTORE JUMP JUMPDEST POP SWAP6 DUP9 ADD SWAP6 SWAP4 POP POP SWAP1 DUP7 ADD SWAP1 PUSH1 0x1 ADD PUSH2 0x1D4F JUMP JUMPDEST POP SWAP1 SWAP9 SWAP8 POP POP POP POP POP POP POP POP JUMP JUMPDEST PUSH0 PUSH1 0x20 DUP3 DUP5 SUB SLT ISZERO PUSH2 0x1E31 JUMPI PUSH0 DUP1 REVERT JUMPDEST POP CALLDATALOAD SWAP2 SWAP1 POP JUMP JUMPDEST PUSH4 0x4E487B71 PUSH1 0xE0 SHL PUSH0 MSTORE PUSH1 0x21 PUSH1 0x4 MSTORE PUSH1 0x24 PUSH0 REVERT JUMPDEST PUSH1 0x3 DUP2 LT PUSH2 0x1E68 JUMPI PUSH4 0x4E487B71 PUSH1 0xE0 SHL PUSH0 MSTORE PUSH1 0x21 PUSH1 0x4 MSTORE PUSH1 0x24 PUSH0 REVERT JUMPDEST SWAP1 MSTORE JUMP JUMPDEST PUSH0 PUSH1 0x20 DUP1 DUP4 ADD DUP2 DUP5 MSTORE DUP1 DUP6 MLOAD DUP1 DUP4 MSTORE PUSH1 0x40 SWAP3 POP PUSH1 0x40 DUP7 ADD SWAP2 POP PUSH1 0x40 DUP2 PUSH1 0x5 SHL DUP8 ADD ADD DUP5 DUP9 ADD PUSH0 JUMPDEST DUP4 DUP2 LT ISZERO PUSH2 0x1E13 JUMPI PUSH1 0x3F NOT DUP10 DUP5 SUB ADD DUP6 MSTORE DUP2 MLOAD PUSH1 0xA0 DUP2 MLOAD DUP6 MSTORE DUP9 DUP3 ADD MLOAD DUP2 DUP11 DUP8 ADD MSTORE PUSH2 0x1EC1 DUP3 DUP8 ADD DUP3 PUSH2 0x1C87 JUMP JUMPDEST SWAP2 POP POP DUP8 DUP3 ADD MLOAD ISZERO ISZERO DUP9 DUP7 ADD MSTORE PUSH1 0x60 DUP1 DUP4 ADD MLOAD PUSH2 0x1EE0 DUP3 DUP9 ADD DUP3 PUSH2 0x1E4C JUMP JUMPDEST POP POP PUSH1 0x80 SWAP2 DUP3 ADD MLOAD SWAP5 SWAP1 SWAP2 ADD SWAP4 SWAP1 SWAP4 MSTORE SWAP4 DUP7 ADD SWAP4 SWAP1 DUP7 ADD SWAP1 PUSH1 0x1 ADD PUSH2 0x1E93 JUMP JUMPDEST DUP1 CALLDATALOAD PUSH1 0x1 PUSH1 0x1 PUSH1 0xA0 SHL SUB DUP2 AND DUP2 EQ PUSH2 0x1F16 JUMPI PUSH0 DUP1 REVERT JUMPDEST SWAP2 SWAP1 POP JUMP JUMPDEST PUSH0 DUP1 PUSH0 PUSH1 0x60 DUP5 DUP7 SUB SLT ISZERO PUSH2 0x1F2D JUMPI PUSH0 DUP1 REVERT JUMPDEST DUP4 CALLDATALOAD SWAP3 POP PUSH1 0x20 DUP5 ADD CALLDATALOAD DUP1 ISZERO ISZERO DUP2 EQ PUSH2 0x1F43 JUMPI PUSH0 DUP1 REVERT JUMPDEST SWAP2 POP PUSH2 0x1F51 PUSH1 0x40 DUP6 ADD PUSH2 0x1F00 JUMP JUMPDEST SWAP1 POP SWAP3 POP SWAP3 POP SWAP3 JUMP JUMPDEST PUSH0 DUP1 PUSH1 0x40 DUP4 DUP6 SUB SLT ISZERO PUSH2 0x1F6B JUMPI PUSH0 DUP1 REVERT JUMPDEST DUP3 CALLDATALOAD SWAP2 POP PUSH2 0x1F7B PUSH1 0x20 DUP5 ADD PUSH2 0x1F00 JUMP JUMPDEST SWAP1 POP SWAP3 POP SWAP3 SWAP1 POP JUMP JUMPDEST PUSH4 0x4E487B71 PUSH1 0xE0 SHL PUSH0 MSTORE PUSH1 0x41 PUSH1 0x4 MSTORE PUSH1 0x24 PUSH0 REVERT JUMPDEST PUSH1 0x40 MLOAD PUSH1 0x1F DUP3 ADD PUSH1 0x1F NOT AND DUP2 ADD PUSH8 0xFFFFFFFFFFFFFFFF DUP2 GT DUP3 DUP3 LT OR ISZERO PUSH2 0x1FC1 JUMPI PUSH2 0x1FC1 PUSH2 0x1F84 JUMP JUMPDEST PUSH1 0x40 MSTORE SWAP2 SWAP1 POP JUMP JUMPDEST PUSH0 DUP3 PUSH1 0x1F DUP4 ADD SLT PUSH2 0x1FD8 JUMPI PUSH0 DUP1 REVERT JUMPDEST DUP2 CALLDATALOAD PUSH8 0xFFFFFFFFFFFFFFFF DUP2 GT ISZERO PUSH2 0x1FF2 JUMPI PUSH2 0x1FF2 PUSH2 0x1F84 JUMP JUMPDEST PUSH2 0x2005 PUSH1 0x1F DUP3 ADD PUSH1 0x1F NOT AND PUSH1 0x20 ADD PUSH2 0x1F98 JUMP JUMPDEST DUP2 DUP2 MSTORE DUP5 PUSH1 0x20 DUP4 DUP7 ADD ADD GT ISZERO PUSH2 0x2019 JUMPI PUSH0 DUP1 REVERT JUMPDEST DUP2 PUSH1 0x20 DUP6 ADD PUSH1 0x20 DUP4 ADD CALLDATACOPY PUSH0 SWAP2 DUP2 ADD PUSH1 0x20 ADD SWAP2 SWAP1 SWAP2 MSTORE SWAP4 SWAP3 POP POP POP JUMP JUMPDEST PUSH0 DUP1 PUSH0 DUP1 PUSH1 0x80 DUP6 DUP8 SUB SLT ISZERO PUSH2 0x2048 JUMPI PUSH0 DUP1 REVERT JUMPDEST PUSH2 0x2051 DUP6 PUSH2 0x1F00 JUMP JUMPDEST SWAP4 POP PUSH1 0x20 DUP6 ADD CALLDATALOAD PUSH8 0xFFFFFFFFFFFFFFFF DUP1 DUP3 GT ISZERO PUSH2 0x206D JUMPI PUSH0 DUP1 REVERT JUMPDEST PUSH2 0x2079 DUP9 DUP4 DUP10 ADD PUSH2 0x1FC9 JUMP JUMPDEST SWAP5 POP PUSH2 0x2087 PUSH1 0x40 DUP9 ADD PUSH2 0x1F00 JUMP JUMPDEST SWAP4 POP PUSH1 0x60 DUP8 ADD CALLDATALOAD SWAP2 POP DUP1 DUP3 GT ISZERO PUSH2 0x209C JUMPI PUSH0 DUP1 REVERT JUMPDEST POP PUSH2 0x20A9 DUP8 DUP3 DUP9 ADD PUSH2 0x1FC9 JUMP JUMPDEST SWAP2 POP POP SWAP3 SWAP6 SWAP2 SWAP5 POP SWAP3 POP JUMP JUMPDEST PUSH0 DUP1 PUSH1 0x40 DUP4 DUP6 SUB SLT ISZERO PUSH2 0x20C6 JUMPI PUSH0 DUP1 REVERT JUMPDEST POP POP DUP1 CALLDATALOAD SWAP3 PUSH1 0x20 SWAP1 SWAP2 ADD CALLDATALOAD SWAP2 POP JUMP JUMPDEST DUP6 DUP2 MSTORE PUSH1 0xA0 PUSH1 0x20 DUP3 ADD MSTORE PUSH0 PUSH2 0x20ED PUSH1 0xA0 DUP4 ADD DUP8 PUSH2 0x1C87 JUMP JUMPDEST SWAP1 POP DUP5 ISZERO ISZERO PUSH1 0x40 DUP4 ADD MSTORE PUSH2 0x2104 PUSH1 0x60 DUP4 ADD DUP6 PUSH2 0x1E4C JUMP JUMPDEST DUP3 PUSH1 0x80 DUP4 ADD MSTORE SWAP7 SWAP6 POP POP POP POP POP POP JUMP JUMPDEST PUSH1 0x20 DUP2 MSTORE PUSH0 PUSH2 0x1B59 PUSH1 0x20 DUP4 ADD DUP5 PUSH2 0x1C87 JUMP JUMPDEST PUSH0 DUP1 PUSH0 PUSH1 0x60 DUP5 DUP7 SUB SLT ISZERO PUSH2 0x2138 JUMPI PUSH0 DUP1 REVERT JUMPDEST DUP4 CALLDATALOAD SWAP3 POP PUSH1 0x20 DUP5 ADD CALLDATALOAD PUSH8 0xFFFFFFFFFFFFFFFF DUP2 GT ISZERO PUSH2 0x2155 JUMPI PUSH0 DUP1 REVERT JUMPDEST PUSH2 0x2161 DUP7 DUP3 DUP8 ADD PUSH2 0x1FC9 JUMP JUMPDEST SWAP3 POP POP PUSH2 0x1F51 PUSH1 0x40 DUP6 ADD PUSH2 0x1F00 JUMP JUMPDEST PUSH0 DUP1 PUSH0 DUP1 PUSH1 0x80 DUP6 DUP8 SUB SLT ISZERO PUSH2 0x2183 JUMPI PUSH0 DUP1 REVERT JUMPDEST DUP5 CALLDATALOAD SWAP4 POP PUSH1 0x20 DUP6 ADD CALLDATALOAD SWAP3 POP PUSH1 0x40 DUP6 ADD CALLDATALOAD PUSH8 0xFFFFFFFFFFFFFFFF DUP2 GT ISZERO PUSH2 0x21A7 JUMPI PUSH0 DUP1 REVERT JUMPDEST PUSH2 0x21B3 DUP8 DUP3 DUP9 ADD PUSH2 0x1FC9 JUMP JUMPDEST SWAP3 POP POP PUSH2 0x21C2 PUSH1 0x60 DUP7 ADD PUSH2 0x1F00 JUMP JUMPDEST SWAP1 POP SWAP3 SWAP6 SWAP2 SWAP5 POP SWAP3 POP JUMP JUMPDEST PUSH0 DUP1 PUSH0 PUSH1 0x60 DUP5 DUP7 SUB SLT ISZERO PUSH2 0x21DF JUMPI PUSH0 DUP1 REVERT JUMPDEST DUP4 CALLDATALOAD PUSH8 0xFFFFFFFFFFFFFFFF DUP1 DUP3 GT ISZERO PUSH2 0x21F6 JUMPI PUSH0 DUP1 REVERT JUMPDEST PUSH2 0x2202 DUP8 DUP4 DUP9 ADD PUSH2 0x1FC9 JUMP JUMPDEST SWAP5 POP PUSH1 0x20 SWAP2 POP DUP2 DUP7 ADD CALLDATALOAD DUP2 DUP2 GT ISZERO PUSH2 0x2218 JUMPI PUSH0 DUP1 REVERT JUMPDEST DUP7 ADD PUSH1 0x1F DUP2 ADD DUP9 SGT PUSH2 0x2228 JUMPI PUSH0 DUP1 REVERT JUMPDEST DUP1 CALLDATALOAD DUP3 DUP2 GT ISZERO PUSH2 0x223A JUMPI PUSH2 0x223A PUSH2 0x1F84 JUMP JUMPDEST DUP1 PUSH1 0x5 SHL SWAP3 POP PUSH2 0x224B DUP5 DUP5 ADD PUSH2 0x1F98 JUMP JUMPDEST DUP2 DUP2 MSTORE SWAP3 DUP3 ADD DUP5 ADD SWAP3 DUP5 DUP2 ADD SWAP1 DUP11 DUP6 GT ISZERO PUSH2 0x2264 JUMPI PUSH0 DUP1 REVERT JUMPDEST SWAP3 DUP6 ADD SWAP3 JUMPDEST DUP5 DUP5 LT ISZERO PUSH2 0x2289 JUMPI PUSH2 0x227A DUP5 PUSH2 0x1F00 JUMP JUMPDEST DUP3 MSTORE SWAP3 DUP6 ADD SWAP3 SWAP1 DUP6 ADD SWAP1 PUSH2 0x2269 JUMP JUMPDEST DUP1 SWAP8 POP POP POP POP POP POP POP PUSH2 0x1F51 PUSH1 0x40 DUP6 ADD PUSH2 0x1F00 JUMP JUMPDEST DUP4 DUP2 MSTORE PUSH1 0x60 PUSH1 0x20 DUP3 ADD MSTORE PUSH0 PUSH2 0x22B6 PUSH1 0x60 DUP4 ADD DUP6 PUSH2 0x1C87 JUMP JUMPDEST SWAP1 POP PUSH1 0x1 DUP1 PUSH1 0xA0 SHL SUB DUP4 AND PUSH1 0x40 DUP4 ADD MSTORE SWAP5 SWAP4 POP POP POP POP JUMP JUMPDEST DUP5 DUP2 MSTORE DUP4 PUSH1 0x20 DUP3 ADD MSTORE PUSH1 0x80 PUSH1 0x40 DUP3 ADD MSTORE PUSH0 PUSH2 0x22EC PUSH1 0x80 DUP4 ADD DUP6 PUSH2 0x1C87 JUMP JUMPDEST SWAP1 POP PUSH1 0x1 DUP1 PUSH1 0xA0 SHL SUB DUP4 AND PUSH1 0x60 DUP4 ADD MSTORE SWAP6 SWAP5 POP POP POP POP POP JUMP JUMPDEST PUSH0 PUSH1 0x20 DUP3 DUP5 SUB SLT ISZERO PUSH2 0x2315 JUMPI PUSH0 DUP1 REVERT JUMPDEST PUSH2 0x1B59 DUP3 PUSH2 0x1F00 JUMP JUMPDEST PUSH1 0x1 DUP2 DUP2 SHR SWAP1 DUP3 AND DUP1 PUSH2 0x2332 JUMPI PUSH1 0x7F DUP3 AND SWAP2 POP JUMPDEST PUSH1 0x20 DUP3 LT DUP2 SUB PUSH2 0x750 JUMPI PUSH4 0x4E487B71 PUSH1 0xE0 SHL PUSH0 MSTORE PUSH1 0x22 PUSH1 0x4 MSTORE PUSH1 0x24 PUSH0 REVERT JUMPDEST PUSH4 0x4E487B71 PUSH1 0xE0 SHL PUSH0 MSTORE PUSH1 0x32 PUSH1 0x4 MSTORE PUSH1 0x24 PUSH0 REVERT JUMPDEST PUSH4 0x4E487B71 PUSH1 0xE0 SHL PUSH0 MSTORE PUSH1 0x11 PUSH1 0x4 MSTORE PUSH1 0x24 PUSH0 REVERT JUMPDEST PUSH0 PUSH1 0x1 DUP3 ADD PUSH2 0x2389 JUMPI PUSH2 0x2389 PUSH2 0x2364 JUMP JUMPDEST POP PUSH1 0x1 ADD SWAP1 JUMP JUMPDEST PUSH1 0x20 DUP1 DUP3 MSTORE PUSH1 0x10 SWAP1 DUP3 ADD MSTORE PUSH16 0x109B1BD8C81A5CC8199A5B9A5CDA1959 PUSH1 0x82 SHL PUSH1 0x40 DUP3 ADD MSTORE PUSH1 0x60 ADD SWAP1 JUMP JUMPDEST PUSH1 0x20 DUP1 DUP3 MSTORE PUSH1 0x1D SWAP1 DUP3 ADD MSTORE PUSH32 0x4E6F7420612063726561746F72206F6620746869732073656564626F78000000 PUSH1 0x40 DUP3 ADD MSTORE PUSH1 0x60 ADD SWAP1 JUMP JUMPDEST PUSH1 0x20 DUP1 DUP3 MSTORE PUSH1 0x12 SWAP1 DUP3 ADD MSTORE PUSH18 0x14D9595908189BDE081B9BDD08199BDD5B99 PUSH1 0x72 SHL PUSH1 0x40 DUP3 ADD MSTORE PUSH1 0x60 ADD SWAP1 JUMP JUMPDEST PUSH1 0x1F DUP3 GT ISZERO PUSH2 0xA70 JUMPI DUP1 PUSH0 MSTORE PUSH1 0x20 PUSH0 KECCAK256 PUSH1 0x1F DUP5 ADD PUSH1 0x5 SHR DUP2 ADD PUSH1 0x20 DUP6 LT ISZERO PUSH2 0x2442 JUMPI POP DUP1 JUMPDEST PUSH1 0x1F DUP5 ADD PUSH1 0x5 SHR DUP3 ADD SWAP2 POP JUMPDEST DUP2 DUP2 LT ISZERO PUSH2 0xA0B JUMPI PUSH0 DUP2 SSTORE PUSH1 0x1 ADD PUSH2 0x244E JUMP JUMPDEST DUP2 MLOAD PUSH8 0xFFFFFFFFFFFFFFFF DUP2 GT ISZERO PUSH2 0x247B JUMPI PUSH2 0x247B PUSH2 0x1F84 JUMP JUMPDEST PUSH2 0x248F DUP2 PUSH2 0x2489 DUP5 SLOAD PUSH2 0x231E JUMP JUMPDEST DUP5 PUSH2 0x241D JUMP JUMPDEST PUSH1 0x20 DUP1 PUSH1 0x1F DUP4 GT PUSH1 0x1 DUP2 EQ PUSH2 0x24C2 JUMPI PUSH0 DUP5 ISZERO PUSH2 0x24AB JUMPI POP DUP6 DUP4 ADD MLOAD JUMPDEST PUSH0 NOT PUSH1 0x3 DUP7 SWAP1 SHL SHR NOT AND PUSH1 0x1 DUP6 SWAP1 SHL OR DUP6 SSTORE PUSH2 0x2519 JUMP JUMPDEST PUSH0 DUP6 DUP2 MSTORE PUSH1 0x20 DUP2 KECCAK256 PUSH1 0x1F NOT DUP7 AND SWAP2 JUMPDEST DUP3 DUP2 LT ISZERO PUSH2 0x24F0 JUMPI DUP9 DUP7 ADD MLOAD DUP3 SSTORE SWAP5 DUP5 ADD SWAP5 PUSH1 0x1 SWAP1 SWAP2 ADD SWAP1 DUP5 ADD PUSH2 0x24D1 JUMP JUMPDEST POP DUP6 DUP3 LT ISZERO PUSH2 0x250D JUMPI DUP8 DUP6 ADD MLOAD PUSH0 NOT PUSH1 0x3 DUP9 SWAP1 SHL PUSH1 0xF8 AND SHR NOT AND DUP2 SSTORE JUMPDEST POP POP PUSH1 0x1 DUP5 PUSH1 0x1 SHL ADD DUP6 SSTORE JUMPDEST POP POP POP POP POP POP JUMP JUMPDEST DUP1 DUP3 ADD DUP1 DUP3 GT ISZERO PUSH2 0x434 JUMPI PUSH2 0x434 PUSH2 0x2364 JUMP JUMPDEST PUSH1 0x60 SWAP2 SWAP1 SWAP2 SHL PUSH12 0xFFFFFFFFFFFFFFFFFFFFFFFF NOT AND DUP2 MSTORE PUSH5 0x30B236B4B7 PUSH1 0xD9 SHL PUSH1 0x14 DUP3 ADD MSTORE PUSH1 0x19 ADD SWAP1 JUMP INVALID LOG2 PUSH5 0x6970667358 0x22 SLT KECCAK256 CALLDATASIZE PUSH2 0xA66E 0xD5 0xAD SDIV 0xD3 JUMP DUP4 DUP9 0xD4 0xDC NOT 0xFC DELEGATECALL 0x5D BALANCE 0xD2 0xDB INVALID 0xAF 0xDC 0xF8 0xAE PUSH25 0xDD61FDC6930A64736F6C634300081600330000000000000000 "
				},
				"gasEstimates": {
					"creation": {
						"codeDepositCost": "1924200",
						"executionCost": "27893",
						"totalCost": "1952093"
					},
					"external": {
						"DEFAULT_ADMIN_ROLE()": "282",
						"cid()": "infinite",
						"completeSeed(uint256,bytes32,string,address)": "infinite",
						"createSeedBox(string,address[],address)": "infinite",
						"currentRound()": "2383",
						"getAllSeedBoxes()": "infinite",
						"getBlocMetadata()": "infinite",
						"getBoxIdBySeedId(bytes32)": "4659",
						"getRoleAdmin(bytes32)": "2581",
						"getSeedsByRound(uint256)": "infinite",
						"grantRole(bytes32,address)": "infinite",
						"hasRole(bytes32,address)": "2674",
						"initialize(address,string,address,string)": "infinite",
						"mergeSeed(bytes32,bool,address)": "60290",
						"owner()": "2410",
						"plantSeed(uint256,address)": "infinite",
						"postStatus(uint256,string,address)": "infinite",
						"released()": "2343",
						"renounceOwnership()": "infinite",
						"renounceRole(bytes32,address)": "29114",
						"revokeRole(bytes32,address)": "infinite",
						"roundSeeds(uint256,bytes32)": "infinite",
						"seedBoxes(uint256)": "infinite",
						"statuses(uint256)": "infinite",
						"supportsInterface(bytes4)": "447",
						"transferOwnership(address)": "28439"
					},
					"internal": {
						"_checkOnlyBlocAdmin(address)": "infinite",
						"_initBloc(address,string memory,string memory)": "infinite",
						"_isBlocAdmin(address)": "infinite"
					}
				},
				"methodIdentifiers": {
					"DEFAULT_ADMIN_ROLE()": "a217fddf",
					"cid()": "aa3ec0a9",
					"completeSeed(uint256,bytes32,string,address)": "b733e78a",
					"createSeedBox(string,address[],address)": "bdfcf4e8",
					"currentRound()": "8a19c8bc",
					"getAllSeedBoxes()": "09e60fc9",
					"getBlocMetadata()": "063ff530",
					"getBoxIdBySeedId(bytes32)": "2d82b1fa",
					"getRoleAdmin(bytes32)": "248a9ca3",
					"getSeedsByRound(uint256)": "1a1eb303",
					"grantRole(bytes32,address)": "2f2ff15d",
					"hasRole(bytes32,address)": "91d14854",
					"initialize(address,string,address,string)": "7d836512",
					"mergeSeed(bytes32,bool,address)": "1dba015c",
					"owner()": "8da5cb5b",
					"plantSeed(uint256,address)": "d2154a14",
					"postStatus(uint256,string,address)": "b4118db0",
					"released()": "96132521",
					"renounceOwnership()": "715018a6",
					"renounceRole(bytes32,address)": "36568abe",
					"revokeRole(bytes32,address)": "d547741f",
					"roundSeeds(uint256,bytes32)": "a0557f70",
					"seedBoxes(uint256)": "d2fad2ec",
					"statuses(uint256)": "e67b932c",
					"supportsInterface(bytes4)": "01ffc9a7",
					"transferOwnership(address)": "f2fde38b"
				}
			},
			"storageLayout": {
				"storage": [
					{
						"astId": 387,
						"contract": "Bloc.sol:Bloc",
						"label": "_owner",
						"offset": 0,
						"slot": "0",
						"type": "t_address"
					},
					{
						"astId": 26,
						"contract": "Bloc.sol:Bloc",
						"label": "_roles",
						"offset": 0,
						"slot": "1",
						"type": "t_mapping(t_bytes32,t_struct(RoleData)21_storage)"
					},
					{
						"astId": 863,
						"contract": "Bloc.sol:Bloc",
						"label": "lastSeedBoxId",
						"offset": 0,
						"slot": "2",
						"type": "t_uint256"
					},
					{
						"astId": 865,
						"contract": "Bloc.sol:Bloc",
						"label": "statusCounter",
						"offset": 0,
						"slot": "3",
						"type": "t_uint256"
					},
					{
						"astId": 867,
						"contract": "Bloc.sol:Bloc",
						"label": "currentRound",
						"offset": 0,
						"slot": "4",
						"type": "t_uint256"
					},
					{
						"astId": 869,
						"contract": "Bloc.sol:Bloc",
						"label": "cid",
						"offset": 0,
						"slot": "5",
						"type": "t_string_storage"
					},
					{
						"astId": 871,
						"contract": "Bloc.sol:Bloc",
						"label": "released",
						"offset": 0,
						"slot": "6",
						"type": "t_bool"
					},
					{
						"astId": 931,
						"contract": "Bloc.sol:Bloc",
						"label": "seedBoxes",
						"offset": 0,
						"slot": "7",
						"type": "t_mapping(t_uint256,t_struct(SeedBox)893_storage)"
					},
					{
						"astId": 938,
						"contract": "Bloc.sol:Bloc",
						"label": "roundSeeds",
						"offset": 0,
						"slot": "8",
						"type": "t_mapping(t_uint256,t_mapping(t_bytes32,t_struct(Seed)1839_storage))"
					},
					{
						"astId": 943,
						"contract": "Bloc.sol:Bloc",
						"label": "statuses",
						"offset": 0,
						"slot": "9",
						"type": "t_mapping(t_uint256,t_struct(Status)926_storage)"
					}
				],
				"types": {
					"t_address": {
						"encoding": "inplace",
						"label": "address",
						"numberOfBytes": "20"
					},
					"t_array(t_address)dyn_storage": {
						"base": "t_address",
						"encoding": "dynamic_array",
						"label": "address[]",
						"numberOfBytes": "32"
					},
					"t_array(t_bytes32)dyn_storage": {
						"base": "t_bytes32",
						"encoding": "dynamic_array",
						"label": "bytes32[]",
						"numberOfBytes": "32"
					},
					"t_array(t_uint256)dyn_storage": {
						"base": "t_uint256",
						"encoding": "dynamic_array",
						"label": "uint256[]",
						"numberOfBytes": "32"
					},
					"t_bool": {
						"encoding": "inplace",
						"label": "bool",
						"numberOfBytes": "1"
					},
					"t_bytes32": {
						"encoding": "inplace",
						"label": "bytes32",
						"numberOfBytes": "32"
					},
					"t_enum(State)1827": {
						"encoding": "inplace",
						"label": "enum MusicBloc.State",
						"numberOfBytes": "1"
					},
					"t_mapping(t_address,t_bool)": {
						"encoding": "mapping",
						"key": "t_address",
						"label": "mapping(address => bool)",
						"numberOfBytes": "32",
						"value": "t_bool"
					},
					"t_mapping(t_bytes32,t_struct(RoleData)21_storage)": {
						"encoding": "mapping",
						"key": "t_bytes32",
						"label": "mapping(bytes32 => struct AccessControl.RoleData)",
						"numberOfBytes": "32",
						"value": "t_struct(RoleData)21_storage"
					},
					"t_mapping(t_bytes32,t_struct(Seed)1839_storage)": {
						"encoding": "mapping",
						"key": "t_bytes32",
						"label": "mapping(bytes32 => struct MusicBloc.Seed)",
						"numberOfBytes": "32",
						"value": "t_struct(Seed)1839_storage"
					},
					"t_mapping(t_uint256,t_array(t_bytes32)dyn_storage)": {
						"encoding": "mapping",
						"key": "t_uint256",
						"label": "mapping(uint256 => bytes32[])",
						"numberOfBytes": "32",
						"value": "t_array(t_bytes32)dyn_storage"
					},
					"t_mapping(t_uint256,t_mapping(t_bytes32,t_struct(Seed)1839_storage))": {
						"encoding": "mapping",
						"key": "t_uint256",
						"label": "mapping(uint256 => mapping(bytes32 => struct MusicBloc.Seed))",
						"numberOfBytes": "32",
						"value": "t_mapping(t_bytes32,t_struct(Seed)1839_storage)"
					},
					"t_mapping(t_uint256,t_struct(SeedBox)893_storage)": {
						"encoding": "mapping",
						"key": "t_uint256",
						"label": "mapping(uint256 => struct Bloc.SeedBox)",
						"numberOfBytes": "32",
						"value": "t_struct(SeedBox)893_storage"
					},
					"t_mapping(t_uint256,t_struct(Status)926_storage)": {
						"encoding": "mapping",
						"key": "t_uint256",
						"label": "mapping(uint256 => struct Bloc.Status)",
						"numberOfBytes": "32",
						"value": "t_struct(Status)926_storage"
					},
					"t_string_storage": {
						"encoding": "bytes",
						"label": "string",
						"numberOfBytes": "32"
					},
					"t_struct(RoleData)21_storage": {
						"encoding": "inplace",
						"label": "struct AccessControl.RoleData",
						"members": [
							{
								"astId": 18,
								"contract": "Bloc.sol:Bloc",
								"label": "hasRole",
								"offset": 0,
								"slot": "0",
								"type": "t_mapping(t_address,t_bool)"
							},
							{
								"astId": 20,
								"contract": "Bloc.sol:Bloc",
								"label": "adminRole",
								"offset": 0,
								"slot": "1",
								"type": "t_bytes32"
							}
						],
						"numberOfBytes": "64"
					},
					"t_struct(Seed)1839_storage": {
						"encoding": "inplace",
						"label": "struct MusicBloc.Seed",
						"members": [
							{
								"astId": 1829,
								"contract": "Bloc.sol:Bloc",
								"label": "id",
								"offset": 0,
								"slot": "0",
								"type": "t_bytes32"
							},
							{
								"astId": 1831,
								"contract": "Bloc.sol:Bloc",
								"label": "seed",
								"offset": 0,
								"slot": "1",
								"type": "t_string_storage"
							},
							{
								"astId": 1833,
								"contract": "Bloc.sol:Bloc",
								"label": "merged",
								"offset": 0,
								"slot": "2",
								"type": "t_bool"
							},
							{
								"astId": 1836,
								"contract": "Bloc.sol:Bloc",
								"label": "state",
								"offset": 1,
								"slot": "2",
								"type": "t_enum(State)1827"
							},
							{
								"astId": 1838,
								"contract": "Bloc.sol:Bloc",
								"label": "boxID",
								"offset": 0,
								"slot": "3",
								"type": "t_uint256"
							}
						],
						"numberOfBytes": "128"
					},
					"t_struct(SeedBox)893_storage": {
						"encoding": "inplace",
						"label": "struct Bloc.SeedBox",
						"members": [
							{
								"astId": 877,
								"contract": "Bloc.sol:Bloc",
								"label": "id",
								"offset": 0,
								"slot": "0",
								"type": "t_uint256"
							},
							{
								"astId": 879,
								"contract": "Bloc.sol:Bloc",
								"label": "cid",
								"offset": 0,
								"slot": "1",
								"type": "t_string_storage"
							},
							{
								"astId": 882,
								"contract": "Bloc.sol:Bloc",
								"label": "participatedRounds",
								"offset": 0,
								"slot": "2",
								"type": "t_array(t_uint256)dyn_storage"
							},
							{
								"astId": 885,
								"contract": "Bloc.sol:Bloc",
								"label": "contributors",
								"offset": 0,
								"slot": "3",
								"type": "t_array(t_address)dyn_storage"
							},
							{
								"astId": 887,
								"contract": "Bloc.sol:Bloc",
								"label": "creator",
								"offset": 0,
								"slot": "4",
								"type": "t_address"
							},
							{
								"astId": 892,
								"contract": "Bloc.sol:Bloc",
								"label": "seedsByRound",
								"offset": 0,
								"slot": "5",
								"type": "t_mapping(t_uint256,t_array(t_bytes32)dyn_storage)"
							}
						],
						"numberOfBytes": "192"
					},
					"t_struct(Status)926_storage": {
						"encoding": "inplace",
						"label": "struct Bloc.Status",
						"members": [
							{
								"astId": 919,
								"contract": "Bloc.sol:Bloc",
								"label": "boxID",
								"offset": 0,
								"slot": "0",
								"type": "t_uint256"
							},
							{
								"astId": 921,
								"contract": "Bloc.sol:Bloc",
								"label": "id",
								"offset": 0,
								"slot": "1",
								"type": "t_uint256"
							},
							{
								"astId": 923,
								"contract": "Bloc.sol:Bloc",
								"label": "message",
								"offset": 0,
								"slot": "2",
								"type": "t_string_storage"
							},
							{
								"astId": 925,
								"contract": "Bloc.sol:Bloc",
								"label": "author",
								"offset": 0,
								"slot": "3",
								"type": "t_address"
							}
						],
						"numberOfBytes": "128"
					},
					"t_uint256": {
						"encoding": "inplace",
						"label": "uint256",
						"numberOfBytes": "32"
					}
				}
			},
			"userdoc": {
				"kind": "user",
				"methods": {},
				"version": 1
			}
		}
	}
}