{
	"Router.sol": {
		"Router": {
			"abi": [
				{
					"inputs": [
						{
							"internalType": "address",
							"name": "_router",
							"type": "address"
						},
						{
							"internalType": "address",
							"name": "_link",
							"type": "address"
						},
						{
							"internalType": "address",
							"name": "_receiver",
							"type": "address"
						},
						{
							"internalType": "uint64",
							"name": "_destinationChain",
							"type": "uint64"
						}
					],
					"stateMutability": "nonpayable",
					"type": "constructor"
				},
				{
					"inputs": [
						{
							"internalType": "uint256",
							"name": "currentBalance",
							"type": "uint256"
						},
						{
							"internalType": "uint256",
							"name": "calculatedFees",
							"type": "uint256"
						}
					],
					"name": "NotEnoughBalance",
					"type": "error"
				},
				{
					"inputs": [],
					"name": "NothingToWithdraw",
					"type": "error"
				},
				{
					"anonymous": false,
					"inputs": [
						{
							"indexed": true,
							"internalType": "address",
							"name": "from",
							"type": "address"
						},
						{
							"indexed": true,
							"internalType": "address",
							"name": "to",
							"type": "address"
						}
					],
					"name": "OwnershipTransferRequested",
					"type": "event"
				},
				{
					"anonymous": false,
					"inputs": [
						{
							"indexed": true,
							"internalType": "address",
							"name": "from",
							"type": "address"
						},
						{
							"indexed": true,
							"internalType": "address",
							"name": "to",
							"type": "address"
						}
					],
					"name": "OwnershipTransferred",
					"type": "event"
				},
				{
					"inputs": [],
					"name": "acceptOwnership",
					"outputs": [],
					"stateMutability": "nonpayable",
					"type": "function"
				},
				{
					"inputs": [],
					"name": "owner",
					"outputs": [
						{
							"internalType": "address",
							"name": "",
							"type": "address"
						}
					],
					"stateMutability": "view",
					"type": "function"
				},
				{
					"inputs": [
						{
							"internalType": "string",
							"name": "_cid",
							"type": "string"
						},
						{
							"internalType": "string",
							"name": "_name",
							"type": "string"
						},
						{
							"internalType": "string",
							"name": "_seed",
							"type": "string"
						}
					],
					"name": "sendCreateMusicBloc",
					"outputs": [
						{
							"internalType": "uint256",
							"name": "fees",
							"type": "uint256"
						},
						{
							"internalType": "bytes32",
							"name": "messageId",
							"type": "bytes32"
						}
					],
					"stateMutability": "nonpayable",
					"type": "function"
				},
				{
					"inputs": [
						{
							"internalType": "address",
							"name": "blocAddress",
							"type": "address"
						},
						{
							"internalType": "string",
							"name": "cid",
							"type": "string"
						},
						{
							"internalType": "address[]",
							"name": "contributors",
							"type": "address[]"
						}
					],
					"name": "sendJoinMusicBloc",
					"outputs": [
						{
							"internalType": "uint256",
							"name": "fees",
							"type": "uint256"
						},
						{
							"internalType": "bytes32",
							"name": "messageId",
							"type": "bytes32"
						}
					],
					"stateMutability": "nonpayable",
					"type": "function"
				},
				{
					"inputs": [
						{
							"internalType": "address",
							"name": "blocAddress",
							"type": "address"
						},
						{
							"internalType": "uint256",
							"name": "seedBoxId",
							"type": "uint256"
						}
					],
					"name": "sendStartContribution",
					"outputs": [
						{
							"internalType": "uint256",
							"name": "fees",
							"type": "uint256"
						},
						{
							"internalType": "bytes32",
							"name": "messageId",
							"type": "bytes32"
						}
					],
					"stateMutability": "nonpayable",
					"type": "function"
				},
				{
					"inputs": [
						{
							"internalType": "address",
							"name": "to",
							"type": "address"
						}
					],
					"name": "transferOwnership",
					"outputs": [],
					"stateMutability": "nonpayable",
					"type": "function"
				},
				{
					"inputs": [
						{
							"internalType": "address",
							"name": "_beneficiary",
							"type": "address"
						}
					],
					"name": "withdrawToken",
					"outputs": [],
					"stateMutability": "nonpayable",
					"type": "function"
				},
				{
					"stateMutability": "payable",
					"type": "receive"
				}
			],
			"devdoc": {
				"kind": "dev",
				"methods": {},
				"version": 1
			},
			"evm": {
				"assembly": "    /* \"Router.sol\":507:5934  contract Router is OwnerIsCreator {... */\n  mstore(0x40, 0x80)\n    /* \"Router.sol\":846:1198  constructor(... */\n  callvalue\n  dup1\n  iszero\n  tag_1\n  jumpi\n  0x00\n  dup1\n  revert\ntag_1:\n  pop\n  mload(0x40)\n  sub(codesize, bytecodeSize)\n  dup1\n  bytecodeSize\n  dup4\n  codecopy\n  dup2\n  add\n  0x40\n  dup2\n  swap1\n  mstore\n  tag_2\n  swap2\n  tag_3\n  jump\t// in\ntag_2:\n    /* \"@chainlink/contracts-ccip/src/v0.8/shared/access/OwnerIsCreator.sol\":291:301  msg.sender */\n  caller\n  dup1\n    /* \"@chainlink/contracts-ccip/src/v0.8/shared/access/ConfirmedOwner.sol\":345:346  0 */\n  0x00\n    /* \"@chainlink/contracts-ccip/src/v0.8/shared/access/OwnerIsCreator.sol\":291:301  msg.sender */\n  dup2\n    /* \"@chainlink/contracts-ccip/src/v0.8/shared/access/ConfirmedOwnerWithProposal.sol\":529:588  require(newOwner != address(0), \"Cannot set owner to zero\") */\n  tag_9\n  jumpi\n  mload(0x40)\n  shl(0xe5, 0x461bcd)\n  dup2\n  mstore\n    /* \"#utility.yul\":947:949   */\n  0x20\n    /* \"@chainlink/contracts-ccip/src/v0.8/shared/access/ConfirmedOwnerWithProposal.sol\":529:588  require(newOwner != address(0), \"Cannot set owner to zero\") */\n  0x04\n  dup3\n  add\n    /* \"#utility.yul\":929:950   */\n  mstore\n    /* \"#utility.yul\":986:988   */\n  0x18\n    /* \"#utility.yul\":966:984   */\n  0x24\n  dup3\n  add\n    /* \"#utility.yul\":959:989   */\n  mstore\n    /* \"#utility.yul\":1025:1051   */\n  0x43616e6e6f7420736574206f776e657220746f207a65726f0000000000000000\n    /* \"#utility.yul\":1005:1023   */\n  0x44\n  dup3\n  add\n    /* \"#utility.yul\":998:1052   */\n  mstore\n    /* \"#utility.yul\":1069:1087   */\n  0x64\n  add\n    /* \"@chainlink/contracts-ccip/src/v0.8/shared/access/ConfirmedOwnerWithProposal.sol\":529:588  require(newOwner != address(0), \"Cannot set owner to zero\") */\ntag_10:\n  mload(0x40)\n  dup1\n  swap2\n  sub\n  swap1\n  revert\ntag_9:\n    /* \"@chainlink/contracts-ccip/src/v0.8/shared/access/ConfirmedOwnerWithProposal.sol\":595:602  s_owner */\n  0x00\n    /* \"@chainlink/contracts-ccip/src/v0.8/shared/access/ConfirmedOwnerWithProposal.sol\":595:613  s_owner = newOwner */\n  dup1\n  sload\n  not(sub(shl(0xa0, 0x01), 0x01))\n  and\n  sub(shl(0xa0, 0x01), 0x01)\n  dup5\n  dup2\n  and\n  swap2\n  swap1\n  swap2\n  or\n  swap1\n  swap2\n  sstore\n    /* \"@chainlink/contracts-ccip/src/v0.8/shared/access/ConfirmedOwnerWithProposal.sol\":623:649  pendingOwner != address(0) */\n  dup2\n  and\n  iszero\n    /* \"@chainlink/contracts-ccip/src/v0.8/shared/access/ConfirmedOwnerWithProposal.sol\":619:698  if (pendingOwner != address(0)) {... */\n  tag_13\n  jumpi\n    /* \"@chainlink/contracts-ccip/src/v0.8/shared/access/ConfirmedOwnerWithProposal.sol\":659:691  _transferOwnership(pendingOwner) */\n  tag_13\n    /* \"@chainlink/contracts-ccip/src/v0.8/shared/access/ConfirmedOwnerWithProposal.sol\":678:690  pendingOwner */\n  dup2\n    /* \"@chainlink/contracts-ccip/src/v0.8/shared/access/ConfirmedOwnerWithProposal.sol\":659:677  _transferOwnership */\n  tag_14\n    /* \"@chainlink/contracts-ccip/src/v0.8/shared/access/ConfirmedOwnerWithProposal.sol\":659:691  _transferOwnership(pendingOwner) */\n  jump\t// in\ntag_13:\n  pop\n  pop\n    /* \"Router.sol\":983:991  s_router */\n  0x02\n    /* \"Router.sol\":983:1016  s_router = IRouterClient(_router) */\n  dup1\n  sload\n  not(sub(shl(0xa0, 0x01), 0x01))\n  swap1\n  dup2\n  and\n  sub(shl(0xa0, 0x01), 0x01)\n  dup9\n  dup2\n  and\n  swap2\n  swap1\n  swap2\n  or\n  swap1\n  swap3\n  sstore\n    /* \"Router.sol\":1026:1037  s_linkToken */\n  0x04\n    /* \"Router.sol\":1026:1065  s_linkToken = LinkTokenInterface(_link) */\n  dup1\n  sload\n  swap1\n  swap2\n  and\n  dup7\n  dup4\n  and\n  or\n  swap1\n  sstore\n    /* \"Router.sol\":1075:1085  s_receiver */\n  0x05\n    /* \"Router.sol\":1075:1097  s_receiver = _receiver */\n  dup1\n  sload\n  swap2\n  dup6\n  and\n  not(sub(shl(0xe0, 0x01), 0x01))\n    /* \"Router.sol\":1107:1153  s_destinationChainSelector = _destinationChain */\n  swap1\n  swap3\n  and\n  swap2\n  swap1\n  swap2\n  or\n  shl(0xa0, 0x01)\n  sub(shl(0x40, 0x01), 0x01)\n  dup6\n  and\n  mul\n  or\n  swap1\n  sstore\n  pop\n    /* \"Router.sol\":1163:1191  transferOwnership(_receiver) */\n  tag_18\n    /* \"Router.sol\":1075:1097  s_receiver = _receiver */\n  dup3\n    /* \"Router.sol\":1163:1180  transferOwnership */\n  tag_19\n    /* \"Router.sol\":1163:1191  transferOwnership(_receiver) */\n  jump\t// in\ntag_18:\n    /* \"Router.sol\":846:1198  constructor(... */\n  pop\n  pop\n  pop\n  pop\n    /* \"Router.sol\":507:5934  contract Router is OwnerIsCreator {... */\n  jump(tag_35)\n    /* \"@chainlink/contracts-ccip/src/v0.8/shared/access/ConfirmedOwnerWithProposal.sol\":1482:1670  function _transferOwnership(address to) private {... */\ntag_14:\n    /* \"@chainlink/contracts-ccip/src/v0.8/shared/access/ConfirmedOwnerWithProposal.sol\":1550:1560  msg.sender */\n  caller\n  sub(shl(0xa0, 0x01), 0x01)\n    /* \"@chainlink/contracts-ccip/src/v0.8/shared/access/ConfirmedOwnerWithProposal.sol\":1544:1560  to != msg.sender */\n  dup3\n  and\n  sub\n    /* \"@chainlink/contracts-ccip/src/v0.8/shared/access/ConfirmedOwnerWithProposal.sol\":1536:1588  require(to != msg.sender, \"Cannot transfer to self\") */\n  tag_22\n  jumpi\n  mload(0x40)\n  shl(0xe5, 0x461bcd)\n  dup2\n  mstore\n    /* \"#utility.yul\":1300:1302   */\n  0x20\n    /* \"@chainlink/contracts-ccip/src/v0.8/shared/access/ConfirmedOwnerWithProposal.sol\":1536:1588  require(to != msg.sender, \"Cannot transfer to self\") */\n  0x04\n  dup3\n  add\n    /* \"#utility.yul\":1282:1303   */\n  mstore\n    /* \"#utility.yul\":1339:1341   */\n  0x17\n    /* \"#utility.yul\":1319:1337   */\n  0x24\n  dup3\n  add\n    /* \"#utility.yul\":1312:1342   */\n  mstore\n    /* \"#utility.yul\":1378:1403   */\n  0x43616e6e6f74207472616e7366657220746f2073656c66000000000000000000\n    /* \"#utility.yul\":1358:1376   */\n  0x44\n  dup3\n  add\n    /* \"#utility.yul\":1351:1404   */\n  mstore\n    /* \"#utility.yul\":1421:1439   */\n  0x64\n  add\n    /* \"@chainlink/contracts-ccip/src/v0.8/shared/access/ConfirmedOwnerWithProposal.sol\":1536:1588  require(to != msg.sender, \"Cannot transfer to self\") */\n  tag_10\n    /* \"#utility.yul\":1098:1445   */\n  jump\n    /* \"@chainlink/contracts-ccip/src/v0.8/shared/access/ConfirmedOwnerWithProposal.sol\":1536:1588  require(to != msg.sender, \"Cannot transfer to self\") */\ntag_22:\n    /* \"@chainlink/contracts-ccip/src/v0.8/shared/access/ConfirmedOwnerWithProposal.sol\":1595:1609  s_pendingOwner */\n  0x01\n    /* \"@chainlink/contracts-ccip/src/v0.8/shared/access/ConfirmedOwnerWithProposal.sol\":1595:1614  s_pendingOwner = to */\n  dup1\n  sload\n  not(sub(shl(0xa0, 0x01), 0x01))\n  and\n  sub(shl(0xa0, 0x01), 0x01)\n  dup4\n  dup2\n  and\n  swap2\n  dup3\n  or\n  swap1\n  swap3\n  sstore\n  0x00\n    /* \"@chainlink/contracts-ccip/src/v0.8/shared/access/ConfirmedOwnerWithProposal.sol\":1653:1660  s_owner */\n  dup1\n  sload\n    /* \"@chainlink/contracts-ccip/src/v0.8/shared/access/ConfirmedOwnerWithProposal.sol\":1626:1665  OwnershipTransferRequested(s_owner, to) */\n  mload(0x40)\n    /* \"@chainlink/contracts-ccip/src/v0.8/shared/access/ConfirmedOwnerWithProposal.sol\":1595:1614  s_pendingOwner = to */\n  swap3\n  swap4\n    /* \"@chainlink/contracts-ccip/src/v0.8/shared/access/ConfirmedOwnerWithProposal.sol\":1653:1660  s_owner */\n  and\n  swap2\n    /* \"@chainlink/contracts-ccip/src/v0.8/shared/access/ConfirmedOwnerWithProposal.sol\":1626:1665  OwnershipTransferRequested(s_owner, to) */\n  0xed8889f560326eb138920d842192f0eb3dd22b4f139c87a2c57538e05bae1278\n  swap2\n  swap1\n  log3\n    /* \"@chainlink/contracts-ccip/src/v0.8/shared/access/ConfirmedOwnerWithProposal.sol\":1482:1670  function _transferOwnership(address to) private {... */\n  pop\n  jump\t// out\n    /* \"@chainlink/contracts-ccip/src/v0.8/shared/access/ConfirmedOwnerWithProposal.sol\":811:909  function transferOwnership(address to) public override onlyOwner {... */\ntag_19:\n    /* \"@chainlink/contracts-ccip/src/v0.8/shared/access/ConfirmedOwnerWithProposal.sol\":1941:1961  _validateOwnership() */\n  tag_26\n    /* \"@chainlink/contracts-ccip/src/v0.8/shared/access/ConfirmedOwnerWithProposal.sol\":1941:1959  _validateOwnership */\n  tag_27\n    /* \"@chainlink/contracts-ccip/src/v0.8/shared/access/ConfirmedOwnerWithProposal.sol\":1941:1961  _validateOwnership() */\n  jump\t// in\ntag_26:\n    /* \"@chainlink/contracts-ccip/src/v0.8/shared/access/ConfirmedOwnerWithProposal.sol\":882:904  _transferOwnership(to) */\n  tag_29\n    /* \"@chainlink/contracts-ccip/src/v0.8/shared/access/ConfirmedOwnerWithProposal.sol\":901:903  to */\n  dup2\n    /* \"@chainlink/contracts-ccip/src/v0.8/shared/access/ConfirmedOwnerWithProposal.sol\":882:900  _transferOwnership */\n  tag_14\n    /* \"@chainlink/contracts-ccip/src/v0.8/shared/access/ConfirmedOwnerWithProposal.sol\":882:904  _transferOwnership(to) */\n  jump\t// in\ntag_29:\n    /* \"@chainlink/contracts-ccip/src/v0.8/shared/access/ConfirmedOwnerWithProposal.sol\":811:909  function transferOwnership(address to) public override onlyOwner {... */\n  pop\n  jump\t// out\n    /* \"@chainlink/contracts-ccip/src/v0.8/shared/access/ConfirmedOwnerWithProposal.sol\":1715:1826  function _validateOwnership() internal view {... */\ntag_27:\n    /* \"@chainlink/contracts-ccip/src/v0.8/shared/access/ConfirmedOwnerWithProposal.sol\":1787:1794  s_owner */\n  and(sub(shl(0xa0, 0x01), 0x01), sload(0x00))\n    /* \"@chainlink/contracts-ccip/src/v0.8/shared/access/ConfirmedOwnerWithProposal.sol\":1773:1783  msg.sender */\n  caller\n    /* \"@chainlink/contracts-ccip/src/v0.8/shared/access/ConfirmedOwnerWithProposal.sol\":1773:1794  msg.sender == s_owner */\n  eq\n    /* \"@chainlink/contracts-ccip/src/v0.8/shared/access/ConfirmedOwnerWithProposal.sol\":1765:1821  require(msg.sender == s_owner, \"Only callable by owner\") */\n  tag_31\n  jumpi\n  mload(0x40)\n  shl(0xe5, 0x461bcd)\n  dup2\n  mstore\n    /* \"#utility.yul\":1652:1654   */\n  0x20\n    /* \"@chainlink/contracts-ccip/src/v0.8/shared/access/ConfirmedOwnerWithProposal.sol\":1765:1821  require(msg.sender == s_owner, \"Only callable by owner\") */\n  0x04\n  dup3\n  add\n    /* \"#utility.yul\":1634:1655   */\n  mstore\n    /* \"#utility.yul\":1691:1693   */\n  0x16\n    /* \"#utility.yul\":1671:1689   */\n  0x24\n  dup3\n  add\n    /* \"#utility.yul\":1664:1694   */\n  mstore\n    /* \"#utility.yul\":1730:1754   */\n  0x4f6e6c792063616c6c61626c65206279206f776e657200000000000000000000\n    /* \"#utility.yul\":1710:1728   */\n  0x44\n  dup3\n  add\n    /* \"#utility.yul\":1703:1755   */\n  mstore\n    /* \"#utility.yul\":1772:1790   */\n  0x64\n  add\n    /* \"@chainlink/contracts-ccip/src/v0.8/shared/access/ConfirmedOwnerWithProposal.sol\":1765:1821  require(msg.sender == s_owner, \"Only callable by owner\") */\n  tag_10\n    /* \"#utility.yul\":1450:1796   */\n  jump\n    /* \"@chainlink/contracts-ccip/src/v0.8/shared/access/ConfirmedOwnerWithProposal.sol\":1765:1821  require(msg.sender == s_owner, \"Only callable by owner\") */\ntag_31:\n    /* \"@chainlink/contracts-ccip/src/v0.8/shared/access/ConfirmedOwnerWithProposal.sol\":1715:1826  function _validateOwnership() internal view {... */\n  jump\t// out\n    /* \"#utility.yul\":14:191   */\ntag_34:\n    /* \"#utility.yul\":93:106   */\n  dup1\n  mload\n  sub(shl(0xa0, 0x01), 0x01)\n    /* \"#utility.yul\":135:166   */\n  dup2\n  and\n    /* \"#utility.yul\":125:167   */\n  dup2\n  eq\n    /* \"#utility.yul\":115:185   */\n  tag_37\n  jumpi\n    /* \"#utility.yul\":181:182   */\n  0x00\n    /* \"#utility.yul\":178:179   */\n  dup1\n    /* \"#utility.yul\":171:183   */\n  revert\n    /* \"#utility.yul\":115:185   */\ntag_37:\n    /* \"#utility.yul\":14:191   */\n  swap2\n  swap1\n  pop\n  jump\t// out\n    /* \"#utility.yul\":196:740   */\ntag_3:\n    /* \"#utility.yul\":292:298   */\n  0x00\n    /* \"#utility.yul\":300:306   */\n  dup1\n    /* \"#utility.yul\":308:314   */\n  0x00\n    /* \"#utility.yul\":316:322   */\n  dup1\n    /* \"#utility.yul\":369:372   */\n  0x80\n    /* \"#utility.yul\":357:366   */\n  dup6\n    /* \"#utility.yul\":348:355   */\n  dup8\n    /* \"#utility.yul\":344:367   */\n  sub\n    /* \"#utility.yul\":340:373   */\n  slt\n    /* \"#utility.yul\":337:390   */\n  iszero\n  tag_39\n  jumpi\n    /* \"#utility.yul\":386:387   */\n  0x00\n    /* \"#utility.yul\":383:384   */\n  dup1\n    /* \"#utility.yul\":376:388   */\n  revert\n    /* \"#utility.yul\":337:390   */\ntag_39:\n    /* \"#utility.yul\":409:449   */\n  tag_40\n    /* \"#utility.yul\":439:448   */\n  dup6\n    /* \"#utility.yul\":409:449   */\n  tag_34\n  jump\t// in\ntag_40:\n    /* \"#utility.yul\":399:449   */\n  swap4\n  pop\n    /* \"#utility.yul\":468:517   */\n  tag_41\n    /* \"#utility.yul\":513:515   */\n  0x20\n    /* \"#utility.yul\":502:511   */\n  dup7\n    /* \"#utility.yul\":498:516   */\n  add\n    /* \"#utility.yul\":468:517   */\n  tag_34\n  jump\t// in\ntag_41:\n    /* \"#utility.yul\":458:517   */\n  swap3\n  pop\n    /* \"#utility.yul\":536:585   */\n  tag_42\n    /* \"#utility.yul\":581:583   */\n  0x40\n    /* \"#utility.yul\":570:579   */\n  dup7\n    /* \"#utility.yul\":566:584   */\n  add\n    /* \"#utility.yul\":536:585   */\n  tag_34\n  jump\t// in\ntag_42:\n    /* \"#utility.yul\":628:630   */\n  0x60\n    /* \"#utility.yul\":613:631   */\n  dup7\n  add\n    /* \"#utility.yul\":607:632   */\n  mload\n    /* \"#utility.yul\":526:585   */\n  swap1\n  swap3\n  pop\n  sub(shl(0x40, 0x01), 0x01)\n    /* \"#utility.yul\":661:691   */\n  dup2\n  and\n    /* \"#utility.yul\":651:692   */\n  dup2\n  eq\n    /* \"#utility.yul\":641:710   */\n  tag_43\n  jumpi\n    /* \"#utility.yul\":706:707   */\n  0x00\n    /* \"#utility.yul\":703:704   */\n  dup1\n    /* \"#utility.yul\":696:708   */\n  revert\n    /* \"#utility.yul\":641:710   */\ntag_43:\n    /* \"#utility.yul\":196:740   */\n  swap4\n  swap7\n  swap3\n  swap6\n  pop\n  swap1\n  swap4\n  pop\n  pop\n  jump\t// out\n    /* \"#utility.yul\":1450:1796   */\ntag_35:\n    /* \"Router.sol\":507:5934  contract Router is OwnerIsCreator {... */\n  dataSize(sub_0)\n  dup1\n  dataOffset(sub_0)\n  0x00\n  codecopy\n  0x00\n  return\nstop\n\nsub_0: assembly {\n        /* \"Router.sol\":507:5934  contract Router is OwnerIsCreator {... */\n      mstore(0x40, 0x80)\n      jumpi(tag_1, lt(calldatasize, 0x04))\n      shr(0xe0, calldataload(0x00))\n      dup1\n      0x858873ed\n      gt\n      tag_10\n      jumpi\n      dup1\n      0x858873ed\n      eq\n      tag_6\n      jumpi\n      dup1\n      0x89476069\n      eq\n      tag_7\n      jumpi\n      dup1\n      0x8da5cb5b\n      eq\n      tag_8\n      jumpi\n      dup1\n      0xf2fde38b\n      eq\n      tag_9\n      jumpi\n      0x00\n      dup1\n      revert\n    tag_10:\n      dup1\n      0x2859df38\n      eq\n      tag_3\n      jumpi\n      dup1\n      0x4555cb0c\n      eq\n      tag_4\n      jumpi\n      dup1\n      0x79ba5097\n      eq\n      tag_5\n      jumpi\n      0x00\n      dup1\n      revert\n    tag_1:\n      jumpi(tag_2, calldatasize)\n      stop\n    tag_2:\n      0x00\n      dup1\n      revert\n        /* \"Router.sol\":2165:2582  function sendCreateMusicBloc(... */\n    tag_3:\n      callvalue\n      dup1\n      iszero\n      tag_13\n      jumpi\n      0x00\n      dup1\n      revert\n    tag_13:\n      pop\n      tag_14\n      tag_15\n      calldatasize\n      0x04\n      tag_16\n      jump\t// in\n    tag_15:\n      tag_17\n      jump\t// in\n    tag_14:\n      0x40\n      dup1\n      mload\n        /* \"#utility.yul\":1884:1909   */\n      swap3\n      dup4\n      mstore\n        /* \"#utility.yul\":1940:1942   */\n      0x20\n        /* \"#utility.yul\":1925:1943   */\n      dup4\n      add\n        /* \"#utility.yul\":1918:1952   */\n      swap2\n      swap1\n      swap2\n      mstore\n        /* \"#utility.yul\":1857:1875   */\n      add\n        /* \"Router.sol\":2165:2582  function sendCreateMusicBloc(... */\n    tag_18:\n      mload(0x40)\n      dup1\n      swap2\n      sub\n      swap1\n      return\n        /* \"Router.sol\":3041:3433  function sendStartContribution(... */\n    tag_4:\n      callvalue\n      dup1\n      iszero\n      tag_20\n      jumpi\n      0x00\n      dup1\n      revert\n    tag_20:\n      pop\n      tag_14\n      tag_22\n      calldatasize\n      0x04\n      tag_23\n      jump\t// in\n    tag_22:\n      tag_24\n      jump\t// in\n        /* \"@chainlink/contracts-ccip/src/v0.8/shared/access/ConfirmedOwnerWithProposal.sol\":1001:1266  function acceptOwnership() external override {... */\n    tag_5:\n      callvalue\n      dup1\n      iszero\n      tag_26\n      jumpi\n      0x00\n      dup1\n      revert\n    tag_26:\n      pop\n      tag_27\n      tag_28\n      jump\t// in\n    tag_27:\n      stop\n        /* \"Router.sol\":2588:3035  function sendJoinMusicBloc(... */\n    tag_6:\n      callvalue\n      dup1\n      iszero\n      tag_29\n      jumpi\n      0x00\n      dup1\n      revert\n    tag_29:\n      pop\n      tag_14\n      tag_31\n      calldatasize\n      0x04\n      tag_32\n      jump\t// in\n    tag_31:\n      tag_33\n      jump\t// in\n        /* \"Router.sol\":5583:5932  function withdrawToken(address _beneficiary) public onlyOwner {... */\n    tag_7:\n      callvalue\n      dup1\n      iszero\n      tag_35\n      jumpi\n      0x00\n      dup1\n      revert\n    tag_35:\n      pop\n      tag_27\n      tag_37\n      calldatasize\n      0x04\n      tag_38\n      jump\t// in\n    tag_37:\n      tag_39\n      jump\t// in\n        /* \"@chainlink/contracts-ccip/src/v0.8/shared/access/ConfirmedOwnerWithProposal.sol\":1317:1398  function owner() public view override returns (address) {... */\n    tag_8:\n      callvalue\n      dup1\n      iszero\n      tag_40\n      jumpi\n      0x00\n      dup1\n      revert\n    tag_40:\n      pop\n        /* \"@chainlink/contracts-ccip/src/v0.8/shared/access/ConfirmedOwnerWithProposal.sol\":1364:1371  address */\n      0x00\n        /* \"@chainlink/contracts-ccip/src/v0.8/shared/access/ConfirmedOwnerWithProposal.sol\":1386:1393  s_owner */\n      sload\n        /* \"@chainlink/contracts-ccip/src/v0.8/shared/access/ConfirmedOwnerWithProposal.sol\":1317:1398  function owner() public view override returns (address) {... */\n      mload(0x40)\n      sub(shl(0xa0, 0x01), 0x01)\n        /* \"@chainlink/contracts-ccip/src/v0.8/shared/access/ConfirmedOwnerWithProposal.sol\":1386:1393  s_owner */\n      swap1\n      swap2\n      and\n        /* \"#utility.yul\":4077:4128   */\n      dup2\n      mstore\n        /* \"#utility.yul\":4065:4067   */\n      0x20\n        /* \"#utility.yul\":4050:4068   */\n      add\n        /* \"@chainlink/contracts-ccip/src/v0.8/shared/access/ConfirmedOwnerWithProposal.sol\":1317:1398  function owner() public view override returns (address) {... */\n      tag_18\n        /* \"#utility.yul\":3931:4134   */\n      jump\n        /* \"@chainlink/contracts-ccip/src/v0.8/shared/access/ConfirmedOwnerWithProposal.sol\":811:909  function transferOwnership(address to) public override onlyOwner {... */\n    tag_9:\n      callvalue\n      dup1\n      iszero\n      tag_45\n      jumpi\n      0x00\n      dup1\n      revert\n    tag_45:\n      pop\n      tag_27\n      tag_47\n      calldatasize\n      0x04\n      tag_38\n      jump\t// in\n    tag_47:\n      tag_48\n      jump\t// in\n        /* \"Router.sol\":2165:2582  function sendCreateMusicBloc(... */\n    tag_17:\n        /* \"Router.sol\":2304:2316  uint256 fees */\n      0x00\n        /* \"Router.sol\":2318:2335  bytes32 messageId */\n      dup1\n        /* \"Router.sol\":2347:2382  CreateMusicBlocParams memory params */\n      0x00\n        /* \"Router.sol\":2385:2523  CreateMusicBlocParams({... */\n      mload(0x40)\n      dup1\n      0x80\n      add\n      0x40\n      mstore\n      dup1\n        /* \"Router.sol\":2426:2430  _cid */\n      dup8\n        /* \"Router.sol\":2385:2523  CreateMusicBlocParams({... */\n      dup2\n      mstore\n      0x20\n      add\n        /* \"Router.sol\":2450:2455  _name */\n      dup7\n        /* \"Router.sol\":2385:2523  CreateMusicBlocParams({... */\n      dup2\n      mstore\n      0x20\n      add\n        /* \"Router.sol\":2475:2480  _seed */\n      dup6\n        /* \"Router.sol\":2385:2523  CreateMusicBlocParams({... */\n      dup2\n      mstore\n      0x20\n      add\n        /* \"Router.sol\":2502:2512  msg.sender */\n      caller\n      sub(shl(0xa0, 0x01), 0x01)\n        /* \"Router.sol\":2385:2523  CreateMusicBlocParams({... */\n      and\n      dup2\n      mstore\n      pop\n        /* \"Router.sol\":2347:2523  CreateMusicBlocParams memory params = CreateMusicBlocParams({... */\n      swap1\n      pop\n        /* \"Router.sol\":2541:2575  sendMessage(0, abi.encode(params)) */\n      tag_50\n        /* \"Router.sol\":2553:2554  0 */\n      0x00\n        /* \"Router.sol\":2567:2573  params */\n      dup3\n        /* \"Router.sol\":2556:2574  abi.encode(params) */\n      add(0x20, mload(0x40))\n      tag_51\n      swap2\n      swap1\n      tag_52\n      jump\t// in\n    tag_51:\n      mload(0x40)\n      0x20\n      dup2\n      dup4\n      sub\n      sub\n      dup2\n      mstore\n      swap1\n      0x40\n      mstore\n        /* \"Router.sol\":2541:2552  sendMessage */\n      tag_53\n        /* \"Router.sol\":2541:2575  sendMessage(0, abi.encode(params)) */\n      jump\t// in\n    tag_50:\n        /* \"Router.sol\":2534:2575  return sendMessage(0, abi.encode(params)) */\n      swap3\n      pop\n      swap3\n      pop\n      pop\n        /* \"Router.sol\":2165:2582  function sendCreateMusicBloc(... */\n      swap4\n      pop\n      swap4\n      swap2\n      pop\n      pop\n      jump\t// out\n        /* \"Router.sol\":3041:3433  function sendStartContribution(... */\n    tag_24:\n        /* \"Router.sol\":3235:3374  StartContributionParams({... */\n      0x40\n      dup1\n      mload\n      0x60\n      dup1\n      dup3\n      add\n      dup4\n      mstore\n      sub(shl(0xa0, 0x01), 0x01)\n      dup1\n      dup7\n      and\n      dup1\n      dup5\n      mstore\n      0x20\n      dup1\n      dup6\n      add\n      dup8\n      dup2\n      mstore\n        /* \"Router.sol\":3353:3363  msg.sender */\n      caller\n        /* \"Router.sol\":3235:3374  StartContributionParams({... */\n      dup7\n      dup9\n      add\n      swap1\n      dup2\n      mstore\n        /* \"Router.sol\":3407:3425  abi.encode(params) */\n      dup8\n      mload\n      swap3\n      dup4\n      add\n        /* \"#utility.yul\":5718:5759   */\n      swap4\n      swap1\n      swap4\n      mstore\n        /* \"#utility.yul\":5797:5821   */\n      mload\n        /* \"#utility.yul\":5775:5795   */\n      swap6\n      dup2\n      add\n        /* \"#utility.yul\":5768:5822   */\n      swap6\n      swap1\n      swap6\n      mstore\n        /* \"#utility.yul\":5864:5888   */\n      mload\n        /* \"#utility.yul\":5860:5893   */\n      and\n        /* \"#utility.yul\":5838:5858   */\n      swap1\n      dup4\n      add\n        /* \"#utility.yul\":5831:5894   */\n      mstore\n        /* \"Router.sol\":3152:3164  uint256 fees */\n      0x00\n      swap2\n      dup3\n      swap2\n        /* \"Router.sol\":3235:3374  StartContributionParams({... */\n      swap1\n        /* \"Router.sol\":3392:3426  sendMessage(2, abi.encode(params)) */\n      tag_55\n      swap1\n        /* \"Router.sol\":3404:3405  2 */\n      0x02\n      swap1\n        /* \"#utility.yul\":5653:5671   */\n      0x80\n      add\n        /* \"Router.sol\":3407:3425  abi.encode(params) */\n      tag_51\n        /* \"#utility.yul\":5452:5900   */\n      jump\n        /* \"Router.sol\":3392:3426  sendMessage(2, abi.encode(params)) */\n    tag_55:\n        /* \"Router.sol\":3385:3426  return sendMessage(2, abi.encode(params)) */\n      swap3\n      pop\n      swap3\n      pop\n      pop\n        /* \"Router.sol\":3041:3433  function sendStartContribution(... */\n      swap3\n      pop\n      swap3\n      swap1\n      pop\n      jump\t// out\n        /* \"@chainlink/contracts-ccip/src/v0.8/shared/access/ConfirmedOwnerWithProposal.sol\":1001:1266  function acceptOwnership() external override {... */\n    tag_28:\n        /* \"@chainlink/contracts-ccip/src/v0.8/shared/access/ConfirmedOwnerWithProposal.sol\":1074:1088  s_pendingOwner */\n      and(sub(shl(0xa0, 0x01), 0x01), sload(0x01))\n        /* \"@chainlink/contracts-ccip/src/v0.8/shared/access/ConfirmedOwnerWithProposal.sol\":1060:1070  msg.sender */\n      caller\n        /* \"@chainlink/contracts-ccip/src/v0.8/shared/access/ConfirmedOwnerWithProposal.sol\":1060:1088  msg.sender == s_pendingOwner */\n      eq\n        /* \"@chainlink/contracts-ccip/src/v0.8/shared/access/ConfirmedOwnerWithProposal.sol\":1052:1115  require(msg.sender == s_pendingOwner, \"Must be proposed owner\") */\n      tag_59\n      jumpi\n      mload(0x40)\n      shl(0xe5, 0x461bcd)\n      dup2\n      mstore\n        /* \"#utility.yul\":6107:6109   */\n      0x20\n        /* \"@chainlink/contracts-ccip/src/v0.8/shared/access/ConfirmedOwnerWithProposal.sol\":1052:1115  require(msg.sender == s_pendingOwner, \"Must be proposed owner\") */\n      0x04\n      dup3\n      add\n        /* \"#utility.yul\":6089:6110   */\n      mstore\n        /* \"#utility.yul\":6146:6148   */\n      0x16\n        /* \"#utility.yul\":6126:6144   */\n      0x24\n      dup3\n      add\n        /* \"#utility.yul\":6119:6149   */\n      mstore\n      shl(0x51, 0x26bab9ba10313290383937b837b9b2b21037bbb732b9)\n        /* \"#utility.yul\":6165:6183   */\n      0x44\n      dup3\n      add\n        /* \"#utility.yul\":6158:6210   */\n      mstore\n        /* \"#utility.yul\":6227:6245   */\n      0x64\n      add\n        /* \"@chainlink/contracts-ccip/src/v0.8/shared/access/ConfirmedOwnerWithProposal.sol\":1052:1115  require(msg.sender == s_pendingOwner, \"Must be proposed owner\") */\n    tag_60:\n      mload(0x40)\n      dup1\n      swap2\n      sub\n      swap1\n      revert\n    tag_59:\n        /* \"@chainlink/contracts-ccip/src/v0.8/shared/access/ConfirmedOwnerWithProposal.sol\":1122:1138  address oldOwner */\n      0x00\n        /* \"@chainlink/contracts-ccip/src/v0.8/shared/access/ConfirmedOwnerWithProposal.sol\":1141:1148  s_owner */\n      dup1\n      sload\n        /* \"@chainlink/contracts-ccip/src/v0.8/shared/access/ConfirmedOwnerWithProposal.sol\":1164:1174  msg.sender */\n      caller\n      not(sub(shl(0xa0, 0x01), 0x01))\n        /* \"@chainlink/contracts-ccip/src/v0.8/shared/access/ConfirmedOwnerWithProposal.sol\":1154:1174  s_owner = msg.sender */\n      dup1\n      dup4\n      and\n      dup3\n      or\n      dup5\n      sstore\n      0x01\n        /* \"@chainlink/contracts-ccip/src/v0.8/shared/access/ConfirmedOwnerWithProposal.sol\":1180:1207  s_pendingOwner = address(0) */\n      dup1\n      sload\n      swap1\n      swap2\n      and\n      swap1\n      sstore\n        /* \"@chainlink/contracts-ccip/src/v0.8/shared/access/ConfirmedOwnerWithProposal.sol\":1219:1261  OwnershipTransferred(oldOwner, msg.sender) */\n      mload(0x40)\n      sub(shl(0xa0, 0x01), 0x01)\n        /* \"@chainlink/contracts-ccip/src/v0.8/shared/access/ConfirmedOwnerWithProposal.sol\":1141:1148  s_owner */\n      swap1\n      swap3\n      and\n      swap3\n        /* \"@chainlink/contracts-ccip/src/v0.8/shared/access/ConfirmedOwnerWithProposal.sol\":1164:1174  msg.sender */\n      swap1\n      swap2\n        /* \"@chainlink/contracts-ccip/src/v0.8/shared/access/ConfirmedOwnerWithProposal.sol\":1141:1148  s_owner */\n      dup4\n      swap2\n        /* \"@chainlink/contracts-ccip/src/v0.8/shared/access/ConfirmedOwnerWithProposal.sol\":1219:1261  OwnershipTransferred(oldOwner, msg.sender) */\n      0x8be0079c531659141344cd1fd0a4f28419497f9722a3daafe3b4186f6b6457e0\n      swap2\n      log3\n        /* \"@chainlink/contracts-ccip/src/v0.8/shared/access/ConfirmedOwnerWithProposal.sol\":1046:1266  {... */\n      pop\n        /* \"@chainlink/contracts-ccip/src/v0.8/shared/access/ConfirmedOwnerWithProposal.sol\":1001:1266  function acceptOwnership() external override {... */\n      jump\t// out\n        /* \"Router.sol\":2588:3035  function sendJoinMusicBloc(... */\n    tag_33:\n        /* \"Router.sol\":2734:2746  uint256 fees */\n      0x00\n        /* \"Router.sol\":2748:2765  bytes32 messageId */\n      dup1\n        /* \"Router.sol\":2777:2810  JoinMusicBlocParams memory params */\n      0x00\n        /* \"Router.sol\":2813:2976  JoinMusicBlocParams({... */\n      mload(0x40)\n      dup1\n      0x80\n      add\n      0x40\n      mstore\n      dup1\n        /* \"Router.sol\":2860:2871  blocAddress */\n      dup8\n      sub(shl(0xa0, 0x01), 0x01)\n        /* \"Router.sol\":2813:2976  JoinMusicBlocParams({... */\n      and\n      dup2\n      mstore\n      0x20\n      add\n        /* \"Router.sol\":2890:2893  cid */\n      dup7\n        /* \"Router.sol\":2813:2976  JoinMusicBlocParams({... */\n      dup2\n      mstore\n      0x20\n      add\n        /* \"Router.sol\":2921:2933  contributors */\n      dup6\n        /* \"Router.sol\":2813:2976  JoinMusicBlocParams({... */\n      dup2\n      mstore\n      0x20\n      add\n        /* \"Router.sol\":2955:2965  msg.sender */\n      caller\n      sub(shl(0xa0, 0x01), 0x01)\n        /* \"Router.sol\":2813:2976  JoinMusicBlocParams({... */\n      and\n      dup2\n      mstore\n      pop\n        /* \"Router.sol\":2777:2976  JoinMusicBlocParams memory params = JoinMusicBlocParams({... */\n      swap1\n      pop\n        /* \"Router.sol\":2994:3028  sendMessage(1, abi.encode(params)) */\n      tag_50\n        /* \"Router.sol\":3006:3007  1 */\n      0x01\n        /* \"Router.sol\":3020:3026  params */\n      dup3\n        /* \"Router.sol\":3009:3027  abi.encode(params) */\n      add(0x20, mload(0x40))\n      tag_51\n      swap2\n      swap1\n      tag_65\n      jump\t// in\n        /* \"Router.sol\":5583:5932  function withdrawToken(address _beneficiary) public onlyOwner {... */\n    tag_39:\n        /* \"@chainlink/contracts-ccip/src/v0.8/shared/access/ConfirmedOwnerWithProposal.sol\":1941:1961  _validateOwnership() */\n      tag_67\n        /* \"@chainlink/contracts-ccip/src/v0.8/shared/access/ConfirmedOwnerWithProposal.sol\":1941:1959  _validateOwnership */\n      tag_68\n        /* \"@chainlink/contracts-ccip/src/v0.8/shared/access/ConfirmedOwnerWithProposal.sol\":1941:1961  _validateOwnership() */\n      jump\t// in\n    tag_67:\n        /* \"Router.sol\":5691:5702  s_linkToken */\n      0x04\n      dup1\n      sload\n        /* \"Router.sol\":5672:5750  LinkTokenInterface(s_linkToken).balanceOf(... */\n      mload(0x40)\n      shl(0xe0, 0x70a08231)\n      dup2\n      mstore\n        /* \"Router.sol\":5735:5739  this */\n      address\n        /* \"Router.sol\":5672:5750  LinkTokenInterface(s_linkToken).balanceOf(... */\n      swap3\n      dup2\n      add\n        /* \"#utility.yul\":4077:4128   */\n      swap3\n      swap1\n      swap3\n      mstore\n        /* \"Router.sol\":5655:5669  uint256 amount */\n      0x00\n      swap2\n      sub(shl(0xa0, 0x01), 0x01)\n        /* \"Router.sol\":5691:5702  s_linkToken */\n      swap1\n      swap2\n      and\n      swap1\n        /* \"Router.sol\":5672:5713  LinkTokenInterface(s_linkToken).balanceOf */\n      0x70a08231\n      swap1\n        /* \"#utility.yul\":4050:4068   */\n      0x24\n      add\n        /* \"Router.sol\":5672:5750  LinkTokenInterface(s_linkToken).balanceOf(... */\n      0x20\n      mload(0x40)\n      dup1\n      dup4\n      sub\n      dup2\n      dup7\n      gas\n      staticcall\n      iszero\n      dup1\n      iszero\n      tag_72\n      jumpi\n      returndatasize\n      0x00\n      dup1\n      returndatacopy\n      revert(0x00, returndatasize)\n    tag_72:\n      pop\n      pop\n      pop\n      pop\n      mload(0x40)\n      returndatasize\n      not(0x1f)\n      0x1f\n      dup3\n      add\n      and\n      dup3\n      add\n      dup1\n      0x40\n      mstore\n      pop\n      dup2\n      add\n      swap1\n      tag_73\n      swap2\n      swap1\n      tag_74\n      jump\t// in\n    tag_73:\n        /* \"Router.sol\":5655:5750  uint256 amount = LinkTokenInterface(s_linkToken).balanceOf(... */\n      swap1\n      pop\n        /* \"Router.sol\":5814:5820  amount */\n      dup1\n        /* \"Router.sol\":5824:5825  0 */\n      0x00\n        /* \"Router.sol\":5814:5825  amount == 0 */\n      sub\n        /* \"Router.sol\":5810:5853  if (amount == 0) revert NothingToWithdraw() */\n      tag_75\n      jumpi\n        /* \"Router.sol\":5834:5853  NothingToWithdraw() */\n      mload(0x40)\n      shl(0xe5, 0x0686827b)\n      dup2\n      mstore\n      0x04\n      add\n      mload(0x40)\n      dup1\n      swap2\n      sub\n      swap1\n      revert\n        /* \"Router.sol\":5810:5853  if (amount == 0) revert NothingToWithdraw() */\n    tag_75:\n        /* \"Router.sol\":5882:5893  s_linkToken */\n      0x04\n      dup1\n      sload\n        /* \"Router.sol\":5863:5925  LinkTokenInterface(s_linkToken).transfer(_beneficiary, amount) */\n      mload(0x40)\n      shl(0xe0, 0xa9059cbb)\n      dup2\n      mstore\n      sub(shl(0xa0, 0x01), 0x01)\n        /* \"#utility.yul\":7787:7819   */\n      dup6\n      dup2\n      and\n        /* \"Router.sol\":5863:5925  LinkTokenInterface(s_linkToken).transfer(_beneficiary, amount) */\n      swap4\n      dup3\n      add\n        /* \"#utility.yul\":7769:7820   */\n      swap4\n      swap1\n      swap4\n      mstore\n        /* \"#utility.yul\":7836:7854   */\n      0x24\n      dup2\n      add\n        /* \"#utility.yul\":7829:7863   */\n      dup5\n      swap1\n      mstore\n        /* \"Router.sol\":5882:5893  s_linkToken */\n      swap2\n      and\n      swap1\n        /* \"Router.sol\":5863:5903  LinkTokenInterface(s_linkToken).transfer */\n      0xa9059cbb\n      swap1\n        /* \"#utility.yul\":7742:7760   */\n      0x44\n      add\n        /* \"Router.sol\":5863:5925  LinkTokenInterface(s_linkToken).transfer(_beneficiary, amount) */\n      0x20\n      mload(0x40)\n      dup1\n      dup4\n      sub\n      dup2\n      0x00\n      dup8\n      gas\n      call\n      iszero\n      dup1\n      iszero\n      tag_79\n      jumpi\n      returndatasize\n      0x00\n      dup1\n      returndatacopy\n      revert(0x00, returndatasize)\n    tag_79:\n      pop\n      pop\n      pop\n      pop\n      mload(0x40)\n      returndatasize\n      not(0x1f)\n      0x1f\n      dup3\n      add\n      and\n      dup3\n      add\n      dup1\n      0x40\n      mstore\n      pop\n      dup2\n      add\n      swap1\n      tag_80\n      swap2\n      swap1\n      tag_81\n      jump\t// in\n    tag_80:\n      pop\n        /* \"Router.sol\":5645:5932  {... */\n      pop\n        /* \"Router.sol\":5583:5932  function withdrawToken(address _beneficiary) public onlyOwner {... */\n      pop\n      jump\t// out\n        /* \"@chainlink/contracts-ccip/src/v0.8/shared/access/ConfirmedOwnerWithProposal.sol\":811:909  function transferOwnership(address to) public override onlyOwner {... */\n    tag_48:\n        /* \"@chainlink/contracts-ccip/src/v0.8/shared/access/ConfirmedOwnerWithProposal.sol\":1941:1961  _validateOwnership() */\n      tag_84\n        /* \"@chainlink/contracts-ccip/src/v0.8/shared/access/ConfirmedOwnerWithProposal.sol\":1941:1959  _validateOwnership */\n      tag_68\n        /* \"@chainlink/contracts-ccip/src/v0.8/shared/access/ConfirmedOwnerWithProposal.sol\":1941:1961  _validateOwnership() */\n      jump\t// in\n    tag_84:\n        /* \"@chainlink/contracts-ccip/src/v0.8/shared/access/ConfirmedOwnerWithProposal.sol\":882:904  _transferOwnership(to) */\n      tag_86\n        /* \"@chainlink/contracts-ccip/src/v0.8/shared/access/ConfirmedOwnerWithProposal.sol\":901:903  to */\n      dup2\n        /* \"@chainlink/contracts-ccip/src/v0.8/shared/access/ConfirmedOwnerWithProposal.sol\":882:900  _transferOwnership */\n      tag_87\n        /* \"@chainlink/contracts-ccip/src/v0.8/shared/access/ConfirmedOwnerWithProposal.sol\":882:904  _transferOwnership(to) */\n      jump\t// in\n    tag_86:\n        /* \"@chainlink/contracts-ccip/src/v0.8/shared/access/ConfirmedOwnerWithProposal.sol\":811:909  function transferOwnership(address to) public override onlyOwner {... */\n      pop\n      jump\t// out\n        /* \"Router.sol\":3439:5542  function sendMessage(... */\n    tag_53:\n        /* \"Router.sol\":3545:3557  uint256 fees */\n      0x00\n        /* \"Router.sol\":3559:3576  bytes32 messageId */\n      dup1\n        /* \"Router.sol\":3588:3631  Client.EVM2AnyMessage memory evm2AnyMessage */\n      tag_89\n      mload(0x40)\n      dup1\n      0xa0\n      add\n      0x40\n      mstore\n      dup1\n      0x60\n      dup2\n      mstore\n      0x20\n      add\n      0x60\n      dup2\n      mstore\n      0x20\n      add\n      0x60\n      dup2\n      mstore\n      0x20\n      add\n      and(sub(shl(0xa0, 0x01), 0x01), 0x00)\n      dup2\n      mstore\n      0x20\n      add\n      0x60\n      dup2\n      mstore\n      pop\n      swap1\n      jump\n    tag_89:\n        /* \"Router.sol\":3646:3662  functionSelector */\n      dup5\n        /* \"Router.sol\":3646:3667  functionSelector == 0 */\n      0xff\n      and\n        /* \"Router.sol\":3666:3667  0 */\n      0x00\n        /* \"Router.sol\":3646:3667  functionSelector == 0 */\n      sub\n        /* \"Router.sol\":3642:5112  if (functionSelector == 0) {... */\n      tag_91\n      jumpi\n        /* \"Router.sol\":3700:4089  Client.EVM2AnyMessage({... */\n      0x40\n      dup1\n      mload\n      0xa0\n      dup2\n      add\n      swap1\n      swap2\n      mstore\n        /* \"Router.sol\":3761:3771  s_receiver */\n      and(sub(shl(0xa0, 0x01), 0x01), sload(0x05))\n        /* \"Router.sol\":3750:3772  abi.encode(s_receiver) */\n      0xc0\n      dup3\n      add\n        /* \"#utility.yul\":4077:4128   */\n      mstore\n        /* \"Router.sol\":3700:4089  Client.EVM2AnyMessage({... */\n      dup1\n        /* \"#utility.yul\":4050:4068   */\n      0xe0\n      dup2\n      add\n        /* \"Router.sol\":3750:3772  abi.encode(s_receiver) */\n      mload(0x40)\n      0x20\n      dup2\n      dup4\n      sub\n      sub\n      dup2\n      mstore\n      swap1\n      0x40\n      mstore\n        /* \"Router.sol\":3700:4089  Client.EVM2AnyMessage({... */\n      dup2\n      mstore\n      0x20\n      add\n        /* \"Router.sol\":3807:3823  functionSelector */\n      dup7\n        /* \"Router.sol\":3825:3831  params */\n      dup7\n        /* \"Router.sol\":3796:3832  abi.encode(functionSelector, params) */\n      add(0x20, mload(0x40))\n      tag_93\n      swap3\n      swap2\n      swap1\n      tag_94\n      jump\t// in\n    tag_93:\n      0x40\n      dup1\n      mload\n      not(0x1f)\n      dup2\n      dup5\n      sub\n      add\n      dup2\n      mstore\n      swap2\n      swap1\n      mstore\n        /* \"Router.sol\":3700:4089  Client.EVM2AnyMessage({... */\n      dup2\n      mstore\n        /* \"Router.sol\":3796:3832  abi.encode(functionSelector, params) */\n      0x20\n        /* \"Router.sol\":3700:4089  Client.EVM2AnyMessage({... */\n      add\n        /* \"Router.sol\":3892:3893  0 */\n      0x00\n        /* \"Router.sol\":3864:3894  new Client.EVMTokenAmount[](0) */\n      mload(0x40)\n      swap1\n      dup1\n      dup3\n      mstore\n      dup1\n      0x20\n      mul\n      0x20\n      add\n      dup3\n      add\n      0x40\n      mstore\n      dup1\n      iszero\n      tag_98\n      jumpi\n      dup2\n      0x20\n      add\n    tag_99:\n      0x40\n      dup1\n      mload\n      dup1\n      dup3\n      add\n      swap1\n      swap2\n      mstore\n      0x00\n      dup1\n      dup3\n      mstore\n      0x20\n      dup3\n      add\n      mstore\n      dup2\n      mstore\n      0x20\n      add\n      swap1\n      0x01\n      swap1\n      sub\n      swap1\n      dup2\n      tag_99\n      jumpi\n      swap1\n      pop\n    tag_98:\n      pop\n        /* \"Router.sol\":3700:4089  Client.EVM2AnyMessage({... */\n      dup2\n      mstore\n        /* \"Router.sol\":4062:4073  s_linkToken */\n      and(sub(shl(0xa0, 0x01), 0x01), sload(0x04))\n        /* \"Router.sol\":3700:4089  Client.EVM2AnyMessage({... */\n      0x20\n      dup1\n      dup4\n      add\n      swap2\n      swap1\n      swap2\n      mstore\n      0x40\n        /* \"Router.sol\":3964:4008  Client.EVMExtraArgsV1({gasLimit: 1_000_000}) */\n      dup1\n      mload\n      swap2\n      dup3\n      add\n      dup2\n      mstore\n        /* \"Router.sol\":3997:4006  1_000_000 */\n      0x0f4240\n        /* \"Router.sol\":3964:4008  Client.EVMExtraArgsV1({gasLimit: 1_000_000}) */\n      dup3\n      mstore\n        /* \"Router.sol\":3700:4089  Client.EVM2AnyMessage({... */\n      swap1\n      swap2\n      add\n      swap1\n        /* \"Router.sol\":3923:4026  Client._argsToBytes(... */\n      tag_102\n      swap1\n        /* \"Router.sol\":3923:3942  Client._argsToBytes */\n      tag_103\n        /* \"Router.sol\":3923:4026  Client._argsToBytes(... */\n      jump\t// in\n    tag_102:\n        /* \"Router.sol\":3700:4089  Client.EVM2AnyMessage({... */\n      swap1\n      mstore\n        /* \"Router.sol\":3683:4089  evm2AnyMessage = Client.EVM2AnyMessage({... */\n      swap1\n      pop\n        /* \"Router.sol\":3642:5112  if (functionSelector == 0) {... */\n      jump(tag_124)\n    tag_91:\n        /* \"Router.sol\":4110:4126  functionSelector */\n      dup5\n        /* \"Router.sol\":4110:4131  functionSelector == 1 */\n      0xff\n      and\n        /* \"Router.sol\":4130:4131  1 */\n      0x01\n        /* \"Router.sol\":4110:4131  functionSelector == 1 */\n      sub\n        /* \"Router.sol\":4106:5112  if (functionSelector == 1) {... */\n      tag_105\n      jumpi\n        /* \"Router.sol\":4164:4551  Client.EVM2AnyMessage({... */\n      0x40\n      dup1\n      mload\n      0xa0\n      dup2\n      add\n      swap1\n      swap2\n      mstore\n        /* \"Router.sol\":4225:4235  s_receiver */\n      and(sub(shl(0xa0, 0x01), 0x01), sload(0x05))\n        /* \"Router.sol\":4214:4236  abi.encode(s_receiver) */\n      0xc0\n      dup3\n      add\n        /* \"#utility.yul\":4077:4128   */\n      mstore\n        /* \"Router.sol\":4164:4551  Client.EVM2AnyMessage({... */\n      dup1\n        /* \"#utility.yul\":4050:4068   */\n      0xe0\n      dup2\n      add\n        /* \"Router.sol\":4214:4236  abi.encode(s_receiver) */\n      mload(0x40)\n      0x20\n      dup2\n      dup4\n      sub\n      sub\n      dup2\n      mstore\n      swap1\n      0x40\n      mstore\n        /* \"Router.sol\":4164:4551  Client.EVM2AnyMessage({... */\n      dup2\n      mstore\n      0x20\n      add\n        /* \"Router.sol\":4271:4287  functionSelector */\n      dup7\n        /* \"Router.sol\":4289:4295  params */\n      dup7\n        /* \"Router.sol\":4260:4296  abi.encode(functionSelector, params) */\n      add(0x20, mload(0x40))\n      tag_107\n      swap3\n      swap2\n      swap1\n      tag_94\n      jump\t// in\n    tag_107:\n      0x40\n      dup1\n      mload\n      not(0x1f)\n      dup2\n      dup5\n      sub\n      add\n      dup2\n      mstore\n      swap2\n      swap1\n      mstore\n        /* \"Router.sol\":4164:4551  Client.EVM2AnyMessage({... */\n      dup2\n      mstore\n        /* \"Router.sol\":4260:4296  abi.encode(functionSelector, params) */\n      0x20\n        /* \"Router.sol\":4164:4551  Client.EVM2AnyMessage({... */\n      add\n        /* \"Router.sol\":4356:4357  0 */\n      0x00\n        /* \"Router.sol\":4328:4358  new Client.EVMTokenAmount[](0) */\n      mload(0x40)\n      swap1\n      dup1\n      dup3\n      mstore\n      dup1\n      0x20\n      mul\n      0x20\n      add\n      dup3\n      add\n      0x40\n      mstore\n      dup1\n      iszero\n      tag_110\n      jumpi\n      dup2\n      0x20\n      add\n    tag_111:\n      0x40\n      dup1\n      mload\n      dup1\n      dup3\n      add\n      swap1\n      swap2\n      mstore\n      0x00\n      dup1\n      dup3\n      mstore\n      0x20\n      dup3\n      add\n      mstore\n      dup2\n      mstore\n      0x20\n      add\n      swap1\n      0x01\n      swap1\n      sub\n      swap1\n      dup2\n      tag_111\n      jumpi\n      swap1\n      pop\n    tag_110:\n      pop\n        /* \"Router.sol\":4164:4551  Client.EVM2AnyMessage({... */\n      dup2\n      mstore\n        /* \"Router.sol\":4524:4535  s_linkToken */\n      and(sub(shl(0xa0, 0x01), 0x01), sload(0x04))\n        /* \"Router.sol\":4164:4551  Client.EVM2AnyMessage({... */\n      0x20\n      dup1\n      dup4\n      add\n      swap2\n      swap1\n      swap2\n      mstore\n      0x40\n        /* \"Router.sol\":4428:4470  Client.EVMExtraArgsV1({gasLimit: 400_000}) */\n      dup1\n      mload\n      swap2\n      dup3\n      add\n      dup2\n      mstore\n        /* \"Router.sol\":4461:4468  400_000 */\n      0x061a80\n        /* \"Router.sol\":4428:4470  Client.EVMExtraArgsV1({gasLimit: 400_000}) */\n      dup3\n      mstore\n        /* \"Router.sol\":4164:4551  Client.EVM2AnyMessage({... */\n      swap1\n      swap2\n      add\n      swap1\n        /* \"Router.sol\":4387:4488  Client._argsToBytes(... */\n      tag_102\n      swap1\n        /* \"Router.sol\":4387:4406  Client._argsToBytes */\n      tag_103\n        /* \"Router.sol\":4387:4488  Client._argsToBytes(... */\n      jump\t// in\n        /* \"Router.sol\":4106:5112  if (functionSelector == 1) {... */\n    tag_105:\n        /* \"Router.sol\":4572:4588  functionSelector */\n      dup5\n        /* \"Router.sol\":4572:4593  functionSelector == 2 */\n      0xff\n      and\n        /* \"Router.sol\":4592:4593  2 */\n      0x02\n        /* \"Router.sol\":4572:4593  functionSelector == 2 */\n      sub\n        /* \"Router.sol\":4568:5112  if (functionSelector == 2) {... */\n      tag_115\n      jumpi\n        /* \"Router.sol\":4626:5013  Client.EVM2AnyMessage({... */\n      0x40\n      dup1\n      mload\n      0xa0\n      dup2\n      add\n      swap1\n      swap2\n      mstore\n        /* \"Router.sol\":4687:4697  s_receiver */\n      and(sub(shl(0xa0, 0x01), 0x01), sload(0x05))\n        /* \"Router.sol\":4676:4698  abi.encode(s_receiver) */\n      0xc0\n      dup3\n      add\n        /* \"#utility.yul\":4077:4128   */\n      mstore\n        /* \"Router.sol\":4626:5013  Client.EVM2AnyMessage({... */\n      dup1\n        /* \"#utility.yul\":4050:4068   */\n      0xe0\n      dup2\n      add\n        /* \"Router.sol\":4676:4698  abi.encode(s_receiver) */\n      mload(0x40)\n      0x20\n      dup2\n      dup4\n      sub\n      sub\n      dup2\n      mstore\n      swap1\n      0x40\n      mstore\n        /* \"Router.sol\":4626:5013  Client.EVM2AnyMessage({... */\n      dup2\n      mstore\n      0x20\n      add\n        /* \"Router.sol\":4733:4749  functionSelector */\n      dup7\n        /* \"Router.sol\":4751:4757  params */\n      dup7\n        /* \"Router.sol\":4722:4758  abi.encode(functionSelector, params) */\n      add(0x20, mload(0x40))\n      tag_117\n      swap3\n      swap2\n      swap1\n      tag_94\n      jump\t// in\n    tag_117:\n      0x40\n      dup1\n      mload\n      not(0x1f)\n      dup2\n      dup5\n      sub\n      add\n      dup2\n      mstore\n      swap2\n      swap1\n      mstore\n        /* \"Router.sol\":4626:5013  Client.EVM2AnyMessage({... */\n      dup2\n      mstore\n        /* \"Router.sol\":4722:4758  abi.encode(functionSelector, params) */\n      0x20\n        /* \"Router.sol\":4626:5013  Client.EVM2AnyMessage({... */\n      add\n        /* \"Router.sol\":4818:4819  0 */\n      0x00\n        /* \"Router.sol\":4790:4820  new Client.EVMTokenAmount[](0) */\n      mload(0x40)\n      swap1\n      dup1\n      dup3\n      mstore\n      dup1\n      0x20\n      mul\n      0x20\n      add\n      dup3\n      add\n      0x40\n      mstore\n      dup1\n      iszero\n      tag_110\n      jumpi\n      dup2\n      0x20\n      add\n    tag_121:\n      0x40\n      dup1\n      mload\n      dup1\n      dup3\n      add\n      swap1\n      swap2\n      mstore\n      0x00\n      dup1\n      dup3\n      mstore\n      0x20\n      dup3\n      add\n      mstore\n      dup2\n      mstore\n      0x20\n      add\n      swap1\n      0x01\n      swap1\n      sub\n      swap1\n      dup2\n      tag_121\n      jumpi\n      pop\n      pop\n        /* \"Router.sol\":4626:5013  Client.EVM2AnyMessage({... */\n      dup2\n      mstore\n        /* \"Router.sol\":4986:4997  s_linkToken */\n      and(sub(shl(0xa0, 0x01), 0x01), sload(0x04))\n        /* \"Router.sol\":4626:5013  Client.EVM2AnyMessage({... */\n      0x20\n      dup1\n      dup4\n      add\n      swap2\n      swap1\n      swap2\n      mstore\n      0x40\n        /* \"Router.sol\":4890:4932  Client.EVMExtraArgsV1({gasLimit: 400_000}) */\n      dup1\n      mload\n      swap2\n      dup3\n      add\n      dup2\n      mstore\n        /* \"Router.sol\":4923:4930  400_000 */\n      0x061a80\n        /* \"Router.sol\":4890:4932  Client.EVMExtraArgsV1({gasLimit: 400_000}) */\n      dup3\n      mstore\n        /* \"Router.sol\":4626:5013  Client.EVM2AnyMessage({... */\n      swap1\n      swap2\n      add\n      swap1\n        /* \"Router.sol\":4849:4950  Client._argsToBytes(... */\n      tag_102\n      swap1\n        /* \"Router.sol\":4849:4868  Client._argsToBytes */\n      tag_103\n        /* \"Router.sol\":4849:4950  Client._argsToBytes(... */\n      jump\t// in\n        /* \"Router.sol\":4568:5112  if (functionSelector == 2) {... */\n    tag_115:\n        /* \"Router.sol\":5044:5101  revert(\"Invalid function selector. Range is between 0-2\") */\n      mload(0x40)\n      shl(0xe5, 0x461bcd)\n      dup2\n      mstore\n        /* \"#utility.yul\":8659:8661   */\n      0x20\n        /* \"Router.sol\":5044:5101  revert(\"Invalid function selector. Range is between 0-2\") */\n      0x04\n      dup3\n      add\n        /* \"#utility.yul\":8641:8662   */\n      mstore\n        /* \"#utility.yul\":8698:8700   */\n      0x2f\n        /* \"#utility.yul\":8678:8696   */\n      0x24\n      dup3\n      add\n        /* \"#utility.yul\":8671:8701   */\n      mstore\n        /* \"#utility.yul\":8737:8771   */\n      0x496e76616c69642066756e6374696f6e2073656c6563746f722e2052616e6765\n        /* \"#utility.yul\":8717:8735   */\n      0x44\n      dup3\n      add\n        /* \"#utility.yul\":8710:8772   */\n      mstore\n      shl(0x89, 0x1034b9903132ba3bb2b2b710181699)\n        /* \"#utility.yul\":8788:8806   */\n      0x64\n      dup3\n      add\n        /* \"#utility.yul\":8781:8826   */\n      mstore\n        /* \"#utility.yul\":8843:8862   */\n      0x84\n      add\n        /* \"Router.sol\":5044:5101  revert(\"Invalid function selector. Range is between 0-2\") */\n      tag_60\n        /* \"#utility.yul\":8457:8868   */\n      jump\n        /* \"Router.sol\":4568:5112  if (functionSelector == 2) {... */\n    tag_124:\n        /* \"Router.sol\":5129:5137  s_router */\n      sload(0x02)\n        /* \"Router.sol\":5145:5171  s_destinationChainSelector */\n      sload(0x05)\n        /* \"Router.sol\":5129:5188  s_router.getFee(s_destinationChainSelector, evm2AnyMessage) */\n      mload(0x40)\n      shl(0xe0, 0x20487ded)\n      dup2\n      mstore\n      sub(shl(0xa0, 0x01), 0x01)\n        /* \"Router.sol\":5129:5137  s_router */\n      swap1\n      swap3\n      and\n      swap2\n        /* \"Router.sol\":5129:5144  s_router.getFee */\n      0x20487ded\n      swap2\n        /* \"Router.sol\":5129:5188  s_router.getFee(s_destinationChainSelector, evm2AnyMessage) */\n      tag_127\n      swap2\n      shl(0xa0, 0x01)\n        /* \"Router.sol\":5145:5171  s_destinationChainSelector */\n      swap1\n      swap2\n      div\n      0xffffffffffffffff\n      and\n      swap1\n        /* \"Router.sol\":5173:5187  evm2AnyMessage */\n      dup6\n      swap1\n        /* \"Router.sol\":5129:5188  s_router.getFee(s_destinationChainSelector, evm2AnyMessage) */\n      0x04\n      add\n      tag_128\n      jump\t// in\n    tag_127:\n      0x20\n      mload(0x40)\n      dup1\n      dup4\n      sub\n      dup2\n      dup7\n      gas\n      staticcall\n      iszero\n      dup1\n      iszero\n      tag_130\n      jumpi\n      returndatasize\n      0x00\n      dup1\n      returndatacopy\n      revert(0x00, returndatasize)\n    tag_130:\n      pop\n      pop\n      pop\n      pop\n      mload(0x40)\n      returndatasize\n      not(0x1f)\n      0x1f\n      dup3\n      add\n      and\n      dup3\n      add\n      dup1\n      0x40\n      mstore\n      pop\n      dup2\n      add\n      swap1\n      tag_131\n      swap2\n      swap1\n      tag_74\n      jump\t// in\n    tag_131:\n        /* \"Router.sol\":5199:5210  s_linkToken */\n      0x04\n      dup1\n      sload\n        /* \"Router.sol\":5227:5235  s_router */\n      sload(0x02)\n        /* \"Router.sol\":5199:5243  s_linkToken.approve(address(s_router), fees) */\n      mload(0x40)\n      shl(0xe0, 0x095ea7b3)\n      dup2\n      mstore\n      sub(shl(0xa0, 0x01), 0x01)\n        /* \"Router.sol\":5227:5235  s_router */\n      swap2\n      dup3\n      and\n        /* \"Router.sol\":5199:5243  s_linkToken.approve(address(s_router), fees) */\n      swap4\n      dup2\n      add\n        /* \"#utility.yul\":7769:7820   */\n      swap4\n      swap1\n      swap4\n      mstore\n        /* \"#utility.yul\":7836:7854   */\n      0x24\n      dup4\n      add\n        /* \"#utility.yul\":7829:7863   */\n      dup5\n      swap1\n      mstore\n        /* \"Router.sol\":5122:5188  fees = s_router.getFee(s_destinationChainSelector, evm2AnyMessage) */\n      swap3\n      swap6\n      pop\n        /* \"Router.sol\":5199:5210  s_linkToken */\n      swap2\n      swap1\n      swap2\n      and\n      swap1\n        /* \"Router.sol\":5199:5218  s_linkToken.approve */\n      0x095ea7b3\n      swap1\n        /* \"#utility.yul\":7742:7760   */\n      0x44\n      add\n        /* \"Router.sol\":5199:5243  s_linkToken.approve(address(s_router), fees) */\n      0x20\n      mload(0x40)\n      dup1\n      dup4\n      sub\n      dup2\n      0x00\n      dup8\n      gas\n      call\n      iszero\n      dup1\n      iszero\n      tag_134\n      jumpi\n      returndatasize\n      0x00\n      dup1\n      returndatacopy\n      revert(0x00, returndatasize)\n    tag_134:\n      pop\n      pop\n      pop\n      pop\n      mload(0x40)\n      returndatasize\n      not(0x1f)\n      0x1f\n      dup3\n      add\n      and\n      dup3\n      add\n      dup1\n      0x40\n      mstore\n      pop\n      dup2\n      add\n      swap1\n      tag_135\n      swap2\n      swap1\n      tag_81\n      jump\t// in\n    tag_135:\n      pop\n        /* \"Router.sol\":5265:5276  s_linkToken */\n      0x04\n      dup1\n      sload\n        /* \"Router.sol\":5265:5301  s_linkToken.balanceOf(address(this)) */\n      mload(0x40)\n      shl(0xe0, 0x70a08231)\n      dup2\n      mstore\n        /* \"Router.sol\":5295:5299  this */\n      address\n        /* \"Router.sol\":5265:5301  s_linkToken.balanceOf(address(this)) */\n      swap3\n      dup2\n      add\n        /* \"#utility.yul\":4077:4128   */\n      swap3\n      swap1\n      swap3\n      mstore\n      sub(shl(0xa0, 0x01), 0x01)\n        /* \"Router.sol\":5265:5276  s_linkToken */\n      and\n      swap1\n        /* \"Router.sol\":5265:5286  s_linkToken.balanceOf */\n      0x70a08231\n      swap1\n        /* \"#utility.yul\":4050:4068   */\n      0x24\n      add\n        /* \"Router.sol\":5265:5301  s_linkToken.balanceOf(address(this)) */\n      0x20\n      mload(0x40)\n      dup1\n      dup4\n      sub\n      dup2\n      dup7\n      gas\n      staticcall\n      iszero\n      dup1\n      iszero\n      tag_138\n      jumpi\n      returndatasize\n      0x00\n      dup1\n      returndatacopy\n      revert(0x00, returndatasize)\n    tag_138:\n      pop\n      pop\n      pop\n      pop\n      mload(0x40)\n      returndatasize\n      not(0x1f)\n      0x1f\n      dup3\n      add\n      and\n      dup3\n      add\n      dup1\n      0x40\n      mstore\n      pop\n      dup2\n      add\n      swap1\n      tag_139\n      swap2\n      swap1\n      tag_74\n      jump\t// in\n    tag_139:\n        /* \"Router.sol\":5258:5262  fees */\n      dup4\n        /* \"Router.sol\":5258:5301  fees > s_linkToken.balanceOf(address(this)) */\n      gt\n        /* \"Router.sol\":5254:5382  if (fees > s_linkToken.balanceOf(address(this)))... */\n      iszero\n      tag_140\n      jumpi\n        /* \"Router.sol\":5339:5350  s_linkToken */\n      0x04\n      dup1\n      sload\n        /* \"Router.sol\":5339:5375  s_linkToken.balanceOf(address(this)) */\n      mload(0x40)\n      shl(0xe0, 0x70a08231)\n      dup2\n      mstore\n        /* \"Router.sol\":5369:5373  this */\n      address\n        /* \"Router.sol\":5339:5375  s_linkToken.balanceOf(address(this)) */\n      swap3\n      dup2\n      add\n        /* \"#utility.yul\":4077:4128   */\n      swap3\n      swap1\n      swap3\n      mstore\n      sub(shl(0xa0, 0x01), 0x01)\n        /* \"Router.sol\":5339:5350  s_linkToken */\n      and\n      swap1\n        /* \"Router.sol\":5339:5360  s_linkToken.balanceOf */\n      0x70a08231\n      swap1\n        /* \"#utility.yul\":4050:4068   */\n      0x24\n      add\n        /* \"Router.sol\":5339:5375  s_linkToken.balanceOf(address(this)) */\n      0x20\n      mload(0x40)\n      dup1\n      dup4\n      sub\n      dup2\n      dup7\n      gas\n      staticcall\n      iszero\n      dup1\n      iszero\n      tag_143\n      jumpi\n      returndatasize\n      0x00\n      dup1\n      returndatacopy\n      revert(0x00, returndatasize)\n    tag_143:\n      pop\n      pop\n      pop\n      pop\n      mload(0x40)\n      returndatasize\n      not(0x1f)\n      0x1f\n      dup3\n      add\n      and\n      dup3\n      add\n      dup1\n      0x40\n      mstore\n      pop\n      dup2\n      add\n      swap1\n      tag_144\n      swap2\n      swap1\n      tag_74\n      jump\t// in\n    tag_144:\n        /* \"Router.sol\":5322:5382  NotEnoughBalance(s_linkToken.balanceOf(address(this)), fees) */\n      mload(0x40)\n      shl(0xe1, 0x4787a103)\n      dup2\n      mstore\n      0x04\n      dup2\n      add\n        /* \"#utility.yul\":1884:1909   */\n      swap2\n      swap1\n      swap2\n      mstore\n        /* \"#utility.yul\":1925:1943   */\n      0x24\n      dup2\n      add\n        /* \"#utility.yul\":1918:1952   */\n      dup5\n      swap1\n      mstore\n        /* \"#utility.yul\":1857:1875   */\n      0x44\n      add\n        /* \"Router.sol\":5322:5382  NotEnoughBalance(s_linkToken.balanceOf(address(this)), fees) */\n      tag_60\n        /* \"#utility.yul\":1710:1958   */\n      jump\n        /* \"Router.sol\":5254:5382  if (fees > s_linkToken.balanceOf(address(this)))... */\n    tag_140:\n        /* \"Router.sol\":5405:5413  s_router */\n      sload(0x02)\n        /* \"Router.sol\":5436:5462  s_destinationChainSelector */\n      sload(0x05)\n        /* \"Router.sol\":5405:5500  s_router.ccipSend(... */\n      mload(0x40)\n      shl(0xe0, 0x96f4e9f9)\n      dup2\n      mstore\n      sub(shl(0xa0, 0x01), 0x01)\n        /* \"Router.sol\":5405:5413  s_router */\n      swap1\n      swap3\n      and\n      swap2\n        /* \"Router.sol\":5405:5422  s_router.ccipSend */\n      0x96f4e9f9\n      swap2\n        /* \"Router.sol\":5405:5500  s_router.ccipSend(... */\n      tag_147\n      swap2\n      shl(0xa0, 0x01)\n        /* \"Router.sol\":5436:5462  s_destinationChainSelector */\n      swap1\n      swap2\n      div\n      0xffffffffffffffff\n      and\n      swap1\n        /* \"Router.sol\":5476:5490  evm2AnyMessage */\n      dup6\n      swap1\n        /* \"Router.sol\":5405:5500  s_router.ccipSend(... */\n      0x04\n      add\n      tag_128\n      jump\t// in\n    tag_147:\n      0x20\n      mload(0x40)\n      dup1\n      dup4\n      sub\n      dup2\n      0x00\n      dup8\n      gas\n      call\n      iszero\n      dup1\n      iszero\n      tag_149\n      jumpi\n      returndatasize\n      0x00\n      dup1\n      returndatacopy\n      revert(0x00, returndatasize)\n    tag_149:\n      pop\n      pop\n      pop\n      pop\n      mload(0x40)\n      returndatasize\n      not(0x1f)\n      0x1f\n      dup3\n      add\n      and\n      dup3\n      add\n      dup1\n      0x40\n      mstore\n      pop\n      dup2\n      add\n      swap1\n      tag_150\n      swap2\n      swap1\n      tag_74\n      jump\t// in\n    tag_150:\n        /* \"Router.sol\":5393:5500  messageId = s_router.ccipSend(... */\n      swap2\n      pop\n        /* \"Router.sol\":5511:5535  return (fees, messageId) */\n      pop\n        /* \"Router.sol\":3439:5542  function sendMessage(... */\n      swap3\n      pop\n      swap3\n      swap1\n      pop\n      jump\t// out\n        /* \"@chainlink/contracts-ccip/src/v0.8/shared/access/ConfirmedOwnerWithProposal.sol\":1715:1826  function _validateOwnership() internal view {... */\n    tag_68:\n        /* \"@chainlink/contracts-ccip/src/v0.8/shared/access/ConfirmedOwnerWithProposal.sol\":1787:1794  s_owner */\n      and(sub(shl(0xa0, 0x01), 0x01), sload(0x00))\n        /* \"@chainlink/contracts-ccip/src/v0.8/shared/access/ConfirmedOwnerWithProposal.sol\":1773:1783  msg.sender */\n      caller\n        /* \"@chainlink/contracts-ccip/src/v0.8/shared/access/ConfirmedOwnerWithProposal.sol\":1773:1794  msg.sender == s_owner */\n      eq\n        /* \"@chainlink/contracts-ccip/src/v0.8/shared/access/ConfirmedOwnerWithProposal.sol\":1765:1821  require(msg.sender == s_owner, \"Only callable by owner\") */\n      tag_153\n      jumpi\n      mload(0x40)\n      shl(0xe5, 0x461bcd)\n      dup2\n      mstore\n        /* \"#utility.yul\":11126:11128   */\n      0x20\n        /* \"@chainlink/contracts-ccip/src/v0.8/shared/access/ConfirmedOwnerWithProposal.sol\":1765:1821  require(msg.sender == s_owner, \"Only callable by owner\") */\n      0x04\n      dup3\n      add\n        /* \"#utility.yul\":11108:11129   */\n      mstore\n        /* \"#utility.yul\":11165:11167   */\n      0x16\n        /* \"#utility.yul\":11145:11163   */\n      0x24\n      dup3\n      add\n        /* \"#utility.yul\":11138:11168   */\n      mstore\n      shl(0x51, 0x27b7363c9031b0b63630b1363290313c9037bbb732b9)\n        /* \"#utility.yul\":11184:11202   */\n      0x44\n      dup3\n      add\n        /* \"#utility.yul\":11177:11229   */\n      mstore\n        /* \"#utility.yul\":11246:11264   */\n      0x64\n      add\n        /* \"@chainlink/contracts-ccip/src/v0.8/shared/access/ConfirmedOwnerWithProposal.sol\":1765:1821  require(msg.sender == s_owner, \"Only callable by owner\") */\n      tag_60\n        /* \"#utility.yul\":10924:11270   */\n      jump\n        /* \"@chainlink/contracts-ccip/src/v0.8/shared/access/ConfirmedOwnerWithProposal.sol\":1765:1821  require(msg.sender == s_owner, \"Only callable by owner\") */\n    tag_153:\n        /* \"@chainlink/contracts-ccip/src/v0.8/shared/access/ConfirmedOwnerWithProposal.sol\":1715:1826  function _validateOwnership() internal view {... */\n      jump\t// out\n        /* \"@chainlink/contracts-ccip/src/v0.8/shared/access/ConfirmedOwnerWithProposal.sol\":1482:1670  function _transferOwnership(address to) private {... */\n    tag_87:\n        /* \"@chainlink/contracts-ccip/src/v0.8/shared/access/ConfirmedOwnerWithProposal.sol\":1550:1560  msg.sender */\n      caller\n      sub(shl(0xa0, 0x01), 0x01)\n        /* \"@chainlink/contracts-ccip/src/v0.8/shared/access/ConfirmedOwnerWithProposal.sol\":1544:1560  to != msg.sender */\n      dup3\n      and\n      sub\n        /* \"@chainlink/contracts-ccip/src/v0.8/shared/access/ConfirmedOwnerWithProposal.sol\":1536:1588  require(to != msg.sender, \"Cannot transfer to self\") */\n      tag_157\n      jumpi\n      mload(0x40)\n      shl(0xe5, 0x461bcd)\n      dup2\n      mstore\n        /* \"#utility.yul\":11477:11479   */\n      0x20\n        /* \"@chainlink/contracts-ccip/src/v0.8/shared/access/ConfirmedOwnerWithProposal.sol\":1536:1588  require(to != msg.sender, \"Cannot transfer to self\") */\n      0x04\n      dup3\n      add\n        /* \"#utility.yul\":11459:11480   */\n      mstore\n        /* \"#utility.yul\":11516:11518   */\n      0x17\n        /* \"#utility.yul\":11496:11514   */\n      0x24\n      dup3\n      add\n        /* \"#utility.yul\":11489:11519   */\n      mstore\n        /* \"#utility.yul\":11555:11580   */\n      0x43616e6e6f74207472616e7366657220746f2073656c66000000000000000000\n        /* \"#utility.yul\":11535:11553   */\n      0x44\n      dup3\n      add\n        /* \"#utility.yul\":11528:11581   */\n      mstore\n        /* \"#utility.yul\":11598:11616   */\n      0x64\n      add\n        /* \"@chainlink/contracts-ccip/src/v0.8/shared/access/ConfirmedOwnerWithProposal.sol\":1536:1588  require(to != msg.sender, \"Cannot transfer to self\") */\n      tag_60\n        /* \"#utility.yul\":11275:11622   */\n      jump\n        /* \"@chainlink/contracts-ccip/src/v0.8/shared/access/ConfirmedOwnerWithProposal.sol\":1536:1588  require(to != msg.sender, \"Cannot transfer to self\") */\n    tag_157:\n        /* \"@chainlink/contracts-ccip/src/v0.8/shared/access/ConfirmedOwnerWithProposal.sol\":1595:1609  s_pendingOwner */\n      0x01\n        /* \"@chainlink/contracts-ccip/src/v0.8/shared/access/ConfirmedOwnerWithProposal.sol\":1595:1614  s_pendingOwner = to */\n      dup1\n      sload\n      not(sub(shl(0xa0, 0x01), 0x01))\n      and\n      sub(shl(0xa0, 0x01), 0x01)\n      dup4\n      dup2\n      and\n      swap2\n      dup3\n      or\n      swap1\n      swap3\n      sstore\n      0x00\n        /* \"@chainlink/contracts-ccip/src/v0.8/shared/access/ConfirmedOwnerWithProposal.sol\":1653:1660  s_owner */\n      dup1\n      sload\n        /* \"@chainlink/contracts-ccip/src/v0.8/shared/access/ConfirmedOwnerWithProposal.sol\":1626:1665  OwnershipTransferRequested(s_owner, to) */\n      mload(0x40)\n        /* \"@chainlink/contracts-ccip/src/v0.8/shared/access/ConfirmedOwnerWithProposal.sol\":1595:1614  s_pendingOwner = to */\n      swap3\n      swap4\n        /* \"@chainlink/contracts-ccip/src/v0.8/shared/access/ConfirmedOwnerWithProposal.sol\":1653:1660  s_owner */\n      and\n      swap2\n        /* \"@chainlink/contracts-ccip/src/v0.8/shared/access/ConfirmedOwnerWithProposal.sol\":1626:1665  OwnershipTransferRequested(s_owner, to) */\n      0xed8889f560326eb138920d842192f0eb3dd22b4f139c87a2c57538e05bae1278\n      swap2\n      swap1\n      log3\n        /* \"@chainlink/contracts-ccip/src/v0.8/shared/access/ConfirmedOwnerWithProposal.sol\":1482:1670  function _transferOwnership(address to) private {... */\n      pop\n      jump\t// out\n        /* \"@chainlink/contracts-ccip/src/v0.8/ccip/libraries/Client.sol\":1285:1455  function _argsToBytes(EVMExtraArgsV1 memory extraArgs) internal pure returns (bytes memory bts) {... */\n    tag_103:\n        /* \"@chainlink/contracts-ccip/src/v0.8/ccip/libraries/Client.sol\":1394:1450  abi.encodeWithSelector(EVM_EXTRA_ARGS_V1_TAG, extraArgs) */\n      0x40\n      dup1\n      mload\n        /* \"#utility.yul\":11851:11864   */\n      swap2\n      mload\n        /* \"@chainlink/contracts-ccip/src/v0.8/ccip/libraries/Client.sol\":1394:1450  abi.encodeWithSelector(EVM_EXTRA_ARGS_V1_TAG, extraArgs) */\n      0x24\n      dup1\n      dup5\n      add\n        /* \"#utility.yul\":11833:11865   */\n      swap2\n      swap1\n      swap2\n      mstore\n        /* \"@chainlink/contracts-ccip/src/v0.8/ccip/libraries/Client.sol\":1394:1450  abi.encodeWithSelector(EVM_EXTRA_ARGS_V1_TAG, extraArgs) */\n      dup2\n      mload\n      dup1\n      dup5\n      sub\n      swap1\n      swap2\n      add\n      dup2\n      mstore\n        /* \"#utility.yul\":11806:11824   */\n      0x44\n      swap1\n      swap3\n      add\n        /* \"@chainlink/contracts-ccip/src/v0.8/ccip/libraries/Client.sol\":1394:1450  abi.encodeWithSelector(EVM_EXTRA_ARGS_V1_TAG, extraArgs) */\n      swap1\n      mstore\n      0x20\n      dup2\n      add\n      dup1\n      mload\n      sub(shl(0xe0, 0x01), 0x01)\n      and\n      shl(0xe0, 0x97a657c9)\n      or\n      swap1\n      mstore\n      swap1\n        /* \"@chainlink/contracts-ccip/src/v0.8/ccip/libraries/Client.sol\":1285:1455  function _argsToBytes(EVMExtraArgsV1 memory extraArgs) internal pure returns (bytes memory bts) {... */\n      jump\t// out\n        /* \"#utility.yul\":14:141   */\n    tag_97:\n        /* \"#utility.yul\":75:85   */\n      0x4e487b71\n        /* \"#utility.yul\":70:73   */\n      0xe0\n        /* \"#utility.yul\":66:86   */\n      shl\n        /* \"#utility.yul\":63:64   */\n      0x00\n        /* \"#utility.yul\":56:87   */\n      mstore\n        /* \"#utility.yul\":106:110   */\n      0x41\n        /* \"#utility.yul\":103:104   */\n      0x04\n        /* \"#utility.yul\":96:111   */\n      mstore\n        /* \"#utility.yul\":130:134   */\n      0x24\n        /* \"#utility.yul\":127:128   */\n      0x00\n        /* \"#utility.yul\":120:135   */\n      revert\n        /* \"#utility.yul\":146:421   */\n    tag_163:\n        /* \"#utility.yul\":217:219   */\n      0x40\n        /* \"#utility.yul\":211:220   */\n      mload\n        /* \"#utility.yul\":282:284   */\n      0x1f\n        /* \"#utility.yul\":263:276   */\n      dup3\n      add\n      not(0x1f)\n        /* \"#utility.yul\":259:286   */\n      and\n        /* \"#utility.yul\":247:287   */\n      dup2\n      add\n        /* \"#utility.yul\":317:335   */\n      0xffffffffffffffff\n        /* \"#utility.yul\":302:336   */\n      dup2\n      gt\n        /* \"#utility.yul\":338:360   */\n      dup3\n      dup3\n      lt\n        /* \"#utility.yul\":299:361   */\n      or\n        /* \"#utility.yul\":296:384   */\n      iszero\n      tag_172\n      jumpi\n        /* \"#utility.yul\":364:382   */\n      tag_172\n      tag_97\n      jump\t// in\n    tag_172:\n        /* \"#utility.yul\":400:402   */\n      0x40\n        /* \"#utility.yul\":393:415   */\n      mstore\n        /* \"#utility.yul\":146:421   */\n      swap2\n      swap1\n      pop\n      jump\t// out\n        /* \"#utility.yul\":426:957   */\n    tag_164:\n        /* \"#utility.yul\":469:474   */\n      0x00\n        /* \"#utility.yul\":522:525   */\n      dup3\n        /* \"#utility.yul\":515:519   */\n      0x1f\n        /* \"#utility.yul\":507:513   */\n      dup4\n        /* \"#utility.yul\":503:520   */\n      add\n        /* \"#utility.yul\":499:526   */\n      slt\n        /* \"#utility.yul\":489:544   */\n      tag_174\n      jumpi\n        /* \"#utility.yul\":540:541   */\n      0x00\n        /* \"#utility.yul\":537:538   */\n      dup1\n        /* \"#utility.yul\":530:542   */\n      revert\n        /* \"#utility.yul\":489:544   */\n    tag_174:\n        /* \"#utility.yul\":576:582   */\n      dup2\n        /* \"#utility.yul\":563:583   */\n      calldataload\n        /* \"#utility.yul\":602:620   */\n      0xffffffffffffffff\n        /* \"#utility.yul\":598:600   */\n      dup2\n        /* \"#utility.yul\":595:621   */\n      gt\n        /* \"#utility.yul\":592:644   */\n      iszero\n      tag_176\n      jumpi\n        /* \"#utility.yul\":624:642   */\n      tag_176\n      tag_97\n      jump\t// in\n    tag_176:\n        /* \"#utility.yul\":668:723   */\n      tag_177\n        /* \"#utility.yul\":711:713   */\n      0x1f\n        /* \"#utility.yul\":692:705   */\n      dup3\n      add\n      not(0x1f)\n        /* \"#utility.yul\":688:715   */\n      and\n        /* \"#utility.yul\":717:721   */\n      0x20\n        /* \"#utility.yul\":684:722   */\n      add\n        /* \"#utility.yul\":668:723   */\n      tag_163\n      jump\t// in\n    tag_177:\n        /* \"#utility.yul\":748:750   */\n      dup2\n        /* \"#utility.yul\":739:746   */\n      dup2\n        /* \"#utility.yul\":732:751   */\n      mstore\n        /* \"#utility.yul\":794:797   */\n      dup5\n        /* \"#utility.yul\":787:791   */\n      0x20\n        /* \"#utility.yul\":782:784   */\n      dup4\n        /* \"#utility.yul\":774:780   */\n      dup7\n        /* \"#utility.yul\":770:785   */\n      add\n        /* \"#utility.yul\":766:792   */\n      add\n        /* \"#utility.yul\":763:798   */\n      gt\n        /* \"#utility.yul\":760:815   */\n      iszero\n      tag_178\n      jumpi\n        /* \"#utility.yul\":811:812   */\n      0x00\n        /* \"#utility.yul\":808:809   */\n      dup1\n        /* \"#utility.yul\":801:813   */\n      revert\n        /* \"#utility.yul\":760:815   */\n    tag_178:\n        /* \"#utility.yul\":876:878   */\n      dup2\n        /* \"#utility.yul\":869:873   */\n      0x20\n        /* \"#utility.yul\":861:867   */\n      dup6\n        /* \"#utility.yul\":857:874   */\n      add\n        /* \"#utility.yul\":850:854   */\n      0x20\n        /* \"#utility.yul\":841:848   */\n      dup4\n        /* \"#utility.yul\":837:855   */\n      add\n        /* \"#utility.yul\":824:879   */\n      calldatacopy\n        /* \"#utility.yul\":924:925   */\n      0x00\n        /* \"#utility.yul\":899:915   */\n      swap2\n      dup2\n      add\n        /* \"#utility.yul\":917:921   */\n      0x20\n        /* \"#utility.yul\":895:922   */\n      add\n        /* \"#utility.yul\":888:926   */\n      swap2\n      swap1\n      swap2\n      mstore\n        /* \"#utility.yul\":903:910   */\n      swap4\n        /* \"#utility.yul\":426:957   */\n      swap3\n      pop\n      pop\n      pop\n      jump\t// out\n        /* \"#utility.yul\":962:1705   */\n    tag_16:\n        /* \"#utility.yul\":1069:1075   */\n      0x00\n        /* \"#utility.yul\":1077:1083   */\n      dup1\n        /* \"#utility.yul\":1085:1091   */\n      0x00\n        /* \"#utility.yul\":1138:1140   */\n      0x60\n        /* \"#utility.yul\":1126:1135   */\n      dup5\n        /* \"#utility.yul\":1117:1124   */\n      dup7\n        /* \"#utility.yul\":1113:1136   */\n      sub\n        /* \"#utility.yul\":1109:1141   */\n      slt\n        /* \"#utility.yul\":1106:1158   */\n      iszero\n      tag_180\n      jumpi\n        /* \"#utility.yul\":1154:1155   */\n      0x00\n        /* \"#utility.yul\":1151:1152   */\n      dup1\n        /* \"#utility.yul\":1144:1156   */\n      revert\n        /* \"#utility.yul\":1106:1158   */\n    tag_180:\n        /* \"#utility.yul\":1194:1203   */\n      dup4\n        /* \"#utility.yul\":1181:1204   */\n      calldataload\n        /* \"#utility.yul\":1223:1241   */\n      0xffffffffffffffff\n        /* \"#utility.yul\":1264:1266   */\n      dup1\n        /* \"#utility.yul\":1256:1262   */\n      dup3\n        /* \"#utility.yul\":1253:1267   */\n      gt\n        /* \"#utility.yul\":1250:1284   */\n      iszero\n      tag_181\n      jumpi\n        /* \"#utility.yul\":1280:1281   */\n      0x00\n        /* \"#utility.yul\":1277:1278   */\n      dup1\n        /* \"#utility.yul\":1270:1282   */\n      revert\n        /* \"#utility.yul\":1250:1284   */\n    tag_181:\n        /* \"#utility.yul\":1303:1353   */\n      tag_182\n        /* \"#utility.yul\":1345:1352   */\n      dup8\n        /* \"#utility.yul\":1336:1342   */\n      dup4\n        /* \"#utility.yul\":1325:1334   */\n      dup9\n        /* \"#utility.yul\":1321:1343   */\n      add\n        /* \"#utility.yul\":1303:1353   */\n      tag_164\n      jump\t// in\n    tag_182:\n        /* \"#utility.yul\":1293:1353   */\n      swap5\n      pop\n        /* \"#utility.yul\":1406:1408   */\n      0x20\n        /* \"#utility.yul\":1395:1404   */\n      dup7\n        /* \"#utility.yul\":1391:1409   */\n      add\n        /* \"#utility.yul\":1378:1410   */\n      calldataload\n        /* \"#utility.yul\":1362:1410   */\n      swap2\n      pop\n        /* \"#utility.yul\":1435:1437   */\n      dup1\n        /* \"#utility.yul\":1425:1433   */\n      dup3\n        /* \"#utility.yul\":1422:1438   */\n      gt\n        /* \"#utility.yul\":1419:1455   */\n      iszero\n      tag_183\n      jumpi\n        /* \"#utility.yul\":1451:1452   */\n      0x00\n        /* \"#utility.yul\":1448:1449   */\n      dup1\n        /* \"#utility.yul\":1441:1453   */\n      revert\n        /* \"#utility.yul\":1419:1455   */\n    tag_183:\n        /* \"#utility.yul\":1474:1526   */\n      tag_184\n        /* \"#utility.yul\":1518:1525   */\n      dup8\n        /* \"#utility.yul\":1507:1515   */\n      dup4\n        /* \"#utility.yul\":1496:1505   */\n      dup9\n        /* \"#utility.yul\":1492:1516   */\n      add\n        /* \"#utility.yul\":1474:1526   */\n      tag_164\n      jump\t// in\n    tag_184:\n        /* \"#utility.yul\":1464:1526   */\n      swap4\n      pop\n        /* \"#utility.yul\":1579:1581   */\n      0x40\n        /* \"#utility.yul\":1568:1577   */\n      dup7\n        /* \"#utility.yul\":1564:1582   */\n      add\n        /* \"#utility.yul\":1551:1583   */\n      calldataload\n        /* \"#utility.yul\":1535:1583   */\n      swap2\n      pop\n        /* \"#utility.yul\":1608:1610   */\n      dup1\n        /* \"#utility.yul\":1598:1606   */\n      dup3\n        /* \"#utility.yul\":1595:1611   */\n      gt\n        /* \"#utility.yul\":1592:1628   */\n      iszero\n      tag_185\n      jumpi\n        /* \"#utility.yul\":1624:1625   */\n      0x00\n        /* \"#utility.yul\":1621:1622   */\n      dup1\n        /* \"#utility.yul\":1614:1626   */\n      revert\n        /* \"#utility.yul\":1592:1628   */\n    tag_185:\n      pop\n        /* \"#utility.yul\":1647:1699   */\n      tag_186\n        /* \"#utility.yul\":1691:1698   */\n      dup7\n        /* \"#utility.yul\":1680:1688   */\n      dup3\n        /* \"#utility.yul\":1669:1678   */\n      dup8\n        /* \"#utility.yul\":1665:1689   */\n      add\n        /* \"#utility.yul\":1647:1699   */\n      tag_164\n      jump\t// in\n    tag_186:\n        /* \"#utility.yul\":1637:1699   */\n      swap2\n      pop\n      pop\n        /* \"#utility.yul\":962:1705   */\n      swap3\n      pop\n      swap3\n      pop\n      swap3\n      jump\t// out\n        /* \"#utility.yul\":1963:2136   */\n    tag_165:\n        /* \"#utility.yul\":2031:2051   */\n      dup1\n      calldataload\n      sub(shl(0xa0, 0x01), 0x01)\n        /* \"#utility.yul\":2080:2111   */\n      dup2\n      and\n        /* \"#utility.yul\":2070:2112   */\n      dup2\n      eq\n        /* \"#utility.yul\":2060:2130   */\n      tag_189\n      jumpi\n        /* \"#utility.yul\":2126:2127   */\n      0x00\n        /* \"#utility.yul\":2123:2124   */\n      dup1\n        /* \"#utility.yul\":2116:2128   */\n      revert\n        /* \"#utility.yul\":2060:2130   */\n    tag_189:\n        /* \"#utility.yul\":1963:2136   */\n      swap2\n      swap1\n      pop\n      jump\t// out\n        /* \"#utility.yul\":2141:2395   */\n    tag_23:\n        /* \"#utility.yul\":2209:2215   */\n      0x00\n        /* \"#utility.yul\":2217:2223   */\n      dup1\n        /* \"#utility.yul\":2270:2272   */\n      0x40\n        /* \"#utility.yul\":2258:2267   */\n      dup4\n        /* \"#utility.yul\":2249:2256   */\n      dup6\n        /* \"#utility.yul\":2245:2268   */\n      sub\n        /* \"#utility.yul\":2241:2273   */\n      slt\n        /* \"#utility.yul\":2238:2290   */\n      iszero\n      tag_191\n      jumpi\n        /* \"#utility.yul\":2286:2287   */\n      0x00\n        /* \"#utility.yul\":2283:2284   */\n      dup1\n        /* \"#utility.yul\":2276:2288   */\n      revert\n        /* \"#utility.yul\":2238:2290   */\n    tag_191:\n        /* \"#utility.yul\":2309:2338   */\n      tag_192\n        /* \"#utility.yul\":2328:2337   */\n      dup4\n        /* \"#utility.yul\":2309:2338   */\n      tag_165\n      jump\t// in\n    tag_192:\n        /* \"#utility.yul\":2299:2338   */\n      swap5\n        /* \"#utility.yul\":2385:2387   */\n      0x20\n        /* \"#utility.yul\":2370:2388   */\n      swap4\n      swap1\n      swap4\n      add\n        /* \"#utility.yul\":2357:2389   */\n      calldataload\n      swap4\n      pop\n      pop\n      pop\n        /* \"#utility.yul\":2141:2395   */\n      jump\t// out\n        /* \"#utility.yul\":2400:3626   */\n    tag_32:\n        /* \"#utility.yul\":2512:2518   */\n      0x00\n        /* \"#utility.yul\":2520:2526   */\n      dup1\n        /* \"#utility.yul\":2528:2534   */\n      0x00\n        /* \"#utility.yul\":2581:2583   */\n      0x60\n        /* \"#utility.yul\":2569:2578   */\n      dup5\n        /* \"#utility.yul\":2560:2567   */\n      dup7\n        /* \"#utility.yul\":2556:2579   */\n      sub\n        /* \"#utility.yul\":2552:2584   */\n      slt\n        /* \"#utility.yul\":2549:2601   */\n      iszero\n      tag_194\n      jumpi\n        /* \"#utility.yul\":2597:2598   */\n      0x00\n        /* \"#utility.yul\":2594:2595   */\n      dup1\n        /* \"#utility.yul\":2587:2599   */\n      revert\n        /* \"#utility.yul\":2549:2601   */\n    tag_194:\n        /* \"#utility.yul\":2620:2649   */\n      tag_195\n        /* \"#utility.yul\":2639:2648   */\n      dup5\n        /* \"#utility.yul\":2620:2649   */\n      tag_165\n      jump\t// in\n    tag_195:\n        /* \"#utility.yul\":2610:2649   */\n      swap3\n      pop\n        /* \"#utility.yul\":2668:2670   */\n      0x20\n        /* \"#utility.yul\":2721:2723   */\n      dup1\n        /* \"#utility.yul\":2710:2719   */\n      dup6\n        /* \"#utility.yul\":2706:2724   */\n      add\n        /* \"#utility.yul\":2693:2725   */\n      calldataload\n        /* \"#utility.yul\":2744:2762   */\n      0xffffffffffffffff\n        /* \"#utility.yul\":2785:2787   */\n      dup1\n        /* \"#utility.yul\":2777:2783   */\n      dup3\n        /* \"#utility.yul\":2774:2788   */\n      gt\n        /* \"#utility.yul\":2771:2805   */\n      iszero\n      tag_196\n      jumpi\n        /* \"#utility.yul\":2801:2802   */\n      0x00\n        /* \"#utility.yul\":2798:2799   */\n      dup1\n        /* \"#utility.yul\":2791:2803   */\n      revert\n        /* \"#utility.yul\":2771:2805   */\n    tag_196:\n        /* \"#utility.yul\":2824:2874   */\n      tag_197\n        /* \"#utility.yul\":2866:2873   */\n      dup9\n        /* \"#utility.yul\":2857:2863   */\n      dup4\n        /* \"#utility.yul\":2846:2855   */\n      dup10\n        /* \"#utility.yul\":2842:2864   */\n      add\n        /* \"#utility.yul\":2824:2874   */\n      tag_164\n      jump\t// in\n    tag_197:\n        /* \"#utility.yul\":2814:2874   */\n      swap5\n      pop\n        /* \"#utility.yul\":2927:2929   */\n      0x40\n        /* \"#utility.yul\":2916:2925   */\n      dup8\n        /* \"#utility.yul\":2912:2930   */\n      add\n        /* \"#utility.yul\":2899:2931   */\n      calldataload\n        /* \"#utility.yul\":2883:2931   */\n      swap2\n      pop\n        /* \"#utility.yul\":2956:2958   */\n      dup1\n        /* \"#utility.yul\":2946:2954   */\n      dup3\n        /* \"#utility.yul\":2943:2959   */\n      gt\n        /* \"#utility.yul\":2940:2976   */\n      iszero\n      tag_198\n      jumpi\n        /* \"#utility.yul\":2972:2973   */\n      0x00\n        /* \"#utility.yul\":2969:2970   */\n      dup1\n        /* \"#utility.yul\":2962:2974   */\n      revert\n        /* \"#utility.yul\":2940:2976   */\n    tag_198:\n        /* \"#utility.yul\":3010:3018   */\n      dup2\n        /* \"#utility.yul\":2999:3008   */\n      dup8\n        /* \"#utility.yul\":2995:3019   */\n      add\n        /* \"#utility.yul\":2985:3019   */\n      swap2\n      pop\n        /* \"#utility.yul\":3057:3064   */\n      dup8\n        /* \"#utility.yul\":3050:3054   */\n      0x1f\n        /* \"#utility.yul\":3046:3048   */\n      dup4\n        /* \"#utility.yul\":3042:3055   */\n      add\n        /* \"#utility.yul\":3038:3065   */\n      slt\n        /* \"#utility.yul\":3028:3083   */\n      tag_199\n      jumpi\n        /* \"#utility.yul\":3079:3080   */\n      0x00\n        /* \"#utility.yul\":3076:3077   */\n      dup1\n        /* \"#utility.yul\":3069:3081   */\n      revert\n        /* \"#utility.yul\":3028:3083   */\n    tag_199:\n        /* \"#utility.yul\":3115:3117   */\n      dup2\n        /* \"#utility.yul\":3102:3118   */\n      calldataload\n        /* \"#utility.yul\":3137:3139   */\n      dup2\n        /* \"#utility.yul\":3133:3135   */\n      dup2\n        /* \"#utility.yul\":3130:3140   */\n      gt\n        /* \"#utility.yul\":3127:3163   */\n      iszero\n      tag_201\n      jumpi\n        /* \"#utility.yul\":3143:3161   */\n      tag_201\n      tag_97\n      jump\t// in\n    tag_201:\n        /* \"#utility.yul\":3189:3191   */\n      dup1\n        /* \"#utility.yul\":3186:3187   */\n      0x05\n        /* \"#utility.yul\":3182:3192   */\n      shl\n        /* \"#utility.yul\":3172:3192   */\n      swap2\n      pop\n        /* \"#utility.yul\":3212:3240   */\n      tag_202\n        /* \"#utility.yul\":3236:3238   */\n      dup5\n        /* \"#utility.yul\":3232:3234   */\n      dup4\n        /* \"#utility.yul\":3228:3239   */\n      add\n        /* \"#utility.yul\":3212:3240   */\n      tag_163\n      jump\t// in\n    tag_202:\n        /* \"#utility.yul\":3274:3289   */\n      dup2\n      dup2\n      mstore\n        /* \"#utility.yul\":3344:3355   */\n      swap2\n      dup4\n      add\n        /* \"#utility.yul\":3340:3360   */\n      dup5\n      add\n      swap2\n        /* \"#utility.yul\":3305:3317   */\n      dup5\n      dup2\n      add\n      swap1\n        /* \"#utility.yul\":3372:3391   */\n      dup11\n      dup5\n      gt\n        /* \"#utility.yul\":3369:3408   */\n      iszero\n      tag_203\n      jumpi\n        /* \"#utility.yul\":3404:3405   */\n      0x00\n        /* \"#utility.yul\":3401:3402   */\n      dup1\n        /* \"#utility.yul\":3394:3406   */\n      revert\n        /* \"#utility.yul\":3369:3408   */\n    tag_203:\n        /* \"#utility.yul\":3428:3439   */\n      swap4\n      dup6\n      add\n      swap4\n        /* \"#utility.yul\":3448:3596   */\n    tag_204:\n        /* \"#utility.yul\":3464:3470   */\n      dup4\n        /* \"#utility.yul\":3459:3462   */\n      dup6\n        /* \"#utility.yul\":3456:3471   */\n      lt\n        /* \"#utility.yul\":3448:3596   */\n      iszero\n      tag_206\n      jumpi\n        /* \"#utility.yul\":3530:3553   */\n      tag_207\n        /* \"#utility.yul\":3549:3552   */\n      dup6\n        /* \"#utility.yul\":3530:3553   */\n      tag_165\n      jump\t// in\n    tag_207:\n        /* \"#utility.yul\":3518:3554   */\n      dup3\n      mstore\n        /* \"#utility.yul\":3481:3493   */\n      swap4\n      dup6\n      add\n      swap4\n        /* \"#utility.yul\":3574:3586   */\n      swap1\n      dup6\n      add\n      swap1\n        /* \"#utility.yul\":3448:3596   */\n      jump(tag_204)\n    tag_206:\n        /* \"#utility.yul\":3615:3620   */\n      dup1\n        /* \"#utility.yul\":3605:3620   */\n      swap7\n      pop\n      pop\n      pop\n      pop\n      pop\n      pop\n      pop\n        /* \"#utility.yul\":2400:3626   */\n      swap3\n      pop\n      swap3\n      pop\n      swap3\n      jump\t// out\n        /* \"#utility.yul\":3631:3817   */\n    tag_38:\n        /* \"#utility.yul\":3690:3696   */\n      0x00\n        /* \"#utility.yul\":3743:3745   */\n      0x20\n        /* \"#utility.yul\":3731:3740   */\n      dup3\n        /* \"#utility.yul\":3722:3729   */\n      dup5\n        /* \"#utility.yul\":3718:3741   */\n      sub\n        /* \"#utility.yul\":3714:3746   */\n      slt\n        /* \"#utility.yul\":3711:3763   */\n      iszero\n      tag_209\n      jumpi\n        /* \"#utility.yul\":3759:3760   */\n      0x00\n        /* \"#utility.yul\":3756:3757   */\n      dup1\n        /* \"#utility.yul\":3749:3761   */\n      revert\n        /* \"#utility.yul\":3711:3763   */\n    tag_209:\n        /* \"#utility.yul\":3782:3811   */\n      tag_210\n        /* \"#utility.yul\":3801:3810   */\n      dup3\n        /* \"#utility.yul\":3782:3811   */\n      tag_165\n      jump\t// in\n    tag_210:\n        /* \"#utility.yul\":3772:3811   */\n      swap4\n        /* \"#utility.yul\":3631:3817   */\n      swap3\n      pop\n      pop\n      pop\n      jump\t// out\n        /* \"#utility.yul\":4139:4562   */\n    tag_167:\n        /* \"#utility.yul\":4181:4184   */\n      0x00\n        /* \"#utility.yul\":4219:4224   */\n      dup2\n        /* \"#utility.yul\":4213:4225   */\n      mload\n        /* \"#utility.yul\":4246:4252   */\n      dup1\n        /* \"#utility.yul\":4241:4244   */\n      dup5\n        /* \"#utility.yul\":4234:4253   */\n      mstore\n        /* \"#utility.yul\":4271:4272   */\n      0x00\n        /* \"#utility.yul\":4281:4443   */\n    tag_214:\n        /* \"#utility.yul\":4295:4301   */\n      dup2\n        /* \"#utility.yul\":4292:4293   */\n      dup2\n        /* \"#utility.yul\":4289:4302   */\n      lt\n        /* \"#utility.yul\":4281:4443   */\n      iszero\n      tag_216\n      jumpi\n        /* \"#utility.yul\":4357:4361   */\n      0x20\n        /* \"#utility.yul\":4413:4426   */\n      dup2\n      dup6\n      add\n        /* \"#utility.yul\":4409:4431   */\n      dup2\n      add\n        /* \"#utility.yul\":4403:4432   */\n      mload\n        /* \"#utility.yul\":4385:4396   */\n      dup7\n      dup4\n      add\n        /* \"#utility.yul\":4381:4401   */\n      dup3\n      add\n        /* \"#utility.yul\":4374:4433   */\n      mstore\n        /* \"#utility.yul\":4310:4322   */\n      add\n        /* \"#utility.yul\":4281:4443   */\n      jump(tag_214)\n    tag_216:\n        /* \"#utility.yul\":4285:4288   */\n      pop\n        /* \"#utility.yul\":4488:4489   */\n      0x00\n        /* \"#utility.yul\":4481:4485   */\n      0x20\n        /* \"#utility.yul\":4472:4478   */\n      dup3\n        /* \"#utility.yul\":4467:4470   */\n      dup7\n        /* \"#utility.yul\":4463:4479   */\n      add\n        /* \"#utility.yul\":4459:4486   */\n      add\n        /* \"#utility.yul\":4452:4490   */\n      mstore\n        /* \"#utility.yul\":4551:4555   */\n      0x20\n        /* \"#utility.yul\":4544:4546   */\n      0x1f\n        /* \"#utility.yul\":4540:4547   */\n      not\n        /* \"#utility.yul\":4535:4537   */\n      0x1f\n        /* \"#utility.yul\":4527:4533   */\n      dup4\n        /* \"#utility.yul\":4523:4538   */\n      add\n        /* \"#utility.yul\":4519:4548   */\n      and\n        /* \"#utility.yul\":4514:4517   */\n      dup6\n        /* \"#utility.yul\":4510:4549   */\n      add\n        /* \"#utility.yul\":4506:4556   */\n      add\n        /* \"#utility.yul\":4499:4556   */\n      swap2\n      pop\n      pop\n        /* \"#utility.yul\":4139:4562   */\n      swap3\n      swap2\n      pop\n      pop\n      jump\t// out\n        /* \"#utility.yul\":4567:5447   */\n    tag_52:\n        /* \"#utility.yul\":4774:4776   */\n      0x20\n        /* \"#utility.yul\":4763:4772   */\n      dup2\n        /* \"#utility.yul\":4756:4777   */\n      mstore\n        /* \"#utility.yul\":4737:4741   */\n      0x00\n        /* \"#utility.yul\":4812:4818   */\n      dup3\n        /* \"#utility.yul\":4806:4819   */\n      mload\n        /* \"#utility.yul\":4855:4859   */\n      0x80\n        /* \"#utility.yul\":4850:4852   */\n      0x20\n        /* \"#utility.yul\":4839:4848   */\n      dup5\n        /* \"#utility.yul\":4835:4853   */\n      add\n        /* \"#utility.yul\":4828:4860   */\n      mstore\n        /* \"#utility.yul\":4883:4935   */\n      tag_218\n        /* \"#utility.yul\":4930:4933   */\n      0xa0\n        /* \"#utility.yul\":4919:4928   */\n      dup5\n        /* \"#utility.yul\":4915:4934   */\n      add\n        /* \"#utility.yul\":4901:4913   */\n      dup3\n        /* \"#utility.yul\":4883:4935   */\n      tag_167\n      jump\t// in\n    tag_218:\n        /* \"#utility.yul\":4869:4935   */\n      swap1\n      pop\n        /* \"#utility.yul\":4984:4986   */\n      0x20\n        /* \"#utility.yul\":4976:4982   */\n      dup5\n        /* \"#utility.yul\":4972:4987   */\n      add\n        /* \"#utility.yul\":4966:4988   */\n      mload\n        /* \"#utility.yul\":5011:5013   */\n      0x1f\n        /* \"#utility.yul\":5007:5014   */\n      not\n        /* \"#utility.yul\":5078:5080   */\n      dup1\n        /* \"#utility.yul\":5066:5075   */\n      dup6\n        /* \"#utility.yul\":5058:5064   */\n      dup5\n        /* \"#utility.yul\":5054:5076   */\n      sub\n        /* \"#utility.yul\":5050:5081   */\n      add\n        /* \"#utility.yul\":5045:5047   */\n      0x40\n        /* \"#utility.yul\":5034:5043   */\n      dup7\n        /* \"#utility.yul\":5030:5048   */\n      add\n        /* \"#utility.yul\":5023:5082   */\n      mstore\n        /* \"#utility.yul\":5105:5146   */\n      tag_219\n        /* \"#utility.yul\":5139:5145   */\n      dup4\n        /* \"#utility.yul\":5123:5137   */\n      dup4\n        /* \"#utility.yul\":5105:5146   */\n      tag_167\n      jump\t// in\n    tag_219:\n        /* \"#utility.yul\":5091:5146   */\n      swap3\n      pop\n        /* \"#utility.yul\":5195:5197   */\n      0x40\n        /* \"#utility.yul\":5187:5193   */\n      dup7\n        /* \"#utility.yul\":5183:5198   */\n      add\n        /* \"#utility.yul\":5177:5199   */\n      mload\n        /* \"#utility.yul\":5155:5199   */\n      swap2\n      pop\n        /* \"#utility.yul\":5263:5265   */\n      dup1\n        /* \"#utility.yul\":5251:5260   */\n      dup6\n        /* \"#utility.yul\":5243:5249   */\n      dup5\n        /* \"#utility.yul\":5239:5261   */\n      sub\n        /* \"#utility.yul\":5235:5266   */\n      add\n        /* \"#utility.yul\":5230:5232   */\n      0x60\n        /* \"#utility.yul\":5219:5228   */\n      dup7\n        /* \"#utility.yul\":5215:5233   */\n      add\n        /* \"#utility.yul\":5208:5267   */\n      mstore\n      pop\n        /* \"#utility.yul\":5290:5331   */\n      tag_220\n        /* \"#utility.yul\":5324:5330   */\n      dup3\n        /* \"#utility.yul\":5308:5322   */\n      dup3\n        /* \"#utility.yul\":5290:5331   */\n      tag_167\n      jump\t// in\n    tag_220:\n        /* \"#utility.yul\":5391:5393   */\n      0x60\n        /* \"#utility.yul\":5379:5394   */\n      swap6\n      swap1\n      swap6\n      add\n        /* \"#utility.yul\":5373:5395   */\n      mload\n      sub(shl(0xa0, 0x01), 0x01)\n        /* \"#utility.yul\":5369:5417   */\n      and\n        /* \"#utility.yul\":5362:5366   */\n      0x80\n        /* \"#utility.yul\":5347:5367   */\n      swap5\n      swap1\n      swap5\n      add\n        /* \"#utility.yul\":5340:5418   */\n      swap4\n      swap1\n      swap4\n      mstore\n      pop\n        /* \"#utility.yul\":5276:5331   */\n      swap2\n      swap3\n        /* \"#utility.yul\":4567:5447   */\n      swap2\n      pop\n      pop\n      jump\t// out\n        /* \"#utility.yul\":6256:7401   */\n    tag_65:\n        /* \"#utility.yul\":6422:6426   */\n      0x00\n        /* \"#utility.yul\":6451:6453   */\n      0x20\n        /* \"#utility.yul\":6480:6482   */\n      dup1\n        /* \"#utility.yul\":6469:6478   */\n      dup4\n        /* \"#utility.yul\":6462:6483   */\n      mstore\n        /* \"#utility.yul\":6519:6520   */\n      0x01\n        /* \"#utility.yul\":6515:6516   */\n      dup1\n        /* \"#utility.yul\":6510:6513   */\n      0xa0\n        /* \"#utility.yul\":6506:6517   */\n      shl\n        /* \"#utility.yul\":6502:6521   */\n      sub\n        /* \"#utility.yul\":6576:6578   */\n      dup1\n        /* \"#utility.yul\":6567:6573   */\n      dup6\n        /* \"#utility.yul\":6561:6574   */\n      mload\n        /* \"#utility.yul\":6557:6579   */\n      and\n        /* \"#utility.yul\":6552:6554   */\n      dup3\n        /* \"#utility.yul\":6541:6550   */\n      dup6\n        /* \"#utility.yul\":6537:6555   */\n      add\n        /* \"#utility.yul\":6530:6580   */\n      mstore\n        /* \"#utility.yul\":6627:6629   */\n      dup2\n        /* \"#utility.yul\":6619:6625   */\n      dup6\n        /* \"#utility.yul\":6615:6630   */\n      add\n        /* \"#utility.yul\":6609:6631   */\n      mload\n        /* \"#utility.yul\":6667:6671   */\n      0x80\n        /* \"#utility.yul\":6662:6664   */\n      0x40\n        /* \"#utility.yul\":6651:6660   */\n      dup7\n        /* \"#utility.yul\":6647:6665   */\n      add\n        /* \"#utility.yul\":6640:6672   */\n      mstore\n        /* \"#utility.yul\":6695:6747   */\n      tag_224\n        /* \"#utility.yul\":6742:6745   */\n      0xa0\n        /* \"#utility.yul\":6731:6740   */\n      dup7\n        /* \"#utility.yul\":6727:6746   */\n      add\n        /* \"#utility.yul\":6713:6725   */\n      dup3\n        /* \"#utility.yul\":6695:6747   */\n      tag_167\n      jump\t// in\n    tag_224:\n        /* \"#utility.yul\":6796:6798   */\n      0x40\n        /* \"#utility.yul\":6784:6799   */\n      dup8\n      add\n        /* \"#utility.yul\":6778:6800   */\n      mload\n        /* \"#utility.yul\":6840:6862   */\n      dup7\n      dup3\n      sub\n      not(0x1f)\n        /* \"#utility.yul\":6836:6872   */\n      add\n        /* \"#utility.yul\":6831:6833   */\n      0x60\n        /* \"#utility.yul\":6816:6834   */\n      dup9\n      add\n        /* \"#utility.yul\":6809:6873   */\n      mstore\n        /* \"#utility.yul\":6922:6943   */\n      dup1\n      mload\n        /* \"#utility.yul\":6952:6974   */\n      dup1\n      dup4\n      mstore\n        /* \"#utility.yul\":7028:7051   */\n      swap1\n      dup6\n      add\n      swap3\n      pop\n        /* \"#utility.yul\":7069:7070   */\n      0x00\n      swap2\n        /* \"#utility.yul\":6990:7005   */\n      dup6\n      add\n      swap1\n        /* \"#utility.yul\":7079:7257   */\n    tag_225:\n        /* \"#utility.yul\":7093:7099   */\n      dup1\n        /* \"#utility.yul\":7090:7091   */\n      dup4\n        /* \"#utility.yul\":7087:7100   */\n      lt\n        /* \"#utility.yul\":7079:7257   */\n      iszero\n      tag_227\n      jumpi\n        /* \"#utility.yul\":7158:7171   */\n      dup4\n      mload\n        /* \"#utility.yul\":7154:7176   */\n      dup6\n      and\n        /* \"#utility.yul\":7142:7177   */\n      dup3\n      mstore\n        /* \"#utility.yul\":7232:7247   */\n      swap3\n      dup6\n      add\n      swap3\n        /* \"#utility.yul\":7115:7116   */\n      0x01\n        /* \"#utility.yul\":7108:7117   */\n      swap3\n      swap1\n      swap3\n      add\n      swap2\n        /* \"#utility.yul\":7197:7209   */\n      swap1\n      dup6\n      add\n      swap1\n        /* \"#utility.yul\":7079:7257   */\n      jump(tag_225)\n    tag_227:\n      pop\n        /* \"#utility.yul\":7306:7308   */\n      0x60\n        /* \"#utility.yul\":7294:7309   */\n      dup9\n      add\n        /* \"#utility.yul\":7288:7310   */\n      mload\n      sub(shl(0xa0, 0x01), 0x01)\n        /* \"#utility.yul\":3888:3919   */\n      dup2\n      and\n        /* \"#utility.yul\":7369:7373   */\n      0x80\n        /* \"#utility.yul\":7354:7374   */\n      dup10\n      add\n        /* \"#utility.yul\":3876:3920   */\n      mstore\n        /* \"#utility.yul\":7288:7310   */\n      swap5\n      pop\n        /* \"#utility.yul\":7392:7395   */\n      swap8\n        /* \"#utility.yul\":6256:7401   */\n      swap7\n      pop\n      pop\n      pop\n      pop\n      pop\n      pop\n      pop\n      jump\t// out\n        /* \"#utility.yul\":7406:7590   */\n    tag_74:\n        /* \"#utility.yul\":7476:7482   */\n      0x00\n        /* \"#utility.yul\":7529:7531   */\n      0x20\n        /* \"#utility.yul\":7517:7526   */\n      dup3\n        /* \"#utility.yul\":7508:7515   */\n      dup5\n        /* \"#utility.yul\":7504:7527   */\n      sub\n        /* \"#utility.yul\":7500:7532   */\n      slt\n        /* \"#utility.yul\":7497:7549   */\n      iszero\n      tag_230\n      jumpi\n        /* \"#utility.yul\":7545:7546   */\n      0x00\n        /* \"#utility.yul\":7542:7543   */\n      dup1\n        /* \"#utility.yul\":7535:7547   */\n      revert\n        /* \"#utility.yul\":7497:7549   */\n    tag_230:\n      pop\n        /* \"#utility.yul\":7568:7584   */\n      mload\n      swap2\n        /* \"#utility.yul\":7406:7590   */\n      swap1\n      pop\n      jump\t// out\n        /* \"#utility.yul\":7874:8151   */\n    tag_81:\n        /* \"#utility.yul\":7941:7947   */\n      0x00\n        /* \"#utility.yul\":7994:7996   */\n      0x20\n        /* \"#utility.yul\":7982:7991   */\n      dup3\n        /* \"#utility.yul\":7973:7980   */\n      dup5\n        /* \"#utility.yul\":7969:7992   */\n      sub\n        /* \"#utility.yul\":7965:7997   */\n      slt\n        /* \"#utility.yul\":7962:8014   */\n      iszero\n      tag_233\n      jumpi\n        /* \"#utility.yul\":8010:8011   */\n      0x00\n        /* \"#utility.yul\":8007:8008   */\n      dup1\n        /* \"#utility.yul\":8000:8012   */\n      revert\n        /* \"#utility.yul\":7962:8014   */\n    tag_233:\n        /* \"#utility.yul\":8042:8051   */\n      dup2\n        /* \"#utility.yul\":8036:8052   */\n      mload\n        /* \"#utility.yul\":8095:8100   */\n      dup1\n        /* \"#utility.yul\":8088:8101   */\n      iszero\n        /* \"#utility.yul\":8081:8102   */\n      iszero\n        /* \"#utility.yul\":8074:8079   */\n      dup2\n        /* \"#utility.yul\":8071:8103   */\n      eq\n        /* \"#utility.yul\":8061:8121   */\n      tag_210\n      jumpi\n        /* \"#utility.yul\":8117:8118   */\n      0x00\n        /* \"#utility.yul\":8114:8115   */\n      dup1\n        /* \"#utility.yul\":8107:8119   */\n      revert\n        /* \"#utility.yul\":8156:8452   */\n    tag_94:\n        /* \"#utility.yul\":8339:8343   */\n      0xff\n        /* \"#utility.yul\":8331:8337   */\n      dup4\n        /* \"#utility.yul\":8327:8344   */\n      and\n        /* \"#utility.yul\":8316:8325   */\n      dup2\n        /* \"#utility.yul\":8309:8345   */\n      mstore\n        /* \"#utility.yul\":8381:8383   */\n      0x40\n        /* \"#utility.yul\":8376:8378   */\n      0x20\n        /* \"#utility.yul\":8365:8374   */\n      dup3\n        /* \"#utility.yul\":8361:8379   */\n      add\n        /* \"#utility.yul\":8354:8384   */\n      mstore\n        /* \"#utility.yul\":8290:8294   */\n      0x00\n        /* \"#utility.yul\":8401:8446   */\n      tag_236\n        /* \"#utility.yul\":8442:8444   */\n      0x40\n        /* \"#utility.yul\":8431:8440   */\n      dup4\n        /* \"#utility.yul\":8427:8445   */\n      add\n        /* \"#utility.yul\":8419:8425   */\n      dup5\n        /* \"#utility.yul\":8401:8446   */\n      tag_167\n      jump\t// in\n    tag_236:\n        /* \"#utility.yul\":8393:8446   */\n      swap5\n        /* \"#utility.yul\":8156:8452   */\n      swap4\n      pop\n      pop\n      pop\n      pop\n      jump\t// out\n        /* \"#utility.yul\":8873:10477   */\n    tag_128:\n        /* \"#utility.yul\":9051:9055   */\n      0x00\n        /* \"#utility.yul\":9080:9082   */\n      0x40\n        /* \"#utility.yul\":9121:9139   */\n      0xffffffffffffffff\n        /* \"#utility.yul\":9113:9119   */\n      dup6\n        /* \"#utility.yul\":9109:9140   */\n      and\n        /* \"#utility.yul\":9098:9107   */\n      dup4\n        /* \"#utility.yul\":9091:9141   */\n      mstore\n        /* \"#utility.yul\":9160:9162   */\n      0x20\n        /* \"#utility.yul\":9198:9200   */\n      0x40\n        /* \"#utility.yul\":9193:9195   */\n      dup2\n        /* \"#utility.yul\":9182:9191   */\n      dup6\n        /* \"#utility.yul\":9178:9196   */\n      add\n        /* \"#utility.yul\":9171:9201   */\n      mstore\n        /* \"#utility.yul\":9236:9242   */\n      dup5\n        /* \"#utility.yul\":9230:9243   */\n      mload\n        /* \"#utility.yul\":9279:9283   */\n      0xa0\n        /* \"#utility.yul\":9274:9276   */\n      0x40\n        /* \"#utility.yul\":9263:9272   */\n      dup7\n        /* \"#utility.yul\":9259:9277   */\n      add\n        /* \"#utility.yul\":9252:9284   */\n      mstore\n        /* \"#utility.yul\":9307:9359   */\n      tag_239\n        /* \"#utility.yul\":9354:9357   */\n      0xe0\n        /* \"#utility.yul\":9343:9352   */\n      dup7\n        /* \"#utility.yul\":9339:9358   */\n      add\n        /* \"#utility.yul\":9325:9337   */\n      dup3\n        /* \"#utility.yul\":9307:9359   */\n      tag_167\n      jump\t// in\n    tag_239:\n        /* \"#utility.yul\":9293:9359   */\n      swap1\n      pop\n        /* \"#utility.yul\":9408:9410   */\n      dup2\n        /* \"#utility.yul\":9400:9406   */\n      dup7\n        /* \"#utility.yul\":9396:9411   */\n      add\n        /* \"#utility.yul\":9390:9412   */\n      mload\n        /* \"#utility.yul\":9435:9437   */\n      0x3f\n        /* \"#utility.yul\":9431:9438   */\n      not\n        /* \"#utility.yul\":9502:9504   */\n      dup1\n        /* \"#utility.yul\":9490:9499   */\n      dup8\n        /* \"#utility.yul\":9482:9488   */\n      dup5\n        /* \"#utility.yul\":9478:9500   */\n      sub\n        /* \"#utility.yul\":9474:9505   */\n      add\n        /* \"#utility.yul\":9469:9471   */\n      0x60\n        /* \"#utility.yul\":9458:9467   */\n      dup9\n        /* \"#utility.yul\":9454:9472   */\n      add\n        /* \"#utility.yul\":9447:9506   */\n      mstore\n        /* \"#utility.yul\":9529:9570   */\n      tag_240\n        /* \"#utility.yul\":9563:9569   */\n      dup4\n        /* \"#utility.yul\":9547:9561   */\n      dup4\n        /* \"#utility.yul\":9529:9570   */\n      tag_167\n      jump\t// in\n    tag_240:\n        /* \"#utility.yul\":9619:9621   */\n      0x40\n        /* \"#utility.yul\":9607:9622   */\n      dup10\n      add\n        /* \"#utility.yul\":9601:9623   */\n      mload\n        /* \"#utility.yul\":9664:9686   */\n      dup9\n      dup3\n      sub\n        /* \"#utility.yul\":9660:9691   */\n      dup4\n      add\n        /* \"#utility.yul\":9654:9657   */\n      0x80\n        /* \"#utility.yul\":9639:9658   */\n      dup11\n      add\n        /* \"#utility.yul\":9632:9692   */\n      mstore\n        /* \"#utility.yul\":9741:9762   */\n      dup1\n      mload\n        /* \"#utility.yul\":9771:9793   */\n      dup1\n      dup4\n      mstore\n        /* \"#utility.yul\":9847:9870   */\n      swap1\n      dup7\n      add\n      swap5\n      pop\n        /* \"#utility.yul\":9888:9889   */\n      0x00\n      swap4\n      pop\n        /* \"#utility.yul\":9809:9824   */\n      swap1\n      dup6\n      add\n      swap1\n        /* \"#utility.yul\":9898:10178   */\n    tag_241:\n        /* \"#utility.yul\":9912:9918   */\n      dup1\n        /* \"#utility.yul\":9909:9910   */\n      dup5\n        /* \"#utility.yul\":9906:9919   */\n      lt\n        /* \"#utility.yul\":9898:10178   */\n      iszero\n      tag_243\n      jumpi\n        /* \"#utility.yul\":9971:9984   */\n      dup5\n      mload\n        /* \"#utility.yul\":10013:10022   */\n      dup1\n      mload\n      sub(shl(0xa0, 0x01), 0x01)\n        /* \"#utility.yul\":10009:10044   */\n      and\n        /* \"#utility.yul\":9997:10045   */\n      dup4\n      mstore\n        /* \"#utility.yul\":10085:10096   */\n      dup7\n      add\n        /* \"#utility.yul\":10079:10097   */\n      mload\n        /* \"#utility.yul\":10065:10077   */\n      dup7\n      dup4\n      add\n        /* \"#utility.yul\":10058:10098   */\n      mstore\n        /* \"#utility.yul\":10153:10168   */\n      swap4\n      dup6\n      add\n      swap4\n        /* \"#utility.yul\":10041:10042   */\n      0x01\n        /* \"#utility.yul\":9927:9936   */\n      swap4\n      swap1\n      swap4\n      add\n      swap3\n        /* \"#utility.yul\":10118:10130   */\n      swap1\n      dup7\n      add\n      swap1\n        /* \"#utility.yul\":9898:10178   */\n      jump(tag_241)\n    tag_243:\n      pop\n        /* \"#utility.yul\":10227:10229   */\n      0x60\n        /* \"#utility.yul\":10215:10230   */\n      dup10\n      add\n        /* \"#utility.yul\":10209:10231   */\n      mload\n      sub(shl(0xa0, 0x01), 0x01)\n        /* \"#utility.yul\":3888:3919   */\n      and\n        /* \"#utility.yul\":10290:10294   */\n      0xa0\n        /* \"#utility.yul\":10275:10295   */\n      dup10\n      add\n        /* \"#utility.yul\":3876:3920   */\n      mstore\n        /* \"#utility.yul\":10345:10348   */\n      0x80\n        /* \"#utility.yul\":10333:10349   */\n      dup10\n      add\n        /* \"#utility.yul\":10327:10350   */\n      mload\n        /* \"#utility.yul\":10391:10410   */\n      dup9\n      dup3\n      sub\n        /* \"#utility.yul\":10387:10415   */\n      dup4\n      add\n        /* \"#utility.yul\":10381:10384   */\n      0xc0\n        /* \"#utility.yul\":10366:10385   */\n      dup11\n      add\n        /* \"#utility.yul\":10359:10416   */\n      mstore\n        /* \"#utility.yul\":10327:10350   */\n      swap6\n      pop\n        /* \"#utility.yul\":10433:10471   */\n      tag_245\n        /* \"#utility.yul\":10395:10398   */\n      dup2\n        /* \"#utility.yul\":10327:10350   */\n      dup8\n        /* \"#utility.yul\":10433:10471   */\n      tag_167\n      jump\t// in\n    tag_245:\n        /* \"#utility.yul\":10425:10471   */\n      swap11\n        /* \"#utility.yul\":8873:10477   */\n      swap10\n      pop\n      pop\n      pop\n      pop\n      pop\n      pop\n      pop\n      pop\n      pop\n      pop\n      jump\t// out\n\n    auxdata: 0xa2646970667358221220663d0cf6be7254c009c7a0c0aa4d2184394724ed7afa0d9ce4c5a9e7902283ba64736f6c63430008160033\n}\n",
				"bytecode": {
					"linkReferences": {},
					"object": "608060405234801562000010575f80fd5b506040516200136f3803806200136f833981016040819052620000339162000267565b33805f81620000895760405162461bcd60e51b815260206004820152601860248201527f43616e6e6f7420736574206f776e657220746f207a65726f000000000000000060448201526064015b60405180910390fd5b5f80546001600160a01b0319166001600160a01b0384811691909117909155811615620000bb57620000bb816200012c565b5050600280546001600160a01b03199081166001600160a01b038881169190911790925560048054909116868316179055600580549185166001600160e01b031990921691909117600160a01b6001600160401b03851602179055506200012282620001d6565b50505050620002ce565b336001600160a01b03821603620001865760405162461bcd60e51b815260206004820152601760248201527f43616e6e6f74207472616e7366657220746f2073656c66000000000000000000604482015260640162000080565b600180546001600160a01b0319166001600160a01b038381169182179092555f8054604051929316917fed8889f560326eb138920d842192f0eb3dd22b4f139c87a2c57538e05bae12789190a350565b620001e0620001ee565b620001eb816200012c565b50565b5f546001600160a01b03163314620002495760405162461bcd60e51b815260206004820152601660248201527f4f6e6c792063616c6c61626c65206279206f776e657200000000000000000000604482015260640162000080565b565b80516001600160a01b038116811462000262575f80fd5b919050565b5f805f80608085870312156200027b575f80fd5b62000286856200024b565b935062000296602086016200024b565b9250620002a6604086016200024b565b60608601519092506001600160401b0381168114620002c3575f80fd5b939692955090935050565b61109380620002dc5f395ff3fe608060405260043610610071575f3560e01c8063858873ed1161004c578063858873ed146100ea57806389476069146101095780638da5cb5b14610128578063f2fde38b1461014e575f80fd5b80632859df381461007c5780634555cb0c146100b557806379ba5097146100d4575f80fd5b3661007857005b5f80fd5b348015610087575f80fd5b5061009b610096366004610c19565b61016d565b604080519283526020830191909152015b60405180910390f35b3480156100c0575f80fd5b5061009b6100cf366004610cb6565b6101d2565b3480156100df575f80fd5b506100e8610231565b005b3480156100f5575f80fd5b5061009b610104366004610cde565b6102df565b348015610114575f80fd5b506100e8610123366004610dbb565b61032d565b348015610133575f80fd5b505f546040516001600160a01b0390911681526020016100ac565b348015610159575f80fd5b506100e8610168366004610dbb565b610441565b5f805f6040518060800160405280878152602001868152602001858152602001336001600160a01b031681525090506101c55f826040516020016101b19190610e1e565b604051602081830303815290604052610455565b9250925050935093915050565b60408051606080820183526001600160a01b0380861680845260208085018781523386880190815287519283019390935251958101959095525116908301525f91829190610225906002906080016101b1565b92509250509250929050565b6001546001600160a01b031633146102895760405162461bcd60e51b815260206004820152601660248201527526bab9ba10313290383937b837b9b2b21037bbb732b960511b60448201526064015b60405180910390fd5b5f8054336001600160a01b0319808316821784556001805490911690556040516001600160a01b0390921692909183917f8be0079c531659141344cd1fd0a4f28419497f9722a3daafe3b4186f6b6457e091a350565b5f805f6040518060800160405280876001600160a01b03168152602001868152602001858152602001336001600160a01b031681525090506101c56001826040516020016101b19190610e97565b610335610a2f565b600480546040516370a0823160e01b815230928101929092525f916001600160a01b03909116906370a0823190602401602060405180830381865afa158015610380573d5f803e3d5ffd5b505050506040513d601f19601f820116820180604052508101906103a49190610f29565b9050805f036103c657604051630686827b60e51b815260040160405180910390fd5b6004805460405163a9059cbb60e01b81526001600160a01b03858116938201939093526024810184905291169063a9059cbb906044016020604051808303815f875af1158015610418573d5f803e3d5ffd5b505050506040513d601f19601f8201168201806040525081019061043c9190610f40565b505050565b610449610a2f565b61045281610a83565b50565b5f806104916040518060a001604052806060815260200160608152602001606081526020015f6001600160a01b03168152602001606081525090565b8460ff165f0361057a576040805160a081019091526005546001600160a01b031660c08201528060e08101604051602081830303815290604052815260200186866040516020016104e3929190610f5f565b60408051601f1981840301815291905281526020015f60405190808252806020026020018201604052801561053d57816020015b604080518082019091525f80825260208201528152602001906001900390816105175790505b5081526004546001600160a01b0316602080830191909152604080519182018152620f424082529091019061057190610b2b565b9052905061079a565b8460ff1660010361065b576040805160a081019091526005546001600160a01b031660c08201528060e08101604051602081830303815290604052815260200186866040516020016105cd929190610f5f565b60408051601f1981840301815291905281526020015f60405190808252806020026020018201604052801561062757816020015b604080518082019091525f80825260208201528152602001906001900390816106015790505b5081526004546001600160a01b031660208083019190915260408051918201815262061a8082529091019061057190610b2b565b8460ff1660020361073a576040805160a081019091526005546001600160a01b031660c08201528060e08101604051602081830303815290604052815260200186866040516020016106ae929190610f5f565b60408051601f1981840301815291905281526020015f60405190808252806020026020018201604052801561062757816020015b604080518082019091525f80825260208201528152602001906001900390816106e257505081526004546001600160a01b031660208083019190915260408051918201815262061a8082529091019061057190610b2b565b60405162461bcd60e51b815260206004820152602f60248201527f496e76616c69642066756e6374696f6e2073656c6563746f722e2052616e676560448201526e1034b9903132ba3bb2b2b71018169960891b6064820152608401610280565b6002546005546040516320487ded60e01b81526001600160a01b03909216916320487ded916107e091600160a01b90910467ffffffffffffffff16908590600401610f82565b602060405180830381865afa1580156107fb573d5f803e3d5ffd5b505050506040513d601f19601f8201168201806040525081019061081f9190610f29565b6004805460025460405163095ea7b360e01b81526001600160a01b039182169381019390935260248301849052929550919091169063095ea7b3906044016020604051808303815f875af1158015610879573d5f803e3d5ffd5b505050506040513d601f19601f8201168201806040525081019061089d9190610f40565b50600480546040516370a0823160e01b815230928101929092526001600160a01b0316906370a0823190602401602060405180830381865afa1580156108e5573d5f803e3d5ffd5b505050506040513d601f19601f820116820180604052508101906109099190610f29565b83111561099f57600480546040516370a0823160e01b815230928101929092526001600160a01b0316906370a0823190602401602060405180830381865afa158015610957573d5f803e3d5ffd5b505050506040513d601f19601f8201168201806040525081019061097b9190610f29565b604051634787a10360e11b8152600481019190915260248101849052604401610280565b6002546005546040516396f4e9f960e01b81526001600160a01b03909216916396f4e9f9916109e591600160a01b90910467ffffffffffffffff16908590600401610f82565b6020604051808303815f875af1158015610a01573d5f803e3d5ffd5b505050506040513d601f19601f82011682018060405250810190610a259190610f29565b9150509250929050565b5f546001600160a01b03163314610a815760405162461bcd60e51b815260206004820152601660248201527527b7363c9031b0b63630b1363290313c9037bbb732b960511b6044820152606401610280565b565b336001600160a01b03821603610adb5760405162461bcd60e51b815260206004820152601760248201527f43616e6e6f74207472616e7366657220746f2073656c660000000000000000006044820152606401610280565b600180546001600160a01b0319166001600160a01b038381169182179092555f8054604051929316917fed8889f560326eb138920d842192f0eb3dd22b4f139c87a2c57538e05bae12789190a350565b60408051915160248084019190915281518084039091018152604490920190526020810180516001600160e01b03166397a657c960e01b17905290565b634e487b7160e01b5f52604160045260245ffd5b604051601f8201601f1916810167ffffffffffffffff81118282101715610ba557610ba5610b68565b604052919050565b5f82601f830112610bbc575f80fd5b813567ffffffffffffffff811115610bd657610bd6610b68565b610be9601f8201601f1916602001610b7c565b818152846020838601011115610bfd575f80fd5b816020850160208301375f918101602001919091529392505050565b5f805f60608486031215610c2b575f80fd5b833567ffffffffffffffff80821115610c42575f80fd5b610c4e87838801610bad565b94506020860135915080821115610c63575f80fd5b610c6f87838801610bad565b93506040860135915080821115610c84575f80fd5b50610c9186828701610bad565b9150509250925092565b80356001600160a01b0381168114610cb1575f80fd5b919050565b5f8060408385031215610cc7575f80fd5b610cd083610c9b565b946020939093013593505050565b5f805f60608486031215610cf0575f80fd5b610cf984610c9b565b925060208085013567ffffffffffffffff80821115610d16575f80fd5b610d2288838901610bad565b94506040870135915080821115610d37575f80fd5b818701915087601f830112610d4a575f80fd5b813581811115610d5c57610d5c610b68565b8060051b9150610d6d848301610b7c565b818152918301840191848101908a841115610d86575f80fd5b938501935b83851015610dab57610d9c85610c9b565b82529385019390850190610d8b565b8096505050505050509250925092565b5f60208284031215610dcb575f80fd5b610dd482610c9b565b9392505050565b5f81518084525f5b81811015610dff57602081850181015186830182015201610de3565b505f602082860101526020601f19601f83011685010191505092915050565b602081525f825160806020840152610e3960a0840182610ddb565b90506020840151601f1980858403016040860152610e578383610ddb565b9250604086015191508085840301606086015250610e758282610ddb565b606095909501516001600160a01b031660809490940193909352509192915050565b5f602080835260018060a01b0380855116828501528185015160806040860152610ec460a0860182610ddb565b6040870151868203601f19016060880152805180835290850192505f918501905b80831015610f0757835185168252928501926001929092019190850190610ee5565b5060608801516001600160a01b03811660808901529450979650505050505050565b5f60208284031215610f39575f80fd5b5051919050565b5f60208284031215610f50575f80fd5b81518015158114610dd4575f80fd5b60ff83168152604060208201525f610f7a6040830184610ddb565b949350505050565b5f604067ffffffffffffffff851683526020604081850152845160a06040860152610fb060e0860182610ddb565b905081860151603f1980878403016060880152610fcd8383610ddb565b6040890151888203830160808a0152805180835290860194505f9350908501905b8084101561102057845180516001600160a01b0316835286015186830152938501936001939093019290860190610fee565b5060608901516001600160a01b031660a08901526080890151888203830160c08a0152955061104f8187610ddb565b9a995050505050505050505056fea2646970667358221220663d0cf6be7254c009c7a0c0aa4d2184394724ed7afa0d9ce4c5a9e7902283ba64736f6c63430008160033",
					"opcodes": "PUSH1 0x80 PUSH1 0x40 MSTORE CALLVALUE DUP1 ISZERO PUSH3 0x10 JUMPI PUSH0 DUP1 REVERT JUMPDEST POP PUSH1 0x40 MLOAD PUSH3 0x136F CODESIZE SUB DUP1 PUSH3 0x136F DUP4 CODECOPY DUP2 ADD PUSH1 0x40 DUP2 SWAP1 MSTORE PUSH3 0x33 SWAP2 PUSH3 0x267 JUMP JUMPDEST CALLER DUP1 PUSH0 DUP2 PUSH3 0x89 JUMPI PUSH1 0x40 MLOAD PUSH3 0x461BCD PUSH1 0xE5 SHL DUP2 MSTORE PUSH1 0x20 PUSH1 0x4 DUP3 ADD MSTORE PUSH1 0x18 PUSH1 0x24 DUP3 ADD MSTORE PUSH32 0x43616E6E6F7420736574206F776E657220746F207A65726F0000000000000000 PUSH1 0x44 DUP3 ADD MSTORE PUSH1 0x64 ADD JUMPDEST PUSH1 0x40 MLOAD DUP1 SWAP2 SUB SWAP1 REVERT JUMPDEST PUSH0 DUP1 SLOAD PUSH1 0x1 PUSH1 0x1 PUSH1 0xA0 SHL SUB NOT AND PUSH1 0x1 PUSH1 0x1 PUSH1 0xA0 SHL SUB DUP5 DUP2 AND SWAP2 SWAP1 SWAP2 OR SWAP1 SWAP2 SSTORE DUP2 AND ISZERO PUSH3 0xBB JUMPI PUSH3 0xBB DUP2 PUSH3 0x12C JUMP JUMPDEST POP POP PUSH1 0x2 DUP1 SLOAD PUSH1 0x1 PUSH1 0x1 PUSH1 0xA0 SHL SUB NOT SWAP1 DUP2 AND PUSH1 0x1 PUSH1 0x1 PUSH1 0xA0 SHL SUB DUP9 DUP2 AND SWAP2 SWAP1 SWAP2 OR SWAP1 SWAP3 SSTORE PUSH1 0x4 DUP1 SLOAD SWAP1 SWAP2 AND DUP7 DUP4 AND OR SWAP1 SSTORE PUSH1 0x5 DUP1 SLOAD SWAP2 DUP6 AND PUSH1 0x1 PUSH1 0x1 PUSH1 0xE0 SHL SUB NOT SWAP1 SWAP3 AND SWAP2 SWAP1 SWAP2 OR PUSH1 0x1 PUSH1 0xA0 SHL PUSH1 0x1 PUSH1 0x1 PUSH1 0x40 SHL SUB DUP6 AND MUL OR SWAP1 SSTORE POP PUSH3 0x122 DUP3 PUSH3 0x1D6 JUMP JUMPDEST POP POP POP POP PUSH3 0x2CE JUMP JUMPDEST CALLER PUSH1 0x1 PUSH1 0x1 PUSH1 0xA0 SHL SUB DUP3 AND SUB PUSH3 0x186 JUMPI PUSH1 0x40 MLOAD PUSH3 0x461BCD PUSH1 0xE5 SHL DUP2 MSTORE PUSH1 0x20 PUSH1 0x4 DUP3 ADD MSTORE PUSH1 0x17 PUSH1 0x24 DUP3 ADD MSTORE PUSH32 0x43616E6E6F74207472616E7366657220746F2073656C66000000000000000000 PUSH1 0x44 DUP3 ADD MSTORE PUSH1 0x64 ADD PUSH3 0x80 JUMP JUMPDEST PUSH1 0x1 DUP1 SLOAD PUSH1 0x1 PUSH1 0x1 PUSH1 0xA0 SHL SUB NOT AND PUSH1 0x1 PUSH1 0x1 PUSH1 0xA0 SHL SUB DUP4 DUP2 AND SWAP2 DUP3 OR SWAP1 SWAP3 SSTORE PUSH0 DUP1 SLOAD PUSH1 0x40 MLOAD SWAP3 SWAP4 AND SWAP2 PUSH32 0xED8889F560326EB138920D842192F0EB3DD22B4F139C87A2C57538E05BAE1278 SWAP2 SWAP1 LOG3 POP JUMP JUMPDEST PUSH3 0x1E0 PUSH3 0x1EE JUMP JUMPDEST PUSH3 0x1EB DUP2 PUSH3 0x12C JUMP JUMPDEST POP JUMP JUMPDEST PUSH0 SLOAD PUSH1 0x1 PUSH1 0x1 PUSH1 0xA0 SHL SUB AND CALLER EQ PUSH3 0x249 JUMPI PUSH1 0x40 MLOAD PUSH3 0x461BCD PUSH1 0xE5 SHL DUP2 MSTORE PUSH1 0x20 PUSH1 0x4 DUP3 ADD MSTORE PUSH1 0x16 PUSH1 0x24 DUP3 ADD MSTORE PUSH32 0x4F6E6C792063616C6C61626C65206279206F776E657200000000000000000000 PUSH1 0x44 DUP3 ADD MSTORE PUSH1 0x64 ADD PUSH3 0x80 JUMP JUMPDEST JUMP JUMPDEST DUP1 MLOAD PUSH1 0x1 PUSH1 0x1 PUSH1 0xA0 SHL SUB DUP2 AND DUP2 EQ PUSH3 0x262 JUMPI PUSH0 DUP1 REVERT JUMPDEST SWAP2 SWAP1 POP JUMP JUMPDEST PUSH0 DUP1 PUSH0 DUP1 PUSH1 0x80 DUP6 DUP8 SUB SLT ISZERO PUSH3 0x27B JUMPI PUSH0 DUP1 REVERT JUMPDEST PUSH3 0x286 DUP6 PUSH3 0x24B JUMP JUMPDEST SWAP4 POP PUSH3 0x296 PUSH1 0x20 DUP7 ADD PUSH3 0x24B JUMP JUMPDEST SWAP3 POP PUSH3 0x2A6 PUSH1 0x40 DUP7 ADD PUSH3 0x24B JUMP JUMPDEST PUSH1 0x60 DUP7 ADD MLOAD SWAP1 SWAP3 POP PUSH1 0x1 PUSH1 0x1 PUSH1 0x40 SHL SUB DUP2 AND DUP2 EQ PUSH3 0x2C3 JUMPI PUSH0 DUP1 REVERT JUMPDEST SWAP4 SWAP7 SWAP3 SWAP6 POP SWAP1 SWAP4 POP POP JUMP JUMPDEST PUSH2 0x1093 DUP1 PUSH3 0x2DC PUSH0 CODECOPY PUSH0 RETURN INVALID PUSH1 0x80 PUSH1 0x40 MSTORE PUSH1 0x4 CALLDATASIZE LT PUSH2 0x71 JUMPI PUSH0 CALLDATALOAD PUSH1 0xE0 SHR DUP1 PUSH4 0x858873ED GT PUSH2 0x4C JUMPI DUP1 PUSH4 0x858873ED EQ PUSH2 0xEA JUMPI DUP1 PUSH4 0x89476069 EQ PUSH2 0x109 JUMPI DUP1 PUSH4 0x8DA5CB5B EQ PUSH2 0x128 JUMPI DUP1 PUSH4 0xF2FDE38B EQ PUSH2 0x14E JUMPI PUSH0 DUP1 REVERT JUMPDEST DUP1 PUSH4 0x2859DF38 EQ PUSH2 0x7C JUMPI DUP1 PUSH4 0x4555CB0C EQ PUSH2 0xB5 JUMPI DUP1 PUSH4 0x79BA5097 EQ PUSH2 0xD4 JUMPI PUSH0 DUP1 REVERT JUMPDEST CALLDATASIZE PUSH2 0x78 JUMPI STOP JUMPDEST PUSH0 DUP1 REVERT JUMPDEST CALLVALUE DUP1 ISZERO PUSH2 0x87 JUMPI PUSH0 DUP1 REVERT JUMPDEST POP PUSH2 0x9B PUSH2 0x96 CALLDATASIZE PUSH1 0x4 PUSH2 0xC19 JUMP JUMPDEST PUSH2 0x16D JUMP JUMPDEST PUSH1 0x40 DUP1 MLOAD SWAP3 DUP4 MSTORE PUSH1 0x20 DUP4 ADD SWAP2 SWAP1 SWAP2 MSTORE ADD JUMPDEST PUSH1 0x40 MLOAD DUP1 SWAP2 SUB SWAP1 RETURN JUMPDEST CALLVALUE DUP1 ISZERO PUSH2 0xC0 JUMPI PUSH0 DUP1 REVERT JUMPDEST POP PUSH2 0x9B PUSH2 0xCF CALLDATASIZE PUSH1 0x4 PUSH2 0xCB6 JUMP JUMPDEST PUSH2 0x1D2 JUMP JUMPDEST CALLVALUE DUP1 ISZERO PUSH2 0xDF JUMPI PUSH0 DUP1 REVERT JUMPDEST POP PUSH2 0xE8 PUSH2 0x231 JUMP JUMPDEST STOP JUMPDEST CALLVALUE DUP1 ISZERO PUSH2 0xF5 JUMPI PUSH0 DUP1 REVERT JUMPDEST POP PUSH2 0x9B PUSH2 0x104 CALLDATASIZE PUSH1 0x4 PUSH2 0xCDE JUMP JUMPDEST PUSH2 0x2DF JUMP JUMPDEST CALLVALUE DUP1 ISZERO PUSH2 0x114 JUMPI PUSH0 DUP1 REVERT JUMPDEST POP PUSH2 0xE8 PUSH2 0x123 CALLDATASIZE PUSH1 0x4 PUSH2 0xDBB JUMP JUMPDEST PUSH2 0x32D JUMP JUMPDEST CALLVALUE DUP1 ISZERO PUSH2 0x133 JUMPI PUSH0 DUP1 REVERT JUMPDEST POP PUSH0 SLOAD PUSH1 0x40 MLOAD PUSH1 0x1 PUSH1 0x1 PUSH1 0xA0 SHL SUB SWAP1 SWAP2 AND DUP2 MSTORE PUSH1 0x20 ADD PUSH2 0xAC JUMP JUMPDEST CALLVALUE DUP1 ISZERO PUSH2 0x159 JUMPI PUSH0 DUP1 REVERT JUMPDEST POP PUSH2 0xE8 PUSH2 0x168 CALLDATASIZE PUSH1 0x4 PUSH2 0xDBB JUMP JUMPDEST PUSH2 0x441 JUMP JUMPDEST PUSH0 DUP1 PUSH0 PUSH1 0x40 MLOAD DUP1 PUSH1 0x80 ADD PUSH1 0x40 MSTORE DUP1 DUP8 DUP2 MSTORE PUSH1 0x20 ADD DUP7 DUP2 MSTORE PUSH1 0x20 ADD DUP6 DUP2 MSTORE PUSH1 0x20 ADD CALLER PUSH1 0x1 PUSH1 0x1 PUSH1 0xA0 SHL SUB AND DUP2 MSTORE POP SWAP1 POP PUSH2 0x1C5 PUSH0 DUP3 PUSH1 0x40 MLOAD PUSH1 0x20 ADD PUSH2 0x1B1 SWAP2 SWAP1 PUSH2 0xE1E JUMP JUMPDEST PUSH1 0x40 MLOAD PUSH1 0x20 DUP2 DUP4 SUB SUB DUP2 MSTORE SWAP1 PUSH1 0x40 MSTORE PUSH2 0x455 JUMP JUMPDEST SWAP3 POP SWAP3 POP POP SWAP4 POP SWAP4 SWAP2 POP POP JUMP JUMPDEST PUSH1 0x40 DUP1 MLOAD PUSH1 0x60 DUP1 DUP3 ADD DUP4 MSTORE PUSH1 0x1 PUSH1 0x1 PUSH1 0xA0 SHL SUB DUP1 DUP7 AND DUP1 DUP5 MSTORE PUSH1 0x20 DUP1 DUP6 ADD DUP8 DUP2 MSTORE CALLER DUP7 DUP9 ADD SWAP1 DUP2 MSTORE DUP8 MLOAD SWAP3 DUP4 ADD SWAP4 SWAP1 SWAP4 MSTORE MLOAD SWAP6 DUP2 ADD SWAP6 SWAP1 SWAP6 MSTORE MLOAD AND SWAP1 DUP4 ADD MSTORE PUSH0 SWAP2 DUP3 SWAP2 SWAP1 PUSH2 0x225 SWAP1 PUSH1 0x2 SWAP1 PUSH1 0x80 ADD PUSH2 0x1B1 JUMP JUMPDEST SWAP3 POP SWAP3 POP POP SWAP3 POP SWAP3 SWAP1 POP JUMP JUMPDEST PUSH1 0x1 SLOAD PUSH1 0x1 PUSH1 0x1 PUSH1 0xA0 SHL SUB AND CALLER EQ PUSH2 0x289 JUMPI PUSH1 0x40 MLOAD PUSH3 0x461BCD PUSH1 0xE5 SHL DUP2 MSTORE PUSH1 0x20 PUSH1 0x4 DUP3 ADD MSTORE PUSH1 0x16 PUSH1 0x24 DUP3 ADD MSTORE PUSH22 0x26BAB9BA10313290383937B837B9B2B21037BBB732B9 PUSH1 0x51 SHL PUSH1 0x44 DUP3 ADD MSTORE PUSH1 0x64 ADD JUMPDEST PUSH1 0x40 MLOAD DUP1 SWAP2 SUB SWAP1 REVERT JUMPDEST PUSH0 DUP1 SLOAD CALLER PUSH1 0x1 PUSH1 0x1 PUSH1 0xA0 SHL SUB NOT DUP1 DUP4 AND DUP3 OR DUP5 SSTORE PUSH1 0x1 DUP1 SLOAD SWAP1 SWAP2 AND SWAP1 SSTORE PUSH1 0x40 MLOAD PUSH1 0x1 PUSH1 0x1 PUSH1 0xA0 SHL SUB SWAP1 SWAP3 AND SWAP3 SWAP1 SWAP2 DUP4 SWAP2 PUSH32 0x8BE0079C531659141344CD1FD0A4F28419497F9722A3DAAFE3B4186F6B6457E0 SWAP2 LOG3 POP JUMP JUMPDEST PUSH0 DUP1 PUSH0 PUSH1 0x40 MLOAD DUP1 PUSH1 0x80 ADD PUSH1 0x40 MSTORE DUP1 DUP8 PUSH1 0x1 PUSH1 0x1 PUSH1 0xA0 SHL SUB AND DUP2 MSTORE PUSH1 0x20 ADD DUP7 DUP2 MSTORE PUSH1 0x20 ADD DUP6 DUP2 MSTORE PUSH1 0x20 ADD CALLER PUSH1 0x1 PUSH1 0x1 PUSH1 0xA0 SHL SUB AND DUP2 MSTORE POP SWAP1 POP PUSH2 0x1C5 PUSH1 0x1 DUP3 PUSH1 0x40 MLOAD PUSH1 0x20 ADD PUSH2 0x1B1 SWAP2 SWAP1 PUSH2 0xE97 JUMP JUMPDEST PUSH2 0x335 PUSH2 0xA2F JUMP JUMPDEST PUSH1 0x4 DUP1 SLOAD PUSH1 0x40 MLOAD PUSH4 0x70A08231 PUSH1 0xE0 SHL DUP2 MSTORE ADDRESS SWAP3 DUP2 ADD SWAP3 SWAP1 SWAP3 MSTORE PUSH0 SWAP2 PUSH1 0x1 PUSH1 0x1 PUSH1 0xA0 SHL SUB SWAP1 SWAP2 AND SWAP1 PUSH4 0x70A08231 SWAP1 PUSH1 0x24 ADD PUSH1 0x20 PUSH1 0x40 MLOAD DUP1 DUP4 SUB DUP2 DUP7 GAS STATICCALL ISZERO DUP1 ISZERO PUSH2 0x380 JUMPI RETURNDATASIZE PUSH0 DUP1 RETURNDATACOPY RETURNDATASIZE PUSH0 REVERT JUMPDEST POP POP POP POP PUSH1 0x40 MLOAD RETURNDATASIZE PUSH1 0x1F NOT PUSH1 0x1F DUP3 ADD AND DUP3 ADD DUP1 PUSH1 0x40 MSTORE POP DUP2 ADD SWAP1 PUSH2 0x3A4 SWAP2 SWAP1 PUSH2 0xF29 JUMP JUMPDEST SWAP1 POP DUP1 PUSH0 SUB PUSH2 0x3C6 JUMPI PUSH1 0x40 MLOAD PUSH4 0x686827B PUSH1 0xE5 SHL DUP2 MSTORE PUSH1 0x4 ADD PUSH1 0x40 MLOAD DUP1 SWAP2 SUB SWAP1 REVERT JUMPDEST PUSH1 0x4 DUP1 SLOAD PUSH1 0x40 MLOAD PUSH4 0xA9059CBB PUSH1 0xE0 SHL DUP2 MSTORE PUSH1 0x1 PUSH1 0x1 PUSH1 0xA0 SHL SUB DUP6 DUP2 AND SWAP4 DUP3 ADD SWAP4 SWAP1 SWAP4 MSTORE PUSH1 0x24 DUP2 ADD DUP5 SWAP1 MSTORE SWAP2 AND SWAP1 PUSH4 0xA9059CBB SWAP1 PUSH1 0x44 ADD PUSH1 0x20 PUSH1 0x40 MLOAD DUP1 DUP4 SUB DUP2 PUSH0 DUP8 GAS CALL ISZERO DUP1 ISZERO PUSH2 0x418 JUMPI RETURNDATASIZE PUSH0 DUP1 RETURNDATACOPY RETURNDATASIZE PUSH0 REVERT JUMPDEST POP POP POP POP PUSH1 0x40 MLOAD RETURNDATASIZE PUSH1 0x1F NOT PUSH1 0x1F DUP3 ADD AND DUP3 ADD DUP1 PUSH1 0x40 MSTORE POP DUP2 ADD SWAP1 PUSH2 0x43C SWAP2 SWAP1 PUSH2 0xF40 JUMP JUMPDEST POP POP POP JUMP JUMPDEST PUSH2 0x449 PUSH2 0xA2F JUMP JUMPDEST PUSH2 0x452 DUP2 PUSH2 0xA83 JUMP JUMPDEST POP JUMP JUMPDEST PUSH0 DUP1 PUSH2 0x491 PUSH1 0x40 MLOAD DUP1 PUSH1 0xA0 ADD PUSH1 0x40 MSTORE DUP1 PUSH1 0x60 DUP2 MSTORE PUSH1 0x20 ADD PUSH1 0x60 DUP2 MSTORE PUSH1 0x20 ADD PUSH1 0x60 DUP2 MSTORE PUSH1 0x20 ADD PUSH0 PUSH1 0x1 PUSH1 0x1 PUSH1 0xA0 SHL SUB AND DUP2 MSTORE PUSH1 0x20 ADD PUSH1 0x60 DUP2 MSTORE POP SWAP1 JUMP JUMPDEST DUP5 PUSH1 0xFF AND PUSH0 SUB PUSH2 0x57A JUMPI PUSH1 0x40 DUP1 MLOAD PUSH1 0xA0 DUP2 ADD SWAP1 SWAP2 MSTORE PUSH1 0x5 SLOAD PUSH1 0x1 PUSH1 0x1 PUSH1 0xA0 SHL SUB AND PUSH1 0xC0 DUP3 ADD MSTORE DUP1 PUSH1 0xE0 DUP2 ADD PUSH1 0x40 MLOAD PUSH1 0x20 DUP2 DUP4 SUB SUB DUP2 MSTORE SWAP1 PUSH1 0x40 MSTORE DUP2 MSTORE PUSH1 0x20 ADD DUP7 DUP7 PUSH1 0x40 MLOAD PUSH1 0x20 ADD PUSH2 0x4E3 SWAP3 SWAP2 SWAP1 PUSH2 0xF5F JUMP JUMPDEST PUSH1 0x40 DUP1 MLOAD PUSH1 0x1F NOT DUP2 DUP5 SUB ADD DUP2 MSTORE SWAP2 SWAP1 MSTORE DUP2 MSTORE PUSH1 0x20 ADD PUSH0 PUSH1 0x40 MLOAD SWAP1 DUP1 DUP3 MSTORE DUP1 PUSH1 0x20 MUL PUSH1 0x20 ADD DUP3 ADD PUSH1 0x40 MSTORE DUP1 ISZERO PUSH2 0x53D JUMPI DUP2 PUSH1 0x20 ADD JUMPDEST PUSH1 0x40 DUP1 MLOAD DUP1 DUP3 ADD SWAP1 SWAP2 MSTORE PUSH0 DUP1 DUP3 MSTORE PUSH1 0x20 DUP3 ADD MSTORE DUP2 MSTORE PUSH1 0x20 ADD SWAP1 PUSH1 0x1 SWAP1 SUB SWAP1 DUP2 PUSH2 0x517 JUMPI SWAP1 POP JUMPDEST POP DUP2 MSTORE PUSH1 0x4 SLOAD PUSH1 0x1 PUSH1 0x1 PUSH1 0xA0 SHL SUB AND PUSH1 0x20 DUP1 DUP4 ADD SWAP2 SWAP1 SWAP2 MSTORE PUSH1 0x40 DUP1 MLOAD SWAP2 DUP3 ADD DUP2 MSTORE PUSH3 0xF4240 DUP3 MSTORE SWAP1 SWAP2 ADD SWAP1 PUSH2 0x571 SWAP1 PUSH2 0xB2B JUMP JUMPDEST SWAP1 MSTORE SWAP1 POP PUSH2 0x79A JUMP JUMPDEST DUP5 PUSH1 0xFF AND PUSH1 0x1 SUB PUSH2 0x65B JUMPI PUSH1 0x40 DUP1 MLOAD PUSH1 0xA0 DUP2 ADD SWAP1 SWAP2 MSTORE PUSH1 0x5 SLOAD PUSH1 0x1 PUSH1 0x1 PUSH1 0xA0 SHL SUB AND PUSH1 0xC0 DUP3 ADD MSTORE DUP1 PUSH1 0xE0 DUP2 ADD PUSH1 0x40 MLOAD PUSH1 0x20 DUP2 DUP4 SUB SUB DUP2 MSTORE SWAP1 PUSH1 0x40 MSTORE DUP2 MSTORE PUSH1 0x20 ADD DUP7 DUP7 PUSH1 0x40 MLOAD PUSH1 0x20 ADD PUSH2 0x5CD SWAP3 SWAP2 SWAP1 PUSH2 0xF5F JUMP JUMPDEST PUSH1 0x40 DUP1 MLOAD PUSH1 0x1F NOT DUP2 DUP5 SUB ADD DUP2 MSTORE SWAP2 SWAP1 MSTORE DUP2 MSTORE PUSH1 0x20 ADD PUSH0 PUSH1 0x40 MLOAD SWAP1 DUP1 DUP3 MSTORE DUP1 PUSH1 0x20 MUL PUSH1 0x20 ADD DUP3 ADD PUSH1 0x40 MSTORE DUP1 ISZERO PUSH2 0x627 JUMPI DUP2 PUSH1 0x20 ADD JUMPDEST PUSH1 0x40 DUP1 MLOAD DUP1 DUP3 ADD SWAP1 SWAP2 MSTORE PUSH0 DUP1 DUP3 MSTORE PUSH1 0x20 DUP3 ADD MSTORE DUP2 MSTORE PUSH1 0x20 ADD SWAP1 PUSH1 0x1 SWAP1 SUB SWAP1 DUP2 PUSH2 0x601 JUMPI SWAP1 POP JUMPDEST POP DUP2 MSTORE PUSH1 0x4 SLOAD PUSH1 0x1 PUSH1 0x1 PUSH1 0xA0 SHL SUB AND PUSH1 0x20 DUP1 DUP4 ADD SWAP2 SWAP1 SWAP2 MSTORE PUSH1 0x40 DUP1 MLOAD SWAP2 DUP3 ADD DUP2 MSTORE PUSH3 0x61A80 DUP3 MSTORE SWAP1 SWAP2 ADD SWAP1 PUSH2 0x571 SWAP1 PUSH2 0xB2B JUMP JUMPDEST DUP5 PUSH1 0xFF AND PUSH1 0x2 SUB PUSH2 0x73A JUMPI PUSH1 0x40 DUP1 MLOAD PUSH1 0xA0 DUP2 ADD SWAP1 SWAP2 MSTORE PUSH1 0x5 SLOAD PUSH1 0x1 PUSH1 0x1 PUSH1 0xA0 SHL SUB AND PUSH1 0xC0 DUP3 ADD MSTORE DUP1 PUSH1 0xE0 DUP2 ADD PUSH1 0x40 MLOAD PUSH1 0x20 DUP2 DUP4 SUB SUB DUP2 MSTORE SWAP1 PUSH1 0x40 MSTORE DUP2 MSTORE PUSH1 0x20 ADD DUP7 DUP7 PUSH1 0x40 MLOAD PUSH1 0x20 ADD PUSH2 0x6AE SWAP3 SWAP2 SWAP1 PUSH2 0xF5F JUMP JUMPDEST PUSH1 0x40 DUP1 MLOAD PUSH1 0x1F NOT DUP2 DUP5 SUB ADD DUP2 MSTORE SWAP2 SWAP1 MSTORE DUP2 MSTORE PUSH1 0x20 ADD PUSH0 PUSH1 0x40 MLOAD SWAP1 DUP1 DUP3 MSTORE DUP1 PUSH1 0x20 MUL PUSH1 0x20 ADD DUP3 ADD PUSH1 0x40 MSTORE DUP1 ISZERO PUSH2 0x627 JUMPI DUP2 PUSH1 0x20 ADD JUMPDEST PUSH1 0x40 DUP1 MLOAD DUP1 DUP3 ADD SWAP1 SWAP2 MSTORE PUSH0 DUP1 DUP3 MSTORE PUSH1 0x20 DUP3 ADD MSTORE DUP2 MSTORE PUSH1 0x20 ADD SWAP1 PUSH1 0x1 SWAP1 SUB SWAP1 DUP2 PUSH2 0x6E2 JUMPI POP POP DUP2 MSTORE PUSH1 0x4 SLOAD PUSH1 0x1 PUSH1 0x1 PUSH1 0xA0 SHL SUB AND PUSH1 0x20 DUP1 DUP4 ADD SWAP2 SWAP1 SWAP2 MSTORE PUSH1 0x40 DUP1 MLOAD SWAP2 DUP3 ADD DUP2 MSTORE PUSH3 0x61A80 DUP3 MSTORE SWAP1 SWAP2 ADD SWAP1 PUSH2 0x571 SWAP1 PUSH2 0xB2B JUMP JUMPDEST PUSH1 0x40 MLOAD PUSH3 0x461BCD PUSH1 0xE5 SHL DUP2 MSTORE PUSH1 0x20 PUSH1 0x4 DUP3 ADD MSTORE PUSH1 0x2F PUSH1 0x24 DUP3 ADD MSTORE PUSH32 0x496E76616C69642066756E6374696F6E2073656C6563746F722E2052616E6765 PUSH1 0x44 DUP3 ADD MSTORE PUSH15 0x1034B9903132BA3BB2B2B710181699 PUSH1 0x89 SHL PUSH1 0x64 DUP3 ADD MSTORE PUSH1 0x84 ADD PUSH2 0x280 JUMP JUMPDEST PUSH1 0x2 SLOAD PUSH1 0x5 SLOAD PUSH1 0x40 MLOAD PUSH4 0x20487DED PUSH1 0xE0 SHL DUP2 MSTORE PUSH1 0x1 PUSH1 0x1 PUSH1 0xA0 SHL SUB SWAP1 SWAP3 AND SWAP2 PUSH4 0x20487DED SWAP2 PUSH2 0x7E0 SWAP2 PUSH1 0x1 PUSH1 0xA0 SHL SWAP1 SWAP2 DIV PUSH8 0xFFFFFFFFFFFFFFFF AND SWAP1 DUP6 SWAP1 PUSH1 0x4 ADD PUSH2 0xF82 JUMP JUMPDEST PUSH1 0x20 PUSH1 0x40 MLOAD DUP1 DUP4 SUB DUP2 DUP7 GAS STATICCALL ISZERO DUP1 ISZERO PUSH2 0x7FB JUMPI RETURNDATASIZE PUSH0 DUP1 RETURNDATACOPY RETURNDATASIZE PUSH0 REVERT JUMPDEST POP POP POP POP PUSH1 0x40 MLOAD RETURNDATASIZE PUSH1 0x1F NOT PUSH1 0x1F DUP3 ADD AND DUP3 ADD DUP1 PUSH1 0x40 MSTORE POP DUP2 ADD SWAP1 PUSH2 0x81F SWAP2 SWAP1 PUSH2 0xF29 JUMP JUMPDEST PUSH1 0x4 DUP1 SLOAD PUSH1 0x2 SLOAD PUSH1 0x40 MLOAD PUSH4 0x95EA7B3 PUSH1 0xE0 SHL DUP2 MSTORE PUSH1 0x1 PUSH1 0x1 PUSH1 0xA0 SHL SUB SWAP2 DUP3 AND SWAP4 DUP2 ADD SWAP4 SWAP1 SWAP4 MSTORE PUSH1 0x24 DUP4 ADD DUP5 SWAP1 MSTORE SWAP3 SWAP6 POP SWAP2 SWAP1 SWAP2 AND SWAP1 PUSH4 0x95EA7B3 SWAP1 PUSH1 0x44 ADD PUSH1 0x20 PUSH1 0x40 MLOAD DUP1 DUP4 SUB DUP2 PUSH0 DUP8 GAS CALL ISZERO DUP1 ISZERO PUSH2 0x879 JUMPI RETURNDATASIZE PUSH0 DUP1 RETURNDATACOPY RETURNDATASIZE PUSH0 REVERT JUMPDEST POP POP POP POP PUSH1 0x40 MLOAD RETURNDATASIZE PUSH1 0x1F NOT PUSH1 0x1F DUP3 ADD AND DUP3 ADD DUP1 PUSH1 0x40 MSTORE POP DUP2 ADD SWAP1 PUSH2 0x89D SWAP2 SWAP1 PUSH2 0xF40 JUMP JUMPDEST POP PUSH1 0x4 DUP1 SLOAD PUSH1 0x40 MLOAD PUSH4 0x70A08231 PUSH1 0xE0 SHL DUP2 MSTORE ADDRESS SWAP3 DUP2 ADD SWAP3 SWAP1 SWAP3 MSTORE PUSH1 0x1 PUSH1 0x1 PUSH1 0xA0 SHL SUB AND SWAP1 PUSH4 0x70A08231 SWAP1 PUSH1 0x24 ADD PUSH1 0x20 PUSH1 0x40 MLOAD DUP1 DUP4 SUB DUP2 DUP7 GAS STATICCALL ISZERO DUP1 ISZERO PUSH2 0x8E5 JUMPI RETURNDATASIZE PUSH0 DUP1 RETURNDATACOPY RETURNDATASIZE PUSH0 REVERT JUMPDEST POP POP POP POP PUSH1 0x40 MLOAD RETURNDATASIZE PUSH1 0x1F NOT PUSH1 0x1F DUP3 ADD AND DUP3 ADD DUP1 PUSH1 0x40 MSTORE POP DUP2 ADD SWAP1 PUSH2 0x909 SWAP2 SWAP1 PUSH2 0xF29 JUMP JUMPDEST DUP4 GT ISZERO PUSH2 0x99F JUMPI PUSH1 0x4 DUP1 SLOAD PUSH1 0x40 MLOAD PUSH4 0x70A08231 PUSH1 0xE0 SHL DUP2 MSTORE ADDRESS SWAP3 DUP2 ADD SWAP3 SWAP1 SWAP3 MSTORE PUSH1 0x1 PUSH1 0x1 PUSH1 0xA0 SHL SUB AND SWAP1 PUSH4 0x70A08231 SWAP1 PUSH1 0x24 ADD PUSH1 0x20 PUSH1 0x40 MLOAD DUP1 DUP4 SUB DUP2 DUP7 GAS STATICCALL ISZERO DUP1 ISZERO PUSH2 0x957 JUMPI RETURNDATASIZE PUSH0 DUP1 RETURNDATACOPY RETURNDATASIZE PUSH0 REVERT JUMPDEST POP POP POP POP PUSH1 0x40 MLOAD RETURNDATASIZE PUSH1 0x1F NOT PUSH1 0x1F DUP3 ADD AND DUP3 ADD DUP1 PUSH1 0x40 MSTORE POP DUP2 ADD SWAP1 PUSH2 0x97B SWAP2 SWAP1 PUSH2 0xF29 JUMP JUMPDEST PUSH1 0x40 MLOAD PUSH4 0x4787A103 PUSH1 0xE1 SHL DUP2 MSTORE PUSH1 0x4 DUP2 ADD SWAP2 SWAP1 SWAP2 MSTORE PUSH1 0x24 DUP2 ADD DUP5 SWAP1 MSTORE PUSH1 0x44 ADD PUSH2 0x280 JUMP JUMPDEST PUSH1 0x2 SLOAD PUSH1 0x5 SLOAD PUSH1 0x40 MLOAD PUSH4 0x96F4E9F9 PUSH1 0xE0 SHL DUP2 MSTORE PUSH1 0x1 PUSH1 0x1 PUSH1 0xA0 SHL SUB SWAP1 SWAP3 AND SWAP2 PUSH4 0x96F4E9F9 SWAP2 PUSH2 0x9E5 SWAP2 PUSH1 0x1 PUSH1 0xA0 SHL SWAP1 SWAP2 DIV PUSH8 0xFFFFFFFFFFFFFFFF AND SWAP1 DUP6 SWAP1 PUSH1 0x4 ADD PUSH2 0xF82 JUMP JUMPDEST PUSH1 0x20 PUSH1 0x40 MLOAD DUP1 DUP4 SUB DUP2 PUSH0 DUP8 GAS CALL ISZERO DUP1 ISZERO PUSH2 0xA01 JUMPI RETURNDATASIZE PUSH0 DUP1 RETURNDATACOPY RETURNDATASIZE PUSH0 REVERT JUMPDEST POP POP POP POP PUSH1 0x40 MLOAD RETURNDATASIZE PUSH1 0x1F NOT PUSH1 0x1F DUP3 ADD AND DUP3 ADD DUP1 PUSH1 0x40 MSTORE POP DUP2 ADD SWAP1 PUSH2 0xA25 SWAP2 SWAP1 PUSH2 0xF29 JUMP JUMPDEST SWAP2 POP POP SWAP3 POP SWAP3 SWAP1 POP JUMP JUMPDEST PUSH0 SLOAD PUSH1 0x1 PUSH1 0x1 PUSH1 0xA0 SHL SUB AND CALLER EQ PUSH2 0xA81 JUMPI PUSH1 0x40 MLOAD PUSH3 0x461BCD PUSH1 0xE5 SHL DUP2 MSTORE PUSH1 0x20 PUSH1 0x4 DUP3 ADD MSTORE PUSH1 0x16 PUSH1 0x24 DUP3 ADD MSTORE PUSH22 0x27B7363C9031B0B63630B1363290313C9037BBB732B9 PUSH1 0x51 SHL PUSH1 0x44 DUP3 ADD MSTORE PUSH1 0x64 ADD PUSH2 0x280 JUMP JUMPDEST JUMP JUMPDEST CALLER PUSH1 0x1 PUSH1 0x1 PUSH1 0xA0 SHL SUB DUP3 AND SUB PUSH2 0xADB JUMPI PUSH1 0x40 MLOAD PUSH3 0x461BCD PUSH1 0xE5 SHL DUP2 MSTORE PUSH1 0x20 PUSH1 0x4 DUP3 ADD MSTORE PUSH1 0x17 PUSH1 0x24 DUP3 ADD MSTORE PUSH32 0x43616E6E6F74207472616E7366657220746F2073656C66000000000000000000 PUSH1 0x44 DUP3 ADD MSTORE PUSH1 0x64 ADD PUSH2 0x280 JUMP JUMPDEST PUSH1 0x1 DUP1 SLOAD PUSH1 0x1 PUSH1 0x1 PUSH1 0xA0 SHL SUB NOT AND PUSH1 0x1 PUSH1 0x1 PUSH1 0xA0 SHL SUB DUP4 DUP2 AND SWAP2 DUP3 OR SWAP1 SWAP3 SSTORE PUSH0 DUP1 SLOAD PUSH1 0x40 MLOAD SWAP3 SWAP4 AND SWAP2 PUSH32 0xED8889F560326EB138920D842192F0EB3DD22B4F139C87A2C57538E05BAE1278 SWAP2 SWAP1 LOG3 POP JUMP JUMPDEST PUSH1 0x40 DUP1 MLOAD SWAP2 MLOAD PUSH1 0x24 DUP1 DUP5 ADD SWAP2 SWAP1 SWAP2 MSTORE DUP2 MLOAD DUP1 DUP5 SUB SWAP1 SWAP2 ADD DUP2 MSTORE PUSH1 0x44 SWAP1 SWAP3 ADD SWAP1 MSTORE PUSH1 0x20 DUP2 ADD DUP1 MLOAD PUSH1 0x1 PUSH1 0x1 PUSH1 0xE0 SHL SUB AND PUSH4 0x97A657C9 PUSH1 0xE0 SHL OR SWAP1 MSTORE SWAP1 JUMP JUMPDEST PUSH4 0x4E487B71 PUSH1 0xE0 SHL PUSH0 MSTORE PUSH1 0x41 PUSH1 0x4 MSTORE PUSH1 0x24 PUSH0 REVERT JUMPDEST PUSH1 0x40 MLOAD PUSH1 0x1F DUP3 ADD PUSH1 0x1F NOT AND DUP2 ADD PUSH8 0xFFFFFFFFFFFFFFFF DUP2 GT DUP3 DUP3 LT OR ISZERO PUSH2 0xBA5 JUMPI PUSH2 0xBA5 PUSH2 0xB68 JUMP JUMPDEST PUSH1 0x40 MSTORE SWAP2 SWAP1 POP JUMP JUMPDEST PUSH0 DUP3 PUSH1 0x1F DUP4 ADD SLT PUSH2 0xBBC JUMPI PUSH0 DUP1 REVERT JUMPDEST DUP2 CALLDATALOAD PUSH8 0xFFFFFFFFFFFFFFFF DUP2 GT ISZERO PUSH2 0xBD6 JUMPI PUSH2 0xBD6 PUSH2 0xB68 JUMP JUMPDEST PUSH2 0xBE9 PUSH1 0x1F DUP3 ADD PUSH1 0x1F NOT AND PUSH1 0x20 ADD PUSH2 0xB7C JUMP JUMPDEST DUP2 DUP2 MSTORE DUP5 PUSH1 0x20 DUP4 DUP7 ADD ADD GT ISZERO PUSH2 0xBFD JUMPI PUSH0 DUP1 REVERT JUMPDEST DUP2 PUSH1 0x20 DUP6 ADD PUSH1 0x20 DUP4 ADD CALLDATACOPY PUSH0 SWAP2 DUP2 ADD PUSH1 0x20 ADD SWAP2 SWAP1 SWAP2 MSTORE SWAP4 SWAP3 POP POP POP JUMP JUMPDEST PUSH0 DUP1 PUSH0 PUSH1 0x60 DUP5 DUP7 SUB SLT ISZERO PUSH2 0xC2B JUMPI PUSH0 DUP1 REVERT JUMPDEST DUP4 CALLDATALOAD PUSH8 0xFFFFFFFFFFFFFFFF DUP1 DUP3 GT ISZERO PUSH2 0xC42 JUMPI PUSH0 DUP1 REVERT JUMPDEST PUSH2 0xC4E DUP8 DUP4 DUP9 ADD PUSH2 0xBAD JUMP JUMPDEST SWAP5 POP PUSH1 0x20 DUP7 ADD CALLDATALOAD SWAP2 POP DUP1 DUP3 GT ISZERO PUSH2 0xC63 JUMPI PUSH0 DUP1 REVERT JUMPDEST PUSH2 0xC6F DUP8 DUP4 DUP9 ADD PUSH2 0xBAD JUMP JUMPDEST SWAP4 POP PUSH1 0x40 DUP7 ADD CALLDATALOAD SWAP2 POP DUP1 DUP3 GT ISZERO PUSH2 0xC84 JUMPI PUSH0 DUP1 REVERT JUMPDEST POP PUSH2 0xC91 DUP7 DUP3 DUP8 ADD PUSH2 0xBAD JUMP JUMPDEST SWAP2 POP POP SWAP3 POP SWAP3 POP SWAP3 JUMP JUMPDEST DUP1 CALLDATALOAD PUSH1 0x1 PUSH1 0x1 PUSH1 0xA0 SHL SUB DUP2 AND DUP2 EQ PUSH2 0xCB1 JUMPI PUSH0 DUP1 REVERT JUMPDEST SWAP2 SWAP1 POP JUMP JUMPDEST PUSH0 DUP1 PUSH1 0x40 DUP4 DUP6 SUB SLT ISZERO PUSH2 0xCC7 JUMPI PUSH0 DUP1 REVERT JUMPDEST PUSH2 0xCD0 DUP4 PUSH2 0xC9B JUMP JUMPDEST SWAP5 PUSH1 0x20 SWAP4 SWAP1 SWAP4 ADD CALLDATALOAD SWAP4 POP POP POP JUMP JUMPDEST PUSH0 DUP1 PUSH0 PUSH1 0x60 DUP5 DUP7 SUB SLT ISZERO PUSH2 0xCF0 JUMPI PUSH0 DUP1 REVERT JUMPDEST PUSH2 0xCF9 DUP5 PUSH2 0xC9B JUMP JUMPDEST SWAP3 POP PUSH1 0x20 DUP1 DUP6 ADD CALLDATALOAD PUSH8 0xFFFFFFFFFFFFFFFF DUP1 DUP3 GT ISZERO PUSH2 0xD16 JUMPI PUSH0 DUP1 REVERT JUMPDEST PUSH2 0xD22 DUP9 DUP4 DUP10 ADD PUSH2 0xBAD JUMP JUMPDEST SWAP5 POP PUSH1 0x40 DUP8 ADD CALLDATALOAD SWAP2 POP DUP1 DUP3 GT ISZERO PUSH2 0xD37 JUMPI PUSH0 DUP1 REVERT JUMPDEST DUP2 DUP8 ADD SWAP2 POP DUP8 PUSH1 0x1F DUP4 ADD SLT PUSH2 0xD4A JUMPI PUSH0 DUP1 REVERT JUMPDEST DUP2 CALLDATALOAD DUP2 DUP2 GT ISZERO PUSH2 0xD5C JUMPI PUSH2 0xD5C PUSH2 0xB68 JUMP JUMPDEST DUP1 PUSH1 0x5 SHL SWAP2 POP PUSH2 0xD6D DUP5 DUP4 ADD PUSH2 0xB7C JUMP JUMPDEST DUP2 DUP2 MSTORE SWAP2 DUP4 ADD DUP5 ADD SWAP2 DUP5 DUP2 ADD SWAP1 DUP11 DUP5 GT ISZERO PUSH2 0xD86 JUMPI PUSH0 DUP1 REVERT JUMPDEST SWAP4 DUP6 ADD SWAP4 JUMPDEST DUP4 DUP6 LT ISZERO PUSH2 0xDAB JUMPI PUSH2 0xD9C DUP6 PUSH2 0xC9B JUMP JUMPDEST DUP3 MSTORE SWAP4 DUP6 ADD SWAP4 SWAP1 DUP6 ADD SWAP1 PUSH2 0xD8B JUMP JUMPDEST DUP1 SWAP7 POP POP POP POP POP POP POP SWAP3 POP SWAP3 POP SWAP3 JUMP JUMPDEST PUSH0 PUSH1 0x20 DUP3 DUP5 SUB SLT ISZERO PUSH2 0xDCB JUMPI PUSH0 DUP1 REVERT JUMPDEST PUSH2 0xDD4 DUP3 PUSH2 0xC9B JUMP JUMPDEST SWAP4 SWAP3 POP POP POP JUMP JUMPDEST PUSH0 DUP2 MLOAD DUP1 DUP5 MSTORE PUSH0 JUMPDEST DUP2 DUP2 LT ISZERO PUSH2 0xDFF JUMPI PUSH1 0x20 DUP2 DUP6 ADD DUP2 ADD MLOAD DUP7 DUP4 ADD DUP3 ADD MSTORE ADD PUSH2 0xDE3 JUMP JUMPDEST POP PUSH0 PUSH1 0x20 DUP3 DUP7 ADD ADD MSTORE PUSH1 0x20 PUSH1 0x1F NOT PUSH1 0x1F DUP4 ADD AND DUP6 ADD ADD SWAP2 POP POP SWAP3 SWAP2 POP POP JUMP JUMPDEST PUSH1 0x20 DUP2 MSTORE PUSH0 DUP3 MLOAD PUSH1 0x80 PUSH1 0x20 DUP5 ADD MSTORE PUSH2 0xE39 PUSH1 0xA0 DUP5 ADD DUP3 PUSH2 0xDDB JUMP JUMPDEST SWAP1 POP PUSH1 0x20 DUP5 ADD MLOAD PUSH1 0x1F NOT DUP1 DUP6 DUP5 SUB ADD PUSH1 0x40 DUP7 ADD MSTORE PUSH2 0xE57 DUP4 DUP4 PUSH2 0xDDB JUMP JUMPDEST SWAP3 POP PUSH1 0x40 DUP7 ADD MLOAD SWAP2 POP DUP1 DUP6 DUP5 SUB ADD PUSH1 0x60 DUP7 ADD MSTORE POP PUSH2 0xE75 DUP3 DUP3 PUSH2 0xDDB JUMP JUMPDEST PUSH1 0x60 SWAP6 SWAP1 SWAP6 ADD MLOAD PUSH1 0x1 PUSH1 0x1 PUSH1 0xA0 SHL SUB AND PUSH1 0x80 SWAP5 SWAP1 SWAP5 ADD SWAP4 SWAP1 SWAP4 MSTORE POP SWAP2 SWAP3 SWAP2 POP POP JUMP JUMPDEST PUSH0 PUSH1 0x20 DUP1 DUP4 MSTORE PUSH1 0x1 DUP1 PUSH1 0xA0 SHL SUB DUP1 DUP6 MLOAD AND DUP3 DUP6 ADD MSTORE DUP2 DUP6 ADD MLOAD PUSH1 0x80 PUSH1 0x40 DUP7 ADD MSTORE PUSH2 0xEC4 PUSH1 0xA0 DUP7 ADD DUP3 PUSH2 0xDDB JUMP JUMPDEST PUSH1 0x40 DUP8 ADD MLOAD DUP7 DUP3 SUB PUSH1 0x1F NOT ADD PUSH1 0x60 DUP9 ADD MSTORE DUP1 MLOAD DUP1 DUP4 MSTORE SWAP1 DUP6 ADD SWAP3 POP PUSH0 SWAP2 DUP6 ADD SWAP1 JUMPDEST DUP1 DUP4 LT ISZERO PUSH2 0xF07 JUMPI DUP4 MLOAD DUP6 AND DUP3 MSTORE SWAP3 DUP6 ADD SWAP3 PUSH1 0x1 SWAP3 SWAP1 SWAP3 ADD SWAP2 SWAP1 DUP6 ADD SWAP1 PUSH2 0xEE5 JUMP JUMPDEST POP PUSH1 0x60 DUP9 ADD MLOAD PUSH1 0x1 PUSH1 0x1 PUSH1 0xA0 SHL SUB DUP2 AND PUSH1 0x80 DUP10 ADD MSTORE SWAP5 POP SWAP8 SWAP7 POP POP POP POP POP POP POP JUMP JUMPDEST PUSH0 PUSH1 0x20 DUP3 DUP5 SUB SLT ISZERO PUSH2 0xF39 JUMPI PUSH0 DUP1 REVERT JUMPDEST POP MLOAD SWAP2 SWAP1 POP JUMP JUMPDEST PUSH0 PUSH1 0x20 DUP3 DUP5 SUB SLT ISZERO PUSH2 0xF50 JUMPI PUSH0 DUP1 REVERT JUMPDEST DUP2 MLOAD DUP1 ISZERO ISZERO DUP2 EQ PUSH2 0xDD4 JUMPI PUSH0 DUP1 REVERT JUMPDEST PUSH1 0xFF DUP4 AND DUP2 MSTORE PUSH1 0x40 PUSH1 0x20 DUP3 ADD MSTORE PUSH0 PUSH2 0xF7A PUSH1 0x40 DUP4 ADD DUP5 PUSH2 0xDDB JUMP JUMPDEST SWAP5 SWAP4 POP POP POP POP JUMP JUMPDEST PUSH0 PUSH1 0x40 PUSH8 0xFFFFFFFFFFFFFFFF DUP6 AND DUP4 MSTORE PUSH1 0x20 PUSH1 0x40 DUP2 DUP6 ADD MSTORE DUP5 MLOAD PUSH1 0xA0 PUSH1 0x40 DUP7 ADD MSTORE PUSH2 0xFB0 PUSH1 0xE0 DUP7 ADD DUP3 PUSH2 0xDDB JUMP JUMPDEST SWAP1 POP DUP2 DUP7 ADD MLOAD PUSH1 0x3F NOT DUP1 DUP8 DUP5 SUB ADD PUSH1 0x60 DUP9 ADD MSTORE PUSH2 0xFCD DUP4 DUP4 PUSH2 0xDDB JUMP JUMPDEST PUSH1 0x40 DUP10 ADD MLOAD DUP9 DUP3 SUB DUP4 ADD PUSH1 0x80 DUP11 ADD MSTORE DUP1 MLOAD DUP1 DUP4 MSTORE SWAP1 DUP7 ADD SWAP5 POP PUSH0 SWAP4 POP SWAP1 DUP6 ADD SWAP1 JUMPDEST DUP1 DUP5 LT ISZERO PUSH2 0x1020 JUMPI DUP5 MLOAD DUP1 MLOAD PUSH1 0x1 PUSH1 0x1 PUSH1 0xA0 SHL SUB AND DUP4 MSTORE DUP7 ADD MLOAD DUP7 DUP4 ADD MSTORE SWAP4 DUP6 ADD SWAP4 PUSH1 0x1 SWAP4 SWAP1 SWAP4 ADD SWAP3 SWAP1 DUP7 ADD SWAP1 PUSH2 0xFEE JUMP JUMPDEST POP PUSH1 0x60 DUP10 ADD MLOAD PUSH1 0x1 PUSH1 0x1 PUSH1 0xA0 SHL SUB AND PUSH1 0xA0 DUP10 ADD MSTORE PUSH1 0x80 DUP10 ADD MLOAD DUP9 DUP3 SUB DUP4 ADD PUSH1 0xC0 DUP11 ADD MSTORE SWAP6 POP PUSH2 0x104F DUP2 DUP8 PUSH2 0xDDB JUMP JUMPDEST SWAP11 SWAP10 POP POP POP POP POP POP POP POP POP POP JUMP INVALID LOG2 PUSH5 0x6970667358 0x22 SLT KECCAK256 PUSH7 0x3D0CF6BE7254C0 MULMOD 0xC7 LOG0 0xC0 0xAA 0x4D 0x21 DUP5 CODECOPY SELFBALANCE 0x24 0xED PUSH27 0xFA0D9CE4C5A9E7902283BA64736F6C634300081600330000000000 "
				},
				"gasEstimates": {
					"creation": {
						"codeDepositCost": "848600",
						"executionCost": "infinite",
						"totalCost": "infinite"
					},
					"external": {
						"acceptOwnership()": "52342",
						"owner()": "2343",
						"sendCreateMusicBloc(string,string,string)": "infinite",
						"sendJoinMusicBloc(address,string,address[])": "infinite",
						"sendStartContribution(address,uint256)": "infinite",
						"transferOwnership(address)": "30498",
						"withdrawToken(address)": "infinite"
					},
					"internal": {
						"sendMessage(uint8,bytes memory)": "infinite"
					}
				},
				"methodIdentifiers": {
					"acceptOwnership()": "79ba5097",
					"owner()": "8da5cb5b",
					"sendCreateMusicBloc(string,string,string)": "2859df38",
					"sendJoinMusicBloc(address,string,address[])": "858873ed",
					"sendStartContribution(address,uint256)": "4555cb0c",
					"transferOwnership(address)": "f2fde38b",
					"withdrawToken(address)": "89476069"
				}
			},
			"storageLayout": {
				"storage": [
					{
						"astId": 135,
						"contract": "Router.sol:Router",
						"label": "s_owner",
						"offset": 0,
						"slot": "0",
						"type": "t_address"
					},
					{
						"astId": 137,
						"contract": "Router.sol:Router",
						"label": "s_pendingOwner",
						"offset": 0,
						"slot": "1",
						"type": "t_address"
					},
					{
						"astId": 1218,
						"contract": "Router.sol:Router",
						"label": "s_router",
						"offset": 0,
						"slot": "2",
						"type": "t_contract(IRouterClient)51"
					},
					{
						"astId": 1220,
						"contract": "Router.sol:Router",
						"label": "sst_token",
						"offset": 0,
						"slot": "3",
						"type": "t_address"
					},
					{
						"astId": 1223,
						"contract": "Router.sol:Router",
						"label": "s_linkToken",
						"offset": 0,
						"slot": "4",
						"type": "t_contract(LinkTokenInterface)416"
					},
					{
						"astId": 1225,
						"contract": "Router.sol:Router",
						"label": "s_receiver",
						"offset": 0,
						"slot": "5",
						"type": "t_address"
					},
					{
						"astId": 1227,
						"contract": "Router.sol:Router",
						"label": "s_destinationChainSelector",
						"offset": 20,
						"slot": "5",
						"type": "t_uint64"
					}
				],
				"types": {
					"t_address": {
						"encoding": "inplace",
						"label": "address",
						"numberOfBytes": "20"
					},
					"t_contract(IRouterClient)51": {
						"encoding": "inplace",
						"label": "contract IRouterClient",
						"numberOfBytes": "20"
					},
					"t_contract(LinkTokenInterface)416": {
						"encoding": "inplace",
						"label": "contract LinkTokenInterface",
						"numberOfBytes": "20"
					},
					"t_uint64": {
						"encoding": "inplace",
						"label": "uint64",
						"numberOfBytes": "8"
					}
				}
			},
			"userdoc": {
				"kind": "user",
				"methods": {
					"acceptOwnership()": {
						"notice": "Allows an ownership transfer to be completed by the recipient."
					},
					"owner()": {
						"notice": "Get the current owner"
					},
					"transferOwnership(address)": {
						"notice": "Allows an owner to begin transferring ownership to a new address, pending."
					}
				},
				"version": 1
			}
		}
	}
}