{
	"data": {
		"bytecode": {
			"linkReferences": {},
			"object": "60c060405234801562000010575f80fd5b506040516200457e3803806200457e833981810160405281019062000036919062000237565b815f73ffffffffffffffffffffffffffffffffffffffff168173ffffffffffffffffffffffffffffffffffffffff1603620000aa575f6040517fd7f73334000000000000000000000000000000000000000000000000000000008152600401620000a191906200028d565b60405180910390fd5b8073ffffffffffffffffffffffffffffffffffffffff1660808173ffffffffffffffffffffffffffffffffffffffff1681525050508060a08181525050426002819055505f6004819055506e0c2e074ec69a0dfb2997ba6c7d2e1e5f806101000a81548173ffffffffffffffffffffffffffffffffffffffff021916908373ffffffffffffffffffffffffffffffffffffffff1602179055506e0c2e074ec69a0dfb2997ba6c7d2e1e60015f6101000a81548173ffffffffffffffffffffffffffffffffffffffff021916908373ffffffffffffffffffffffffffffffffffffffff1602179055505050620002a8565b5f80fd5b5f73ffffffffffffffffffffffffffffffffffffffff82169050919050565b5f620001c9826200019e565b9050919050565b620001db81620001bd565b8114620001e6575f80fd5b50565b5f81519050620001f981620001d0565b92915050565b5f819050919050565b6200021381620001ff565b81146200021e575f80fd5b50565b5f81519050620002318162000208565b92915050565b5f806040838503121562000250576200024f6200019a565b5b5f6200025f85828601620001e9565b9250506020620002728582860162000221565b9150509250929050565b6200028781620001bd565b82525050565b5f602082019050620002a25f8301846200027c565b92915050565b60805160a05161429f620002df5f395f818161056a01528181610aa00152610d2e01525f8181610b0f0152610d74015261429f5ff3fe608060405234801562000010575f80fd5b506004361062000146575f3560e01c80637b10399911620000bb578063b0f479a11162000079578063b0f479a1146200038f578063b9b34e4d14620003b1578063bc7dbb2214620003d1578063c84d7a0f14620003f3578063df8288ec14620004135762000146565b80637b10399914620002d557806385572ffb14620002f7578063924112f61462000317578063947a36fb1462000337578063ac1d45c514620003595762000146565b80634585e33b11620001095780634585e33b146200021c57806355d2c1c3146200023c578063605524b2146200025c5780636c18f84b146200027c5780636e04ff0d146200029e5762000146565b806301ffc9a7146200014a57806304f3bcec1462000180578063195b684f14620001a25780631d4a1d1014620001d85780633f3b3b2714620001fa575b5f80fd5b62000168600480360381019062000162919062002327565b62000435565b60405162000177919062002373565b60405180910390f35b6200018a62000507565b60405162000199919062002414565b60405180910390f35b620001c06004803603810190620001ba919062002467565b6200052c565b604051620001cf9190620024bb565b60405180910390f35b620001e26200055c565b604051620001f19190620024e7565b60405180910390f35b6200020462000562565b604051620002139190620024e7565b60405180910390f35b6200023a60048036038101906200023491906200256c565b62000568565b005b6200025a600480360381019062000254919062002815565b620008a1565b005b6200027a6004803603810190620002749190620028ac565b62000955565b005b6200028662000a62565b60405162000295919062002975565b60405180910390f35b620002bc6004803603810190620002b691906200256c565b62000a9b565b604051620002cc929190620029f1565b60405180910390f35b620002df62000aea565b604051620002ee919062002a47565b60405180910390f35b6200031560048036038101906200030f919062002a87565b62000b0d565b005b6200033560048036038101906200032f919062002ad6565b62000bb9565b005b6200034162000d2c565b604051620003509190620024e7565b60405180910390f35b62000377600480360381019062000371919062002467565b62000d50565b60405162000386919062002ba6565b60405180910390f35b6200039962000d71565b604051620003a89190620024bb565b60405180910390f35b620003cf6004803603810190620003c9919062002bf0565b62000d98565b005b620003db62000e97565b604051620003ea919062002ba6565b60405180910390f35b6200041160048036038101906200040b919062002c7e565b62000e9d565b005b6200041d62000f9d565b6040516200042c919062002975565b60405180910390f35b5f7f85572ffb000000000000000000000000000000000000000000000000000000007bffffffffffffffffffffffffffffffffffffffffffffffffffffffff1916827bffffffffffffffffffffffffffffffffffffffffffffffffffffffff191614806200050057507f01ffc9a7000000000000000000000000000000000000000000000000000000007bffffffffffffffffffffffffffffffffffffffffffffffffffffffff1916827bffffffffffffffffffffffffffffffffffffffffffffffffffffffff1916145b9050919050565b60015f9054906101000a900473ffffffffffffffffffffffffffffffffffffffff1681565b6005602052805f5260405f205f915054906101000a900473ffffffffffffffffffffffffffffffffffffffff1681565b60045481565b60025481565b7f00000000000000000000000000000000000000000000000000000000000000006002544262000599919062002d23565b118015620005ab57505f600380549050115b156200089d575f60038054905067ffffffffffffffff811115620005d457620005d362002602565b5b604051908082528060200260200182016040528015620006035781602001602082028036833780820191505090505b5090505f5b6003805490508110156200082e575f620006416003838154811062000632576200063162002d5d565b5b905f5260205f20015462000fd6565b90505f60065f600385815481106200065e576200065d62002d5d565b5b905f5260205f20015481526020019081526020015f2090508173ffffffffffffffffffffffffffffffffffffffff16637d836512826003015f9054906101000a900473ffffffffffffffffffffffffffffffffffffffff168360010130855f016040518563ffffffff1660e01b8152600401620006df949392919062002e8a565b5f604051808303815f87803b158015620006f7575f80fd5b505af11580156200070a573d5f803e3d5ffd5b505050508160055f60045481526020019081526020015f205f6101000a81548173ffffffffffffffffffffffffffffffffffffffff021916908373ffffffffffffffffffffffffffffffffffffffff160217905550806003015f9054906101000a900473ffffffffffffffffffffffffffffffffffffffff1673ffffffffffffffffffffffffffffffffffffffff168273ffffffffffffffffffffffffffffffffffffffff167f73e3b750b5363c0e9ea67dfe0608c7c179275db2ab29ffaa470d9fd2ff4ee4ad60405160405180910390a360038381548110620007f357620007f262002d5d565b5b905f5260205f20015484848151811062000812576200081162002d5d565b5b6020026020010181815250505050808060010191505062000608565b505f67ffffffffffffffff8111156200084c576200084b62002602565b5b6040519080825280602002602001820160405280156200087b5781602001602082028036833780820191505090505b506003908051906020019062000893929190620021c3565b5042600281905550505b5050565b5f60405180610140016040528084815260200160405180602001604052805f81525081526020018573ffffffffffffffffffffffffffffffffffffffff1681526020018381526020015f81526020015f801b815260200160405180602001604052805f81525081526020013373ffffffffffffffffffffffffffffffffffffffff16815260200160405180602001604052805f81525081526020015f151581525090506200094f8162000fee565b50505050565b5f60405180610140016040528060405180602001604052805f815250815260200160405180602001604052805f81525081526020018473ffffffffffffffffffffffffffffffffffffffff1681526020015f67ffffffffffffffff811115620009c357620009c262002602565b5b604051908082528060200260200182016040528015620009f25781602001602082028036833780820191505090505b5081526020018381526020015f801b815260200160405180602001604052805f81525081526020013373ffffffffffffffffffffffffffffffffffffffff16815260200160405180602001604052805f81525081526020015f1515815250905062000a5d81620010ee565b505050565b6040518060400160405280600981526020017f736f756e6468657265000000000000000000000000000000000000000000000081525081565b5f60607f00000000000000000000000000000000000000000000000000000000000000006002544262000acf919062002d23565b11801562000ae157505f600380549050115b91509250929050565b5f8054906101000a900473ffffffffffffffffffffffffffffffffffffffff1681565b7f000000000000000000000000000000000000000000000000000000000000000073ffffffffffffffffffffffffffffffffffffffff163373ffffffffffffffffffffffffffffffffffffffff161462000ba057336040517fd7f7333400000000000000000000000000000000000000000000000000000000815260040162000b979190620024bb565b60405180910390fd5b62000bb68162000bb090620031fc565b620011ce565b50565b5f8360045f815462000bcb9062003210565b91905081905560405160200162000be4929190620032c0565b6040516020818303038152906040528051906020012090505f62000c088262000fd6565b90508073ffffffffffffffffffffffffffffffffffffffff16637d836512338730876040518563ffffffff1660e01b815260040162000c4b9493929190620032eb565b5f604051808303815f87803b15801562000c63575f80fd5b505af115801562000c76573d5f803e3d5ffd5b505050508060055f60045481526020019081526020015f205f6101000a81548173ffffffffffffffffffffffffffffffffffffffff021916908373ffffffffffffffffffffffffffffffffffffffff1602179055503373ffffffffffffffffffffffffffffffffffffffff168173ffffffffffffffffffffffffffffffffffffffff167f73e3b750b5363c0e9ea67dfe0608c7c179275db2ab29ffaa470d9fd2ff4ee4ad60405160405180910390a35050505050565b7f000000000000000000000000000000000000000000000000000000000000000081565b6003818154811062000d60575f80fd5b905f5260205f20015f915090505481565b5f7f0000000000000000000000000000000000000000000000000000000000000000905090565b5f60405180610140016040528060405180602001604052805f815250815260200160405180602001604052805f81525081526020018673ffffffffffffffffffffffffffffffffffffffff1681526020015f67ffffffffffffffff81111562000e065762000e0562002602565b5b60405190808252806020026020018201604052801562000e355781602001602082028036833780820191505090505b5081526020018581526020018481526020018381526020013373ffffffffffffffffffffffffffffffffffffffff16815260200160405180602001604052805f81525081526020015f1515815250905062000e9081620013c0565b5050505050565b5f801b81565b5f60405180610140016040528060405180602001604052805f815250815260200160405180602001604052805f81525081526020018573ffffffffffffffffffffffffffffffffffffffff1681526020015f67ffffffffffffffff81111562000f0b5762000f0a62002602565b5b60405190808252806020026020018201604052801562000f3a5781602001602082028036833780820191505090505b5081526020018381526020015f801b815260200160405180602001604052805f81525081526020013373ffffffffffffffffffffffffffffffffffffffff1681526020018481526020015f1515815250905062000f978162001498565b50505050565b6040518060400160405280600581526020017f2e7465737400000000000000000000000000000000000000000000000000000081525081565b5f8062000fe3836200159e565b905080915050919050565b5f816040015190505f8173ffffffffffffffffffffffffffffffffffffffff1663bdfcf4e8845f015185606001518660e001516040518463ffffffff1660e01b815260040162001041939291906200340b565b6020604051808303815f875af11580156200105e573d5f803e3d5ffd5b505050506040513d601f19601f820116820180604052508101906200108491906200346a565b90508260e0015173ffffffffffffffffffffffffffffffffffffffff1681846040015173ffffffffffffffffffffffffffffffffffffffff167f0ae4cb8ac7b5d402355925f7050baa45dbef07a739662120a895d7981704ccf160405160405180910390a4505050565b5f816040015190505f808273ffffffffffffffffffffffffffffffffffffffff1663d2154a148560800151336040518363ffffffff1660e01b8152600401620011399291906200349a565b60408051808303815f875af115801562001155573d5f803e3d5ffd5b505050506040513d601f19601f820116820180604052508101906200117b9190620034db565b915091508082856040015173ffffffffffffffffffffffffffffffffffffffff167f4134cc587093b966aebac3463a405c1fe1b410159ffdf141761e9e7e4d185b0b60405160405180910390a450505050565b5f80620011df8360600151620015f6565b915091505f6005811115620011f957620011f862003520565b5b8260058111156200120f576200120e62003520565b5b036200122657620012208162001e0f565b620013bb565b600160058111156200123d576200123c62003520565b5b82600581111562001253576200125262003520565b5b036200126a57620012648162000fee565b620013ba565b6002600581111562001281576200128062003520565b5b82600581111562001297576200129662003520565b5b03620012ae57620012a881620010ee565b620013b9565b60036005811115620012c557620012c462003520565b5b826005811115620012db57620012da62003520565b5b03620012f257620012ec81620013c0565b620013b8565b6004600581111562001309576200130862003520565b5b8260058111156200131f576200131e62003520565b5b036200133657620013308162001498565b620013b7565b6005808111156200134c576200134b62003520565b5b82600581111562001362576200136162003520565b5b036200137957620013738162001fb2565b620013b6565b6040517f08c379a0000000000000000000000000000000000000000000000000000000008152600401620013ad906200359b565b60405180910390fd5b5b5b5b5b5b505050565b5f816040015190508073ffffffffffffffffffffffffffffffffffffffff1663b733e78a83608001518460a001518560c001518660e001516040518563ffffffff1660e01b8152600401620014199493929190620035bb565b5f604051808303815f87803b15801562001431575f80fd5b505af115801562001444573d5f803e3d5ffd5b505050508160a00151826040015173ffffffffffffffffffffffffffffffffffffffff167f9e7aa5e27c4fa6a013d087bc1b4f50317df6f2b486a8cde737dfb96c48fb947360405160405180910390a35050565b5f816040015190508073ffffffffffffffffffffffffffffffffffffffff1663b4118db083608001518461010001518560e001516040518463ffffffff1660e01b8152600401620014ec939291906200360d565b5f604051808303815f87803b15801562001504575f80fd5b505af115801562001517573d5f803e3d5ffd5b505050508160e0015173ffffffffffffffffffffffffffffffffffffffff168261010001516040516200154b91906200364f565b6040518091039020836040015173ffffffffffffffffffffffffffffffffffffffff167f2a2db17e3618ca44ada76de60283cca9721ae25a46435160247729d376ae91a460405160405180910390a45050565b5f8060405180602001620015b29062002213565b6020820181038252601f19601f8201166040525090505f620015dc84838051906020012062002085565b9050620015eb5f85846200209b565b508092505050919050565b5f6200160162002220565b5f80848060200190518101906200161991906200371e565b915091508160ff16600581111562001636576200163562003520565b5b93505f60058111156200164e576200164d62003520565b5b84600581111562001664576200166362003520565b5b036200176b575f81806020019051810190620016819190620038f3565b9050604051806101400160405280825f01518152602001826020015181526020015f73ffffffffffffffffffffffffffffffffffffffff1681526020015f67ffffffffffffffff811115620016db57620016da62002602565b5b6040519080825280602002602001820160405280156200170a5781602001602082028036833780820191505090505b5081526020015f81526020015f801b815260200182604001518152602001826060015173ffffffffffffffffffffffffffffffffffffffff16815260200160405180602001604052805f81525081526020015f151581525093505062001e08565b6001600581111562001782576200178162003520565b5b84600581111562001798576200179762003520565b5b036200186f575f81806020019051810190620017b5919062003aa7565b90506040518061014001604052808260200151815260200160405180602001604052805f8152508152602001825f015173ffffffffffffffffffffffffffffffffffffffff168152602001826040015181526020015f81526020015f801b815260200160405180602001604052805f8152508152602001826060015173ffffffffffffffffffffffffffffffffffffffff16815260200160405180602001604052805f81525081526020015f151581525093505062001e07565b6002600581111562001886576200188562003520565b5b8460058111156200189c576200189b62003520565b5b03620019c9575f81806020019051810190620018b9919062003b62565b905060405180610140016040528060405180602001604052805f815250815260200160405180602001604052805f8152508152602001825f015173ffffffffffffffffffffffffffffffffffffffff1681526020015f67ffffffffffffffff8111156200192b576200192a62002602565b5b6040519080825280602002602001820160405280156200195a5781602001602082028036833780820191505090505b508152602001826020015181526020015f801b815260200160405180602001604052805f8152508152602001826040015173ffffffffffffffffffffffffffffffffffffffff16815260200160405180602001604052805f81525081526020015f151581525093505062001e06565b60036005811115620019e057620019df62003520565b5b846005811115620019f657620019f562003520565b5b0362001b1b575f8180602001905181019062001a13919062003c49565b905060405180610140016040528060405180602001604052805f815250815260200160405180602001604052805f8152508152602001825f015173ffffffffffffffffffffffffffffffffffffffff1681526020015f67ffffffffffffffff81111562001a855762001a8462002602565b5b60405190808252806020026020018201604052801562001ab45781602001602082028036833780820191505090505b508152602001826020015181526020018260400151815260200182606001518152602001826080015173ffffffffffffffffffffffffffffffffffffffff16815260200160405180602001604052805f81525081526020015f151581525093505062001e05565b6004600581111562001b325762001b3162003520565b5b84600581111562001b485762001b4762003520565b5b0362001c6b575f8180602001905181019062001b65919062003d39565b905060405180610140016040528060405180602001604052805f815250815260200160405180602001604052805f8152508152602001825f015173ffffffffffffffffffffffffffffffffffffffff1681526020015f67ffffffffffffffff81111562001bd75762001bd662002602565b5b60405190808252806020026020018201604052801562001c065781602001602082028036833780820191505090505b508152602001826020015181526020015f801b815260200160405180602001604052805f8152508152602001826060015173ffffffffffffffffffffffffffffffffffffffff168152602001826040015181526020015f151581525093505062001e04565b60058081111562001c815762001c8062003520565b5b84600581111562001c975762001c9662003520565b5b0362001dc6575f8180602001905181019062001cb4919062003e39565b905060405180610140016040528060405180602001604052805f815250815260200160405180602001604052805f8152508152602001825f015173ffffffffffffffffffffffffffffffffffffffff1681526020015f67ffffffffffffffff81111562001d265762001d2562002602565b5b60405190808252806020026020018201604052801562001d555781602001602082028036833780820191505090505b5081526020015f81526020018260200151815260200160405180602001604052805f8152508152602001826060015173ffffffffffffffffffffffffffffffffffffffff16815260200160405180602001604052805f81525081526020018260400151151581525093505062001e03565b6040517f08c379a000000000000000000000000000000000000000000000000000000000815260040162001dfa9062003eb7565b60405180910390fd5b5b5b5b5b5b5050915091565b5f815f015160045f815462001e249062003210565b91905081905560405160200162001e3d929190620032c0565b604051602081830303815290604052805190602001209050600381908060018154018082558091505060019003905f5260205f20015f90919091909150555f60405180608001604052808460c001518152602001845f01518152602001846020015181526020018460e0015173ffffffffffffffffffffffffffffffffffffffff1681525090508060065f8481526020019081526020015f205f820151815f01908162001eeb91906200407f565b50602082015181600101908162001f0391906200407f565b50604082015181600201908162001f1b91906200407f565b506060820151816003015f6101000a81548173ffffffffffffffffffffffffffffffffffffffff021916908373ffffffffffffffffffffffffffffffffffffffff1602179055509050508260e0015173ffffffffffffffffffffffffffffffffffffffff16827f4df3d93e34d4a5516f067788a579615da3fdc59e5cbbd09901429c8f3832b7d560405160405180910390a3505050565b5f816040015190508073ffffffffffffffffffffffffffffffffffffffff16631dba015c8360a001518461012001518560e001516040518463ffffffff1660e01b8152600401620020069392919062004163565b5f604051808303815f87803b1580156200201e575f80fd5b505af115801562002031573d5f803e3d5ffd5b505050508160a00151826040015173ffffffffffffffffffffffffffffffffffffffff167fcedc3309d6c0097c6782ce3f908382bfe5ecb3334d2ac5a89e4764741fa393d360405160405180910390a35050565b5f6200209383833062002199565b905092915050565b5f83471015620020e65747846040517fe4bbecac000000000000000000000000000000000000000000000000000000008152600401620020dd9291906200419e565b60405180910390fd5b5f82510362002121576040517f4ca249dc00000000000000000000000000000000000000000000000000000000815260040160405180910390fd5b8282516020840186f590505f73ffffffffffffffffffffffffffffffffffffffff168173ffffffffffffffffffffffffffffffffffffffff160362002192576040517f741752c200000000000000000000000000000000000000000000000000000000815260040160405180910390fd5b9392505050565b5f604051836040820152846020820152828152600b810160ff815360558120925050509392505050565b828054828255905f5260205f2090810192821562002200579160200282015b82811115620021ff578251825591602001919060010190620021e2565b5b5090506200220f91906200229f565b5090565b60a080620041ca83390190565b60405180610140016040528060608152602001606081526020015f73ffffffffffffffffffffffffffffffffffffffff168152602001606081526020015f81526020015f8019168152602001606081526020015f73ffffffffffffffffffffffffffffffffffffffff168152602001606081526020015f151581525090565b5b80821115620022b8575f815f905550600101620022a0565b5090565b5f604051905090565b5f80fd5b5f80fd5b5f7fffffffff0000000000000000000000000000000000000000000000000000000082169050919050565b6200230381620022cd565b81146200230e575f80fd5b50565b5f813590506200232181620022f8565b92915050565b5f602082840312156200233f576200233e620022c5565b5b5f6200234e8482850162002311565b91505092915050565b5f8115159050919050565b6200236d8162002357565b82525050565b5f602082019050620023885f83018462002362565b92915050565b5f73ffffffffffffffffffffffffffffffffffffffff82169050919050565b5f819050919050565b5f620023d6620023d0620023ca846200238e565b620023ad565b6200238e565b9050919050565b5f620023e982620023b6565b9050919050565b5f620023fc82620023dd565b9050919050565b6200240e81620023f0565b82525050565b5f602082019050620024295f83018462002403565b92915050565b5f819050919050565b62002443816200242f565b81146200244e575f80fd5b50565b5f81359050620024618162002438565b92915050565b5f602082840312156200247f576200247e620022c5565b5b5f6200248e8482850162002451565b91505092915050565b5f620024a3826200238e565b9050919050565b620024b58162002497565b82525050565b5f602082019050620024d05f830184620024aa565b92915050565b620024e1816200242f565b82525050565b5f602082019050620024fc5f830184620024d6565b92915050565b5f80fd5b5f80fd5b5f80fd5b5f8083601f84011262002526576200252562002502565b5b8235905067ffffffffffffffff81111562002546576200254562002506565b5b6020830191508360018202830111156200256557620025646200250a565b5b9250929050565b5f8060208385031215620025855762002584620022c5565b5b5f83013567ffffffffffffffff811115620025a557620025a4620022c9565b5b620025b3858286016200250e565b92509250509250929050565b620025ca8162002497565b8114620025d5575f80fd5b50565b5f81359050620025e881620025bf565b92915050565b5f80fd5b5f601f19601f8301169050919050565b7f4e487b71000000000000000000000000000000000000000000000000000000005f52604160045260245ffd5b6200263a82620025f2565b810181811067ffffffffffffffff821117156200265c576200265b62002602565b5b80604052505050565b5f62002670620022bc565b90506200267e82826200262f565b919050565b5f67ffffffffffffffff821115620026a0576200269f62002602565b5b620026ab82620025f2565b9050602081019050919050565b828183375f83830152505050565b5f620026dc620026d68462002683565b62002665565b905082815260208101848484011115620026fb57620026fa620025ee565b5b62002708848285620026b8565b509392505050565b5f82601f83011262002727576200272662002502565b5b813562002739848260208601620026c6565b91505092915050565b5f67ffffffffffffffff8211156200275f576200275e62002602565b5b602082029050602081019050919050565b5f62002786620027808462002742565b62002665565b90508083825260208201905060208402830185811115620027ac57620027ab6200250a565b5b835b81811015620027d95780620027c48882620025d8565b845260208401935050602081019050620027ae565b5050509392505050565b5f82601f830112620027fa57620027f962002502565b5b81356200280c84826020860162002770565b91505092915050565b5f805f606084860312156200282f576200282e620022c5565b5b5f6200283e86828701620025d8565b935050602084013567ffffffffffffffff811115620028625762002861620022c9565b5b620028708682870162002710565b925050604084013567ffffffffffffffff811115620028945762002893620022c9565b5b620028a286828701620027e3565b9150509250925092565b5f8060408385031215620028c557620028c4620022c5565b5b5f620028d485828601620025d8565b9250506020620028e78582860162002451565b9150509250929050565b5f81519050919050565b5f82825260208201905092915050565b5f5b838110156200292a5780820151818401526020810190506200290d565b5f8484015250505050565b5f6200294182620028f1565b6200294d8185620028fb565b93506200295f8185602086016200290b565b6200296a81620025f2565b840191505092915050565b5f6020820190508181035f8301526200298f818462002935565b905092915050565b5f81519050919050565b5f82825260208201905092915050565b5f620029bd8262002997565b620029c98185620029a1565b9350620029db8185602086016200290b565b620029e681620025f2565b840191505092915050565b5f60408201905062002a065f83018562002362565b818103602083015262002a1a8184620029b1565b90509392505050565b5f62002a2f82620023dd565b9050919050565b62002a418162002a23565b82525050565b5f60208201905062002a5c5f83018462002a36565b92915050565b5f80fd5b5f60a0828403121562002a7e5762002a7d62002a62565b5b81905092915050565b5f6020828403121562002a9f5762002a9e620022c5565b5b5f82013567ffffffffffffffff81111562002abf5762002abe620022c9565b5b62002acd8482850162002a66565b91505092915050565b5f805f6060848603121562002af05762002aef620022c5565b5b5f84013567ffffffffffffffff81111562002b105762002b0f620022c9565b5b62002b1e8682870162002710565b935050602084013567ffffffffffffffff81111562002b425762002b41620022c9565b5b62002b508682870162002710565b925050604084013567ffffffffffffffff81111562002b745762002b73620022c9565b5b62002b828682870162002710565b9150509250925092565b5f819050919050565b62002ba08162002b8c565b82525050565b5f60208201905062002bbb5f83018462002b95565b92915050565b62002bcc8162002b8c565b811462002bd7575f80fd5b50565b5f8135905062002bea8162002bc1565b92915050565b5f805f806080858703121562002c0b5762002c0a620022c5565b5b5f62002c1a87828801620025d8565b945050602062002c2d8782880162002451565b935050604062002c408782880162002bda565b925050606085013567ffffffffffffffff81111562002c645762002c63620022c9565b5b62002c728782880162002710565b91505092959194509250565b5f805f6060848603121562002c985762002c97620022c5565b5b5f62002ca786828701620025d8565b935050602084013567ffffffffffffffff81111562002ccb5762002cca620022c9565b5b62002cd98682870162002710565b925050604062002cec8682870162002451565b9150509250925092565b7f4e487b71000000000000000000000000000000000000000000000000000000005f52601160045260245ffd5b5f62002d2f826200242f565b915062002d3c836200242f565b925082820390508181111562002d575762002d5662002cf6565b5b92915050565b7f4e487b71000000000000000000000000000000000000000000000000000000005f52603260045260245ffd5b7f4e487b71000000000000000000000000000000000000000000000000000000005f52602260045260245ffd5b5f600282049050600182168062002dcf57607f821691505b60208210810362002de55762002de462002d8a565b5b50919050565b5f819050815f5260205f209050919050565b5f815462002e0b8162002db7565b62002e178186620028fb565b9450600182165f811462002e34576001811462002e4b5762002e81565b60ff19831686528115156020028601935062002e81565b62002e568562002deb565b5f5b8381101562002e795781548189015260018201915060208101905062002e58565b808801955050505b50505092915050565b5f60808201905062002e9f5f830187620024aa565b818103602083015262002eb3818662002dfd565b905062002ec46040830185620024aa565b818103606083015262002ed8818462002dfd565b905095945050505050565b5f80fd5b5f80fd5b5f67ffffffffffffffff82169050919050565b62002f098162002eeb565b811462002f14575f80fd5b50565b5f8135905062002f278162002efe565b92915050565b5f67ffffffffffffffff82111562002f4a5762002f4962002602565b5b62002f5582620025f2565b9050602081019050919050565b5f62002f7862002f728462002f2d565b62002665565b90508281526020810184848401111562002f975762002f96620025ee565b5b62002fa4848285620026b8565b509392505050565b5f82601f83011262002fc35762002fc262002502565b5b813562002fd584826020860162002f62565b91505092915050565b5f67ffffffffffffffff82111562002ffb5762002ffa62002602565b5b602082029050602081019050919050565b5f6040828403121562003024576200302362002ee3565b5b62003030604062002665565b90505f6200304184828501620025d8565b5f830152506020620030568482850162002451565b60208301525092915050565b5f62003078620030728462002fde565b62002665565b905080838252602082019050604084028301858111156200309e576200309d6200250a565b5b835b81811015620030cb5780620030b688826200300c565b845260208401935050604081019050620030a0565b5050509392505050565b5f82601f830112620030ec57620030eb62002502565b5b8135620030fe84826020860162003062565b91505092915050565b5f60a082840312156200311f576200311e62002ee3565b5b6200312b60a062002665565b90505f6200313c8482850162002bda565b5f830152506020620031518482850162002f17565b602083015250604082013567ffffffffffffffff81111562003178576200317762002ee7565b5b620031868482850162002fac565b604083015250606082013567ffffffffffffffff811115620031ad57620031ac62002ee7565b5b620031bb8482850162002fac565b606083015250608082013567ffffffffffffffff811115620031e257620031e162002ee7565b5b620031f084828501620030d5565b60808301525092915050565b5f62003209368362003107565b9050919050565b5f6200321c826200242f565b91507fffffffffffffffffffffffffffffffffffffffffffffffffffffffffffffffff820362003251576200325062002cf6565b5b600182019050919050565b5f81905092915050565b5f6200327282620028f1565b6200327e81856200325c565b9350620032908185602086016200290b565b80840191505092915050565b5f819050919050565b620032ba620032b4826200242f565b6200329c565b82525050565b5f620032cd828562003266565b9150620032db8284620032a5565b6020820191508190509392505050565b5f608082019050620033005f830187620024aa565b818103602083015262003314818662002935565b9050620033256040830185620024aa565b818103606083015262003339818462002935565b905095945050505050565b5f81519050919050565b5f82825260208201905092915050565b5f819050602082019050919050565b620033788162002497565b82525050565b5f6200338b83836200336d565b60208301905092915050565b5f602082019050919050565b5f620033af8262003344565b620033bb81856200334e565b9350620033c8836200335e565b805f5b83811015620033fe578151620033e288826200337e565b9750620033ef8362003397565b925050600181019050620033cb565b5085935050505092915050565b5f6060820190508181035f83015262003425818662002935565b905081810360208301526200343b8185620033a3565b90506200344c6040830184620024aa565b949350505050565b5f81519050620034648162002438565b92915050565b5f60208284031215620034825762003481620022c5565b5b5f620034918482850162003454565b91505092915050565b5f604082019050620034af5f830185620024d6565b620034be6020830184620024aa565b9392505050565b5f81519050620034d58162002bc1565b92915050565b5f8060408385031215620034f457620034f3620022c5565b5b5f6200350385828601620034c5565b9250506020620035168582860162003454565b9150509250929050565b7f4e487b71000000000000000000000000000000000000000000000000000000005f52602160045260245ffd5b7f494e56414c4944204f5045524154494f4e0000000000000000000000000000005f82015250565b5f62003583601183620028fb565b915062003590826200354d565b602082019050919050565b5f6020820190508181035f830152620035b48162003575565b9050919050565b5f608082019050620035d05f830187620024d6565b620035df602083018662002b95565b8181036040830152620035f3818562002935565b9050620036046060830184620024aa565b95945050505050565b5f606082019050620036225f830186620024d6565b818103602083015262003636818562002935565b9050620036476040830184620024aa565b949350505050565b5f6200365c828462003266565b915081905092915050565b5f60ff82169050919050565b6200367e8162003667565b811462003689575f80fd5b50565b5f815190506200369c8162003673565b92915050565b5f620036b8620036b28462002f2d565b62002665565b905082815260208101848484011115620036d757620036d6620025ee565b5b620036e48482856200290b565b509392505050565b5f82601f83011262003703576200370262002502565b5b815162003715848260208601620036a2565b91505092915050565b5f8060408385031215620037375762003736620022c5565b5b5f62003746858286016200368c565b925050602083015167ffffffffffffffff8111156200376a5762003769620022c9565b5b6200377885828601620036ec565b9150509250929050565b5f62003798620037928462002683565b62002665565b905082815260208101848484011115620037b757620037b6620025ee565b5b620037c48482856200290b565b509392505050565b5f82601f830112620037e357620037e262002502565b5b8151620037f584826020860162003782565b91505092915050565b5f815190506200380e81620025bf565b92915050565b5f608082840312156200382c576200382b62002ee3565b5b62003838608062002665565b90505f82015167ffffffffffffffff8111156200385a576200385962002ee7565b5b6200386884828501620037cc565b5f83015250602082015167ffffffffffffffff8111156200388e576200388d62002ee7565b5b6200389c84828501620037cc565b602083015250604082015167ffffffffffffffff811115620038c357620038c262002ee7565b5b620038d184828501620037cc565b6040830152506060620038e784828501620037fe565b60608301525092915050565b5f602082840312156200390b576200390a620022c5565b5b5f82015167ffffffffffffffff8111156200392b576200392a620022c9565b5b620039398482850162003814565b91505092915050565b5f62003958620039528462002742565b62002665565b905080838252602082019050602084028301858111156200397e576200397d6200250a565b5b835b81811015620039ab5780620039968882620037fe565b84526020840193505060208101905062003980565b5050509392505050565b5f82601f830112620039cc57620039cb62002502565b5b8151620039de84826020860162003942565b91505092915050565b5f60808284031215620039ff57620039fe62002ee3565b5b62003a0b608062002665565b90505f62003a1c84828501620037fe565b5f83015250602082015167ffffffffffffffff81111562003a425762003a4162002ee7565b5b62003a5084828501620037cc565b602083015250604082015167ffffffffffffffff81111562003a775762003a7662002ee7565b5b62003a8584828501620039b5565b604083015250606062003a9b84828501620037fe565b60608301525092915050565b5f6020828403121562003abf5762003abe620022c5565b5b5f82015167ffffffffffffffff81111562003adf5762003ade620022c9565b5b62003aed84828501620039e7565b91505092915050565b5f6060828403121562003b0e5762003b0d62002ee3565b5b62003b1a606062002665565b90505f62003b2b84828501620037fe565b5f83015250602062003b408482850162003454565b602083015250604062003b5684828501620037fe565b60408301525092915050565b5f6060828403121562003b7a5762003b79620022c5565b5b5f62003b898482850162003af6565b91505092915050565b5f60a0828403121562003baa5762003ba962002ee3565b5b62003bb660a062002665565b90505f62003bc784828501620037fe565b5f83015250602062003bdc8482850162003454565b602083015250604062003bf284828501620034c5565b604083015250606082015167ffffffffffffffff81111562003c195762003c1862002ee7565b5b62003c2784828501620037cc565b606083015250608062003c3d84828501620037fe565b60808301525092915050565b5f6020828403121562003c615762003c60620022c5565b5b5f82015167ffffffffffffffff81111562003c815762003c80620022c9565b5b62003c8f8482850162003b92565b91505092915050565b5f6080828403121562003cb05762003caf62002ee3565b5b62003cbc608062002665565b90505f62003ccd84828501620037fe565b5f83015250602062003ce28482850162003454565b602083015250604082015167ffffffffffffffff81111562003d095762003d0862002ee7565b5b62003d1784828501620037cc565b604083015250606062003d2d84828501620037fe565b60608301525092915050565b5f6020828403121562003d515762003d50620022c5565b5b5f82015167ffffffffffffffff81111562003d715762003d70620022c9565b5b62003d7f8482850162003c98565b91505092915050565b62003d938162002357565b811462003d9e575f80fd5b50565b5f8151905062003db18162003d88565b92915050565b5f6080828403121562003dcf5762003dce62002ee3565b5b62003ddb608062002665565b90505f62003dec84828501620037fe565b5f83015250602062003e0184828501620034c5565b602083015250604062003e178482850162003da1565b604083015250606062003e2d84828501620037fe565b60608301525092915050565b5f6080828403121562003e515762003e50620022c5565b5b5f62003e608482850162003db7565b91505092915050565b7f496e76616c6964206f7065726174696f6e0000000000000000000000000000005f82015250565b5f62003e9f601183620028fb565b915062003eac8262003e69565b602082019050919050565b5f6020820190508181035f83015262003ed08162003e91565b9050919050565b5f6020601f8301049050919050565b5f82821b905092915050565b5f6008830262003f237fffffffffffffffffffffffffffffffffffffffffffffffffffffffffffffffff8262003ee6565b62003f2f868362003ee6565b95508019841693508086168417925050509392505050565b5f62003f6762003f6162003f5b846200242f565b620023ad565b6200242f565b9050919050565b5f819050919050565b62003f828362003f47565b62003f9a62003f918262003f6e565b84845462003ef2565b825550505050565b5f90565b62003fb062003fa2565b62003fbd81848462003f77565b505050565b5b8181101562003fe45762003fd85f8262003fa6565b60018101905062003fc3565b5050565b601f821115620040335762003ffd8162002deb565b620040088462003ed7565b8101602085101562004018578190505b62004030620040278562003ed7565b83018262003fc2565b50505b505050565b5f82821c905092915050565b5f620040555f198460080262004038565b1980831691505092915050565b5f6200406f838362004044565b9150826002028217905092915050565b6200408a82620028f1565b67ffffffffffffffff811115620040a657620040a562002602565b5b620040b2825462002db7565b620040bf82828562003fe8565b5f60209050601f831160018114620040f5575f8415620040e0578287015190505b620040ec858262004062565b8655506200415b565b601f198416620041058662002deb565b5f5b828110156200412e5784890151825560018201915060208501945060208101905062004107565b868310156200414e57848901516200414a601f89168262004044565b8355505b6001600288020188555050505b505050505050565b5f606082019050620041785f83018662002b95565b62004187602083018562002362565b620041966040830184620024aa565b949350505050565b5f604082019050620041b35f830185620024d6565b620041c26020830184620024d6565b939250505056fe6055604b600b8282823980515f1a607314603f577f4e487b71000000000000000000000000000000000000000000000000000000005f525f60045260245ffd5b305f52607381538281f3fe730000000000000000000000000000000000000000301460806040525f80fdfea26469706673582212209df9652986b01076293c10939908880cec45241d1a497c63e3868057619d98a764736f6c63430008160033a26469706673582212204eb999f9de2aa52c3a06b3b8b221facb88f3a4f1f999690c7d604e547b7cf10864736f6c63430008160033",
			"opcodes": "PUSH1 0xC0 PUSH1 0x40 MSTORE CALLVALUE DUP1 ISZERO PUSH3 0x10 JUMPI PUSH0 DUP1 REVERT JUMPDEST POP PUSH1 0x40 MLOAD PUSH3 0x457E CODESIZE SUB DUP1 PUSH3 0x457E DUP4 CODECOPY DUP2 DUP2 ADD PUSH1 0x40 MSTORE DUP2 ADD SWAP1 PUSH3 0x36 SWAP2 SWAP1 PUSH3 0x237 JUMP JUMPDEST DUP2 PUSH0 PUSH20 0xFFFFFFFFFFFFFFFFFFFFFFFFFFFFFFFFFFFFFFFF AND DUP2 PUSH20 0xFFFFFFFFFFFFFFFFFFFFFFFFFFFFFFFFFFFFFFFF AND SUB PUSH3 0xAA JUMPI PUSH0 PUSH1 0x40 MLOAD PUSH32 0xD7F7333400000000000000000000000000000000000000000000000000000000 DUP2 MSTORE PUSH1 0x4 ADD PUSH3 0xA1 SWAP2 SWAP1 PUSH3 0x28D JUMP JUMPDEST PUSH1 0x40 MLOAD DUP1 SWAP2 SUB SWAP1 REVERT JUMPDEST DUP1 PUSH20 0xFFFFFFFFFFFFFFFFFFFFFFFFFFFFFFFFFFFFFFFF AND PUSH1 0x80 DUP2 PUSH20 0xFFFFFFFFFFFFFFFFFFFFFFFFFFFFFFFFFFFFFFFF AND DUP2 MSTORE POP POP POP DUP1 PUSH1 0xA0 DUP2 DUP2 MSTORE POP POP TIMESTAMP PUSH1 0x2 DUP2 SWAP1 SSTORE POP PUSH0 PUSH1 0x4 DUP2 SWAP1 SSTORE POP PUSH15 0xC2E074EC69A0DFB2997BA6C7D2E1E PUSH0 DUP1 PUSH2 0x100 EXP DUP2 SLOAD DUP2 PUSH20 0xFFFFFFFFFFFFFFFFFFFFFFFFFFFFFFFFFFFFFFFF MUL NOT AND SWAP1 DUP4 PUSH20 0xFFFFFFFFFFFFFFFFFFFFFFFFFFFFFFFFFFFFFFFF AND MUL OR SWAP1 SSTORE POP PUSH15 0xC2E074EC69A0DFB2997BA6C7D2E1E PUSH1 0x1 PUSH0 PUSH2 0x100 EXP DUP2 SLOAD DUP2 PUSH20 0xFFFFFFFFFFFFFFFFFFFFFFFFFFFFFFFFFFFFFFFF MUL NOT AND SWAP1 DUP4 PUSH20 0xFFFFFFFFFFFFFFFFFFFFFFFFFFFFFFFFFFFFFFFF AND MUL OR SWAP1 SSTORE POP POP POP PUSH3 0x2A8 JUMP JUMPDEST PUSH0 DUP1 REVERT JUMPDEST PUSH0 PUSH20 0xFFFFFFFFFFFFFFFFFFFFFFFFFFFFFFFFFFFFFFFF DUP3 AND SWAP1 POP SWAP2 SWAP1 POP JUMP JUMPDEST PUSH0 PUSH3 0x1C9 DUP3 PUSH3 0x19E JUMP JUMPDEST SWAP1 POP SWAP2 SWAP1 POP JUMP JUMPDEST PUSH3 0x1DB DUP2 PUSH3 0x1BD JUMP JUMPDEST DUP2 EQ PUSH3 0x1E6 JUMPI PUSH0 DUP1 REVERT JUMPDEST POP JUMP JUMPDEST PUSH0 DUP2 MLOAD SWAP1 POP PUSH3 0x1F9 DUP2 PUSH3 0x1D0 JUMP JUMPDEST SWAP3 SWAP2 POP POP JUMP JUMPDEST PUSH0 DUP2 SWAP1 POP SWAP2 SWAP1 POP JUMP JUMPDEST PUSH3 0x213 DUP2 PUSH3 0x1FF JUMP JUMPDEST DUP2 EQ PUSH3 0x21E JUMPI PUSH0 DUP1 REVERT JUMPDEST POP JUMP JUMPDEST PUSH0 DUP2 MLOAD SWAP1 POP PUSH3 0x231 DUP2 PUSH3 0x208 JUMP JUMPDEST SWAP3 SWAP2 POP POP JUMP JUMPDEST PUSH0 DUP1 PUSH1 0x40 DUP4 DUP6 SUB SLT ISZERO PUSH3 0x250 JUMPI PUSH3 0x24F PUSH3 0x19A JUMP JUMPDEST JUMPDEST PUSH0 PUSH3 0x25F DUP6 DUP3 DUP7 ADD PUSH3 0x1E9 JUMP JUMPDEST SWAP3 POP POP PUSH1 0x20 PUSH3 0x272 DUP6 DUP3 DUP7 ADD PUSH3 0x221 JUMP JUMPDEST SWAP2 POP POP SWAP3 POP SWAP3 SWAP1 POP JUMP JUMPDEST PUSH3 0x287 DUP2 PUSH3 0x1BD JUMP JUMPDEST DUP3 MSTORE POP POP JUMP JUMPDEST PUSH0 PUSH1 0x20 DUP3 ADD SWAP1 POP PUSH3 0x2A2 PUSH0 DUP4 ADD DUP5 PUSH3 0x27C JUMP JUMPDEST SWAP3 SWAP2 POP POP JUMP JUMPDEST PUSH1 0x80 MLOAD PUSH1 0xA0 MLOAD PUSH2 0x429F PUSH3 0x2DF PUSH0 CODECOPY PUSH0 DUP2 DUP2 PUSH2 0x56A ADD MSTORE DUP2 DUP2 PUSH2 0xAA0 ADD MSTORE PUSH2 0xD2E ADD MSTORE PUSH0 DUP2 DUP2 PUSH2 0xB0F ADD MSTORE PUSH2 0xD74 ADD MSTORE PUSH2 0x429F PUSH0 RETURN INVALID PUSH1 0x80 PUSH1 0x40 MSTORE CALLVALUE DUP1 ISZERO PUSH3 0x10 JUMPI PUSH0 DUP1 REVERT JUMPDEST POP PUSH1 0x4 CALLDATASIZE LT PUSH3 0x146 JUMPI PUSH0 CALLDATALOAD PUSH1 0xE0 SHR DUP1 PUSH4 0x7B103999 GT PUSH3 0xBB JUMPI DUP1 PUSH4 0xB0F479A1 GT PUSH3 0x79 JUMPI DUP1 PUSH4 0xB0F479A1 EQ PUSH3 0x38F JUMPI DUP1 PUSH4 0xB9B34E4D EQ PUSH3 0x3B1 JUMPI DUP1 PUSH4 0xBC7DBB22 EQ PUSH3 0x3D1 JUMPI DUP1 PUSH4 0xC84D7A0F EQ PUSH3 0x3F3 JUMPI DUP1 PUSH4 0xDF8288EC EQ PUSH3 0x413 JUMPI PUSH3 0x146 JUMP JUMPDEST DUP1 PUSH4 0x7B103999 EQ PUSH3 0x2D5 JUMPI DUP1 PUSH4 0x85572FFB EQ PUSH3 0x2F7 JUMPI DUP1 PUSH4 0x924112F6 EQ PUSH3 0x317 JUMPI DUP1 PUSH4 0x947A36FB EQ PUSH3 0x337 JUMPI DUP1 PUSH4 0xAC1D45C5 EQ PUSH3 0x359 JUMPI PUSH3 0x146 JUMP JUMPDEST DUP1 PUSH4 0x4585E33B GT PUSH3 0x109 JUMPI DUP1 PUSH4 0x4585E33B EQ PUSH3 0x21C JUMPI DUP1 PUSH4 0x55D2C1C3 EQ PUSH3 0x23C JUMPI DUP1 PUSH4 0x605524B2 EQ PUSH3 0x25C JUMPI DUP1 PUSH4 0x6C18F84B EQ PUSH3 0x27C JUMPI DUP1 PUSH4 0x6E04FF0D EQ PUSH3 0x29E JUMPI PUSH3 0x146 JUMP JUMPDEST DUP1 PUSH4 0x1FFC9A7 EQ PUSH3 0x14A JUMPI DUP1 PUSH4 0x4F3BCEC EQ PUSH3 0x180 JUMPI DUP1 PUSH4 0x195B684F EQ PUSH3 0x1A2 JUMPI DUP1 PUSH4 0x1D4A1D10 EQ PUSH3 0x1D8 JUMPI DUP1 PUSH4 0x3F3B3B27 EQ PUSH3 0x1FA JUMPI JUMPDEST PUSH0 DUP1 REVERT JUMPDEST PUSH3 0x168 PUSH1 0x4 DUP1 CALLDATASIZE SUB DUP2 ADD SWAP1 PUSH3 0x162 SWAP2 SWAP1 PUSH3 0x2327 JUMP JUMPDEST PUSH3 0x435 JUMP JUMPDEST PUSH1 0x40 MLOAD PUSH3 0x177 SWAP2 SWAP1 PUSH3 0x2373 JUMP JUMPDEST PUSH1 0x40 MLOAD DUP1 SWAP2 SUB SWAP1 RETURN JUMPDEST PUSH3 0x18A PUSH3 0x507 JUMP JUMPDEST PUSH1 0x40 MLOAD PUSH3 0x199 SWAP2 SWAP1 PUSH3 0x2414 JUMP JUMPDEST PUSH1 0x40 MLOAD DUP1 SWAP2 SUB SWAP1 RETURN JUMPDEST PUSH3 0x1C0 PUSH1 0x4 DUP1 CALLDATASIZE SUB DUP2 ADD SWAP1 PUSH3 0x1BA SWAP2 SWAP1 PUSH3 0x2467 JUMP JUMPDEST PUSH3 0x52C JUMP JUMPDEST PUSH1 0x40 MLOAD PUSH3 0x1CF SWAP2 SWAP1 PUSH3 0x24BB JUMP JUMPDEST PUSH1 0x40 MLOAD DUP1 SWAP2 SUB SWAP1 RETURN JUMPDEST PUSH3 0x1E2 PUSH3 0x55C JUMP JUMPDEST PUSH1 0x40 MLOAD PUSH3 0x1F1 SWAP2 SWAP1 PUSH3 0x24E7 JUMP JUMPDEST PUSH1 0x40 MLOAD DUP1 SWAP2 SUB SWAP1 RETURN JUMPDEST PUSH3 0x204 PUSH3 0x562 JUMP JUMPDEST PUSH1 0x40 MLOAD PUSH3 0x213 SWAP2 SWAP1 PUSH3 0x24E7 JUMP JUMPDEST PUSH1 0x40 MLOAD DUP1 SWAP2 SUB SWAP1 RETURN JUMPDEST PUSH3 0x23A PUSH1 0x4 DUP1 CALLDATASIZE SUB DUP2 ADD SWAP1 PUSH3 0x234 SWAP2 SWAP1 PUSH3 0x256C JUMP JUMPDEST PUSH3 0x568 JUMP JUMPDEST STOP JUMPDEST PUSH3 0x25A PUSH1 0x4 DUP1 CALLDATASIZE SUB DUP2 ADD SWAP1 PUSH3 0x254 SWAP2 SWAP1 PUSH3 0x2815 JUMP JUMPDEST PUSH3 0x8A1 JUMP JUMPDEST STOP JUMPDEST PUSH3 0x27A PUSH1 0x4 DUP1 CALLDATASIZE SUB DUP2 ADD SWAP1 PUSH3 0x274 SWAP2 SWAP1 PUSH3 0x28AC JUMP JUMPDEST PUSH3 0x955 JUMP JUMPDEST STOP JUMPDEST PUSH3 0x286 PUSH3 0xA62 JUMP JUMPDEST PUSH1 0x40 MLOAD PUSH3 0x295 SWAP2 SWAP1 PUSH3 0x2975 JUMP JUMPDEST PUSH1 0x40 MLOAD DUP1 SWAP2 SUB SWAP1 RETURN JUMPDEST PUSH3 0x2BC PUSH1 0x4 DUP1 CALLDATASIZE SUB DUP2 ADD SWAP1 PUSH3 0x2B6 SWAP2 SWAP1 PUSH3 0x256C JUMP JUMPDEST PUSH3 0xA9B JUMP JUMPDEST PUSH1 0x40 MLOAD PUSH3 0x2CC SWAP3 SWAP2 SWAP1 PUSH3 0x29F1 JUMP JUMPDEST PUSH1 0x40 MLOAD DUP1 SWAP2 SUB SWAP1 RETURN JUMPDEST PUSH3 0x2DF PUSH3 0xAEA JUMP JUMPDEST PUSH1 0x40 MLOAD PUSH3 0x2EE SWAP2 SWAP1 PUSH3 0x2A47 JUMP JUMPDEST PUSH1 0x40 MLOAD DUP1 SWAP2 SUB SWAP1 RETURN JUMPDEST PUSH3 0x315 PUSH1 0x4 DUP1 CALLDATASIZE SUB DUP2 ADD SWAP1 PUSH3 0x30F SWAP2 SWAP1 PUSH3 0x2A87 JUMP JUMPDEST PUSH3 0xB0D JUMP JUMPDEST STOP JUMPDEST PUSH3 0x335 PUSH1 0x4 DUP1 CALLDATASIZE SUB DUP2 ADD SWAP1 PUSH3 0x32F SWAP2 SWAP1 PUSH3 0x2AD6 JUMP JUMPDEST PUSH3 0xBB9 JUMP JUMPDEST STOP JUMPDEST PUSH3 0x341 PUSH3 0xD2C JUMP JUMPDEST PUSH1 0x40 MLOAD PUSH3 0x350 SWAP2 SWAP1 PUSH3 0x24E7 JUMP JUMPDEST PUSH1 0x40 MLOAD DUP1 SWAP2 SUB SWAP1 RETURN JUMPDEST PUSH3 0x377 PUSH1 0x4 DUP1 CALLDATASIZE SUB DUP2 ADD SWAP1 PUSH3 0x371 SWAP2 SWAP1 PUSH3 0x2467 JUMP JUMPDEST PUSH3 0xD50 JUMP JUMPDEST PUSH1 0x40 MLOAD PUSH3 0x386 SWAP2 SWAP1 PUSH3 0x2BA6 JUMP JUMPDEST PUSH1 0x40 MLOAD DUP1 SWAP2 SUB SWAP1 RETURN JUMPDEST PUSH3 0x399 PUSH3 0xD71 JUMP JUMPDEST PUSH1 0x40 MLOAD PUSH3 0x3A8 SWAP2 SWAP1 PUSH3 0x24BB JUMP JUMPDEST PUSH1 0x40 MLOAD DUP1 SWAP2 SUB SWAP1 RETURN JUMPDEST PUSH3 0x3CF PUSH1 0x4 DUP1 CALLDATASIZE SUB DUP2 ADD SWAP1 PUSH3 0x3C9 SWAP2 SWAP1 PUSH3 0x2BF0 JUMP JUMPDEST PUSH3 0xD98 JUMP JUMPDEST STOP JUMPDEST PUSH3 0x3DB PUSH3 0xE97 JUMP JUMPDEST PUSH1 0x40 MLOAD PUSH3 0x3EA SWAP2 SWAP1 PUSH3 0x2BA6 JUMP JUMPDEST PUSH1 0x40 MLOAD DUP1 SWAP2 SUB SWAP1 RETURN JUMPDEST PUSH3 0x411 PUSH1 0x4 DUP1 CALLDATASIZE SUB DUP2 ADD SWAP1 PUSH3 0x40B SWAP2 SWAP1 PUSH3 0x2C7E JUMP JUMPDEST PUSH3 0xE9D JUMP JUMPDEST STOP JUMPDEST PUSH3 0x41D PUSH3 0xF9D JUMP JUMPDEST PUSH1 0x40 MLOAD PUSH3 0x42C SWAP2 SWAP1 PUSH3 0x2975 JUMP JUMPDEST PUSH1 0x40 MLOAD DUP1 SWAP2 SUB SWAP1 RETURN JUMPDEST PUSH0 PUSH32 0x85572FFB00000000000000000000000000000000000000000000000000000000 PUSH28 0xFFFFFFFFFFFFFFFFFFFFFFFFFFFFFFFFFFFFFFFFFFFFFFFFFFFFFFFF NOT AND DUP3 PUSH28 0xFFFFFFFFFFFFFFFFFFFFFFFFFFFFFFFFFFFFFFFFFFFFFFFFFFFFFFFF NOT AND EQ DUP1 PUSH3 0x500 JUMPI POP PUSH32 0x1FFC9A700000000000000000000000000000000000000000000000000000000 PUSH28 0xFFFFFFFFFFFFFFFFFFFFFFFFFFFFFFFFFFFFFFFFFFFFFFFFFFFFFFFF NOT AND DUP3 PUSH28 0xFFFFFFFFFFFFFFFFFFFFFFFFFFFFFFFFFFFFFFFFFFFFFFFFFFFFFFFF NOT AND EQ JUMPDEST SWAP1 POP SWAP2 SWAP1 POP JUMP JUMPDEST PUSH1 0x1 PUSH0 SWAP1 SLOAD SWAP1 PUSH2 0x100 EXP SWAP1 DIV PUSH20 0xFFFFFFFFFFFFFFFFFFFFFFFFFFFFFFFFFFFFFFFF AND DUP2 JUMP JUMPDEST PUSH1 0x5 PUSH1 0x20 MSTORE DUP1 PUSH0 MSTORE PUSH1 0x40 PUSH0 KECCAK256 PUSH0 SWAP2 POP SLOAD SWAP1 PUSH2 0x100 EXP SWAP1 DIV PUSH20 0xFFFFFFFFFFFFFFFFFFFFFFFFFFFFFFFFFFFFFFFF AND DUP2 JUMP JUMPDEST PUSH1 0x4 SLOAD DUP2 JUMP JUMPDEST PUSH1 0x2 SLOAD DUP2 JUMP JUMPDEST PUSH32 0x0 PUSH1 0x2 SLOAD TIMESTAMP PUSH3 0x599 SWAP2 SWAP1 PUSH3 0x2D23 JUMP JUMPDEST GT DUP1 ISZERO PUSH3 0x5AB JUMPI POP PUSH0 PUSH1 0x3 DUP1 SLOAD SWAP1 POP GT JUMPDEST ISZERO PUSH3 0x89D JUMPI PUSH0 PUSH1 0x3 DUP1 SLOAD SWAP1 POP PUSH8 0xFFFFFFFFFFFFFFFF DUP2 GT ISZERO PUSH3 0x5D4 JUMPI PUSH3 0x5D3 PUSH3 0x2602 JUMP JUMPDEST JUMPDEST PUSH1 0x40 MLOAD SWAP1 DUP1 DUP3 MSTORE DUP1 PUSH1 0x20 MUL PUSH1 0x20 ADD DUP3 ADD PUSH1 0x40 MSTORE DUP1 ISZERO PUSH3 0x603 JUMPI DUP2 PUSH1 0x20 ADD PUSH1 0x20 DUP3 MUL DUP1 CALLDATASIZE DUP4 CALLDATACOPY DUP1 DUP3 ADD SWAP2 POP POP SWAP1 POP JUMPDEST POP SWAP1 POP PUSH0 JUMPDEST PUSH1 0x3 DUP1 SLOAD SWAP1 POP DUP2 LT ISZERO PUSH3 0x82E JUMPI PUSH0 PUSH3 0x641 PUSH1 0x3 DUP4 DUP2 SLOAD DUP2 LT PUSH3 0x632 JUMPI PUSH3 0x631 PUSH3 0x2D5D JUMP JUMPDEST JUMPDEST SWAP1 PUSH0 MSTORE PUSH1 0x20 PUSH0 KECCAK256 ADD SLOAD PUSH3 0xFD6 JUMP JUMPDEST SWAP1 POP PUSH0 PUSH1 0x6 PUSH0 PUSH1 0x3 DUP6 DUP2 SLOAD DUP2 LT PUSH3 0x65E JUMPI PUSH3 0x65D PUSH3 0x2D5D JUMP JUMPDEST JUMPDEST SWAP1 PUSH0 MSTORE PUSH1 0x20 PUSH0 KECCAK256 ADD SLOAD DUP2 MSTORE PUSH1 0x20 ADD SWAP1 DUP2 MSTORE PUSH1 0x20 ADD PUSH0 KECCAK256 SWAP1 POP DUP2 PUSH20 0xFFFFFFFFFFFFFFFFFFFFFFFFFFFFFFFFFFFFFFFF AND PUSH4 0x7D836512 DUP3 PUSH1 0x3 ADD PUSH0 SWAP1 SLOAD SWAP1 PUSH2 0x100 EXP SWAP1 DIV PUSH20 0xFFFFFFFFFFFFFFFFFFFFFFFFFFFFFFFFFFFFFFFF AND DUP4 PUSH1 0x1 ADD ADDRESS DUP6 PUSH0 ADD PUSH1 0x40 MLOAD DUP6 PUSH4 0xFFFFFFFF AND PUSH1 0xE0 SHL DUP2 MSTORE PUSH1 0x4 ADD PUSH3 0x6DF SWAP5 SWAP4 SWAP3 SWAP2 SWAP1 PUSH3 0x2E8A JUMP JUMPDEST PUSH0 PUSH1 0x40 MLOAD DUP1 DUP4 SUB DUP2 PUSH0 DUP8 DUP1 EXTCODESIZE ISZERO DUP1 ISZERO PUSH3 0x6F7 JUMPI PUSH0 DUP1 REVERT JUMPDEST POP GAS CALL ISZERO DUP1 ISZERO PUSH3 0x70A JUMPI RETURNDATASIZE PUSH0 DUP1 RETURNDATACOPY RETURNDATASIZE PUSH0 REVERT JUMPDEST POP POP POP POP DUP2 PUSH1 0x5 PUSH0 PUSH1 0x4 SLOAD DUP2 MSTORE PUSH1 0x20 ADD SWAP1 DUP2 MSTORE PUSH1 0x20 ADD PUSH0 KECCAK256 PUSH0 PUSH2 0x100 EXP DUP2 SLOAD DUP2 PUSH20 0xFFFFFFFFFFFFFFFFFFFFFFFFFFFFFFFFFFFFFFFF MUL NOT AND SWAP1 DUP4 PUSH20 0xFFFFFFFFFFFFFFFFFFFFFFFFFFFFFFFFFFFFFFFF AND MUL OR SWAP1 SSTORE POP DUP1 PUSH1 0x3 ADD PUSH0 SWAP1 SLOAD SWAP1 PUSH2 0x100 EXP SWAP1 DIV PUSH20 0xFFFFFFFFFFFFFFFFFFFFFFFFFFFFFFFFFFFFFFFF AND PUSH20 0xFFFFFFFFFFFFFFFFFFFFFFFFFFFFFFFFFFFFFFFF AND DUP3 PUSH20 0xFFFFFFFFFFFFFFFFFFFFFFFFFFFFFFFFFFFFFFFF AND PUSH32 0x73E3B750B5363C0E9EA67DFE0608C7C179275DB2AB29FFAA470D9FD2FF4EE4AD PUSH1 0x40 MLOAD PUSH1 0x40 MLOAD DUP1 SWAP2 SUB SWAP1 LOG3 PUSH1 0x3 DUP4 DUP2 SLOAD DUP2 LT PUSH3 0x7F3 JUMPI PUSH3 0x7F2 PUSH3 0x2D5D JUMP JUMPDEST JUMPDEST SWAP1 PUSH0 MSTORE PUSH1 0x20 PUSH0 KECCAK256 ADD SLOAD DUP5 DUP5 DUP2 MLOAD DUP2 LT PUSH3 0x812 JUMPI PUSH3 0x811 PUSH3 0x2D5D JUMP JUMPDEST JUMPDEST PUSH1 0x20 MUL PUSH1 0x20 ADD ADD DUP2 DUP2 MSTORE POP POP POP POP DUP1 DUP1 PUSH1 0x1 ADD SWAP2 POP POP PUSH3 0x608 JUMP JUMPDEST POP PUSH0 PUSH8 0xFFFFFFFFFFFFFFFF DUP2 GT ISZERO PUSH3 0x84C JUMPI PUSH3 0x84B PUSH3 0x2602 JUMP JUMPDEST JUMPDEST PUSH1 0x40 MLOAD SWAP1 DUP1 DUP3 MSTORE DUP1 PUSH1 0x20 MUL PUSH1 0x20 ADD DUP3 ADD PUSH1 0x40 MSTORE DUP1 ISZERO PUSH3 0x87B JUMPI DUP2 PUSH1 0x20 ADD PUSH1 0x20 DUP3 MUL DUP1 CALLDATASIZE DUP4 CALLDATACOPY DUP1 DUP3 ADD SWAP2 POP POP SWAP1 POP JUMPDEST POP PUSH1 0x3 SWAP1 DUP1 MLOAD SWAP1 PUSH1 0x20 ADD SWAP1 PUSH3 0x893 SWAP3 SWAP2 SWAP1 PUSH3 0x21C3 JUMP JUMPDEST POP TIMESTAMP PUSH1 0x2 DUP2 SWAP1 SSTORE POP POP JUMPDEST POP POP JUMP JUMPDEST PUSH0 PUSH1 0x40 MLOAD DUP1 PUSH2 0x140 ADD PUSH1 0x40 MSTORE DUP1 DUP5 DUP2 MSTORE PUSH1 0x20 ADD PUSH1 0x40 MLOAD DUP1 PUSH1 0x20 ADD PUSH1 0x40 MSTORE DUP1 PUSH0 DUP2 MSTORE POP DUP2 MSTORE PUSH1 0x20 ADD DUP6 PUSH20 0xFFFFFFFFFFFFFFFFFFFFFFFFFFFFFFFFFFFFFFFF AND DUP2 MSTORE PUSH1 0x20 ADD DUP4 DUP2 MSTORE PUSH1 0x20 ADD PUSH0 DUP2 MSTORE PUSH1 0x20 ADD PUSH0 DUP1 SHL DUP2 MSTORE PUSH1 0x20 ADD PUSH1 0x40 MLOAD DUP1 PUSH1 0x20 ADD PUSH1 0x40 MSTORE DUP1 PUSH0 DUP2 MSTORE POP DUP2 MSTORE PUSH1 0x20 ADD CALLER PUSH20 0xFFFFFFFFFFFFFFFFFFFFFFFFFFFFFFFFFFFFFFFF AND DUP2 MSTORE PUSH1 0x20 ADD PUSH1 0x40 MLOAD DUP1 PUSH1 0x20 ADD PUSH1 0x40 MSTORE DUP1 PUSH0 DUP2 MSTORE POP DUP2 MSTORE PUSH1 0x20 ADD PUSH0 ISZERO ISZERO DUP2 MSTORE POP SWAP1 POP PUSH3 0x94F DUP2 PUSH3 0xFEE JUMP JUMPDEST POP POP POP POP JUMP JUMPDEST PUSH0 PUSH1 0x40 MLOAD DUP1 PUSH2 0x140 ADD PUSH1 0x40 MSTORE DUP1 PUSH1 0x40 MLOAD DUP1 PUSH1 0x20 ADD PUSH1 0x40 MSTORE DUP1 PUSH0 DUP2 MSTORE POP DUP2 MSTORE PUSH1 0x20 ADD PUSH1 0x40 MLOAD DUP1 PUSH1 0x20 ADD PUSH1 0x40 MSTORE DUP1 PUSH0 DUP2 MSTORE POP DUP2 MSTORE PUSH1 0x20 ADD DUP5 PUSH20 0xFFFFFFFFFFFFFFFFFFFFFFFFFFFFFFFFFFFFFFFF AND DUP2 MSTORE PUSH1 0x20 ADD PUSH0 PUSH8 0xFFFFFFFFFFFFFFFF DUP2 GT ISZERO PUSH3 0x9C3 JUMPI PUSH3 0x9C2 PUSH3 0x2602 JUMP JUMPDEST JUMPDEST PUSH1 0x40 MLOAD SWAP1 DUP1 DUP3 MSTORE DUP1 PUSH1 0x20 MUL PUSH1 0x20 ADD DUP3 ADD PUSH1 0x40 MSTORE DUP1 ISZERO PUSH3 0x9F2 JUMPI DUP2 PUSH1 0x20 ADD PUSH1 0x20 DUP3 MUL DUP1 CALLDATASIZE DUP4 CALLDATACOPY DUP1 DUP3 ADD SWAP2 POP POP SWAP1 POP JUMPDEST POP DUP2 MSTORE PUSH1 0x20 ADD DUP4 DUP2 MSTORE PUSH1 0x20 ADD PUSH0 DUP1 SHL DUP2 MSTORE PUSH1 0x20 ADD PUSH1 0x40 MLOAD DUP1 PUSH1 0x20 ADD PUSH1 0x40 MSTORE DUP1 PUSH0 DUP2 MSTORE POP DUP2 MSTORE PUSH1 0x20 ADD CALLER PUSH20 0xFFFFFFFFFFFFFFFFFFFFFFFFFFFFFFFFFFFFFFFF AND DUP2 MSTORE PUSH1 0x20 ADD PUSH1 0x40 MLOAD DUP1 PUSH1 0x20 ADD PUSH1 0x40 MSTORE DUP1 PUSH0 DUP2 MSTORE POP DUP2 MSTORE PUSH1 0x20 ADD PUSH0 ISZERO ISZERO DUP2 MSTORE POP SWAP1 POP PUSH3 0xA5D DUP2 PUSH3 0x10EE JUMP JUMPDEST POP POP POP JUMP JUMPDEST PUSH1 0x40 MLOAD DUP1 PUSH1 0x40 ADD PUSH1 0x40 MSTORE DUP1 PUSH1 0x9 DUP2 MSTORE PUSH1 0x20 ADD PUSH32 0x736F756E64686572650000000000000000000000000000000000000000000000 DUP2 MSTORE POP DUP2 JUMP JUMPDEST PUSH0 PUSH1 0x60 PUSH32 0x0 PUSH1 0x2 SLOAD TIMESTAMP PUSH3 0xACF SWAP2 SWAP1 PUSH3 0x2D23 JUMP JUMPDEST GT DUP1 ISZERO PUSH3 0xAE1 JUMPI POP PUSH0 PUSH1 0x3 DUP1 SLOAD SWAP1 POP GT JUMPDEST SWAP2 POP SWAP3 POP SWAP3 SWAP1 POP JUMP JUMPDEST PUSH0 DUP1 SLOAD SWAP1 PUSH2 0x100 EXP SWAP1 DIV PUSH20 0xFFFFFFFFFFFFFFFFFFFFFFFFFFFFFFFFFFFFFFFF AND DUP2 JUMP JUMPDEST PUSH32 0x0 PUSH20 0xFFFFFFFFFFFFFFFFFFFFFFFFFFFFFFFFFFFFFFFF AND CALLER PUSH20 0xFFFFFFFFFFFFFFFFFFFFFFFFFFFFFFFFFFFFFFFF AND EQ PUSH3 0xBA0 JUMPI CALLER PUSH1 0x40 MLOAD PUSH32 0xD7F7333400000000000000000000000000000000000000000000000000000000 DUP2 MSTORE PUSH1 0x4 ADD PUSH3 0xB97 SWAP2 SWAP1 PUSH3 0x24BB JUMP JUMPDEST PUSH1 0x40 MLOAD DUP1 SWAP2 SUB SWAP1 REVERT JUMPDEST PUSH3 0xBB6 DUP2 PUSH3 0xBB0 SWAP1 PUSH3 0x31FC JUMP JUMPDEST PUSH3 0x11CE JUMP JUMPDEST POP JUMP JUMPDEST PUSH0 DUP4 PUSH1 0x4 PUSH0 DUP2 SLOAD PUSH3 0xBCB SWAP1 PUSH3 0x3210 JUMP JUMPDEST SWAP2 SWAP1 POP DUP2 SWAP1 SSTORE PUSH1 0x40 MLOAD PUSH1 0x20 ADD PUSH3 0xBE4 SWAP3 SWAP2 SWAP1 PUSH3 0x32C0 JUMP JUMPDEST PUSH1 0x40 MLOAD PUSH1 0x20 DUP2 DUP4 SUB SUB DUP2 MSTORE SWAP1 PUSH1 0x40 MSTORE DUP1 MLOAD SWAP1 PUSH1 0x20 ADD KECCAK256 SWAP1 POP PUSH0 PUSH3 0xC08 DUP3 PUSH3 0xFD6 JUMP JUMPDEST SWAP1 POP DUP1 PUSH20 0xFFFFFFFFFFFFFFFFFFFFFFFFFFFFFFFFFFFFFFFF AND PUSH4 0x7D836512 CALLER DUP8 ADDRESS DUP8 PUSH1 0x40 MLOAD DUP6 PUSH4 0xFFFFFFFF AND PUSH1 0xE0 SHL DUP2 MSTORE PUSH1 0x4 ADD PUSH3 0xC4B SWAP5 SWAP4 SWAP3 SWAP2 SWAP1 PUSH3 0x32EB JUMP JUMPDEST PUSH0 PUSH1 0x40 MLOAD DUP1 DUP4 SUB DUP2 PUSH0 DUP8 DUP1 EXTCODESIZE ISZERO DUP1 ISZERO PUSH3 0xC63 JUMPI PUSH0 DUP1 REVERT JUMPDEST POP GAS CALL ISZERO DUP1 ISZERO PUSH3 0xC76 JUMPI RETURNDATASIZE PUSH0 DUP1 RETURNDATACOPY RETURNDATASIZE PUSH0 REVERT JUMPDEST POP POP POP POP DUP1 PUSH1 0x5 PUSH0 PUSH1 0x4 SLOAD DUP2 MSTORE PUSH1 0x20 ADD SWAP1 DUP2 MSTORE PUSH1 0x20 ADD PUSH0 KECCAK256 PUSH0 PUSH2 0x100 EXP DUP2 SLOAD DUP2 PUSH20 0xFFFFFFFFFFFFFFFFFFFFFFFFFFFFFFFFFFFFFFFF MUL NOT AND SWAP1 DUP4 PUSH20 0xFFFFFFFFFFFFFFFFFFFFFFFFFFFFFFFFFFFFFFFF AND MUL OR SWAP1 SSTORE POP CALLER PUSH20 0xFFFFFFFFFFFFFFFFFFFFFFFFFFFFFFFFFFFFFFFF AND DUP2 PUSH20 0xFFFFFFFFFFFFFFFFFFFFFFFFFFFFFFFFFFFFFFFF AND PUSH32 0x73E3B750B5363C0E9EA67DFE0608C7C179275DB2AB29FFAA470D9FD2FF4EE4AD PUSH1 0x40 MLOAD PUSH1 0x40 MLOAD DUP1 SWAP2 SUB SWAP1 LOG3 POP POP POP POP POP JUMP JUMPDEST PUSH32 0x0 DUP2 JUMP JUMPDEST PUSH1 0x3 DUP2 DUP2 SLOAD DUP2 LT PUSH3 0xD60 JUMPI PUSH0 DUP1 REVERT JUMPDEST SWAP1 PUSH0 MSTORE PUSH1 0x20 PUSH0 KECCAK256 ADD PUSH0 SWAP2 POP SWAP1 POP SLOAD DUP2 JUMP JUMPDEST PUSH0 PUSH32 0x0 SWAP1 POP SWAP1 JUMP JUMPDEST PUSH0 PUSH1 0x40 MLOAD DUP1 PUSH2 0x140 ADD PUSH1 0x40 MSTORE DUP1 PUSH1 0x40 MLOAD DUP1 PUSH1 0x20 ADD PUSH1 0x40 MSTORE DUP1 PUSH0 DUP2 MSTORE POP DUP2 MSTORE PUSH1 0x20 ADD PUSH1 0x40 MLOAD DUP1 PUSH1 0x20 ADD PUSH1 0x40 MSTORE DUP1 PUSH0 DUP2 MSTORE POP DUP2 MSTORE PUSH1 0x20 ADD DUP7 PUSH20 0xFFFFFFFFFFFFFFFFFFFFFFFFFFFFFFFFFFFFFFFF AND DUP2 MSTORE PUSH1 0x20 ADD PUSH0 PUSH8 0xFFFFFFFFFFFFFFFF DUP2 GT ISZERO PUSH3 0xE06 JUMPI PUSH3 0xE05 PUSH3 0x2602 JUMP JUMPDEST JUMPDEST PUSH1 0x40 MLOAD SWAP1 DUP1 DUP3 MSTORE DUP1 PUSH1 0x20 MUL PUSH1 0x20 ADD DUP3 ADD PUSH1 0x40 MSTORE DUP1 ISZERO PUSH3 0xE35 JUMPI DUP2 PUSH1 0x20 ADD PUSH1 0x20 DUP3 MUL DUP1 CALLDATASIZE DUP4 CALLDATACOPY DUP1 DUP3 ADD SWAP2 POP POP SWAP1 POP JUMPDEST POP DUP2 MSTORE PUSH1 0x20 ADD DUP6 DUP2 MSTORE PUSH1 0x20 ADD DUP5 DUP2 MSTORE PUSH1 0x20 ADD DUP4 DUP2 MSTORE PUSH1 0x20 ADD CALLER PUSH20 0xFFFFFFFFFFFFFFFFFFFFFFFFFFFFFFFFFFFFFFFF AND DUP2 MSTORE PUSH1 0x20 ADD PUSH1 0x40 MLOAD DUP1 PUSH1 0x20 ADD PUSH1 0x40 MSTORE DUP1 PUSH0 DUP2 MSTORE POP DUP2 MSTORE PUSH1 0x20 ADD PUSH0 ISZERO ISZERO DUP2 MSTORE POP SWAP1 POP PUSH3 0xE90 DUP2 PUSH3 0x13C0 JUMP JUMPDEST POP POP POP POP POP JUMP JUMPDEST PUSH0 DUP1 SHL DUP2 JUMP JUMPDEST PUSH0 PUSH1 0x40 MLOAD DUP1 PUSH2 0x140 ADD PUSH1 0x40 MSTORE DUP1 PUSH1 0x40 MLOAD DUP1 PUSH1 0x20 ADD PUSH1 0x40 MSTORE DUP1 PUSH0 DUP2 MSTORE POP DUP2 MSTORE PUSH1 0x20 ADD PUSH1 0x40 MLOAD DUP1 PUSH1 0x20 ADD PUSH1 0x40 MSTORE DUP1 PUSH0 DUP2 MSTORE POP DUP2 MSTORE PUSH1 0x20 ADD DUP6 PUSH20 0xFFFFFFFFFFFFFFFFFFFFFFFFFFFFFFFFFFFFFFFF AND DUP2 MSTORE PUSH1 0x20 ADD PUSH0 PUSH8 0xFFFFFFFFFFFFFFFF DUP2 GT ISZERO PUSH3 0xF0B JUMPI PUSH3 0xF0A PUSH3 0x2602 JUMP JUMPDEST JUMPDEST PUSH1 0x40 MLOAD SWAP1 DUP1 DUP3 MSTORE DUP1 PUSH1 0x20 MUL PUSH1 0x20 ADD DUP3 ADD PUSH1 0x40 MSTORE DUP1 ISZERO PUSH3 0xF3A JUMPI DUP2 PUSH1 0x20 ADD PUSH1 0x20 DUP3 MUL DUP1 CALLDATASIZE DUP4 CALLDATACOPY DUP1 DUP3 ADD SWAP2 POP POP SWAP1 POP JUMPDEST POP DUP2 MSTORE PUSH1 0x20 ADD DUP4 DUP2 MSTORE PUSH1 0x20 ADD PUSH0 DUP1 SHL DUP2 MSTORE PUSH1 0x20 ADD PUSH1 0x40 MLOAD DUP1 PUSH1 0x20 ADD PUSH1 0x40 MSTORE DUP1 PUSH0 DUP2 MSTORE POP DUP2 MSTORE PUSH1 0x20 ADD CALLER PUSH20 0xFFFFFFFFFFFFFFFFFFFFFFFFFFFFFFFFFFFFFFFF AND DUP2 MSTORE PUSH1 0x20 ADD DUP5 DUP2 MSTORE PUSH1 0x20 ADD PUSH0 ISZERO ISZERO DUP2 MSTORE POP SWAP1 POP PUSH3 0xF97 DUP2 PUSH3 0x1498 JUMP JUMPDEST POP POP POP POP JUMP JUMPDEST PUSH1 0x40 MLOAD DUP1 PUSH1 0x40 ADD PUSH1 0x40 MSTORE DUP1 PUSH1 0x5 DUP2 MSTORE PUSH1 0x20 ADD PUSH32 0x2E74657374000000000000000000000000000000000000000000000000000000 DUP2 MSTORE POP DUP2 JUMP JUMPDEST PUSH0 DUP1 PUSH3 0xFE3 DUP4 PUSH3 0x159E JUMP JUMPDEST SWAP1 POP DUP1 SWAP2 POP POP SWAP2 SWAP1 POP JUMP JUMPDEST PUSH0 DUP2 PUSH1 0x40 ADD MLOAD SWAP1 POP PUSH0 DUP2 PUSH20 0xFFFFFFFFFFFFFFFFFFFFFFFFFFFFFFFFFFFFFFFF AND PUSH4 0xBDFCF4E8 DUP5 PUSH0 ADD MLOAD DUP6 PUSH1 0x60 ADD MLOAD DUP7 PUSH1 0xE0 ADD MLOAD PUSH1 0x40 MLOAD DUP5 PUSH4 0xFFFFFFFF AND PUSH1 0xE0 SHL DUP2 MSTORE PUSH1 0x4 ADD PUSH3 0x1041 SWAP4 SWAP3 SWAP2 SWAP1 PUSH3 0x340B JUMP JUMPDEST PUSH1 0x20 PUSH1 0x40 MLOAD DUP1 DUP4 SUB DUP2 PUSH0 DUP8 GAS CALL ISZERO DUP1 ISZERO PUSH3 0x105E JUMPI RETURNDATASIZE PUSH0 DUP1 RETURNDATACOPY RETURNDATASIZE PUSH0 REVERT JUMPDEST POP POP POP POP PUSH1 0x40 MLOAD RETURNDATASIZE PUSH1 0x1F NOT PUSH1 0x1F DUP3 ADD AND DUP3 ADD DUP1 PUSH1 0x40 MSTORE POP DUP2 ADD SWAP1 PUSH3 0x1084 SWAP2 SWAP1 PUSH3 0x346A JUMP JUMPDEST SWAP1 POP DUP3 PUSH1 0xE0 ADD MLOAD PUSH20 0xFFFFFFFFFFFFFFFFFFFFFFFFFFFFFFFFFFFFFFFF AND DUP2 DUP5 PUSH1 0x40 ADD MLOAD PUSH20 0xFFFFFFFFFFFFFFFFFFFFFFFFFFFFFFFFFFFFFFFF AND PUSH32 0xAE4CB8AC7B5D402355925F7050BAA45DBEF07A739662120A895D7981704CCF1 PUSH1 0x40 MLOAD PUSH1 0x40 MLOAD DUP1 SWAP2 SUB SWAP1 LOG4 POP POP POP JUMP JUMPDEST PUSH0 DUP2 PUSH1 0x40 ADD MLOAD SWAP1 POP PUSH0 DUP1 DUP3 PUSH20 0xFFFFFFFFFFFFFFFFFFFFFFFFFFFFFFFFFFFFFFFF AND PUSH4 0xD2154A14 DUP6 PUSH1 0x80 ADD MLOAD CALLER PUSH1 0x40 MLOAD DUP4 PUSH4 0xFFFFFFFF AND PUSH1 0xE0 SHL DUP2 MSTORE PUSH1 0x4 ADD PUSH3 0x1139 SWAP3 SWAP2 SWAP1 PUSH3 0x349A JUMP JUMPDEST PUSH1 0x40 DUP1 MLOAD DUP1 DUP4 SUB DUP2 PUSH0 DUP8 GAS CALL ISZERO DUP1 ISZERO PUSH3 0x1155 JUMPI RETURNDATASIZE PUSH0 DUP1 RETURNDATACOPY RETURNDATASIZE PUSH0 REVERT JUMPDEST POP POP POP POP PUSH1 0x40 MLOAD RETURNDATASIZE PUSH1 0x1F NOT PUSH1 0x1F DUP3 ADD AND DUP3 ADD DUP1 PUSH1 0x40 MSTORE POP DUP2 ADD SWAP1 PUSH3 0x117B SWAP2 SWAP1 PUSH3 0x34DB JUMP JUMPDEST SWAP2 POP SWAP2 POP DUP1 DUP3 DUP6 PUSH1 0x40 ADD MLOAD PUSH20 0xFFFFFFFFFFFFFFFFFFFFFFFFFFFFFFFFFFFFFFFF AND PUSH32 0x4134CC587093B966AEBAC3463A405C1FE1B410159FFDF141761E9E7E4D185B0B PUSH1 0x40 MLOAD PUSH1 0x40 MLOAD DUP1 SWAP2 SUB SWAP1 LOG4 POP POP POP POP JUMP JUMPDEST PUSH0 DUP1 PUSH3 0x11DF DUP4 PUSH1 0x60 ADD MLOAD PUSH3 0x15F6 JUMP JUMPDEST SWAP2 POP SWAP2 POP PUSH0 PUSH1 0x5 DUP2 GT ISZERO PUSH3 0x11F9 JUMPI PUSH3 0x11F8 PUSH3 0x3520 JUMP JUMPDEST JUMPDEST DUP3 PUSH1 0x5 DUP2 GT ISZERO PUSH3 0x120F JUMPI PUSH3 0x120E PUSH3 0x3520 JUMP JUMPDEST JUMPDEST SUB PUSH3 0x1226 JUMPI PUSH3 0x1220 DUP2 PUSH3 0x1E0F JUMP JUMPDEST PUSH3 0x13BB JUMP JUMPDEST PUSH1 0x1 PUSH1 0x5 DUP2 GT ISZERO PUSH3 0x123D JUMPI PUSH3 0x123C PUSH3 0x3520 JUMP JUMPDEST JUMPDEST DUP3 PUSH1 0x5 DUP2 GT ISZERO PUSH3 0x1253 JUMPI PUSH3 0x1252 PUSH3 0x3520 JUMP JUMPDEST JUMPDEST SUB PUSH3 0x126A JUMPI PUSH3 0x1264 DUP2 PUSH3 0xFEE JUMP JUMPDEST PUSH3 0x13BA JUMP JUMPDEST PUSH1 0x2 PUSH1 0x5 DUP2 GT ISZERO PUSH3 0x1281 JUMPI PUSH3 0x1280 PUSH3 0x3520 JUMP JUMPDEST JUMPDEST DUP3 PUSH1 0x5 DUP2 GT ISZERO PUSH3 0x1297 JUMPI PUSH3 0x1296 PUSH3 0x3520 JUMP JUMPDEST JUMPDEST SUB PUSH3 0x12AE JUMPI PUSH3 0x12A8 DUP2 PUSH3 0x10EE JUMP JUMPDEST PUSH3 0x13B9 JUMP JUMPDEST PUSH1 0x3 PUSH1 0x5 DUP2 GT ISZERO PUSH3 0x12C5 JUMPI PUSH3 0x12C4 PUSH3 0x3520 JUMP JUMPDEST JUMPDEST DUP3 PUSH1 0x5 DUP2 GT ISZERO PUSH3 0x12DB JUMPI PUSH3 0x12DA PUSH3 0x3520 JUMP JUMPDEST JUMPDEST SUB PUSH3 0x12F2 JUMPI PUSH3 0x12EC DUP2 PUSH3 0x13C0 JUMP JUMPDEST PUSH3 0x13B8 JUMP JUMPDEST PUSH1 0x4 PUSH1 0x5 DUP2 GT ISZERO PUSH3 0x1309 JUMPI PUSH3 0x1308 PUSH3 0x3520 JUMP JUMPDEST JUMPDEST DUP3 PUSH1 0x5 DUP2 GT ISZERO PUSH3 0x131F JUMPI PUSH3 0x131E PUSH3 0x3520 JUMP JUMPDEST JUMPDEST SUB PUSH3 0x1336 JUMPI PUSH3 0x1330 DUP2 PUSH3 0x1498 JUMP JUMPDEST PUSH3 0x13B7 JUMP JUMPDEST PUSH1 0x5 DUP1 DUP2 GT ISZERO PUSH3 0x134C JUMPI PUSH3 0x134B PUSH3 0x3520 JUMP JUMPDEST JUMPDEST DUP3 PUSH1 0x5 DUP2 GT ISZERO PUSH3 0x1362 JUMPI PUSH3 0x1361 PUSH3 0x3520 JUMP JUMPDEST JUMPDEST SUB PUSH3 0x1379 JUMPI PUSH3 0x1373 DUP2 PUSH3 0x1FB2 JUMP JUMPDEST PUSH3 0x13B6 JUMP JUMPDEST PUSH1 0x40 MLOAD PUSH32 0x8C379A000000000000000000000000000000000000000000000000000000000 DUP2 MSTORE PUSH1 0x4 ADD PUSH3 0x13AD SWAP1 PUSH3 0x359B JUMP JUMPDEST PUSH1 0x40 MLOAD DUP1 SWAP2 SUB SWAP1 REVERT JUMPDEST JUMPDEST JUMPDEST JUMPDEST JUMPDEST JUMPDEST POP POP POP JUMP JUMPDEST PUSH0 DUP2 PUSH1 0x40 ADD MLOAD SWAP1 POP DUP1 PUSH20 0xFFFFFFFFFFFFFFFFFFFFFFFFFFFFFFFFFFFFFFFF AND PUSH4 0xB733E78A DUP4 PUSH1 0x80 ADD MLOAD DUP5 PUSH1 0xA0 ADD MLOAD DUP6 PUSH1 0xC0 ADD MLOAD DUP7 PUSH1 0xE0 ADD MLOAD PUSH1 0x40 MLOAD DUP6 PUSH4 0xFFFFFFFF AND PUSH1 0xE0 SHL DUP2 MSTORE PUSH1 0x4 ADD PUSH3 0x1419 SWAP5 SWAP4 SWAP3 SWAP2 SWAP1 PUSH3 0x35BB JUMP JUMPDEST PUSH0 PUSH1 0x40 MLOAD DUP1 DUP4 SUB DUP2 PUSH0 DUP8 DUP1 EXTCODESIZE ISZERO DUP1 ISZERO PUSH3 0x1431 JUMPI PUSH0 DUP1 REVERT JUMPDEST POP GAS CALL ISZERO DUP1 ISZERO PUSH3 0x1444 JUMPI RETURNDATASIZE PUSH0 DUP1 RETURNDATACOPY RETURNDATASIZE PUSH0 REVERT JUMPDEST POP POP POP POP DUP2 PUSH1 0xA0 ADD MLOAD DUP3 PUSH1 0x40 ADD MLOAD PUSH20 0xFFFFFFFFFFFFFFFFFFFFFFFFFFFFFFFFFFFFFFFF AND PUSH32 0x9E7AA5E27C4FA6A013D087BC1B4F50317DF6F2B486A8CDE737DFB96C48FB9473 PUSH1 0x40 MLOAD PUSH1 0x40 MLOAD DUP1 SWAP2 SUB SWAP1 LOG3 POP POP JUMP JUMPDEST PUSH0 DUP2 PUSH1 0x40 ADD MLOAD SWAP1 POP DUP1 PUSH20 0xFFFFFFFFFFFFFFFFFFFFFFFFFFFFFFFFFFFFFFFF AND PUSH4 0xB4118DB0 DUP4 PUSH1 0x80 ADD MLOAD DUP5 PUSH2 0x100 ADD MLOAD DUP6 PUSH1 0xE0 ADD MLOAD PUSH1 0x40 MLOAD DUP5 PUSH4 0xFFFFFFFF AND PUSH1 0xE0 SHL DUP2 MSTORE PUSH1 0x4 ADD PUSH3 0x14EC SWAP4 SWAP3 SWAP2 SWAP1 PUSH3 0x360D JUMP JUMPDEST PUSH0 PUSH1 0x40 MLOAD DUP1 DUP4 SUB DUP2 PUSH0 DUP8 DUP1 EXTCODESIZE ISZERO DUP1 ISZERO PUSH3 0x1504 JUMPI PUSH0 DUP1 REVERT JUMPDEST POP GAS CALL ISZERO DUP1 ISZERO PUSH3 0x1517 JUMPI RETURNDATASIZE PUSH0 DUP1 RETURNDATACOPY RETURNDATASIZE PUSH0 REVERT JUMPDEST POP POP POP POP DUP2 PUSH1 0xE0 ADD MLOAD PUSH20 0xFFFFFFFFFFFFFFFFFFFFFFFFFFFFFFFFFFFFFFFF AND DUP3 PUSH2 0x100 ADD MLOAD PUSH1 0x40 MLOAD PUSH3 0x154B SWAP2 SWAP1 PUSH3 0x364F JUMP JUMPDEST PUSH1 0x40 MLOAD DUP1 SWAP2 SUB SWAP1 KECCAK256 DUP4 PUSH1 0x40 ADD MLOAD PUSH20 0xFFFFFFFFFFFFFFFFFFFFFFFFFFFFFFFFFFFFFFFF AND PUSH32 0x2A2DB17E3618CA44ADA76DE60283CCA9721AE25A46435160247729D376AE91A4 PUSH1 0x40 MLOAD PUSH1 0x40 MLOAD DUP1 SWAP2 SUB SWAP1 LOG4 POP POP JUMP JUMPDEST PUSH0 DUP1 PUSH1 0x40 MLOAD DUP1 PUSH1 0x20 ADD PUSH3 0x15B2 SWAP1 PUSH3 0x2213 JUMP JUMPDEST PUSH1 0x20 DUP3 ADD DUP2 SUB DUP3 MSTORE PUSH1 0x1F NOT PUSH1 0x1F DUP3 ADD AND PUSH1 0x40 MSTORE POP SWAP1 POP PUSH0 PUSH3 0x15DC DUP5 DUP4 DUP1 MLOAD SWAP1 PUSH1 0x20 ADD KECCAK256 PUSH3 0x2085 JUMP JUMPDEST SWAP1 POP PUSH3 0x15EB PUSH0 DUP6 DUP5 PUSH3 0x209B JUMP JUMPDEST POP DUP1 SWAP3 POP POP POP SWAP2 SWAP1 POP JUMP JUMPDEST PUSH0 PUSH3 0x1601 PUSH3 0x2220 JUMP JUMPDEST PUSH0 DUP1 DUP5 DUP1 PUSH1 0x20 ADD SWAP1 MLOAD DUP2 ADD SWAP1 PUSH3 0x1619 SWAP2 SWAP1 PUSH3 0x371E JUMP JUMPDEST SWAP2 POP SWAP2 POP DUP2 PUSH1 0xFF AND PUSH1 0x5 DUP2 GT ISZERO PUSH3 0x1636 JUMPI PUSH3 0x1635 PUSH3 0x3520 JUMP JUMPDEST JUMPDEST SWAP4 POP PUSH0 PUSH1 0x5 DUP2 GT ISZERO PUSH3 0x164E JUMPI PUSH3 0x164D PUSH3 0x3520 JUMP JUMPDEST JUMPDEST DUP5 PUSH1 0x5 DUP2 GT ISZERO PUSH3 0x1664 JUMPI PUSH3 0x1663 PUSH3 0x3520 JUMP JUMPDEST JUMPDEST SUB PUSH3 0x176B JUMPI PUSH0 DUP2 DUP1 PUSH1 0x20 ADD SWAP1 MLOAD DUP2 ADD SWAP1 PUSH3 0x1681 SWAP2 SWAP1 PUSH3 0x38F3 JUMP JUMPDEST SWAP1 POP PUSH1 0x40 MLOAD DUP1 PUSH2 0x140 ADD PUSH1 0x40 MSTORE DUP1 DUP3 PUSH0 ADD MLOAD DUP2 MSTORE PUSH1 0x20 ADD DUP3 PUSH1 0x20 ADD MLOAD DUP2 MSTORE PUSH1 0x20 ADD PUSH0 PUSH20 0xFFFFFFFFFFFFFFFFFFFFFFFFFFFFFFFFFFFFFFFF AND DUP2 MSTORE PUSH1 0x20 ADD PUSH0 PUSH8 0xFFFFFFFFFFFFFFFF DUP2 GT ISZERO PUSH3 0x16DB JUMPI PUSH3 0x16DA PUSH3 0x2602 JUMP JUMPDEST JUMPDEST PUSH1 0x40 MLOAD SWAP1 DUP1 DUP3 MSTORE DUP1 PUSH1 0x20 MUL PUSH1 0x20 ADD DUP3 ADD PUSH1 0x40 MSTORE DUP1 ISZERO PUSH3 0x170A JUMPI DUP2 PUSH1 0x20 ADD PUSH1 0x20 DUP3 MUL DUP1 CALLDATASIZE DUP4 CALLDATACOPY DUP1 DUP3 ADD SWAP2 POP POP SWAP1 POP JUMPDEST POP DUP2 MSTORE PUSH1 0x20 ADD PUSH0 DUP2 MSTORE PUSH1 0x20 ADD PUSH0 DUP1 SHL DUP2 MSTORE PUSH1 0x20 ADD DUP3 PUSH1 0x40 ADD MLOAD DUP2 MSTORE PUSH1 0x20 ADD DUP3 PUSH1 0x60 ADD MLOAD PUSH20 0xFFFFFFFFFFFFFFFFFFFFFFFFFFFFFFFFFFFFFFFF AND DUP2 MSTORE PUSH1 0x20 ADD PUSH1 0x40 MLOAD DUP1 PUSH1 0x20 ADD PUSH1 0x40 MSTORE DUP1 PUSH0 DUP2 MSTORE POP DUP2 MSTORE PUSH1 0x20 ADD PUSH0 ISZERO ISZERO DUP2 MSTORE POP SWAP4 POP POP PUSH3 0x1E08 JUMP JUMPDEST PUSH1 0x1 PUSH1 0x5 DUP2 GT ISZERO PUSH3 0x1782 JUMPI PUSH3 0x1781 PUSH3 0x3520 JUMP JUMPDEST JUMPDEST DUP5 PUSH1 0x5 DUP2 GT ISZERO PUSH3 0x1798 JUMPI PUSH3 0x1797 PUSH3 0x3520 JUMP JUMPDEST JUMPDEST SUB PUSH3 0x186F JUMPI PUSH0 DUP2 DUP1 PUSH1 0x20 ADD SWAP1 MLOAD DUP2 ADD SWAP1 PUSH3 0x17B5 SWAP2 SWAP1 PUSH3 0x3AA7 JUMP JUMPDEST SWAP1 POP PUSH1 0x40 MLOAD DUP1 PUSH2 0x140 ADD PUSH1 0x40 MSTORE DUP1 DUP3 PUSH1 0x20 ADD MLOAD DUP2 MSTORE PUSH1 0x20 ADD PUSH1 0x40 MLOAD DUP1 PUSH1 0x20 ADD PUSH1 0x40 MSTORE DUP1 PUSH0 DUP2 MSTORE POP DUP2 MSTORE PUSH1 0x20 ADD DUP3 PUSH0 ADD MLOAD PUSH20 0xFFFFFFFFFFFFFFFFFFFFFFFFFFFFFFFFFFFFFFFF AND DUP2 MSTORE PUSH1 0x20 ADD DUP3 PUSH1 0x40 ADD MLOAD DUP2 MSTORE PUSH1 0x20 ADD PUSH0 DUP2 MSTORE PUSH1 0x20 ADD PUSH0 DUP1 SHL DUP2 MSTORE PUSH1 0x20 ADD PUSH1 0x40 MLOAD DUP1 PUSH1 0x20 ADD PUSH1 0x40 MSTORE DUP1 PUSH0 DUP2 MSTORE POP DUP2 MSTORE PUSH1 0x20 ADD DUP3 PUSH1 0x60 ADD MLOAD PUSH20 0xFFFFFFFFFFFFFFFFFFFFFFFFFFFFFFFFFFFFFFFF AND DUP2 MSTORE PUSH1 0x20 ADD PUSH1 0x40 MLOAD DUP1 PUSH1 0x20 ADD PUSH1 0x40 MSTORE DUP1 PUSH0 DUP2 MSTORE POP DUP2 MSTORE PUSH1 0x20 ADD PUSH0 ISZERO ISZERO DUP2 MSTORE POP SWAP4 POP POP PUSH3 0x1E07 JUMP JUMPDEST PUSH1 0x2 PUSH1 0x5 DUP2 GT ISZERO PUSH3 0x1886 JUMPI PUSH3 0x1885 PUSH3 0x3520 JUMP JUMPDEST JUMPDEST DUP5 PUSH1 0x5 DUP2 GT ISZERO PUSH3 0x189C JUMPI PUSH3 0x189B PUSH3 0x3520 JUMP JUMPDEST JUMPDEST SUB PUSH3 0x19C9 JUMPI PUSH0 DUP2 DUP1 PUSH1 0x20 ADD SWAP1 MLOAD DUP2 ADD SWAP1 PUSH3 0x18B9 SWAP2 SWAP1 PUSH3 0x3B62 JUMP JUMPDEST SWAP1 POP PUSH1 0x40 MLOAD DUP1 PUSH2 0x140 ADD PUSH1 0x40 MSTORE DUP1 PUSH1 0x40 MLOAD DUP1 PUSH1 0x20 ADD PUSH1 0x40 MSTORE DUP1 PUSH0 DUP2 MSTORE POP DUP2 MSTORE PUSH1 0x20 ADD PUSH1 0x40 MLOAD DUP1 PUSH1 0x20 ADD PUSH1 0x40 MSTORE DUP1 PUSH0 DUP2 MSTORE POP DUP2 MSTORE PUSH1 0x20 ADD DUP3 PUSH0 ADD MLOAD PUSH20 0xFFFFFFFFFFFFFFFFFFFFFFFFFFFFFFFFFFFFFFFF AND DUP2 MSTORE PUSH1 0x20 ADD PUSH0 PUSH8 0xFFFFFFFFFFFFFFFF DUP2 GT ISZERO PUSH3 0x192B JUMPI PUSH3 0x192A PUSH3 0x2602 JUMP JUMPDEST JUMPDEST PUSH1 0x40 MLOAD SWAP1 DUP1 DUP3 MSTORE DUP1 PUSH1 0x20 MUL PUSH1 0x20 ADD DUP3 ADD PUSH1 0x40 MSTORE DUP1 ISZERO PUSH3 0x195A JUMPI DUP2 PUSH1 0x20 ADD PUSH1 0x20 DUP3 MUL DUP1 CALLDATASIZE DUP4 CALLDATACOPY DUP1 DUP3 ADD SWAP2 POP POP SWAP1 POP JUMPDEST POP DUP2 MSTORE PUSH1 0x20 ADD DUP3 PUSH1 0x20 ADD MLOAD DUP2 MSTORE PUSH1 0x20 ADD PUSH0 DUP1 SHL DUP2 MSTORE PUSH1 0x20 ADD PUSH1 0x40 MLOAD DUP1 PUSH1 0x20 ADD PUSH1 0x40 MSTORE DUP1 PUSH0 DUP2 MSTORE POP DUP2 MSTORE PUSH1 0x20 ADD DUP3 PUSH1 0x40 ADD MLOAD PUSH20 0xFFFFFFFFFFFFFFFFFFFFFFFFFFFFFFFFFFFFFFFF AND DUP2 MSTORE PUSH1 0x20 ADD PUSH1 0x40 MLOAD DUP1 PUSH1 0x20 ADD PUSH1 0x40 MSTORE DUP1 PUSH0 DUP2 MSTORE POP DUP2 MSTORE PUSH1 0x20 ADD PUSH0 ISZERO ISZERO DUP2 MSTORE POP SWAP4 POP POP PUSH3 0x1E06 JUMP JUMPDEST PUSH1 0x3 PUSH1 0x5 DUP2 GT ISZERO PUSH3 0x19E0 JUMPI PUSH3 0x19DF PUSH3 0x3520 JUMP JUMPDEST JUMPDEST DUP5 PUSH1 0x5 DUP2 GT ISZERO PUSH3 0x19F6 JUMPI PUSH3 0x19F5 PUSH3 0x3520 JUMP JUMPDEST JUMPDEST SUB PUSH3 0x1B1B JUMPI PUSH0 DUP2 DUP1 PUSH1 0x20 ADD SWAP1 MLOAD DUP2 ADD SWAP1 PUSH3 0x1A13 SWAP2 SWAP1 PUSH3 0x3C49 JUMP JUMPDEST SWAP1 POP PUSH1 0x40 MLOAD DUP1 PUSH2 0x140 ADD PUSH1 0x40 MSTORE DUP1 PUSH1 0x40 MLOAD DUP1 PUSH1 0x20 ADD PUSH1 0x40 MSTORE DUP1 PUSH0 DUP2 MSTORE POP DUP2 MSTORE PUSH1 0x20 ADD PUSH1 0x40 MLOAD DUP1 PUSH1 0x20 ADD PUSH1 0x40 MSTORE DUP1 PUSH0 DUP2 MSTORE POP DUP2 MSTORE PUSH1 0x20 ADD DUP3 PUSH0 ADD MLOAD PUSH20 0xFFFFFFFFFFFFFFFFFFFFFFFFFFFFFFFFFFFFFFFF AND DUP2 MSTORE PUSH1 0x20 ADD PUSH0 PUSH8 0xFFFFFFFFFFFFFFFF DUP2 GT ISZERO PUSH3 0x1A85 JUMPI PUSH3 0x1A84 PUSH3 0x2602 JUMP JUMPDEST JUMPDEST PUSH1 0x40 MLOAD SWAP1 DUP1 DUP3 MSTORE DUP1 PUSH1 0x20 MUL PUSH1 0x20 ADD DUP3 ADD PUSH1 0x40 MSTORE DUP1 ISZERO PUSH3 0x1AB4 JUMPI DUP2 PUSH1 0x20 ADD PUSH1 0x20 DUP3 MUL DUP1 CALLDATASIZE DUP4 CALLDATACOPY DUP1 DUP3 ADD SWAP2 POP POP SWAP1 POP JUMPDEST POP DUP2 MSTORE PUSH1 0x20 ADD DUP3 PUSH1 0x20 ADD MLOAD DUP2 MSTORE PUSH1 0x20 ADD DUP3 PUSH1 0x40 ADD MLOAD DUP2 MSTORE PUSH1 0x20 ADD DUP3 PUSH1 0x60 ADD MLOAD DUP2 MSTORE PUSH1 0x20 ADD DUP3 PUSH1 0x80 ADD MLOAD PUSH20 0xFFFFFFFFFFFFFFFFFFFFFFFFFFFFFFFFFFFFFFFF AND DUP2 MSTORE PUSH1 0x20 ADD PUSH1 0x40 MLOAD DUP1 PUSH1 0x20 ADD PUSH1 0x40 MSTORE DUP1 PUSH0 DUP2 MSTORE POP DUP2 MSTORE PUSH1 0x20 ADD PUSH0 ISZERO ISZERO DUP2 MSTORE POP SWAP4 POP POP PUSH3 0x1E05 JUMP JUMPDEST PUSH1 0x4 PUSH1 0x5 DUP2 GT ISZERO PUSH3 0x1B32 JUMPI PUSH3 0x1B31 PUSH3 0x3520 JUMP JUMPDEST JUMPDEST DUP5 PUSH1 0x5 DUP2 GT ISZERO PUSH3 0x1B48 JUMPI PUSH3 0x1B47 PUSH3 0x3520 JUMP JUMPDEST JUMPDEST SUB PUSH3 0x1C6B JUMPI PUSH0 DUP2 DUP1 PUSH1 0x20 ADD SWAP1 MLOAD DUP2 ADD SWAP1 PUSH3 0x1B65 SWAP2 SWAP1 PUSH3 0x3D39 JUMP JUMPDEST SWAP1 POP PUSH1 0x40 MLOAD DUP1 PUSH2 0x140 ADD PUSH1 0x40 MSTORE DUP1 PUSH1 0x40 MLOAD DUP1 PUSH1 0x20 ADD PUSH1 0x40 MSTORE DUP1 PUSH0 DUP2 MSTORE POP DUP2 MSTORE PUSH1 0x20 ADD PUSH1 0x40 MLOAD DUP1 PUSH1 0x20 ADD PUSH1 0x40 MSTORE DUP1 PUSH0 DUP2 MSTORE POP DUP2 MSTORE PUSH1 0x20 ADD DUP3 PUSH0 ADD MLOAD PUSH20 0xFFFFFFFFFFFFFFFFFFFFFFFFFFFFFFFFFFFFFFFF AND DUP2 MSTORE PUSH1 0x20 ADD PUSH0 PUSH8 0xFFFFFFFFFFFFFFFF DUP2 GT ISZERO PUSH3 0x1BD7 JUMPI PUSH3 0x1BD6 PUSH3 0x2602 JUMP JUMPDEST JUMPDEST PUSH1 0x40 MLOAD SWAP1 DUP1 DUP3 MSTORE DUP1 PUSH1 0x20 MUL PUSH1 0x20 ADD DUP3 ADD PUSH1 0x40 MSTORE DUP1 ISZERO PUSH3 0x1C06 JUMPI DUP2 PUSH1 0x20 ADD PUSH1 0x20 DUP3 MUL DUP1 CALLDATASIZE DUP4 CALLDATACOPY DUP1 DUP3 ADD SWAP2 POP POP SWAP1 POP JUMPDEST POP DUP2 MSTORE PUSH1 0x20 ADD DUP3 PUSH1 0x20 ADD MLOAD DUP2 MSTORE PUSH1 0x20 ADD PUSH0 DUP1 SHL DUP2 MSTORE PUSH1 0x20 ADD PUSH1 0x40 MLOAD DUP1 PUSH1 0x20 ADD PUSH1 0x40 MSTORE DUP1 PUSH0 DUP2 MSTORE POP DUP2 MSTORE PUSH1 0x20 ADD DUP3 PUSH1 0x60 ADD MLOAD PUSH20 0xFFFFFFFFFFFFFFFFFFFFFFFFFFFFFFFFFFFFFFFF AND DUP2 MSTORE PUSH1 0x20 ADD DUP3 PUSH1 0x40 ADD MLOAD DUP2 MSTORE PUSH1 0x20 ADD PUSH0 ISZERO ISZERO DUP2 MSTORE POP SWAP4 POP POP PUSH3 0x1E04 JUMP JUMPDEST PUSH1 0x5 DUP1 DUP2 GT ISZERO PUSH3 0x1C81 JUMPI PUSH3 0x1C80 PUSH3 0x3520 JUMP JUMPDEST JUMPDEST DUP5 PUSH1 0x5 DUP2 GT ISZERO PUSH3 0x1C97 JUMPI PUSH3 0x1C96 PUSH3 0x3520 JUMP JUMPDEST JUMPDEST SUB PUSH3 0x1DC6 JUMPI PUSH0 DUP2 DUP1 PUSH1 0x20 ADD SWAP1 MLOAD DUP2 ADD SWAP1 PUSH3 0x1CB4 SWAP2 SWAP1 PUSH3 0x3E39 JUMP JUMPDEST SWAP1 POP PUSH1 0x40 MLOAD DUP1 PUSH2 0x140 ADD PUSH1 0x40 MSTORE DUP1 PUSH1 0x40 MLOAD DUP1 PUSH1 0x20 ADD PUSH1 0x40 MSTORE DUP1 PUSH0 DUP2 MSTORE POP DUP2 MSTORE PUSH1 0x20 ADD PUSH1 0x40 MLOAD DUP1 PUSH1 0x20 ADD PUSH1 0x40 MSTORE DUP1 PUSH0 DUP2 MSTORE POP DUP2 MSTORE PUSH1 0x20 ADD DUP3 PUSH0 ADD MLOAD PUSH20 0xFFFFFFFFFFFFFFFFFFFFFFFFFFFFFFFFFFFFFFFF AND DUP2 MSTORE PUSH1 0x20 ADD PUSH0 PUSH8 0xFFFFFFFFFFFFFFFF DUP2 GT ISZERO PUSH3 0x1D26 JUMPI PUSH3 0x1D25 PUSH3 0x2602 JUMP JUMPDEST JUMPDEST PUSH1 0x40 MLOAD SWAP1 DUP1 DUP3 MSTORE DUP1 PUSH1 0x20 MUL PUSH1 0x20 ADD DUP3 ADD PUSH1 0x40 MSTORE DUP1 ISZERO PUSH3 0x1D55 JUMPI DUP2 PUSH1 0x20 ADD PUSH1 0x20 DUP3 MUL DUP1 CALLDATASIZE DUP4 CALLDATACOPY DUP1 DUP3 ADD SWAP2 POP POP SWAP1 POP JUMPDEST POP DUP2 MSTORE PUSH1 0x20 ADD PUSH0 DUP2 MSTORE PUSH1 0x20 ADD DUP3 PUSH1 0x20 ADD MLOAD DUP2 MSTORE PUSH1 0x20 ADD PUSH1 0x40 MLOAD DUP1 PUSH1 0x20 ADD PUSH1 0x40 MSTORE DUP1 PUSH0 DUP2 MSTORE POP DUP2 MSTORE PUSH1 0x20 ADD DUP3 PUSH1 0x60 ADD MLOAD PUSH20 0xFFFFFFFFFFFFFFFFFFFFFFFFFFFFFFFFFFFFFFFF AND DUP2 MSTORE PUSH1 0x20 ADD PUSH1 0x40 MLOAD DUP1 PUSH1 0x20 ADD PUSH1 0x40 MSTORE DUP1 PUSH0 DUP2 MSTORE POP DUP2 MSTORE PUSH1 0x20 ADD DUP3 PUSH1 0x40 ADD MLOAD ISZERO ISZERO DUP2 MSTORE POP SWAP4 POP POP PUSH3 0x1E03 JUMP JUMPDEST PUSH1 0x40 MLOAD PUSH32 0x8C379A000000000000000000000000000000000000000000000000000000000 DUP2 MSTORE PUSH1 0x4 ADD PUSH3 0x1DFA SWAP1 PUSH3 0x3EB7 JUMP JUMPDEST PUSH1 0x40 MLOAD DUP1 SWAP2 SUB SWAP1 REVERT JUMPDEST JUMPDEST JUMPDEST JUMPDEST JUMPDEST JUMPDEST POP POP SWAP2 POP SWAP2 JUMP JUMPDEST PUSH0 DUP2 PUSH0 ADD MLOAD PUSH1 0x4 PUSH0 DUP2 SLOAD PUSH3 0x1E24 SWAP1 PUSH3 0x3210 JUMP JUMPDEST SWAP2 SWAP1 POP DUP2 SWAP1 SSTORE PUSH1 0x40 MLOAD PUSH1 0x20 ADD PUSH3 0x1E3D SWAP3 SWAP2 SWAP1 PUSH3 0x32C0 JUMP JUMPDEST PUSH1 0x40 MLOAD PUSH1 0x20 DUP2 DUP4 SUB SUB DUP2 MSTORE SWAP1 PUSH1 0x40 MSTORE DUP1 MLOAD SWAP1 PUSH1 0x20 ADD KECCAK256 SWAP1 POP PUSH1 0x3 DUP2 SWAP1 DUP1 PUSH1 0x1 DUP2 SLOAD ADD DUP1 DUP3 SSTORE DUP1 SWAP2 POP POP PUSH1 0x1 SWAP1 SUB SWAP1 PUSH0 MSTORE PUSH1 0x20 PUSH0 KECCAK256 ADD PUSH0 SWAP1 SWAP2 SWAP1 SWAP2 SWAP1 SWAP2 POP SSTORE PUSH0 PUSH1 0x40 MLOAD DUP1 PUSH1 0x80 ADD PUSH1 0x40 MSTORE DUP1 DUP5 PUSH1 0xC0 ADD MLOAD DUP2 MSTORE PUSH1 0x20 ADD DUP5 PUSH0 ADD MLOAD DUP2 MSTORE PUSH1 0x20 ADD DUP5 PUSH1 0x20 ADD MLOAD DUP2 MSTORE PUSH1 0x20 ADD DUP5 PUSH1 0xE0 ADD MLOAD PUSH20 0xFFFFFFFFFFFFFFFFFFFFFFFFFFFFFFFFFFFFFFFF AND DUP2 MSTORE POP SWAP1 POP DUP1 PUSH1 0x6 PUSH0 DUP5 DUP2 MSTORE PUSH1 0x20 ADD SWAP1 DUP2 MSTORE PUSH1 0x20 ADD PUSH0 KECCAK256 PUSH0 DUP3 ADD MLOAD DUP2 PUSH0 ADD SWAP1 DUP2 PUSH3 0x1EEB SWAP2 SWAP1 PUSH3 0x407F JUMP JUMPDEST POP PUSH1 0x20 DUP3 ADD MLOAD DUP2 PUSH1 0x1 ADD SWAP1 DUP2 PUSH3 0x1F03 SWAP2 SWAP1 PUSH3 0x407F JUMP JUMPDEST POP PUSH1 0x40 DUP3 ADD MLOAD DUP2 PUSH1 0x2 ADD SWAP1 DUP2 PUSH3 0x1F1B SWAP2 SWAP1 PUSH3 0x407F JUMP JUMPDEST POP PUSH1 0x60 DUP3 ADD MLOAD DUP2 PUSH1 0x3 ADD PUSH0 PUSH2 0x100 EXP DUP2 SLOAD DUP2 PUSH20 0xFFFFFFFFFFFFFFFFFFFFFFFFFFFFFFFFFFFFFFFF MUL NOT AND SWAP1 DUP4 PUSH20 0xFFFFFFFFFFFFFFFFFFFFFFFFFFFFFFFFFFFFFFFF AND MUL OR SWAP1 SSTORE POP SWAP1 POP POP DUP3 PUSH1 0xE0 ADD MLOAD PUSH20 0xFFFFFFFFFFFFFFFFFFFFFFFFFFFFFFFFFFFFFFFF AND DUP3 PUSH32 0x4DF3D93E34D4A5516F067788A579615DA3FDC59E5CBBD09901429C8F3832B7D5 PUSH1 0x40 MLOAD PUSH1 0x40 MLOAD DUP1 SWAP2 SUB SWAP1 LOG3 POP POP POP JUMP JUMPDEST PUSH0 DUP2 PUSH1 0x40 ADD MLOAD SWAP1 POP DUP1 PUSH20 0xFFFFFFFFFFFFFFFFFFFFFFFFFFFFFFFFFFFFFFFF AND PUSH4 0x1DBA015C DUP4 PUSH1 0xA0 ADD MLOAD DUP5 PUSH2 0x120 ADD MLOAD DUP6 PUSH1 0xE0 ADD MLOAD PUSH1 0x40 MLOAD DUP5 PUSH4 0xFFFFFFFF AND PUSH1 0xE0 SHL DUP2 MSTORE PUSH1 0x4 ADD PUSH3 0x2006 SWAP4 SWAP3 SWAP2 SWAP1 PUSH3 0x4163 JUMP JUMPDEST PUSH0 PUSH1 0x40 MLOAD DUP1 DUP4 SUB DUP2 PUSH0 DUP8 DUP1 EXTCODESIZE ISZERO DUP1 ISZERO PUSH3 0x201E JUMPI PUSH0 DUP1 REVERT JUMPDEST POP GAS CALL ISZERO DUP1 ISZERO PUSH3 0x2031 JUMPI RETURNDATASIZE PUSH0 DUP1 RETURNDATACOPY RETURNDATASIZE PUSH0 REVERT JUMPDEST POP POP POP POP DUP2 PUSH1 0xA0 ADD MLOAD DUP3 PUSH1 0x40 ADD MLOAD PUSH20 0xFFFFFFFFFFFFFFFFFFFFFFFFFFFFFFFFFFFFFFFF AND PUSH32 0xCEDC3309D6C0097C6782CE3F908382BFE5ECB3334D2AC5A89E4764741FA393D3 PUSH1 0x40 MLOAD PUSH1 0x40 MLOAD DUP1 SWAP2 SUB SWAP1 LOG3 POP POP JUMP JUMPDEST PUSH0 PUSH3 0x2093 DUP4 DUP4 ADDRESS PUSH3 0x2199 JUMP JUMPDEST SWAP1 POP SWAP3 SWAP2 POP POP JUMP JUMPDEST PUSH0 DUP4 SELFBALANCE LT ISZERO PUSH3 0x20E6 JUMPI SELFBALANCE DUP5 PUSH1 0x40 MLOAD PUSH32 0xE4BBECAC00000000000000000000000000000000000000000000000000000000 DUP2 MSTORE PUSH1 0x4 ADD PUSH3 0x20DD SWAP3 SWAP2 SWAP1 PUSH3 0x419E JUMP JUMPDEST PUSH1 0x40 MLOAD DUP1 SWAP2 SUB SWAP1 REVERT JUMPDEST PUSH0 DUP3 MLOAD SUB PUSH3 0x2121 JUMPI PUSH1 0x40 MLOAD PUSH32 0x4CA249DC00000000000000000000000000000000000000000000000000000000 DUP2 MSTORE PUSH1 0x4 ADD PUSH1 0x40 MLOAD DUP1 SWAP2 SUB SWAP1 REVERT JUMPDEST DUP3 DUP3 MLOAD PUSH1 0x20 DUP5 ADD DUP7 CREATE2 SWAP1 POP PUSH0 PUSH20 0xFFFFFFFFFFFFFFFFFFFFFFFFFFFFFFFFFFFFFFFF AND DUP2 PUSH20 0xFFFFFFFFFFFFFFFFFFFFFFFFFFFFFFFFFFFFFFFF AND SUB PUSH3 0x2192 JUMPI PUSH1 0x40 MLOAD PUSH32 0x741752C200000000000000000000000000000000000000000000000000000000 DUP2 MSTORE PUSH1 0x4 ADD PUSH1 0x40 MLOAD DUP1 SWAP2 SUB SWAP1 REVERT JUMPDEST SWAP4 SWAP3 POP POP POP JUMP JUMPDEST PUSH0 PUSH1 0x40 MLOAD DUP4 PUSH1 0x40 DUP3 ADD MSTORE DUP5 PUSH1 0x20 DUP3 ADD MSTORE DUP3 DUP2 MSTORE PUSH1 0xB DUP2 ADD PUSH1 0xFF DUP2 MSTORE8 PUSH1 0x55 DUP2 KECCAK256 SWAP3 POP POP POP SWAP4 SWAP3 POP POP POP JUMP JUMPDEST DUP3 DUP1 SLOAD DUP3 DUP3 SSTORE SWAP1 PUSH0 MSTORE PUSH1 0x20 PUSH0 KECCAK256 SWAP1 DUP2 ADD SWAP3 DUP3 ISZERO PUSH3 0x2200 JUMPI SWAP2 PUSH1 0x20 MUL DUP3 ADD JUMPDEST DUP3 DUP2 GT ISZERO PUSH3 0x21FF JUMPI DUP3 MLOAD DUP3 SSTORE SWAP2 PUSH1 0x20 ADD SWAP2 SWAP1 PUSH1 0x1 ADD SWAP1 PUSH3 0x21E2 JUMP JUMPDEST JUMPDEST POP SWAP1 POP PUSH3 0x220F SWAP2 SWAP1 PUSH3 0x229F JUMP JUMPDEST POP SWAP1 JUMP JUMPDEST PUSH1 0xA0 DUP1 PUSH3 0x41CA DUP4 CODECOPY ADD SWAP1 JUMP JUMPDEST PUSH1 0x40 MLOAD DUP1 PUSH2 0x140 ADD PUSH1 0x40 MSTORE DUP1 PUSH1 0x60 DUP2 MSTORE PUSH1 0x20 ADD PUSH1 0x60 DUP2 MSTORE PUSH1 0x20 ADD PUSH0 PUSH20 0xFFFFFFFFFFFFFFFFFFFFFFFFFFFFFFFFFFFFFFFF AND DUP2 MSTORE PUSH1 0x20 ADD PUSH1 0x60 DUP2 MSTORE PUSH1 0x20 ADD PUSH0 DUP2 MSTORE PUSH1 0x20 ADD PUSH0 DUP1 NOT AND DUP2 MSTORE PUSH1 0x20 ADD PUSH1 0x60 DUP2 MSTORE PUSH1 0x20 ADD PUSH0 PUSH20 0xFFFFFFFFFFFFFFFFFFFFFFFFFFFFFFFFFFFFFFFF AND DUP2 MSTORE PUSH1 0x20 ADD PUSH1 0x60 DUP2 MSTORE PUSH1 0x20 ADD PUSH0 ISZERO ISZERO DUP2 MSTORE POP SWAP1 JUMP JUMPDEST JUMPDEST DUP1 DUP3 GT ISZERO PUSH3 0x22B8 JUMPI PUSH0 DUP2 PUSH0 SWAP1 SSTORE POP PUSH1 0x1 ADD PUSH3 0x22A0 JUMP JUMPDEST POP SWAP1 JUMP JUMPDEST PUSH0 PUSH1 0x40 MLOAD SWAP1 POP SWAP1 JUMP JUMPDEST PUSH0 DUP1 REVERT JUMPDEST PUSH0 DUP1 REVERT JUMPDEST PUSH0 PUSH32 0xFFFFFFFF00000000000000000000000000000000000000000000000000000000 DUP3 AND SWAP1 POP SWAP2 SWAP1 POP JUMP JUMPDEST PUSH3 0x2303 DUP2 PUSH3 0x22CD JUMP JUMPDEST DUP2 EQ PUSH3 0x230E JUMPI PUSH0 DUP1 REVERT JUMPDEST POP JUMP JUMPDEST PUSH0 DUP2 CALLDATALOAD SWAP1 POP PUSH3 0x2321 DUP2 PUSH3 0x22F8 JUMP JUMPDEST SWAP3 SWAP2 POP POP JUMP JUMPDEST PUSH0 PUSH1 0x20 DUP3 DUP5 SUB SLT ISZERO PUSH3 0x233F JUMPI PUSH3 0x233E PUSH3 0x22C5 JUMP JUMPDEST JUMPDEST PUSH0 PUSH3 0x234E DUP5 DUP3 DUP6 ADD PUSH3 0x2311 JUMP JUMPDEST SWAP2 POP POP SWAP3 SWAP2 POP POP JUMP JUMPDEST PUSH0 DUP2 ISZERO ISZERO SWAP1 POP SWAP2 SWAP1 POP JUMP JUMPDEST PUSH3 0x236D DUP2 PUSH3 0x2357 JUMP JUMPDEST DUP3 MSTORE POP POP JUMP JUMPDEST PUSH0 PUSH1 0x20 DUP3 ADD SWAP1 POP PUSH3 0x2388 PUSH0 DUP4 ADD DUP5 PUSH3 0x2362 JUMP JUMPDEST SWAP3 SWAP2 POP POP JUMP JUMPDEST PUSH0 PUSH20 0xFFFFFFFFFFFFFFFFFFFFFFFFFFFFFFFFFFFFFFFF DUP3 AND SWAP1 POP SWAP2 SWAP1 POP JUMP JUMPDEST PUSH0 DUP2 SWAP1 POP SWAP2 SWAP1 POP JUMP JUMPDEST PUSH0 PUSH3 0x23D6 PUSH3 0x23D0 PUSH3 0x23CA DUP5 PUSH3 0x238E JUMP JUMPDEST PUSH3 0x23AD JUMP JUMPDEST PUSH3 0x238E JUMP JUMPDEST SWAP1 POP SWAP2 SWAP1 POP JUMP JUMPDEST PUSH0 PUSH3 0x23E9 DUP3 PUSH3 0x23B6 JUMP JUMPDEST SWAP1 POP SWAP2 SWAP1 POP JUMP JUMPDEST PUSH0 PUSH3 0x23FC DUP3 PUSH3 0x23DD JUMP JUMPDEST SWAP1 POP SWAP2 SWAP1 POP JUMP JUMPDEST PUSH3 0x240E DUP2 PUSH3 0x23F0 JUMP JUMPDEST DUP3 MSTORE POP POP JUMP JUMPDEST PUSH0 PUSH1 0x20 DUP3 ADD SWAP1 POP PUSH3 0x2429 PUSH0 DUP4 ADD DUP5 PUSH3 0x2403 JUMP JUMPDEST SWAP3 SWAP2 POP POP JUMP JUMPDEST PUSH0 DUP2 SWAP1 POP SWAP2 SWAP1 POP JUMP JUMPDEST PUSH3 0x2443 DUP2 PUSH3 0x242F JUMP JUMPDEST DUP2 EQ PUSH3 0x244E JUMPI PUSH0 DUP1 REVERT JUMPDEST POP JUMP JUMPDEST PUSH0 DUP2 CALLDATALOAD SWAP1 POP PUSH3 0x2461 DUP2 PUSH3 0x2438 JUMP JUMPDEST SWAP3 SWAP2 POP POP JUMP JUMPDEST PUSH0 PUSH1 0x20 DUP3 DUP5 SUB SLT ISZERO PUSH3 0x247F JUMPI PUSH3 0x247E PUSH3 0x22C5 JUMP JUMPDEST JUMPDEST PUSH0 PUSH3 0x248E DUP5 DUP3 DUP6 ADD PUSH3 0x2451 JUMP JUMPDEST SWAP2 POP POP SWAP3 SWAP2 POP POP JUMP JUMPDEST PUSH0 PUSH3 0x24A3 DUP3 PUSH3 0x238E JUMP JUMPDEST SWAP1 POP SWAP2 SWAP1 POP JUMP JUMPDEST PUSH3 0x24B5 DUP2 PUSH3 0x2497 JUMP JUMPDEST DUP3 MSTORE POP POP JUMP JUMPDEST PUSH0 PUSH1 0x20 DUP3 ADD SWAP1 POP PUSH3 0x24D0 PUSH0 DUP4 ADD DUP5 PUSH3 0x24AA JUMP JUMPDEST SWAP3 SWAP2 POP POP JUMP JUMPDEST PUSH3 0x24E1 DUP2 PUSH3 0x242F JUMP JUMPDEST DUP3 MSTORE POP POP JUMP JUMPDEST PUSH0 PUSH1 0x20 DUP3 ADD SWAP1 POP PUSH3 0x24FC PUSH0 DUP4 ADD DUP5 PUSH3 0x24D6 JUMP JUMPDEST SWAP3 SWAP2 POP POP JUMP JUMPDEST PUSH0 DUP1 REVERT JUMPDEST PUSH0 DUP1 REVERT JUMPDEST PUSH0 DUP1 REVERT JUMPDEST PUSH0 DUP1 DUP4 PUSH1 0x1F DUP5 ADD SLT PUSH3 0x2526 JUMPI PUSH3 0x2525 PUSH3 0x2502 JUMP JUMPDEST JUMPDEST DUP3 CALLDATALOAD SWAP1 POP PUSH8 0xFFFFFFFFFFFFFFFF DUP2 GT ISZERO PUSH3 0x2546 JUMPI PUSH3 0x2545 PUSH3 0x2506 JUMP JUMPDEST JUMPDEST PUSH1 0x20 DUP4 ADD SWAP2 POP DUP4 PUSH1 0x1 DUP3 MUL DUP4 ADD GT ISZERO PUSH3 0x2565 JUMPI PUSH3 0x2564 PUSH3 0x250A JUMP JUMPDEST JUMPDEST SWAP3 POP SWAP3 SWAP1 POP JUMP JUMPDEST PUSH0 DUP1 PUSH1 0x20 DUP4 DUP6 SUB SLT ISZERO PUSH3 0x2585 JUMPI PUSH3 0x2584 PUSH3 0x22C5 JUMP JUMPDEST JUMPDEST PUSH0 DUP4 ADD CALLDATALOAD PUSH8 0xFFFFFFFFFFFFFFFF DUP2 GT ISZERO PUSH3 0x25A5 JUMPI PUSH3 0x25A4 PUSH3 0x22C9 JUMP JUMPDEST JUMPDEST PUSH3 0x25B3 DUP6 DUP3 DUP7 ADD PUSH3 0x250E JUMP JUMPDEST SWAP3 POP SWAP3 POP POP SWAP3 POP SWAP3 SWAP1 POP JUMP JUMPDEST PUSH3 0x25CA DUP2 PUSH3 0x2497 JUMP JUMPDEST DUP2 EQ PUSH3 0x25D5 JUMPI PUSH0 DUP1 REVERT JUMPDEST POP JUMP JUMPDEST PUSH0 DUP2 CALLDATALOAD SWAP1 POP PUSH3 0x25E8 DUP2 PUSH3 0x25BF JUMP JUMPDEST SWAP3 SWAP2 POP POP JUMP JUMPDEST PUSH0 DUP1 REVERT JUMPDEST PUSH0 PUSH1 0x1F NOT PUSH1 0x1F DUP4 ADD AND SWAP1 POP SWAP2 SWAP1 POP JUMP JUMPDEST PUSH32 0x4E487B7100000000000000000000000000000000000000000000000000000000 PUSH0 MSTORE PUSH1 0x41 PUSH1 0x4 MSTORE PUSH1 0x24 PUSH0 REVERT JUMPDEST PUSH3 0x263A DUP3 PUSH3 0x25F2 JUMP JUMPDEST DUP2 ADD DUP2 DUP2 LT PUSH8 0xFFFFFFFFFFFFFFFF DUP3 GT OR ISZERO PUSH3 0x265C JUMPI PUSH3 0x265B PUSH3 0x2602 JUMP JUMPDEST JUMPDEST DUP1 PUSH1 0x40 MSTORE POP POP POP JUMP JUMPDEST PUSH0 PUSH3 0x2670 PUSH3 0x22BC JUMP JUMPDEST SWAP1 POP PUSH3 0x267E DUP3 DUP3 PUSH3 0x262F JUMP JUMPDEST SWAP2 SWAP1 POP JUMP JUMPDEST PUSH0 PUSH8 0xFFFFFFFFFFFFFFFF DUP3 GT ISZERO PUSH3 0x26A0 JUMPI PUSH3 0x269F PUSH3 0x2602 JUMP JUMPDEST JUMPDEST PUSH3 0x26AB DUP3 PUSH3 0x25F2 JUMP JUMPDEST SWAP1 POP PUSH1 0x20 DUP2 ADD SWAP1 POP SWAP2 SWAP1 POP JUMP JUMPDEST DUP3 DUP2 DUP4 CALLDATACOPY PUSH0 DUP4 DUP4 ADD MSTORE POP POP POP JUMP JUMPDEST PUSH0 PUSH3 0x26DC PUSH3 0x26D6 DUP5 PUSH3 0x2683 JUMP JUMPDEST PUSH3 0x2665 JUMP JUMPDEST SWAP1 POP DUP3 DUP2 MSTORE PUSH1 0x20 DUP2 ADD DUP5 DUP5 DUP5 ADD GT ISZERO PUSH3 0x26FB JUMPI PUSH3 0x26FA PUSH3 0x25EE JUMP JUMPDEST JUMPDEST PUSH3 0x2708 DUP5 DUP3 DUP6 PUSH3 0x26B8 JUMP JUMPDEST POP SWAP4 SWAP3 POP POP POP JUMP JUMPDEST PUSH0 DUP3 PUSH1 0x1F DUP4 ADD SLT PUSH3 0x2727 JUMPI PUSH3 0x2726 PUSH3 0x2502 JUMP JUMPDEST JUMPDEST DUP2 CALLDATALOAD PUSH3 0x2739 DUP5 DUP3 PUSH1 0x20 DUP7 ADD PUSH3 0x26C6 JUMP JUMPDEST SWAP2 POP POP SWAP3 SWAP2 POP POP JUMP JUMPDEST PUSH0 PUSH8 0xFFFFFFFFFFFFFFFF DUP3 GT ISZERO PUSH3 0x275F JUMPI PUSH3 0x275E PUSH3 0x2602 JUMP JUMPDEST JUMPDEST PUSH1 0x20 DUP3 MUL SWAP1 POP PUSH1 0x20 DUP2 ADD SWAP1 POP SWAP2 SWAP1 POP JUMP JUMPDEST PUSH0 PUSH3 0x2786 PUSH3 0x2780 DUP5 PUSH3 0x2742 JUMP JUMPDEST PUSH3 0x2665 JUMP JUMPDEST SWAP1 POP DUP1 DUP4 DUP3 MSTORE PUSH1 0x20 DUP3 ADD SWAP1 POP PUSH1 0x20 DUP5 MUL DUP4 ADD DUP6 DUP2 GT ISZERO PUSH3 0x27AC JUMPI PUSH3 0x27AB PUSH3 0x250A JUMP JUMPDEST JUMPDEST DUP4 JUMPDEST DUP2 DUP2 LT ISZERO PUSH3 0x27D9 JUMPI DUP1 PUSH3 0x27C4 DUP9 DUP3 PUSH3 0x25D8 JUMP JUMPDEST DUP5 MSTORE PUSH1 0x20 DUP5 ADD SWAP4 POP POP PUSH1 0x20 DUP2 ADD SWAP1 POP PUSH3 0x27AE JUMP JUMPDEST POP POP POP SWAP4 SWAP3 POP POP POP JUMP JUMPDEST PUSH0 DUP3 PUSH1 0x1F DUP4 ADD SLT PUSH3 0x27FA JUMPI PUSH3 0x27F9 PUSH3 0x2502 JUMP JUMPDEST JUMPDEST DUP2 CALLDATALOAD PUSH3 0x280C DUP5 DUP3 PUSH1 0x20 DUP7 ADD PUSH3 0x2770 JUMP JUMPDEST SWAP2 POP POP SWAP3 SWAP2 POP POP JUMP JUMPDEST PUSH0 DUP1 PUSH0 PUSH1 0x60 DUP5 DUP7 SUB SLT ISZERO PUSH3 0x282F JUMPI PUSH3 0x282E PUSH3 0x22C5 JUMP JUMPDEST JUMPDEST PUSH0 PUSH3 0x283E DUP7 DUP3 DUP8 ADD PUSH3 0x25D8 JUMP JUMPDEST SWAP4 POP POP PUSH1 0x20 DUP5 ADD CALLDATALOAD PUSH8 0xFFFFFFFFFFFFFFFF DUP2 GT ISZERO PUSH3 0x2862 JUMPI PUSH3 0x2861 PUSH3 0x22C9 JUMP JUMPDEST JUMPDEST PUSH3 0x2870 DUP7 DUP3 DUP8 ADD PUSH3 0x2710 JUMP JUMPDEST SWAP3 POP POP PUSH1 0x40 DUP5 ADD CALLDATALOAD PUSH8 0xFFFFFFFFFFFFFFFF DUP2 GT ISZERO PUSH3 0x2894 JUMPI PUSH3 0x2893 PUSH3 0x22C9 JUMP JUMPDEST JUMPDEST PUSH3 0x28A2 DUP7 DUP3 DUP8 ADD PUSH3 0x27E3 JUMP JUMPDEST SWAP2 POP POP SWAP3 POP SWAP3 POP SWAP3 JUMP JUMPDEST PUSH0 DUP1 PUSH1 0x40 DUP4 DUP6 SUB SLT ISZERO PUSH3 0x28C5 JUMPI PUSH3 0x28C4 PUSH3 0x22C5 JUMP JUMPDEST JUMPDEST PUSH0 PUSH3 0x28D4 DUP6 DUP3 DUP7 ADD PUSH3 0x25D8 JUMP JUMPDEST SWAP3 POP POP PUSH1 0x20 PUSH3 0x28E7 DUP6 DUP3 DUP7 ADD PUSH3 0x2451 JUMP JUMPDEST SWAP2 POP POP SWAP3 POP SWAP3 SWAP1 POP JUMP JUMPDEST PUSH0 DUP2 MLOAD SWAP1 POP SWAP2 SWAP1 POP JUMP JUMPDEST PUSH0 DUP3 DUP3 MSTORE PUSH1 0x20 DUP3 ADD SWAP1 POP SWAP3 SWAP2 POP POP JUMP JUMPDEST PUSH0 JUMPDEST DUP4 DUP2 LT ISZERO PUSH3 0x292A JUMPI DUP1 DUP3 ADD MLOAD DUP2 DUP5 ADD MSTORE PUSH1 0x20 DUP2 ADD SWAP1 POP PUSH3 0x290D JUMP JUMPDEST PUSH0 DUP5 DUP5 ADD MSTORE POP POP POP POP JUMP JUMPDEST PUSH0 PUSH3 0x2941 DUP3 PUSH3 0x28F1 JUMP JUMPDEST PUSH3 0x294D DUP2 DUP6 PUSH3 0x28FB JUMP JUMPDEST SWAP4 POP PUSH3 0x295F DUP2 DUP6 PUSH1 0x20 DUP7 ADD PUSH3 0x290B JUMP JUMPDEST PUSH3 0x296A DUP2 PUSH3 0x25F2 JUMP JUMPDEST DUP5 ADD SWAP2 POP POP SWAP3 SWAP2 POP POP JUMP JUMPDEST PUSH0 PUSH1 0x20 DUP3 ADD SWAP1 POP DUP2 DUP2 SUB PUSH0 DUP4 ADD MSTORE PUSH3 0x298F DUP2 DUP5 PUSH3 0x2935 JUMP JUMPDEST SWAP1 POP SWAP3 SWAP2 POP POP JUMP JUMPDEST PUSH0 DUP2 MLOAD SWAP1 POP SWAP2 SWAP1 POP JUMP JUMPDEST PUSH0 DUP3 DUP3 MSTORE PUSH1 0x20 DUP3 ADD SWAP1 POP SWAP3 SWAP2 POP POP JUMP JUMPDEST PUSH0 PUSH3 0x29BD DUP3 PUSH3 0x2997 JUMP JUMPDEST PUSH3 0x29C9 DUP2 DUP6 PUSH3 0x29A1 JUMP JUMPDEST SWAP4 POP PUSH3 0x29DB DUP2 DUP6 PUSH1 0x20 DUP7 ADD PUSH3 0x290B JUMP JUMPDEST PUSH3 0x29E6 DUP2 PUSH3 0x25F2 JUMP JUMPDEST DUP5 ADD SWAP2 POP POP SWAP3 SWAP2 POP POP JUMP JUMPDEST PUSH0 PUSH1 0x40 DUP3 ADD SWAP1 POP PUSH3 0x2A06 PUSH0 DUP4 ADD DUP6 PUSH3 0x2362 JUMP JUMPDEST DUP2 DUP2 SUB PUSH1 0x20 DUP4 ADD MSTORE PUSH3 0x2A1A DUP2 DUP5 PUSH3 0x29B1 JUMP JUMPDEST SWAP1 POP SWAP4 SWAP3 POP POP POP JUMP JUMPDEST PUSH0 PUSH3 0x2A2F DUP3 PUSH3 0x23DD JUMP JUMPDEST SWAP1 POP SWAP2 SWAP1 POP JUMP JUMPDEST PUSH3 0x2A41 DUP2 PUSH3 0x2A23 JUMP JUMPDEST DUP3 MSTORE POP POP JUMP JUMPDEST PUSH0 PUSH1 0x20 DUP3 ADD SWAP1 POP PUSH3 0x2A5C PUSH0 DUP4 ADD DUP5 PUSH3 0x2A36 JUMP JUMPDEST SWAP3 SWAP2 POP POP JUMP JUMPDEST PUSH0 DUP1 REVERT JUMPDEST PUSH0 PUSH1 0xA0 DUP3 DUP5 SUB SLT ISZERO PUSH3 0x2A7E JUMPI PUSH3 0x2A7D PUSH3 0x2A62 JUMP JUMPDEST JUMPDEST DUP2 SWAP1 POP SWAP3 SWAP2 POP POP JUMP JUMPDEST PUSH0 PUSH1 0x20 DUP3 DUP5 SUB SLT ISZERO PUSH3 0x2A9F JUMPI PUSH3 0x2A9E PUSH3 0x22C5 JUMP JUMPDEST JUMPDEST PUSH0 DUP3 ADD CALLDATALOAD PUSH8 0xFFFFFFFFFFFFFFFF DUP2 GT ISZERO PUSH3 0x2ABF JUMPI PUSH3 0x2ABE PUSH3 0x22C9 JUMP JUMPDEST JUMPDEST PUSH3 0x2ACD DUP5 DUP3 DUP6 ADD PUSH3 0x2A66 JUMP JUMPDEST SWAP2 POP POP SWAP3 SWAP2 POP POP JUMP JUMPDEST PUSH0 DUP1 PUSH0 PUSH1 0x60 DUP5 DUP7 SUB SLT ISZERO PUSH3 0x2AF0 JUMPI PUSH3 0x2AEF PUSH3 0x22C5 JUMP JUMPDEST JUMPDEST PUSH0 DUP5 ADD CALLDATALOAD PUSH8 0xFFFFFFFFFFFFFFFF DUP2 GT ISZERO PUSH3 0x2B10 JUMPI PUSH3 0x2B0F PUSH3 0x22C9 JUMP JUMPDEST JUMPDEST PUSH3 0x2B1E DUP7 DUP3 DUP8 ADD PUSH3 0x2710 JUMP JUMPDEST SWAP4 POP POP PUSH1 0x20 DUP5 ADD CALLDATALOAD PUSH8 0xFFFFFFFFFFFFFFFF DUP2 GT ISZERO PUSH3 0x2B42 JUMPI PUSH3 0x2B41 PUSH3 0x22C9 JUMP JUMPDEST JUMPDEST PUSH3 0x2B50 DUP7 DUP3 DUP8 ADD PUSH3 0x2710 JUMP JUMPDEST SWAP3 POP POP PUSH1 0x40 DUP5 ADD CALLDATALOAD PUSH8 0xFFFFFFFFFFFFFFFF DUP2 GT ISZERO PUSH3 0x2B74 JUMPI PUSH3 0x2B73 PUSH3 0x22C9 JUMP JUMPDEST JUMPDEST PUSH3 0x2B82 DUP7 DUP3 DUP8 ADD PUSH3 0x2710 JUMP JUMPDEST SWAP2 POP POP SWAP3 POP SWAP3 POP SWAP3 JUMP JUMPDEST PUSH0 DUP2 SWAP1 POP SWAP2 SWAP1 POP JUMP JUMPDEST PUSH3 0x2BA0 DUP2 PUSH3 0x2B8C JUMP JUMPDEST DUP3 MSTORE POP POP JUMP JUMPDEST PUSH0 PUSH1 0x20 DUP3 ADD SWAP1 POP PUSH3 0x2BBB PUSH0 DUP4 ADD DUP5 PUSH3 0x2B95 JUMP JUMPDEST SWAP3 SWAP2 POP POP JUMP JUMPDEST PUSH3 0x2BCC DUP2 PUSH3 0x2B8C JUMP JUMPDEST DUP2 EQ PUSH3 0x2BD7 JUMPI PUSH0 DUP1 REVERT JUMPDEST POP JUMP JUMPDEST PUSH0 DUP2 CALLDATALOAD SWAP1 POP PUSH3 0x2BEA DUP2 PUSH3 0x2BC1 JUMP JUMPDEST SWAP3 SWAP2 POP POP JUMP JUMPDEST PUSH0 DUP1 PUSH0 DUP1 PUSH1 0x80 DUP6 DUP8 SUB SLT ISZERO PUSH3 0x2C0B JUMPI PUSH3 0x2C0A PUSH3 0x22C5 JUMP JUMPDEST JUMPDEST PUSH0 PUSH3 0x2C1A DUP8 DUP3 DUP9 ADD PUSH3 0x25D8 JUMP JUMPDEST SWAP5 POP POP PUSH1 0x20 PUSH3 0x2C2D DUP8 DUP3 DUP9 ADD PUSH3 0x2451 JUMP JUMPDEST SWAP4 POP POP PUSH1 0x40 PUSH3 0x2C40 DUP8 DUP3 DUP9 ADD PUSH3 0x2BDA JUMP JUMPDEST SWAP3 POP POP PUSH1 0x60 DUP6 ADD CALLDATALOAD PUSH8 0xFFFFFFFFFFFFFFFF DUP2 GT ISZERO PUSH3 0x2C64 JUMPI PUSH3 0x2C63 PUSH3 0x22C9 JUMP JUMPDEST JUMPDEST PUSH3 0x2C72 DUP8 DUP3 DUP9 ADD PUSH3 0x2710 JUMP JUMPDEST SWAP2 POP POP SWAP3 SWAP6 SWAP2 SWAP5 POP SWAP3 POP JUMP JUMPDEST PUSH0 DUP1 PUSH0 PUSH1 0x60 DUP5 DUP7 SUB SLT ISZERO PUSH3 0x2C98 JUMPI PUSH3 0x2C97 PUSH3 0x22C5 JUMP JUMPDEST JUMPDEST PUSH0 PUSH3 0x2CA7 DUP7 DUP3 DUP8 ADD PUSH3 0x25D8 JUMP JUMPDEST SWAP4 POP POP PUSH1 0x20 DUP5 ADD CALLDATALOAD PUSH8 0xFFFFFFFFFFFFFFFF DUP2 GT ISZERO PUSH3 0x2CCB JUMPI PUSH3 0x2CCA PUSH3 0x22C9 JUMP JUMPDEST JUMPDEST PUSH3 0x2CD9 DUP7 DUP3 DUP8 ADD PUSH3 0x2710 JUMP JUMPDEST SWAP3 POP POP PUSH1 0x40 PUSH3 0x2CEC DUP7 DUP3 DUP8 ADD PUSH3 0x2451 JUMP JUMPDEST SWAP2 POP POP SWAP3 POP SWAP3 POP SWAP3 JUMP JUMPDEST PUSH32 0x4E487B7100000000000000000000000000000000000000000000000000000000 PUSH0 MSTORE PUSH1 0x11 PUSH1 0x4 MSTORE PUSH1 0x24 PUSH0 REVERT JUMPDEST PUSH0 PUSH3 0x2D2F DUP3 PUSH3 0x242F JUMP JUMPDEST SWAP2 POP PUSH3 0x2D3C DUP4 PUSH3 0x242F JUMP JUMPDEST SWAP3 POP DUP3 DUP3 SUB SWAP1 POP DUP2 DUP2 GT ISZERO PUSH3 0x2D57 JUMPI PUSH3 0x2D56 PUSH3 0x2CF6 JUMP JUMPDEST JUMPDEST SWAP3 SWAP2 POP POP JUMP JUMPDEST PUSH32 0x4E487B7100000000000000000000000000000000000000000000000000000000 PUSH0 MSTORE PUSH1 0x32 PUSH1 0x4 MSTORE PUSH1 0x24 PUSH0 REVERT JUMPDEST PUSH32 0x4E487B7100000000000000000000000000000000000000000000000000000000 PUSH0 MSTORE PUSH1 0x22 PUSH1 0x4 MSTORE PUSH1 0x24 PUSH0 REVERT JUMPDEST PUSH0 PUSH1 0x2 DUP3 DIV SWAP1 POP PUSH1 0x1 DUP3 AND DUP1 PUSH3 0x2DCF JUMPI PUSH1 0x7F DUP3 AND SWAP2 POP JUMPDEST PUSH1 0x20 DUP3 LT DUP2 SUB PUSH3 0x2DE5 JUMPI PUSH3 0x2DE4 PUSH3 0x2D8A JUMP JUMPDEST JUMPDEST POP SWAP2 SWAP1 POP JUMP JUMPDEST PUSH0 DUP2 SWAP1 POP DUP2 PUSH0 MSTORE PUSH1 0x20 PUSH0 KECCAK256 SWAP1 POP SWAP2 SWAP1 POP JUMP JUMPDEST PUSH0 DUP2 SLOAD PUSH3 0x2E0B DUP2 PUSH3 0x2DB7 JUMP JUMPDEST PUSH3 0x2E17 DUP2 DUP7 PUSH3 0x28FB JUMP JUMPDEST SWAP5 POP PUSH1 0x1 DUP3 AND PUSH0 DUP2 EQ PUSH3 0x2E34 JUMPI PUSH1 0x1 DUP2 EQ PUSH3 0x2E4B JUMPI PUSH3 0x2E81 JUMP JUMPDEST PUSH1 0xFF NOT DUP4 AND DUP7 MSTORE DUP2 ISZERO ISZERO PUSH1 0x20 MUL DUP7 ADD SWAP4 POP PUSH3 0x2E81 JUMP JUMPDEST PUSH3 0x2E56 DUP6 PUSH3 0x2DEB JUMP JUMPDEST PUSH0 JUMPDEST DUP4 DUP2 LT ISZERO PUSH3 0x2E79 JUMPI DUP2 SLOAD DUP2 DUP10 ADD MSTORE PUSH1 0x1 DUP3 ADD SWAP2 POP PUSH1 0x20 DUP2 ADD SWAP1 POP PUSH3 0x2E58 JUMP JUMPDEST DUP1 DUP9 ADD SWAP6 POP POP POP JUMPDEST POP POP POP SWAP3 SWAP2 POP POP JUMP JUMPDEST PUSH0 PUSH1 0x80 DUP3 ADD SWAP1 POP PUSH3 0x2E9F PUSH0 DUP4 ADD DUP8 PUSH3 0x24AA JUMP JUMPDEST DUP2 DUP2 SUB PUSH1 0x20 DUP4 ADD MSTORE PUSH3 0x2EB3 DUP2 DUP7 PUSH3 0x2DFD JUMP JUMPDEST SWAP1 POP PUSH3 0x2EC4 PUSH1 0x40 DUP4 ADD DUP6 PUSH3 0x24AA JUMP JUMPDEST DUP2 DUP2 SUB PUSH1 0x60 DUP4 ADD MSTORE PUSH3 0x2ED8 DUP2 DUP5 PUSH3 0x2DFD JUMP JUMPDEST SWAP1 POP SWAP6 SWAP5 POP POP POP POP POP JUMP JUMPDEST PUSH0 DUP1 REVERT JUMPDEST PUSH0 DUP1 REVERT JUMPDEST PUSH0 PUSH8 0xFFFFFFFFFFFFFFFF DUP3 AND SWAP1 POP SWAP2 SWAP1 POP JUMP JUMPDEST PUSH3 0x2F09 DUP2 PUSH3 0x2EEB JUMP JUMPDEST DUP2 EQ PUSH3 0x2F14 JUMPI PUSH0 DUP1 REVERT JUMPDEST POP JUMP JUMPDEST PUSH0 DUP2 CALLDATALOAD SWAP1 POP PUSH3 0x2F27 DUP2 PUSH3 0x2EFE JUMP JUMPDEST SWAP3 SWAP2 POP POP JUMP JUMPDEST PUSH0 PUSH8 0xFFFFFFFFFFFFFFFF DUP3 GT ISZERO PUSH3 0x2F4A JUMPI PUSH3 0x2F49 PUSH3 0x2602 JUMP JUMPDEST JUMPDEST PUSH3 0x2F55 DUP3 PUSH3 0x25F2 JUMP JUMPDEST SWAP1 POP PUSH1 0x20 DUP2 ADD SWAP1 POP SWAP2 SWAP1 POP JUMP JUMPDEST PUSH0 PUSH3 0x2F78 PUSH3 0x2F72 DUP5 PUSH3 0x2F2D JUMP JUMPDEST PUSH3 0x2665 JUMP JUMPDEST SWAP1 POP DUP3 DUP2 MSTORE PUSH1 0x20 DUP2 ADD DUP5 DUP5 DUP5 ADD GT ISZERO PUSH3 0x2F97 JUMPI PUSH3 0x2F96 PUSH3 0x25EE JUMP JUMPDEST JUMPDEST PUSH3 0x2FA4 DUP5 DUP3 DUP6 PUSH3 0x26B8 JUMP JUMPDEST POP SWAP4 SWAP3 POP POP POP JUMP JUMPDEST PUSH0 DUP3 PUSH1 0x1F DUP4 ADD SLT PUSH3 0x2FC3 JUMPI PUSH3 0x2FC2 PUSH3 0x2502 JUMP JUMPDEST JUMPDEST DUP2 CALLDATALOAD PUSH3 0x2FD5 DUP5 DUP3 PUSH1 0x20 DUP7 ADD PUSH3 0x2F62 JUMP JUMPDEST SWAP2 POP POP SWAP3 SWAP2 POP POP JUMP JUMPDEST PUSH0 PUSH8 0xFFFFFFFFFFFFFFFF DUP3 GT ISZERO PUSH3 0x2FFB JUMPI PUSH3 0x2FFA PUSH3 0x2602 JUMP JUMPDEST JUMPDEST PUSH1 0x20 DUP3 MUL SWAP1 POP PUSH1 0x20 DUP2 ADD SWAP1 POP SWAP2 SWAP1 POP JUMP JUMPDEST PUSH0 PUSH1 0x40 DUP3 DUP5 SUB SLT ISZERO PUSH3 0x3024 JUMPI PUSH3 0x3023 PUSH3 0x2EE3 JUMP JUMPDEST JUMPDEST PUSH3 0x3030 PUSH1 0x40 PUSH3 0x2665 JUMP JUMPDEST SWAP1 POP PUSH0 PUSH3 0x3041 DUP5 DUP3 DUP6 ADD PUSH3 0x25D8 JUMP JUMPDEST PUSH0 DUP4 ADD MSTORE POP PUSH1 0x20 PUSH3 0x3056 DUP5 DUP3 DUP6 ADD PUSH3 0x2451 JUMP JUMPDEST PUSH1 0x20 DUP4 ADD MSTORE POP SWAP3 SWAP2 POP POP JUMP JUMPDEST PUSH0 PUSH3 0x3078 PUSH3 0x3072 DUP5 PUSH3 0x2FDE JUMP JUMPDEST PUSH3 0x2665 JUMP JUMPDEST SWAP1 POP DUP1 DUP4 DUP3 MSTORE PUSH1 0x20 DUP3 ADD SWAP1 POP PUSH1 0x40 DUP5 MUL DUP4 ADD DUP6 DUP2 GT ISZERO PUSH3 0x309E JUMPI PUSH3 0x309D PUSH3 0x250A JUMP JUMPDEST JUMPDEST DUP4 JUMPDEST DUP2 DUP2 LT ISZERO PUSH3 0x30CB JUMPI DUP1 PUSH3 0x30B6 DUP9 DUP3 PUSH3 0x300C JUMP JUMPDEST DUP5 MSTORE PUSH1 0x20 DUP5 ADD SWAP4 POP POP PUSH1 0x40 DUP2 ADD SWAP1 POP PUSH3 0x30A0 JUMP JUMPDEST POP POP POP SWAP4 SWAP3 POP POP POP JUMP JUMPDEST PUSH0 DUP3 PUSH1 0x1F DUP4 ADD SLT PUSH3 0x30EC JUMPI PUSH3 0x30EB PUSH3 0x2502 JUMP JUMPDEST JUMPDEST DUP2 CALLDATALOAD PUSH3 0x30FE DUP5 DUP3 PUSH1 0x20 DUP7 ADD PUSH3 0x3062 JUMP JUMPDEST SWAP2 POP POP SWAP3 SWAP2 POP POP JUMP JUMPDEST PUSH0 PUSH1 0xA0 DUP3 DUP5 SUB SLT ISZERO PUSH3 0x311F JUMPI PUSH3 0x311E PUSH3 0x2EE3 JUMP JUMPDEST JUMPDEST PUSH3 0x312B PUSH1 0xA0 PUSH3 0x2665 JUMP JUMPDEST SWAP1 POP PUSH0 PUSH3 0x313C DUP5 DUP3 DUP6 ADD PUSH3 0x2BDA JUMP JUMPDEST PUSH0 DUP4 ADD MSTORE POP PUSH1 0x20 PUSH3 0x3151 DUP5 DUP3 DUP6 ADD PUSH3 0x2F17 JUMP JUMPDEST PUSH1 0x20 DUP4 ADD MSTORE POP PUSH1 0x40 DUP3 ADD CALLDATALOAD PUSH8 0xFFFFFFFFFFFFFFFF DUP2 GT ISZERO PUSH3 0x3178 JUMPI PUSH3 0x3177 PUSH3 0x2EE7 JUMP JUMPDEST JUMPDEST PUSH3 0x3186 DUP5 DUP3 DUP6 ADD PUSH3 0x2FAC JUMP JUMPDEST PUSH1 0x40 DUP4 ADD MSTORE POP PUSH1 0x60 DUP3 ADD CALLDATALOAD PUSH8 0xFFFFFFFFFFFFFFFF DUP2 GT ISZERO PUSH3 0x31AD JUMPI PUSH3 0x31AC PUSH3 0x2EE7 JUMP JUMPDEST JUMPDEST PUSH3 0x31BB DUP5 DUP3 DUP6 ADD PUSH3 0x2FAC JUMP JUMPDEST PUSH1 0x60 DUP4 ADD MSTORE POP PUSH1 0x80 DUP3 ADD CALLDATALOAD PUSH8 0xFFFFFFFFFFFFFFFF DUP2 GT ISZERO PUSH3 0x31E2 JUMPI PUSH3 0x31E1 PUSH3 0x2EE7 JUMP JUMPDEST JUMPDEST PUSH3 0x31F0 DUP5 DUP3 DUP6 ADD PUSH3 0x30D5 JUMP JUMPDEST PUSH1 0x80 DUP4 ADD MSTORE POP SWAP3 SWAP2 POP POP JUMP JUMPDEST PUSH0 PUSH3 0x3209 CALLDATASIZE DUP4 PUSH3 0x3107 JUMP JUMPDEST SWAP1 POP SWAP2 SWAP1 POP JUMP JUMPDEST PUSH0 PUSH3 0x321C DUP3 PUSH3 0x242F JUMP JUMPDEST SWAP2 POP PUSH32 0xFFFFFFFFFFFFFFFFFFFFFFFFFFFFFFFFFFFFFFFFFFFFFFFFFFFFFFFFFFFFFFFF DUP3 SUB PUSH3 0x3251 JUMPI PUSH3 0x3250 PUSH3 0x2CF6 JUMP JUMPDEST JUMPDEST PUSH1 0x1 DUP3 ADD SWAP1 POP SWAP2 SWAP1 POP JUMP JUMPDEST PUSH0 DUP2 SWAP1 POP SWAP3 SWAP2 POP POP JUMP JUMPDEST PUSH0 PUSH3 0x3272 DUP3 PUSH3 0x28F1 JUMP JUMPDEST PUSH3 0x327E DUP2 DUP6 PUSH3 0x325C JUMP JUMPDEST SWAP4 POP PUSH3 0x3290 DUP2 DUP6 PUSH1 0x20 DUP7 ADD PUSH3 0x290B JUMP JUMPDEST DUP1 DUP5 ADD SWAP2 POP POP SWAP3 SWAP2 POP POP JUMP JUMPDEST PUSH0 DUP2 SWAP1 POP SWAP2 SWAP1 POP JUMP JUMPDEST PUSH3 0x32BA PUSH3 0x32B4 DUP3 PUSH3 0x242F JUMP JUMPDEST PUSH3 0x329C JUMP JUMPDEST DUP3 MSTORE POP POP JUMP JUMPDEST PUSH0 PUSH3 0x32CD DUP3 DUP6 PUSH3 0x3266 JUMP JUMPDEST SWAP2 POP PUSH3 0x32DB DUP3 DUP5 PUSH3 0x32A5 JUMP JUMPDEST PUSH1 0x20 DUP3 ADD SWAP2 POP DUP2 SWAP1 POP SWAP4 SWAP3 POP POP POP JUMP JUMPDEST PUSH0 PUSH1 0x80 DUP3 ADD SWAP1 POP PUSH3 0x3300 PUSH0 DUP4 ADD DUP8 PUSH3 0x24AA JUMP JUMPDEST DUP2 DUP2 SUB PUSH1 0x20 DUP4 ADD MSTORE PUSH3 0x3314 DUP2 DUP7 PUSH3 0x2935 JUMP JUMPDEST SWAP1 POP PUSH3 0x3325 PUSH1 0x40 DUP4 ADD DUP6 PUSH3 0x24AA JUMP JUMPDEST DUP2 DUP2 SUB PUSH1 0x60 DUP4 ADD MSTORE PUSH3 0x3339 DUP2 DUP5 PUSH3 0x2935 JUMP JUMPDEST SWAP1 POP SWAP6 SWAP5 POP POP POP POP POP JUMP JUMPDEST PUSH0 DUP2 MLOAD SWAP1 POP SWAP2 SWAP1 POP JUMP JUMPDEST PUSH0 DUP3 DUP3 MSTORE PUSH1 0x20 DUP3 ADD SWAP1 POP SWAP3 SWAP2 POP POP JUMP JUMPDEST PUSH0 DUP2 SWAP1 POP PUSH1 0x20 DUP3 ADD SWAP1 POP SWAP2 SWAP1 POP JUMP JUMPDEST PUSH3 0x3378 DUP2 PUSH3 0x2497 JUMP JUMPDEST DUP3 MSTORE POP POP JUMP JUMPDEST PUSH0 PUSH3 0x338B DUP4 DUP4 PUSH3 0x336D JUMP JUMPDEST PUSH1 0x20 DUP4 ADD SWAP1 POP SWAP3 SWAP2 POP POP JUMP JUMPDEST PUSH0 PUSH1 0x20 DUP3 ADD SWAP1 POP SWAP2 SWAP1 POP JUMP JUMPDEST PUSH0 PUSH3 0x33AF DUP3 PUSH3 0x3344 JUMP JUMPDEST PUSH3 0x33BB DUP2 DUP6 PUSH3 0x334E JUMP JUMPDEST SWAP4 POP PUSH3 0x33C8 DUP4 PUSH3 0x335E JUMP JUMPDEST DUP1 PUSH0 JUMPDEST DUP4 DUP2 LT ISZERO PUSH3 0x33FE JUMPI DUP2 MLOAD PUSH3 0x33E2 DUP9 DUP3 PUSH3 0x337E JUMP JUMPDEST SWAP8 POP PUSH3 0x33EF DUP4 PUSH3 0x3397 JUMP JUMPDEST SWAP3 POP POP PUSH1 0x1 DUP2 ADD SWAP1 POP PUSH3 0x33CB JUMP JUMPDEST POP DUP6 SWAP4 POP POP POP POP SWAP3 SWAP2 POP POP JUMP JUMPDEST PUSH0 PUSH1 0x60 DUP3 ADD SWAP1 POP DUP2 DUP2 SUB PUSH0 DUP4 ADD MSTORE PUSH3 0x3425 DUP2 DUP7 PUSH3 0x2935 JUMP JUMPDEST SWAP1 POP DUP2 DUP2 SUB PUSH1 0x20 DUP4 ADD MSTORE PUSH3 0x343B DUP2 DUP6 PUSH3 0x33A3 JUMP JUMPDEST SWAP1 POP PUSH3 0x344C PUSH1 0x40 DUP4 ADD DUP5 PUSH3 0x24AA JUMP JUMPDEST SWAP5 SWAP4 POP POP POP POP JUMP JUMPDEST PUSH0 DUP2 MLOAD SWAP1 POP PUSH3 0x3464 DUP2 PUSH3 0x2438 JUMP JUMPDEST SWAP3 SWAP2 POP POP JUMP JUMPDEST PUSH0 PUSH1 0x20 DUP3 DUP5 SUB SLT ISZERO PUSH3 0x3482 JUMPI PUSH3 0x3481 PUSH3 0x22C5 JUMP JUMPDEST JUMPDEST PUSH0 PUSH3 0x3491 DUP5 DUP3 DUP6 ADD PUSH3 0x3454 JUMP JUMPDEST SWAP2 POP POP SWAP3 SWAP2 POP POP JUMP JUMPDEST PUSH0 PUSH1 0x40 DUP3 ADD SWAP1 POP PUSH3 0x34AF PUSH0 DUP4 ADD DUP6 PUSH3 0x24D6 JUMP JUMPDEST PUSH3 0x34BE PUSH1 0x20 DUP4 ADD DUP5 PUSH3 0x24AA JUMP JUMPDEST SWAP4 SWAP3 POP POP POP JUMP JUMPDEST PUSH0 DUP2 MLOAD SWAP1 POP PUSH3 0x34D5 DUP2 PUSH3 0x2BC1 JUMP JUMPDEST SWAP3 SWAP2 POP POP JUMP JUMPDEST PUSH0 DUP1 PUSH1 0x40 DUP4 DUP6 SUB SLT ISZERO PUSH3 0x34F4 JUMPI PUSH3 0x34F3 PUSH3 0x22C5 JUMP JUMPDEST JUMPDEST PUSH0 PUSH3 0x3503 DUP6 DUP3 DUP7 ADD PUSH3 0x34C5 JUMP JUMPDEST SWAP3 POP POP PUSH1 0x20 PUSH3 0x3516 DUP6 DUP3 DUP7 ADD PUSH3 0x3454 JUMP JUMPDEST SWAP2 POP POP SWAP3 POP SWAP3 SWAP1 POP JUMP JUMPDEST PUSH32 0x4E487B7100000000000000000000000000000000000000000000000000000000 PUSH0 MSTORE PUSH1 0x21 PUSH1 0x4 MSTORE PUSH1 0x24 PUSH0 REVERT JUMPDEST PUSH32 0x494E56414C4944204F5045524154494F4E000000000000000000000000000000 PUSH0 DUP3 ADD MSTORE POP JUMP JUMPDEST PUSH0 PUSH3 0x3583 PUSH1 0x11 DUP4 PUSH3 0x28FB JUMP JUMPDEST SWAP2 POP PUSH3 0x3590 DUP3 PUSH3 0x354D JUMP JUMPDEST PUSH1 0x20 DUP3 ADD SWAP1 POP SWAP2 SWAP1 POP JUMP JUMPDEST PUSH0 PUSH1 0x20 DUP3 ADD SWAP1 POP DUP2 DUP2 SUB PUSH0 DUP4 ADD MSTORE PUSH3 0x35B4 DUP2 PUSH3 0x3575 JUMP JUMPDEST SWAP1 POP SWAP2 SWAP1 POP JUMP JUMPDEST PUSH0 PUSH1 0x80 DUP3 ADD SWAP1 POP PUSH3 0x35D0 PUSH0 DUP4 ADD DUP8 PUSH3 0x24D6 JUMP JUMPDEST PUSH3 0x35DF PUSH1 0x20 DUP4 ADD DUP7 PUSH3 0x2B95 JUMP JUMPDEST DUP2 DUP2 SUB PUSH1 0x40 DUP4 ADD MSTORE PUSH3 0x35F3 DUP2 DUP6 PUSH3 0x2935 JUMP JUMPDEST SWAP1 POP PUSH3 0x3604 PUSH1 0x60 DUP4 ADD DUP5 PUSH3 0x24AA JUMP JUMPDEST SWAP6 SWAP5 POP POP POP POP POP JUMP JUMPDEST PUSH0 PUSH1 0x60 DUP3 ADD SWAP1 POP PUSH3 0x3622 PUSH0 DUP4 ADD DUP7 PUSH3 0x24D6 JUMP JUMPDEST DUP2 DUP2 SUB PUSH1 0x20 DUP4 ADD MSTORE PUSH3 0x3636 DUP2 DUP6 PUSH3 0x2935 JUMP JUMPDEST SWAP1 POP PUSH3 0x3647 PUSH1 0x40 DUP4 ADD DUP5 PUSH3 0x24AA JUMP JUMPDEST SWAP5 SWAP4 POP POP POP POP JUMP JUMPDEST PUSH0 PUSH3 0x365C DUP3 DUP5 PUSH3 0x3266 JUMP JUMPDEST SWAP2 POP DUP2 SWAP1 POP SWAP3 SWAP2 POP POP JUMP JUMPDEST PUSH0 PUSH1 0xFF DUP3 AND SWAP1 POP SWAP2 SWAP1 POP JUMP JUMPDEST PUSH3 0x367E DUP2 PUSH3 0x3667 JUMP JUMPDEST DUP2 EQ PUSH3 0x3689 JUMPI PUSH0 DUP1 REVERT JUMPDEST POP JUMP JUMPDEST PUSH0 DUP2 MLOAD SWAP1 POP PUSH3 0x369C DUP2 PUSH3 0x3673 JUMP JUMPDEST SWAP3 SWAP2 POP POP JUMP JUMPDEST PUSH0 PUSH3 0x36B8 PUSH3 0x36B2 DUP5 PUSH3 0x2F2D JUMP JUMPDEST PUSH3 0x2665 JUMP JUMPDEST SWAP1 POP DUP3 DUP2 MSTORE PUSH1 0x20 DUP2 ADD DUP5 DUP5 DUP5 ADD GT ISZERO PUSH3 0x36D7 JUMPI PUSH3 0x36D6 PUSH3 0x25EE JUMP JUMPDEST JUMPDEST PUSH3 0x36E4 DUP5 DUP3 DUP6 PUSH3 0x290B JUMP JUMPDEST POP SWAP4 SWAP3 POP POP POP JUMP JUMPDEST PUSH0 DUP3 PUSH1 0x1F DUP4 ADD SLT PUSH3 0x3703 JUMPI PUSH3 0x3702 PUSH3 0x2502 JUMP JUMPDEST JUMPDEST DUP2 MLOAD PUSH3 0x3715 DUP5 DUP3 PUSH1 0x20 DUP7 ADD PUSH3 0x36A2 JUMP JUMPDEST SWAP2 POP POP SWAP3 SWAP2 POP POP JUMP JUMPDEST PUSH0 DUP1 PUSH1 0x40 DUP4 DUP6 SUB SLT ISZERO PUSH3 0x3737 JUMPI PUSH3 0x3736 PUSH3 0x22C5 JUMP JUMPDEST JUMPDEST PUSH0 PUSH3 0x3746 DUP6 DUP3 DUP7 ADD PUSH3 0x368C JUMP JUMPDEST SWAP3 POP POP PUSH1 0x20 DUP4 ADD MLOAD PUSH8 0xFFFFFFFFFFFFFFFF DUP2 GT ISZERO PUSH3 0x376A JUMPI PUSH3 0x3769 PUSH3 0x22C9 JUMP JUMPDEST JUMPDEST PUSH3 0x3778 DUP6 DUP3 DUP7 ADD PUSH3 0x36EC JUMP JUMPDEST SWAP2 POP POP SWAP3 POP SWAP3 SWAP1 POP JUMP JUMPDEST PUSH0 PUSH3 0x3798 PUSH3 0x3792 DUP5 PUSH3 0x2683 JUMP JUMPDEST PUSH3 0x2665 JUMP JUMPDEST SWAP1 POP DUP3 DUP2 MSTORE PUSH1 0x20 DUP2 ADD DUP5 DUP5 DUP5 ADD GT ISZERO PUSH3 0x37B7 JUMPI PUSH3 0x37B6 PUSH3 0x25EE JUMP JUMPDEST JUMPDEST PUSH3 0x37C4 DUP5 DUP3 DUP6 PUSH3 0x290B JUMP JUMPDEST POP SWAP4 SWAP3 POP POP POP JUMP JUMPDEST PUSH0 DUP3 PUSH1 0x1F DUP4 ADD SLT PUSH3 0x37E3 JUMPI PUSH3 0x37E2 PUSH3 0x2502 JUMP JUMPDEST JUMPDEST DUP2 MLOAD PUSH3 0x37F5 DUP5 DUP3 PUSH1 0x20 DUP7 ADD PUSH3 0x3782 JUMP JUMPDEST SWAP2 POP POP SWAP3 SWAP2 POP POP JUMP JUMPDEST PUSH0 DUP2 MLOAD SWAP1 POP PUSH3 0x380E DUP2 PUSH3 0x25BF JUMP JUMPDEST SWAP3 SWAP2 POP POP JUMP JUMPDEST PUSH0 PUSH1 0x80 DUP3 DUP5 SUB SLT ISZERO PUSH3 0x382C JUMPI PUSH3 0x382B PUSH3 0x2EE3 JUMP JUMPDEST JUMPDEST PUSH3 0x3838 PUSH1 0x80 PUSH3 0x2665 JUMP JUMPDEST SWAP1 POP PUSH0 DUP3 ADD MLOAD PUSH8 0xFFFFFFFFFFFFFFFF DUP2 GT ISZERO PUSH3 0x385A JUMPI PUSH3 0x3859 PUSH3 0x2EE7 JUMP JUMPDEST JUMPDEST PUSH3 0x3868 DUP5 DUP3 DUP6 ADD PUSH3 0x37CC JUMP JUMPDEST PUSH0 DUP4 ADD MSTORE POP PUSH1 0x20 DUP3 ADD MLOAD PUSH8 0xFFFFFFFFFFFFFFFF DUP2 GT ISZERO PUSH3 0x388E JUMPI PUSH3 0x388D PUSH3 0x2EE7 JUMP JUMPDEST JUMPDEST PUSH3 0x389C DUP5 DUP3 DUP6 ADD PUSH3 0x37CC JUMP JUMPDEST PUSH1 0x20 DUP4 ADD MSTORE POP PUSH1 0x40 DUP3 ADD MLOAD PUSH8 0xFFFFFFFFFFFFFFFF DUP2 GT ISZERO PUSH3 0x38C3 JUMPI PUSH3 0x38C2 PUSH3 0x2EE7 JUMP JUMPDEST JUMPDEST PUSH3 0x38D1 DUP5 DUP3 DUP6 ADD PUSH3 0x37CC JUMP JUMPDEST PUSH1 0x40 DUP4 ADD MSTORE POP PUSH1 0x60 PUSH3 0x38E7 DUP5 DUP3 DUP6 ADD PUSH3 0x37FE JUMP JUMPDEST PUSH1 0x60 DUP4 ADD MSTORE POP SWAP3 SWAP2 POP POP JUMP JUMPDEST PUSH0 PUSH1 0x20 DUP3 DUP5 SUB SLT ISZERO PUSH3 0x390B JUMPI PUSH3 0x390A PUSH3 0x22C5 JUMP JUMPDEST JUMPDEST PUSH0 DUP3 ADD MLOAD PUSH8 0xFFFFFFFFFFFFFFFF DUP2 GT ISZERO PUSH3 0x392B JUMPI PUSH3 0x392A PUSH3 0x22C9 JUMP JUMPDEST JUMPDEST PUSH3 0x3939 DUP5 DUP3 DUP6 ADD PUSH3 0x3814 JUMP JUMPDEST SWAP2 POP POP SWAP3 SWAP2 POP POP JUMP JUMPDEST PUSH0 PUSH3 0x3958 PUSH3 0x3952 DUP5 PUSH3 0x2742 JUMP JUMPDEST PUSH3 0x2665 JUMP JUMPDEST SWAP1 POP DUP1 DUP4 DUP3 MSTORE PUSH1 0x20 DUP3 ADD SWAP1 POP PUSH1 0x20 DUP5 MUL DUP4 ADD DUP6 DUP2 GT ISZERO PUSH3 0x397E JUMPI PUSH3 0x397D PUSH3 0x250A JUMP JUMPDEST JUMPDEST DUP4 JUMPDEST DUP2 DUP2 LT ISZERO PUSH3 0x39AB JUMPI DUP1 PUSH3 0x3996 DUP9 DUP3 PUSH3 0x37FE JUMP JUMPDEST DUP5 MSTORE PUSH1 0x20 DUP5 ADD SWAP4 POP POP PUSH1 0x20 DUP2 ADD SWAP1 POP PUSH3 0x3980 JUMP JUMPDEST POP POP POP SWAP4 SWAP3 POP POP POP JUMP JUMPDEST PUSH0 DUP3 PUSH1 0x1F DUP4 ADD SLT PUSH3 0x39CC JUMPI PUSH3 0x39CB PUSH3 0x2502 JUMP JUMPDEST JUMPDEST DUP2 MLOAD PUSH3 0x39DE DUP5 DUP3 PUSH1 0x20 DUP7 ADD PUSH3 0x3942 JUMP JUMPDEST SWAP2 POP POP SWAP3 SWAP2 POP POP JUMP JUMPDEST PUSH0 PUSH1 0x80 DUP3 DUP5 SUB SLT ISZERO PUSH3 0x39FF JUMPI PUSH3 0x39FE PUSH3 0x2EE3 JUMP JUMPDEST JUMPDEST PUSH3 0x3A0B PUSH1 0x80 PUSH3 0x2665 JUMP JUMPDEST SWAP1 POP PUSH0 PUSH3 0x3A1C DUP5 DUP3 DUP6 ADD PUSH3 0x37FE JUMP JUMPDEST PUSH0 DUP4 ADD MSTORE POP PUSH1 0x20 DUP3 ADD MLOAD PUSH8 0xFFFFFFFFFFFFFFFF DUP2 GT ISZERO PUSH3 0x3A42 JUMPI PUSH3 0x3A41 PUSH3 0x2EE7 JUMP JUMPDEST JUMPDEST PUSH3 0x3A50 DUP5 DUP3 DUP6 ADD PUSH3 0x37CC JUMP JUMPDEST PUSH1 0x20 DUP4 ADD MSTORE POP PUSH1 0x40 DUP3 ADD MLOAD PUSH8 0xFFFFFFFFFFFFFFFF DUP2 GT ISZERO PUSH3 0x3A77 JUMPI PUSH3 0x3A76 PUSH3 0x2EE7 JUMP JUMPDEST JUMPDEST PUSH3 0x3A85 DUP5 DUP3 DUP6 ADD PUSH3 0x39B5 JUMP JUMPDEST PUSH1 0x40 DUP4 ADD MSTORE POP PUSH1 0x60 PUSH3 0x3A9B DUP5 DUP3 DUP6 ADD PUSH3 0x37FE JUMP JUMPDEST PUSH1 0x60 DUP4 ADD MSTORE POP SWAP3 SWAP2 POP POP JUMP JUMPDEST PUSH0 PUSH1 0x20 DUP3 DUP5 SUB SLT ISZERO PUSH3 0x3ABF JUMPI PUSH3 0x3ABE PUSH3 0x22C5 JUMP JUMPDEST JUMPDEST PUSH0 DUP3 ADD MLOAD PUSH8 0xFFFFFFFFFFFFFFFF DUP2 GT ISZERO PUSH3 0x3ADF JUMPI PUSH3 0x3ADE PUSH3 0x22C9 JUMP JUMPDEST JUMPDEST PUSH3 0x3AED DUP5 DUP3 DUP6 ADD PUSH3 0x39E7 JUMP JUMPDEST SWAP2 POP POP SWAP3 SWAP2 POP POP JUMP JUMPDEST PUSH0 PUSH1 0x60 DUP3 DUP5 SUB SLT ISZERO PUSH3 0x3B0E JUMPI PUSH3 0x3B0D PUSH3 0x2EE3 JUMP JUMPDEST JUMPDEST PUSH3 0x3B1A PUSH1 0x60 PUSH3 0x2665 JUMP JUMPDEST SWAP1 POP PUSH0 PUSH3 0x3B2B DUP5 DUP3 DUP6 ADD PUSH3 0x37FE JUMP JUMPDEST PUSH0 DUP4 ADD MSTORE POP PUSH1 0x20 PUSH3 0x3B40 DUP5 DUP3 DUP6 ADD PUSH3 0x3454 JUMP JUMPDEST PUSH1 0x20 DUP4 ADD MSTORE POP PUSH1 0x40 PUSH3 0x3B56 DUP5 DUP3 DUP6 ADD PUSH3 0x37FE JUMP JUMPDEST PUSH1 0x40 DUP4 ADD MSTORE POP SWAP3 SWAP2 POP POP JUMP JUMPDEST PUSH0 PUSH1 0x60 DUP3 DUP5 SUB SLT ISZERO PUSH3 0x3B7A JUMPI PUSH3 0x3B79 PUSH3 0x22C5 JUMP JUMPDEST JUMPDEST PUSH0 PUSH3 0x3B89 DUP5 DUP3 DUP6 ADD PUSH3 0x3AF6 JUMP JUMPDEST SWAP2 POP POP SWAP3 SWAP2 POP POP JUMP JUMPDEST PUSH0 PUSH1 0xA0 DUP3 DUP5 SUB SLT ISZERO PUSH3 0x3BAA JUMPI PUSH3 0x3BA9 PUSH3 0x2EE3 JUMP JUMPDEST JUMPDEST PUSH3 0x3BB6 PUSH1 0xA0 PUSH3 0x2665 JUMP JUMPDEST SWAP1 POP PUSH0 PUSH3 0x3BC7 DUP5 DUP3 DUP6 ADD PUSH3 0x37FE JUMP JUMPDEST PUSH0 DUP4 ADD MSTORE POP PUSH1 0x20 PUSH3 0x3BDC DUP5 DUP3 DUP6 ADD PUSH3 0x3454 JUMP JUMPDEST PUSH1 0x20 DUP4 ADD MSTORE POP PUSH1 0x40 PUSH3 0x3BF2 DUP5 DUP3 DUP6 ADD PUSH3 0x34C5 JUMP JUMPDEST PUSH1 0x40 DUP4 ADD MSTORE POP PUSH1 0x60 DUP3 ADD MLOAD PUSH8 0xFFFFFFFFFFFFFFFF DUP2 GT ISZERO PUSH3 0x3C19 JUMPI PUSH3 0x3C18 PUSH3 0x2EE7 JUMP JUMPDEST JUMPDEST PUSH3 0x3C27 DUP5 DUP3 DUP6 ADD PUSH3 0x37CC JUMP JUMPDEST PUSH1 0x60 DUP4 ADD MSTORE POP PUSH1 0x80 PUSH3 0x3C3D DUP5 DUP3 DUP6 ADD PUSH3 0x37FE JUMP JUMPDEST PUSH1 0x80 DUP4 ADD MSTORE POP SWAP3 SWAP2 POP POP JUMP JUMPDEST PUSH0 PUSH1 0x20 DUP3 DUP5 SUB SLT ISZERO PUSH3 0x3C61 JUMPI PUSH3 0x3C60 PUSH3 0x22C5 JUMP JUMPDEST JUMPDEST PUSH0 DUP3 ADD MLOAD PUSH8 0xFFFFFFFFFFFFFFFF DUP2 GT ISZERO PUSH3 0x3C81 JUMPI PUSH3 0x3C80 PUSH3 0x22C9 JUMP JUMPDEST JUMPDEST PUSH3 0x3C8F DUP5 DUP3 DUP6 ADD PUSH3 0x3B92 JUMP JUMPDEST SWAP2 POP POP SWAP3 SWAP2 POP POP JUMP JUMPDEST PUSH0 PUSH1 0x80 DUP3 DUP5 SUB SLT ISZERO PUSH3 0x3CB0 JUMPI PUSH3 0x3CAF PUSH3 0x2EE3 JUMP JUMPDEST JUMPDEST PUSH3 0x3CBC PUSH1 0x80 PUSH3 0x2665 JUMP JUMPDEST SWAP1 POP PUSH0 PUSH3 0x3CCD DUP5 DUP3 DUP6 ADD PUSH3 0x37FE JUMP JUMPDEST PUSH0 DUP4 ADD MSTORE POP PUSH1 0x20 PUSH3 0x3CE2 DUP5 DUP3 DUP6 ADD PUSH3 0x3454 JUMP JUMPDEST PUSH1 0x20 DUP4 ADD MSTORE POP PUSH1 0x40 DUP3 ADD MLOAD PUSH8 0xFFFFFFFFFFFFFFFF DUP2 GT ISZERO PUSH3 0x3D09 JUMPI PUSH3 0x3D08 PUSH3 0x2EE7 JUMP JUMPDEST JUMPDEST PUSH3 0x3D17 DUP5 DUP3 DUP6 ADD PUSH3 0x37CC JUMP JUMPDEST PUSH1 0x40 DUP4 ADD MSTORE POP PUSH1 0x60 PUSH3 0x3D2D DUP5 DUP3 DUP6 ADD PUSH3 0x37FE JUMP JUMPDEST PUSH1 0x60 DUP4 ADD MSTORE POP SWAP3 SWAP2 POP POP JUMP JUMPDEST PUSH0 PUSH1 0x20 DUP3 DUP5 SUB SLT ISZERO PUSH3 0x3D51 JUMPI PUSH3 0x3D50 PUSH3 0x22C5 JUMP JUMPDEST JUMPDEST PUSH0 DUP3 ADD MLOAD PUSH8 0xFFFFFFFFFFFFFFFF DUP2 GT ISZERO PUSH3 0x3D71 JUMPI PUSH3 0x3D70 PUSH3 0x22C9 JUMP JUMPDEST JUMPDEST PUSH3 0x3D7F DUP5 DUP3 DUP6 ADD PUSH3 0x3C98 JUMP JUMPDEST SWAP2 POP POP SWAP3 SWAP2 POP POP JUMP JUMPDEST PUSH3 0x3D93 DUP2 PUSH3 0x2357 JUMP JUMPDEST DUP2 EQ PUSH3 0x3D9E JUMPI PUSH0 DUP1 REVERT JUMPDEST POP JUMP JUMPDEST PUSH0 DUP2 MLOAD SWAP1 POP PUSH3 0x3DB1 DUP2 PUSH3 0x3D88 JUMP JUMPDEST SWAP3 SWAP2 POP POP JUMP JUMPDEST PUSH0 PUSH1 0x80 DUP3 DUP5 SUB SLT ISZERO PUSH3 0x3DCF JUMPI PUSH3 0x3DCE PUSH3 0x2EE3 JUMP JUMPDEST JUMPDEST PUSH3 0x3DDB PUSH1 0x80 PUSH3 0x2665 JUMP JUMPDEST SWAP1 POP PUSH0 PUSH3 0x3DEC DUP5 DUP3 DUP6 ADD PUSH3 0x37FE JUMP JUMPDEST PUSH0 DUP4 ADD MSTORE POP PUSH1 0x20 PUSH3 0x3E01 DUP5 DUP3 DUP6 ADD PUSH3 0x34C5 JUMP JUMPDEST PUSH1 0x20 DUP4 ADD MSTORE POP PUSH1 0x40 PUSH3 0x3E17 DUP5 DUP3 DUP6 ADD PUSH3 0x3DA1 JUMP JUMPDEST PUSH1 0x40 DUP4 ADD MSTORE POP PUSH1 0x60 PUSH3 0x3E2D DUP5 DUP3 DUP6 ADD PUSH3 0x37FE JUMP JUMPDEST PUSH1 0x60 DUP4 ADD MSTORE POP SWAP3 SWAP2 POP POP JUMP JUMPDEST PUSH0 PUSH1 0x80 DUP3 DUP5 SUB SLT ISZERO PUSH3 0x3E51 JUMPI PUSH3 0x3E50 PUSH3 0x22C5 JUMP JUMPDEST JUMPDEST PUSH0 PUSH3 0x3E60 DUP5 DUP3 DUP6 ADD PUSH3 0x3DB7 JUMP JUMPDEST SWAP2 POP POP SWAP3 SWAP2 POP POP JUMP JUMPDEST PUSH32 0x496E76616C6964206F7065726174696F6E000000000000000000000000000000 PUSH0 DUP3 ADD MSTORE POP JUMP JUMPDEST PUSH0 PUSH3 0x3E9F PUSH1 0x11 DUP4 PUSH3 0x28FB JUMP JUMPDEST SWAP2 POP PUSH3 0x3EAC DUP3 PUSH3 0x3E69 JUMP JUMPDEST PUSH1 0x20 DUP3 ADD SWAP1 POP SWAP2 SWAP1 POP JUMP JUMPDEST PUSH0 PUSH1 0x20 DUP3 ADD SWAP1 POP DUP2 DUP2 SUB PUSH0 DUP4 ADD MSTORE PUSH3 0x3ED0 DUP2 PUSH3 0x3E91 JUMP JUMPDEST SWAP1 POP SWAP2 SWAP1 POP JUMP JUMPDEST PUSH0 PUSH1 0x20 PUSH1 0x1F DUP4 ADD DIV SWAP1 POP SWAP2 SWAP1 POP JUMP JUMPDEST PUSH0 DUP3 DUP3 SHL SWAP1 POP SWAP3 SWAP2 POP POP JUMP JUMPDEST PUSH0 PUSH1 0x8 DUP4 MUL PUSH3 0x3F23 PUSH32 0xFFFFFFFFFFFFFFFFFFFFFFFFFFFFFFFFFFFFFFFFFFFFFFFFFFFFFFFFFFFFFFFF DUP3 PUSH3 0x3EE6 JUMP JUMPDEST PUSH3 0x3F2F DUP7 DUP4 PUSH3 0x3EE6 JUMP JUMPDEST SWAP6 POP DUP1 NOT DUP5 AND SWAP4 POP DUP1 DUP7 AND DUP5 OR SWAP3 POP POP POP SWAP4 SWAP3 POP POP POP JUMP JUMPDEST PUSH0 PUSH3 0x3F67 PUSH3 0x3F61 PUSH3 0x3F5B DUP5 PUSH3 0x242F JUMP JUMPDEST PUSH3 0x23AD JUMP JUMPDEST PUSH3 0x242F JUMP JUMPDEST SWAP1 POP SWAP2 SWAP1 POP JUMP JUMPDEST PUSH0 DUP2 SWAP1 POP SWAP2 SWAP1 POP JUMP JUMPDEST PUSH3 0x3F82 DUP4 PUSH3 0x3F47 JUMP JUMPDEST PUSH3 0x3F9A PUSH3 0x3F91 DUP3 PUSH3 0x3F6E JUMP JUMPDEST DUP5 DUP5 SLOAD PUSH3 0x3EF2 JUMP JUMPDEST DUP3 SSTORE POP POP POP POP JUMP JUMPDEST PUSH0 SWAP1 JUMP JUMPDEST PUSH3 0x3FB0 PUSH3 0x3FA2 JUMP JUMPDEST PUSH3 0x3FBD DUP2 DUP5 DUP5 PUSH3 0x3F77 JUMP JUMPDEST POP POP POP JUMP JUMPDEST JUMPDEST DUP2 DUP2 LT ISZERO PUSH3 0x3FE4 JUMPI PUSH3 0x3FD8 PUSH0 DUP3 PUSH3 0x3FA6 JUMP JUMPDEST PUSH1 0x1 DUP2 ADD SWAP1 POP PUSH3 0x3FC3 JUMP JUMPDEST POP POP JUMP JUMPDEST PUSH1 0x1F DUP3 GT ISZERO PUSH3 0x4033 JUMPI PUSH3 0x3FFD DUP2 PUSH3 0x2DEB JUMP JUMPDEST PUSH3 0x4008 DUP5 PUSH3 0x3ED7 JUMP JUMPDEST DUP2 ADD PUSH1 0x20 DUP6 LT ISZERO PUSH3 0x4018 JUMPI DUP2 SWAP1 POP JUMPDEST PUSH3 0x4030 PUSH3 0x4027 DUP6 PUSH3 0x3ED7 JUMP JUMPDEST DUP4 ADD DUP3 PUSH3 0x3FC2 JUMP JUMPDEST POP POP JUMPDEST POP POP POP JUMP JUMPDEST PUSH0 DUP3 DUP3 SHR SWAP1 POP SWAP3 SWAP2 POP POP JUMP JUMPDEST PUSH0 PUSH3 0x4055 PUSH0 NOT DUP5 PUSH1 0x8 MUL PUSH3 0x4038 JUMP JUMPDEST NOT DUP1 DUP4 AND SWAP2 POP POP SWAP3 SWAP2 POP POP JUMP JUMPDEST PUSH0 PUSH3 0x406F DUP4 DUP4 PUSH3 0x4044 JUMP JUMPDEST SWAP2 POP DUP3 PUSH1 0x2 MUL DUP3 OR SWAP1 POP SWAP3 SWAP2 POP POP JUMP JUMPDEST PUSH3 0x408A DUP3 PUSH3 0x28F1 JUMP JUMPDEST PUSH8 0xFFFFFFFFFFFFFFFF DUP2 GT ISZERO PUSH3 0x40A6 JUMPI PUSH3 0x40A5 PUSH3 0x2602 JUMP JUMPDEST JUMPDEST PUSH3 0x40B2 DUP3 SLOAD PUSH3 0x2DB7 JUMP JUMPDEST PUSH3 0x40BF DUP3 DUP3 DUP6 PUSH3 0x3FE8 JUMP JUMPDEST PUSH0 PUSH1 0x20 SWAP1 POP PUSH1 0x1F DUP4 GT PUSH1 0x1 DUP2 EQ PUSH3 0x40F5 JUMPI PUSH0 DUP5 ISZERO PUSH3 0x40E0 JUMPI DUP3 DUP8 ADD MLOAD SWAP1 POP JUMPDEST PUSH3 0x40EC DUP6 DUP3 PUSH3 0x4062 JUMP JUMPDEST DUP7 SSTORE POP PUSH3 0x415B JUMP JUMPDEST PUSH1 0x1F NOT DUP5 AND PUSH3 0x4105 DUP7 PUSH3 0x2DEB JUMP JUMPDEST PUSH0 JUMPDEST DUP3 DUP2 LT ISZERO PUSH3 0x412E JUMPI DUP5 DUP10 ADD MLOAD DUP3 SSTORE PUSH1 0x1 DUP3 ADD SWAP2 POP PUSH1 0x20 DUP6 ADD SWAP5 POP PUSH1 0x20 DUP2 ADD SWAP1 POP PUSH3 0x4107 JUMP JUMPDEST DUP7 DUP4 LT ISZERO PUSH3 0x414E JUMPI DUP5 DUP10 ADD MLOAD PUSH3 0x414A PUSH1 0x1F DUP10 AND DUP3 PUSH3 0x4044 JUMP JUMPDEST DUP4 SSTORE POP JUMPDEST PUSH1 0x1 PUSH1 0x2 DUP9 MUL ADD DUP9 SSTORE POP POP POP JUMPDEST POP POP POP POP POP POP JUMP JUMPDEST PUSH0 PUSH1 0x60 DUP3 ADD SWAP1 POP PUSH3 0x4178 PUSH0 DUP4 ADD DUP7 PUSH3 0x2B95 JUMP JUMPDEST PUSH3 0x4187 PUSH1 0x20 DUP4 ADD DUP6 PUSH3 0x2362 JUMP JUMPDEST PUSH3 0x4196 PUSH1 0x40 DUP4 ADD DUP5 PUSH3 0x24AA JUMP JUMPDEST SWAP5 SWAP4 POP POP POP POP JUMP JUMPDEST PUSH0 PUSH1 0x40 DUP3 ADD SWAP1 POP PUSH3 0x41B3 PUSH0 DUP4 ADD DUP6 PUSH3 0x24D6 JUMP JUMPDEST PUSH3 0x41C2 PUSH1 0x20 DUP4 ADD DUP5 PUSH3 0x24D6 JUMP JUMPDEST SWAP4 SWAP3 POP POP POP JUMP INVALID PUSH1 0x55 PUSH1 0x4B PUSH1 0xB DUP3 DUP3 DUP3 CODECOPY DUP1 MLOAD PUSH0 BYTE PUSH1 0x73 EQ PUSH1 0x3F JUMPI PUSH32 0x4E487B7100000000000000000000000000000000000000000000000000000000 PUSH0 MSTORE PUSH0 PUSH1 0x4 MSTORE PUSH1 0x24 PUSH0 REVERT JUMPDEST ADDRESS PUSH0 MSTORE PUSH1 0x73 DUP2 MSTORE8 DUP3 DUP2 RETURN INVALID PUSH20 0x0 ADDRESS EQ PUSH1 0x80 PUSH1 0x40 MSTORE PUSH0 DUP1 REVERT INVALID LOG2 PUSH5 0x6970667358 0x22 SLT KECCAK256 SWAP14 0xF9 PUSH6 0x2986B0107629 EXTCODECOPY LT SWAP4 SWAP10 ADDMOD DUP9 0xC 0xEC GASLIMIT 0x24 SAR BYTE 0x49 PUSH29 0x63E3868057619D98A764736F6C63430008160033A26469706673582212 KECCAK256 0x4E 0xB9 SWAP10 0xF9 0xDE 0x2A 0xA5 0x2C GASPRICE MOD 0xB3 0xB8 0xB2 0x21 STATICCALL 0xCB DUP9 RETURN LOG4 CALL 0xF9 SWAP10 PUSH10 0xC7D604E547B7CF10864 PUSH20 0x6F6C634300081600330000000000000000000000 "
		},
		"gasEstimates": {
			"creation": {
				"codeDepositCost": "3411000",
				"executionCost": "infinite",
				"totalCost": "infinite"
			},
			"external": {
				"_domain()": "infinite",
				"_topdomain()": "infinite",
				"ccipReceive((bytes32,uint64,bytes,bytes,(address,uint256)[]))": "infinite",
				"checkUpkeep(bytes)": "infinite",
				"completeSeed(address,uint256,bytes32,string)": "infinite",
				"createMusicBloc(string,string,string)": "infinite",
				"emptyNamehash()": "396",
				"getRouter()": "infinite",
				"interval()": "infinite",
				"joinMusicBloc(address,string,address[])": "infinite",
				"lastTimeStamp()": "2537",
				"musicBlocs(uint256)": "2895",
				"musicBlocsCounter()": "2515",
				"performUpkeep(bytes)": "infinite",
				"postStatus(address,string,uint256)": "infinite",
				"registry()": "infinite",
				"resolver()": "infinite",
				"salts(uint256)": "4982",
				"startContribution(address,uint256)": "infinite",
				"supportsInterface(bytes4)": "699"
			},
			"internal": {
				"_ccipReceive(struct Client.Any2EVMMessage memory)": "infinite",
				"_completeSeed(struct SoundSphere.MusicBlocParams memory)": "infinite",
				"_createMusicBloc(struct SoundSphere.MusicBlocParams memory)": "infinite",
				"_deployMusicBloc(bytes32)": "infinite",
				"_joinMusicBloc(struct SoundSphere.MusicBlocParams memory)": "infinite",
				"_merge(struct SoundSphere.MusicBlocParams memory)": "infinite",
				"_postStatus(struct SoundSphere.MusicBlocParams memory)": "infinite",
				"_registerSubdomain(string memory,address)": "infinite",
				"_startContribution(struct SoundSphere.MusicBlocParams memory)": "infinite",
				"decodeMessage(bytes memory)": "infinite",
				"merge(address,bytes32,bool)": "infinite"
			}
		},
		"methodIdentifiers": {
			"_domain()": "6c18f84b",
			"_topdomain()": "df8288ec",
			"ccipReceive((bytes32,uint64,bytes,bytes,(address,uint256)[]))": "85572ffb",
			"checkUpkeep(bytes)": "6e04ff0d",
			"completeSeed(address,uint256,bytes32,string)": "b9b34e4d",
			"createMusicBloc(string,string,string)": "924112f6",
			"emptyNamehash()": "bc7dbb22",
			"getRouter()": "b0f479a1",
			"interval()": "947a36fb",
			"joinMusicBloc(address,string,address[])": "55d2c1c3",
			"lastTimeStamp()": "3f3b3b27",
			"musicBlocs(uint256)": "195b684f",
			"musicBlocsCounter()": "1d4a1d10",
			"performUpkeep(bytes)": "4585e33b",
			"postStatus(address,string,uint256)": "c84d7a0f",
			"registry()": "7b103999",
			"resolver()": "04f3bcec",
			"salts(uint256)": "ac1d45c5",
			"startContribution(address,uint256)": "605524b2",
			"supportsInterface(bytes4)": "01ffc9a7"
		}
	},
	"abi": [
		{
			"inputs": [
				{
					"internalType": "address",
					"name": "router",
					"type": "address"
				},
				{
					"internalType": "uint256",
					"name": "updateInterval",
					"type": "uint256"
				}
			],
			"stateMutability": "nonpayable",
			"type": "constructor"
		},
		{
			"inputs": [],
			"name": "Create2EmptyBytecode",
			"type": "error"
		},
		{
			"inputs": [],
			"name": "Create2FailedDeployment",
			"type": "error"
		},
		{
			"inputs": [
				{
					"internalType": "uint256",
					"name": "balance",
					"type": "uint256"
				},
				{
					"internalType": "uint256",
					"name": "needed",
					"type": "uint256"
				}
			],
			"name": "Create2InsufficientBalance",
			"type": "error"
		},
		{
			"inputs": [
				{
					"internalType": "address",
					"name": "router",
					"type": "address"
				}
			],
			"name": "InvalidRouter",
			"type": "error"
		},
		{
			"anonymous": false,
			"inputs": [
				{
					"indexed": true,
					"internalType": "bytes32",
					"name": "bloc",
					"type": "bytes32"
				},
				{
					"indexed": true,
					"internalType": "address",
					"name": "creator",
					"type": "address"
				}
			],
			"name": "CreatingMusicBloc",
			"type": "event"
		},
		{
			"anonymous": false,
			"inputs": [
				{
					"indexed": true,
					"internalType": "address",
					"name": "bloc",
					"type": "address"
				},
				{
					"indexed": true,
					"internalType": "uint256",
					"name": "seedBox",
					"type": "uint256"
				},
				{
					"indexed": true,
					"internalType": "address",
					"name": "creator",
					"type": "address"
				}
			],
			"name": "JoinedMusicBloc",
			"type": "event"
		},
		{
			"anonymous": false,
			"inputs": [
				{
					"indexed": true,
					"internalType": "address",
					"name": "bloc",
					"type": "address"
				},
				{
					"indexed": true,
					"internalType": "bytes32",
					"name": "seedId",
					"type": "bytes32"
				}
			],
			"name": "Merged",
			"type": "event"
		},
		{
			"anonymous": false,
			"inputs": [
				{
					"indexed": true,
					"internalType": "address",
					"name": "bloc",
					"type": "address"
				},
				{
					"indexed": true,
					"internalType": "address",
					"name": "creator",
					"type": "address"
				}
			],
			"name": "NewMusicBloc",
			"type": "event"
		},
		{
			"anonymous": false,
			"inputs": [
				{
					"indexed": true,
					"internalType": "address",
					"name": "bloc",
					"type": "address"
				},
				{
					"indexed": true,
					"internalType": "bytes32",
					"name": "seed",
					"type": "bytes32"
				},
				{
					"indexed": true,
					"internalType": "uint256",
					"name": "round",
					"type": "uint256"
				}
			],
			"name": "NewSeedStarted",
			"type": "event"
		},
		{
			"anonymous": false,
			"inputs": [
				{
					"indexed": true,
					"internalType": "address",
					"name": "musicBloc",
					"type": "address"
				},
				{
					"indexed": true,
					"internalType": "bytes32",
					"name": "seedId",
					"type": "bytes32"
				}
			],
			"name": "SeedCompleted",
			"type": "event"
		},
		{
			"anonymous": false,
			"inputs": [
				{
					"indexed": true,
					"internalType": "address",
					"name": "bloc",
					"type": "address"
				},
				{
					"indexed": true,
					"internalType": "string",
					"name": "message",
					"type": "string"
				},
				{
					"indexed": true,
					"internalType": "address",
					"name": "author",
					"type": "address"
				}
			],
			"name": "StatusPosted",
			"type": "event"
		},
		{
			"inputs": [],
			"name": "_domain",
			"outputs": [
				{
					"internalType": "string",
					"name": "",
					"type": "string"
				}
			],
			"stateMutability": "view",
			"type": "function"
		},
		{
			"inputs": [],
			"name": "_topdomain",
			"outputs": [
				{
					"internalType": "string",
					"name": "",
					"type": "string"
				}
			],
			"stateMutability": "view",
			"type": "function"
		},
		{
			"inputs": [
				{
					"components": [
						{
							"internalType": "bytes32",
							"name": "messageId",
							"type": "bytes32"
						},
						{
							"internalType": "uint64",
							"name": "sourceChainSelector",
							"type": "uint64"
						},
						{
							"internalType": "bytes",
							"name": "sender",
							"type": "bytes"
						},
						{
							"internalType": "bytes",
							"name": "data",
							"type": "bytes"
						},
						{
							"components": [
								{
									"internalType": "address",
									"name": "token",
									"type": "address"
								},
								{
									"internalType": "uint256",
									"name": "amount",
									"type": "uint256"
								}
							],
							"internalType": "struct Client.EVMTokenAmount[]",
							"name": "destTokenAmounts",
							"type": "tuple[]"
						}
					],
					"internalType": "struct Client.Any2EVMMessage",
					"name": "message",
					"type": "tuple"
				}
			],
			"name": "ccipReceive",
			"outputs": [],
			"stateMutability": "nonpayable",
			"type": "function"
		},
		{
			"inputs": [
				{
					"internalType": "bytes",
					"name": "",
					"type": "bytes"
				}
			],
			"name": "checkUpkeep",
			"outputs": [
				{
					"internalType": "bool",
					"name": "upkeepNeeded",
					"type": "bool"
				},
				{
					"internalType": "bytes",
					"name": "",
					"type": "bytes"
				}
			],
			"stateMutability": "view",
			"type": "function"
		},
		{
			"inputs": [
				{
					"internalType": "address",
					"name": "bloc",
					"type": "address"
				},
				{
					"internalType": "uint256",
					"name": "seedBox",
					"type": "uint256"
				},
				{
					"internalType": "bytes32",
					"name": "seedID",
					"type": "bytes32"
				},
				{
					"internalType": "string",
					"name": "seed",
					"type": "string"
				}
			],
			"name": "completeSeed",
			"outputs": [],
			"stateMutability": "nonpayable",
			"type": "function"
		},
		{
			"inputs": [
				{
					"internalType": "string",
					"name": "cid",
					"type": "string"
				},
				{
					"internalType": "string",
					"name": "name",
					"type": "string"
				},
				{
					"internalType": "string",
					"name": "seed",
					"type": "string"
				}
			],
			"name": "createMusicBloc",
			"outputs": [],
			"stateMutability": "nonpayable",
			"type": "function"
		},
		{
			"inputs": [],
			"name": "emptyNamehash",
			"outputs": [
				{
					"internalType": "bytes32",
					"name": "",
					"type": "bytes32"
				}
			],
			"stateMutability": "view",
			"type": "function"
		},
		{
			"inputs": [],
			"name": "getRouter",
			"outputs": [
				{
					"internalType": "address",
					"name": "",
					"type": "address"
				}
			],
			"stateMutability": "view",
			"type": "function"
		},
		{
			"inputs": [],
			"name": "interval",
			"outputs": [
				{
					"internalType": "uint256",
					"name": "",
					"type": "uint256"
				}
			],
			"stateMutability": "view",
			"type": "function"
		},
		{
			"inputs": [
				{
					"internalType": "address",
					"name": "bloc",
					"type": "address"
				},
				{
					"internalType": "string",
					"name": "cid",
					"type": "string"
				},
				{
					"internalType": "address[]",
					"name": "contributors",
					"type": "address[]"
				}
			],
			"name": "joinMusicBloc",
			"outputs": [],
			"stateMutability": "nonpayable",
			"type": "function"
		},
		{
			"inputs": [],
			"name": "lastTimeStamp",
			"outputs": [
				{
					"internalType": "uint256",
					"name": "",
					"type": "uint256"
				}
			],
			"stateMutability": "view",
			"type": "function"
		},
		{
			"inputs": [
				{
					"internalType": "uint256",
					"name": "",
					"type": "uint256"
				}
			],
			"name": "musicBlocs",
			"outputs": [
				{
					"internalType": "address",
					"name": "",
					"type": "address"
				}
			],
			"stateMutability": "view",
			"type": "function"
		},
		{
			"inputs": [],
			"name": "musicBlocsCounter",
			"outputs": [
				{
					"internalType": "uint256",
					"name": "",
					"type": "uint256"
				}
			],
			"stateMutability": "view",
			"type": "function"
		},
		{
			"inputs": [
				{
					"internalType": "bytes",
					"name": "",
					"type": "bytes"
				}
			],
			"name": "performUpkeep",
			"outputs": [],
			"stateMutability": "nonpayable",
			"type": "function"
		},
		{
			"inputs": [
				{
					"internalType": "address",
					"name": "bloc",
					"type": "address"
				},
				{
					"internalType": "string",
					"name": "message",
					"type": "string"
				},
				{
					"internalType": "uint256",
					"name": "seedBox",
					"type": "uint256"
				}
			],
			"name": "postStatus",
			"outputs": [],
			"stateMutability": "nonpayable",
			"type": "function"
		},
		{
			"inputs": [],
			"name": "registry",
			"outputs": [
				{
					"internalType": "contract ENSRegistry",
					"name": "",
					"type": "address"
				}
			],
			"stateMutability": "view",
			"type": "function"
		},
		{
			"inputs": [],
			"name": "resolver",
			"outputs": [
				{
					"internalType": "contract ENSResolver",
					"name": "",
					"type": "address"
				}
			],
			"stateMutability": "view",
			"type": "function"
		},
		{
			"inputs": [
				{
					"internalType": "uint256",
					"name": "",
					"type": "uint256"
				}
			],
			"name": "salts",
			"outputs": [
				{
					"internalType": "bytes32",
					"name": "",
					"type": "bytes32"
				}
			],
			"stateMutability": "view",
			"type": "function"
		},
		{
			"inputs": [
				{
					"internalType": "address",
					"name": "bloc",
					"type": "address"
				},
				{
					"internalType": "uint256",
					"name": "seedBox",
					"type": "uint256"
				}
			],
			"name": "startContribution",
			"outputs": [],
			"stateMutability": "nonpayable",
			"type": "function"
		},
		{
			"inputs": [
				{
					"internalType": "bytes4",
					"name": "interfaceId",
					"type": "bytes4"
				}
			],
			"name": "supportsInterface",
			"outputs": [
				{
					"internalType": "bool",
					"name": "",
					"type": "bool"
				}
			],
			"stateMutability": "pure",
			"type": "function"
		}
	]
}