{
	"data": {
		"bytecode": {
			"linkReferences": {},
			"object": "60c060405234801562000010575f80fd5b5060405162004f1338038062004f138339810160408190526200003391620000c3565b816001600160a01b03811662000062576040516335fdcccd60e21b81525f600482015260240160405180910390fd5b6001600160a01b031660805260a05250426002555f600481905580546001600160a01b03199081166e0c2e074ec69a0dfb2997ba6c7d2e1e1790915560018054909116738fade66b79cc9f707ab26799354482eb93a5b7dd179055620000fc565b5f8060408385031215620000d5575f80fd5b82516001600160a01b0381168114620000ec575f80fd5b6020939093015192949293505050565b60805160a051614de0620001335f395f81816102d8015281816103cc015261073b01525f8181610313015261078d0152614de05ff3fe608060405234801562000010575f80fd5b506004361062000140575f3560e01c80637b10399911620000b7578063b0f479a11162000077578063b0f479a11462000311578063b9b34e4d1462000338578063bc7dbb22146200034f578063c84d7a0f1462000357578063df8288ec146200036e575f80fd5b80637b103999146200029157806385572ffb14620002a4578063924112f614620002bb578063947a36fb14620002d2578063ac1d45c514620002fa575f80fd5b80634585e33b11620001035780634585e33b14620001eb57806355d2c1c31462000204578063605524b2146200021b5780636c18f84b14620002325780636e04ff0d146200026a575f80fd5b806301ffc9a7146200014457806304f3bcec1462000170578063195b684f146200019d5780631d4a1d1014620001c85780633f3b3b2714620001e1575b5f80fd5b6200015b62000155366004620017ef565b62000393565b60405190151581526020015b60405180910390f35b60015462000184906001600160a01b031681565b6040516001600160a01b03909116815260200162000167565b62000184620001ae36600462001818565b60056020525f90815260409020546001600160a01b031681565b620001d260045481565b60405190815260200162000167565b620001d260025481565b62000202620001fc36600462001830565b620003ca565b005b620002026200021536600462001a17565b62000618565b620002026200022c36600462001af4565b620006a0565b6200025b60405180604001604052806009815260200168736f756e646865726560b81b81525081565b60405162000167919062001b72565b620002816200027b36600462001830565b62000736565b6040516200016792919062001b86565b5f5462000184906001600160a01b031681565b62000202620002b536600462001baa565b62000782565b62000202620002cc36600462001be3565b620007eb565b620001d27f000000000000000000000000000000000000000000000000000000000000000081565b620001d26200030b36600462001818565b620008fd565b7f000000000000000000000000000000000000000000000000000000000000000062000184565b620002026200034936600462001c6e565b6200091d565b620001d25f81565b620002026200036836600462001cd2565b620009ad565b6200025b604051806040016040528060058152602001640b9d195cdd60da1b81525081565b5f6001600160e01b031982166385572ffb60e01b1480620003c457506001600160e01b031982166301ffc9a760e01b145b92915050565b7f000000000000000000000000000000000000000000000000000000000000000060025442620003fb919062001d40565b1180156200040a575060035415155b1562000614576003545f906001600160401b038111156200042f576200042f620018b5565b60405190808252806020026020018201604052801562000459578160200160208202803683370190505b5090505f5b600354811015620005ee575f620004936003838154811062000484576200048462001d56565b905f5260205f20015462000a36565b90505f60065f60038581548110620004af57620004af62001d56565b905f5260205f20015481526020019081526020015f209050816001600160a01b0316637d836512826003015f9054906101000a90046001600160a01b03168360010130855f016040518563ffffffff1660e01b815260040162000516949392919062001e25565b5f604051808303815f87803b1580156200052e575f80fd5b505af115801562000541573d5f803e3d5ffd5b50506004545f9081526005602052604080822080546001600160a01b0319166001600160a01b038881169182179092556003870154925192909116945092507f73e3b750b5363c0e9ea67dfe0608c7c179275db2ab29ffaa470d9fd2ff4ee4ad9190a360038381548110620005ba57620005ba62001d56565b905f5260205f200154848481518110620005d857620005d862001d56565b602090810291909101015250506001016200045e565b50604080515f81526020810191829052516200060d916003916200177d565b5050426002555b5050565b60408051610140810182528381528151602081810184525f808352818401929092526001600160a01b03871683850152606083018590526080830182905260a083018290528351808201855282815260c08401523360e084015283519081019093528083526101008201929092526101208101919091526200069a8162000a4a565b50505050565b60408051610160810182525f61014082018181528252825160208082018552828252808401919091526001600160a01b038616838501528351828152808201855260608401526080830185905260a083018290528351808201855282815260c08401523360e08401528351908101909352808352610100820192909252610120810191909152620007318162000b23565b505050565b5f60607f0000000000000000000000000000000000000000000000000000000000000000600254426200076a919062001d40565b11801562000779575060035415155b91509250929050565b336001600160a01b037f00000000000000000000000000000000000000000000000000000000000000001614620007d3576040516335fdcccd60e21b81523360048201526024015b60405180910390fd5b620007e8620007e28262001f26565b62000be9565b50565b5f8360045f8154620007fd9062001fdb565b91829055506040516200081592919060200162001ff6565b6040516020818303038152906040528051906020012090505f620008398262000a36565b604051633ec1b28960e11b81529091506001600160a01b03821690637d836512906200087090339089903090899060040162002019565b5f604051808303815f87803b15801562000888575f80fd5b505af11580156200089b573d5f803e3d5ffd5b50506004545f9081526005602052604080822080546001600160a01b0319166001600160a01b03871690811790915590513394509092507f73e3b750b5363c0e9ea67dfe0608c7c179275db2ab29ffaa470d9fd2ff4ee4ad9190a35050505050565b600381815481106200090d575f80fd5b5f91825260209091200154905081565b60408051610160810182525f61014082018181528252825160208082018552828252808401919091526001600160a01b038816838501528351828152808201855260608401526080830187905260a0830186905260c083018590523360e08401528351908101909352808352610100820192909252610120810191909152620009a68162000d2b565b5050505050565b60408051610160810182525f61014082018181528252825160208082018552828252808401919091526001600160a01b038716838501528351828152808201855260608401526080830185905260a08301829052835190810190935280835260c08201929092523360e082015261010081018490526101208101919091526200069a8162000de9565b5f8062000a438362000ec8565b9392505050565b6040808201518251606084015160e085015193516317bf9e9d60e31b815292935f936001600160a01b0386169363bdfcf4e89362000a9093919290919060040162002058565b6020604051808303815f875af115801562000aad573d5f803e3d5ffd5b505050506040513d601f19601f8201168201806040525081019062000ad39190620020cf565b90508260e001516001600160a01b03168184604001516001600160a01b03167f0ae4cb8ac7b5d402355925f7050baa45dbef07a739662120a895d7981704ccf160405160405180910390a4505050565b60408181015160808301519151633485528560e21b81526004810192909252336024830152905f9081906001600160a01b0384169063d2154a149060440160408051808303815f875af115801562000b7d573d5f803e3d5ffd5b505050506040513d601f19601f8201168201806040525081019062000ba39190620020e7565b91509150808285604001516001600160a01b03167f4134cc587093b966aebac3463a405c1fe1b410159ffdf141761e9e7e4d185b0b60405160405180910390a450505050565b5f8062000bfa836060015162000f1f565b90925090505f82600581111562000c155762000c156200210a565b0362000c26576200073181620014b1565b600182600581111562000c3d5762000c3d6200210a565b0362000c4e57620007318162000a4a565b600282600581111562000c655762000c656200210a565b0362000c7657620007318162000b23565b600382600581111562000c8d5762000c8d6200210a565b0362000c9e57620007318162000d2b565b600482600581111562000cb55762000cb56200210a565b0362000cc657620007318162000de9565b600582600581111562000cdd5762000cdd6200210a565b0362000cee57620007318162001603565b60405162461bcd60e51b815260206004820152601160248201527024a72b20a624a21027a822a920aa24a7a760791b6044820152606401620007ca565b5f81604001519050806001600160a01b031663b733e78a83608001518460a001518560c001518660e001516040518563ffffffff1660e01b815260040162000d7794939291906200211e565b5f604051808303815f87803b15801562000d8f575f80fd5b505af115801562000da2573d5f803e3d5ffd5b505050508160a0015182604001516001600160a01b03167f9e7aa5e27c4fa6a013d087bc1b4f50317df6f2b486a8cde737dfb96c48fb947360405160405180910390a35050565b604080820151608083015161010084015160e08501519351630b4118db60e41b815292936001600160a01b0385169363b4118db09362000e30939092909160040162002157565b5f604051808303815f87803b15801562000e48575f80fd5b505af115801562000e5b573d5f803e3d5ffd5b505050508160e001516001600160a01b031682610100015160405162000e82919062002189565b604051809103902083604001516001600160a01b03167f2a2db17e3618ca44ada76de60283cca9721ae25a46435160247729d376ae91a460405160405180910390a45050565b5f806040518060200162000edc90620017cb565b6020820181038252601f19601f8201166040525090505f62000f06848380519060200120620016c4565b90505f62000f165f8685620016d2565b95945050505050565b60408051610140810182526060808252602082018190525f9282018390528082018190526080820183905260a0820183905260c0820181905260e0820183905261010082015261012081018290525f808480602001905181019062000f859190620021da565b915091508160ff16600581111562000fa15762000fa16200210a565b93505f84600581111562000fb95762000fb96200210a565b0362001059575f8180602001905181019062000fd6919062002273565b604080516101408101825282518152602080840151818301525f828401819052835181815280830185526060808501919091526080840182905260a084018290528585015160c0850152909401516001600160a01b031660e083015282519081019092528282526101008101919091526101208101919091529350620014aa9050565b60018460058111156200107057620010706200210a565b036200112d575f818060200190518101906200108d919062002347565b90506040518061014001604052808260200151815260200160405180602001604052805f8152508152602001825f01516001600160a01b03168152602001826040015181526020015f81526020015f801b815260200160405180602001604052805f815250815260200182606001516001600160a01b0316815260200160405180602001604052805f81525081526020015f1515815250935050620014aa565b60028460058111156200114457620011446200210a565b03620011f9575f8180602001905181019062001161919062002466565b60408051610160810182525f610140820181815282528251602080820185528282528084019190915284516001600160a01b039081168486015284518381528083018652606085015285820151608085015260a084018390528451808301865283815260c08501529484015190941660e083015282519384019092528183526101008101929092526101208201529350620014aa9050565b60038460058111156200121057620012106200210a565b03620012d4575f818060200190518101906200122d9190620024d4565b60408051610160810182525f610140820181815282528251602080820185528282528084019190915284516001600160a01b03168385015283518281529081019093529293509160608301919050815260200182602001518152602001826040015181526020018260600151815260200182608001516001600160a01b0316815260200160405180602001604052805f81525081526020015f1515815250935050620014aa565b6004846005811115620012eb57620012eb6200210a565b036200139f575f8180602001905181019062001308919062002587565b60408051610160810182525f610140820181815282528251602080820185528282528084019190915284516001600160a01b03908116848601528451838152808301865260608086019190915286830151608086015260a085018490528551928301865283835260c0850192909252908501511660e083015292909101516101008201526101208101919091529350620014aa9050565b6005846005811115620013b657620013b66200210a565b036200146d575f81806020019051810190620013d39190620025f8565b60408051610160810182525f610140820181815282528251602080820185528282528084019190915284516001600160a01b039081168486015284518381528083018652606080860191909152608085018490528683015160a08601528551808401875284815260c08601528601511660e08401528351908101845290815261010082015291015115156101208201529350620014aa9050565b60405162461bcd60e51b815260206004820152601160248201527024b73b30b634b21037b832b930ba34b7b760791b6044820152606401620007ca565b5050915091565b5f815f015160045f8154620014c69062001fdb565b9182905550604051620014de92919060200162001ff6565b60408051601f198184030181528282528051602091820120600380546001810182555f9182527fc2575a0e9e593c00f959f8c92f12db2869c3395a3b0502d05e2516446f71f85b0182905560808501845260c08701518552865185840152868301518585015260e08701516001600160a01b031660608601528181526006909252919020825191935082918190620015779082620026a8565b50602082015160018201906200158e9082620026a8565b5060408201516002820190620015a59082620026a8565b5060609190910151600390910180546001600160a01b0319166001600160a01b0392831617905560e084015160405191169083907f4df3d93e34d4a5516f067788a579615da3fdc59e5cbbd09901429c8f3832b7d5905f90a3505050565b60408181015160a083015161012084015160e0850151935163076e805760e21b81526004810192909252151560248201526001600160a01b0392831660448201529091821690631dba015c906064015f604051808303815f87803b1580156200166a575f80fd5b505af11580156200167d573d5f803e3d5ffd5b505050508160a0015182604001516001600160a01b03167fcedc3309d6c0097c6782ce3f908382bfe5ecb3334d2ac5a89e4764741fa393d360405160405180910390a35050565b5f62000a4383833062001754565b5f83471015620016ff5760405163392efb2b60e21b815247600482015260248101859052604401620007ca565b81515f036200172157604051631328927760e21b815260040160405180910390fd5b8282516020840186f590506001600160a01b03811662000a4357604051633a0ba96160e11b815260040160405180910390fd5b5f604051836040820152846020820152828152600b8101905060ff815360559020949350505050565b828054828255905f5260205f20908101928215620017b9579160200282015b82811115620017b95782518255916020019190600101906200179c565b50620017c7929150620017d9565b5090565b612636806200277583390190565b5b80821115620017c7575f8155600101620017da565b5f6020828403121562001800575f80fd5b81356001600160e01b03198116811462000a43575f80fd5b5f6020828403121562001829575f80fd5b5035919050565b5f806020838503121562001842575f80fd5b82356001600160401b038082111562001859575f80fd5b818501915085601f8301126200186d575f80fd5b8135818111156200187c575f80fd5b8660208285010111156200188e575f80fd5b60209290920196919550909350505050565b6001600160a01b0381168114620007e8575f80fd5b634e487b7160e01b5f52604160045260245ffd5b604080519081016001600160401b0381118282101715620018ee57620018ee620018b5565b60405290565b60405160a081016001600160401b0381118282101715620018ee57620018ee620018b5565b604051608081016001600160401b0381118282101715620018ee57620018ee620018b5565b604051601f8201601f191681016001600160401b0381118282101715620019695762001969620018b5565b604052919050565b5f6001600160401b038211156200198c576200198c620018b5565b50601f01601f191660200190565b5f82601f830112620019aa575f80fd5b8135620019c1620019bb8262001971565b6200193e565b818152846020838601011115620019d6575f80fd5b816020850160208301375f918101602001919091529392505050565b5f6001600160401b0382111562001a0d5762001a0d620018b5565b5060051b60200190565b5f805f6060848603121562001a2a575f80fd5b833562001a3781620018a0565b92506020848101356001600160401b038082111562001a54575f80fd5b62001a62888389016200199a565b9450604087013591508082111562001a78575f80fd5b508501601f8101871362001a8a575f80fd5b803562001a9b620019bb82620019f2565b81815260059190911b8201830190838101908983111562001aba575f80fd5b928401925b8284101562001ae557833562001ad581620018a0565b8252928401929084019062001abf565b80955050505050509250925092565b5f806040838503121562001b06575f80fd5b823562001b1381620018a0565b946020939093013593505050565b5f5b8381101562001b3d57818101518382015260200162001b23565b50505f910152565b5f815180845262001b5e81602086016020860162001b21565b601f01601f19169290920160200192915050565b602081525f62000a43602083018462001b45565b8215158152604060208201525f62001ba2604083018462001b45565b949350505050565b5f6020828403121562001bbb575f80fd5b81356001600160401b0381111562001bd1575f80fd5b820160a0818503121562000a43575f80fd5b5f805f6060848603121562001bf6575f80fd5b83356001600160401b038082111562001c0d575f80fd5b62001c1b878388016200199a565b9450602086013591508082111562001c31575f80fd5b62001c3f878388016200199a565b9350604086013591508082111562001c55575f80fd5b5062001c64868287016200199a565b9150509250925092565b5f805f806080858703121562001c82575f80fd5b843562001c8f81620018a0565b9350602085013592506040850135915060608501356001600160401b0381111562001cb8575f80fd5b62001cc6878288016200199a565b91505092959194509250565b5f805f6060848603121562001ce5575f80fd5b833562001cf281620018a0565b925060208401356001600160401b0381111562001d0d575f80fd5b62001d1b868287016200199a565b925050604084013590509250925092565b634e487b7160e01b5f52601160045260245ffd5b81810381811115620003c457620003c462001d2c565b634e487b7160e01b5f52603260045260245ffd5b600181811c9082168062001d7f57607f821691505b60208210810362001d9e57634e487b7160e01b5f52602260045260245ffd5b50919050565b5f815462001db28162001d6a565b80855260206001838116801562001dd2576001811462001ded5762001e1a565b60ff1985168884015283151560051b88018301955062001e1a565b865f52825f205f5b8581101562001e125781548a820186015290830190840162001df5565b890184019650505b505050505092915050565b5f60018060a01b0380871683526080602084015262001e48608084018762001da4565b8186166040850152838103606085015262001e64818662001da4565b98975050505050505050565b80356001600160401b038116811462001e87575f80fd5b919050565b5f82601f83011262001e9c575f80fd5b8135602062001eaf620019bb83620019f2565b82815260069290921b8401810191818101908684111562001ece575f80fd5b8286015b8481101562001f1b576040818903121562001eeb575f80fd5b62001ef5620018c9565b813562001f0281620018a0565b8152818501358582015283529183019160400162001ed2565b509695505050505050565b5f60a0823603121562001f37575f80fd5b62001f41620018f4565b8235815262001f536020840162001e70565b602082015260408301356001600160401b038082111562001f72575f80fd5b62001f80368387016200199a565b6040840152606085013591508082111562001f99575f80fd5b62001fa7368387016200199a565b6060840152608085013591508082111562001fc0575f80fd5b5062001fcf3682860162001e8c565b60808301525092915050565b5f6001820162001fef5762001fef62001d2c565b5060010190565b5f83516200200981846020880162001b21565b9190910191825250602001919050565b5f60018060a01b038087168352608060208401526200203c608084018762001b45565b8186166040850152838103606085015262001e64818662001b45565b606081525f6200206c606083018662001b45565b8281036020848101919091528551808352868201928201905f5b81811015620020ad5784516001600160a01b03168352938301939183019160010162002086565b50506001600160a01b0395909516604094909401939093525091949350505050565b5f60208284031215620020e0575f80fd5b5051919050565b5f8060408385031215620020f9575f80fd5b505080516020909101519092909150565b634e487b7160e01b5f52602160045260245ffd5b848152836020820152608060408201525f6200213e608083018562001b45565b905060018060a01b038316606083015295945050505050565b838152606060208201525f62002171606083018562001b45565b905060018060a01b0383166040830152949350505050565b5f82516200219c81846020870162001b21565b9190910192915050565b5f620021b6620019bb8462001971565b9050828152838383011115620021ca575f80fd5b62000a4383602083018462001b21565b5f8060408385031215620021ec575f80fd5b825160ff81168114620021fd575f80fd5b60208401519092506001600160401b0381111562002219575f80fd5b8301601f810185136200222a575f80fd5b6200223b85825160208401620021a6565b9150509250929050565b5f82601f83011262002255575f80fd5b62000a4383835160208501620021a6565b805162001e8781620018a0565b5f6020828403121562002284575f80fd5b81516001600160401b03808211156200229b575f80fd5b9083019060808286031215620022af575f80fd5b620022b962001919565b825182811115620022c8575f80fd5b620022d68782860162002245565b825250602083015182811115620022eb575f80fd5b620022f98782860162002245565b60208301525060408301518281111562002311575f80fd5b6200231f8782860162002245565b604083015250606083015192506200233783620018a0565b6060810192909252509392505050565b5f602080838503121562002359575f80fd5b82516001600160401b038082111562002370575f80fd5b908401906080828703121562002384575f80fd5b6200238e62001919565b82516200239b81620018a0565b81528284015182811115620023ae575f80fd5b620023bc8882860162002245565b8583015250604083015182811115620023d3575f80fd5b83019150601f82018713620023e6575f80fd5b8151620023f7620019bb82620019f2565b81815260059190911b8301850190858101908983111562002416575f80fd5b938601935b82851015620024415784516200243181620018a0565b825293860193908601906200241b565b6040840152506200245790506060840162002266565b60608201529695505050505050565b5f6060828403121562002477575f80fd5b604051606081018181106001600160401b03821117156200249c576200249c620018b5565b6040528251620024ac81620018a0565b8152602083810151908201526040830151620024c881620018a0565b60408201529392505050565b5f60208284031215620024e5575f80fd5b81516001600160401b0380821115620024fc575f80fd5b9083019060a0828603121562002510575f80fd5b6200251a620018f4565b82516200252781620018a0565b80825250602083015160208201526040830151604082015260608301518281111562002551575f80fd5b6200255f8782860162002245565b606083015250608083015192506200257783620018a0565b6080810192909252509392505050565b5f6020828403121562002598575f80fd5b81516001600160401b0380821115620025af575f80fd5b9083019060808286031215620025c3575f80fd5b620025cd62001919565b8251620025da81620018a0565b81526020838101519082015260408301518281111562002311575f80fd5b5f6080828403121562002609575f80fd5b6200261362001919565b82516200262081620018a0565b815260208381015190820152604083015180151581146200263f575f80fd5b604082015260608301516200265481620018a0565b60608201529392505050565b601f8211156200073157805f5260205f20601f840160051c81016020851015620026875750805b601f840160051c820191505b81811015620009a6575f815560010162002693565b81516001600160401b03811115620026c457620026c4620018b5565b620026dc81620026d5845462001d6a565b8462002660565b602080601f83116001811462002712575f8415620026fa5750858301515b5f19600386901b1c1916600185901b1785556200276c565b5f85815260208120601f198616915b82811015620027425788860151825594840194600190910190840162002721565b50858210156200276057878501515f19600388901b60f8161c191681555b505060018460011b0185555b50505050505056fe608060405234801561000f575f80fd5b50338061003557604051631e4fbdf760e01b81525f600482015260240160405180910390fd5b61003e81610044565b50610093565b5f80546001600160a01b038381166001600160a01b0319831681178455604051919092169283917f8be0079c531659141344cd1fd0a4f28419497f9722a3daafe3b4186f6b6457e09190a35050565b61259580620000a15f395ff3fe608060405234801561000f575f80fd5b5060043610610187575f3560e01c806391d14854116100d9578063b733e78a11610093578063d2fad2ec1161006e578063d2fad2ec14610399578063d547741f146103bb578063e67b932c146103ce578063f2fde38b146103f1575f80fd5b8063b733e78a1461034b578063bdfcf4e81461035e578063d2154a1414610371575f80fd5b806391d14854146102d857806396132521146102eb578063a0557f70146102f8578063a217fddf1461031c578063aa3ec0a914610323578063b4118db014610338575f80fd5b80632d82b1fa11610144578063715018a61161011f578063715018a61461029a5780637d836512146102a25780638a19c8bc146102b55780638da5cb5b146102be575f80fd5b80632d82b1fa146102455780632f2ff15d1461027457806336568abe14610287575f80fd5b806301ffc9a71461018b578063063ff530146101b357806309e60fc9146101ca5780631a1eb303146101df5780631dba015c146101ff578063248a9ca314610214575b5f80fd5b61019e610199366004611c60565b610404565b60405190151581526020015b60405180910390f35b6101bb61043a565b6040516101aa93929190611cca565b6101d26104e7565b6040516101aa9190611d28565b6101f26101ed366004611e21565b610756565b6040516101aa9190611e6c565b61021261020d366004611f1b565b610934565b005b610237610222366004611e21565b5f908152600160208190526040909120015490565b6040519081526020016101aa565b610237610253366004611e21565b6004545f908152600860209081526040808320938352929052206003015490565b610212610282366004611f5a565b610a12565b610212610295366004611f5a565b610a3d565b610212610a75565b6102126102b0366004612035565b610a88565b61023760045481565b5f546040516001600160a01b0390911681526020016101aa565b61019e6102e6366004611f5a565b610ba4565b60065461019e9060ff1681565b61030b6103063660046120b5565b610bce565b6040516101aa9594939291906120d5565b6102375f81565b61032b610c94565b6040516101aa9190612114565b610212610346366004612126565b610d20565b610212610359366004612170565b610f0b565b61023761036c3660046121cd565b6110d8565b61038461037f366004611f5a565b611154565b604080519283526020830191909152016101aa565b6103ac6103a7366004611e21565b61141d565b6040516101aa9392919061229e565b6102126103c9366004611f5a565b6114ce565b6103e16103dc366004611e21565b6114f3565b6040516101aa94939291906122ce565b6102126103ff366004612305565b6115aa565b5f6001600160e01b03198216637965db0b60e01b148061043457506301ffc9a760e01b6001600160e01b03198316145b92915050565b60605f80600560065f9054906101000a900460ff1660045482805461045e9061231e565b80601f016020809104026020016040519081016040528092919081815260200182805461048a9061231e565b80156104d55780601f106104ac576101008083540402835291602001916104d5565b820191905f5260205f20905b8154815290600101906020018083116104b857829003601f168201915b50505050509250925092509250909192565b60605f60025467ffffffffffffffff81111561050557610505611f84565b60405190808252806020026020018201604052801561056f57816020015b61055c6040518060a001604052805f81526020016060815260200160608152602001606081526020015f6001600160a01b031681525090565b8152602001906001900390816105235790505b5090505f5b600254811015610750575f818152600760205260409020805483518490849081106105a1576105a1612350565b6020908102919091010151526001810180546105bc9061231e565b80601f01602080910402602001604051908101604052809291908181526020018280546105e89061231e565b80156106335780601f1061060a57610100808354040283529160200191610633565b820191905f5260205f20905b81548152906001019060200180831161061657829003601f168201915b505050505083838151811061064a5761064a612350565b602002602001015160200181905250806003018054806020026020016040519081016040528092919081815260200182805480156106af57602002820191905f5260205f20905b81546001600160a01b03168152600190910190602001808311610691575b50505050508383815181106106c6576106c6612350565b6020026020010151604001819052508060020180548060200260200160405190810160405280929190818152602001828054801561072157602002820191905f5260205f20905b81548152602001906001019080831161070d575b505050505083838151811061073857610738612350565b60209081029190910101516060015250600101610574565b50919050565b6002546060908160015b82811161092c575f8181526007602090815260408083208884526005018252808320805482518185028101850190935280835291929091908301828280156107c557602002820191905f5260205f20905b8154815260200190600101908083116107b1575b505050505090505f5b8151811015610917575f878152600860205260408120835182908590859081106107fa576107fa612350565b602002602001015181526020019081526020015f206040518060a00160405290815f82015481526020016001820180546108339061231e565b80601f016020809104026020016040519081016040528092919081815260200182805461085f9061231e565b80156108aa5780601f10610881576101008083540402835291602001916108aa565b820191905f5260205f20905b81548152906001019060200180831161088d57829003601f168201915b505050918352505060028281015460ff8082161515602085015260409093019261010090910416908111156108e1576108e1611e38565b60028111156108f2576108f2611e38565b8152602001600382015481525050905061090c85826115e7565b9450506001016107ce565b5050808061092490612378565b915050610760565b509392505050565b61093c6116db565b8061094681611707565b60065460ff16156109725760405162461bcd60e51b815260040161096990612390565b60405180910390fd5b6004545f908152600860209081526040808320878452909152812080549091036109cf5760405162461bcd60e51b815260206004820152600e60248201526d14d95959081b9bdd08199bdd5b9960921b6044820152606401610969565b60028101805460ff1916600117905583156109f6576006805460ff19166001179055610a0b565b60048054905f610a0583612378565b91905055505b5050505050565b5f8281526001602081905260409091200154610a2d8161174b565b610a378383611755565b50505050565b6001600160a01b0381163314610a665760405163334bd91960e11b815260040160405180910390fd5b610a7082826117cb565b505050565b610a7d6116db565b610a865f611836565b565b7ff0c57e16840df040f15088dc2f81fe391c3923bec73e23a9662efc9c229c6a008054600160401b810460ff16159067ffffffffffffffff165f81158015610acd5750825b90505f8267ffffffffffffffff166001148015610ae95750303b155b905081158015610af7575080155b15610b155760405163f92ee8a960e01b815260040160405180910390fd5b845467ffffffffffffffff191660011785558315610b3f57845460ff60401b1916600160401b1785555b610b4a898988611885565b610b53876115aa565b8315610b9957845460ff60401b19168555604051600181527fc7f505b2f371ae2175ee4913f4499e1f2633a7b5936321eed1cdaeb6115181d29060200160405180910390a15b505050505050505050565b5f9182526001602090815260408084206001600160a01b0393909316845291905290205460ff1690565b600860209081525f928352604080842090915290825290208054600182018054919291610bfa9061231e565b80601f0160208091040260200160405190810160405280929190818152602001828054610c269061231e565b8015610c715780601f10610c4857610100808354040283529160200191610c71565b820191905f5260205f20905b815481529060010190602001808311610c5457829003601f168201915b505050506002830154600390930154919260ff8082169361010090920416915085565b60058054610ca19061231e565b80601f0160208091040260200160405190810160405280929190818152602001828054610ccd9061231e565b8015610d185780601f10610cef57610100808354040283529160200191610d18565b820191905f5260205f20905b815481529060010190602001808311610cfb57829003601f168201915b505050505081565b610d286116db565b5f8381526007602090815260409182902060038101805484518185028101850190955280855285948894610d9b93919290830182828015610d9057602002820191905f5260205f20905b81546001600160a01b03168152600190910190602001808311610d72575b505050505084611a8d565b80610db5575060048101546001600160a01b038481169116145b610dd15760405162461bcd60e51b8152600401610969906123ba565b5f8681526007602052604081208054909103610dff5760405162461bcd60e51b8152600401610969906123f1565b610e6381600301805480602002602001604051908101604052809291908181526020018280548015610e5857602002820191905f5260205f20905b81546001600160a01b03168152600190910190602001808311610e3a575b505050505086611a8d565b610ea35760405162461bcd60e51b81526020600482015260116024820152702737ba10309031b7b73a3934b13aba37b960791b6044820152606401610969565b5f60035f8154610eb290612378565b91829055505f8181526009602052604090208981556001810182905590915060028101610edf8982612461565b5060030180546001600160a01b0319166001600160a01b03979097169690961790955550505050505050565b610f136116db565b5f8481526007602090815260409182902060038101805484518185028101850190955280855285948994610f8493919290830182828015610d9057602002820191905f5260205f209081546001600160a01b03168152600190910190602001808311610d7257505050505084611a8d565b80610f9e575060048101546001600160a01b038481169116145b610fba5760405162461bcd60e51b8152600401610969906123ba565b60065460ff1615610fdd5760405162461bcd60e51b815260040161096990612390565b5f878152600760205260408120805490910361100b5760405162461bcd60e51b8152600401610969906123f1565b6004545f9081526008602090815260408083208a8452909152812080549091036110685760405162461bcd60e51b815260206004820152600e60248201526d14d95959081b9bdd08199bdd5b9960921b6044820152606401610969565b60038101548254146110af5760405162461bcd60e51b815260206004820152601060248201526f092dcecc2d8d2c840e6cacac840c4def60831b6044820152606401610969565b600181016110bd8882612461565b50600201805461ff0019166101001790555050505050505050565b5f6110e16116db565b5f60025f81546110f090612378565b91829055505f818152600760205260409020818155909150600181016111168782612461565b50845161112c9060038301906020880190611be9565b5060040180546001600160a01b0385166001600160a01b031990911617905590509392505050565b5f8061115e6116db565b5f84815260076020908152604091829020600381018054845181850281018501909552808552879489946111cf93919290830182828015610d9057602002820191905f5260205f209081546001600160a01b03168152600190910190602001808311610d7257505050505084611a8d565b806111e9575060048101546001600160a01b038481169116145b6112055760405162461bcd60e51b8152600401610969906123ba565b60065460ff16156112285760405162461bcd60e51b815260040161096990612390565b5f87815260076020526040812080549091036112565760405162461bcd60e51b8152600401610969906123f1565b5f60045489604051602001611275929190918252602082015260400190565b60408051601f1981840301815291815281516020928301206004545f908152600884528281208282529093529120549091501580156112b2575060015b6113155760405162461bcd60e51b815260206004820152602e60248201527f5365656420696e76616c6964206f7220616c726561647920706c616e7465642060448201526d199bdc881d1a1a5cc81c9bdd5b9960921b6064820152608401610969565b6004545f908152600860209081526040808320848452825280832084815560028101805461ff0019169055600381018d9055815192830190915291815260018201906113619082612461565b506002808201805460ff191690556004545f908152600585016020908152604080832080546001810182559084529282902090920185905591850180548251818502810185019093528083526113eb938301828280156113de57602002820191905f5260205f20905b8154815260200190600101908083116113ca575b5050505050600454611ae6565b61140a576004546002840180546001810182555f918252602090912001555b5060045490999098509650505050505050565b60076020525f90815260409020805460018201805491929161143e9061231e565b80601f016020809104026020016040519081016040528092919081815260200182805461146a9061231e565b80156114b55780601f1061148c576101008083540402835291602001916114b5565b820191905f5260205f20905b81548152906001019060200180831161149857829003601f168201915b505050600490930154919250506001600160a01b031683565b5f82815260016020819052604090912001546114e98161174b565b610a3783836117cb565b60096020525f90815260409020805460018201546002830180549293919261151a9061231e565b80601f01602080910402602001604051908101604052809291908181526020018280546115469061231e565b80156115915780601f1061156857610100808354040283529160200191611591565b820191905f5260205f20905b81548152906001019060200180831161157457829003601f168201915b505050600390930154919250506001600160a01b031684565b6115b26116db565b6001600160a01b0381166115db57604051631e4fbdf760e01b81525f6004820152602401610969565b6115e481611836565b50565b60605f835160016115f89190612521565b67ffffffffffffffff81111561161057611610611f84565b60405190808252806020026020018201604052801561166757816020015b6040805160a0810182525f808252606060208084018290529383018290528201819052608082015282525f1990920191018161162e5790505b5090505f5b84518110156116b45784818151811061168757611687612350565b60200260200101518282815181106116a1576116a1612350565b602090810291909101015260010161166c565b5082818551815181106116c9576116c9612350565b60209081029190910101529392505050565b5f546001600160a01b03163314610a865760405163118cdaa760e01b8152336004820152602401610969565b61171081611b24565b6115e45760405162461bcd60e51b815260206004820152600c60248201526b15539055551213d49256915160a21b6044820152606401610969565b6115e48133611b60565b5f6117608383610ba4565b6117c4575f8381526001602081815260408084206001600160a01b0387168086529252808420805460ff19169093179092559051339286917f2f8788117e7eff1d82e926ec794901d17c78024a50270940304540a733656f0d9190a4506001610434565b505f610434565b5f6117d68383610ba4565b156117c4575f8381526001602090815260408083206001600160a01b0386168085529252808320805460ff1916905551339286917ff6391f5c32d9c69d2a47ea670b442974b53935d1edc7fd64eb21e047a839171b9190a4506001610434565b5f80546001600160a01b038381166001600160a01b0319831681178455604051919092169283917f8be0079c531659141344cd1fd0a4f28419497f9722a3daafe3b4186f6b6457e09190a35050565b5f60025f815461189490612378565b91829055506004545f82815260076020526040902082815591925090600181016118be8682612461565b50604080515f81526020810191829052516118dd916003840191611be9565b506003810180546001810182555f918252602080832090910180546001600160a01b038a166001600160a01b0319918216811790925560048501805490911690911790556040513060601b6bffffffffffffffffffffffff1916918101919091526034016040516020818303038152906040528051906020012090505f3060405160200161196b9190612534565b60405160208183030381529060405280519060200120905061198d8189611755565b506119988282611b9d565b5f600454866040516020016119b7929190918252602082015260400190565b60408051601f1981840301815291815281516020928301205f88815260088452828120828252909352912081815560028101805461ff0019166101001790556003810188905590915060018101611a0e8982612461565b506002808201805460ff191660019081179091555f8881526005808901602090815260408320805480860182559084528184200187905593890180549384018155825292902001879055611a628a82612461565b506006805460ff1916905560048054905f611a7c83612378565b919050555050505050505050505050565b5f805b8351811015611add57826001600160a01b0316848281518110611ab557611ab5612350565b60200260200101516001600160a01b031603611ad5576001915050610434565b600101611a90565b505f9392505050565b5f805b8351811015611add5782848281518110611b0557611b05612350565b602002602001015103611b1c576001915050610434565b600101611ae9565b5f8030604051602001611b379190612534565b604051602081830303815290604052805190602001209050611b598184610ba4565b9392505050565b611b6a8282610ba4565b611b995760405163e2517d3f60e01b81526001600160a01b038216600482015260248101839052604401610969565b5050565b5f828152600160208190526040808320909101805490849055905190918391839186917fbd79b86ffe0ab8e8776151514217cd7cacd52c909f66475c3af44e129f0b00ff9190a4505050565b828054828255905f5260205f20908101928215611c3c579160200282015b82811115611c3c57825182546001600160a01b0319166001600160a01b03909116178255602090920191600190910190611c07565b50611c48929150611c4c565b5090565b5b80821115611c48575f8155600101611c4d565b5f60208284031215611c70575f80fd5b81356001600160e01b031981168114611b59575f80fd5b5f81518084525f5b81811015611cab57602081850181015186830182015201611c8f565b505f602082860101526020601f19601f83011685010191505092915050565b606081525f611cdc6060830186611c87565b93151560208301525060400152919050565b5f815180845260208085019450602084015f5b83811015611d1d57815187529582019590820190600101611d01565b509495945050505050565b5f60208083018184528085518083526040925060408601915060408160051b8701018488015f5b83811015611e1357603f19898403018552815160a08151855288820151818a870152611d7d82870182611c87565b838a0151878203888c01528051808352908c0193505f9250908b01905b80831015611dc35783516001600160a01b03168252928b019260019290920191908b0190611d9a565b506060925082840151915086810383880152611ddf8183611cee565b925050506080808301519250611dff818701846001600160a01b03169052565b509588019593505090860190600101611d4f565b509098975050505050505050565b5f60208284031215611e31575f80fd5b5035919050565b634e487b7160e01b5f52602160045260245ffd5b60038110611e6857634e487b7160e01b5f52602160045260245ffd5b9052565b5f60208083018184528085518083526040925060408601915060408160051b8701018488015f5b83811015611e1357603f19898403018552815160a08151855288820151818a870152611ec182870182611c87565b91505087820151151588860152606080830151611ee082880182611e4c565b505060809182015194909101939093529386019390860190600101611e93565b80356001600160a01b0381168114611f16575f80fd5b919050565b5f805f60608486031215611f2d575f80fd5b8335925060208401358015158114611f43575f80fd5b9150611f5160408501611f00565b90509250925092565b5f8060408385031215611f6b575f80fd5b82359150611f7b60208401611f00565b90509250929050565b634e487b7160e01b5f52604160045260245ffd5b604051601f8201601f1916810167ffffffffffffffff81118282101715611fc157611fc1611f84565b604052919050565b5f82601f830112611fd8575f80fd5b813567ffffffffffffffff811115611ff257611ff2611f84565b612005601f8201601f1916602001611f98565b818152846020838601011115612019575f80fd5b816020850160208301375f918101602001919091529392505050565b5f805f8060808587031215612048575f80fd5b61205185611f00565b9350602085013567ffffffffffffffff8082111561206d575f80fd5b61207988838901611fc9565b945061208760408801611f00565b9350606087013591508082111561209c575f80fd5b506120a987828801611fc9565b91505092959194509250565b5f80604083850312156120c6575f80fd5b50508035926020909101359150565b85815260a060208201525f6120ed60a0830187611c87565b905084151560408301526121046060830185611e4c565b8260808301529695505050505050565b602081525f611b596020830184611c87565b5f805f60608486031215612138575f80fd5b83359250602084013567ffffffffffffffff811115612155575f80fd5b61216186828701611fc9565b925050611f5160408501611f00565b5f805f8060808587031215612183575f80fd5b8435935060208501359250604085013567ffffffffffffffff8111156121a7575f80fd5b6121b387828801611fc9565b9250506121c260608601611f00565b905092959194509250565b5f805f606084860312156121df575f80fd5b833567ffffffffffffffff808211156121f6575f80fd5b61220287838801611fc9565b9450602091508186013581811115612218575f80fd5b8601601f81018813612228575f80fd5b80358281111561223a5761223a611f84565b8060051b925061224b848401611f98565b818152928201840192848101908a851115612264575f80fd5b928501925b848410156122895761227a84611f00565b82529285019290850190612269565b809750505050505050611f5160408501611f00565b838152606060208201525f6122b66060830185611c87565b905060018060a01b0383166040830152949350505050565b848152836020820152608060408201525f6122ec6080830185611c87565b905060018060a01b038316606083015295945050505050565b5f60208284031215612315575f80fd5b611b5982611f00565b600181811c9082168061233257607f821691505b60208210810361075057634e487b7160e01b5f52602260045260245ffd5b634e487b7160e01b5f52603260045260245ffd5b634e487b7160e01b5f52601160045260245ffd5b5f6001820161238957612389612364565b5060010190565b60208082526010908201526f109b1bd8c81a5cc8199a5b9a5cda195960821b604082015260600190565b6020808252601d908201527f4e6f7420612063726561746f72206f6620746869732073656564626f78000000604082015260600190565b60208082526012908201527114d9595908189bde081b9bdd08199bdd5b9960721b604082015260600190565b601f821115610a7057805f5260205f20601f840160051c810160208510156124425750805b601f840160051c820191505b81811015610a0b575f815560010161244e565b815167ffffffffffffffff81111561247b5761247b611f84565b61248f81612489845461231e565b8461241d565b602080601f8311600181146124c2575f84156124ab5750858301515b5f19600386901b1c1916600185901b178555612519565b5f85815260208120601f198616915b828110156124f0578886015182559484019460019091019084016124d1565b508582101561250d57878501515f19600388901b60f8161c191681555b505060018460011b0185555b505050505050565b8082018082111561043457610434612364565b60609190911b6bffffffffffffffffffffffff191681526430b236b4b760d91b60148201526019019056fea26469706673582212203661a66ed5ad05d3568388d4dc19fcf45d31d2dbfeafdcf8ae78dd61fdc6930a64736f6c63430008160033a264697066735822122092cf793ddbbe0b8ae23a2b3f12d8852590ef1c0017e6d79b66721f303ed8298364736f6c63430008160033",
			"opcodes": "PUSH1 0xC0 PUSH1 0x40 MSTORE CALLVALUE DUP1 ISZERO PUSH3 0x10 JUMPI PUSH0 DUP1 REVERT JUMPDEST POP PUSH1 0x40 MLOAD PUSH3 0x4F13 CODESIZE SUB DUP1 PUSH3 0x4F13 DUP4 CODECOPY DUP2 ADD PUSH1 0x40 DUP2 SWAP1 MSTORE PUSH3 0x33 SWAP2 PUSH3 0xC3 JUMP JUMPDEST DUP2 PUSH1 0x1 PUSH1 0x1 PUSH1 0xA0 SHL SUB DUP2 AND PUSH3 0x62 JUMPI PUSH1 0x40 MLOAD PUSH4 0x35FDCCCD PUSH1 0xE2 SHL DUP2 MSTORE PUSH0 PUSH1 0x4 DUP3 ADD MSTORE PUSH1 0x24 ADD PUSH1 0x40 MLOAD DUP1 SWAP2 SUB SWAP1 REVERT JUMPDEST PUSH1 0x1 PUSH1 0x1 PUSH1 0xA0 SHL SUB AND PUSH1 0x80 MSTORE PUSH1 0xA0 MSTORE POP TIMESTAMP PUSH1 0x2 SSTORE PUSH0 PUSH1 0x4 DUP2 SWAP1 SSTORE DUP1 SLOAD PUSH1 0x1 PUSH1 0x1 PUSH1 0xA0 SHL SUB NOT SWAP1 DUP2 AND PUSH15 0xC2E074EC69A0DFB2997BA6C7D2E1E OR SWAP1 SWAP2 SSTORE PUSH1 0x1 DUP1 SLOAD SWAP1 SWAP2 AND PUSH20 0x8FADE66B79CC9F707AB26799354482EB93A5B7DD OR SWAP1 SSTORE PUSH3 0xFC JUMP JUMPDEST PUSH0 DUP1 PUSH1 0x40 DUP4 DUP6 SUB SLT ISZERO PUSH3 0xD5 JUMPI PUSH0 DUP1 REVERT JUMPDEST DUP3 MLOAD PUSH1 0x1 PUSH1 0x1 PUSH1 0xA0 SHL SUB DUP2 AND DUP2 EQ PUSH3 0xEC JUMPI PUSH0 DUP1 REVERT JUMPDEST PUSH1 0x20 SWAP4 SWAP1 SWAP4 ADD MLOAD SWAP3 SWAP5 SWAP3 SWAP4 POP POP POP JUMP JUMPDEST PUSH1 0x80 MLOAD PUSH1 0xA0 MLOAD PUSH2 0x4DE0 PUSH3 0x133 PUSH0 CODECOPY PUSH0 DUP2 DUP2 PUSH2 0x2D8 ADD MSTORE DUP2 DUP2 PUSH2 0x3CC ADD MSTORE PUSH2 0x73B ADD MSTORE PUSH0 DUP2 DUP2 PUSH2 0x313 ADD MSTORE PUSH2 0x78D ADD MSTORE PUSH2 0x4DE0 PUSH0 RETURN INVALID PUSH1 0x80 PUSH1 0x40 MSTORE CALLVALUE DUP1 ISZERO PUSH3 0x10 JUMPI PUSH0 DUP1 REVERT JUMPDEST POP PUSH1 0x4 CALLDATASIZE LT PUSH3 0x140 JUMPI PUSH0 CALLDATALOAD PUSH1 0xE0 SHR DUP1 PUSH4 0x7B103999 GT PUSH3 0xB7 JUMPI DUP1 PUSH4 0xB0F479A1 GT PUSH3 0x77 JUMPI DUP1 PUSH4 0xB0F479A1 EQ PUSH3 0x311 JUMPI DUP1 PUSH4 0xB9B34E4D EQ PUSH3 0x338 JUMPI DUP1 PUSH4 0xBC7DBB22 EQ PUSH3 0x34F JUMPI DUP1 PUSH4 0xC84D7A0F EQ PUSH3 0x357 JUMPI DUP1 PUSH4 0xDF8288EC EQ PUSH3 0x36E JUMPI PUSH0 DUP1 REVERT JUMPDEST DUP1 PUSH4 0x7B103999 EQ PUSH3 0x291 JUMPI DUP1 PUSH4 0x85572FFB EQ PUSH3 0x2A4 JUMPI DUP1 PUSH4 0x924112F6 EQ PUSH3 0x2BB JUMPI DUP1 PUSH4 0x947A36FB EQ PUSH3 0x2D2 JUMPI DUP1 PUSH4 0xAC1D45C5 EQ PUSH3 0x2FA JUMPI PUSH0 DUP1 REVERT JUMPDEST DUP1 PUSH4 0x4585E33B GT PUSH3 0x103 JUMPI DUP1 PUSH4 0x4585E33B EQ PUSH3 0x1EB JUMPI DUP1 PUSH4 0x55D2C1C3 EQ PUSH3 0x204 JUMPI DUP1 PUSH4 0x605524B2 EQ PUSH3 0x21B JUMPI DUP1 PUSH4 0x6C18F84B EQ PUSH3 0x232 JUMPI DUP1 PUSH4 0x6E04FF0D EQ PUSH3 0x26A JUMPI PUSH0 DUP1 REVERT JUMPDEST DUP1 PUSH4 0x1FFC9A7 EQ PUSH3 0x144 JUMPI DUP1 PUSH4 0x4F3BCEC EQ PUSH3 0x170 JUMPI DUP1 PUSH4 0x195B684F EQ PUSH3 0x19D JUMPI DUP1 PUSH4 0x1D4A1D10 EQ PUSH3 0x1C8 JUMPI DUP1 PUSH4 0x3F3B3B27 EQ PUSH3 0x1E1 JUMPI JUMPDEST PUSH0 DUP1 REVERT JUMPDEST PUSH3 0x15B PUSH3 0x155 CALLDATASIZE PUSH1 0x4 PUSH3 0x17EF JUMP JUMPDEST PUSH3 0x393 JUMP JUMPDEST PUSH1 0x40 MLOAD SWAP1 ISZERO ISZERO DUP2 MSTORE PUSH1 0x20 ADD JUMPDEST PUSH1 0x40 MLOAD DUP1 SWAP2 SUB SWAP1 RETURN JUMPDEST PUSH1 0x1 SLOAD PUSH3 0x184 SWAP1 PUSH1 0x1 PUSH1 0x1 PUSH1 0xA0 SHL SUB AND DUP2 JUMP JUMPDEST PUSH1 0x40 MLOAD PUSH1 0x1 PUSH1 0x1 PUSH1 0xA0 SHL SUB SWAP1 SWAP2 AND DUP2 MSTORE PUSH1 0x20 ADD PUSH3 0x167 JUMP JUMPDEST PUSH3 0x184 PUSH3 0x1AE CALLDATASIZE PUSH1 0x4 PUSH3 0x1818 JUMP JUMPDEST PUSH1 0x5 PUSH1 0x20 MSTORE PUSH0 SWAP1 DUP2 MSTORE PUSH1 0x40 SWAP1 KECCAK256 SLOAD PUSH1 0x1 PUSH1 0x1 PUSH1 0xA0 SHL SUB AND DUP2 JUMP JUMPDEST PUSH3 0x1D2 PUSH1 0x4 SLOAD DUP2 JUMP JUMPDEST PUSH1 0x40 MLOAD SWAP1 DUP2 MSTORE PUSH1 0x20 ADD PUSH3 0x167 JUMP JUMPDEST PUSH3 0x1D2 PUSH1 0x2 SLOAD DUP2 JUMP JUMPDEST PUSH3 0x202 PUSH3 0x1FC CALLDATASIZE PUSH1 0x4 PUSH3 0x1830 JUMP JUMPDEST PUSH3 0x3CA JUMP JUMPDEST STOP JUMPDEST PUSH3 0x202 PUSH3 0x215 CALLDATASIZE PUSH1 0x4 PUSH3 0x1A17 JUMP JUMPDEST PUSH3 0x618 JUMP JUMPDEST PUSH3 0x202 PUSH3 0x22C CALLDATASIZE PUSH1 0x4 PUSH3 0x1AF4 JUMP JUMPDEST PUSH3 0x6A0 JUMP JUMPDEST PUSH3 0x25B PUSH1 0x40 MLOAD DUP1 PUSH1 0x40 ADD PUSH1 0x40 MSTORE DUP1 PUSH1 0x9 DUP2 MSTORE PUSH1 0x20 ADD PUSH9 0x736F756E6468657265 PUSH1 0xB8 SHL DUP2 MSTORE POP DUP2 JUMP JUMPDEST PUSH1 0x40 MLOAD PUSH3 0x167 SWAP2 SWAP1 PUSH3 0x1B72 JUMP JUMPDEST PUSH3 0x281 PUSH3 0x27B CALLDATASIZE PUSH1 0x4 PUSH3 0x1830 JUMP JUMPDEST PUSH3 0x736 JUMP JUMPDEST PUSH1 0x40 MLOAD PUSH3 0x167 SWAP3 SWAP2 SWAP1 PUSH3 0x1B86 JUMP JUMPDEST PUSH0 SLOAD PUSH3 0x184 SWAP1 PUSH1 0x1 PUSH1 0x1 PUSH1 0xA0 SHL SUB AND DUP2 JUMP JUMPDEST PUSH3 0x202 PUSH3 0x2B5 CALLDATASIZE PUSH1 0x4 PUSH3 0x1BAA JUMP JUMPDEST PUSH3 0x782 JUMP JUMPDEST PUSH3 0x202 PUSH3 0x2CC CALLDATASIZE PUSH1 0x4 PUSH3 0x1BE3 JUMP JUMPDEST PUSH3 0x7EB JUMP JUMPDEST PUSH3 0x1D2 PUSH32 0x0 DUP2 JUMP JUMPDEST PUSH3 0x1D2 PUSH3 0x30B CALLDATASIZE PUSH1 0x4 PUSH3 0x1818 JUMP JUMPDEST PUSH3 0x8FD JUMP JUMPDEST PUSH32 0x0 PUSH3 0x184 JUMP JUMPDEST PUSH3 0x202 PUSH3 0x349 CALLDATASIZE PUSH1 0x4 PUSH3 0x1C6E JUMP JUMPDEST PUSH3 0x91D JUMP JUMPDEST PUSH3 0x1D2 PUSH0 DUP2 JUMP JUMPDEST PUSH3 0x202 PUSH3 0x368 CALLDATASIZE PUSH1 0x4 PUSH3 0x1CD2 JUMP JUMPDEST PUSH3 0x9AD JUMP JUMPDEST PUSH3 0x25B PUSH1 0x40 MLOAD DUP1 PUSH1 0x40 ADD PUSH1 0x40 MSTORE DUP1 PUSH1 0x5 DUP2 MSTORE PUSH1 0x20 ADD PUSH5 0xB9D195CDD PUSH1 0xDA SHL DUP2 MSTORE POP DUP2 JUMP JUMPDEST PUSH0 PUSH1 0x1 PUSH1 0x1 PUSH1 0xE0 SHL SUB NOT DUP3 AND PUSH4 0x85572FFB PUSH1 0xE0 SHL EQ DUP1 PUSH3 0x3C4 JUMPI POP PUSH1 0x1 PUSH1 0x1 PUSH1 0xE0 SHL SUB NOT DUP3 AND PUSH4 0x1FFC9A7 PUSH1 0xE0 SHL EQ JUMPDEST SWAP3 SWAP2 POP POP JUMP JUMPDEST PUSH32 0x0 PUSH1 0x2 SLOAD TIMESTAMP PUSH3 0x3FB SWAP2 SWAP1 PUSH3 0x1D40 JUMP JUMPDEST GT DUP1 ISZERO PUSH3 0x40A JUMPI POP PUSH1 0x3 SLOAD ISZERO ISZERO JUMPDEST ISZERO PUSH3 0x614 JUMPI PUSH1 0x3 SLOAD PUSH0 SWAP1 PUSH1 0x1 PUSH1 0x1 PUSH1 0x40 SHL SUB DUP2 GT ISZERO PUSH3 0x42F JUMPI PUSH3 0x42F PUSH3 0x18B5 JUMP JUMPDEST PUSH1 0x40 MLOAD SWAP1 DUP1 DUP3 MSTORE DUP1 PUSH1 0x20 MUL PUSH1 0x20 ADD DUP3 ADD PUSH1 0x40 MSTORE DUP1 ISZERO PUSH3 0x459 JUMPI DUP2 PUSH1 0x20 ADD PUSH1 0x20 DUP3 MUL DUP1 CALLDATASIZE DUP4 CALLDATACOPY ADD SWAP1 POP JUMPDEST POP SWAP1 POP PUSH0 JUMPDEST PUSH1 0x3 SLOAD DUP2 LT ISZERO PUSH3 0x5EE JUMPI PUSH0 PUSH3 0x493 PUSH1 0x3 DUP4 DUP2 SLOAD DUP2 LT PUSH3 0x484 JUMPI PUSH3 0x484 PUSH3 0x1D56 JUMP JUMPDEST SWAP1 PUSH0 MSTORE PUSH1 0x20 PUSH0 KECCAK256 ADD SLOAD PUSH3 0xA36 JUMP JUMPDEST SWAP1 POP PUSH0 PUSH1 0x6 PUSH0 PUSH1 0x3 DUP6 DUP2 SLOAD DUP2 LT PUSH3 0x4AF JUMPI PUSH3 0x4AF PUSH3 0x1D56 JUMP JUMPDEST SWAP1 PUSH0 MSTORE PUSH1 0x20 PUSH0 KECCAK256 ADD SLOAD DUP2 MSTORE PUSH1 0x20 ADD SWAP1 DUP2 MSTORE PUSH1 0x20 ADD PUSH0 KECCAK256 SWAP1 POP DUP2 PUSH1 0x1 PUSH1 0x1 PUSH1 0xA0 SHL SUB AND PUSH4 0x7D836512 DUP3 PUSH1 0x3 ADD PUSH0 SWAP1 SLOAD SWAP1 PUSH2 0x100 EXP SWAP1 DIV PUSH1 0x1 PUSH1 0x1 PUSH1 0xA0 SHL SUB AND DUP4 PUSH1 0x1 ADD ADDRESS DUP6 PUSH0 ADD PUSH1 0x40 MLOAD DUP6 PUSH4 0xFFFFFFFF AND PUSH1 0xE0 SHL DUP2 MSTORE PUSH1 0x4 ADD PUSH3 0x516 SWAP5 SWAP4 SWAP3 SWAP2 SWAP1 PUSH3 0x1E25 JUMP JUMPDEST PUSH0 PUSH1 0x40 MLOAD DUP1 DUP4 SUB DUP2 PUSH0 DUP8 DUP1 EXTCODESIZE ISZERO DUP1 ISZERO PUSH3 0x52E JUMPI PUSH0 DUP1 REVERT JUMPDEST POP GAS CALL ISZERO DUP1 ISZERO PUSH3 0x541 JUMPI RETURNDATASIZE PUSH0 DUP1 RETURNDATACOPY RETURNDATASIZE PUSH0 REVERT JUMPDEST POP POP PUSH1 0x4 SLOAD PUSH0 SWAP1 DUP2 MSTORE PUSH1 0x5 PUSH1 0x20 MSTORE PUSH1 0x40 DUP1 DUP3 KECCAK256 DUP1 SLOAD PUSH1 0x1 PUSH1 0x1 PUSH1 0xA0 SHL SUB NOT AND PUSH1 0x1 PUSH1 0x1 PUSH1 0xA0 SHL SUB DUP9 DUP2 AND SWAP2 DUP3 OR SWAP1 SWAP3 SSTORE PUSH1 0x3 DUP8 ADD SLOAD SWAP3 MLOAD SWAP3 SWAP1 SWAP2 AND SWAP5 POP SWAP3 POP PUSH32 0x73E3B750B5363C0E9EA67DFE0608C7C179275DB2AB29FFAA470D9FD2FF4EE4AD SWAP2 SWAP1 LOG3 PUSH1 0x3 DUP4 DUP2 SLOAD DUP2 LT PUSH3 0x5BA JUMPI PUSH3 0x5BA PUSH3 0x1D56 JUMP JUMPDEST SWAP1 PUSH0 MSTORE PUSH1 0x20 PUSH0 KECCAK256 ADD SLOAD DUP5 DUP5 DUP2 MLOAD DUP2 LT PUSH3 0x5D8 JUMPI PUSH3 0x5D8 PUSH3 0x1D56 JUMP JUMPDEST PUSH1 0x20 SWAP1 DUP2 MUL SWAP2 SWAP1 SWAP2 ADD ADD MSTORE POP POP PUSH1 0x1 ADD PUSH3 0x45E JUMP JUMPDEST POP PUSH1 0x40 DUP1 MLOAD PUSH0 DUP2 MSTORE PUSH1 0x20 DUP2 ADD SWAP2 DUP3 SWAP1 MSTORE MLOAD PUSH3 0x60D SWAP2 PUSH1 0x3 SWAP2 PUSH3 0x177D JUMP JUMPDEST POP POP TIMESTAMP PUSH1 0x2 SSTORE JUMPDEST POP POP JUMP JUMPDEST PUSH1 0x40 DUP1 MLOAD PUSH2 0x140 DUP2 ADD DUP3 MSTORE DUP4 DUP2 MSTORE DUP2 MLOAD PUSH1 0x20 DUP2 DUP2 ADD DUP5 MSTORE PUSH0 DUP1 DUP4 MSTORE DUP2 DUP5 ADD SWAP3 SWAP1 SWAP3 MSTORE PUSH1 0x1 PUSH1 0x1 PUSH1 0xA0 SHL SUB DUP8 AND DUP4 DUP6 ADD MSTORE PUSH1 0x60 DUP4 ADD DUP6 SWAP1 MSTORE PUSH1 0x80 DUP4 ADD DUP3 SWAP1 MSTORE PUSH1 0xA0 DUP4 ADD DUP3 SWAP1 MSTORE DUP4 MLOAD DUP1 DUP3 ADD DUP6 MSTORE DUP3 DUP2 MSTORE PUSH1 0xC0 DUP5 ADD MSTORE CALLER PUSH1 0xE0 DUP5 ADD MSTORE DUP4 MLOAD SWAP1 DUP2 ADD SWAP1 SWAP4 MSTORE DUP1 DUP4 MSTORE PUSH2 0x100 DUP3 ADD SWAP3 SWAP1 SWAP3 MSTORE PUSH2 0x120 DUP2 ADD SWAP2 SWAP1 SWAP2 MSTORE PUSH3 0x69A DUP2 PUSH3 0xA4A JUMP JUMPDEST POP POP POP POP JUMP JUMPDEST PUSH1 0x40 DUP1 MLOAD PUSH2 0x160 DUP2 ADD DUP3 MSTORE PUSH0 PUSH2 0x140 DUP3 ADD DUP2 DUP2 MSTORE DUP3 MSTORE DUP3 MLOAD PUSH1 0x20 DUP1 DUP3 ADD DUP6 MSTORE DUP3 DUP3 MSTORE DUP1 DUP5 ADD SWAP2 SWAP1 SWAP2 MSTORE PUSH1 0x1 PUSH1 0x1 PUSH1 0xA0 SHL SUB DUP7 AND DUP4 DUP6 ADD MSTORE DUP4 MLOAD DUP3 DUP2 MSTORE DUP1 DUP3 ADD DUP6 MSTORE PUSH1 0x60 DUP5 ADD MSTORE PUSH1 0x80 DUP4 ADD DUP6 SWAP1 MSTORE PUSH1 0xA0 DUP4 ADD DUP3 SWAP1 MSTORE DUP4 MLOAD DUP1 DUP3 ADD DUP6 MSTORE DUP3 DUP2 MSTORE PUSH1 0xC0 DUP5 ADD MSTORE CALLER PUSH1 0xE0 DUP5 ADD MSTORE DUP4 MLOAD SWAP1 DUP2 ADD SWAP1 SWAP4 MSTORE DUP1 DUP4 MSTORE PUSH2 0x100 DUP3 ADD SWAP3 SWAP1 SWAP3 MSTORE PUSH2 0x120 DUP2 ADD SWAP2 SWAP1 SWAP2 MSTORE PUSH3 0x731 DUP2 PUSH3 0xB23 JUMP JUMPDEST POP POP POP JUMP JUMPDEST PUSH0 PUSH1 0x60 PUSH32 0x0 PUSH1 0x2 SLOAD TIMESTAMP PUSH3 0x76A SWAP2 SWAP1 PUSH3 0x1D40 JUMP JUMPDEST GT DUP1 ISZERO PUSH3 0x779 JUMPI POP PUSH1 0x3 SLOAD ISZERO ISZERO JUMPDEST SWAP2 POP SWAP3 POP SWAP3 SWAP1 POP JUMP JUMPDEST CALLER PUSH1 0x1 PUSH1 0x1 PUSH1 0xA0 SHL SUB PUSH32 0x0 AND EQ PUSH3 0x7D3 JUMPI PUSH1 0x40 MLOAD PUSH4 0x35FDCCCD PUSH1 0xE2 SHL DUP2 MSTORE CALLER PUSH1 0x4 DUP3 ADD MSTORE PUSH1 0x24 ADD JUMPDEST PUSH1 0x40 MLOAD DUP1 SWAP2 SUB SWAP1 REVERT JUMPDEST PUSH3 0x7E8 PUSH3 0x7E2 DUP3 PUSH3 0x1F26 JUMP JUMPDEST PUSH3 0xBE9 JUMP JUMPDEST POP JUMP JUMPDEST PUSH0 DUP4 PUSH1 0x4 PUSH0 DUP2 SLOAD PUSH3 0x7FD SWAP1 PUSH3 0x1FDB JUMP JUMPDEST SWAP2 DUP3 SWAP1 SSTORE POP PUSH1 0x40 MLOAD PUSH3 0x815 SWAP3 SWAP2 SWAP1 PUSH1 0x20 ADD PUSH3 0x1FF6 JUMP JUMPDEST PUSH1 0x40 MLOAD PUSH1 0x20 DUP2 DUP4 SUB SUB DUP2 MSTORE SWAP1 PUSH1 0x40 MSTORE DUP1 MLOAD SWAP1 PUSH1 0x20 ADD KECCAK256 SWAP1 POP PUSH0 PUSH3 0x839 DUP3 PUSH3 0xA36 JUMP JUMPDEST PUSH1 0x40 MLOAD PUSH4 0x3EC1B289 PUSH1 0xE1 SHL DUP2 MSTORE SWAP1 SWAP2 POP PUSH1 0x1 PUSH1 0x1 PUSH1 0xA0 SHL SUB DUP3 AND SWAP1 PUSH4 0x7D836512 SWAP1 PUSH3 0x870 SWAP1 CALLER SWAP1 DUP10 SWAP1 ADDRESS SWAP1 DUP10 SWAP1 PUSH1 0x4 ADD PUSH3 0x2019 JUMP JUMPDEST PUSH0 PUSH1 0x40 MLOAD DUP1 DUP4 SUB DUP2 PUSH0 DUP8 DUP1 EXTCODESIZE ISZERO DUP1 ISZERO PUSH3 0x888 JUMPI PUSH0 DUP1 REVERT JUMPDEST POP GAS CALL ISZERO DUP1 ISZERO PUSH3 0x89B JUMPI RETURNDATASIZE PUSH0 DUP1 RETURNDATACOPY RETURNDATASIZE PUSH0 REVERT JUMPDEST POP POP PUSH1 0x4 SLOAD PUSH0 SWAP1 DUP2 MSTORE PUSH1 0x5 PUSH1 0x20 MSTORE PUSH1 0x40 DUP1 DUP3 KECCAK256 DUP1 SLOAD PUSH1 0x1 PUSH1 0x1 PUSH1 0xA0 SHL SUB NOT AND PUSH1 0x1 PUSH1 0x1 PUSH1 0xA0 SHL SUB DUP8 AND SWAP1 DUP2 OR SWAP1 SWAP2 SSTORE SWAP1 MLOAD CALLER SWAP5 POP SWAP1 SWAP3 POP PUSH32 0x73E3B750B5363C0E9EA67DFE0608C7C179275DB2AB29FFAA470D9FD2FF4EE4AD SWAP2 SWAP1 LOG3 POP POP POP POP POP JUMP JUMPDEST PUSH1 0x3 DUP2 DUP2 SLOAD DUP2 LT PUSH3 0x90D JUMPI PUSH0 DUP1 REVERT JUMPDEST PUSH0 SWAP2 DUP3 MSTORE PUSH1 0x20 SWAP1 SWAP2 KECCAK256 ADD SLOAD SWAP1 POP DUP2 JUMP JUMPDEST PUSH1 0x40 DUP1 MLOAD PUSH2 0x160 DUP2 ADD DUP3 MSTORE PUSH0 PUSH2 0x140 DUP3 ADD DUP2 DUP2 MSTORE DUP3 MSTORE DUP3 MLOAD PUSH1 0x20 DUP1 DUP3 ADD DUP6 MSTORE DUP3 DUP3 MSTORE DUP1 DUP5 ADD SWAP2 SWAP1 SWAP2 MSTORE PUSH1 0x1 PUSH1 0x1 PUSH1 0xA0 SHL SUB DUP9 AND DUP4 DUP6 ADD MSTORE DUP4 MLOAD DUP3 DUP2 MSTORE DUP1 DUP3 ADD DUP6 MSTORE PUSH1 0x60 DUP5 ADD MSTORE PUSH1 0x80 DUP4 ADD DUP8 SWAP1 MSTORE PUSH1 0xA0 DUP4 ADD DUP7 SWAP1 MSTORE PUSH1 0xC0 DUP4 ADD DUP6 SWAP1 MSTORE CALLER PUSH1 0xE0 DUP5 ADD MSTORE DUP4 MLOAD SWAP1 DUP2 ADD SWAP1 SWAP4 MSTORE DUP1 DUP4 MSTORE PUSH2 0x100 DUP3 ADD SWAP3 SWAP1 SWAP3 MSTORE PUSH2 0x120 DUP2 ADD SWAP2 SWAP1 SWAP2 MSTORE PUSH3 0x9A6 DUP2 PUSH3 0xD2B JUMP JUMPDEST POP POP POP POP POP JUMP JUMPDEST PUSH1 0x40 DUP1 MLOAD PUSH2 0x160 DUP2 ADD DUP3 MSTORE PUSH0 PUSH2 0x140 DUP3 ADD DUP2 DUP2 MSTORE DUP3 MSTORE DUP3 MLOAD PUSH1 0x20 DUP1 DUP3 ADD DUP6 MSTORE DUP3 DUP3 MSTORE DUP1 DUP5 ADD SWAP2 SWAP1 SWAP2 MSTORE PUSH1 0x1 PUSH1 0x1 PUSH1 0xA0 SHL SUB DUP8 AND DUP4 DUP6 ADD MSTORE DUP4 MLOAD DUP3 DUP2 MSTORE DUP1 DUP3 ADD DUP6 MSTORE PUSH1 0x60 DUP5 ADD MSTORE PUSH1 0x80 DUP4 ADD DUP6 SWAP1 MSTORE PUSH1 0xA0 DUP4 ADD DUP3 SWAP1 MSTORE DUP4 MLOAD SWAP1 DUP2 ADD SWAP1 SWAP4 MSTORE DUP1 DUP4 MSTORE PUSH1 0xC0 DUP3 ADD SWAP3 SWAP1 SWAP3 MSTORE CALLER PUSH1 0xE0 DUP3 ADD MSTORE PUSH2 0x100 DUP2 ADD DUP5 SWAP1 MSTORE PUSH2 0x120 DUP2 ADD SWAP2 SWAP1 SWAP2 MSTORE PUSH3 0x69A DUP2 PUSH3 0xDE9 JUMP JUMPDEST PUSH0 DUP1 PUSH3 0xA43 DUP4 PUSH3 0xEC8 JUMP JUMPDEST SWAP4 SWAP3 POP POP POP JUMP JUMPDEST PUSH1 0x40 DUP1 DUP3 ADD MLOAD DUP3 MLOAD PUSH1 0x60 DUP5 ADD MLOAD PUSH1 0xE0 DUP6 ADD MLOAD SWAP4 MLOAD PUSH4 0x17BF9E9D PUSH1 0xE3 SHL DUP2 MSTORE SWAP3 SWAP4 PUSH0 SWAP4 PUSH1 0x1 PUSH1 0x1 PUSH1 0xA0 SHL SUB DUP7 AND SWAP4 PUSH4 0xBDFCF4E8 SWAP4 PUSH3 0xA90 SWAP4 SWAP2 SWAP3 SWAP1 SWAP2 SWAP1 PUSH1 0x4 ADD PUSH3 0x2058 JUMP JUMPDEST PUSH1 0x20 PUSH1 0x40 MLOAD DUP1 DUP4 SUB DUP2 PUSH0 DUP8 GAS CALL ISZERO DUP1 ISZERO PUSH3 0xAAD JUMPI RETURNDATASIZE PUSH0 DUP1 RETURNDATACOPY RETURNDATASIZE PUSH0 REVERT JUMPDEST POP POP POP POP PUSH1 0x40 MLOAD RETURNDATASIZE PUSH1 0x1F NOT PUSH1 0x1F DUP3 ADD AND DUP3 ADD DUP1 PUSH1 0x40 MSTORE POP DUP2 ADD SWAP1 PUSH3 0xAD3 SWAP2 SWAP1 PUSH3 0x20CF JUMP JUMPDEST SWAP1 POP DUP3 PUSH1 0xE0 ADD MLOAD PUSH1 0x1 PUSH1 0x1 PUSH1 0xA0 SHL SUB AND DUP2 DUP5 PUSH1 0x40 ADD MLOAD PUSH1 0x1 PUSH1 0x1 PUSH1 0xA0 SHL SUB AND PUSH32 0xAE4CB8AC7B5D402355925F7050BAA45DBEF07A739662120A895D7981704CCF1 PUSH1 0x40 MLOAD PUSH1 0x40 MLOAD DUP1 SWAP2 SUB SWAP1 LOG4 POP POP POP JUMP JUMPDEST PUSH1 0x40 DUP2 DUP2 ADD MLOAD PUSH1 0x80 DUP4 ADD MLOAD SWAP2 MLOAD PUSH4 0x34855285 PUSH1 0xE2 SHL DUP2 MSTORE PUSH1 0x4 DUP2 ADD SWAP3 SWAP1 SWAP3 MSTORE CALLER PUSH1 0x24 DUP4 ADD MSTORE SWAP1 PUSH0 SWAP1 DUP2 SWAP1 PUSH1 0x1 PUSH1 0x1 PUSH1 0xA0 SHL SUB DUP5 AND SWAP1 PUSH4 0xD2154A14 SWAP1 PUSH1 0x44 ADD PUSH1 0x40 DUP1 MLOAD DUP1 DUP4 SUB DUP2 PUSH0 DUP8 GAS CALL ISZERO DUP1 ISZERO PUSH3 0xB7D JUMPI RETURNDATASIZE PUSH0 DUP1 RETURNDATACOPY RETURNDATASIZE PUSH0 REVERT JUMPDEST POP POP POP POP PUSH1 0x40 MLOAD RETURNDATASIZE PUSH1 0x1F NOT PUSH1 0x1F DUP3 ADD AND DUP3 ADD DUP1 PUSH1 0x40 MSTORE POP DUP2 ADD SWAP1 PUSH3 0xBA3 SWAP2 SWAP1 PUSH3 0x20E7 JUMP JUMPDEST SWAP2 POP SWAP2 POP DUP1 DUP3 DUP6 PUSH1 0x40 ADD MLOAD PUSH1 0x1 PUSH1 0x1 PUSH1 0xA0 SHL SUB AND PUSH32 0x4134CC587093B966AEBAC3463A405C1FE1B410159FFDF141761E9E7E4D185B0B PUSH1 0x40 MLOAD PUSH1 0x40 MLOAD DUP1 SWAP2 SUB SWAP1 LOG4 POP POP POP POP JUMP JUMPDEST PUSH0 DUP1 PUSH3 0xBFA DUP4 PUSH1 0x60 ADD MLOAD PUSH3 0xF1F JUMP JUMPDEST SWAP1 SWAP3 POP SWAP1 POP PUSH0 DUP3 PUSH1 0x5 DUP2 GT ISZERO PUSH3 0xC15 JUMPI PUSH3 0xC15 PUSH3 0x210A JUMP JUMPDEST SUB PUSH3 0xC26 JUMPI PUSH3 0x731 DUP2 PUSH3 0x14B1 JUMP JUMPDEST PUSH1 0x1 DUP3 PUSH1 0x5 DUP2 GT ISZERO PUSH3 0xC3D JUMPI PUSH3 0xC3D PUSH3 0x210A JUMP JUMPDEST SUB PUSH3 0xC4E JUMPI PUSH3 0x731 DUP2 PUSH3 0xA4A JUMP JUMPDEST PUSH1 0x2 DUP3 PUSH1 0x5 DUP2 GT ISZERO PUSH3 0xC65 JUMPI PUSH3 0xC65 PUSH3 0x210A JUMP JUMPDEST SUB PUSH3 0xC76 JUMPI PUSH3 0x731 DUP2 PUSH3 0xB23 JUMP JUMPDEST PUSH1 0x3 DUP3 PUSH1 0x5 DUP2 GT ISZERO PUSH3 0xC8D JUMPI PUSH3 0xC8D PUSH3 0x210A JUMP JUMPDEST SUB PUSH3 0xC9E JUMPI PUSH3 0x731 DUP2 PUSH3 0xD2B JUMP JUMPDEST PUSH1 0x4 DUP3 PUSH1 0x5 DUP2 GT ISZERO PUSH3 0xCB5 JUMPI PUSH3 0xCB5 PUSH3 0x210A JUMP JUMPDEST SUB PUSH3 0xCC6 JUMPI PUSH3 0x731 DUP2 PUSH3 0xDE9 JUMP JUMPDEST PUSH1 0x5 DUP3 PUSH1 0x5 DUP2 GT ISZERO PUSH3 0xCDD JUMPI PUSH3 0xCDD PUSH3 0x210A JUMP JUMPDEST SUB PUSH3 0xCEE JUMPI PUSH3 0x731 DUP2 PUSH3 0x1603 JUMP JUMPDEST PUSH1 0x40 MLOAD PUSH3 0x461BCD PUSH1 0xE5 SHL DUP2 MSTORE PUSH1 0x20 PUSH1 0x4 DUP3 ADD MSTORE PUSH1 0x11 PUSH1 0x24 DUP3 ADD MSTORE PUSH17 0x24A72B20A624A21027A822A920AA24A7A7 PUSH1 0x79 SHL PUSH1 0x44 DUP3 ADD MSTORE PUSH1 0x64 ADD PUSH3 0x7CA JUMP JUMPDEST PUSH0 DUP2 PUSH1 0x40 ADD MLOAD SWAP1 POP DUP1 PUSH1 0x1 PUSH1 0x1 PUSH1 0xA0 SHL SUB AND PUSH4 0xB733E78A DUP4 PUSH1 0x80 ADD MLOAD DUP5 PUSH1 0xA0 ADD MLOAD DUP6 PUSH1 0xC0 ADD MLOAD DUP7 PUSH1 0xE0 ADD MLOAD PUSH1 0x40 MLOAD DUP6 PUSH4 0xFFFFFFFF AND PUSH1 0xE0 SHL DUP2 MSTORE PUSH1 0x4 ADD PUSH3 0xD77 SWAP5 SWAP4 SWAP3 SWAP2 SWAP1 PUSH3 0x211E JUMP JUMPDEST PUSH0 PUSH1 0x40 MLOAD DUP1 DUP4 SUB DUP2 PUSH0 DUP8 DUP1 EXTCODESIZE ISZERO DUP1 ISZERO PUSH3 0xD8F JUMPI PUSH0 DUP1 REVERT JUMPDEST POP GAS CALL ISZERO DUP1 ISZERO PUSH3 0xDA2 JUMPI RETURNDATASIZE PUSH0 DUP1 RETURNDATACOPY RETURNDATASIZE PUSH0 REVERT JUMPDEST POP POP POP POP DUP2 PUSH1 0xA0 ADD MLOAD DUP3 PUSH1 0x40 ADD MLOAD PUSH1 0x1 PUSH1 0x1 PUSH1 0xA0 SHL SUB AND PUSH32 0x9E7AA5E27C4FA6A013D087BC1B4F50317DF6F2B486A8CDE737DFB96C48FB9473 PUSH1 0x40 MLOAD PUSH1 0x40 MLOAD DUP1 SWAP2 SUB SWAP1 LOG3 POP POP JUMP JUMPDEST PUSH1 0x40 DUP1 DUP3 ADD MLOAD PUSH1 0x80 DUP4 ADD MLOAD PUSH2 0x100 DUP5 ADD MLOAD PUSH1 0xE0 DUP6 ADD MLOAD SWAP4 MLOAD PUSH4 0xB4118DB PUSH1 0xE4 SHL DUP2 MSTORE SWAP3 SWAP4 PUSH1 0x1 PUSH1 0x1 PUSH1 0xA0 SHL SUB DUP6 AND SWAP4 PUSH4 0xB4118DB0 SWAP4 PUSH3 0xE30 SWAP4 SWAP1 SWAP3 SWAP1 SWAP2 PUSH1 0x4 ADD PUSH3 0x2157 JUMP JUMPDEST PUSH0 PUSH1 0x40 MLOAD DUP1 DUP4 SUB DUP2 PUSH0 DUP8 DUP1 EXTCODESIZE ISZERO DUP1 ISZERO PUSH3 0xE48 JUMPI PUSH0 DUP1 REVERT JUMPDEST POP GAS CALL ISZERO DUP1 ISZERO PUSH3 0xE5B JUMPI RETURNDATASIZE PUSH0 DUP1 RETURNDATACOPY RETURNDATASIZE PUSH0 REVERT JUMPDEST POP POP POP POP DUP2 PUSH1 0xE0 ADD MLOAD PUSH1 0x1 PUSH1 0x1 PUSH1 0xA0 SHL SUB AND DUP3 PUSH2 0x100 ADD MLOAD PUSH1 0x40 MLOAD PUSH3 0xE82 SWAP2 SWAP1 PUSH3 0x2189 JUMP JUMPDEST PUSH1 0x40 MLOAD DUP1 SWAP2 SUB SWAP1 KECCAK256 DUP4 PUSH1 0x40 ADD MLOAD PUSH1 0x1 PUSH1 0x1 PUSH1 0xA0 SHL SUB AND PUSH32 0x2A2DB17E3618CA44ADA76DE60283CCA9721AE25A46435160247729D376AE91A4 PUSH1 0x40 MLOAD PUSH1 0x40 MLOAD DUP1 SWAP2 SUB SWAP1 LOG4 POP POP JUMP JUMPDEST PUSH0 DUP1 PUSH1 0x40 MLOAD DUP1 PUSH1 0x20 ADD PUSH3 0xEDC SWAP1 PUSH3 0x17CB JUMP JUMPDEST PUSH1 0x20 DUP3 ADD DUP2 SUB DUP3 MSTORE PUSH1 0x1F NOT PUSH1 0x1F DUP3 ADD AND PUSH1 0x40 MSTORE POP SWAP1 POP PUSH0 PUSH3 0xF06 DUP5 DUP4 DUP1 MLOAD SWAP1 PUSH1 0x20 ADD KECCAK256 PUSH3 0x16C4 JUMP JUMPDEST SWAP1 POP PUSH0 PUSH3 0xF16 PUSH0 DUP7 DUP6 PUSH3 0x16D2 JUMP JUMPDEST SWAP6 SWAP5 POP POP POP POP POP JUMP JUMPDEST PUSH1 0x40 DUP1 MLOAD PUSH2 0x140 DUP2 ADD DUP3 MSTORE PUSH1 0x60 DUP1 DUP3 MSTORE PUSH1 0x20 DUP3 ADD DUP2 SWAP1 MSTORE PUSH0 SWAP3 DUP3 ADD DUP4 SWAP1 MSTORE DUP1 DUP3 ADD DUP2 SWAP1 MSTORE PUSH1 0x80 DUP3 ADD DUP4 SWAP1 MSTORE PUSH1 0xA0 DUP3 ADD DUP4 SWAP1 MSTORE PUSH1 0xC0 DUP3 ADD DUP2 SWAP1 MSTORE PUSH1 0xE0 DUP3 ADD DUP4 SWAP1 MSTORE PUSH2 0x100 DUP3 ADD MSTORE PUSH2 0x120 DUP2 ADD DUP3 SWAP1 MSTORE PUSH0 DUP1 DUP5 DUP1 PUSH1 0x20 ADD SWAP1 MLOAD DUP2 ADD SWAP1 PUSH3 0xF85 SWAP2 SWAP1 PUSH3 0x21DA JUMP JUMPDEST SWAP2 POP SWAP2 POP DUP2 PUSH1 0xFF AND PUSH1 0x5 DUP2 GT ISZERO PUSH3 0xFA1 JUMPI PUSH3 0xFA1 PUSH3 0x210A JUMP JUMPDEST SWAP4 POP PUSH0 DUP5 PUSH1 0x5 DUP2 GT ISZERO PUSH3 0xFB9 JUMPI PUSH3 0xFB9 PUSH3 0x210A JUMP JUMPDEST SUB PUSH3 0x1059 JUMPI PUSH0 DUP2 DUP1 PUSH1 0x20 ADD SWAP1 MLOAD DUP2 ADD SWAP1 PUSH3 0xFD6 SWAP2 SWAP1 PUSH3 0x2273 JUMP JUMPDEST PUSH1 0x40 DUP1 MLOAD PUSH2 0x140 DUP2 ADD DUP3 MSTORE DUP3 MLOAD DUP2 MSTORE PUSH1 0x20 DUP1 DUP5 ADD MLOAD DUP2 DUP4 ADD MSTORE PUSH0 DUP3 DUP5 ADD DUP2 SWAP1 MSTORE DUP4 MLOAD DUP2 DUP2 MSTORE DUP1 DUP4 ADD DUP6 MSTORE PUSH1 0x60 DUP1 DUP6 ADD SWAP2 SWAP1 SWAP2 MSTORE PUSH1 0x80 DUP5 ADD DUP3 SWAP1 MSTORE PUSH1 0xA0 DUP5 ADD DUP3 SWAP1 MSTORE DUP6 DUP6 ADD MLOAD PUSH1 0xC0 DUP6 ADD MSTORE SWAP1 SWAP5 ADD MLOAD PUSH1 0x1 PUSH1 0x1 PUSH1 0xA0 SHL SUB AND PUSH1 0xE0 DUP4 ADD MSTORE DUP3 MLOAD SWAP1 DUP2 ADD SWAP1 SWAP3 MSTORE DUP3 DUP3 MSTORE PUSH2 0x100 DUP2 ADD SWAP2 SWAP1 SWAP2 MSTORE PUSH2 0x120 DUP2 ADD SWAP2 SWAP1 SWAP2 MSTORE SWAP4 POP PUSH3 0x14AA SWAP1 POP JUMP JUMPDEST PUSH1 0x1 DUP5 PUSH1 0x5 DUP2 GT ISZERO PUSH3 0x1070 JUMPI PUSH3 0x1070 PUSH3 0x210A JUMP JUMPDEST SUB PUSH3 0x112D JUMPI PUSH0 DUP2 DUP1 PUSH1 0x20 ADD SWAP1 MLOAD DUP2 ADD SWAP1 PUSH3 0x108D SWAP2 SWAP1 PUSH3 0x2347 JUMP JUMPDEST SWAP1 POP PUSH1 0x40 MLOAD DUP1 PUSH2 0x140 ADD PUSH1 0x40 MSTORE DUP1 DUP3 PUSH1 0x20 ADD MLOAD DUP2 MSTORE PUSH1 0x20 ADD PUSH1 0x40 MLOAD DUP1 PUSH1 0x20 ADD PUSH1 0x40 MSTORE DUP1 PUSH0 DUP2 MSTORE POP DUP2 MSTORE PUSH1 0x20 ADD DUP3 PUSH0 ADD MLOAD PUSH1 0x1 PUSH1 0x1 PUSH1 0xA0 SHL SUB AND DUP2 MSTORE PUSH1 0x20 ADD DUP3 PUSH1 0x40 ADD MLOAD DUP2 MSTORE PUSH1 0x20 ADD PUSH0 DUP2 MSTORE PUSH1 0x20 ADD PUSH0 DUP1 SHL DUP2 MSTORE PUSH1 0x20 ADD PUSH1 0x40 MLOAD DUP1 PUSH1 0x20 ADD PUSH1 0x40 MSTORE DUP1 PUSH0 DUP2 MSTORE POP DUP2 MSTORE PUSH1 0x20 ADD DUP3 PUSH1 0x60 ADD MLOAD PUSH1 0x1 PUSH1 0x1 PUSH1 0xA0 SHL SUB AND DUP2 MSTORE PUSH1 0x20 ADD PUSH1 0x40 MLOAD DUP1 PUSH1 0x20 ADD PUSH1 0x40 MSTORE DUP1 PUSH0 DUP2 MSTORE POP DUP2 MSTORE PUSH1 0x20 ADD PUSH0 ISZERO ISZERO DUP2 MSTORE POP SWAP4 POP POP PUSH3 0x14AA JUMP JUMPDEST PUSH1 0x2 DUP5 PUSH1 0x5 DUP2 GT ISZERO PUSH3 0x1144 JUMPI PUSH3 0x1144 PUSH3 0x210A JUMP JUMPDEST SUB PUSH3 0x11F9 JUMPI PUSH0 DUP2 DUP1 PUSH1 0x20 ADD SWAP1 MLOAD DUP2 ADD SWAP1 PUSH3 0x1161 SWAP2 SWAP1 PUSH3 0x2466 JUMP JUMPDEST PUSH1 0x40 DUP1 MLOAD PUSH2 0x160 DUP2 ADD DUP3 MSTORE PUSH0 PUSH2 0x140 DUP3 ADD DUP2 DUP2 MSTORE DUP3 MSTORE DUP3 MLOAD PUSH1 0x20 DUP1 DUP3 ADD DUP6 MSTORE DUP3 DUP3 MSTORE DUP1 DUP5 ADD SWAP2 SWAP1 SWAP2 MSTORE DUP5 MLOAD PUSH1 0x1 PUSH1 0x1 PUSH1 0xA0 SHL SUB SWAP1 DUP2 AND DUP5 DUP7 ADD MSTORE DUP5 MLOAD DUP4 DUP2 MSTORE DUP1 DUP4 ADD DUP7 MSTORE PUSH1 0x60 DUP6 ADD MSTORE DUP6 DUP3 ADD MLOAD PUSH1 0x80 DUP6 ADD MSTORE PUSH1 0xA0 DUP5 ADD DUP4 SWAP1 MSTORE DUP5 MLOAD DUP1 DUP4 ADD DUP7 MSTORE DUP4 DUP2 MSTORE PUSH1 0xC0 DUP6 ADD MSTORE SWAP5 DUP5 ADD MLOAD SWAP1 SWAP5 AND PUSH1 0xE0 DUP4 ADD MSTORE DUP3 MLOAD SWAP4 DUP5 ADD SWAP1 SWAP3 MSTORE DUP2 DUP4 MSTORE PUSH2 0x100 DUP2 ADD SWAP3 SWAP1 SWAP3 MSTORE PUSH2 0x120 DUP3 ADD MSTORE SWAP4 POP PUSH3 0x14AA SWAP1 POP JUMP JUMPDEST PUSH1 0x3 DUP5 PUSH1 0x5 DUP2 GT ISZERO PUSH3 0x1210 JUMPI PUSH3 0x1210 PUSH3 0x210A JUMP JUMPDEST SUB PUSH3 0x12D4 JUMPI PUSH0 DUP2 DUP1 PUSH1 0x20 ADD SWAP1 MLOAD DUP2 ADD SWAP1 PUSH3 0x122D SWAP2 SWAP1 PUSH3 0x24D4 JUMP JUMPDEST PUSH1 0x40 DUP1 MLOAD PUSH2 0x160 DUP2 ADD DUP3 MSTORE PUSH0 PUSH2 0x140 DUP3 ADD DUP2 DUP2 MSTORE DUP3 MSTORE DUP3 MLOAD PUSH1 0x20 DUP1 DUP3 ADD DUP6 MSTORE DUP3 DUP3 MSTORE DUP1 DUP5 ADD SWAP2 SWAP1 SWAP2 MSTORE DUP5 MLOAD PUSH1 0x1 PUSH1 0x1 PUSH1 0xA0 SHL SUB AND DUP4 DUP6 ADD MSTORE DUP4 MLOAD DUP3 DUP2 MSTORE SWAP1 DUP2 ADD SWAP1 SWAP4 MSTORE SWAP3 SWAP4 POP SWAP2 PUSH1 0x60 DUP4 ADD SWAP2 SWAP1 POP DUP2 MSTORE PUSH1 0x20 ADD DUP3 PUSH1 0x20 ADD MLOAD DUP2 MSTORE PUSH1 0x20 ADD DUP3 PUSH1 0x40 ADD MLOAD DUP2 MSTORE PUSH1 0x20 ADD DUP3 PUSH1 0x60 ADD MLOAD DUP2 MSTORE PUSH1 0x20 ADD DUP3 PUSH1 0x80 ADD MLOAD PUSH1 0x1 PUSH1 0x1 PUSH1 0xA0 SHL SUB AND DUP2 MSTORE PUSH1 0x20 ADD PUSH1 0x40 MLOAD DUP1 PUSH1 0x20 ADD PUSH1 0x40 MSTORE DUP1 PUSH0 DUP2 MSTORE POP DUP2 MSTORE PUSH1 0x20 ADD PUSH0 ISZERO ISZERO DUP2 MSTORE POP SWAP4 POP POP PUSH3 0x14AA JUMP JUMPDEST PUSH1 0x4 DUP5 PUSH1 0x5 DUP2 GT ISZERO PUSH3 0x12EB JUMPI PUSH3 0x12EB PUSH3 0x210A JUMP JUMPDEST SUB PUSH3 0x139F JUMPI PUSH0 DUP2 DUP1 PUSH1 0x20 ADD SWAP1 MLOAD DUP2 ADD SWAP1 PUSH3 0x1308 SWAP2 SWAP1 PUSH3 0x2587 JUMP JUMPDEST PUSH1 0x40 DUP1 MLOAD PUSH2 0x160 DUP2 ADD DUP3 MSTORE PUSH0 PUSH2 0x140 DUP3 ADD DUP2 DUP2 MSTORE DUP3 MSTORE DUP3 MLOAD PUSH1 0x20 DUP1 DUP3 ADD DUP6 MSTORE DUP3 DUP3 MSTORE DUP1 DUP5 ADD SWAP2 SWAP1 SWAP2 MSTORE DUP5 MLOAD PUSH1 0x1 PUSH1 0x1 PUSH1 0xA0 SHL SUB SWAP1 DUP2 AND DUP5 DUP7 ADD MSTORE DUP5 MLOAD DUP4 DUP2 MSTORE DUP1 DUP4 ADD DUP7 MSTORE PUSH1 0x60 DUP1 DUP7 ADD SWAP2 SWAP1 SWAP2 MSTORE DUP7 DUP4 ADD MLOAD PUSH1 0x80 DUP7 ADD MSTORE PUSH1 0xA0 DUP6 ADD DUP5 SWAP1 MSTORE DUP6 MLOAD SWAP3 DUP4 ADD DUP7 MSTORE DUP4 DUP4 MSTORE PUSH1 0xC0 DUP6 ADD SWAP3 SWAP1 SWAP3 MSTORE SWAP1 DUP6 ADD MLOAD AND PUSH1 0xE0 DUP4 ADD MSTORE SWAP3 SWAP1 SWAP2 ADD MLOAD PUSH2 0x100 DUP3 ADD MSTORE PUSH2 0x120 DUP2 ADD SWAP2 SWAP1 SWAP2 MSTORE SWAP4 POP PUSH3 0x14AA SWAP1 POP JUMP JUMPDEST PUSH1 0x5 DUP5 PUSH1 0x5 DUP2 GT ISZERO PUSH3 0x13B6 JUMPI PUSH3 0x13B6 PUSH3 0x210A JUMP JUMPDEST SUB PUSH3 0x146D JUMPI PUSH0 DUP2 DUP1 PUSH1 0x20 ADD SWAP1 MLOAD DUP2 ADD SWAP1 PUSH3 0x13D3 SWAP2 SWAP1 PUSH3 0x25F8 JUMP JUMPDEST PUSH1 0x40 DUP1 MLOAD PUSH2 0x160 DUP2 ADD DUP3 MSTORE PUSH0 PUSH2 0x140 DUP3 ADD DUP2 DUP2 MSTORE DUP3 MSTORE DUP3 MLOAD PUSH1 0x20 DUP1 DUP3 ADD DUP6 MSTORE DUP3 DUP3 MSTORE DUP1 DUP5 ADD SWAP2 SWAP1 SWAP2 MSTORE DUP5 MLOAD PUSH1 0x1 PUSH1 0x1 PUSH1 0xA0 SHL SUB SWAP1 DUP2 AND DUP5 DUP7 ADD MSTORE DUP5 MLOAD DUP4 DUP2 MSTORE DUP1 DUP4 ADD DUP7 MSTORE PUSH1 0x60 DUP1 DUP7 ADD SWAP2 SWAP1 SWAP2 MSTORE PUSH1 0x80 DUP6 ADD DUP5 SWAP1 MSTORE DUP7 DUP4 ADD MLOAD PUSH1 0xA0 DUP7 ADD MSTORE DUP6 MLOAD DUP1 DUP5 ADD DUP8 MSTORE DUP5 DUP2 MSTORE PUSH1 0xC0 DUP7 ADD MSTORE DUP7 ADD MLOAD AND PUSH1 0xE0 DUP5 ADD MSTORE DUP4 MLOAD SWAP1 DUP2 ADD DUP5 MSTORE SWAP1 DUP2 MSTORE PUSH2 0x100 DUP3 ADD MSTORE SWAP2 ADD MLOAD ISZERO ISZERO PUSH2 0x120 DUP3 ADD MSTORE SWAP4 POP PUSH3 0x14AA SWAP1 POP JUMP JUMPDEST PUSH1 0x40 MLOAD PUSH3 0x461BCD PUSH1 0xE5 SHL DUP2 MSTORE PUSH1 0x20 PUSH1 0x4 DUP3 ADD MSTORE PUSH1 0x11 PUSH1 0x24 DUP3 ADD MSTORE PUSH17 0x24B73B30B634B21037B832B930BA34B7B7 PUSH1 0x79 SHL PUSH1 0x44 DUP3 ADD MSTORE PUSH1 0x64 ADD PUSH3 0x7CA JUMP JUMPDEST POP POP SWAP2 POP SWAP2 JUMP JUMPDEST PUSH0 DUP2 PUSH0 ADD MLOAD PUSH1 0x4 PUSH0 DUP2 SLOAD PUSH3 0x14C6 SWAP1 PUSH3 0x1FDB JUMP JUMPDEST SWAP2 DUP3 SWAP1 SSTORE POP PUSH1 0x40 MLOAD PUSH3 0x14DE SWAP3 SWAP2 SWAP1 PUSH1 0x20 ADD PUSH3 0x1FF6 JUMP JUMPDEST PUSH1 0x40 DUP1 MLOAD PUSH1 0x1F NOT DUP2 DUP5 SUB ADD DUP2 MSTORE DUP3 DUP3 MSTORE DUP1 MLOAD PUSH1 0x20 SWAP2 DUP3 ADD KECCAK256 PUSH1 0x3 DUP1 SLOAD PUSH1 0x1 DUP2 ADD DUP3 SSTORE PUSH0 SWAP2 DUP3 MSTORE PUSH32 0xC2575A0E9E593C00F959F8C92F12DB2869C3395A3B0502D05E2516446F71F85B ADD DUP3 SWAP1 SSTORE PUSH1 0x80 DUP6 ADD DUP5 MSTORE PUSH1 0xC0 DUP8 ADD MLOAD DUP6 MSTORE DUP7 MLOAD DUP6 DUP5 ADD MSTORE DUP7 DUP4 ADD MLOAD DUP6 DUP6 ADD MSTORE PUSH1 0xE0 DUP8 ADD MLOAD PUSH1 0x1 PUSH1 0x1 PUSH1 0xA0 SHL SUB AND PUSH1 0x60 DUP7 ADD MSTORE DUP2 DUP2 MSTORE PUSH1 0x6 SWAP1 SWAP3 MSTORE SWAP2 SWAP1 KECCAK256 DUP3 MLOAD SWAP2 SWAP4 POP DUP3 SWAP2 DUP2 SWAP1 PUSH3 0x1577 SWAP1 DUP3 PUSH3 0x26A8 JUMP JUMPDEST POP PUSH1 0x20 DUP3 ADD MLOAD PUSH1 0x1 DUP3 ADD SWAP1 PUSH3 0x158E SWAP1 DUP3 PUSH3 0x26A8 JUMP JUMPDEST POP PUSH1 0x40 DUP3 ADD MLOAD PUSH1 0x2 DUP3 ADD SWAP1 PUSH3 0x15A5 SWAP1 DUP3 PUSH3 0x26A8 JUMP JUMPDEST POP PUSH1 0x60 SWAP2 SWAP1 SWAP2 ADD MLOAD PUSH1 0x3 SWAP1 SWAP2 ADD DUP1 SLOAD PUSH1 0x1 PUSH1 0x1 PUSH1 0xA0 SHL SUB NOT AND PUSH1 0x1 PUSH1 0x1 PUSH1 0xA0 SHL SUB SWAP3 DUP4 AND OR SWAP1 SSTORE PUSH1 0xE0 DUP5 ADD MLOAD PUSH1 0x40 MLOAD SWAP2 AND SWAP1 DUP4 SWAP1 PUSH32 0x4DF3D93E34D4A5516F067788A579615DA3FDC59E5CBBD09901429C8F3832B7D5 SWAP1 PUSH0 SWAP1 LOG3 POP POP POP JUMP JUMPDEST PUSH1 0x40 DUP2 DUP2 ADD MLOAD PUSH1 0xA0 DUP4 ADD MLOAD PUSH2 0x120 DUP5 ADD MLOAD PUSH1 0xE0 DUP6 ADD MLOAD SWAP4 MLOAD PUSH4 0x76E8057 PUSH1 0xE2 SHL DUP2 MSTORE PUSH1 0x4 DUP2 ADD SWAP3 SWAP1 SWAP3 MSTORE ISZERO ISZERO PUSH1 0x24 DUP3 ADD MSTORE PUSH1 0x1 PUSH1 0x1 PUSH1 0xA0 SHL SUB SWAP3 DUP4 AND PUSH1 0x44 DUP3 ADD MSTORE SWAP1 SWAP2 DUP3 AND SWAP1 PUSH4 0x1DBA015C SWAP1 PUSH1 0x64 ADD PUSH0 PUSH1 0x40 MLOAD DUP1 DUP4 SUB DUP2 PUSH0 DUP8 DUP1 EXTCODESIZE ISZERO DUP1 ISZERO PUSH3 0x166A JUMPI PUSH0 DUP1 REVERT JUMPDEST POP GAS CALL ISZERO DUP1 ISZERO PUSH3 0x167D JUMPI RETURNDATASIZE PUSH0 DUP1 RETURNDATACOPY RETURNDATASIZE PUSH0 REVERT JUMPDEST POP POP POP POP DUP2 PUSH1 0xA0 ADD MLOAD DUP3 PUSH1 0x40 ADD MLOAD PUSH1 0x1 PUSH1 0x1 PUSH1 0xA0 SHL SUB AND PUSH32 0xCEDC3309D6C0097C6782CE3F908382BFE5ECB3334D2AC5A89E4764741FA393D3 PUSH1 0x40 MLOAD PUSH1 0x40 MLOAD DUP1 SWAP2 SUB SWAP1 LOG3 POP POP JUMP JUMPDEST PUSH0 PUSH3 0xA43 DUP4 DUP4 ADDRESS PUSH3 0x1754 JUMP JUMPDEST PUSH0 DUP4 SELFBALANCE LT ISZERO PUSH3 0x16FF JUMPI PUSH1 0x40 MLOAD PUSH4 0x392EFB2B PUSH1 0xE2 SHL DUP2 MSTORE SELFBALANCE PUSH1 0x4 DUP3 ADD MSTORE PUSH1 0x24 DUP2 ADD DUP6 SWAP1 MSTORE PUSH1 0x44 ADD PUSH3 0x7CA JUMP JUMPDEST DUP2 MLOAD PUSH0 SUB PUSH3 0x1721 JUMPI PUSH1 0x40 MLOAD PUSH4 0x13289277 PUSH1 0xE2 SHL DUP2 MSTORE PUSH1 0x4 ADD PUSH1 0x40 MLOAD DUP1 SWAP2 SUB SWAP1 REVERT JUMPDEST DUP3 DUP3 MLOAD PUSH1 0x20 DUP5 ADD DUP7 CREATE2 SWAP1 POP PUSH1 0x1 PUSH1 0x1 PUSH1 0xA0 SHL SUB DUP2 AND PUSH3 0xA43 JUMPI PUSH1 0x40 MLOAD PUSH4 0x3A0BA961 PUSH1 0xE1 SHL DUP2 MSTORE PUSH1 0x4 ADD PUSH1 0x40 MLOAD DUP1 SWAP2 SUB SWAP1 REVERT JUMPDEST PUSH0 PUSH1 0x40 MLOAD DUP4 PUSH1 0x40 DUP3 ADD MSTORE DUP5 PUSH1 0x20 DUP3 ADD MSTORE DUP3 DUP2 MSTORE PUSH1 0xB DUP2 ADD SWAP1 POP PUSH1 0xFF DUP2 MSTORE8 PUSH1 0x55 SWAP1 KECCAK256 SWAP5 SWAP4 POP POP POP POP JUMP JUMPDEST DUP3 DUP1 SLOAD DUP3 DUP3 SSTORE SWAP1 PUSH0 MSTORE PUSH1 0x20 PUSH0 KECCAK256 SWAP1 DUP2 ADD SWAP3 DUP3 ISZERO PUSH3 0x17B9 JUMPI SWAP2 PUSH1 0x20 MUL DUP3 ADD JUMPDEST DUP3 DUP2 GT ISZERO PUSH3 0x17B9 JUMPI DUP3 MLOAD DUP3 SSTORE SWAP2 PUSH1 0x20 ADD SWAP2 SWAP1 PUSH1 0x1 ADD SWAP1 PUSH3 0x179C JUMP JUMPDEST POP PUSH3 0x17C7 SWAP3 SWAP2 POP PUSH3 0x17D9 JUMP JUMPDEST POP SWAP1 JUMP JUMPDEST PUSH2 0x2636 DUP1 PUSH3 0x2775 DUP4 CODECOPY ADD SWAP1 JUMP JUMPDEST JUMPDEST DUP1 DUP3 GT ISZERO PUSH3 0x17C7 JUMPI PUSH0 DUP2 SSTORE PUSH1 0x1 ADD PUSH3 0x17DA JUMP JUMPDEST PUSH0 PUSH1 0x20 DUP3 DUP5 SUB SLT ISZERO PUSH3 0x1800 JUMPI PUSH0 DUP1 REVERT JUMPDEST DUP2 CALLDATALOAD PUSH1 0x1 PUSH1 0x1 PUSH1 0xE0 SHL SUB NOT DUP2 AND DUP2 EQ PUSH3 0xA43 JUMPI PUSH0 DUP1 REVERT JUMPDEST PUSH0 PUSH1 0x20 DUP3 DUP5 SUB SLT ISZERO PUSH3 0x1829 JUMPI PUSH0 DUP1 REVERT JUMPDEST POP CALLDATALOAD SWAP2 SWAP1 POP JUMP JUMPDEST PUSH0 DUP1 PUSH1 0x20 DUP4 DUP6 SUB SLT ISZERO PUSH3 0x1842 JUMPI PUSH0 DUP1 REVERT JUMPDEST DUP3 CALLDATALOAD PUSH1 0x1 PUSH1 0x1 PUSH1 0x40 SHL SUB DUP1 DUP3 GT ISZERO PUSH3 0x1859 JUMPI PUSH0 DUP1 REVERT JUMPDEST DUP2 DUP6 ADD SWAP2 POP DUP6 PUSH1 0x1F DUP4 ADD SLT PUSH3 0x186D JUMPI PUSH0 DUP1 REVERT JUMPDEST DUP2 CALLDATALOAD DUP2 DUP2 GT ISZERO PUSH3 0x187C JUMPI PUSH0 DUP1 REVERT JUMPDEST DUP7 PUSH1 0x20 DUP3 DUP6 ADD ADD GT ISZERO PUSH3 0x188E JUMPI PUSH0 DUP1 REVERT JUMPDEST PUSH1 0x20 SWAP3 SWAP1 SWAP3 ADD SWAP7 SWAP2 SWAP6 POP SWAP1 SWAP4 POP POP POP POP JUMP JUMPDEST PUSH1 0x1 PUSH1 0x1 PUSH1 0xA0 SHL SUB DUP2 AND DUP2 EQ PUSH3 0x7E8 JUMPI PUSH0 DUP1 REVERT JUMPDEST PUSH4 0x4E487B71 PUSH1 0xE0 SHL PUSH0 MSTORE PUSH1 0x41 PUSH1 0x4 MSTORE PUSH1 0x24 PUSH0 REVERT JUMPDEST PUSH1 0x40 DUP1 MLOAD SWAP1 DUP2 ADD PUSH1 0x1 PUSH1 0x1 PUSH1 0x40 SHL SUB DUP2 GT DUP3 DUP3 LT OR ISZERO PUSH3 0x18EE JUMPI PUSH3 0x18EE PUSH3 0x18B5 JUMP JUMPDEST PUSH1 0x40 MSTORE SWAP1 JUMP JUMPDEST PUSH1 0x40 MLOAD PUSH1 0xA0 DUP2 ADD PUSH1 0x1 PUSH1 0x1 PUSH1 0x40 SHL SUB DUP2 GT DUP3 DUP3 LT OR ISZERO PUSH3 0x18EE JUMPI PUSH3 0x18EE PUSH3 0x18B5 JUMP JUMPDEST PUSH1 0x40 MLOAD PUSH1 0x80 DUP2 ADD PUSH1 0x1 PUSH1 0x1 PUSH1 0x40 SHL SUB DUP2 GT DUP3 DUP3 LT OR ISZERO PUSH3 0x18EE JUMPI PUSH3 0x18EE PUSH3 0x18B5 JUMP JUMPDEST PUSH1 0x40 MLOAD PUSH1 0x1F DUP3 ADD PUSH1 0x1F NOT AND DUP2 ADD PUSH1 0x1 PUSH1 0x1 PUSH1 0x40 SHL SUB DUP2 GT DUP3 DUP3 LT OR ISZERO PUSH3 0x1969 JUMPI PUSH3 0x1969 PUSH3 0x18B5 JUMP JUMPDEST PUSH1 0x40 MSTORE SWAP2 SWAP1 POP JUMP JUMPDEST PUSH0 PUSH1 0x1 PUSH1 0x1 PUSH1 0x40 SHL SUB DUP3 GT ISZERO PUSH3 0x198C JUMPI PUSH3 0x198C PUSH3 0x18B5 JUMP JUMPDEST POP PUSH1 0x1F ADD PUSH1 0x1F NOT AND PUSH1 0x20 ADD SWAP1 JUMP JUMPDEST PUSH0 DUP3 PUSH1 0x1F DUP4 ADD SLT PUSH3 0x19AA JUMPI PUSH0 DUP1 REVERT JUMPDEST DUP2 CALLDATALOAD PUSH3 0x19C1 PUSH3 0x19BB DUP3 PUSH3 0x1971 JUMP JUMPDEST PUSH3 0x193E JUMP JUMPDEST DUP2 DUP2 MSTORE DUP5 PUSH1 0x20 DUP4 DUP7 ADD ADD GT ISZERO PUSH3 0x19D6 JUMPI PUSH0 DUP1 REVERT JUMPDEST DUP2 PUSH1 0x20 DUP6 ADD PUSH1 0x20 DUP4 ADD CALLDATACOPY PUSH0 SWAP2 DUP2 ADD PUSH1 0x20 ADD SWAP2 SWAP1 SWAP2 MSTORE SWAP4 SWAP3 POP POP POP JUMP JUMPDEST PUSH0 PUSH1 0x1 PUSH1 0x1 PUSH1 0x40 SHL SUB DUP3 GT ISZERO PUSH3 0x1A0D JUMPI PUSH3 0x1A0D PUSH3 0x18B5 JUMP JUMPDEST POP PUSH1 0x5 SHL PUSH1 0x20 ADD SWAP1 JUMP JUMPDEST PUSH0 DUP1 PUSH0 PUSH1 0x60 DUP5 DUP7 SUB SLT ISZERO PUSH3 0x1A2A JUMPI PUSH0 DUP1 REVERT JUMPDEST DUP4 CALLDATALOAD PUSH3 0x1A37 DUP2 PUSH3 0x18A0 JUMP JUMPDEST SWAP3 POP PUSH1 0x20 DUP5 DUP2 ADD CALLDATALOAD PUSH1 0x1 PUSH1 0x1 PUSH1 0x40 SHL SUB DUP1 DUP3 GT ISZERO PUSH3 0x1A54 JUMPI PUSH0 DUP1 REVERT JUMPDEST PUSH3 0x1A62 DUP9 DUP4 DUP10 ADD PUSH3 0x199A JUMP JUMPDEST SWAP5 POP PUSH1 0x40 DUP8 ADD CALLDATALOAD SWAP2 POP DUP1 DUP3 GT ISZERO PUSH3 0x1A78 JUMPI PUSH0 DUP1 REVERT JUMPDEST POP DUP6 ADD PUSH1 0x1F DUP2 ADD DUP8 SGT PUSH3 0x1A8A JUMPI PUSH0 DUP1 REVERT JUMPDEST DUP1 CALLDATALOAD PUSH3 0x1A9B PUSH3 0x19BB DUP3 PUSH3 0x19F2 JUMP JUMPDEST DUP2 DUP2 MSTORE PUSH1 0x5 SWAP2 SWAP1 SWAP2 SHL DUP3 ADD DUP4 ADD SWAP1 DUP4 DUP2 ADD SWAP1 DUP10 DUP4 GT ISZERO PUSH3 0x1ABA JUMPI PUSH0 DUP1 REVERT JUMPDEST SWAP3 DUP5 ADD SWAP3 JUMPDEST DUP3 DUP5 LT ISZERO PUSH3 0x1AE5 JUMPI DUP4 CALLDATALOAD PUSH3 0x1AD5 DUP2 PUSH3 0x18A0 JUMP JUMPDEST DUP3 MSTORE SWAP3 DUP5 ADD SWAP3 SWAP1 DUP5 ADD SWAP1 PUSH3 0x1ABF JUMP JUMPDEST DUP1 SWAP6 POP POP POP POP POP POP SWAP3 POP SWAP3 POP SWAP3 JUMP JUMPDEST PUSH0 DUP1 PUSH1 0x40 DUP4 DUP6 SUB SLT ISZERO PUSH3 0x1B06 JUMPI PUSH0 DUP1 REVERT JUMPDEST DUP3 CALLDATALOAD PUSH3 0x1B13 DUP2 PUSH3 0x18A0 JUMP JUMPDEST SWAP5 PUSH1 0x20 SWAP4 SWAP1 SWAP4 ADD CALLDATALOAD SWAP4 POP POP POP JUMP JUMPDEST PUSH0 JUMPDEST DUP4 DUP2 LT ISZERO PUSH3 0x1B3D JUMPI DUP2 DUP2 ADD MLOAD DUP4 DUP3 ADD MSTORE PUSH1 0x20 ADD PUSH3 0x1B23 JUMP JUMPDEST POP POP PUSH0 SWAP2 ADD MSTORE JUMP JUMPDEST PUSH0 DUP2 MLOAD DUP1 DUP5 MSTORE PUSH3 0x1B5E DUP2 PUSH1 0x20 DUP7 ADD PUSH1 0x20 DUP7 ADD PUSH3 0x1B21 JUMP JUMPDEST PUSH1 0x1F ADD PUSH1 0x1F NOT AND SWAP3 SWAP1 SWAP3 ADD PUSH1 0x20 ADD SWAP3 SWAP2 POP POP JUMP JUMPDEST PUSH1 0x20 DUP2 MSTORE PUSH0 PUSH3 0xA43 PUSH1 0x20 DUP4 ADD DUP5 PUSH3 0x1B45 JUMP JUMPDEST DUP3 ISZERO ISZERO DUP2 MSTORE PUSH1 0x40 PUSH1 0x20 DUP3 ADD MSTORE PUSH0 PUSH3 0x1BA2 PUSH1 0x40 DUP4 ADD DUP5 PUSH3 0x1B45 JUMP JUMPDEST SWAP5 SWAP4 POP POP POP POP JUMP JUMPDEST PUSH0 PUSH1 0x20 DUP3 DUP5 SUB SLT ISZERO PUSH3 0x1BBB JUMPI PUSH0 DUP1 REVERT JUMPDEST DUP2 CALLDATALOAD PUSH1 0x1 PUSH1 0x1 PUSH1 0x40 SHL SUB DUP2 GT ISZERO PUSH3 0x1BD1 JUMPI PUSH0 DUP1 REVERT JUMPDEST DUP3 ADD PUSH1 0xA0 DUP2 DUP6 SUB SLT ISZERO PUSH3 0xA43 JUMPI PUSH0 DUP1 REVERT JUMPDEST PUSH0 DUP1 PUSH0 PUSH1 0x60 DUP5 DUP7 SUB SLT ISZERO PUSH3 0x1BF6 JUMPI PUSH0 DUP1 REVERT JUMPDEST DUP4 CALLDATALOAD PUSH1 0x1 PUSH1 0x1 PUSH1 0x40 SHL SUB DUP1 DUP3 GT ISZERO PUSH3 0x1C0D JUMPI PUSH0 DUP1 REVERT JUMPDEST PUSH3 0x1C1B DUP8 DUP4 DUP9 ADD PUSH3 0x199A JUMP JUMPDEST SWAP5 POP PUSH1 0x20 DUP7 ADD CALLDATALOAD SWAP2 POP DUP1 DUP3 GT ISZERO PUSH3 0x1C31 JUMPI PUSH0 DUP1 REVERT JUMPDEST PUSH3 0x1C3F DUP8 DUP4 DUP9 ADD PUSH3 0x199A JUMP JUMPDEST SWAP4 POP PUSH1 0x40 DUP7 ADD CALLDATALOAD SWAP2 POP DUP1 DUP3 GT ISZERO PUSH3 0x1C55 JUMPI PUSH0 DUP1 REVERT JUMPDEST POP PUSH3 0x1C64 DUP7 DUP3 DUP8 ADD PUSH3 0x199A JUMP JUMPDEST SWAP2 POP POP SWAP3 POP SWAP3 POP SWAP3 JUMP JUMPDEST PUSH0 DUP1 PUSH0 DUP1 PUSH1 0x80 DUP6 DUP8 SUB SLT ISZERO PUSH3 0x1C82 JUMPI PUSH0 DUP1 REVERT JUMPDEST DUP5 CALLDATALOAD PUSH3 0x1C8F DUP2 PUSH3 0x18A0 JUMP JUMPDEST SWAP4 POP PUSH1 0x20 DUP6 ADD CALLDATALOAD SWAP3 POP PUSH1 0x40 DUP6 ADD CALLDATALOAD SWAP2 POP PUSH1 0x60 DUP6 ADD CALLDATALOAD PUSH1 0x1 PUSH1 0x1 PUSH1 0x40 SHL SUB DUP2 GT ISZERO PUSH3 0x1CB8 JUMPI PUSH0 DUP1 REVERT JUMPDEST PUSH3 0x1CC6 DUP8 DUP3 DUP9 ADD PUSH3 0x199A JUMP JUMPDEST SWAP2 POP POP SWAP3 SWAP6 SWAP2 SWAP5 POP SWAP3 POP JUMP JUMPDEST PUSH0 DUP1 PUSH0 PUSH1 0x60 DUP5 DUP7 SUB SLT ISZERO PUSH3 0x1CE5 JUMPI PUSH0 DUP1 REVERT JUMPDEST DUP4 CALLDATALOAD PUSH3 0x1CF2 DUP2 PUSH3 0x18A0 JUMP JUMPDEST SWAP3 POP PUSH1 0x20 DUP5 ADD CALLDATALOAD PUSH1 0x1 PUSH1 0x1 PUSH1 0x40 SHL SUB DUP2 GT ISZERO PUSH3 0x1D0D JUMPI PUSH0 DUP1 REVERT JUMPDEST PUSH3 0x1D1B DUP7 DUP3 DUP8 ADD PUSH3 0x199A JUMP JUMPDEST SWAP3 POP POP PUSH1 0x40 DUP5 ADD CALLDATALOAD SWAP1 POP SWAP3 POP SWAP3 POP SWAP3 JUMP JUMPDEST PUSH4 0x4E487B71 PUSH1 0xE0 SHL PUSH0 MSTORE PUSH1 0x11 PUSH1 0x4 MSTORE PUSH1 0x24 PUSH0 REVERT JUMPDEST DUP2 DUP2 SUB DUP2 DUP2 GT ISZERO PUSH3 0x3C4 JUMPI PUSH3 0x3C4 PUSH3 0x1D2C JUMP JUMPDEST PUSH4 0x4E487B71 PUSH1 0xE0 SHL PUSH0 MSTORE PUSH1 0x32 PUSH1 0x4 MSTORE PUSH1 0x24 PUSH0 REVERT JUMPDEST PUSH1 0x1 DUP2 DUP2 SHR SWAP1 DUP3 AND DUP1 PUSH3 0x1D7F JUMPI PUSH1 0x7F DUP3 AND SWAP2 POP JUMPDEST PUSH1 0x20 DUP3 LT DUP2 SUB PUSH3 0x1D9E JUMPI PUSH4 0x4E487B71 PUSH1 0xE0 SHL PUSH0 MSTORE PUSH1 0x22 PUSH1 0x4 MSTORE PUSH1 0x24 PUSH0 REVERT JUMPDEST POP SWAP2 SWAP1 POP JUMP JUMPDEST PUSH0 DUP2 SLOAD PUSH3 0x1DB2 DUP2 PUSH3 0x1D6A JUMP JUMPDEST DUP1 DUP6 MSTORE PUSH1 0x20 PUSH1 0x1 DUP4 DUP2 AND DUP1 ISZERO PUSH3 0x1DD2 JUMPI PUSH1 0x1 DUP2 EQ PUSH3 0x1DED JUMPI PUSH3 0x1E1A JUMP JUMPDEST PUSH1 0xFF NOT DUP6 AND DUP9 DUP5 ADD MSTORE DUP4 ISZERO ISZERO PUSH1 0x5 SHL DUP9 ADD DUP4 ADD SWAP6 POP PUSH3 0x1E1A JUMP JUMPDEST DUP7 PUSH0 MSTORE DUP3 PUSH0 KECCAK256 PUSH0 JUMPDEST DUP6 DUP2 LT ISZERO PUSH3 0x1E12 JUMPI DUP2 SLOAD DUP11 DUP3 ADD DUP7 ADD MSTORE SWAP1 DUP4 ADD SWAP1 DUP5 ADD PUSH3 0x1DF5 JUMP JUMPDEST DUP10 ADD DUP5 ADD SWAP7 POP POP JUMPDEST POP POP POP POP POP SWAP3 SWAP2 POP POP JUMP JUMPDEST PUSH0 PUSH1 0x1 DUP1 PUSH1 0xA0 SHL SUB DUP1 DUP8 AND DUP4 MSTORE PUSH1 0x80 PUSH1 0x20 DUP5 ADD MSTORE PUSH3 0x1E48 PUSH1 0x80 DUP5 ADD DUP8 PUSH3 0x1DA4 JUMP JUMPDEST DUP2 DUP7 AND PUSH1 0x40 DUP6 ADD MSTORE DUP4 DUP2 SUB PUSH1 0x60 DUP6 ADD MSTORE PUSH3 0x1E64 DUP2 DUP7 PUSH3 0x1DA4 JUMP JUMPDEST SWAP9 SWAP8 POP POP POP POP POP POP POP POP JUMP JUMPDEST DUP1 CALLDATALOAD PUSH1 0x1 PUSH1 0x1 PUSH1 0x40 SHL SUB DUP2 AND DUP2 EQ PUSH3 0x1E87 JUMPI PUSH0 DUP1 REVERT JUMPDEST SWAP2 SWAP1 POP JUMP JUMPDEST PUSH0 DUP3 PUSH1 0x1F DUP4 ADD SLT PUSH3 0x1E9C JUMPI PUSH0 DUP1 REVERT JUMPDEST DUP2 CALLDATALOAD PUSH1 0x20 PUSH3 0x1EAF PUSH3 0x19BB DUP4 PUSH3 0x19F2 JUMP JUMPDEST DUP3 DUP2 MSTORE PUSH1 0x6 SWAP3 SWAP1 SWAP3 SHL DUP5 ADD DUP2 ADD SWAP2 DUP2 DUP2 ADD SWAP1 DUP7 DUP5 GT ISZERO PUSH3 0x1ECE JUMPI PUSH0 DUP1 REVERT JUMPDEST DUP3 DUP7 ADD JUMPDEST DUP5 DUP2 LT ISZERO PUSH3 0x1F1B JUMPI PUSH1 0x40 DUP2 DUP10 SUB SLT ISZERO PUSH3 0x1EEB JUMPI PUSH0 DUP1 REVERT JUMPDEST PUSH3 0x1EF5 PUSH3 0x18C9 JUMP JUMPDEST DUP2 CALLDATALOAD PUSH3 0x1F02 DUP2 PUSH3 0x18A0 JUMP JUMPDEST DUP2 MSTORE DUP2 DUP6 ADD CALLDATALOAD DUP6 DUP3 ADD MSTORE DUP4 MSTORE SWAP2 DUP4 ADD SWAP2 PUSH1 0x40 ADD PUSH3 0x1ED2 JUMP JUMPDEST POP SWAP7 SWAP6 POP POP POP POP POP POP JUMP JUMPDEST PUSH0 PUSH1 0xA0 DUP3 CALLDATASIZE SUB SLT ISZERO PUSH3 0x1F37 JUMPI PUSH0 DUP1 REVERT JUMPDEST PUSH3 0x1F41 PUSH3 0x18F4 JUMP JUMPDEST DUP3 CALLDATALOAD DUP2 MSTORE PUSH3 0x1F53 PUSH1 0x20 DUP5 ADD PUSH3 0x1E70 JUMP JUMPDEST PUSH1 0x20 DUP3 ADD MSTORE PUSH1 0x40 DUP4 ADD CALLDATALOAD PUSH1 0x1 PUSH1 0x1 PUSH1 0x40 SHL SUB DUP1 DUP3 GT ISZERO PUSH3 0x1F72 JUMPI PUSH0 DUP1 REVERT JUMPDEST PUSH3 0x1F80 CALLDATASIZE DUP4 DUP8 ADD PUSH3 0x199A JUMP JUMPDEST PUSH1 0x40 DUP5 ADD MSTORE PUSH1 0x60 DUP6 ADD CALLDATALOAD SWAP2 POP DUP1 DUP3 GT ISZERO PUSH3 0x1F99 JUMPI PUSH0 DUP1 REVERT JUMPDEST PUSH3 0x1FA7 CALLDATASIZE DUP4 DUP8 ADD PUSH3 0x199A JUMP JUMPDEST PUSH1 0x60 DUP5 ADD MSTORE PUSH1 0x80 DUP6 ADD CALLDATALOAD SWAP2 POP DUP1 DUP3 GT ISZERO PUSH3 0x1FC0 JUMPI PUSH0 DUP1 REVERT JUMPDEST POP PUSH3 0x1FCF CALLDATASIZE DUP3 DUP7 ADD PUSH3 0x1E8C JUMP JUMPDEST PUSH1 0x80 DUP4 ADD MSTORE POP SWAP3 SWAP2 POP POP JUMP JUMPDEST PUSH0 PUSH1 0x1 DUP3 ADD PUSH3 0x1FEF JUMPI PUSH3 0x1FEF PUSH3 0x1D2C JUMP JUMPDEST POP PUSH1 0x1 ADD SWAP1 JUMP JUMPDEST PUSH0 DUP4 MLOAD PUSH3 0x2009 DUP2 DUP5 PUSH1 0x20 DUP9 ADD PUSH3 0x1B21 JUMP JUMPDEST SWAP2 SWAP1 SWAP2 ADD SWAP2 DUP3 MSTORE POP PUSH1 0x20 ADD SWAP2 SWAP1 POP JUMP JUMPDEST PUSH0 PUSH1 0x1 DUP1 PUSH1 0xA0 SHL SUB DUP1 DUP8 AND DUP4 MSTORE PUSH1 0x80 PUSH1 0x20 DUP5 ADD MSTORE PUSH3 0x203C PUSH1 0x80 DUP5 ADD DUP8 PUSH3 0x1B45 JUMP JUMPDEST DUP2 DUP7 AND PUSH1 0x40 DUP6 ADD MSTORE DUP4 DUP2 SUB PUSH1 0x60 DUP6 ADD MSTORE PUSH3 0x1E64 DUP2 DUP7 PUSH3 0x1B45 JUMP JUMPDEST PUSH1 0x60 DUP2 MSTORE PUSH0 PUSH3 0x206C PUSH1 0x60 DUP4 ADD DUP7 PUSH3 0x1B45 JUMP JUMPDEST DUP3 DUP2 SUB PUSH1 0x20 DUP5 DUP2 ADD SWAP2 SWAP1 SWAP2 MSTORE DUP6 MLOAD DUP1 DUP4 MSTORE DUP7 DUP3 ADD SWAP3 DUP3 ADD SWAP1 PUSH0 JUMPDEST DUP2 DUP2 LT ISZERO PUSH3 0x20AD JUMPI DUP5 MLOAD PUSH1 0x1 PUSH1 0x1 PUSH1 0xA0 SHL SUB AND DUP4 MSTORE SWAP4 DUP4 ADD SWAP4 SWAP2 DUP4 ADD SWAP2 PUSH1 0x1 ADD PUSH3 0x2086 JUMP JUMPDEST POP POP PUSH1 0x1 PUSH1 0x1 PUSH1 0xA0 SHL SUB SWAP6 SWAP1 SWAP6 AND PUSH1 0x40 SWAP5 SWAP1 SWAP5 ADD SWAP4 SWAP1 SWAP4 MSTORE POP SWAP2 SWAP5 SWAP4 POP POP POP POP JUMP JUMPDEST PUSH0 PUSH1 0x20 DUP3 DUP5 SUB SLT ISZERO PUSH3 0x20E0 JUMPI PUSH0 DUP1 REVERT JUMPDEST POP MLOAD SWAP2 SWAP1 POP JUMP JUMPDEST PUSH0 DUP1 PUSH1 0x40 DUP4 DUP6 SUB SLT ISZERO PUSH3 0x20F9 JUMPI PUSH0 DUP1 REVERT JUMPDEST POP POP DUP1 MLOAD PUSH1 0x20 SWAP1 SWAP2 ADD MLOAD SWAP1 SWAP3 SWAP1 SWAP2 POP JUMP JUMPDEST PUSH4 0x4E487B71 PUSH1 0xE0 SHL PUSH0 MSTORE PUSH1 0x21 PUSH1 0x4 MSTORE PUSH1 0x24 PUSH0 REVERT JUMPDEST DUP5 DUP2 MSTORE DUP4 PUSH1 0x20 DUP3 ADD MSTORE PUSH1 0x80 PUSH1 0x40 DUP3 ADD MSTORE PUSH0 PUSH3 0x213E PUSH1 0x80 DUP4 ADD DUP6 PUSH3 0x1B45 JUMP JUMPDEST SWAP1 POP PUSH1 0x1 DUP1 PUSH1 0xA0 SHL SUB DUP4 AND PUSH1 0x60 DUP4 ADD MSTORE SWAP6 SWAP5 POP POP POP POP POP JUMP JUMPDEST DUP4 DUP2 MSTORE PUSH1 0x60 PUSH1 0x20 DUP3 ADD MSTORE PUSH0 PUSH3 0x2171 PUSH1 0x60 DUP4 ADD DUP6 PUSH3 0x1B45 JUMP JUMPDEST SWAP1 POP PUSH1 0x1 DUP1 PUSH1 0xA0 SHL SUB DUP4 AND PUSH1 0x40 DUP4 ADD MSTORE SWAP5 SWAP4 POP POP POP POP JUMP JUMPDEST PUSH0 DUP3 MLOAD PUSH3 0x219C DUP2 DUP5 PUSH1 0x20 DUP8 ADD PUSH3 0x1B21 JUMP JUMPDEST SWAP2 SWAP1 SWAP2 ADD SWAP3 SWAP2 POP POP JUMP JUMPDEST PUSH0 PUSH3 0x21B6 PUSH3 0x19BB DUP5 PUSH3 0x1971 JUMP JUMPDEST SWAP1 POP DUP3 DUP2 MSTORE DUP4 DUP4 DUP4 ADD GT ISZERO PUSH3 0x21CA JUMPI PUSH0 DUP1 REVERT JUMPDEST PUSH3 0xA43 DUP4 PUSH1 0x20 DUP4 ADD DUP5 PUSH3 0x1B21 JUMP JUMPDEST PUSH0 DUP1 PUSH1 0x40 DUP4 DUP6 SUB SLT ISZERO PUSH3 0x21EC JUMPI PUSH0 DUP1 REVERT JUMPDEST DUP3 MLOAD PUSH1 0xFF DUP2 AND DUP2 EQ PUSH3 0x21FD JUMPI PUSH0 DUP1 REVERT JUMPDEST PUSH1 0x20 DUP5 ADD MLOAD SWAP1 SWAP3 POP PUSH1 0x1 PUSH1 0x1 PUSH1 0x40 SHL SUB DUP2 GT ISZERO PUSH3 0x2219 JUMPI PUSH0 DUP1 REVERT JUMPDEST DUP4 ADD PUSH1 0x1F DUP2 ADD DUP6 SGT PUSH3 0x222A JUMPI PUSH0 DUP1 REVERT JUMPDEST PUSH3 0x223B DUP6 DUP3 MLOAD PUSH1 0x20 DUP5 ADD PUSH3 0x21A6 JUMP JUMPDEST SWAP2 POP POP SWAP3 POP SWAP3 SWAP1 POP JUMP JUMPDEST PUSH0 DUP3 PUSH1 0x1F DUP4 ADD SLT PUSH3 0x2255 JUMPI PUSH0 DUP1 REVERT JUMPDEST PUSH3 0xA43 DUP4 DUP4 MLOAD PUSH1 0x20 DUP6 ADD PUSH3 0x21A6 JUMP JUMPDEST DUP1 MLOAD PUSH3 0x1E87 DUP2 PUSH3 0x18A0 JUMP JUMPDEST PUSH0 PUSH1 0x20 DUP3 DUP5 SUB SLT ISZERO PUSH3 0x2284 JUMPI PUSH0 DUP1 REVERT JUMPDEST DUP2 MLOAD PUSH1 0x1 PUSH1 0x1 PUSH1 0x40 SHL SUB DUP1 DUP3 GT ISZERO PUSH3 0x229B JUMPI PUSH0 DUP1 REVERT JUMPDEST SWAP1 DUP4 ADD SWAP1 PUSH1 0x80 DUP3 DUP7 SUB SLT ISZERO PUSH3 0x22AF JUMPI PUSH0 DUP1 REVERT JUMPDEST PUSH3 0x22B9 PUSH3 0x1919 JUMP JUMPDEST DUP3 MLOAD DUP3 DUP2 GT ISZERO PUSH3 0x22C8 JUMPI PUSH0 DUP1 REVERT JUMPDEST PUSH3 0x22D6 DUP8 DUP3 DUP7 ADD PUSH3 0x2245 JUMP JUMPDEST DUP3 MSTORE POP PUSH1 0x20 DUP4 ADD MLOAD DUP3 DUP2 GT ISZERO PUSH3 0x22EB JUMPI PUSH0 DUP1 REVERT JUMPDEST PUSH3 0x22F9 DUP8 DUP3 DUP7 ADD PUSH3 0x2245 JUMP JUMPDEST PUSH1 0x20 DUP4 ADD MSTORE POP PUSH1 0x40 DUP4 ADD MLOAD DUP3 DUP2 GT ISZERO PUSH3 0x2311 JUMPI PUSH0 DUP1 REVERT JUMPDEST PUSH3 0x231F DUP8 DUP3 DUP7 ADD PUSH3 0x2245 JUMP JUMPDEST PUSH1 0x40 DUP4 ADD MSTORE POP PUSH1 0x60 DUP4 ADD MLOAD SWAP3 POP PUSH3 0x2337 DUP4 PUSH3 0x18A0 JUMP JUMPDEST PUSH1 0x60 DUP2 ADD SWAP3 SWAP1 SWAP3 MSTORE POP SWAP4 SWAP3 POP POP POP JUMP JUMPDEST PUSH0 PUSH1 0x20 DUP1 DUP4 DUP6 SUB SLT ISZERO PUSH3 0x2359 JUMPI PUSH0 DUP1 REVERT JUMPDEST DUP3 MLOAD PUSH1 0x1 PUSH1 0x1 PUSH1 0x40 SHL SUB DUP1 DUP3 GT ISZERO PUSH3 0x2370 JUMPI PUSH0 DUP1 REVERT JUMPDEST SWAP1 DUP5 ADD SWAP1 PUSH1 0x80 DUP3 DUP8 SUB SLT ISZERO PUSH3 0x2384 JUMPI PUSH0 DUP1 REVERT JUMPDEST PUSH3 0x238E PUSH3 0x1919 JUMP JUMPDEST DUP3 MLOAD PUSH3 0x239B DUP2 PUSH3 0x18A0 JUMP JUMPDEST DUP2 MSTORE DUP3 DUP5 ADD MLOAD DUP3 DUP2 GT ISZERO PUSH3 0x23AE JUMPI PUSH0 DUP1 REVERT JUMPDEST PUSH3 0x23BC DUP9 DUP3 DUP7 ADD PUSH3 0x2245 JUMP JUMPDEST DUP6 DUP4 ADD MSTORE POP PUSH1 0x40 DUP4 ADD MLOAD DUP3 DUP2 GT ISZERO PUSH3 0x23D3 JUMPI PUSH0 DUP1 REVERT JUMPDEST DUP4 ADD SWAP2 POP PUSH1 0x1F DUP3 ADD DUP8 SGT PUSH3 0x23E6 JUMPI PUSH0 DUP1 REVERT JUMPDEST DUP2 MLOAD PUSH3 0x23F7 PUSH3 0x19BB DUP3 PUSH3 0x19F2 JUMP JUMPDEST DUP2 DUP2 MSTORE PUSH1 0x5 SWAP2 SWAP1 SWAP2 SHL DUP4 ADD DUP6 ADD SWAP1 DUP6 DUP2 ADD SWAP1 DUP10 DUP4 GT ISZERO PUSH3 0x2416 JUMPI PUSH0 DUP1 REVERT JUMPDEST SWAP4 DUP7 ADD SWAP4 JUMPDEST DUP3 DUP6 LT ISZERO PUSH3 0x2441 JUMPI DUP5 MLOAD PUSH3 0x2431 DUP2 PUSH3 0x18A0 JUMP JUMPDEST DUP3 MSTORE SWAP4 DUP7 ADD SWAP4 SWAP1 DUP7 ADD SWAP1 PUSH3 0x241B JUMP JUMPDEST PUSH1 0x40 DUP5 ADD MSTORE POP PUSH3 0x2457 SWAP1 POP PUSH1 0x60 DUP5 ADD PUSH3 0x2266 JUMP JUMPDEST PUSH1 0x60 DUP3 ADD MSTORE SWAP7 SWAP6 POP POP POP POP POP POP JUMP JUMPDEST PUSH0 PUSH1 0x60 DUP3 DUP5 SUB SLT ISZERO PUSH3 0x2477 JUMPI PUSH0 DUP1 REVERT JUMPDEST PUSH1 0x40 MLOAD PUSH1 0x60 DUP2 ADD DUP2 DUP2 LT PUSH1 0x1 PUSH1 0x1 PUSH1 0x40 SHL SUB DUP3 GT OR ISZERO PUSH3 0x249C JUMPI PUSH3 0x249C PUSH3 0x18B5 JUMP JUMPDEST PUSH1 0x40 MSTORE DUP3 MLOAD PUSH3 0x24AC DUP2 PUSH3 0x18A0 JUMP JUMPDEST DUP2 MSTORE PUSH1 0x20 DUP4 DUP2 ADD MLOAD SWAP1 DUP3 ADD MSTORE PUSH1 0x40 DUP4 ADD MLOAD PUSH3 0x24C8 DUP2 PUSH3 0x18A0 JUMP JUMPDEST PUSH1 0x40 DUP3 ADD MSTORE SWAP4 SWAP3 POP POP POP JUMP JUMPDEST PUSH0 PUSH1 0x20 DUP3 DUP5 SUB SLT ISZERO PUSH3 0x24E5 JUMPI PUSH0 DUP1 REVERT JUMPDEST DUP2 MLOAD PUSH1 0x1 PUSH1 0x1 PUSH1 0x40 SHL SUB DUP1 DUP3 GT ISZERO PUSH3 0x24FC JUMPI PUSH0 DUP1 REVERT JUMPDEST SWAP1 DUP4 ADD SWAP1 PUSH1 0xA0 DUP3 DUP7 SUB SLT ISZERO PUSH3 0x2510 JUMPI PUSH0 DUP1 REVERT JUMPDEST PUSH3 0x251A PUSH3 0x18F4 JUMP JUMPDEST DUP3 MLOAD PUSH3 0x2527 DUP2 PUSH3 0x18A0 JUMP JUMPDEST DUP1 DUP3 MSTORE POP PUSH1 0x20 DUP4 ADD MLOAD PUSH1 0x20 DUP3 ADD MSTORE PUSH1 0x40 DUP4 ADD MLOAD PUSH1 0x40 DUP3 ADD MSTORE PUSH1 0x60 DUP4 ADD MLOAD DUP3 DUP2 GT ISZERO PUSH3 0x2551 JUMPI PUSH0 DUP1 REVERT JUMPDEST PUSH3 0x255F DUP8 DUP3 DUP7 ADD PUSH3 0x2245 JUMP JUMPDEST PUSH1 0x60 DUP4 ADD MSTORE POP PUSH1 0x80 DUP4 ADD MLOAD SWAP3 POP PUSH3 0x2577 DUP4 PUSH3 0x18A0 JUMP JUMPDEST PUSH1 0x80 DUP2 ADD SWAP3 SWAP1 SWAP3 MSTORE POP SWAP4 SWAP3 POP POP POP JUMP JUMPDEST PUSH0 PUSH1 0x20 DUP3 DUP5 SUB SLT ISZERO PUSH3 0x2598 JUMPI PUSH0 DUP1 REVERT JUMPDEST DUP2 MLOAD PUSH1 0x1 PUSH1 0x1 PUSH1 0x40 SHL SUB DUP1 DUP3 GT ISZERO PUSH3 0x25AF JUMPI PUSH0 DUP1 REVERT JUMPDEST SWAP1 DUP4 ADD SWAP1 PUSH1 0x80 DUP3 DUP7 SUB SLT ISZERO PUSH3 0x25C3 JUMPI PUSH0 DUP1 REVERT JUMPDEST PUSH3 0x25CD PUSH3 0x1919 JUMP JUMPDEST DUP3 MLOAD PUSH3 0x25DA DUP2 PUSH3 0x18A0 JUMP JUMPDEST DUP2 MSTORE PUSH1 0x20 DUP4 DUP2 ADD MLOAD SWAP1 DUP3 ADD MSTORE PUSH1 0x40 DUP4 ADD MLOAD DUP3 DUP2 GT ISZERO PUSH3 0x2311 JUMPI PUSH0 DUP1 REVERT JUMPDEST PUSH0 PUSH1 0x80 DUP3 DUP5 SUB SLT ISZERO PUSH3 0x2609 JUMPI PUSH0 DUP1 REVERT JUMPDEST PUSH3 0x2613 PUSH3 0x1919 JUMP JUMPDEST DUP3 MLOAD PUSH3 0x2620 DUP2 PUSH3 0x18A0 JUMP JUMPDEST DUP2 MSTORE PUSH1 0x20 DUP4 DUP2 ADD MLOAD SWAP1 DUP3 ADD MSTORE PUSH1 0x40 DUP4 ADD MLOAD DUP1 ISZERO ISZERO DUP2 EQ PUSH3 0x263F JUMPI PUSH0 DUP1 REVERT JUMPDEST PUSH1 0x40 DUP3 ADD MSTORE PUSH1 0x60 DUP4 ADD MLOAD PUSH3 0x2654 DUP2 PUSH3 0x18A0 JUMP JUMPDEST PUSH1 0x60 DUP3 ADD MSTORE SWAP4 SWAP3 POP POP POP JUMP JUMPDEST PUSH1 0x1F DUP3 GT ISZERO PUSH3 0x731 JUMPI DUP1 PUSH0 MSTORE PUSH1 0x20 PUSH0 KECCAK256 PUSH1 0x1F DUP5 ADD PUSH1 0x5 SHR DUP2 ADD PUSH1 0x20 DUP6 LT ISZERO PUSH3 0x2687 JUMPI POP DUP1 JUMPDEST PUSH1 0x1F DUP5 ADD PUSH1 0x5 SHR DUP3 ADD SWAP2 POP JUMPDEST DUP2 DUP2 LT ISZERO PUSH3 0x9A6 JUMPI PUSH0 DUP2 SSTORE PUSH1 0x1 ADD PUSH3 0x2693 JUMP JUMPDEST DUP2 MLOAD PUSH1 0x1 PUSH1 0x1 PUSH1 0x40 SHL SUB DUP2 GT ISZERO PUSH3 0x26C4 JUMPI PUSH3 0x26C4 PUSH3 0x18B5 JUMP JUMPDEST PUSH3 0x26DC DUP2 PUSH3 0x26D5 DUP5 SLOAD PUSH3 0x1D6A JUMP JUMPDEST DUP5 PUSH3 0x2660 JUMP JUMPDEST PUSH1 0x20 DUP1 PUSH1 0x1F DUP4 GT PUSH1 0x1 DUP2 EQ PUSH3 0x2712 JUMPI PUSH0 DUP5 ISZERO PUSH3 0x26FA JUMPI POP DUP6 DUP4 ADD MLOAD JUMPDEST PUSH0 NOT PUSH1 0x3 DUP7 SWAP1 SHL SHR NOT AND PUSH1 0x1 DUP6 SWAP1 SHL OR DUP6 SSTORE PUSH3 0x276C JUMP JUMPDEST PUSH0 DUP6 DUP2 MSTORE PUSH1 0x20 DUP2 KECCAK256 PUSH1 0x1F NOT DUP7 AND SWAP2 JUMPDEST DUP3 DUP2 LT ISZERO PUSH3 0x2742 JUMPI DUP9 DUP7 ADD MLOAD DUP3 SSTORE SWAP5 DUP5 ADD SWAP5 PUSH1 0x1 SWAP1 SWAP2 ADD SWAP1 DUP5 ADD PUSH3 0x2721 JUMP JUMPDEST POP DUP6 DUP3 LT ISZERO PUSH3 0x2760 JUMPI DUP8 DUP6 ADD MLOAD PUSH0 NOT PUSH1 0x3 DUP9 SWAP1 SHL PUSH1 0xF8 AND SHR NOT AND DUP2 SSTORE JUMPDEST POP POP PUSH1 0x1 DUP5 PUSH1 0x1 SHL ADD DUP6 SSTORE JUMPDEST POP POP POP POP POP POP JUMP INVALID PUSH1 0x80 PUSH1 0x40 MSTORE CALLVALUE DUP1 ISZERO PUSH2 0xF JUMPI PUSH0 DUP1 REVERT JUMPDEST POP CALLER DUP1 PUSH2 0x35 JUMPI PUSH1 0x40 MLOAD PUSH4 0x1E4FBDF7 PUSH1 0xE0 SHL DUP2 MSTORE PUSH0 PUSH1 0x4 DUP3 ADD MSTORE PUSH1 0x24 ADD PUSH1 0x40 MLOAD DUP1 SWAP2 SUB SWAP1 REVERT JUMPDEST PUSH2 0x3E DUP2 PUSH2 0x44 JUMP JUMPDEST POP PUSH2 0x93 JUMP JUMPDEST PUSH0 DUP1 SLOAD PUSH1 0x1 PUSH1 0x1 PUSH1 0xA0 SHL SUB DUP4 DUP2 AND PUSH1 0x1 PUSH1 0x1 PUSH1 0xA0 SHL SUB NOT DUP4 AND DUP2 OR DUP5 SSTORE PUSH1 0x40 MLOAD SWAP2 SWAP1 SWAP3 AND SWAP3 DUP4 SWAP2 PUSH32 0x8BE0079C531659141344CD1FD0A4F28419497F9722A3DAAFE3B4186F6B6457E0 SWAP2 SWAP1 LOG3 POP POP JUMP JUMPDEST PUSH2 0x2595 DUP1 PUSH3 0xA1 PUSH0 CODECOPY PUSH0 RETURN INVALID PUSH1 0x80 PUSH1 0x40 MSTORE CALLVALUE DUP1 ISZERO PUSH2 0xF JUMPI PUSH0 DUP1 REVERT JUMPDEST POP PUSH1 0x4 CALLDATASIZE LT PUSH2 0x187 JUMPI PUSH0 CALLDATALOAD PUSH1 0xE0 SHR DUP1 PUSH4 0x91D14854 GT PUSH2 0xD9 JUMPI DUP1 PUSH4 0xB733E78A GT PUSH2 0x93 JUMPI DUP1 PUSH4 0xD2FAD2EC GT PUSH2 0x6E JUMPI DUP1 PUSH4 0xD2FAD2EC EQ PUSH2 0x399 JUMPI DUP1 PUSH4 0xD547741F EQ PUSH2 0x3BB JUMPI DUP1 PUSH4 0xE67B932C EQ PUSH2 0x3CE JUMPI DUP1 PUSH4 0xF2FDE38B EQ PUSH2 0x3F1 JUMPI PUSH0 DUP1 REVERT JUMPDEST DUP1 PUSH4 0xB733E78A EQ PUSH2 0x34B JUMPI DUP1 PUSH4 0xBDFCF4E8 EQ PUSH2 0x35E JUMPI DUP1 PUSH4 0xD2154A14 EQ PUSH2 0x371 JUMPI PUSH0 DUP1 REVERT JUMPDEST DUP1 PUSH4 0x91D14854 EQ PUSH2 0x2D8 JUMPI DUP1 PUSH4 0x96132521 EQ PUSH2 0x2EB JUMPI DUP1 PUSH4 0xA0557F70 EQ PUSH2 0x2F8 JUMPI DUP1 PUSH4 0xA217FDDF EQ PUSH2 0x31C JUMPI DUP1 PUSH4 0xAA3EC0A9 EQ PUSH2 0x323 JUMPI DUP1 PUSH4 0xB4118DB0 EQ PUSH2 0x338 JUMPI PUSH0 DUP1 REVERT JUMPDEST DUP1 PUSH4 0x2D82B1FA GT PUSH2 0x144 JUMPI DUP1 PUSH4 0x715018A6 GT PUSH2 0x11F JUMPI DUP1 PUSH4 0x715018A6 EQ PUSH2 0x29A JUMPI DUP1 PUSH4 0x7D836512 EQ PUSH2 0x2A2 JUMPI DUP1 PUSH4 0x8A19C8BC EQ PUSH2 0x2B5 JUMPI DUP1 PUSH4 0x8DA5CB5B EQ PUSH2 0x2BE JUMPI PUSH0 DUP1 REVERT JUMPDEST DUP1 PUSH4 0x2D82B1FA EQ PUSH2 0x245 JUMPI DUP1 PUSH4 0x2F2FF15D EQ PUSH2 0x274 JUMPI DUP1 PUSH4 0x36568ABE EQ PUSH2 0x287 JUMPI PUSH0 DUP1 REVERT JUMPDEST DUP1 PUSH4 0x1FFC9A7 EQ PUSH2 0x18B JUMPI DUP1 PUSH4 0x63FF530 EQ PUSH2 0x1B3 JUMPI DUP1 PUSH4 0x9E60FC9 EQ PUSH2 0x1CA JUMPI DUP1 PUSH4 0x1A1EB303 EQ PUSH2 0x1DF JUMPI DUP1 PUSH4 0x1DBA015C EQ PUSH2 0x1FF JUMPI DUP1 PUSH4 0x248A9CA3 EQ PUSH2 0x214 JUMPI JUMPDEST PUSH0 DUP1 REVERT JUMPDEST PUSH2 0x19E PUSH2 0x199 CALLDATASIZE PUSH1 0x4 PUSH2 0x1C60 JUMP JUMPDEST PUSH2 0x404 JUMP JUMPDEST PUSH1 0x40 MLOAD SWAP1 ISZERO ISZERO DUP2 MSTORE PUSH1 0x20 ADD JUMPDEST PUSH1 0x40 MLOAD DUP1 SWAP2 SUB SWAP1 RETURN JUMPDEST PUSH2 0x1BB PUSH2 0x43A JUMP JUMPDEST PUSH1 0x40 MLOAD PUSH2 0x1AA SWAP4 SWAP3 SWAP2 SWAP1 PUSH2 0x1CCA JUMP JUMPDEST PUSH2 0x1D2 PUSH2 0x4E7 JUMP JUMPDEST PUSH1 0x40 MLOAD PUSH2 0x1AA SWAP2 SWAP1 PUSH2 0x1D28 JUMP JUMPDEST PUSH2 0x1F2 PUSH2 0x1ED CALLDATASIZE PUSH1 0x4 PUSH2 0x1E21 JUMP JUMPDEST PUSH2 0x756 JUMP JUMPDEST PUSH1 0x40 MLOAD PUSH2 0x1AA SWAP2 SWAP1 PUSH2 0x1E6C JUMP JUMPDEST PUSH2 0x212 PUSH2 0x20D CALLDATASIZE PUSH1 0x4 PUSH2 0x1F1B JUMP JUMPDEST PUSH2 0x934 JUMP JUMPDEST STOP JUMPDEST PUSH2 0x237 PUSH2 0x222 CALLDATASIZE PUSH1 0x4 PUSH2 0x1E21 JUMP JUMPDEST PUSH0 SWAP1 DUP2 MSTORE PUSH1 0x1 PUSH1 0x20 DUP2 SWAP1 MSTORE PUSH1 0x40 SWAP1 SWAP2 KECCAK256 ADD SLOAD SWAP1 JUMP JUMPDEST PUSH1 0x40 MLOAD SWAP1 DUP2 MSTORE PUSH1 0x20 ADD PUSH2 0x1AA JUMP JUMPDEST PUSH2 0x237 PUSH2 0x253 CALLDATASIZE PUSH1 0x4 PUSH2 0x1E21 JUMP JUMPDEST PUSH1 0x4 SLOAD PUSH0 SWAP1 DUP2 MSTORE PUSH1 0x8 PUSH1 0x20 SWAP1 DUP2 MSTORE PUSH1 0x40 DUP1 DUP4 KECCAK256 SWAP4 DUP4 MSTORE SWAP3 SWAP1 MSTORE KECCAK256 PUSH1 0x3 ADD SLOAD SWAP1 JUMP JUMPDEST PUSH2 0x212 PUSH2 0x282 CALLDATASIZE PUSH1 0x4 PUSH2 0x1F5A JUMP JUMPDEST PUSH2 0xA12 JUMP JUMPDEST PUSH2 0x212 PUSH2 0x295 CALLDATASIZE PUSH1 0x4 PUSH2 0x1F5A JUMP JUMPDEST PUSH2 0xA3D JUMP JUMPDEST PUSH2 0x212 PUSH2 0xA75 JUMP JUMPDEST PUSH2 0x212 PUSH2 0x2B0 CALLDATASIZE PUSH1 0x4 PUSH2 0x2035 JUMP JUMPDEST PUSH2 0xA88 JUMP JUMPDEST PUSH2 0x237 PUSH1 0x4 SLOAD DUP2 JUMP JUMPDEST PUSH0 SLOAD PUSH1 0x40 MLOAD PUSH1 0x1 PUSH1 0x1 PUSH1 0xA0 SHL SUB SWAP1 SWAP2 AND DUP2 MSTORE PUSH1 0x20 ADD PUSH2 0x1AA JUMP JUMPDEST PUSH2 0x19E PUSH2 0x2E6 CALLDATASIZE PUSH1 0x4 PUSH2 0x1F5A JUMP JUMPDEST PUSH2 0xBA4 JUMP JUMPDEST PUSH1 0x6 SLOAD PUSH2 0x19E SWAP1 PUSH1 0xFF AND DUP2 JUMP JUMPDEST PUSH2 0x30B PUSH2 0x306 CALLDATASIZE PUSH1 0x4 PUSH2 0x20B5 JUMP JUMPDEST PUSH2 0xBCE JUMP JUMPDEST PUSH1 0x40 MLOAD PUSH2 0x1AA SWAP6 SWAP5 SWAP4 SWAP3 SWAP2 SWAP1 PUSH2 0x20D5 JUMP JUMPDEST PUSH2 0x237 PUSH0 DUP2 JUMP JUMPDEST PUSH2 0x32B PUSH2 0xC94 JUMP JUMPDEST PUSH1 0x40 MLOAD PUSH2 0x1AA SWAP2 SWAP1 PUSH2 0x2114 JUMP JUMPDEST PUSH2 0x212 PUSH2 0x346 CALLDATASIZE PUSH1 0x4 PUSH2 0x2126 JUMP JUMPDEST PUSH2 0xD20 JUMP JUMPDEST PUSH2 0x212 PUSH2 0x359 CALLDATASIZE PUSH1 0x4 PUSH2 0x2170 JUMP JUMPDEST PUSH2 0xF0B JUMP JUMPDEST PUSH2 0x237 PUSH2 0x36C CALLDATASIZE PUSH1 0x4 PUSH2 0x21CD JUMP JUMPDEST PUSH2 0x10D8 JUMP JUMPDEST PUSH2 0x384 PUSH2 0x37F CALLDATASIZE PUSH1 0x4 PUSH2 0x1F5A JUMP JUMPDEST PUSH2 0x1154 JUMP JUMPDEST PUSH1 0x40 DUP1 MLOAD SWAP3 DUP4 MSTORE PUSH1 0x20 DUP4 ADD SWAP2 SWAP1 SWAP2 MSTORE ADD PUSH2 0x1AA JUMP JUMPDEST PUSH2 0x3AC PUSH2 0x3A7 CALLDATASIZE PUSH1 0x4 PUSH2 0x1E21 JUMP JUMPDEST PUSH2 0x141D JUMP JUMPDEST PUSH1 0x40 MLOAD PUSH2 0x1AA SWAP4 SWAP3 SWAP2 SWAP1 PUSH2 0x229E JUMP JUMPDEST PUSH2 0x212 PUSH2 0x3C9 CALLDATASIZE PUSH1 0x4 PUSH2 0x1F5A JUMP JUMPDEST PUSH2 0x14CE JUMP JUMPDEST PUSH2 0x3E1 PUSH2 0x3DC CALLDATASIZE PUSH1 0x4 PUSH2 0x1E21 JUMP JUMPDEST PUSH2 0x14F3 JUMP JUMPDEST PUSH1 0x40 MLOAD PUSH2 0x1AA SWAP5 SWAP4 SWAP3 SWAP2 SWAP1 PUSH2 0x22CE JUMP JUMPDEST PUSH2 0x212 PUSH2 0x3FF CALLDATASIZE PUSH1 0x4 PUSH2 0x2305 JUMP JUMPDEST PUSH2 0x15AA JUMP JUMPDEST PUSH0 PUSH1 0x1 PUSH1 0x1 PUSH1 0xE0 SHL SUB NOT DUP3 AND PUSH4 0x7965DB0B PUSH1 0xE0 SHL EQ DUP1 PUSH2 0x434 JUMPI POP PUSH4 0x1FFC9A7 PUSH1 0xE0 SHL PUSH1 0x1 PUSH1 0x1 PUSH1 0xE0 SHL SUB NOT DUP4 AND EQ JUMPDEST SWAP3 SWAP2 POP POP JUMP JUMPDEST PUSH1 0x60 PUSH0 DUP1 PUSH1 0x5 PUSH1 0x6 PUSH0 SWAP1 SLOAD SWAP1 PUSH2 0x100 EXP SWAP1 DIV PUSH1 0xFF AND PUSH1 0x4 SLOAD DUP3 DUP1 SLOAD PUSH2 0x45E SWAP1 PUSH2 0x231E JUMP JUMPDEST DUP1 PUSH1 0x1F ADD PUSH1 0x20 DUP1 SWAP2 DIV MUL PUSH1 0x20 ADD PUSH1 0x40 MLOAD SWAP1 DUP2 ADD PUSH1 0x40 MSTORE DUP1 SWAP3 SWAP2 SWAP1 DUP2 DUP2 MSTORE PUSH1 0x20 ADD DUP3 DUP1 SLOAD PUSH2 0x48A SWAP1 PUSH2 0x231E JUMP JUMPDEST DUP1 ISZERO PUSH2 0x4D5 JUMPI DUP1 PUSH1 0x1F LT PUSH2 0x4AC JUMPI PUSH2 0x100 DUP1 DUP4 SLOAD DIV MUL DUP4 MSTORE SWAP2 PUSH1 0x20 ADD SWAP2 PUSH2 0x4D5 JUMP JUMPDEST DUP3 ADD SWAP2 SWAP1 PUSH0 MSTORE PUSH1 0x20 PUSH0 KECCAK256 SWAP1 JUMPDEST DUP2 SLOAD DUP2 MSTORE SWAP1 PUSH1 0x1 ADD SWAP1 PUSH1 0x20 ADD DUP1 DUP4 GT PUSH2 0x4B8 JUMPI DUP3 SWAP1 SUB PUSH1 0x1F AND DUP3 ADD SWAP2 JUMPDEST POP POP POP POP POP SWAP3 POP SWAP3 POP SWAP3 POP SWAP3 POP SWAP1 SWAP2 SWAP3 JUMP JUMPDEST PUSH1 0x60 PUSH0 PUSH1 0x2 SLOAD PUSH8 0xFFFFFFFFFFFFFFFF DUP2 GT ISZERO PUSH2 0x505 JUMPI PUSH2 0x505 PUSH2 0x1F84 JUMP JUMPDEST PUSH1 0x40 MLOAD SWAP1 DUP1 DUP3 MSTORE DUP1 PUSH1 0x20 MUL PUSH1 0x20 ADD DUP3 ADD PUSH1 0x40 MSTORE DUP1 ISZERO PUSH2 0x56F JUMPI DUP2 PUSH1 0x20 ADD JUMPDEST PUSH2 0x55C PUSH1 0x40 MLOAD DUP1 PUSH1 0xA0 ADD PUSH1 0x40 MSTORE DUP1 PUSH0 DUP2 MSTORE PUSH1 0x20 ADD PUSH1 0x60 DUP2 MSTORE PUSH1 0x20 ADD PUSH1 0x60 DUP2 MSTORE PUSH1 0x20 ADD PUSH1 0x60 DUP2 MSTORE PUSH1 0x20 ADD PUSH0 PUSH1 0x1 PUSH1 0x1 PUSH1 0xA0 SHL SUB AND DUP2 MSTORE POP SWAP1 JUMP JUMPDEST DUP2 MSTORE PUSH1 0x20 ADD SWAP1 PUSH1 0x1 SWAP1 SUB SWAP1 DUP2 PUSH2 0x523 JUMPI SWAP1 POP JUMPDEST POP SWAP1 POP PUSH0 JUMPDEST PUSH1 0x2 SLOAD DUP2 LT ISZERO PUSH2 0x750 JUMPI PUSH0 DUP2 DUP2 MSTORE PUSH1 0x7 PUSH1 0x20 MSTORE PUSH1 0x40 SWAP1 KECCAK256 DUP1 SLOAD DUP4 MLOAD DUP5 SWAP1 DUP5 SWAP1 DUP2 LT PUSH2 0x5A1 JUMPI PUSH2 0x5A1 PUSH2 0x2350 JUMP JUMPDEST PUSH1 0x20 SWAP1 DUP2 MUL SWAP2 SWAP1 SWAP2 ADD ADD MLOAD MSTORE PUSH1 0x1 DUP2 ADD DUP1 SLOAD PUSH2 0x5BC SWAP1 PUSH2 0x231E JUMP JUMPDEST DUP1 PUSH1 0x1F ADD PUSH1 0x20 DUP1 SWAP2 DIV MUL PUSH1 0x20 ADD PUSH1 0x40 MLOAD SWAP1 DUP2 ADD PUSH1 0x40 MSTORE DUP1 SWAP3 SWAP2 SWAP1 DUP2 DUP2 MSTORE PUSH1 0x20 ADD DUP3 DUP1 SLOAD PUSH2 0x5E8 SWAP1 PUSH2 0x231E JUMP JUMPDEST DUP1 ISZERO PUSH2 0x633 JUMPI DUP1 PUSH1 0x1F LT PUSH2 0x60A JUMPI PUSH2 0x100 DUP1 DUP4 SLOAD DIV MUL DUP4 MSTORE SWAP2 PUSH1 0x20 ADD SWAP2 PUSH2 0x633 JUMP JUMPDEST DUP3 ADD SWAP2 SWAP1 PUSH0 MSTORE PUSH1 0x20 PUSH0 KECCAK256 SWAP1 JUMPDEST DUP2 SLOAD DUP2 MSTORE SWAP1 PUSH1 0x1 ADD SWAP1 PUSH1 0x20 ADD DUP1 DUP4 GT PUSH2 0x616 JUMPI DUP3 SWAP1 SUB PUSH1 0x1F AND DUP3 ADD SWAP2 JUMPDEST POP POP POP POP POP DUP4 DUP4 DUP2 MLOAD DUP2 LT PUSH2 0x64A JUMPI PUSH2 0x64A PUSH2 0x2350 JUMP JUMPDEST PUSH1 0x20 MUL PUSH1 0x20 ADD ADD MLOAD PUSH1 0x20 ADD DUP2 SWAP1 MSTORE POP DUP1 PUSH1 0x3 ADD DUP1 SLOAD DUP1 PUSH1 0x20 MUL PUSH1 0x20 ADD PUSH1 0x40 MLOAD SWAP1 DUP2 ADD PUSH1 0x40 MSTORE DUP1 SWAP3 SWAP2 SWAP1 DUP2 DUP2 MSTORE PUSH1 0x20 ADD DUP3 DUP1 SLOAD DUP1 ISZERO PUSH2 0x6AF JUMPI PUSH1 0x20 MUL DUP3 ADD SWAP2 SWAP1 PUSH0 MSTORE PUSH1 0x20 PUSH0 KECCAK256 SWAP1 JUMPDEST DUP2 SLOAD PUSH1 0x1 PUSH1 0x1 PUSH1 0xA0 SHL SUB AND DUP2 MSTORE PUSH1 0x1 SWAP1 SWAP2 ADD SWAP1 PUSH1 0x20 ADD DUP1 DUP4 GT PUSH2 0x691 JUMPI JUMPDEST POP POP POP POP POP DUP4 DUP4 DUP2 MLOAD DUP2 LT PUSH2 0x6C6 JUMPI PUSH2 0x6C6 PUSH2 0x2350 JUMP JUMPDEST PUSH1 0x20 MUL PUSH1 0x20 ADD ADD MLOAD PUSH1 0x40 ADD DUP2 SWAP1 MSTORE POP DUP1 PUSH1 0x2 ADD DUP1 SLOAD DUP1 PUSH1 0x20 MUL PUSH1 0x20 ADD PUSH1 0x40 MLOAD SWAP1 DUP2 ADD PUSH1 0x40 MSTORE DUP1 SWAP3 SWAP2 SWAP1 DUP2 DUP2 MSTORE PUSH1 0x20 ADD DUP3 DUP1 SLOAD DUP1 ISZERO PUSH2 0x721 JUMPI PUSH1 0x20 MUL DUP3 ADD SWAP2 SWAP1 PUSH0 MSTORE PUSH1 0x20 PUSH0 KECCAK256 SWAP1 JUMPDEST DUP2 SLOAD DUP2 MSTORE PUSH1 0x20 ADD SWAP1 PUSH1 0x1 ADD SWAP1 DUP1 DUP4 GT PUSH2 0x70D JUMPI JUMPDEST POP POP POP POP POP DUP4 DUP4 DUP2 MLOAD DUP2 LT PUSH2 0x738 JUMPI PUSH2 0x738 PUSH2 0x2350 JUMP JUMPDEST PUSH1 0x20 SWAP1 DUP2 MUL SWAP2 SWAP1 SWAP2 ADD ADD MLOAD PUSH1 0x60 ADD MSTORE POP PUSH1 0x1 ADD PUSH2 0x574 JUMP JUMPDEST POP SWAP2 SWAP1 POP JUMP JUMPDEST PUSH1 0x2 SLOAD PUSH1 0x60 SWAP1 DUP2 PUSH1 0x1 JUMPDEST DUP3 DUP2 GT PUSH2 0x92C JUMPI PUSH0 DUP2 DUP2 MSTORE PUSH1 0x7 PUSH1 0x20 SWAP1 DUP2 MSTORE PUSH1 0x40 DUP1 DUP4 KECCAK256 DUP9 DUP5 MSTORE PUSH1 0x5 ADD DUP3 MSTORE DUP1 DUP4 KECCAK256 DUP1 SLOAD DUP3 MLOAD DUP2 DUP6 MUL DUP2 ADD DUP6 ADD SWAP1 SWAP4 MSTORE DUP1 DUP4 MSTORE SWAP2 SWAP3 SWAP1 SWAP2 SWAP1 DUP4 ADD DUP3 DUP3 DUP1 ISZERO PUSH2 0x7C5 JUMPI PUSH1 0x20 MUL DUP3 ADD SWAP2 SWAP1 PUSH0 MSTORE PUSH1 0x20 PUSH0 KECCAK256 SWAP1 JUMPDEST DUP2 SLOAD DUP2 MSTORE PUSH1 0x20 ADD SWAP1 PUSH1 0x1 ADD SWAP1 DUP1 DUP4 GT PUSH2 0x7B1 JUMPI JUMPDEST POP POP POP POP POP SWAP1 POP PUSH0 JUMPDEST DUP2 MLOAD DUP2 LT ISZERO PUSH2 0x917 JUMPI PUSH0 DUP8 DUP2 MSTORE PUSH1 0x8 PUSH1 0x20 MSTORE PUSH1 0x40 DUP2 KECCAK256 DUP4 MLOAD DUP3 SWAP1 DUP6 SWAP1 DUP6 SWAP1 DUP2 LT PUSH2 0x7FA JUMPI PUSH2 0x7FA PUSH2 0x2350 JUMP JUMPDEST PUSH1 0x20 MUL PUSH1 0x20 ADD ADD MLOAD DUP2 MSTORE PUSH1 0x20 ADD SWAP1 DUP2 MSTORE PUSH1 0x20 ADD PUSH0 KECCAK256 PUSH1 0x40 MLOAD DUP1 PUSH1 0xA0 ADD PUSH1 0x40 MSTORE SWAP1 DUP2 PUSH0 DUP3 ADD SLOAD DUP2 MSTORE PUSH1 0x20 ADD PUSH1 0x1 DUP3 ADD DUP1 SLOAD PUSH2 0x833 SWAP1 PUSH2 0x231E JUMP JUMPDEST DUP1 PUSH1 0x1F ADD PUSH1 0x20 DUP1 SWAP2 DIV MUL PUSH1 0x20 ADD PUSH1 0x40 MLOAD SWAP1 DUP2 ADD PUSH1 0x40 MSTORE DUP1 SWAP3 SWAP2 SWAP1 DUP2 DUP2 MSTORE PUSH1 0x20 ADD DUP3 DUP1 SLOAD PUSH2 0x85F SWAP1 PUSH2 0x231E JUMP JUMPDEST DUP1 ISZERO PUSH2 0x8AA JUMPI DUP1 PUSH1 0x1F LT PUSH2 0x881 JUMPI PUSH2 0x100 DUP1 DUP4 SLOAD DIV MUL DUP4 MSTORE SWAP2 PUSH1 0x20 ADD SWAP2 PUSH2 0x8AA JUMP JUMPDEST DUP3 ADD SWAP2 SWAP1 PUSH0 MSTORE PUSH1 0x20 PUSH0 KECCAK256 SWAP1 JUMPDEST DUP2 SLOAD DUP2 MSTORE SWAP1 PUSH1 0x1 ADD SWAP1 PUSH1 0x20 ADD DUP1 DUP4 GT PUSH2 0x88D JUMPI DUP3 SWAP1 SUB PUSH1 0x1F AND DUP3 ADD SWAP2 JUMPDEST POP POP POP SWAP2 DUP4 MSTORE POP POP PUSH1 0x2 DUP3 DUP2 ADD SLOAD PUSH1 0xFF DUP1 DUP3 AND ISZERO ISZERO PUSH1 0x20 DUP6 ADD MSTORE PUSH1 0x40 SWAP1 SWAP4 ADD SWAP3 PUSH2 0x100 SWAP1 SWAP2 DIV AND SWAP1 DUP2 GT ISZERO PUSH2 0x8E1 JUMPI PUSH2 0x8E1 PUSH2 0x1E38 JUMP JUMPDEST PUSH1 0x2 DUP2 GT ISZERO PUSH2 0x8F2 JUMPI PUSH2 0x8F2 PUSH2 0x1E38 JUMP JUMPDEST DUP2 MSTORE PUSH1 0x20 ADD PUSH1 0x3 DUP3 ADD SLOAD DUP2 MSTORE POP POP SWAP1 POP PUSH2 0x90C DUP6 DUP3 PUSH2 0x15E7 JUMP JUMPDEST SWAP5 POP POP PUSH1 0x1 ADD PUSH2 0x7CE JUMP JUMPDEST POP POP DUP1 DUP1 PUSH2 0x924 SWAP1 PUSH2 0x2378 JUMP JUMPDEST SWAP2 POP POP PUSH2 0x760 JUMP JUMPDEST POP SWAP4 SWAP3 POP POP POP JUMP JUMPDEST PUSH2 0x93C PUSH2 0x16DB JUMP JUMPDEST DUP1 PUSH2 0x946 DUP2 PUSH2 0x1707 JUMP JUMPDEST PUSH1 0x6 SLOAD PUSH1 0xFF AND ISZERO PUSH2 0x972 JUMPI PUSH1 0x40 MLOAD PUSH3 0x461BCD PUSH1 0xE5 SHL DUP2 MSTORE PUSH1 0x4 ADD PUSH2 0x969 SWAP1 PUSH2 0x2390 JUMP JUMPDEST PUSH1 0x40 MLOAD DUP1 SWAP2 SUB SWAP1 REVERT JUMPDEST PUSH1 0x4 SLOAD PUSH0 SWAP1 DUP2 MSTORE PUSH1 0x8 PUSH1 0x20 SWAP1 DUP2 MSTORE PUSH1 0x40 DUP1 DUP4 KECCAK256 DUP8 DUP5 MSTORE SWAP1 SWAP2 MSTORE DUP2 KECCAK256 DUP1 SLOAD SWAP1 SWAP2 SUB PUSH2 0x9CF JUMPI PUSH1 0x40 MLOAD PUSH3 0x461BCD PUSH1 0xE5 SHL DUP2 MSTORE PUSH1 0x20 PUSH1 0x4 DUP3 ADD MSTORE PUSH1 0xE PUSH1 0x24 DUP3 ADD MSTORE PUSH14 0x14D95959081B9BDD08199BDD5B99 PUSH1 0x92 SHL PUSH1 0x44 DUP3 ADD MSTORE PUSH1 0x64 ADD PUSH2 0x969 JUMP JUMPDEST PUSH1 0x2 DUP2 ADD DUP1 SLOAD PUSH1 0xFF NOT AND PUSH1 0x1 OR SWAP1 SSTORE DUP4 ISZERO PUSH2 0x9F6 JUMPI PUSH1 0x6 DUP1 SLOAD PUSH1 0xFF NOT AND PUSH1 0x1 OR SWAP1 SSTORE PUSH2 0xA0B JUMP JUMPDEST PUSH1 0x4 DUP1 SLOAD SWAP1 PUSH0 PUSH2 0xA05 DUP4 PUSH2 0x2378 JUMP JUMPDEST SWAP2 SWAP1 POP SSTORE POP JUMPDEST POP POP POP POP POP JUMP JUMPDEST PUSH0 DUP3 DUP2 MSTORE PUSH1 0x1 PUSH1 0x20 DUP2 SWAP1 MSTORE PUSH1 0x40 SWAP1 SWAP2 KECCAK256 ADD SLOAD PUSH2 0xA2D DUP2 PUSH2 0x174B JUMP JUMPDEST PUSH2 0xA37 DUP4 DUP4 PUSH2 0x1755 JUMP JUMPDEST POP POP POP POP JUMP JUMPDEST PUSH1 0x1 PUSH1 0x1 PUSH1 0xA0 SHL SUB DUP2 AND CALLER EQ PUSH2 0xA66 JUMPI PUSH1 0x40 MLOAD PUSH4 0x334BD919 PUSH1 0xE1 SHL DUP2 MSTORE PUSH1 0x4 ADD PUSH1 0x40 MLOAD DUP1 SWAP2 SUB SWAP1 REVERT JUMPDEST PUSH2 0xA70 DUP3 DUP3 PUSH2 0x17CB JUMP JUMPDEST POP POP POP JUMP JUMPDEST PUSH2 0xA7D PUSH2 0x16DB JUMP JUMPDEST PUSH2 0xA86 PUSH0 PUSH2 0x1836 JUMP JUMPDEST JUMP JUMPDEST PUSH32 0xF0C57E16840DF040F15088DC2F81FE391C3923BEC73E23A9662EFC9C229C6A00 DUP1 SLOAD PUSH1 0x1 PUSH1 0x40 SHL DUP2 DIV PUSH1 0xFF AND ISZERO SWAP1 PUSH8 0xFFFFFFFFFFFFFFFF AND PUSH0 DUP2 ISZERO DUP1 ISZERO PUSH2 0xACD JUMPI POP DUP3 JUMPDEST SWAP1 POP PUSH0 DUP3 PUSH8 0xFFFFFFFFFFFFFFFF AND PUSH1 0x1 EQ DUP1 ISZERO PUSH2 0xAE9 JUMPI POP ADDRESS EXTCODESIZE ISZERO JUMPDEST SWAP1 POP DUP2 ISZERO DUP1 ISZERO PUSH2 0xAF7 JUMPI POP DUP1 ISZERO JUMPDEST ISZERO PUSH2 0xB15 JUMPI PUSH1 0x40 MLOAD PUSH4 0xF92EE8A9 PUSH1 0xE0 SHL DUP2 MSTORE PUSH1 0x4 ADD PUSH1 0x40 MLOAD DUP1 SWAP2 SUB SWAP1 REVERT JUMPDEST DUP5 SLOAD PUSH8 0xFFFFFFFFFFFFFFFF NOT AND PUSH1 0x1 OR DUP6 SSTORE DUP4 ISZERO PUSH2 0xB3F JUMPI DUP5 SLOAD PUSH1 0xFF PUSH1 0x40 SHL NOT AND PUSH1 0x1 PUSH1 0x40 SHL OR DUP6 SSTORE JUMPDEST PUSH2 0xB4A DUP10 DUP10 DUP9 PUSH2 0x1885 JUMP JUMPDEST PUSH2 0xB53 DUP8 PUSH2 0x15AA JUMP JUMPDEST DUP4 ISZERO PUSH2 0xB99 JUMPI DUP5 SLOAD PUSH1 0xFF PUSH1 0x40 SHL NOT AND DUP6 SSTORE PUSH1 0x40 MLOAD PUSH1 0x1 DUP2 MSTORE PUSH32 0xC7F505B2F371AE2175EE4913F4499E1F2633A7B5936321EED1CDAEB6115181D2 SWAP1 PUSH1 0x20 ADD PUSH1 0x40 MLOAD DUP1 SWAP2 SUB SWAP1 LOG1 JUMPDEST POP POP POP POP POP POP POP POP POP JUMP JUMPDEST PUSH0 SWAP2 DUP3 MSTORE PUSH1 0x1 PUSH1 0x20 SWAP1 DUP2 MSTORE PUSH1 0x40 DUP1 DUP5 KECCAK256 PUSH1 0x1 PUSH1 0x1 PUSH1 0xA0 SHL SUB SWAP4 SWAP1 SWAP4 AND DUP5 MSTORE SWAP2 SWAP1 MSTORE SWAP1 KECCAK256 SLOAD PUSH1 0xFF AND SWAP1 JUMP JUMPDEST PUSH1 0x8 PUSH1 0x20 SWAP1 DUP2 MSTORE PUSH0 SWAP3 DUP4 MSTORE PUSH1 0x40 DUP1 DUP5 KECCAK256 SWAP1 SWAP2 MSTORE SWAP1 DUP3 MSTORE SWAP1 KECCAK256 DUP1 SLOAD PUSH1 0x1 DUP3 ADD DUP1 SLOAD SWAP2 SWAP3 SWAP2 PUSH2 0xBFA SWAP1 PUSH2 0x231E JUMP JUMPDEST DUP1 PUSH1 0x1F ADD PUSH1 0x20 DUP1 SWAP2 DIV MUL PUSH1 0x20 ADD PUSH1 0x40 MLOAD SWAP1 DUP2 ADD PUSH1 0x40 MSTORE DUP1 SWAP3 SWAP2 SWAP1 DUP2 DUP2 MSTORE PUSH1 0x20 ADD DUP3 DUP1 SLOAD PUSH2 0xC26 SWAP1 PUSH2 0x231E JUMP JUMPDEST DUP1 ISZERO PUSH2 0xC71 JUMPI DUP1 PUSH1 0x1F LT PUSH2 0xC48 JUMPI PUSH2 0x100 DUP1 DUP4 SLOAD DIV MUL DUP4 MSTORE SWAP2 PUSH1 0x20 ADD SWAP2 PUSH2 0xC71 JUMP JUMPDEST DUP3 ADD SWAP2 SWAP1 PUSH0 MSTORE PUSH1 0x20 PUSH0 KECCAK256 SWAP1 JUMPDEST DUP2 SLOAD DUP2 MSTORE SWAP1 PUSH1 0x1 ADD SWAP1 PUSH1 0x20 ADD DUP1 DUP4 GT PUSH2 0xC54 JUMPI DUP3 SWAP1 SUB PUSH1 0x1F AND DUP3 ADD SWAP2 JUMPDEST POP POP POP POP PUSH1 0x2 DUP4 ADD SLOAD PUSH1 0x3 SWAP1 SWAP4 ADD SLOAD SWAP2 SWAP3 PUSH1 0xFF DUP1 DUP3 AND SWAP4 PUSH2 0x100 SWAP1 SWAP3 DIV AND SWAP2 POP DUP6 JUMP JUMPDEST PUSH1 0x5 DUP1 SLOAD PUSH2 0xCA1 SWAP1 PUSH2 0x231E JUMP JUMPDEST DUP1 PUSH1 0x1F ADD PUSH1 0x20 DUP1 SWAP2 DIV MUL PUSH1 0x20 ADD PUSH1 0x40 MLOAD SWAP1 DUP2 ADD PUSH1 0x40 MSTORE DUP1 SWAP3 SWAP2 SWAP1 DUP2 DUP2 MSTORE PUSH1 0x20 ADD DUP3 DUP1 SLOAD PUSH2 0xCCD SWAP1 PUSH2 0x231E JUMP JUMPDEST DUP1 ISZERO PUSH2 0xD18 JUMPI DUP1 PUSH1 0x1F LT PUSH2 0xCEF JUMPI PUSH2 0x100 DUP1 DUP4 SLOAD DIV MUL DUP4 MSTORE SWAP2 PUSH1 0x20 ADD SWAP2 PUSH2 0xD18 JUMP JUMPDEST DUP3 ADD SWAP2 SWAP1 PUSH0 MSTORE PUSH1 0x20 PUSH0 KECCAK256 SWAP1 JUMPDEST DUP2 SLOAD DUP2 MSTORE SWAP1 PUSH1 0x1 ADD SWAP1 PUSH1 0x20 ADD DUP1 DUP4 GT PUSH2 0xCFB JUMPI DUP3 SWAP1 SUB PUSH1 0x1F AND DUP3 ADD SWAP2 JUMPDEST POP POP POP POP POP DUP2 JUMP JUMPDEST PUSH2 0xD28 PUSH2 0x16DB JUMP JUMPDEST PUSH0 DUP4 DUP2 MSTORE PUSH1 0x7 PUSH1 0x20 SWAP1 DUP2 MSTORE PUSH1 0x40 SWAP2 DUP3 SWAP1 KECCAK256 PUSH1 0x3 DUP2 ADD DUP1 SLOAD DUP5 MLOAD DUP2 DUP6 MUL DUP2 ADD DUP6 ADD SWAP1 SWAP6 MSTORE DUP1 DUP6 MSTORE DUP6 SWAP5 DUP9 SWAP5 PUSH2 0xD9B SWAP4 SWAP2 SWAP3 SWAP1 DUP4 ADD DUP3 DUP3 DUP1 ISZERO PUSH2 0xD90 JUMPI PUSH1 0x20 MUL DUP3 ADD SWAP2 SWAP1 PUSH0 MSTORE PUSH1 0x20 PUSH0 KECCAK256 SWAP1 JUMPDEST DUP2 SLOAD PUSH1 0x1 PUSH1 0x1 PUSH1 0xA0 SHL SUB AND DUP2 MSTORE PUSH1 0x1 SWAP1 SWAP2 ADD SWAP1 PUSH1 0x20 ADD DUP1 DUP4 GT PUSH2 0xD72 JUMPI JUMPDEST POP POP POP POP POP DUP5 PUSH2 0x1A8D JUMP JUMPDEST DUP1 PUSH2 0xDB5 JUMPI POP PUSH1 0x4 DUP2 ADD SLOAD PUSH1 0x1 PUSH1 0x1 PUSH1 0xA0 SHL SUB DUP5 DUP2 AND SWAP2 AND EQ JUMPDEST PUSH2 0xDD1 JUMPI PUSH1 0x40 MLOAD PUSH3 0x461BCD PUSH1 0xE5 SHL DUP2 MSTORE PUSH1 0x4 ADD PUSH2 0x969 SWAP1 PUSH2 0x23BA JUMP JUMPDEST PUSH0 DUP7 DUP2 MSTORE PUSH1 0x7 PUSH1 0x20 MSTORE PUSH1 0x40 DUP2 KECCAK256 DUP1 SLOAD SWAP1 SWAP2 SUB PUSH2 0xDFF JUMPI PUSH1 0x40 MLOAD PUSH3 0x461BCD PUSH1 0xE5 SHL DUP2 MSTORE PUSH1 0x4 ADD PUSH2 0x969 SWAP1 PUSH2 0x23F1 JUMP JUMPDEST PUSH2 0xE63 DUP2 PUSH1 0x3 ADD DUP1 SLOAD DUP1 PUSH1 0x20 MUL PUSH1 0x20 ADD PUSH1 0x40 MLOAD SWAP1 DUP2 ADD PUSH1 0x40 MSTORE DUP1 SWAP3 SWAP2 SWAP1 DUP2 DUP2 MSTORE PUSH1 0x20 ADD DUP3 DUP1 SLOAD DUP1 ISZERO PUSH2 0xE58 JUMPI PUSH1 0x20 MUL DUP3 ADD SWAP2 SWAP1 PUSH0 MSTORE PUSH1 0x20 PUSH0 KECCAK256 SWAP1 JUMPDEST DUP2 SLOAD PUSH1 0x1 PUSH1 0x1 PUSH1 0xA0 SHL SUB AND DUP2 MSTORE PUSH1 0x1 SWAP1 SWAP2 ADD SWAP1 PUSH1 0x20 ADD DUP1 DUP4 GT PUSH2 0xE3A JUMPI JUMPDEST POP POP POP POP POP DUP7 PUSH2 0x1A8D JUMP JUMPDEST PUSH2 0xEA3 JUMPI PUSH1 0x40 MLOAD PUSH3 0x461BCD PUSH1 0xE5 SHL DUP2 MSTORE PUSH1 0x20 PUSH1 0x4 DUP3 ADD MSTORE PUSH1 0x11 PUSH1 0x24 DUP3 ADD MSTORE PUSH17 0x2737BA10309031B7B73A3934B13ABA37B9 PUSH1 0x79 SHL PUSH1 0x44 DUP3 ADD MSTORE PUSH1 0x64 ADD PUSH2 0x969 JUMP JUMPDEST PUSH0 PUSH1 0x3 PUSH0 DUP2 SLOAD PUSH2 0xEB2 SWAP1 PUSH2 0x2378 JUMP JUMPDEST SWAP2 DUP3 SWAP1 SSTORE POP PUSH0 DUP2 DUP2 MSTORE PUSH1 0x9 PUSH1 0x20 MSTORE PUSH1 0x40 SWAP1 KECCAK256 DUP10 DUP2 SSTORE PUSH1 0x1 DUP2 ADD DUP3 SWAP1 SSTORE SWAP1 SWAP2 POP PUSH1 0x2 DUP2 ADD PUSH2 0xEDF DUP10 DUP3 PUSH2 0x2461 JUMP JUMPDEST POP PUSH1 0x3 ADD DUP1 SLOAD PUSH1 0x1 PUSH1 0x1 PUSH1 0xA0 SHL SUB NOT AND PUSH1 0x1 PUSH1 0x1 PUSH1 0xA0 SHL SUB SWAP8 SWAP1 SWAP8 AND SWAP7 SWAP1 SWAP7 OR SWAP1 SWAP6 SSTORE POP POP POP POP POP POP POP JUMP JUMPDEST PUSH2 0xF13 PUSH2 0x16DB JUMP JUMPDEST PUSH0 DUP5 DUP2 MSTORE PUSH1 0x7 PUSH1 0x20 SWAP1 DUP2 MSTORE PUSH1 0x40 SWAP2 DUP3 SWAP1 KECCAK256 PUSH1 0x3 DUP2 ADD DUP1 SLOAD DUP5 MLOAD DUP2 DUP6 MUL DUP2 ADD DUP6 ADD SWAP1 SWAP6 MSTORE DUP1 DUP6 MSTORE DUP6 SWAP5 DUP10 SWAP5 PUSH2 0xF84 SWAP4 SWAP2 SWAP3 SWAP1 DUP4 ADD DUP3 DUP3 DUP1 ISZERO PUSH2 0xD90 JUMPI PUSH1 0x20 MUL DUP3 ADD SWAP2 SWAP1 PUSH0 MSTORE PUSH1 0x20 PUSH0 KECCAK256 SWAP1 DUP2 SLOAD PUSH1 0x1 PUSH1 0x1 PUSH1 0xA0 SHL SUB AND DUP2 MSTORE PUSH1 0x1 SWAP1 SWAP2 ADD SWAP1 PUSH1 0x20 ADD DUP1 DUP4 GT PUSH2 0xD72 JUMPI POP POP POP POP POP DUP5 PUSH2 0x1A8D JUMP JUMPDEST DUP1 PUSH2 0xF9E JUMPI POP PUSH1 0x4 DUP2 ADD SLOAD PUSH1 0x1 PUSH1 0x1 PUSH1 0xA0 SHL SUB DUP5 DUP2 AND SWAP2 AND EQ JUMPDEST PUSH2 0xFBA JUMPI PUSH1 0x40 MLOAD PUSH3 0x461BCD PUSH1 0xE5 SHL DUP2 MSTORE PUSH1 0x4 ADD PUSH2 0x969 SWAP1 PUSH2 0x23BA JUMP JUMPDEST PUSH1 0x6 SLOAD PUSH1 0xFF AND ISZERO PUSH2 0xFDD JUMPI PUSH1 0x40 MLOAD PUSH3 0x461BCD PUSH1 0xE5 SHL DUP2 MSTORE PUSH1 0x4 ADD PUSH2 0x969 SWAP1 PUSH2 0x2390 JUMP JUMPDEST PUSH0 DUP8 DUP2 MSTORE PUSH1 0x7 PUSH1 0x20 MSTORE PUSH1 0x40 DUP2 KECCAK256 DUP1 SLOAD SWAP1 SWAP2 SUB PUSH2 0x100B JUMPI PUSH1 0x40 MLOAD PUSH3 0x461BCD PUSH1 0xE5 SHL DUP2 MSTORE PUSH1 0x4 ADD PUSH2 0x969 SWAP1 PUSH2 0x23F1 JUMP JUMPDEST PUSH1 0x4 SLOAD PUSH0 SWAP1 DUP2 MSTORE PUSH1 0x8 PUSH1 0x20 SWAP1 DUP2 MSTORE PUSH1 0x40 DUP1 DUP4 KECCAK256 DUP11 DUP5 MSTORE SWAP1 SWAP2 MSTORE DUP2 KECCAK256 DUP1 SLOAD SWAP1 SWAP2 SUB PUSH2 0x1068 JUMPI PUSH1 0x40 MLOAD PUSH3 0x461BCD PUSH1 0xE5 SHL DUP2 MSTORE PUSH1 0x20 PUSH1 0x4 DUP3 ADD MSTORE PUSH1 0xE PUSH1 0x24 DUP3 ADD MSTORE PUSH14 0x14D95959081B9BDD08199BDD5B99 PUSH1 0x92 SHL PUSH1 0x44 DUP3 ADD MSTORE PUSH1 0x64 ADD PUSH2 0x969 JUMP JUMPDEST PUSH1 0x3 DUP2 ADD SLOAD DUP3 SLOAD EQ PUSH2 0x10AF JUMPI PUSH1 0x40 MLOAD PUSH3 0x461BCD PUSH1 0xE5 SHL DUP2 MSTORE PUSH1 0x20 PUSH1 0x4 DUP3 ADD MSTORE PUSH1 0x10 PUSH1 0x24 DUP3 ADD MSTORE PUSH16 0x92DCECC2D8D2C840E6CACAC840C4DEF PUSH1 0x83 SHL PUSH1 0x44 DUP3 ADD MSTORE PUSH1 0x64 ADD PUSH2 0x969 JUMP JUMPDEST PUSH1 0x1 DUP2 ADD PUSH2 0x10BD DUP9 DUP3 PUSH2 0x2461 JUMP JUMPDEST POP PUSH1 0x2 ADD DUP1 SLOAD PUSH2 0xFF00 NOT AND PUSH2 0x100 OR SWAP1 SSTORE POP POP POP POP POP POP POP POP JUMP JUMPDEST PUSH0 PUSH2 0x10E1 PUSH2 0x16DB JUMP JUMPDEST PUSH0 PUSH1 0x2 PUSH0 DUP2 SLOAD PUSH2 0x10F0 SWAP1 PUSH2 0x2378 JUMP JUMPDEST SWAP2 DUP3 SWAP1 SSTORE POP PUSH0 DUP2 DUP2 MSTORE PUSH1 0x7 PUSH1 0x20 MSTORE PUSH1 0x40 SWAP1 KECCAK256 DUP2 DUP2 SSTORE SWAP1 SWAP2 POP PUSH1 0x1 DUP2 ADD PUSH2 0x1116 DUP8 DUP3 PUSH2 0x2461 JUMP JUMPDEST POP DUP5 MLOAD PUSH2 0x112C SWAP1 PUSH1 0x3 DUP4 ADD SWAP1 PUSH1 0x20 DUP9 ADD SWAP1 PUSH2 0x1BE9 JUMP JUMPDEST POP PUSH1 0x4 ADD DUP1 SLOAD PUSH1 0x1 PUSH1 0x1 PUSH1 0xA0 SHL SUB DUP6 AND PUSH1 0x1 PUSH1 0x1 PUSH1 0xA0 SHL SUB NOT SWAP1 SWAP2 AND OR SWAP1 SSTORE SWAP1 POP SWAP4 SWAP3 POP POP POP JUMP JUMPDEST PUSH0 DUP1 PUSH2 0x115E PUSH2 0x16DB JUMP JUMPDEST PUSH0 DUP5 DUP2 MSTORE PUSH1 0x7 PUSH1 0x20 SWAP1 DUP2 MSTORE PUSH1 0x40 SWAP2 DUP3 SWAP1 KECCAK256 PUSH1 0x3 DUP2 ADD DUP1 SLOAD DUP5 MLOAD DUP2 DUP6 MUL DUP2 ADD DUP6 ADD SWAP1 SWAP6 MSTORE DUP1 DUP6 MSTORE DUP8 SWAP5 DUP10 SWAP5 PUSH2 0x11CF SWAP4 SWAP2 SWAP3 SWAP1 DUP4 ADD DUP3 DUP3 DUP1 ISZERO PUSH2 0xD90 JUMPI PUSH1 0x20 MUL DUP3 ADD SWAP2 SWAP1 PUSH0 MSTORE PUSH1 0x20 PUSH0 KECCAK256 SWAP1 DUP2 SLOAD PUSH1 0x1 PUSH1 0x1 PUSH1 0xA0 SHL SUB AND DUP2 MSTORE PUSH1 0x1 SWAP1 SWAP2 ADD SWAP1 PUSH1 0x20 ADD DUP1 DUP4 GT PUSH2 0xD72 JUMPI POP POP POP POP POP DUP5 PUSH2 0x1A8D JUMP JUMPDEST DUP1 PUSH2 0x11E9 JUMPI POP PUSH1 0x4 DUP2 ADD SLOAD PUSH1 0x1 PUSH1 0x1 PUSH1 0xA0 SHL SUB DUP5 DUP2 AND SWAP2 AND EQ JUMPDEST PUSH2 0x1205 JUMPI PUSH1 0x40 MLOAD PUSH3 0x461BCD PUSH1 0xE5 SHL DUP2 MSTORE PUSH1 0x4 ADD PUSH2 0x969 SWAP1 PUSH2 0x23BA JUMP JUMPDEST PUSH1 0x6 SLOAD PUSH1 0xFF AND ISZERO PUSH2 0x1228 JUMPI PUSH1 0x40 MLOAD PUSH3 0x461BCD PUSH1 0xE5 SHL DUP2 MSTORE PUSH1 0x4 ADD PUSH2 0x969 SWAP1 PUSH2 0x2390 JUMP JUMPDEST PUSH0 DUP8 DUP2 MSTORE PUSH1 0x7 PUSH1 0x20 MSTORE PUSH1 0x40 DUP2 KECCAK256 DUP1 SLOAD SWAP1 SWAP2 SUB PUSH2 0x1256 JUMPI PUSH1 0x40 MLOAD PUSH3 0x461BCD PUSH1 0xE5 SHL DUP2 MSTORE PUSH1 0x4 ADD PUSH2 0x969 SWAP1 PUSH2 0x23F1 JUMP JUMPDEST PUSH0 PUSH1 0x4 SLOAD DUP10 PUSH1 0x40 MLOAD PUSH1 0x20 ADD PUSH2 0x1275 SWAP3 SWAP2 SWAP1 SWAP2 DUP3 MSTORE PUSH1 0x20 DUP3 ADD MSTORE PUSH1 0x40 ADD SWAP1 JUMP JUMPDEST PUSH1 0x40 DUP1 MLOAD PUSH1 0x1F NOT DUP2 DUP5 SUB ADD DUP2 MSTORE SWAP2 DUP2 MSTORE DUP2 MLOAD PUSH1 0x20 SWAP3 DUP4 ADD KECCAK256 PUSH1 0x4 SLOAD PUSH0 SWAP1 DUP2 MSTORE PUSH1 0x8 DUP5 MSTORE DUP3 DUP2 KECCAK256 DUP3 DUP3 MSTORE SWAP1 SWAP4 MSTORE SWAP2 KECCAK256 SLOAD SWAP1 SWAP2 POP ISZERO DUP1 ISZERO PUSH2 0x12B2 JUMPI POP PUSH1 0x1 JUMPDEST PUSH2 0x1315 JUMPI PUSH1 0x40 MLOAD PUSH3 0x461BCD PUSH1 0xE5 SHL DUP2 MSTORE PUSH1 0x20 PUSH1 0x4 DUP3 ADD MSTORE PUSH1 0x2E PUSH1 0x24 DUP3 ADD MSTORE PUSH32 0x5365656420696E76616C6964206F7220616C726561647920706C616E74656420 PUSH1 0x44 DUP3 ADD MSTORE PUSH14 0x199BDC881D1A1A5CC81C9BDD5B99 PUSH1 0x92 SHL PUSH1 0x64 DUP3 ADD MSTORE PUSH1 0x84 ADD PUSH2 0x969 JUMP JUMPDEST PUSH1 0x4 SLOAD PUSH0 SWAP1 DUP2 MSTORE PUSH1 0x8 PUSH1 0x20 SWAP1 DUP2 MSTORE PUSH1 0x40 DUP1 DUP4 KECCAK256 DUP5 DUP5 MSTORE DUP3 MSTORE DUP1 DUP4 KECCAK256 DUP5 DUP2 SSTORE PUSH1 0x2 DUP2 ADD DUP1 SLOAD PUSH2 0xFF00 NOT AND SWAP1 SSTORE PUSH1 0x3 DUP2 ADD DUP14 SWAP1 SSTORE DUP2 MLOAD SWAP3 DUP4 ADD SWAP1 SWAP2 MSTORE SWAP2 DUP2 MSTORE PUSH1 0x1 DUP3 ADD SWAP1 PUSH2 0x1361 SWAP1 DUP3 PUSH2 0x2461 JUMP JUMPDEST POP PUSH1 0x2 DUP1 DUP3 ADD DUP1 SLOAD PUSH1 0xFF NOT AND SWAP1 SSTORE PUSH1 0x4 SLOAD PUSH0 SWAP1 DUP2 MSTORE PUSH1 0x5 DUP6 ADD PUSH1 0x20 SWAP1 DUP2 MSTORE PUSH1 0x40 DUP1 DUP4 KECCAK256 DUP1 SLOAD PUSH1 0x1 DUP2 ADD DUP3 SSTORE SWAP1 DUP5 MSTORE SWAP3 DUP3 SWAP1 KECCAK256 SWAP1 SWAP3 ADD DUP6 SWAP1 SSTORE SWAP2 DUP6 ADD DUP1 SLOAD DUP3 MLOAD DUP2 DUP6 MUL DUP2 ADD DUP6 ADD SWAP1 SWAP4 MSTORE DUP1 DUP4 MSTORE PUSH2 0x13EB SWAP4 DUP4 ADD DUP3 DUP3 DUP1 ISZERO PUSH2 0x13DE JUMPI PUSH1 0x20 MUL DUP3 ADD SWAP2 SWAP1 PUSH0 MSTORE PUSH1 0x20 PUSH0 KECCAK256 SWAP1 JUMPDEST DUP2 SLOAD DUP2 MSTORE PUSH1 0x20 ADD SWAP1 PUSH1 0x1 ADD SWAP1 DUP1 DUP4 GT PUSH2 0x13CA JUMPI JUMPDEST POP POP POP POP POP PUSH1 0x4 SLOAD PUSH2 0x1AE6 JUMP JUMPDEST PUSH2 0x140A JUMPI PUSH1 0x4 SLOAD PUSH1 0x2 DUP5 ADD DUP1 SLOAD PUSH1 0x1 DUP2 ADD DUP3 SSTORE PUSH0 SWAP2 DUP3 MSTORE PUSH1 0x20 SWAP1 SWAP2 KECCAK256 ADD SSTORE JUMPDEST POP PUSH1 0x4 SLOAD SWAP1 SWAP10 SWAP1 SWAP9 POP SWAP7 POP POP POP POP POP POP POP JUMP JUMPDEST PUSH1 0x7 PUSH1 0x20 MSTORE PUSH0 SWAP1 DUP2 MSTORE PUSH1 0x40 SWAP1 KECCAK256 DUP1 SLOAD PUSH1 0x1 DUP3 ADD DUP1 SLOAD SWAP2 SWAP3 SWAP2 PUSH2 0x143E SWAP1 PUSH2 0x231E JUMP JUMPDEST DUP1 PUSH1 0x1F ADD PUSH1 0x20 DUP1 SWAP2 DIV MUL PUSH1 0x20 ADD PUSH1 0x40 MLOAD SWAP1 DUP2 ADD PUSH1 0x40 MSTORE DUP1 SWAP3 SWAP2 SWAP1 DUP2 DUP2 MSTORE PUSH1 0x20 ADD DUP3 DUP1 SLOAD PUSH2 0x146A SWAP1 PUSH2 0x231E JUMP JUMPDEST DUP1 ISZERO PUSH2 0x14B5 JUMPI DUP1 PUSH1 0x1F LT PUSH2 0x148C JUMPI PUSH2 0x100 DUP1 DUP4 SLOAD DIV MUL DUP4 MSTORE SWAP2 PUSH1 0x20 ADD SWAP2 PUSH2 0x14B5 JUMP JUMPDEST DUP3 ADD SWAP2 SWAP1 PUSH0 MSTORE PUSH1 0x20 PUSH0 KECCAK256 SWAP1 JUMPDEST DUP2 SLOAD DUP2 MSTORE SWAP1 PUSH1 0x1 ADD SWAP1 PUSH1 0x20 ADD DUP1 DUP4 GT PUSH2 0x1498 JUMPI DUP3 SWAP1 SUB PUSH1 0x1F AND DUP3 ADD SWAP2 JUMPDEST POP POP POP PUSH1 0x4 SWAP1 SWAP4 ADD SLOAD SWAP2 SWAP3 POP POP PUSH1 0x1 PUSH1 0x1 PUSH1 0xA0 SHL SUB AND DUP4 JUMP JUMPDEST PUSH0 DUP3 DUP2 MSTORE PUSH1 0x1 PUSH1 0x20 DUP2 SWAP1 MSTORE PUSH1 0x40 SWAP1 SWAP2 KECCAK256 ADD SLOAD PUSH2 0x14E9 DUP2 PUSH2 0x174B JUMP JUMPDEST PUSH2 0xA37 DUP4 DUP4 PUSH2 0x17CB JUMP JUMPDEST PUSH1 0x9 PUSH1 0x20 MSTORE PUSH0 SWAP1 DUP2 MSTORE PUSH1 0x40 SWAP1 KECCAK256 DUP1 SLOAD PUSH1 0x1 DUP3 ADD SLOAD PUSH1 0x2 DUP4 ADD DUP1 SLOAD SWAP3 SWAP4 SWAP2 SWAP3 PUSH2 0x151A SWAP1 PUSH2 0x231E JUMP JUMPDEST DUP1 PUSH1 0x1F ADD PUSH1 0x20 DUP1 SWAP2 DIV MUL PUSH1 0x20 ADD PUSH1 0x40 MLOAD SWAP1 DUP2 ADD PUSH1 0x40 MSTORE DUP1 SWAP3 SWAP2 SWAP1 DUP2 DUP2 MSTORE PUSH1 0x20 ADD DUP3 DUP1 SLOAD PUSH2 0x1546 SWAP1 PUSH2 0x231E JUMP JUMPDEST DUP1 ISZERO PUSH2 0x1591 JUMPI DUP1 PUSH1 0x1F LT PUSH2 0x1568 JUMPI PUSH2 0x100 DUP1 DUP4 SLOAD DIV MUL DUP4 MSTORE SWAP2 PUSH1 0x20 ADD SWAP2 PUSH2 0x1591 JUMP JUMPDEST DUP3 ADD SWAP2 SWAP1 PUSH0 MSTORE PUSH1 0x20 PUSH0 KECCAK256 SWAP1 JUMPDEST DUP2 SLOAD DUP2 MSTORE SWAP1 PUSH1 0x1 ADD SWAP1 PUSH1 0x20 ADD DUP1 DUP4 GT PUSH2 0x1574 JUMPI DUP3 SWAP1 SUB PUSH1 0x1F AND DUP3 ADD SWAP2 JUMPDEST POP POP POP PUSH1 0x3 SWAP1 SWAP4 ADD SLOAD SWAP2 SWAP3 POP POP PUSH1 0x1 PUSH1 0x1 PUSH1 0xA0 SHL SUB AND DUP5 JUMP JUMPDEST PUSH2 0x15B2 PUSH2 0x16DB JUMP JUMPDEST PUSH1 0x1 PUSH1 0x1 PUSH1 0xA0 SHL SUB DUP2 AND PUSH2 0x15DB JUMPI PUSH1 0x40 MLOAD PUSH4 0x1E4FBDF7 PUSH1 0xE0 SHL DUP2 MSTORE PUSH0 PUSH1 0x4 DUP3 ADD MSTORE PUSH1 0x24 ADD PUSH2 0x969 JUMP JUMPDEST PUSH2 0x15E4 DUP2 PUSH2 0x1836 JUMP JUMPDEST POP JUMP JUMPDEST PUSH1 0x60 PUSH0 DUP4 MLOAD PUSH1 0x1 PUSH2 0x15F8 SWAP2 SWAP1 PUSH2 0x2521 JUMP JUMPDEST PUSH8 0xFFFFFFFFFFFFFFFF DUP2 GT ISZERO PUSH2 0x1610 JUMPI PUSH2 0x1610 PUSH2 0x1F84 JUMP JUMPDEST PUSH1 0x40 MLOAD SWAP1 DUP1 DUP3 MSTORE DUP1 PUSH1 0x20 MUL PUSH1 0x20 ADD DUP3 ADD PUSH1 0x40 MSTORE DUP1 ISZERO PUSH2 0x1667 JUMPI DUP2 PUSH1 0x20 ADD JUMPDEST PUSH1 0x40 DUP1 MLOAD PUSH1 0xA0 DUP2 ADD DUP3 MSTORE PUSH0 DUP1 DUP3 MSTORE PUSH1 0x60 PUSH1 0x20 DUP1 DUP5 ADD DUP3 SWAP1 MSTORE SWAP4 DUP4 ADD DUP3 SWAP1 MSTORE DUP3 ADD DUP2 SWAP1 MSTORE PUSH1 0x80 DUP3 ADD MSTORE DUP3 MSTORE PUSH0 NOT SWAP1 SWAP3 ADD SWAP2 ADD DUP2 PUSH2 0x162E JUMPI SWAP1 POP JUMPDEST POP SWAP1 POP PUSH0 JUMPDEST DUP5 MLOAD DUP2 LT ISZERO PUSH2 0x16B4 JUMPI DUP5 DUP2 DUP2 MLOAD DUP2 LT PUSH2 0x1687 JUMPI PUSH2 0x1687 PUSH2 0x2350 JUMP JUMPDEST PUSH1 0x20 MUL PUSH1 0x20 ADD ADD MLOAD DUP3 DUP3 DUP2 MLOAD DUP2 LT PUSH2 0x16A1 JUMPI PUSH2 0x16A1 PUSH2 0x2350 JUMP JUMPDEST PUSH1 0x20 SWAP1 DUP2 MUL SWAP2 SWAP1 SWAP2 ADD ADD MSTORE PUSH1 0x1 ADD PUSH2 0x166C JUMP JUMPDEST POP DUP3 DUP2 DUP6 MLOAD DUP2 MLOAD DUP2 LT PUSH2 0x16C9 JUMPI PUSH2 0x16C9 PUSH2 0x2350 JUMP JUMPDEST PUSH1 0x20 SWAP1 DUP2 MUL SWAP2 SWAP1 SWAP2 ADD ADD MSTORE SWAP4 SWAP3 POP POP POP JUMP JUMPDEST PUSH0 SLOAD PUSH1 0x1 PUSH1 0x1 PUSH1 0xA0 SHL SUB AND CALLER EQ PUSH2 0xA86 JUMPI PUSH1 0x40 MLOAD PUSH4 0x118CDAA7 PUSH1 0xE0 SHL DUP2 MSTORE CALLER PUSH1 0x4 DUP3 ADD MSTORE PUSH1 0x24 ADD PUSH2 0x969 JUMP JUMPDEST PUSH2 0x1710 DUP2 PUSH2 0x1B24 JUMP JUMPDEST PUSH2 0x15E4 JUMPI PUSH1 0x40 MLOAD PUSH3 0x461BCD PUSH1 0xE5 SHL DUP2 MSTORE PUSH1 0x20 PUSH1 0x4 DUP3 ADD MSTORE PUSH1 0xC PUSH1 0x24 DUP3 ADD MSTORE PUSH12 0x15539055551213D492569151 PUSH1 0xA2 SHL PUSH1 0x44 DUP3 ADD MSTORE PUSH1 0x64 ADD PUSH2 0x969 JUMP JUMPDEST PUSH2 0x15E4 DUP2 CALLER PUSH2 0x1B60 JUMP JUMPDEST PUSH0 PUSH2 0x1760 DUP4 DUP4 PUSH2 0xBA4 JUMP JUMPDEST PUSH2 0x17C4 JUMPI PUSH0 DUP4 DUP2 MSTORE PUSH1 0x1 PUSH1 0x20 DUP2 DUP2 MSTORE PUSH1 0x40 DUP1 DUP5 KECCAK256 PUSH1 0x1 PUSH1 0x1 PUSH1 0xA0 SHL SUB DUP8 AND DUP1 DUP7 MSTORE SWAP3 MSTORE DUP1 DUP5 KECCAK256 DUP1 SLOAD PUSH1 0xFF NOT AND SWAP1 SWAP4 OR SWAP1 SWAP3 SSTORE SWAP1 MLOAD CALLER SWAP3 DUP7 SWAP2 PUSH32 0x2F8788117E7EFF1D82E926EC794901D17C78024A50270940304540A733656F0D SWAP2 SWAP1 LOG4 POP PUSH1 0x1 PUSH2 0x434 JUMP JUMPDEST POP PUSH0 PUSH2 0x434 JUMP JUMPDEST PUSH0 PUSH2 0x17D6 DUP4 DUP4 PUSH2 0xBA4 JUMP JUMPDEST ISZERO PUSH2 0x17C4 JUMPI PUSH0 DUP4 DUP2 MSTORE PUSH1 0x1 PUSH1 0x20 SWAP1 DUP2 MSTORE PUSH1 0x40 DUP1 DUP4 KECCAK256 PUSH1 0x1 PUSH1 0x1 PUSH1 0xA0 SHL SUB DUP7 AND DUP1 DUP6 MSTORE SWAP3 MSTORE DUP1 DUP4 KECCAK256 DUP1 SLOAD PUSH1 0xFF NOT AND SWAP1 SSTORE MLOAD CALLER SWAP3 DUP7 SWAP2 PUSH32 0xF6391F5C32D9C69D2A47EA670B442974B53935D1EDC7FD64EB21E047A839171B SWAP2 SWAP1 LOG4 POP PUSH1 0x1 PUSH2 0x434 JUMP JUMPDEST PUSH0 DUP1 SLOAD PUSH1 0x1 PUSH1 0x1 PUSH1 0xA0 SHL SUB DUP4 DUP2 AND PUSH1 0x1 PUSH1 0x1 PUSH1 0xA0 SHL SUB NOT DUP4 AND DUP2 OR DUP5 SSTORE PUSH1 0x40 MLOAD SWAP2 SWAP1 SWAP3 AND SWAP3 DUP4 SWAP2 PUSH32 0x8BE0079C531659141344CD1FD0A4F28419497F9722A3DAAFE3B4186F6B6457E0 SWAP2 SWAP1 LOG3 POP POP JUMP JUMPDEST PUSH0 PUSH1 0x2 PUSH0 DUP2 SLOAD PUSH2 0x1894 SWAP1 PUSH2 0x2378 JUMP JUMPDEST SWAP2 DUP3 SWAP1 SSTORE POP PUSH1 0x4 SLOAD PUSH0 DUP3 DUP2 MSTORE PUSH1 0x7 PUSH1 0x20 MSTORE PUSH1 0x40 SWAP1 KECCAK256 DUP3 DUP2 SSTORE SWAP2 SWAP3 POP SWAP1 PUSH1 0x1 DUP2 ADD PUSH2 0x18BE DUP7 DUP3 PUSH2 0x2461 JUMP JUMPDEST POP PUSH1 0x40 DUP1 MLOAD PUSH0 DUP2 MSTORE PUSH1 0x20 DUP2 ADD SWAP2 DUP3 SWAP1 MSTORE MLOAD PUSH2 0x18DD SWAP2 PUSH1 0x3 DUP5 ADD SWAP2 PUSH2 0x1BE9 JUMP JUMPDEST POP PUSH1 0x3 DUP2 ADD DUP1 SLOAD PUSH1 0x1 DUP2 ADD DUP3 SSTORE PUSH0 SWAP2 DUP3 MSTORE PUSH1 0x20 DUP1 DUP4 KECCAK256 SWAP1 SWAP2 ADD DUP1 SLOAD PUSH1 0x1 PUSH1 0x1 PUSH1 0xA0 SHL SUB DUP11 AND PUSH1 0x1 PUSH1 0x1 PUSH1 0xA0 SHL SUB NOT SWAP2 DUP3 AND DUP2 OR SWAP1 SWAP3 SSTORE PUSH1 0x4 DUP6 ADD DUP1 SLOAD SWAP1 SWAP2 AND SWAP1 SWAP2 OR SWAP1 SSTORE PUSH1 0x40 MLOAD ADDRESS PUSH1 0x60 SHL PUSH12 0xFFFFFFFFFFFFFFFFFFFFFFFF NOT AND SWAP2 DUP2 ADD SWAP2 SWAP1 SWAP2 MSTORE PUSH1 0x34 ADD PUSH1 0x40 MLOAD PUSH1 0x20 DUP2 DUP4 SUB SUB DUP2 MSTORE SWAP1 PUSH1 0x40 MSTORE DUP1 MLOAD SWAP1 PUSH1 0x20 ADD KECCAK256 SWAP1 POP PUSH0 ADDRESS PUSH1 0x40 MLOAD PUSH1 0x20 ADD PUSH2 0x196B SWAP2 SWAP1 PUSH2 0x2534 JUMP JUMPDEST PUSH1 0x40 MLOAD PUSH1 0x20 DUP2 DUP4 SUB SUB DUP2 MSTORE SWAP1 PUSH1 0x40 MSTORE DUP1 MLOAD SWAP1 PUSH1 0x20 ADD KECCAK256 SWAP1 POP PUSH2 0x198D DUP2 DUP10 PUSH2 0x1755 JUMP JUMPDEST POP PUSH2 0x1998 DUP3 DUP3 PUSH2 0x1B9D JUMP JUMPDEST PUSH0 PUSH1 0x4 SLOAD DUP7 PUSH1 0x40 MLOAD PUSH1 0x20 ADD PUSH2 0x19B7 SWAP3 SWAP2 SWAP1 SWAP2 DUP3 MSTORE PUSH1 0x20 DUP3 ADD MSTORE PUSH1 0x40 ADD SWAP1 JUMP JUMPDEST PUSH1 0x40 DUP1 MLOAD PUSH1 0x1F NOT DUP2 DUP5 SUB ADD DUP2 MSTORE SWAP2 DUP2 MSTORE DUP2 MLOAD PUSH1 0x20 SWAP3 DUP4 ADD KECCAK256 PUSH0 DUP9 DUP2 MSTORE PUSH1 0x8 DUP5 MSTORE DUP3 DUP2 KECCAK256 DUP3 DUP3 MSTORE SWAP1 SWAP4 MSTORE SWAP2 KECCAK256 DUP2 DUP2 SSTORE PUSH1 0x2 DUP2 ADD DUP1 SLOAD PUSH2 0xFF00 NOT AND PUSH2 0x100 OR SWAP1 SSTORE PUSH1 0x3 DUP2 ADD DUP9 SWAP1 SSTORE SWAP1 SWAP2 POP PUSH1 0x1 DUP2 ADD PUSH2 0x1A0E DUP10 DUP3 PUSH2 0x2461 JUMP JUMPDEST POP PUSH1 0x2 DUP1 DUP3 ADD DUP1 SLOAD PUSH1 0xFF NOT AND PUSH1 0x1 SWAP1 DUP2 OR SWAP1 SWAP2 SSTORE PUSH0 DUP9 DUP2 MSTORE PUSH1 0x5 DUP1 DUP10 ADD PUSH1 0x20 SWAP1 DUP2 MSTORE PUSH1 0x40 DUP4 KECCAK256 DUP1 SLOAD DUP1 DUP7 ADD DUP3 SSTORE SWAP1 DUP5 MSTORE DUP2 DUP5 KECCAK256 ADD DUP8 SWAP1 SSTORE SWAP4 DUP10 ADD DUP1 SLOAD SWAP4 DUP5 ADD DUP2 SSTORE DUP3 MSTORE SWAP3 SWAP1 KECCAK256 ADD DUP8 SWAP1 SSTORE PUSH2 0x1A62 DUP11 DUP3 PUSH2 0x2461 JUMP JUMPDEST POP PUSH1 0x6 DUP1 SLOAD PUSH1 0xFF NOT AND SWAP1 SSTORE PUSH1 0x4 DUP1 SLOAD SWAP1 PUSH0 PUSH2 0x1A7C DUP4 PUSH2 0x2378 JUMP JUMPDEST SWAP2 SWAP1 POP SSTORE POP POP POP POP POP POP POP POP POP POP POP JUMP JUMPDEST PUSH0 DUP1 JUMPDEST DUP4 MLOAD DUP2 LT ISZERO PUSH2 0x1ADD JUMPI DUP3 PUSH1 0x1 PUSH1 0x1 PUSH1 0xA0 SHL SUB AND DUP5 DUP3 DUP2 MLOAD DUP2 LT PUSH2 0x1AB5 JUMPI PUSH2 0x1AB5 PUSH2 0x2350 JUMP JUMPDEST PUSH1 0x20 MUL PUSH1 0x20 ADD ADD MLOAD PUSH1 0x1 PUSH1 0x1 PUSH1 0xA0 SHL SUB AND SUB PUSH2 0x1AD5 JUMPI PUSH1 0x1 SWAP2 POP POP PUSH2 0x434 JUMP JUMPDEST PUSH1 0x1 ADD PUSH2 0x1A90 JUMP JUMPDEST POP PUSH0 SWAP4 SWAP3 POP POP POP JUMP JUMPDEST PUSH0 DUP1 JUMPDEST DUP4 MLOAD DUP2 LT ISZERO PUSH2 0x1ADD JUMPI DUP3 DUP5 DUP3 DUP2 MLOAD DUP2 LT PUSH2 0x1B05 JUMPI PUSH2 0x1B05 PUSH2 0x2350 JUMP JUMPDEST PUSH1 0x20 MUL PUSH1 0x20 ADD ADD MLOAD SUB PUSH2 0x1B1C JUMPI PUSH1 0x1 SWAP2 POP POP PUSH2 0x434 JUMP JUMPDEST PUSH1 0x1 ADD PUSH2 0x1AE9 JUMP JUMPDEST PUSH0 DUP1 ADDRESS PUSH1 0x40 MLOAD PUSH1 0x20 ADD PUSH2 0x1B37 SWAP2 SWAP1 PUSH2 0x2534 JUMP JUMPDEST PUSH1 0x40 MLOAD PUSH1 0x20 DUP2 DUP4 SUB SUB DUP2 MSTORE SWAP1 PUSH1 0x40 MSTORE DUP1 MLOAD SWAP1 PUSH1 0x20 ADD KECCAK256 SWAP1 POP PUSH2 0x1B59 DUP2 DUP5 PUSH2 0xBA4 JUMP JUMPDEST SWAP4 SWAP3 POP POP POP JUMP JUMPDEST PUSH2 0x1B6A DUP3 DUP3 PUSH2 0xBA4 JUMP JUMPDEST PUSH2 0x1B99 JUMPI PUSH1 0x40 MLOAD PUSH4 0xE2517D3F PUSH1 0xE0 SHL DUP2 MSTORE PUSH1 0x1 PUSH1 0x1 PUSH1 0xA0 SHL SUB DUP3 AND PUSH1 0x4 DUP3 ADD MSTORE PUSH1 0x24 DUP2 ADD DUP4 SWAP1 MSTORE PUSH1 0x44 ADD PUSH2 0x969 JUMP JUMPDEST POP POP JUMP JUMPDEST PUSH0 DUP3 DUP2 MSTORE PUSH1 0x1 PUSH1 0x20 DUP2 SWAP1 MSTORE PUSH1 0x40 DUP1 DUP4 KECCAK256 SWAP1 SWAP2 ADD DUP1 SLOAD SWAP1 DUP5 SWAP1 SSTORE SWAP1 MLOAD SWAP1 SWAP2 DUP4 SWAP2 DUP4 SWAP2 DUP7 SWAP2 PUSH32 0xBD79B86FFE0AB8E8776151514217CD7CACD52C909F66475C3AF44E129F0B00FF SWAP2 SWAP1 LOG4 POP POP POP JUMP JUMPDEST DUP3 DUP1 SLOAD DUP3 DUP3 SSTORE SWAP1 PUSH0 MSTORE PUSH1 0x20 PUSH0 KECCAK256 SWAP1 DUP2 ADD SWAP3 DUP3 ISZERO PUSH2 0x1C3C JUMPI SWAP2 PUSH1 0x20 MUL DUP3 ADD JUMPDEST DUP3 DUP2 GT ISZERO PUSH2 0x1C3C JUMPI DUP3 MLOAD DUP3 SLOAD PUSH1 0x1 PUSH1 0x1 PUSH1 0xA0 SHL SUB NOT AND PUSH1 0x1 PUSH1 0x1 PUSH1 0xA0 SHL SUB SWAP1 SWAP2 AND OR DUP3 SSTORE PUSH1 0x20 SWAP1 SWAP3 ADD SWAP2 PUSH1 0x1 SWAP1 SWAP2 ADD SWAP1 PUSH2 0x1C07 JUMP JUMPDEST POP PUSH2 0x1C48 SWAP3 SWAP2 POP PUSH2 0x1C4C JUMP JUMPDEST POP SWAP1 JUMP JUMPDEST JUMPDEST DUP1 DUP3 GT ISZERO PUSH2 0x1C48 JUMPI PUSH0 DUP2 SSTORE PUSH1 0x1 ADD PUSH2 0x1C4D JUMP JUMPDEST PUSH0 PUSH1 0x20 DUP3 DUP5 SUB SLT ISZERO PUSH2 0x1C70 JUMPI PUSH0 DUP1 REVERT JUMPDEST DUP2 CALLDATALOAD PUSH1 0x1 PUSH1 0x1 PUSH1 0xE0 SHL SUB NOT DUP2 AND DUP2 EQ PUSH2 0x1B59 JUMPI PUSH0 DUP1 REVERT JUMPDEST PUSH0 DUP2 MLOAD DUP1 DUP5 MSTORE PUSH0 JUMPDEST DUP2 DUP2 LT ISZERO PUSH2 0x1CAB JUMPI PUSH1 0x20 DUP2 DUP6 ADD DUP2 ADD MLOAD DUP7 DUP4 ADD DUP3 ADD MSTORE ADD PUSH2 0x1C8F JUMP JUMPDEST POP PUSH0 PUSH1 0x20 DUP3 DUP7 ADD ADD MSTORE PUSH1 0x20 PUSH1 0x1F NOT PUSH1 0x1F DUP4 ADD AND DUP6 ADD ADD SWAP2 POP POP SWAP3 SWAP2 POP POP JUMP JUMPDEST PUSH1 0x60 DUP2 MSTORE PUSH0 PUSH2 0x1CDC PUSH1 0x60 DUP4 ADD DUP7 PUSH2 0x1C87 JUMP JUMPDEST SWAP4 ISZERO ISZERO PUSH1 0x20 DUP4 ADD MSTORE POP PUSH1 0x40 ADD MSTORE SWAP2 SWAP1 POP JUMP JUMPDEST PUSH0 DUP2 MLOAD DUP1 DUP5 MSTORE PUSH1 0x20 DUP1 DUP6 ADD SWAP5 POP PUSH1 0x20 DUP5 ADD PUSH0 JUMPDEST DUP4 DUP2 LT ISZERO PUSH2 0x1D1D JUMPI DUP2 MLOAD DUP8 MSTORE SWAP6 DUP3 ADD SWAP6 SWAP1 DUP3 ADD SWAP1 PUSH1 0x1 ADD PUSH2 0x1D01 JUMP JUMPDEST POP SWAP5 SWAP6 SWAP5 POP POP POP POP POP JUMP JUMPDEST PUSH0 PUSH1 0x20 DUP1 DUP4 ADD DUP2 DUP5 MSTORE DUP1 DUP6 MLOAD DUP1 DUP4 MSTORE PUSH1 0x40 SWAP3 POP PUSH1 0x40 DUP7 ADD SWAP2 POP PUSH1 0x40 DUP2 PUSH1 0x5 SHL DUP8 ADD ADD DUP5 DUP9 ADD PUSH0 JUMPDEST DUP4 DUP2 LT ISZERO PUSH2 0x1E13 JUMPI PUSH1 0x3F NOT DUP10 DUP5 SUB ADD DUP6 MSTORE DUP2 MLOAD PUSH1 0xA0 DUP2 MLOAD DUP6 MSTORE DUP9 DUP3 ADD MLOAD DUP2 DUP11 DUP8 ADD MSTORE PUSH2 0x1D7D DUP3 DUP8 ADD DUP3 PUSH2 0x1C87 JUMP JUMPDEST DUP4 DUP11 ADD MLOAD DUP8 DUP3 SUB DUP9 DUP13 ADD MSTORE DUP1 MLOAD DUP1 DUP4 MSTORE SWAP1 DUP13 ADD SWAP4 POP PUSH0 SWAP3 POP SWAP1 DUP12 ADD SWAP1 JUMPDEST DUP1 DUP4 LT ISZERO PUSH2 0x1DC3 JUMPI DUP4 MLOAD PUSH1 0x1 PUSH1 0x1 PUSH1 0xA0 SHL SUB AND DUP3 MSTORE SWAP3 DUP12 ADD SWAP3 PUSH1 0x1 SWAP3 SWAP1 SWAP3 ADD SWAP2 SWAP1 DUP12 ADD SWAP1 PUSH2 0x1D9A JUMP JUMPDEST POP PUSH1 0x60 SWAP3 POP DUP3 DUP5 ADD MLOAD SWAP2 POP DUP7 DUP2 SUB DUP4 DUP9 ADD MSTORE PUSH2 0x1DDF DUP2 DUP4 PUSH2 0x1CEE JUMP JUMPDEST SWAP3 POP POP POP PUSH1 0x80 DUP1 DUP4 ADD MLOAD SWAP3 POP PUSH2 0x1DFF DUP2 DUP8 ADD DUP5 PUSH1 0x1 PUSH1 0x1 PUSH1 0xA0 SHL SUB AND SWAP1 MSTORE JUMP JUMPDEST POP SWAP6 DUP9 ADD SWAP6 SWAP4 POP POP SWAP1 DUP7 ADD SWAP1 PUSH1 0x1 ADD PUSH2 0x1D4F JUMP JUMPDEST POP SWAP1 SWAP9 SWAP8 POP POP POP POP POP POP POP POP JUMP JUMPDEST PUSH0 PUSH1 0x20 DUP3 DUP5 SUB SLT ISZERO PUSH2 0x1E31 JUMPI PUSH0 DUP1 REVERT JUMPDEST POP CALLDATALOAD SWAP2 SWAP1 POP JUMP JUMPDEST PUSH4 0x4E487B71 PUSH1 0xE0 SHL PUSH0 MSTORE PUSH1 0x21 PUSH1 0x4 MSTORE PUSH1 0x24 PUSH0 REVERT JUMPDEST PUSH1 0x3 DUP2 LT PUSH2 0x1E68 JUMPI PUSH4 0x4E487B71 PUSH1 0xE0 SHL PUSH0 MSTORE PUSH1 0x21 PUSH1 0x4 MSTORE PUSH1 0x24 PUSH0 REVERT JUMPDEST SWAP1 MSTORE JUMP JUMPDEST PUSH0 PUSH1 0x20 DUP1 DUP4 ADD DUP2 DUP5 MSTORE DUP1 DUP6 MLOAD DUP1 DUP4 MSTORE PUSH1 0x40 SWAP3 POP PUSH1 0x40 DUP7 ADD SWAP2 POP PUSH1 0x40 DUP2 PUSH1 0x5 SHL DUP8 ADD ADD DUP5 DUP9 ADD PUSH0 JUMPDEST DUP4 DUP2 LT ISZERO PUSH2 0x1E13 JUMPI PUSH1 0x3F NOT DUP10 DUP5 SUB ADD DUP6 MSTORE DUP2 MLOAD PUSH1 0xA0 DUP2 MLOAD DUP6 MSTORE DUP9 DUP3 ADD MLOAD DUP2 DUP11 DUP8 ADD MSTORE PUSH2 0x1EC1 DUP3 DUP8 ADD DUP3 PUSH2 0x1C87 JUMP JUMPDEST SWAP2 POP POP DUP8 DUP3 ADD MLOAD ISZERO ISZERO DUP9 DUP7 ADD MSTORE PUSH1 0x60 DUP1 DUP4 ADD MLOAD PUSH2 0x1EE0 DUP3 DUP9 ADD DUP3 PUSH2 0x1E4C JUMP JUMPDEST POP POP PUSH1 0x80 SWAP2 DUP3 ADD MLOAD SWAP5 SWAP1 SWAP2 ADD SWAP4 SWAP1 SWAP4 MSTORE SWAP4 DUP7 ADD SWAP4 SWAP1 DUP7 ADD SWAP1 PUSH1 0x1 ADD PUSH2 0x1E93 JUMP JUMPDEST DUP1 CALLDATALOAD PUSH1 0x1 PUSH1 0x1 PUSH1 0xA0 SHL SUB DUP2 AND DUP2 EQ PUSH2 0x1F16 JUMPI PUSH0 DUP1 REVERT JUMPDEST SWAP2 SWAP1 POP JUMP JUMPDEST PUSH0 DUP1 PUSH0 PUSH1 0x60 DUP5 DUP7 SUB SLT ISZERO PUSH2 0x1F2D JUMPI PUSH0 DUP1 REVERT JUMPDEST DUP4 CALLDATALOAD SWAP3 POP PUSH1 0x20 DUP5 ADD CALLDATALOAD DUP1 ISZERO ISZERO DUP2 EQ PUSH2 0x1F43 JUMPI PUSH0 DUP1 REVERT JUMPDEST SWAP2 POP PUSH2 0x1F51 PUSH1 0x40 DUP6 ADD PUSH2 0x1F00 JUMP JUMPDEST SWAP1 POP SWAP3 POP SWAP3 POP SWAP3 JUMP JUMPDEST PUSH0 DUP1 PUSH1 0x40 DUP4 DUP6 SUB SLT ISZERO PUSH2 0x1F6B JUMPI PUSH0 DUP1 REVERT JUMPDEST DUP3 CALLDATALOAD SWAP2 POP PUSH2 0x1F7B PUSH1 0x20 DUP5 ADD PUSH2 0x1F00 JUMP JUMPDEST SWAP1 POP SWAP3 POP SWAP3 SWAP1 POP JUMP JUMPDEST PUSH4 0x4E487B71 PUSH1 0xE0 SHL PUSH0 MSTORE PUSH1 0x41 PUSH1 0x4 MSTORE PUSH1 0x24 PUSH0 REVERT JUMPDEST PUSH1 0x40 MLOAD PUSH1 0x1F DUP3 ADD PUSH1 0x1F NOT AND DUP2 ADD PUSH8 0xFFFFFFFFFFFFFFFF DUP2 GT DUP3 DUP3 LT OR ISZERO PUSH2 0x1FC1 JUMPI PUSH2 0x1FC1 PUSH2 0x1F84 JUMP JUMPDEST PUSH1 0x40 MSTORE SWAP2 SWAP1 POP JUMP JUMPDEST PUSH0 DUP3 PUSH1 0x1F DUP4 ADD SLT PUSH2 0x1FD8 JUMPI PUSH0 DUP1 REVERT JUMPDEST DUP2 CALLDATALOAD PUSH8 0xFFFFFFFFFFFFFFFF DUP2 GT ISZERO PUSH2 0x1FF2 JUMPI PUSH2 0x1FF2 PUSH2 0x1F84 JUMP JUMPDEST PUSH2 0x2005 PUSH1 0x1F DUP3 ADD PUSH1 0x1F NOT AND PUSH1 0x20 ADD PUSH2 0x1F98 JUMP JUMPDEST DUP2 DUP2 MSTORE DUP5 PUSH1 0x20 DUP4 DUP7 ADD ADD GT ISZERO PUSH2 0x2019 JUMPI PUSH0 DUP1 REVERT JUMPDEST DUP2 PUSH1 0x20 DUP6 ADD PUSH1 0x20 DUP4 ADD CALLDATACOPY PUSH0 SWAP2 DUP2 ADD PUSH1 0x20 ADD SWAP2 SWAP1 SWAP2 MSTORE SWAP4 SWAP3 POP POP POP JUMP JUMPDEST PUSH0 DUP1 PUSH0 DUP1 PUSH1 0x80 DUP6 DUP8 SUB SLT ISZERO PUSH2 0x2048 JUMPI PUSH0 DUP1 REVERT JUMPDEST PUSH2 0x2051 DUP6 PUSH2 0x1F00 JUMP JUMPDEST SWAP4 POP PUSH1 0x20 DUP6 ADD CALLDATALOAD PUSH8 0xFFFFFFFFFFFFFFFF DUP1 DUP3 GT ISZERO PUSH2 0x206D JUMPI PUSH0 DUP1 REVERT JUMPDEST PUSH2 0x2079 DUP9 DUP4 DUP10 ADD PUSH2 0x1FC9 JUMP JUMPDEST SWAP5 POP PUSH2 0x2087 PUSH1 0x40 DUP9 ADD PUSH2 0x1F00 JUMP JUMPDEST SWAP4 POP PUSH1 0x60 DUP8 ADD CALLDATALOAD SWAP2 POP DUP1 DUP3 GT ISZERO PUSH2 0x209C JUMPI PUSH0 DUP1 REVERT JUMPDEST POP PUSH2 0x20A9 DUP8 DUP3 DUP9 ADD PUSH2 0x1FC9 JUMP JUMPDEST SWAP2 POP POP SWAP3 SWAP6 SWAP2 SWAP5 POP SWAP3 POP JUMP JUMPDEST PUSH0 DUP1 PUSH1 0x40 DUP4 DUP6 SUB SLT ISZERO PUSH2 0x20C6 JUMPI PUSH0 DUP1 REVERT JUMPDEST POP POP DUP1 CALLDATALOAD SWAP3 PUSH1 0x20 SWAP1 SWAP2 ADD CALLDATALOAD SWAP2 POP JUMP JUMPDEST DUP6 DUP2 MSTORE PUSH1 0xA0 PUSH1 0x20 DUP3 ADD MSTORE PUSH0 PUSH2 0x20ED PUSH1 0xA0 DUP4 ADD DUP8 PUSH2 0x1C87 JUMP JUMPDEST SWAP1 POP DUP5 ISZERO ISZERO PUSH1 0x40 DUP4 ADD MSTORE PUSH2 0x2104 PUSH1 0x60 DUP4 ADD DUP6 PUSH2 0x1E4C JUMP JUMPDEST DUP3 PUSH1 0x80 DUP4 ADD MSTORE SWAP7 SWAP6 POP POP POP POP POP POP JUMP JUMPDEST PUSH1 0x20 DUP2 MSTORE PUSH0 PUSH2 0x1B59 PUSH1 0x20 DUP4 ADD DUP5 PUSH2 0x1C87 JUMP JUMPDEST PUSH0 DUP1 PUSH0 PUSH1 0x60 DUP5 DUP7 SUB SLT ISZERO PUSH2 0x2138 JUMPI PUSH0 DUP1 REVERT JUMPDEST DUP4 CALLDATALOAD SWAP3 POP PUSH1 0x20 DUP5 ADD CALLDATALOAD PUSH8 0xFFFFFFFFFFFFFFFF DUP2 GT ISZERO PUSH2 0x2155 JUMPI PUSH0 DUP1 REVERT JUMPDEST PUSH2 0x2161 DUP7 DUP3 DUP8 ADD PUSH2 0x1FC9 JUMP JUMPDEST SWAP3 POP POP PUSH2 0x1F51 PUSH1 0x40 DUP6 ADD PUSH2 0x1F00 JUMP JUMPDEST PUSH0 DUP1 PUSH0 DUP1 PUSH1 0x80 DUP6 DUP8 SUB SLT ISZERO PUSH2 0x2183 JUMPI PUSH0 DUP1 REVERT JUMPDEST DUP5 CALLDATALOAD SWAP4 POP PUSH1 0x20 DUP6 ADD CALLDATALOAD SWAP3 POP PUSH1 0x40 DUP6 ADD CALLDATALOAD PUSH8 0xFFFFFFFFFFFFFFFF DUP2 GT ISZERO PUSH2 0x21A7 JUMPI PUSH0 DUP1 REVERT JUMPDEST PUSH2 0x21B3 DUP8 DUP3 DUP9 ADD PUSH2 0x1FC9 JUMP JUMPDEST SWAP3 POP POP PUSH2 0x21C2 PUSH1 0x60 DUP7 ADD PUSH2 0x1F00 JUMP JUMPDEST SWAP1 POP SWAP3 SWAP6 SWAP2 SWAP5 POP SWAP3 POP JUMP JUMPDEST PUSH0 DUP1 PUSH0 PUSH1 0x60 DUP5 DUP7 SUB SLT ISZERO PUSH2 0x21DF JUMPI PUSH0 DUP1 REVERT JUMPDEST DUP4 CALLDATALOAD PUSH8 0xFFFFFFFFFFFFFFFF DUP1 DUP3 GT ISZERO PUSH2 0x21F6 JUMPI PUSH0 DUP1 REVERT JUMPDEST PUSH2 0x2202 DUP8 DUP4 DUP9 ADD PUSH2 0x1FC9 JUMP JUMPDEST SWAP5 POP PUSH1 0x20 SWAP2 POP DUP2 DUP7 ADD CALLDATALOAD DUP2 DUP2 GT ISZERO PUSH2 0x2218 JUMPI PUSH0 DUP1 REVERT JUMPDEST DUP7 ADD PUSH1 0x1F DUP2 ADD DUP9 SGT PUSH2 0x2228 JUMPI PUSH0 DUP1 REVERT JUMPDEST DUP1 CALLDATALOAD DUP3 DUP2 GT ISZERO PUSH2 0x223A JUMPI PUSH2 0x223A PUSH2 0x1F84 JUMP JUMPDEST DUP1 PUSH1 0x5 SHL SWAP3 POP PUSH2 0x224B DUP5 DUP5 ADD PUSH2 0x1F98 JUMP JUMPDEST DUP2 DUP2 MSTORE SWAP3 DUP3 ADD DUP5 ADD SWAP3 DUP5 DUP2 ADD SWAP1 DUP11 DUP6 GT ISZERO PUSH2 0x2264 JUMPI PUSH0 DUP1 REVERT JUMPDEST SWAP3 DUP6 ADD SWAP3 JUMPDEST DUP5 DUP5 LT ISZERO PUSH2 0x2289 JUMPI PUSH2 0x227A DUP5 PUSH2 0x1F00 JUMP JUMPDEST DUP3 MSTORE SWAP3 DUP6 ADD SWAP3 SWAP1 DUP6 ADD SWAP1 PUSH2 0x2269 JUMP JUMPDEST DUP1 SWAP8 POP POP POP POP POP POP POP PUSH2 0x1F51 PUSH1 0x40 DUP6 ADD PUSH2 0x1F00 JUMP JUMPDEST DUP4 DUP2 MSTORE PUSH1 0x60 PUSH1 0x20 DUP3 ADD MSTORE PUSH0 PUSH2 0x22B6 PUSH1 0x60 DUP4 ADD DUP6 PUSH2 0x1C87 JUMP JUMPDEST SWAP1 POP PUSH1 0x1 DUP1 PUSH1 0xA0 SHL SUB DUP4 AND PUSH1 0x40 DUP4 ADD MSTORE SWAP5 SWAP4 POP POP POP POP JUMP JUMPDEST DUP5 DUP2 MSTORE DUP4 PUSH1 0x20 DUP3 ADD MSTORE PUSH1 0x80 PUSH1 0x40 DUP3 ADD MSTORE PUSH0 PUSH2 0x22EC PUSH1 0x80 DUP4 ADD DUP6 PUSH2 0x1C87 JUMP JUMPDEST SWAP1 POP PUSH1 0x1 DUP1 PUSH1 0xA0 SHL SUB DUP4 AND PUSH1 0x60 DUP4 ADD MSTORE SWAP6 SWAP5 POP POP POP POP POP JUMP JUMPDEST PUSH0 PUSH1 0x20 DUP3 DUP5 SUB SLT ISZERO PUSH2 0x2315 JUMPI PUSH0 DUP1 REVERT JUMPDEST PUSH2 0x1B59 DUP3 PUSH2 0x1F00 JUMP JUMPDEST PUSH1 0x1 DUP2 DUP2 SHR SWAP1 DUP3 AND DUP1 PUSH2 0x2332 JUMPI PUSH1 0x7F DUP3 AND SWAP2 POP JUMPDEST PUSH1 0x20 DUP3 LT DUP2 SUB PUSH2 0x750 JUMPI PUSH4 0x4E487B71 PUSH1 0xE0 SHL PUSH0 MSTORE PUSH1 0x22 PUSH1 0x4 MSTORE PUSH1 0x24 PUSH0 REVERT JUMPDEST PUSH4 0x4E487B71 PUSH1 0xE0 SHL PUSH0 MSTORE PUSH1 0x32 PUSH1 0x4 MSTORE PUSH1 0x24 PUSH0 REVERT JUMPDEST PUSH4 0x4E487B71 PUSH1 0xE0 SHL PUSH0 MSTORE PUSH1 0x11 PUSH1 0x4 MSTORE PUSH1 0x24 PUSH0 REVERT JUMPDEST PUSH0 PUSH1 0x1 DUP3 ADD PUSH2 0x2389 JUMPI PUSH2 0x2389 PUSH2 0x2364 JUMP JUMPDEST POP PUSH1 0x1 ADD SWAP1 JUMP JUMPDEST PUSH1 0x20 DUP1 DUP3 MSTORE PUSH1 0x10 SWAP1 DUP3 ADD MSTORE PUSH16 0x109B1BD8C81A5CC8199A5B9A5CDA1959 PUSH1 0x82 SHL PUSH1 0x40 DUP3 ADD MSTORE PUSH1 0x60 ADD SWAP1 JUMP JUMPDEST PUSH1 0x20 DUP1 DUP3 MSTORE PUSH1 0x1D SWAP1 DUP3 ADD MSTORE PUSH32 0x4E6F7420612063726561746F72206F6620746869732073656564626F78000000 PUSH1 0x40 DUP3 ADD MSTORE PUSH1 0x60 ADD SWAP1 JUMP JUMPDEST PUSH1 0x20 DUP1 DUP3 MSTORE PUSH1 0x12 SWAP1 DUP3 ADD MSTORE PUSH18 0x14D9595908189BDE081B9BDD08199BDD5B99 PUSH1 0x72 SHL PUSH1 0x40 DUP3 ADD MSTORE PUSH1 0x60 ADD SWAP1 JUMP JUMPDEST PUSH1 0x1F DUP3 GT ISZERO PUSH2 0xA70 JUMPI DUP1 PUSH0 MSTORE PUSH1 0x20 PUSH0 KECCAK256 PUSH1 0x1F DUP5 ADD PUSH1 0x5 SHR DUP2 ADD PUSH1 0x20 DUP6 LT ISZERO PUSH2 0x2442 JUMPI POP DUP1 JUMPDEST PUSH1 0x1F DUP5 ADD PUSH1 0x5 SHR DUP3 ADD SWAP2 POP JUMPDEST DUP2 DUP2 LT ISZERO PUSH2 0xA0B JUMPI PUSH0 DUP2 SSTORE PUSH1 0x1 ADD PUSH2 0x244E JUMP JUMPDEST DUP2 MLOAD PUSH8 0xFFFFFFFFFFFFFFFF DUP2 GT ISZERO PUSH2 0x247B JUMPI PUSH2 0x247B PUSH2 0x1F84 JUMP JUMPDEST PUSH2 0x248F DUP2 PUSH2 0x2489 DUP5 SLOAD PUSH2 0x231E JUMP JUMPDEST DUP5 PUSH2 0x241D JUMP JUMPDEST PUSH1 0x20 DUP1 PUSH1 0x1F DUP4 GT PUSH1 0x1 DUP2 EQ PUSH2 0x24C2 JUMPI PUSH0 DUP5 ISZERO PUSH2 0x24AB JUMPI POP DUP6 DUP4 ADD MLOAD JUMPDEST PUSH0 NOT PUSH1 0x3 DUP7 SWAP1 SHL SHR NOT AND PUSH1 0x1 DUP6 SWAP1 SHL OR DUP6 SSTORE PUSH2 0x2519 JUMP JUMPDEST PUSH0 DUP6 DUP2 MSTORE PUSH1 0x20 DUP2 KECCAK256 PUSH1 0x1F NOT DUP7 AND SWAP2 JUMPDEST DUP3 DUP2 LT ISZERO PUSH2 0x24F0 JUMPI DUP9 DUP7 ADD MLOAD DUP3 SSTORE SWAP5 DUP5 ADD SWAP5 PUSH1 0x1 SWAP1 SWAP2 ADD SWAP1 DUP5 ADD PUSH2 0x24D1 JUMP JUMPDEST POP DUP6 DUP3 LT ISZERO PUSH2 0x250D JUMPI DUP8 DUP6 ADD MLOAD PUSH0 NOT PUSH1 0x3 DUP9 SWAP1 SHL PUSH1 0xF8 AND SHR NOT AND DUP2 SSTORE JUMPDEST POP POP PUSH1 0x1 DUP5 PUSH1 0x1 SHL ADD DUP6 SSTORE JUMPDEST POP POP POP POP POP POP JUMP JUMPDEST DUP1 DUP3 ADD DUP1 DUP3 GT ISZERO PUSH2 0x434 JUMPI PUSH2 0x434 PUSH2 0x2364 JUMP JUMPDEST PUSH1 0x60 SWAP2 SWAP1 SWAP2 SHL PUSH12 0xFFFFFFFFFFFFFFFFFFFFFFFF NOT AND DUP2 MSTORE PUSH5 0x30B236B4B7 PUSH1 0xD9 SHL PUSH1 0x14 DUP3 ADD MSTORE PUSH1 0x19 ADD SWAP1 JUMP INVALID LOG2 PUSH5 0x6970667358 0x22 SLT KECCAK256 CALLDATASIZE PUSH2 0xA66E 0xD5 0xAD SDIV 0xD3 JUMP DUP4 DUP9 0xD4 0xDC NOT 0xFC DELEGATECALL 0x5D BALANCE 0xD2 0xDB INVALID 0xAF 0xDC 0xF8 0xAE PUSH25 0xDD61FDC6930A64736F6C63430008160033A264697066735822 SLT KECCAK256 SWAP3 0xCF PUSH26 0x3DDBBE0B8AE23A2B3F12D8852590EF1C0017E6D79B66721F303E 0xD8 0x29 DUP4 PUSH5 0x736F6C6343 STOP ADDMOD AND STOP CALLER "
		},
		"gasEstimates": {
			"creation": {
				"codeDepositCost": "3987200",
				"executionCost": "infinite",
				"totalCost": "infinite"
			},
			"external": {
				"_domain()": "infinite",
				"_topdomain()": "infinite",
				"ccipReceive((bytes32,uint64,bytes,bytes,(address,uint256)[]))": "infinite",
				"checkUpkeep(bytes)": "infinite",
				"completeSeed(address,uint256,bytes32,string)": "infinite",
				"createMusicBloc(string,string,string)": "infinite",
				"emptyNamehash()": "259",
				"getRouter()": "infinite",
				"interval()": "infinite",
				"joinMusicBloc(address,string,address[])": "infinite",
				"lastTimeStamp()": "2406",
				"musicBlocs(uint256)": "2542",
				"musicBlocsCounter()": "2384",
				"performUpkeep(bytes)": "infinite",
				"postStatus(address,string,uint256)": "infinite",
				"registry()": "2358",
				"resolver()": "2382",
				"salts(uint256)": "4683",
				"startContribution(address,uint256)": "infinite",
				"supportsInterface(bytes4)": "447"
			},
			"internal": {
				"_ccipReceive(struct Client.Any2EVMMessage memory)": "infinite",
				"_completeSeed(struct SoundSphere.MusicBlocParams memory)": "infinite",
				"_createMusicBloc(struct SoundSphere.MusicBlocParams memory)": "infinite",
				"_deployMusicBloc(bytes32)": "infinite",
				"_joinMusicBloc(struct SoundSphere.MusicBlocParams memory)": "infinite",
				"_merge(struct SoundSphere.MusicBlocParams memory)": "infinite",
				"_postStatus(struct SoundSphere.MusicBlocParams memory)": "infinite",
				"_registerSubdomain(string memory,address)": "infinite",
				"_startContribution(struct SoundSphere.MusicBlocParams memory)": "infinite",
				"decodeMessage(bytes memory)": "infinite",
				"merge(address,bytes32,bool)": "infinite"
			}
		},
		"methodIdentifiers": {
			"_domain()": "6c18f84b",
			"_topdomain()": "df8288ec",
			"ccipReceive((bytes32,uint64,bytes,bytes,(address,uint256)[]))": "85572ffb",
			"checkUpkeep(bytes)": "6e04ff0d",
			"completeSeed(address,uint256,bytes32,string)": "b9b34e4d",
			"createMusicBloc(string,string,string)": "924112f6",
			"emptyNamehash()": "bc7dbb22",
			"getRouter()": "b0f479a1",
			"interval()": "947a36fb",
			"joinMusicBloc(address,string,address[])": "55d2c1c3",
			"lastTimeStamp()": "3f3b3b27",
			"musicBlocs(uint256)": "195b684f",
			"musicBlocsCounter()": "1d4a1d10",
			"performUpkeep(bytes)": "4585e33b",
			"postStatus(address,string,uint256)": "c84d7a0f",
			"registry()": "7b103999",
			"resolver()": "04f3bcec",
			"salts(uint256)": "ac1d45c5",
			"startContribution(address,uint256)": "605524b2",
			"supportsInterface(bytes4)": "01ffc9a7"
		}
	},
	"abi": [
		{
			"inputs": [
				{
					"internalType": "address",
					"name": "router",
					"type": "address"
				},
				{
					"internalType": "uint256",
					"name": "updateInterval",
					"type": "uint256"
				}
			],
			"stateMutability": "nonpayable",
			"type": "constructor"
		},
		{
			"inputs": [],
			"name": "Create2EmptyBytecode",
			"type": "error"
		},
		{
			"inputs": [],
			"name": "Create2FailedDeployment",
			"type": "error"
		},
		{
			"inputs": [
				{
					"internalType": "uint256",
					"name": "balance",
					"type": "uint256"
				},
				{
					"internalType": "uint256",
					"name": "needed",
					"type": "uint256"
				}
			],
			"name": "Create2InsufficientBalance",
			"type": "error"
		},
		{
			"inputs": [
				{
					"internalType": "address",
					"name": "router",
					"type": "address"
				}
			],
			"name": "InvalidRouter",
			"type": "error"
		},
		{
			"anonymous": false,
			"inputs": [
				{
					"indexed": true,
					"internalType": "bytes32",
					"name": "bloc",
					"type": "bytes32"
				},
				{
					"indexed": true,
					"internalType": "address",
					"name": "creator",
					"type": "address"
				}
			],
			"name": "CreatingMusicBloc",
			"type": "event"
		},
		{
			"anonymous": false,
			"inputs": [
				{
					"indexed": true,
					"internalType": "address",
					"name": "bloc",
					"type": "address"
				},
				{
					"indexed": true,
					"internalType": "uint256",
					"name": "seedBox",
					"type": "uint256"
				},
				{
					"indexed": true,
					"internalType": "address",
					"name": "creator",
					"type": "address"
				}
			],
			"name": "JoinedMusicBloc",
			"type": "event"
		},
		{
			"anonymous": false,
			"inputs": [
				{
					"indexed": true,
					"internalType": "address",
					"name": "bloc",
					"type": "address"
				},
				{
					"indexed": true,
					"internalType": "bytes32",
					"name": "seedId",
					"type": "bytes32"
				}
			],
			"name": "Merged",
			"type": "event"
		},
		{
			"anonymous": false,
			"inputs": [
				{
					"indexed": true,
					"internalType": "address",
					"name": "bloc",
					"type": "address"
				},
				{
					"indexed": true,
					"internalType": "address",
					"name": "creator",
					"type": "address"
				}
			],
			"name": "NewMusicBloc",
			"type": "event"
		},
		{
			"anonymous": false,
			"inputs": [
				{
					"indexed": true,
					"internalType": "address",
					"name": "bloc",
					"type": "address"
				},
				{
					"indexed": true,
					"internalType": "bytes32",
					"name": "seed",
					"type": "bytes32"
				},
				{
					"indexed": true,
					"internalType": "uint256",
					"name": "round",
					"type": "uint256"
				}
			],
			"name": "NewSeedStarted",
			"type": "event"
		},
		{
			"anonymous": false,
			"inputs": [
				{
					"indexed": true,
					"internalType": "address",
					"name": "musicBloc",
					"type": "address"
				},
				{
					"indexed": true,
					"internalType": "bytes32",
					"name": "seedId",
					"type": "bytes32"
				}
			],
			"name": "SeedCompleted",
			"type": "event"
		},
		{
			"anonymous": false,
			"inputs": [
				{
					"indexed": true,
					"internalType": "address",
					"name": "bloc",
					"type": "address"
				},
				{
					"indexed": true,
					"internalType": "string",
					"name": "message",
					"type": "string"
				},
				{
					"indexed": true,
					"internalType": "address",
					"name": "author",
					"type": "address"
				}
			],
			"name": "StatusPosted",
			"type": "event"
		},
		{
			"inputs": [],
			"name": "_domain",
			"outputs": [
				{
					"internalType": "string",
					"name": "",
					"type": "string"
				}
			],
			"stateMutability": "view",
			"type": "function"
		},
		{
			"inputs": [],
			"name": "_topdomain",
			"outputs": [
				{
					"internalType": "string",
					"name": "",
					"type": "string"
				}
			],
			"stateMutability": "view",
			"type": "function"
		},
		{
			"inputs": [
				{
					"components": [
						{
							"internalType": "bytes32",
							"name": "messageId",
							"type": "bytes32"
						},
						{
							"internalType": "uint64",
							"name": "sourceChainSelector",
							"type": "uint64"
						},
						{
							"internalType": "bytes",
							"name": "sender",
							"type": "bytes"
						},
						{
							"internalType": "bytes",
							"name": "data",
							"type": "bytes"
						},
						{
							"components": [
								{
									"internalType": "address",
									"name": "token",
									"type": "address"
								},
								{
									"internalType": "uint256",
									"name": "amount",
									"type": "uint256"
								}
							],
							"internalType": "struct Client.EVMTokenAmount[]",
							"name": "destTokenAmounts",
							"type": "tuple[]"
						}
					],
					"internalType": "struct Client.Any2EVMMessage",
					"name": "message",
					"type": "tuple"
				}
			],
			"name": "ccipReceive",
			"outputs": [],
			"stateMutability": "nonpayable",
			"type": "function"
		},
		{
			"inputs": [
				{
					"internalType": "bytes",
					"name": "",
					"type": "bytes"
				}
			],
			"name": "checkUpkeep",
			"outputs": [
				{
					"internalType": "bool",
					"name": "upkeepNeeded",
					"type": "bool"
				},
				{
					"internalType": "bytes",
					"name": "",
					"type": "bytes"
				}
			],
			"stateMutability": "view",
			"type": "function"
		},
		{
			"inputs": [
				{
					"internalType": "address",
					"name": "bloc",
					"type": "address"
				},
				{
					"internalType": "uint256",
					"name": "seedBox",
					"type": "uint256"
				},
				{
					"internalType": "bytes32",
					"name": "seedID",
					"type": "bytes32"
				},
				{
					"internalType": "string",
					"name": "seed",
					"type": "string"
				}
			],
			"name": "completeSeed",
			"outputs": [],
			"stateMutability": "nonpayable",
			"type": "function"
		},
		{
			"inputs": [
				{
					"internalType": "string",
					"name": "cid",
					"type": "string"
				},
				{
					"internalType": "string",
					"name": "name",
					"type": "string"
				},
				{
					"internalType": "string",
					"name": "seed",
					"type": "string"
				}
			],
			"name": "createMusicBloc",
			"outputs": [],
			"stateMutability": "nonpayable",
			"type": "function"
		},
		{
			"inputs": [],
			"name": "emptyNamehash",
			"outputs": [
				{
					"internalType": "bytes32",
					"name": "",
					"type": "bytes32"
				}
			],
			"stateMutability": "view",
			"type": "function"
		},
		{
			"inputs": [],
			"name": "getRouter",
			"outputs": [
				{
					"internalType": "address",
					"name": "",
					"type": "address"
				}
			],
			"stateMutability": "view",
			"type": "function"
		},
		{
			"inputs": [],
			"name": "interval",
			"outputs": [
				{
					"internalType": "uint256",
					"name": "",
					"type": "uint256"
				}
			],
			"stateMutability": "view",
			"type": "function"
		},
		{
			"inputs": [
				{
					"internalType": "address",
					"name": "bloc",
					"type": "address"
				},
				{
					"internalType": "string",
					"name": "cid",
					"type": "string"
				},
				{
					"internalType": "address[]",
					"name": "contributors",
					"type": "address[]"
				}
			],
			"name": "joinMusicBloc",
			"outputs": [],
			"stateMutability": "nonpayable",
			"type": "function"
		},
		{
			"inputs": [],
			"name": "lastTimeStamp",
			"outputs": [
				{
					"internalType": "uint256",
					"name": "",
					"type": "uint256"
				}
			],
			"stateMutability": "view",
			"type": "function"
		},
		{
			"inputs": [
				{
					"internalType": "uint256",
					"name": "",
					"type": "uint256"
				}
			],
			"name": "musicBlocs",
			"outputs": [
				{
					"internalType": "address",
					"name": "",
					"type": "address"
				}
			],
			"stateMutability": "view",
			"type": "function"
		},
		{
			"inputs": [],
			"name": "musicBlocsCounter",
			"outputs": [
				{
					"internalType": "uint256",
					"name": "",
					"type": "uint256"
				}
			],
			"stateMutability": "view",
			"type": "function"
		},
		{
			"inputs": [
				{
					"internalType": "bytes",
					"name": "",
					"type": "bytes"
				}
			],
			"name": "performUpkeep",
			"outputs": [],
			"stateMutability": "nonpayable",
			"type": "function"
		},
		{
			"inputs": [
				{
					"internalType": "address",
					"name": "bloc",
					"type": "address"
				},
				{
					"internalType": "string",
					"name": "message",
					"type": "string"
				},
				{
					"internalType": "uint256",
					"name": "seedBox",
					"type": "uint256"
				}
			],
			"name": "postStatus",
			"outputs": [],
			"stateMutability": "nonpayable",
			"type": "function"
		},
		{
			"inputs": [],
			"name": "registry",
			"outputs": [
				{
					"internalType": "contract ENSRegistry",
					"name": "",
					"type": "address"
				}
			],
			"stateMutability": "view",
			"type": "function"
		},
		{
			"inputs": [],
			"name": "resolver",
			"outputs": [
				{
					"internalType": "contract ENSResolver",
					"name": "",
					"type": "address"
				}
			],
			"stateMutability": "view",
			"type": "function"
		},
		{
			"inputs": [
				{
					"internalType": "uint256",
					"name": "",
					"type": "uint256"
				}
			],
			"name": "salts",
			"outputs": [
				{
					"internalType": "bytes32",
					"name": "",
					"type": "bytes32"
				}
			],
			"stateMutability": "view",
			"type": "function"
		},
		{
			"inputs": [
				{
					"internalType": "address",
					"name": "bloc",
					"type": "address"
				},
				{
					"internalType": "uint256",
					"name": "seedBox",
					"type": "uint256"
				}
			],
			"name": "startContribution",
			"outputs": [],
			"stateMutability": "nonpayable",
			"type": "function"
		},
		{
			"inputs": [
				{
					"internalType": "bytes4",
					"name": "interfaceId",
					"type": "bytes4"
				}
			],
			"name": "supportsInterface",
			"outputs": [
				{
					"internalType": "bool",
					"name": "",
					"type": "bool"
				}
			],
			"stateMutability": "pure",
			"type": "function"
		}
	]
}